{
  "contractName": "AdrLib",
  "abi": [
    {
      "constant": true,
      "inputs": [
        {
          "name": "adrL",
          "type": "address[] storage"
        },
        {
          "name": "adr",
          "type": "address"
        }
      ],
      "name": "assertInside",
      "outputs": [
        {
          "name": "",
          "type": "bool"
        }
      ],
      "payable": false,
      "stateMutability": "view",
      "type": "function"
    }
  ],
  "bytecode": "0x6060604052341561000f57600080fd5b6101048061001e6000396000f300606060405260043610603e5763ffffffff7c01000000000000000000000000000000000000000000000000000000006000350416632c2fc20e81146043575b600080fd5b606560043573ffffffffffffffffffffffffffffffffffffffff602435166079565b604051901515815260200160405180910390f35b6000805b835481101560cc578381815481101515609257fe5b60009182526020909120015473ffffffffffffffffffffffffffffffffffffffff8481169116141560c5576001915060d1565b600101607d565b600091505b50929150505600a165627a7a7230582054bc60171f49c12c1c7da8320cc17d156f08bc66d221d50a3e11b245c955639c0029",
  "source": "pragma solidity ^0.4.4;\n\nlibrary AdrLib {\n  /*function AddInList(address[] storage adrL, address) returns (uint ind) {\n    \n  }*/\n\n  function assertInside(address[] storage adrL, address adr) public view returns (bool) {\n    for (uint i = 0; i < adrL.length; i++) {\n      if (adr == adrL[i]) {\n        return true;\n      }\n    }\n    return false;\n  }\n\n}\n",
  "sourcePath": "C:\\Users\\qianc\\Documents\\Thesis\\Code\\SimpleMonitor\\contracts\\AdrLib.sol",
  "compiler": {
    "name": "solc",
    "version": "0.4.18+commit.9cf6e910.Emscripten.clang"
  },
  "schemaVersion": "1.0.1",
  "updatedAt": "2017-11-27T15:20:11.490Z"
}