{
  "contractName": "AdrLib",
  "abi": [
    {
      "constant": true,
      "inputs": [
        {
          "name": "adrL",
          "type": "address[] storage"
        },
        {
          "name": "adr",
          "type": "address"
        }
      ],
      "name": "assertInside",
      "outputs": [
        {
          "name": "",
          "type": "bool"
        }
      ],
      "payable": false,
      "stateMutability": "view",
      "type": "function"
    }
  ],
  "bytecode": "0x6060604052341561000f57600080fd5b6101048061001e6000396000f300606060405260043610603e5763ffffffff7c01000000000000000000000000000000000000000000000000000000006000350416632c2fc20e81146043575b600080fd5b606560043573ffffffffffffffffffffffffffffffffffffffff602435166079565b604051901515815260200160405180910390f35b6000805b835481101560cc578381815481101515609257fe5b60009182526020909120015473ffffffffffffffffffffffffffffffffffffffff8481169116141560c5576001915060d1565b600101607d565b600091505b50929150505600a165627a7a72305820c745e7221e946c11db6228d8d1cb31d59442c1575206da6ab6cfb6957bc846490029",
  "source": "pragma solidity ^0.4.4;\r\n\r\nlibrary AdrLib {\r\n  /*function AddInList(address[] storage adrL, address) returns (uint ind) {\r\n    \r\n  }*/\r\n\r\n  function assertInside(address[] storage adrL, address adr) public view returns (bool) {\r\n    for (uint i = 0; i < adrL.length; i++) {\r\n      if (adr == adrL[i]) {\r\n        return true;\r\n      }\r\n    }\r\n    return false;\r\n  }\r\n\r\n}\r\n",
  "sourcePath": "C:\\Users\\qianc\\Documents\\Thesis\\Code\\SimpleMonitor\\contracts\\AdrLib.sol",
  "compiler": {
    "name": "solc",
    "version": "0.4.18+commit.9cf6e910.Emscripten.clang"
  },
  "schemaVersion": "1.0.1",
  "updatedAt": "2017-11-30T20:07:43.910Z"
}