{
  "contractName": "ClockLib",
  "abi": [
    {
      "constant": false,
      "inputs": [
        {
          "name": "_gc",
          "type": "ClockLib.GlobalClock storage"
        }
      ],
      "name": "initClock",
      "outputs": [],
      "payable": false,
      "stateMutability": "nonpayable",
      "type": "function"
    }
  ],
  "bytecode": "0x6060604052341561000f57600080fd5b6101288061001e6000396000f300606060405260043610603e5763ffffffff7c0100000000000000000000000000000000000000000000000000000000600035041663bb9cc4b981146043575b600080fd5b604c600435604e565b005b600080825560018201819055600282015560c0604051908101604090815260098252600160208301526002908201819052606082018190526005608083015260a082015260a0906003830190600660a4565b5050565b826006810192821560d4579160200282015b8281111560d4578251829060ff1690559160200191906001019060b6565b5060de92915060e2565b5090565b60f991905b8082111560de576000815560010160e7565b905600a165627a7a7230582049df6d323ccd4fb8eda645e911eaf4765c2b30576e0f4729d2254e82ed66e5040029",
  "source": "pragma solidity ^0.4.4;\n\nlibrary ClockLib {\n\n  struct GlobalClock {\n    uint statusNo;\n    uint maxLoop;\n    uint currentLoop;\n    uint[6] timeInterval; // = [9, 1, 2, 2, 5, 2]; \n  }\n\n\n  function initClock(GlobalClock storage _gc) {\n    _gc.statusNo = 0;\n    _gc.maxLoop = 0;\n    _gc.currentLoop = 0;\n    _gc.timeInterval = [9, 1, 2, 2, 5, 2]; \n  }\n}\n",
  "sourcePath": "C:\\Users\\qianc\\Documents\\Thesis\\Code\\SimpleMonitor\\contracts\\ClockLib.sol",
  "compiler": {
    "name": "solc",
    "version": "0.4.18+commit.9cf6e910.Emscripten.clang"
  },
  "schemaVersion": "1.0.1",
  "updatedAt": "2017-11-29T01:40:10.337Z"
}