{
  "contractName": "Configuration",
  "abi": [
    {
      "constant": false,
      "inputs": [
        {
          "name": "adr",
          "type": "address"
        }
      ],
      "name": "addGrid",
      "outputs": [],
      "payable": false,
      "stateMutability": "nonpayable",
      "type": "function"
    },
    {
      "constant": true,
      "inputs": [
        {
          "name": "adr",
          "type": "address"
        }
      ],
      "name": "getContractAddress",
      "outputs": [
        {
          "name": "",
          "type": "address"
        }
      ],
      "payable": false,
      "stateMutability": "view",
      "type": "function"
    },
    {
      "constant": true,
      "inputs": [],
      "name": "getAdmin",
      "outputs": [
        {
          "name": "",
          "type": "address"
        }
      ],
      "payable": false,
      "stateMutability": "view",
      "type": "function"
    },
    {
      "constant": true,
      "inputs": [],
      "name": "statusAt",
      "outputs": [
        {
          "name": "",
          "type": "uint256"
        }
      ],
      "payable": false,
      "stateMutability": "view",
      "type": "function"
    },
    {
      "constant": false,
      "inputs": [
        {
          "name": "adr1",
          "type": "address"
        },
        {
          "name": "adr2",
          "type": "address"
        }
      ],
      "name": "linkDevices",
      "outputs": [],
      "payable": false,
      "stateMutability": "nonpayable",
      "type": "function"
    },
    {
      "constant": true,
      "inputs": [],
      "name": "gridAdr",
      "outputs": [
        {
          "name": "",
          "type": "address"
        }
      ],
      "payable": false,
      "stateMutability": "view",
      "type": "function"
    },
    {
      "constant": false,
      "inputs": [
        {
          "name": "adr",
          "type": "address"
        }
      ],
      "name": "getDeviceType",
      "outputs": [
        {
          "name": "",
          "type": "uint8"
        }
      ],
      "payable": false,
      "stateMutability": "nonpayable",
      "type": "function"
    },
    {
      "constant": false,
      "inputs": [
        {
          "name": "_deviceType",
          "type": "uint8"
        },
        {
          "name": "adr",
          "type": "address"
        },
        {
          "name": "capacity",
          "type": "uint256"
        },
        {
          "name": "g",
          "type": "bool"
        }
      ],
      "name": "addDevice",
      "outputs": [],
      "payable": false,
      "stateMutability": "nonpayable",
      "type": "function"
    },
    {
      "constant": true,
      "inputs": [],
      "name": "getGridAdr",
      "outputs": [
        {
          "name": "",
          "type": "address"
        }
      ],
      "payable": false,
      "stateMutability": "view",
      "type": "function"
    },
    {
      "constant": true,
      "inputs": [],
      "name": "admin",
      "outputs": [
        {
          "name": "",
          "type": "address"
        }
      ],
      "payable": false,
      "stateMutability": "view",
      "type": "function"
    },
    {
      "constant": true,
      "inputs": [],
      "name": "globalTimerAdr",
      "outputs": [
        {
          "name": "",
          "type": "address"
        }
      ],
      "payable": false,
      "stateMutability": "view",
      "type": "function"
    },
    {
      "inputs": [],
      "payable": false,
      "stateMutability": "nonpayable",
      "type": "constructor"
    },
    {
      "anonymous": false,
      "inputs": [
        {
          "indexed": false,
          "name": "deviceAdr",
          "type": "address"
        }
      ],
      "name": "LogDevice",
      "type": "event"
    },
    {
      "anonymous": false,
      "inputs": [
        {
          "indexed": false,
          "name": "device1",
          "type": "address"
        },
        {
          "indexed": false,
          "name": "device2",
          "type": "address"
        }
      ],
      "name": "LogConnection",
      "type": "event"
    }
  ],
  "bytecode": "0x606060405260008054600160a060020a03191633600160a060020a03161790556004805462ffffff19169055341561003657600080fd5b60005433600160a060020a0390811691161415610094574260035561005961009e565b604051809103906000f080151561006f57600080fd5b60018054600160a060020a031916600160a060020a0392909216919091179055610099565b600080fd5b6100ae565b6040516101ce80614e4283390190565b614d85806100bd6000396000f3006060604052600436106100955763ffffffff60e060020a6000350416633474efe6811461009a578063622bc90e146100bb5780636e9960c3146100f657806380f57b3b146101095780638368bfcf1461012e578063a1f51d0314610153578063bb2f6e2c14610166578063d88b35431461019b578063f0c998ec146101c8578063f851a440146101db578063f9c699ef146101ee575b600080fd5b34156100a557600080fd5b6100b9600160a060020a0360043516610201565b005b34156100c657600080fd5b6100da600160a060020a0360043516610324565b604051600160a060020a03909116815260200160405180910390f35b341561010157600080fd5b6100da61035e565b341561011457600080fd5b61011c61036d565b60405190815260200160405180910390f35b341561013957600080fd5b6100b9600160a060020a0360043581169060243516610373565b341561015e57600080fd5b6100da6106f6565b341561017157600080fd5b610185600160a060020a0360043516610705565b60405160ff909116815260200160405180910390f35b34156101a657600080fd5b6100b960ff60043516600160a060020a03602435166044356064351515610763565b34156101d357600080fd5b6100da610bd9565b34156101e657600080fd5b6100da610be8565b34156101f957600080fd5b6100da610bf7565b60005433600160a060020a03908116911614156100955780610221610c06565b600160a060020a039091168152602001604051809103906000f080151561024757600080fd5b600160a060020a0382811660009081526006602052604090819020805473ffffffffffffffffffffffffffffffffffffffff1916938316939093179283905560015492821692630830cfae9216905160e060020a63ffffffff8416028152600160a060020a039091166004820152602401600060405180830381600087803b15156102d157600080fd5b6102c65a03f115156102e257600080fd5b505050600160a060020a038082166000908152600660205260409020546002805473ffffffffffffffffffffffffffffffffffffffff19169190921617905550565b6000805433600160a060020a03908116911614156100955750600160a060020a03808216600090815260066020526040902054165b919050565b600054600160a060020a031690565b60035481565b61037b610c16565b60005433600160a060020a03908116911614156100955761039b83610705565b60ff1681526103a982610705565b60ff1660208201526003815160ff161080156103f25750600160a060020a0380841660009081526005602090815260408083208685168452600201909152902054610100900416155b15156103fd57600080fd5b6003602082015160ff161080156104415750600160a060020a0380831660009081526005602090815260408083208785168452600201909152902054610100900416155b151561044c57600080fd5b600160a060020a03808316600081815260056020908152604080832094881683528083209383526002938401909152902082548154919260ff90911691839160ff199091169060019084908111156104a057fe5b02179055508154815474ffffffffffffffffffffffffffffffffffffffff00191661010091829004600160a060020a03908116909202178255600192830154918301919091558481166000818152600560209081526040808320948816835280832093835260029384019091529020825481549394919360ff90911692849260ff199092169190849081111561053257fe5b02179055508154815474ffffffffffffffffffffffffffffffffffffffff00191661010091829004600160a060020a0390811690920217825560019283015491830191909155848116600090815260066020526040902054169063bfd119039083906020020151600160a060020a038086166000908152600660205260409081902054909116905160e060020a63ffffffff851602815260ff9092166004830152600160a060020a03166024820152604401600060405180830381600087803b15156105fd57600080fd5b6102c65a03f1151561060e57600080fd5b505050600160a060020a038281166000908152600660205260409020541663bfd119038251600160a060020a038087166000908152600660205260409081902054909116905160e060020a63ffffffff851602815260ff9092166004830152600160a060020a03166024820152604401600060405180830381600087803b151561069757600080fd5b6102c65a03f115156106a857600080fd5b5050507f2defa27bb08b7ca89bc5fb146b34db072eccd285461d98ae368b88088a6cb8ec8383604051600160a060020a039283168152911660208201526040908101905180910390a1505050565b600254600160a060020a031681565b600160a060020a038082166000908152600560205260408120549091610100909104161561075b57600160a060020a03821660009081526005602052604090205460ff16600281111561075457fe5b9050610359565b50600f610359565b61076b610c3d565b60005433600160a060020a039081169116141561009557600360ff86161061079257600080fd5b60ff8516151561082357836107a5610c5f565b600160a060020a039091168152602001604051809103906000f08015156107cb57600080fd5b600160a060020a038581166000908152600660205260409020805473ffffffffffffffffffffffffffffffffffffffff1916929091169190911790556004805460ff19811660ff918216600101909116179055610954565b8460ff16600114156108bf5783610838610c6f565b600160a060020a039091168152602001604051809103906000f080151561085e57600080fd5b600160a060020a038581166000908152600660205260409020805473ffffffffffffffffffffffffffffffffffffffff1916929091169190911790556004805461ff001981166101009182900460ff90811660010116909102179055610954565b83836108c9610c7f565b600160a060020a039092168252602082015260409081019051809103906000f08015156108f557600080fd5b600160a060020a038581166000908152600660205260409020805473ffffffffffffffffffffffffffffffffffffffff1916929091169190911790556004805462ff0000198116620100009182900460ff908116600101169091021790555b8115610a5c57600160a060020a03808516600090815260066020526040908190205460025490831692638d646b11929116905160e060020a63ffffffff8416028152600160a060020a039091166004820152602401600060405180830381600087803b15156109c257600080fd5b6102c65a03f115156109d357600080fd5b5050600254600160a060020a038681166000908152600660205260409081902054928216935063bfd1190392899216905160e060020a63ffffffff851602815260ff9092166004830152600160a060020a03166024820152604401600060405180830381600087803b1515610a4757600080fd5b6102c65a03f11515610a5857600080fd5b5050505b8460ff166002811115610a6b57fe5b81906002811115610a7857fe5b90816002811115610a8557fe5b905250600160a060020a03808516600081815260066020908152604080832054909416858201524285850152918152600590915220819081518154829060ff19166001836002811115610ad457fe5b021790555060208201518154600160a060020a03919091166101000274ffffffffffffffffffffffffffffffffffffffff00199091161781556040820151600191820155600160a060020a03808716600090815260066020526040908190205492549282169350630830cfae92909116905160e060020a63ffffffff8416028152600160a060020a039091166004820152602401600060405180830381600087803b1515610b8157600080fd5b6102c65a03f11515610b9257600080fd5b5050507f65c506643f4516f3ef335c5dd71017b8e849268cd860c3235c7db2c62fd8e93b84604051600160a060020a03909116815260200160405180910390a15050505050565b600254600160a060020a031690565b600054600160a060020a031681565b600154600160a060020a031681565b6040516109b080610c9083390190565b604080519081016040526002815b600081526000199091019060200181610c245790505090565b6060604051908101604052806000815260006020820181905260409091015290565b604051610f898061164083390190565b6040516111d8806125c983390190565b6040516115b9806137a1833901905600606060405260038054600160a060020a031990811690915560048054909116905561012c60075560646009819055600a55341561003b57600080fd5b6040516020806109b08339810160405280805160018054600160a060020a03928316600160a060020a0319918216179091556000805433909316929091169190911790555050610920806100906000396000f3006060604052600436106100955763ffffffff60e060020a6000350416630830cfae811461009a578063235a4a4f146100bb57806335f7f5e2146100e05780636e2855441461010e57806370ed8f24146101245780638d646b111461015357806398d5fdca14610172578063bfd119031461019f578063cb99c157146101c1578063f7d97577146101d4578063ff1b636d146101ed575b600080fd5b34156100a557600080fd5b6100b9600160a060020a0360043516610200565b005b34156100c657600080fd5b6100ce610243565b60405190815260200160405180910390f35b34156100eb57600080fd5b6100f66004356102ad565b60405191825260208201526040908101905180910390f35b341561011957600080fd5b6100f66004356103d7565b341561012f57600080fd5b61013761050a565b604051600160a060020a03909116815260200160405180910390f35b341561015e57600080fd5b6100b9600160a060020a0360043516610519565b341561017d57600080fd5b61018561055d565b604051918252151560208201526040908101905180910390f35b34156101aa57600080fd5b6100b9600435600160a060020a0360243516610582565b34156101cc57600080fd5b6100b96105ed565b34156101df57600080fd5b6100b960043560243561086c565b34156101f857600080fd5b6101376108a8565b60005433600160a060020a0390811691161415610095576004805473ffffffffffffffffffffffffffffffffffffffff1916600160a060020a0383161790555b50565b600454600090600160a060020a0316633b7104f282604051602001526040518163ffffffff1660e060020a028152600401602060405180830381600087803b151561028d57600080fd5b6102c65a03f1151561029e57600080fd5b50505060405180519150505b90565b600080600d5490508273__TransactLib___________________________63bc2e368c9091600a5460006040516020015260405160e060020a63ffffffff85160281526004810192909252602482015260440160206040518083038186803b151561031757600080fd5b6102c65a03f4151561032857600080fd5b505050604051805190509150600a5473__TransactLib___________________________639e5fd0a99091843060006040516020015260405160e060020a63ffffffff861602815260048101939093526024830191909152600160a060020a0316604482015260640160206040518083038186803b15156103a857600080fd5b6102c65a03f415156103b957600080fd5b5050506040518051600a5550600b8054838302900390559092909150565b600080600c5490508273__TransactLib___________________________63bc2e368c909160095460006040516020015260405160e060020a63ffffffff85160281526004810192909252602482015260440160206040518083038186803b151561044157600080fd5b6102c65a03f4151561045257600080fd5b5050506040518051600980548290039055600b5490935073__TransactLib___________________________915063e2992d2990838502333060006040516020015260405160e060020a63ffffffff871602815260048101949094526024840192909252600160a060020a03908116604484015216606482015260840160206040518083038186803b15156104e657600080fd5b6102c65a03f415156104f757600080fd5b5050506040518051600b55509092909150565b600454600160a060020a031690565b60005433600160a060020a0390811691161415610095576003805473ffffffffffffffffffffffffffffffffffffffff1916600160a060020a038316179055610240565b600c54600754600854600091429101101561057a5750600061057e565b5060015b9091565b60005433600160a060020a03908116911614156100955760008281526006602052604090208054600181016105b783826108b7565b506000918252602090912001805473ffffffffffffffffffffffffffffffffffffffff1916600160a060020a0383161790555050565b6000808080808080805b600260005260066020527f8819ef417987f8ae7a81f42cdfb18815282fe989326fbff903d13cf0e03ace295481101561086257600260005260066020527f8819ef417987f8ae7a81f42cdfb18815282fe989326fbff903d13cf0e03ace2980548290811061066157fe5b6000918252602082200154600160a060020a031690631b45f0e090604051608001526040518163ffffffff1660e060020a028152600401608060405180830381600087803b15156106b157600080fd5b6102c65a03f115156106c257600080fd5b5050506040518051906020018051906020018051906020018051939b50919950975090955085905080156106f557508715155b1561085a57600260005260066020527f8819ef417987f8ae7a81f42cdfb18815282fe989326fbff903d13cf0e03ace2980548290811061073157fe5b6000918252602082200154600954600160a060020a0390911693508391630ff3728291906040516020015260405160e060020a63ffffffff84160281526004810191909152602401602060405180830381600087803b151561079257600080fd5b6102c65a03f115156107a357600080fd5b5050506040518051600980548290039055600c54600b549196508602945073__TransactLib___________________________915063e2992d299085853060006040516020015260405160e060020a63ffffffff871602815260048101949094526024840192909252600160a060020a03908116604484015216606482015260840160206040518083038186803b151561083c57600080fd5b6102c65a03f4151561084d57600080fd5b5050506040518051600b55505b6001016105f7565b5050505050505050565b6001610876610243565b8114156100955760015433600160a060020a039081169116141561009557600c839055600d829055426008555b505050565b600054600160a060020a031681565b8154818355818115116108a3576000838152602090206108a39181019083016102aa91905b808211156108f057600081556001016108dc565b50905600a165627a7a723058200d7ac539d67cca99f7074f964caa0068daac6aed8600f8233c2196eaf968b5a30029606060405260038054600160a060020a031990811690915560048054909116905561012c600855341561003157600080fd5b604051602080610f898339810160405280805160018054600160a060020a03928316600160a060020a0319918216179091556000805433909316929091169190911790555050610f03806100866000396000f3006060604052600436106100cc5763ffffffff60e060020a6000350416630830cfae81146100d15780630ff37282146100f2578063132996041461011a5780631b45f0e01461012d578063235a4a4f1461016c5780633acca96d1461017f578063557ed1ba146101925780635a500ecc146101a557806370ed8f24146101bb5780638a5cb1b6146101ea5780638d646b1114610215578063aac12b4b14610234578063bbe4fd5014610247578063bfd119031461025a578063c97460291461027c578063ff1b636d1461028f575b600080fd5b34156100dc57600080fd5b6100f0600160a060020a03600435166102a2565b005b34156100fd57600080fd5b6101086004356102e5565b60405190815260200160405180910390f35b341561012557600080fd5b61010861056f565b341561013857600080fd5b610140610576565b604051938452602084019290925260408084019190915290151560608301526080909101905180910390f35b341561017757600080fd5b61010861061b565b341561018a57600080fd5b6100f0610684565b341561019d57600080fd5b6101086107cf565b34156101b057600080fd5b6100f06004356107de565b34156101c657600080fd5b6101ce61087e565b604051600160a060020a03909116815260200160405180910390f35b34156101f557600080fd5b6101fd61088d565b60405191825260208201526040908101905180910390f35b341561022057600080fd5b6100f0600160a060020a0360043516610897565b341561023f57600080fd5b6100f06108db565b341561025257600080fd5b610108610a5b565b341561026557600080fd5b6100f0600435600160a060020a0360243516610a5f565b341561028757600080fd5b6100f0610acb565b341561029a57600080fd5b6101ce610e4b565b60005433600160a060020a03908116911614156100cc576004805473ffffffffffffffffffffffffffffffffffffffff1916600160a060020a0383161790555b50565b600260009081526006602052338173__AdrLib________________________________632c2fc20e600080516020610eb883398151915284846040516020015260405160e060020a63ffffffff85160281526004810192909252600160a060020a0316602482015260440160206040518083038186803b151561036757600080fd5b6102c65a03f4151561037857600080fd5b5050506040518051905080610427575060016000908152600660205273__AdrLib________________________________90632c2fc20e90600080516020610e988339815191529085906040516020015260405160e060020a63ffffffff85160281526004810192909252600160a060020a0316602482015260440160206040518083038186803b151561040b57600080fd5b6102c65a03f4151561041c57600080fd5b505050604051805190505b151561043257600080fd5b60075473__TransactLib___________________________63bc2e368c90918660006040516020015260405160e060020a63ffffffff85160281526004810192909252602482015260440160206040518083038186803b151561049457600080fd5b6102c65a03f415156104a557600080fd5b50505060405180519050905060075473__TransactLib___________________________639e5fd0a99091833060006040516020015260405160e060020a63ffffffff861602815260048101939093526024830191909152600160a060020a0316604482015260640160206040518083038186803b151561052557600080fd5b6102c65a03f4151561053657600080fd5b505050604051805160075550600160a060020a0382166000908152600b6020526040902054600580549183029091039055915050919050565b6005545b90565b600754600080803373__SortPLib______________________________63c6742457600b83856040516060015260405160e060020a63ffffffff85160281526004810192909252600160a060020a0316602482015260440160606040518083038186803b15156105e557600080fd5b6102c65a03f415156105f657600080fd5b5050506040518051906020018051906020018051979892979196509094509092505050565b600454600090600160a060020a0316633b7104f282604051602001526040518163ffffffff1660e060020a028152600401602060405180830381600087803b151561066557600080fd5b6102c65a03f1151561067657600080fd5b505050604051805191505090565b60035460009081908190600160a060020a031615156106a257600080fd5b600060075411156107ca57600354600754600160a060020a0390911690636e2855449060006040516040015260405160e060020a63ffffffff841602815260048101919091526024016040805180830381600087803b151561070357600080fd5b6102c65a03f1151561071457600080fd5b5050506040518051906020018051600754929550925073__TransactLib___________________________91639e5fd0a99150853060006040516020015260405160e060020a63ffffffff861602815260048101939093526024830191909152600160a060020a0316604482015260640160206040518083038186803b151561079c57600080fd5b6102c65a03f415156107ad57600080fd5b505050604051805160075550600580548483029081900390915591505b505050565b60006107d961061b565b905090565b60016107e861061b565b8114156100cc5760015433600160a060020a03908116911614156100cc5760078290554260098190556001547f93e0cabaa551645c58979b9f1e87af3e09f708241c9bdd6468e581ad0651692691600160a060020a039091169084906040518084600160a060020a0316600160a060020a03168152602001838152602001828152602001935050505060405180910390a15b5050565b600454600160a060020a031690565b6007546009549091565b60005433600160a060020a03908116911614156100cc576003805473ffffffffffffffffffffffffffffffffffffffff1916600160a060020a0383161790556102e2565b60008073__SortPLib______________________________6332a76998600b60405160e060020a63ffffffff8416028152600481019190915260240160006040518083038186803b151561092e57600080fd5b6102c65a03f4151561093f57600080fd5b5050600354600160a060020a031615905061087a5750506003546000908190600160a060020a03166398d5fdca82604051604001526040518163ffffffff1660e060020a0281526004016040805180830381600087803b15156109a157600080fd5b6102c65a03f115156109b257600080fd5b5050506040518051906020018051600354929450925073__SortPLib______________________________9163c3af64529150600b90600160a060020a0316858560405160e060020a63ffffffff87160281526004810194909452600160a060020a03909216602484015260448301521515606482015260840160006040518083038186803b1515610a4357600080fd5b6102c65a03f41515610a5457600080fd5b5050505050565b4290565b60005433600160a060020a03908116911614156100cc576000828152600660205260409020805460018101610a948382610e5a565b506000918252602090912001805473ffffffffffffffffffffffffffffffffffffffff1916600160a060020a03831617905561087a565b6000808073__SortPLib______________________________63e61f7934600b60405160e060020a63ffffffff8416028152600481019190915260240160006040518083038186803b1515610b1f57600080fd5b6102c65a03f41515610b3057600080fd5b505050600090505b60026000526006602052600080516020610eb883398151915254811015610cbb5760026000526006602052600080516020610eb8833981519152805482908110610b7e57fe5b6000918252602082200154600160a060020a031690632fbc0bf190604051604001526040518163ffffffff1660e060020a0281526004016040805180830381600087803b1515610bcd57600080fd5b6102c65a03f11515610bde57600080fd5b505050604051805190602001805160026000526006602052600080516020610eb8833981519152805493965090945073__SortPLib______________________________9263c3af64529250600b919085908110610c3857fe5b600091825260209091200154600160a060020a0316868660405160e060020a63ffffffff87160281526004810194909452600160a060020a03909216602484015260448301521515606482015260840160006040518083038186803b1515610c9f57600080fd5b6102c65a03f41515610cb057600080fd5b505050600101610b38565b5060005b60016000526006602052600080516020610e9883398151915254811015610e425760016000526006602052600080516020610e98833981519152805482908110610d0557fe5b6000918252602082200154600160a060020a0316906398d5fdca90604051604001526040518163ffffffff1660e060020a0281526004016040805180830381600087803b1515610d5457600080fd5b6102c65a03f11515610d6557600080fd5b505050604051805190602001805160016000526006602052600080516020610e98833981519152805493965090945073__SortPLib______________________________9263c3af64529250600b919085908110610dbf57fe5b600091825260209091200154600160a060020a0316868660405160e060020a63ffffffff87160281526004810194909452600160a060020a03909216602484015260448301521515606482015260840160006040518083038186803b1515610e2657600080fd5b6102c65a03f41515610e3757600080fd5b505050600101610cbf565b505042600a5550565b600054600160a060020a031681565b8154818355818115116107ca576000838152602090206107ca91810190830161057391905b80821115610e935760008155600101610e7f565b509056003e5fec24aa4dc4e5aee2e025e51e1392c72a2500577559fae9665c6d52bd6a318819ef417987f8ae7a81f42cdfb18815282fe989326fbff903d13cf0e03ace29a165627a7a7230582028708d51e564f7730eb17a642fbb386546f3ad4a9593bb30c8059c919d4417010029606060405260038054600160a060020a031990811690915560048054909116905561012c6007819055600855341561003657600080fd5b6040516020806111d88339810160405280805160018054600160a060020a03928316600160a060020a031991821617909155600080543390931692909116919091179055505061114d8061008b6000396000f3006060604052600436106100cc5763ffffffff60e060020a6000350416630830cfae81146100d157806313299604146100f2578063235a4a4f146101175780633d7224dc1461012a5780633d8595071461013d5780633fd2007d14610150578063567cc2b61461017e57806367a2829d146101945780636b608223146101a757806370ed8f24146101fa5780638d646b11146102295780638e4dfebb1461024857806391b7f5ed1461025b57806398d5fdca14610271578063bfd119031461029e578063ff1b636d146102c0575b600080fd5b34156100dc57600080fd5b6100f0600160a060020a03600435166102d3565b005b34156100fd57600080fd5b610105610316565b60405190815260200160405180910390f35b341561012257600080fd5b61010561031d565b341561013557600080fd5b6100f0610386565b341561014857600080fd5b6100f0610747565b341561015b57600080fd5b6101666004356107ad565b60405191825260208201526040908101905180910390f35b341561018957600080fd5b6100f0600435610b10565b341561019f57600080fd5b6100f0610bb0565b34156101b257600080fd5b6101bd600435610e9d565b6040518085600160a060020a0316600160a060020a0316815260200184815260200183815260200182815260200194505050505060405180910390f35b341561020557600080fd5b61020d610f3c565b604051600160a060020a03909116815260200160405180910390f35b341561023457600080fd5b6100f0600160a060020a0360043516610f4b565b341561025357600080fd5b610166610f8f565b341561026657600080fd5b6100f0600435610f99565b341561027c57600080fd5b610284611004565b604051918252151560208201526040908101905180910390f35b34156102a957600080fd5b6100f0600435600160a060020a0360243516611029565b34156102cb57600080fd5b61020d611095565b60005433600160a060020a03908116911614156100cc576004805473ffffffffffffffffffffffffffffffffffffffff1916600160a060020a0383161790555b50565b600c545b90565b600454600090600160a060020a0316633b7104f282604051602001526040518163ffffffff1660e060020a028152600401602060405180830381600087803b151561036757600080fd5b6102c65a03f1151561037857600080fd5b505050604051805191505090565b60008080808073__SortRLib______________________________63e6f37de9600f60405160e060020a63ffffffff8416028152600481019190915260240160006040518083038186803b15156103dc57600080fd5b6102c65a03f415156103ed57600080fd5b505050600090505b6000805260066020526000805160206110e283398151915254811015610595576000805260066020526000805160206110e283398151915280548290811061043957fe5b6000918252602082200154600160a060020a031690631b45f0e090604051608001526040518163ffffffff1660e060020a028152600401608060405180830381600087803b151561048957600080fd5b6102c65a03f1151561049a57600080fd5b5050506040518051906020018051906020018051906020018051939850919650945090925050811561058d576000805260066020526000805160206110e2833981519152805473__SortRLib______________________________9163ef61a13991600f91908590811061050a57fe5b600091825260209091200154600160a060020a031688888860405160e060020a63ffffffff88160281526004810195909552600160a060020a03909316602485015260448401919091526064830152608482015260a40160006040518083038186803b151561057857600080fd5b6102c65a03f4151561058957600080fd5b5050505b6001016103f5565b5060005b600260005260066020526000805160206111028339815191525481101561073c57600260005260066020526000805160206111028339815191528054829081106105df57fe5b6000918252602082200154600160a060020a031690631b45f0e090604051608001526040518163ffffffff1660e060020a028152600401608060405180830381600087803b151561062f57600080fd5b6102c65a03f1151561064057600080fd5b505050604051805190602001805190602001805190602001805193985091965094509092505081156107345760026000526006602052600080516020611102833981519152805473__SortRLib______________________________9163ef61a13991600f9190859081106106b157fe5b600091825260209091200154600160a060020a031688888860405160e060020a63ffffffff88160281526004810195909552600160a060020a03909316602485015260448401919091526064830152608482015260a40160006040518083038186803b151561071f57600080fd5b6102c65a03f4151561073057600080fd5b5050505b600101610599565b505042600b55505050565b73__SortRLib______________________________63534e1918600f60405160e060020a63ffffffff8416028152600481019190915260240160006040518083038186803b151561079757600080fd5b6102c65a03f415156107a857600080fd5b505050565b60008060008060008060008060006107c48a610e9d565b600d549399509197509550935073__TransactLib___________________________9063bc2e368c908760006040516020015260405160e060020a63ffffffff85160281526004810192909252602482015260440160206040518083038186803b151561083057600080fd5b6102c65a03f4151561084157600080fd5b505050604051805160026000908152600660205290985073__AdrLib________________________________9150632c2fc20e906000805160206111028339815191529089906040516020015260405160e060020a63ffffffff85160281526004810192909252600160a060020a0316602482015260440160206040518083038186803b15156108d057600080fd5b6102c65a03f415156108e157600080fd5b5050506040518051905015610a0b5785600160a060020a0316630ff372828860006040516020015260405160e060020a63ffffffff84160281526004810191909152602401602060405180830381600087803b151561093f57600080fd5b6102c65a03f1151561095057600080fd5b5050506040518051600d80548290039055600e54600c549194508402925073__TransactLib___________________________915063e2992d299083893060006040516020015260405160e060020a63ffffffff871602815260048101949094526024840192909252600160a060020a03908116604484015216606482015260840160206040518083038186803b15156109e957600080fd5b6102c65a03f415156109fa57600080fd5b5050506040518051600c5550610b00565b6000808052600660205273__AdrLib________________________________90632c2fc20e906000805160206110e28339815191529089906040516020015260405160e060020a63ffffffff85160281526004810192909252600160a060020a0316602482015260440160206040518083038186803b1515610a8c57600080fd5b6102c65a03f41515610a9d57600080fd5b5050506040518051905015610afb5785600160a060020a0316630ff372828860006040516020015260405160e060020a63ffffffff84160281526004810191909152602401602060405180830381600087803b151561093f57600080fd5b600091505b5094989497509395505050505050565b6001610b1a61031d565b8114156100cc5760015433600160a060020a03908116911614156100cc57600d82905542600a8190556001547fdf963fee409850630585bd095a505a9a956ef373cd706eb6eddec02d0a36731991600160a060020a039091169084906040518084600160a060020a0316600160a060020a03168152602001838152602001828152602001935050505060405180910390a15b5050565b600080600080600080600d541115610e9657600260005260066020526000805160206111028339815191525415610d65575060005b6002600052600660205260008051602061110283398151915254811015610d605760026000526006602052600080516020611102833981519152805482908110610c2b57fe5b6000918252602082200154600d54600160a060020a03909116935083916335f7f5e291906040516040015260405160e060020a63ffffffff841602815260048101919091526024016040805180830381600087803b1515610c8b57600080fd5b6102c65a03f11515610c9c57600080fd5b5050506040518051906020018051600d80548490039055600c549297508781029650945073__TransactLib___________________________9163e2992d29915086853060006040516020015260405160e060020a63ffffffff871602815260048101949094526024840192909252600160a060020a03908116604484015216606482015260840160206040518083038186803b1515610d3b57600080fd5b6102c65a03f41515610d4c57600080fd5b5050506040518051600c5550600101610be5565b610e96565b600354600d54600160a060020a03909116906335f7f5e29060006040516040015260405160e060020a63ffffffff841602815260048101919091526024016040805180830381600087803b1515610dbb57600080fd5b6102c65a03f11515610dcc57600080fd5b5050506040518051906020018051600d80548490039055600c54600354939850888202975090955073__TransactLib___________________________9263e2992d2992508790600160a060020a03163060006040516020015260405160e060020a63ffffffff871602815260048101949094526024840192909252600160a060020a03908116604484015216606482015260840160206040518083038186803b1515610e7857600080fd5b6102c65a03f41515610e8957600080fd5b5050506040518051600c55505b5050505050565b600080808073__SortRLib______________________________6391871092600f87846040516080015260405160e060020a63ffffffff85160281526004810192909252602482015260440160806040518083038186803b1515610f0057600080fd5b6102c65a03f41515610f1157600080fd5b5050506040518051906020018051906020018051906020018051905093509350935093509193509193565b600454600160a060020a031690565b60005433600160a060020a03908116911614156100cc576003805473ffffffffffffffffffffffffffffffffffffffff1916600160a060020a038316179055610313565b600d54600a549091565b6001610fa361031d565b8114156100cc5760015433600160a060020a03908116911614156100cc57600e8290554260098190557fae46785019700e30375a5d7b4f91e32f8060ef085111f896ebf889450aa2ab5a9060405190815260200160405180910390a1610bac565b600e54600854600954600091429101101561102157506000611025565b5060015b9091565b60005433600160a060020a03908116911614156100cc57600082815260066020526040902080546001810161105e83826110a4565b506000918252602090912001805473ffffffffffffffffffffffffffffffffffffffff1916600160a060020a038316179055610bac565b600054600160a060020a031681565b8154818355818115116107a8576000838152602090206107a891810190830161031a91905b808211156110dd57600081556001016110c9565b5090560054cdd369e4e8a8515e52ca72ec816c2101831ad1f18bf44102ed171459c9b4f88819ef417987f8ae7a81f42cdfb18815282fe989326fbff903d13cf0e03ace29a165627a7a7230582067b2f0b4ca4ec433db30b2a16bc882cbd12d0bc52d85756a0a4202f4d2f82a950029606060405260038054600160a060020a031990811690915560048054909116905561012c6008819055600955341561003657600080fd5b6040516040806115b9833981016040528080519190602001805160018054600160a060020a03958616600160a060020a031991821617909155600080543390961695909116949094179093555050600e55611523806100966000396000f3006060604052600436106101035763ffffffff60e060020a6000350416630830cfae81146101085780630e00c316146101295780630ff37282146101605780631b45f0e014610188578063235a4a4f146101c75780632fbc0bf1146101da57806335f7f5e2146102075780633d7224dc146102355780633d859507146102485780633fd2007d1461025b5780634559dcdc146102715780636a95841b146102875780636b6082231461029d57806370ed8f24146102f057806379c19df01461031f5780638d646b1114610332578063aac12b4b14610351578063bfd1190314610364578063c974602914610386578063f7d9757714610399578063ff1b636d146103b2575b600080fd5b341561011357600080fd5b610127600160a060020a03600435166103c5565b005b341561013457600080fd5b61013c610408565b60405180848152602001838152602001828152602001935050505060405180910390f35b341561016b57600080fd5b610176600435610418565b60405190815260200160405180910390f35b341561019357600080fd5b61019b61068b565b604051938452602084019290925260408084019190915290151560608301526080909101905180910390f35b34156101d257600080fd5b61017661072e565b34156101e557600080fd5b6101ed610798565b604051918252151560208201526040908101905180910390f35b341561021257600080fd5b61021d6004356107bd565b60405191825260208201526040908101905180910390f35b341561024057600080fd5b6101276108eb565b341561025357600080fd5b610127610b05565b341561026657600080fd5b61021d600435610b6b565b341561027c57600080fd5b610127600435610e4a565b341561029257600080fd5b610127600435610ed9565b34156102a857600080fd5b6102b3600435610f1e565b6040518085600160a060020a0316600160a060020a0316815260200184815260200183815260200182815260200194505050505060405180910390f35b34156102fb57600080fd5b610303610fbd565b604051600160a060020a03909116815260200160405180910390f35b341561032a57600080fd5b610176610fcc565b341561033d57600080fd5b610127600160a060020a0360043516610fd2565b341561035c57600080fd5b610127611016565b341561036f57600080fd5b610127600435600160a060020a0360243516611196565b341561039157600080fd5b610127611202565b34156103a457600080fd5b6101276004356024356113fb565b34156103bd57600080fd5b61030361146b565b60005433600160a060020a0390811691161415610103576004805473ffffffffffffffffffffffffffffffffffffffff1916600160a060020a0383161790555b50565b600f54600b54600e549192909190565b600160009081526006602052338173__AdrLib________________________________632c2fc20e6000805160206114b883398151915284846040516020015260405160e060020a63ffffffff85160281526004810192909252600160a060020a0316602482015260440160206040518083038186803b151561049a57600080fd5b6102c65a03f415156104ab57600080fd5b50505060405180519050806104cd5750600354600160a060020a038381169116145b15156104d857600080fd5b60105473__TransactLib___________________________63bc2e368c90918660006040516020015260405160e060020a63ffffffff85160281526004810192909252602482015260440160206040518083038186803b151561053a57600080fd5b6102c65a03f4151561054b57600080fd5b5050506040518051600f805482019081905542600b8190556001549294507fa8533a3e28bf00cd05018ed80847d3d6f170da084f6417da50798db7335ff9a09350600160a060020a03909216916040518084600160a060020a0316600160a060020a03168152602001838152602001828152602001935050505060405180910390a160105473__TransactLib___________________________639e5fd0a99091833060006040516020015260405160e060020a63ffffffff861602815260048101939093526024830191909152600160a060020a0316604482015260640160206040518083038186803b151561064157600080fd5b6102c65a03f4151561065257600080fd5b505050604051805160105550600160a060020a038216600090815260136020526040902054600780549183029091039055915050919050565b6010546000808073__SortPLib______________________________63c6742457601333846040516060015260405160e060020a63ffffffff85160281526004810192909252600160a060020a0316602482015260440160606040518083038186803b15156106f957600080fd5b6102c65a03f4151561070a57600080fd5b50505060405180519060200180519060200180519697929691955090935090915050565b600454600090600160a060020a0316633b7104f282604051602001526040518163ffffffff1660e060020a028152600401602060405180830381600087803b151561077857600080fd5b6102c65a03f1151561078957600080fd5b50505060405180519150505b90565b601154600954600a5460009142910110156107b5575060006107b9565b5060015b9091565b60008060125490508273__TransactLib___________________________63bc2e368c9091600f54600e540360006040516020015260405160e060020a63ffffffff85160281526004810192909252602482015260440160206040518083038186803b151561082b57600080fd5b6102c65a03f4151561083c57600080fd5b505050604051805190509150600f5473__TransactLib___________________________63994459079091843060006040516020015260405160e060020a63ffffffff861602815260048101939093526024830191909152600160a060020a0316604482015260640160206040518083038186803b15156108bc57600080fd5b6102c65a03f415156108cd57600080fd5b5050506040518051600f555060078054838302900390559092909150565b60008080808073__SortRLib______________________________63e6f37de9601760405160e060020a63ffffffff8416028152600481019190915260240160006040518083038186803b151561094157600080fd5b6102c65a03f4151561095257600080fd5b505050600090505b6000805260066020526000805160206114d883398151915254811015610afa576000805260066020526000805160206114d883398151915280548290811061099e57fe5b6000918252602082200154600160a060020a031690631b45f0e090604051608001526040518163ffffffff1660e060020a028152600401608060405180830381600087803b15156109ee57600080fd5b6102c65a03f115156109ff57600080fd5b50505060405180519060200180519060200180519060200180519398509196509450909250508115610af2576000805260066020526000805160206114d8833981519152805473__SortRLib______________________________9163ef61a139916017919085908110610a6f57fe5b600091825260209091200154600160a060020a031688888860405160e060020a63ffffffff88160281526004810195909552600160a060020a03909316602485015260448401919091526064830152608482015260a40160006040518083038186803b1515610add57600080fd5b6102c65a03f41515610aee57600080fd5b5050505b60010161095a565b505042600d55505050565b73__SortRLib______________________________63534e1918601760405160e060020a63ffffffff8416028152600481019190915260240160006040518083038186803b1515610b5557600080fd5b6102c65a03f41515610b6657600080fd5b505050565b6000806000806000806000806000610b828a610f1e565b600f549399509197509550935073__TransactLib___________________________9063bc2e368c908760006040516020015260405160e060020a63ffffffff85160281526004810192909252602482015260440160206040518083038186803b1515610bee57600080fd5b6102c65a03f41515610bff57600080fd5b50505060405180516000808052600660205290985073__AdrLib________________________________9150632c2fc20e906000805160206114d88339815191529089906040516020015260405160e060020a63ffffffff85160281526004810192909252600160a060020a0316602482015260440160206040518083038186803b1515610c8c57600080fd5b6102c65a03f41515610c9d57600080fd5b5050506040518051905015610e355785600160a060020a0316630ff372828860006040516020015260405160e060020a63ffffffff84160281526004810191909152602401602060405180830381600087803b1515610cfb57600080fd5b6102c65a03f11515610d0c57600080fd5b5050506040518051600f80548290039081905542600b8190556001549295507fa8533a3e28bf00cd05018ed80847d3d6f170da084f6417da50798db7335ff9a09350600160a060020a03909216916040518084600160a060020a0316600160a060020a03168152602001838152602001828152602001935050505060405180910390a16011548202905060075473__TransactLib___________________________63e2992d29909183893060006040516020015260405160e060020a63ffffffff871602815260048101949094526024840192909252600160a060020a03908116604484015216606482015260840160206040518083038186803b1515610e1357600080fd5b6102c65a03f41515610e2457600080fd5b505050604051805160075550610e3a565b600091505b5094989497509395505050505050565b60015433600160a060020a039081169116141561010357600f81905542600b8190556001547fa8533a3e28bf00cd05018ed80847d3d6f170da084f6417da50798db7335ff9a091600160a060020a039091169083906040518084600160a060020a0316600160a060020a03168152602001838152602001828152602001935050505060405180910390a1610405565b6001610ee361072e565b8114156101035760015433600160a060020a039081169116141561010357600e54600f5483011115610f1457600080fd5b60108290555b5050565b600080808073__SortRLib______________________________6391871092601787846040516080015260405160e060020a63ffffffff85160281526004810192909252602482015260440160806040518083038186803b1515610f8157600080fd5b6102c65a03f41515610f9257600080fd5b5050506040518051906020018051906020018051906020018051905093509350935093509193509193565b600454600160a060020a031690565b60105490565b60005433600160a060020a0390811691161415610103576003805473ffffffffffffffffffffffffffffffffffffffff1916600160a060020a038316179055610405565b60008073__SortPLib______________________________6332a76998601360405160e060020a63ffffffff8416028152600481019190915260240160006040518083038186803b151561106957600080fd5b6102c65a03f4151561107a57600080fd5b5050600354600160a060020a0316159050610f1a5750506003546000908190600160a060020a03166398d5fdca82604051604001526040518163ffffffff1660e060020a0281526004016040805180830381600087803b15156110dc57600080fd5b6102c65a03f115156110ed57600080fd5b5050506040518051906020018051600354929450925073__SortPLib______________________________9163c3af64529150601390600160a060020a0316858560405160e060020a63ffffffff87160281526004810194909452600160a060020a03909216602484015260448301521515606482015260840160006040518083038186803b151561117e57600080fd5b6102c65a03f4151561118f57600080fd5b5050505050565b60005433600160a060020a03908116911614156101035760008281526006602052604090208054600181016111cb838261147a565b506000918252602090912001805473ffffffffffffffffffffffffffffffffffffffff1916600160a060020a038316179055610f1a565b6000808073__SortPLib______________________________63e61f7934601360405160e060020a63ffffffff8416028152600481019190915260240160006040518083038186803b151561125657600080fd5b6102c65a03f4151561126757600080fd5b505050600090505b600160005260066020526000805160206114b8833981519152548110156113f257600160005260066020526000805160206114b88339815191528054829081106112b557fe5b6000918252602082200154600160a060020a0316906398d5fdca90604051604001526040518163ffffffff1660e060020a0281526004016040805180830381600087803b151561130457600080fd5b6102c65a03f1151561131557600080fd5b5050506040518051906020018051600160005260066020526000805160206114b8833981519152805493965090945073__SortPLib______________________________9263c3af64529250601391908590811061136f57fe5b600091825260209091200154600160a060020a0316868660405160e060020a63ffffffff87160281526004810194909452600160a060020a03909216602484015260448301521515606482015260840160006040518083038186803b15156113d657600080fd5b6102c65a03f415156113e757600080fd5b50505060010161126f565b505042600c5550565b600161140561072e565b8114156101035760015433600160a060020a0390811691161415610103576011839055601282905542600a8190557fae46785019700e30375a5d7b4f91e32f8060ef085111f896ebf889450aa2ab5a9060405190815260200160405180910390a1610b66565b600054600160a060020a031681565b815481835581811511610b6657600083815260209020610b6691810190830161079591905b808211156114b3576000815560010161149f565b509056003e5fec24aa4dc4e5aee2e025e51e1392c72a2500577559fae9665c6d52bd6a3154cdd369e4e8a8515e52ca72ec816c2101831ad1f18bf44102ed171459c9b4f8a165627a7a7230582087fa6db55dd3706e28a2938a2262690810cd4da7d6eb0aaa5cbae99940c263da0029a165627a7a72305820ed65f2cbac8c4029f75ca79f33c9d3c225020a1af39436281fdf2211a740f1ec00296060604052341561000f57600080fd5b60006001819055600281905560035560c06040519081016040908152600982526001602083015260039082015260056060820152600a6080820152600c60a082015261005f906004906006610065565b506100c5565b8260068101928215610098579160200282015b82811115610098578251829060ff16905591602001919060010190610078565b506100a49291506100a8565b5090565b6100c291905b808211156100a457600081556001016100ae565b90565b60fb806100d36000396000f300606060405260043610603e5763ffffffff7c01000000000000000000000000000000000000000000000000000000006000350416633b7104f281146043575b600080fd5b3415604d57600080fd5b60536065565b60405190815260200160405180910390f35b60008060015460001415607e57600180554260005560c7565b5060015b600681101560b65760048160068110609657fe5b0154603c02600054014211151560af57600181905560b6565b6001016082565b600781141560c75760018055426000555b5050600154905600a165627a7a723058209adeef5718aad3a107dfe6c5dcc35fcd52ef5945300da853f48dd2ff88bea1220029",
  "source": "pragma solidity ^0.4.4;\r\n\r\nimport \"./SingleHouse.sol\";\r\nimport \"./SinglePV.sol\";\r\nimport \"./SingleBattery.sol\";\r\nimport \"./Grid.sol\";\r\nimport \"./GlobalTimer.sol\";\r\n\r\ncontract Configuration {\r\n\r\n  address public admin = msg.sender; // only the admin node can modify the configuration...\r\n  address public globalTimerAdr;\r\n  address public gridAdr;          // store the address of grid...(address of the transformer that links to the grid... not the contract address)\r\n  uint public statusAt; // timestamp of the creation of Configuration instance\r\n\r\n  // The variables below should be deleted... \r\n  uint8 private numHouseCurrent = 0;    // current houses in the system\r\n  uint8 private numPVCurrent = 0;       // current PVs in the system\r\n  uint8 private numBatteryCurrent = 0;    // current batteries in the system\r\n\r\n  // Several types of devices in the system\r\n  enum deviceType {House, PV, Battery}\r\n\r\n  struct EndUser {\r\n    deviceType  dType;\r\n    address     cAddress;           // address of the contract\r\n    uint        statusAt;           // timestamp of the creation\r\n    mapping(address=>EndUser) connectedUser;     // List of another node connected.\r\n  }\r\n\r\n\r\n  mapping(address=>EndUser) userList;   // the account of the owner => struct\r\n  mapping(address=>address) contractList;   // now putting all the linkage to real contract address into this mapping\r\n\r\n  // Restricts execution by admin only\r\n  modifier adminOnly {\r\n    if(msg.sender == admin){\r\n      _;\r\n    } else {\r\n      revert();\r\n    }\r\n  }\r\n  \r\n  event LogDevice(address deviceAdr);\r\n  event LogConnection(address device1, address device2);\r\n\r\n  function Configuration() adminOnly {\r\n      statusAt = now;\r\n      globalTimerAdr = new GlobalTimer();\r\n\r\n  }\r\n\r\n  function addGrid(address adr) adminOnly {\r\n      contractList[adr] = new Grid(adr);\r\n      GeneralDevice(contractList[adr]).setTimerAdr(globalTimerAdr);\r\n      gridAdr = address(contractList[adr]);\r\n  }\r\n\r\n  function addDevice(uint8 _deviceType, address adr, uint capacity, bool g) adminOnly public {\r\n      require (_deviceType < 3); //addBattery\r\n      if (_deviceType == 0) {   // addHouse\r\n        contractList[adr] = new SingleHouse(adr);\r\n        numHouseCurrent++;\r\n      } else if (_deviceType == 1) {    //addPV\r\n        contractList[adr] = new SinglePV(adr);\r\n        numPVCurrent++;\r\n      } else {\r\n        contractList[adr] = new SingleBattery(adr, capacity);\r\n        numBatteryCurrent++;\r\n      }\r\n      if (g) {\r\n          GeneralDevice(contractList[adr]).setGridAdr(gridAdr);\r\n          GeneralDevice(gridAdr).addConnectedDevice(_deviceType, contractList[adr]);\r\n        }\r\n      EndUser memory tempEU;\r\n      tempEU.dType = deviceType(_deviceType);\r\n      tempEU.cAddress = address(contractList[adr]);\r\n      tempEU.statusAt = now;\r\n      userList[adr] = tempEU;\r\n      GeneralDevice(contractList[adr]).setTimerAdr(globalTimerAdr);\r\n      LogDevice(adr);\r\n  }\r\n\r\n    function getContractAddress(address adr) view adminOnly returns(address) {\r\n      return address(contractList[adr]);\r\n    }  \r\n\r\n    function getDeviceType(address adr) returns (uint8) {\r\n        // deviceType {House,PV,Battery}\r\n        \r\n        if (userList[adr].cAddress != 0x0) {\r\n            return uint8(userList[adr].dType);\r\n        } else {\r\n            return 15;   // when the address corresponds no device in the configuration...\r\n        }\r\n    }\r\n\r\n    function linkDevices(address adr1, address adr2) adminOnly {\r\n        uint8[2] memory dt;\r\n        dt[0] = getDeviceType(adr1);\r\n        dt[1] = getDeviceType(adr2);\r\n        require(dt[0]<3 && userList[adr1].connectedUser[adr2].cAddress == 0x0);\r\n        require(dt[1]<3 && userList[adr2].connectedUser[adr1].cAddress == 0x0);\r\n        userList[adr1].connectedUser[adr2] = userList[adr2];\r\n        userList[adr2].connectedUser[adr1] = userList[adr1];\r\n\r\n        GeneralDevice(address(contractList[adr1])).addConnectedDevice(dt[1],address(contractList[adr2]));\r\n        GeneralDevice(address(contractList[adr2])).addConnectedDevice(dt[0],address(contractList[adr1]));\r\n        \r\n        LogConnection(adr1,adr2);\r\n    }\r\n\r\n    // test functions\r\n\r\n    function getAdmin() constant returns (address) {\r\n        return admin;\r\n    } \r\n\r\n    function getGridAdr() constant returns(address) {\r\n        return gridAdr;\r\n    } \r\n\r\n}\r\n",
  "sourcePath": "C:\\Users\\qianc\\Documents\\Thesis\\Code\\SimpleMonitor\\contracts\\Configuration.sol",
  "compiler": {
    "name": "solc",
    "version": "0.4.18+commit.9cf6e910.Emscripten.clang"
  },
  "schemaVersion": "1.0.1",
  "updatedAt": "2017-11-28T23:45:11.115Z"
}