{
  "contractName": "Configuration",
  "abi": [
    {
      "constant": false,
      "inputs": [
        {
          "name": "adr",
          "type": "address"
        }
      ],
      "name": "addGrid",
      "outputs": [],
      "payable": false,
      "stateMutability": "nonpayable",
      "type": "function"
    },
    {
      "constant": true,
      "inputs": [
        {
          "name": "adr",
          "type": "address"
        }
      ],
      "name": "getContractAddress",
      "outputs": [
        {
          "name": "",
          "type": "address"
        }
      ],
      "payable": false,
      "stateMutability": "view",
      "type": "function"
    },
    {
      "constant": true,
      "inputs": [],
      "name": "getAdmin",
      "outputs": [
        {
          "name": "",
          "type": "address"
        }
      ],
      "payable": false,
      "stateMutability": "view",
      "type": "function"
    },
    {
      "constant": true,
      "inputs": [],
      "name": "statusAt",
      "outputs": [
        {
          "name": "",
          "type": "uint256"
        }
      ],
      "payable": false,
      "stateMutability": "view",
      "type": "function"
    },
    {
      "constant": false,
      "inputs": [
        {
          "name": "adr1",
          "type": "address"
        },
        {
          "name": "adr2",
          "type": "address"
        }
      ],
      "name": "linkDevices",
      "outputs": [],
      "payable": false,
      "stateMutability": "nonpayable",
      "type": "function"
    },
    {
      "constant": true,
      "inputs": [],
      "name": "gridAdr",
      "outputs": [
        {
          "name": "",
          "type": "address"
        }
      ],
      "payable": false,
      "stateMutability": "view",
      "type": "function"
    },
    {
      "constant": false,
      "inputs": [
        {
          "name": "adr",
          "type": "address"
        }
      ],
      "name": "getDeviceType",
      "outputs": [
        {
          "name": "",
          "type": "uint8"
        }
      ],
      "payable": false,
      "stateMutability": "nonpayable",
      "type": "function"
    },
    {
      "constant": false,
      "inputs": [
        {
          "name": "_deviceType",
          "type": "uint8"
        },
        {
          "name": "adr",
          "type": "address"
        },
        {
          "name": "capacity",
          "type": "uint256"
        },
        {
          "name": "g",
          "type": "bool"
        }
      ],
      "name": "addDevice",
      "outputs": [],
      "payable": false,
      "stateMutability": "nonpayable",
      "type": "function"
    },
    {
      "constant": true,
      "inputs": [],
      "name": "getGridAdr",
      "outputs": [
        {
          "name": "",
          "type": "address"
        }
      ],
      "payable": false,
      "stateMutability": "view",
      "type": "function"
    },
    {
      "constant": true,
      "inputs": [],
      "name": "admin",
      "outputs": [
        {
          "name": "",
          "type": "address"
        }
      ],
      "payable": false,
      "stateMutability": "view",
      "type": "function"
    },
    {
      "inputs": [],
      "payable": false,
      "stateMutability": "nonpayable",
      "type": "constructor"
    },
    {
      "anonymous": false,
      "inputs": [
        {
          "indexed": false,
          "name": "deviceAdr",
          "type": "address"
        }
      ],
      "name": "LogDevice",
      "type": "event"
    },
    {
      "anonymous": false,
      "inputs": [
        {
          "indexed": false,
          "name": "device1",
          "type": "address"
        },
        {
          "indexed": false,
          "name": "device2",
          "type": "address"
        }
      ],
      "name": "LogConnection",
      "type": "event"
    }
  ],
  "bytecode": "0x606060405260008054600160a060020a03191633600160a060020a03161790556003805462ffffff19169055341561003657600080fd5b60005433600160a060020a0390811691161415610056574260025561005b565b600080fd5b6146ee8061006a6000396000f30060606040526004361061008a5763ffffffff60e060020a6000350416633474efe6811461008f578063622bc90e146100b05780636e9960c3146100eb57806380f57b3b146100fe5780638368bfcf14610123578063a1f51d0314610148578063bb2f6e2c1461015b578063d88b354314610190578063f0c998ec146101bd578063f851a440146101d0575b600080fd5b341561009a57600080fd5b6100ae600160a060020a03600435166101e3565b005b34156100bb57600080fd5b6100cf600160a060020a0360043516610274565b604051600160a060020a03909116815260200160405180910390f35b34156100f657600080fd5b6100cf6102ae565b341561010957600080fd5b6101116102bd565b60405190815260200160405180910390f35b341561012e57600080fd5b6100ae600160a060020a03600435811690602435166102c3565b341561015357600080fd5b6100cf610646565b341561016657600080fd5b61017a600160a060020a0360043516610655565b60405160ff909116815260200160405180910390f35b341561019b57600080fd5b6100ae60ff60043516600160a060020a036024351660443560643515156106b3565b34156101c857600080fd5b6100cf610aad565b34156101db57600080fd5b6100cf610abc565b60005433600160a060020a039081169116141561008a5780610203610acb565b600160a060020a039091168152602001604051809103906000f080151561022957600080fd5b600160a060020a038083166000908152600560205260409020805492821673ffffffffffffffffffffffffffffffffffffffff19938416179081905560018054909316911617905550565b6000805433600160a060020a039081169116141561008a5750600160a060020a03808216600090815260056020526040902054165b919050565b600054600160a060020a031690565b60025481565b6102cb610adb565b60005433600160a060020a039081169116141561008a576102eb83610655565b60ff1681526102f982610655565b60ff1660208201526003815160ff161080156103425750600160a060020a0380841660009081526004602090815260408083208685168452600201909152902054610100900416155b151561034d57600080fd5b6003602082015160ff161080156103915750600160a060020a0380831660009081526004602090815260408083208785168452600201909152902054610100900416155b151561039c57600080fd5b600160a060020a03808316600081815260046020908152604080832094881683528083209383526002938401909152902082548154919260ff90911691839160ff199091169060019084908111156103f057fe5b02179055508154815474ffffffffffffffffffffffffffffffffffffffff00191661010091829004600160a060020a03908116909202178255600192830154918301919091558481166000818152600460209081526040808320948816835280832093835260029384019091529020825481549394919360ff90911692849260ff199092169190849081111561048257fe5b02179055508154815474ffffffffffffffffffffffffffffffffffffffff00191661010091829004600160a060020a0390811690920217825560019283015491830191909155848116600090815260056020526040902054169063bfd119039083906020020151600160a060020a038086166000908152600560205260409081902054909116905160e060020a63ffffffff851602815260ff9092166004830152600160a060020a03166024820152604401600060405180830381600087803b151561054d57600080fd5b6102c65a03f1151561055e57600080fd5b505050600160a060020a038281166000908152600560205260409020541663bfd119038251600160a060020a038087166000908152600560205260409081902054909116905160e060020a63ffffffff851602815260ff9092166004830152600160a060020a03166024820152604401600060405180830381600087803b15156105e757600080fd5b6102c65a03f115156105f857600080fd5b5050507f2defa27bb08b7ca89bc5fb146b34db072eccd285461d98ae368b88088a6cb8ec8383604051600160a060020a039283168152911660208201526040908101905180910390a1505050565b600154600160a060020a031681565b600160a060020a03808216600090815260046020526040812054909161010090910416156106ab57600160a060020a03821660009081526004602052604090205460ff1660028111156106a457fe5b90506102a9565b50600f6102a9565b6106bb610b02565b60005433600160a060020a039081169116141561008a57600360ff8616106106e257600080fd5b60ff8516151561077357836106f5610b24565b600160a060020a039091168152602001604051809103906000f080151561071b57600080fd5b600160a060020a038581166000908152600560205260409020805473ffffffffffffffffffffffffffffffffffffffff1916929091169190911790556003805460ff19811660ff9182166001019091161790556108a4565b8460ff166001141561080f5783610788610b34565b600160a060020a039091168152602001604051809103906000f08015156107ae57600080fd5b600160a060020a038581166000908152600560205260409020805473ffffffffffffffffffffffffffffffffffffffff1916929091169190911790556003805461ff001981166101009182900460ff908116600101169091021790556108a4565b8383610819610b44565b600160a060020a039092168252602082015260409081019051809103906000f080151561084557600080fd5b600160a060020a038581166000908152600560205260409020805473ffffffffffffffffffffffffffffffffffffffff1916929091169190911790556003805462ff0000198116620100009182900460ff908116600101169091021790555b81156109ac57600160a060020a03808516600090815260056020526040908190205460015490831692638d646b11929116905160e060020a63ffffffff8416028152600160a060020a039091166004820152602401600060405180830381600087803b151561091257600080fd5b6102c65a03f1151561092357600080fd5b5050600154600160a060020a038681166000908152600560205260409081902054928216935063bfd1190392899216905160e060020a63ffffffff851602815260ff9092166004830152600160a060020a03166024820152604401600060405180830381600087803b151561099757600080fd5b6102c65a03f115156109a857600080fd5b5050505b8460ff1660028111156109bb57fe5b819060028111156109c857fe5b908160028111156109d557fe5b905250600160a060020a03808516600081815260056020908152604080832054909416858201524285850152918152600490915220819081518154829060ff19166001836002811115610a2457fe5b021790555060208201518154600160a060020a03919091166101000274ffffffffffffffffffffffffffffffffffffffff00199091161781556040820151600190910155507f65c506643f4516f3ef335c5dd71017b8e849268cd860c3235c7db2c62fd8e93b84604051600160a060020a03909116815260200160405180910390a15050505050565b600154600160a060020a031690565b600054600160a060020a031681565b60405161086a80610b5583390190565b604080519081016040526002815b600081526000199091019060200181610ae95790505090565b6060604051908101604052806000815260006020820181905260409091015290565b604051610e13806113bf83390190565b604051611087806121d283390190565b60405161146a80613259833901905600606060405260038054600160a060020a031916905561012c60065560646008819055600955341561002f57600080fd5b60405160208061086a8339810160405280805160018054600160a060020a03928316600160a060020a03199182161790915560008054339093169290911691909117905550506107e6806100846000396000f3006060604052600436106100745763ffffffff60e060020a60003504166335f7f5e281146100795780636e285544146100a75780638d646b11146100bd57806398d5fdca146100de578063bfd119031461010b578063cb99c1571461012d578063f7d9757714610140578063ff1b636d14610159575b600080fd5b341561008457600080fd5b61008f600435610188565b60405191825260208201526040908101905180910390f35b34156100b257600080fd5b61008f6004356102b2565b34156100c857600080fd5b6100dc600160a060020a03600435166103e5565b005b34156100e957600080fd5b6100f1610427565b604051918252151560208201526040908101905180910390f35b341561011657600080fd5b6100dc600435600160a060020a036024351661044c565b341561013857600080fd5b6100dc6104b8565b341561014b57600080fd5b6100dc600435602435610737565b341561016457600080fd5b61016c610761565b604051600160a060020a03909116815260200160405180910390f35b600080600c5490508273__TransactLib___________________________63bc2e368c909160095460006040516020015260405160e060020a63ffffffff85160281526004810192909252602482015260440160206040518083038186803b15156101f257600080fd5b6102c65a03f4151561020357600080fd5b50505060405180519050915060095473__TransactLib___________________________639e5fd0a99091843060006040516020015260405160e060020a63ffffffff861602815260048101939093526024830191909152600160a060020a0316604482015260640160206040518083038186803b151561028357600080fd5b6102c65a03f4151561029457600080fd5b505050604051805160095550600a8054838302900390559092909150565b600080600b5490508273__TransactLib___________________________63bc2e368c909160085460006040516020015260405160e060020a63ffffffff85160281526004810192909252602482015260440160206040518083038186803b151561031c57600080fd5b6102c65a03f4151561032d57600080fd5b5050506040518051600880548290039055600a5490935073__TransactLib___________________________915063e2992d2990838502333060006040516020015260405160e060020a63ffffffff871602815260048101949094526024840192909252600160a060020a03908116604484015216606482015260840160206040518083038186803b15156103c157600080fd5b6102c65a03f415156103d257600080fd5b5050506040518051600a55509092909150565b60005433600160a060020a0390811691161415610074576003805473ffffffffffffffffffffffffffffffffffffffff1916600160a060020a03831617905550565b600b54600654600754600091429101101561044457506000610448565b5060015b9091565b60005433600160a060020a03908116911614156100745760008281526005602052604090208054600181016104818382610770565b506000918252602090912001805473ffffffffffffffffffffffffffffffffffffffff1916600160a060020a0383161790555b5050565b6000808080808080805b600260005260056020527f89832631fb3c3307a103ba2c84ab569c64d6182a18893dcd163f0f1c2090733a5481101561072d57600260005260056020527f89832631fb3c3307a103ba2c84ab569c64d6182a18893dcd163f0f1c2090733a80548290811061052c57fe5b6000918252602082200154600160a060020a031690631b45f0e090604051608001526040518163ffffffff1660e060020a028152600401608060405180830381600087803b151561057c57600080fd5b6102c65a03f1151561058d57600080fd5b5050506040518051906020018051906020018051906020018051939b50919950975090955085905080156105c057508715155b1561072557600260005260056020527f89832631fb3c3307a103ba2c84ab569c64d6182a18893dcd163f0f1c2090733a8054829081106105fc57fe5b6000918252602082200154600854600160a060020a0390911693508391630ff3728291906040516020015260405160e060020a63ffffffff84160281526004810191909152602401602060405180830381600087803b151561065d57600080fd5b6102c65a03f1151561066e57600080fd5b5050506040518051600880548290039055600b54600a549196508602945073__TransactLib___________________________915063e2992d299085853060006040516020015260405160e060020a63ffffffff871602815260048101949094526024840192909252600160a060020a03908116604484015216606482015260840160206040518083038186803b151561070757600080fd5b6102c65a03f4151561071857600080fd5b5050506040518051600a55505b6001016104c2565b5050505050505050565b60015433600160a060020a039081169116141561007457600b829055600c819055426007556104b4565b600054600160a060020a031681565b81548183558181151161079457600083815260209020610794918101908301610799565b505050565b6107b791905b808211156107b3576000815560010161079f565b5090565b905600a165627a7a72305820256c02b0f8404214f4492d424b094aff2bcf845fc4a7e5a705c99d60f0ad60dd0029606060405260038054600160a060020a031916905561012c600755341561002557600080fd5b604051602080610e138339810160405280805160018054600160a060020a03928316600160a060020a0319918216179091556000805433909316929091169190911790555050610d998061007a6000396000f3006060604052600436106100955763ffffffff60e060020a6000350416630ff37282811461009a57806313299604146100c25780631b45f0e0146100d55780633acca96d146101145780635a500ecc146101295780638a5cb1b61461013f5780638d646b111461016a578063aac12b4b14610189578063bfd119031461019c578063c9746029146101be578063ff1b636d146101d1575b600080fd5b34156100a557600080fd5b6100b0600435610200565b60405190815260200160405180910390f35b34156100cd57600080fd5b6100b061048a565b34156100e057600080fd5b6100e8610491565b604051938452602084019290925260408084019190915290151560608301526080909101905180910390f35b341561011f57600080fd5b610127610536565b005b341561013457600080fd5b610127600435610681565b341561014a57600080fd5b61015261070f565b60405191825260208201526040908101905180910390f35b341561017557600080fd5b610127600160a060020a0360043516610730565b341561019457600080fd5b610127610774565b34156101a757600080fd5b610127600435600160a060020a03602435166108f5565b34156101c957600080fd5b610127610961565b34156101dc57600080fd5b6101e4610ce1565b604051600160a060020a03909116815260200160405180910390f35b600260009081526005602052338173__AdrLib________________________________632c2fc20e600080516020610d4e83398151915284846040516020015260405160e060020a63ffffffff85160281526004810192909252600160a060020a0316602482015260440160206040518083038186803b151561028257600080fd5b6102c65a03f4151561029357600080fd5b5050506040518051905080610342575060016000908152600560205273__AdrLib________________________________90632c2fc20e90600080516020610d2e8339815191529085906040516020015260405160e060020a63ffffffff85160281526004810192909252600160a060020a0316602482015260440160206040518083038186803b151561032657600080fd5b6102c65a03f4151561033757600080fd5b505050604051805190505b151561034d57600080fd5b60065473__TransactLib___________________________63bc2e368c90918660006040516020015260405160e060020a63ffffffff85160281526004810192909252602482015260440160206040518083038186803b15156103af57600080fd5b6102c65a03f415156103c057600080fd5b50505060405180519050905060065473__TransactLib___________________________639e5fd0a99091833060006040516020015260405160e060020a63ffffffff861602815260048101939093526024830191909152600160a060020a0316604482015260640160206040518083038186803b151561044057600080fd5b6102c65a03f4151561045157600080fd5b505050604051805160065550600160a060020a0382166000908152600a6020526040902054600480549183029091039055915050919050565b6004545b90565b600654600080803373__SortPLib______________________________63c6742457600a83856040516060015260405160e060020a63ffffffff85160281526004810192909252600160a060020a0316602482015260440160606040518083038186803b151561050057600080fd5b6102c65a03f4151561051157600080fd5b5050506040518051906020018051906020018051979892979196509094509092505050565b60035460009081908190600160a060020a0316151561055457600080fd5b6000600654111561067c57600354600654600160a060020a0390911690636e2855449060006040516040015260405160e060020a63ffffffff841602815260048101919091526024016040805180830381600087803b15156105b557600080fd5b6102c65a03f115156105c657600080fd5b5050506040518051906020018051600654929550925073__TransactLib___________________________91639e5fd0a99150853060006040516020015260405160e060020a63ffffffff861602815260048101939093526024830191909152600160a060020a0316604482015260640160206040518083038186803b151561064e57600080fd5b6102c65a03f4151561065f57600080fd5b505050604051805160065550600480548483029081900390915591505b505050565b60015433600160a060020a03908116911614156100955760068190554260088190556001547f93e0cabaa551645c58979b9f1e87af3e09f708241c9bdd6468e581ad0651692691600160a060020a039091169083906040518084600160a060020a0316600160a060020a03168152602001838152602001828152602001935050505060405180910390a15b50565b60008060075480600854014210156100955760065492506008549150509091565b60005433600160a060020a0390811691161415610095576003805473ffffffffffffffffffffffffffffffffffffffff1916600160a060020a03831617905561070c565b60008073__SortPLib______________________________6332a76998600a60405160e060020a63ffffffff8416028152600481019190915260240160006040518083038186803b15156107c757600080fd5b6102c65a03f415156107d857600080fd5b5050600354600160a060020a03161590506108f15750506003546000908190600160a060020a03166398d5fdca82604051604001526040518163ffffffff1660e060020a0281526004016040805180830381600087803b151561083a57600080fd5b6102c65a03f1151561084b57600080fd5b5050506040518051906020018051600354929450925073__SortPLib______________________________9163c3af64529150600a90600160a060020a0316858560405160e060020a63ffffffff87160281526004810194909452600160a060020a03909216602484015260448301521515606482015260840160006040518083038186803b15156108dc57600080fd5b6102c65a03f415156108ed57600080fd5b5050505b5050565b60005433600160a060020a039081169116141561009557600082815260056020526040902080546001810161092a8382610cf0565b506000918252602090912001805473ffffffffffffffffffffffffffffffffffffffff1916600160a060020a0383161790556108f1565b6000808073__SortPLib______________________________63e61f7934600a60405160e060020a63ffffffff8416028152600481019190915260240160006040518083038186803b15156109b557600080fd5b6102c65a03f415156109c657600080fd5b505050600090505b60026000526005602052600080516020610d4e83398151915254811015610b515760026000526005602052600080516020610d4e833981519152805482908110610a1457fe5b6000918252602082200154600160a060020a031690632fbc0bf190604051604001526040518163ffffffff1660e060020a0281526004016040805180830381600087803b1515610a6357600080fd5b6102c65a03f11515610a7457600080fd5b505050604051805190602001805160026000526005602052600080516020610d4e833981519152805493965090945073__SortPLib______________________________9263c3af64529250600a919085908110610ace57fe5b600091825260209091200154600160a060020a0316868660405160e060020a63ffffffff87160281526004810194909452600160a060020a03909216602484015260448301521515606482015260840160006040518083038186803b1515610b3557600080fd5b6102c65a03f41515610b4657600080fd5b5050506001016109ce565b5060005b60016000526005602052600080516020610d2e83398151915254811015610cd85760016000526005602052600080516020610d2e833981519152805482908110610b9b57fe5b6000918252602082200154600160a060020a0316906398d5fdca90604051604001526040518163ffffffff1660e060020a0281526004016040805180830381600087803b1515610bea57600080fd5b6102c65a03f11515610bfb57600080fd5b505050604051805190602001805160016000526005602052600080516020610d2e833981519152805493965090945073__SortPLib______________________________9263c3af64529250600a919085908110610c5557fe5b600091825260209091200154600160a060020a0316868660405160e060020a63ffffffff87160281526004810194909452600160a060020a03909216602484015260448301521515606482015260840160006040518083038186803b1515610cbc57600080fd5b6102c65a03f41515610ccd57600080fd5b505050600101610b55565b50504260095550565b600054600160a060020a031681565b81548183558181151161067c5760008381526020902061067c91810190830161048e91905b80821115610d295760008155600101610d15565b509056001471eb6eb2c5e789fc3de43f8ce62938c7d1836ec861730447e2ada8fd81017b89832631fb3c3307a103ba2c84ab569c64d6182a18893dcd163f0f1c2090733aa165627a7a72305820e1439b3a0f244da148d66b703a60ea32f9821014f90d18e56637a99e6bd841050029606060405260038054600160a060020a031916905561012c6006819055600755341561002a57600080fd5b6040516020806110878339810160405280805160018054600160a060020a03928316600160a060020a03199182161790915560008054339093169290911691909117905550506110088061007f6000396000f3006060604052600436106100ab5763ffffffff60e060020a6000350416631329960481146100b05780633d7224dc146100d55780633d859507146100ea5780633fd2007d146100fd578063567cc2b61461012b57806367a2829d146101415780636b608223146101545780638d646b11146101a75780638e4dfebb146101c657806391b7f5ed146101d957806398d5fdca146101ef578063bfd119031461021c578063ff1b636d1461023e575b600080fd5b34156100bb57600080fd5b6100c361026d565b60405190815260200160405180910390f35b34156100e057600080fd5b6100e8610274565b005b34156100f557600080fd5b6100e8610635565b341561010857600080fd5b61011360043561069b565b60405191825260208201526040908101905180910390f35b341561013657600080fd5b6100e86004356109fe565b341561014c57600080fd5b6100e8610a8c565b341561015f57600080fd5b61016a600435610d79565b6040518085600160a060020a0316600160a060020a0316815260200184815260200183815260200182815260200194505050505060405180910390f35b34156101b257600080fd5b6100e8600160a060020a0360043516610e18565b34156101d157600080fd5b610113610e5c565b34156101e457600080fd5b6100e8600435610e66565b34156101fa57600080fd5b610202610ec0565b604051918252151560208201526040908101905180910390f35b341561022757600080fd5b6100e8600435600160a060020a0360243516610ee5565b341561024957600080fd5b610251610f50565b604051600160a060020a03909116815260200160405180910390f35b600b545b90565b60008080808073__SortRLib______________________________63e6f37de9600e60405160e060020a63ffffffff8416028152600481019190915260240160006040518083038186803b15156102ca57600080fd5b6102c65a03f415156102db57600080fd5b505050600090505b600080526005602052600080516020610fbd8339815191525481101561048357600080526005602052600080516020610fbd83398151915280548290811061032757fe5b6000918252602082200154600160a060020a031690631b45f0e090604051608001526040518163ffffffff1660e060020a028152600401608060405180830381600087803b151561037757600080fd5b6102c65a03f1151561038857600080fd5b5050506040518051906020018051906020018051906020018051939850919650945090925050811561047b57600080526005602052600080516020610fbd833981519152805473__SortRLib______________________________9163ef61a13991600e9190859081106103f857fe5b600091825260209091200154600160a060020a031688888860405160e060020a63ffffffff88160281526004810195909552600160a060020a03909316602485015260448401919091526064830152608482015260a40160006040518083038186803b151561046657600080fd5b6102c65a03f4151561047757600080fd5b5050505b6001016102e3565b5060005b60026000526005602052600080516020610f9d8339815191525481101561062a5760026000526005602052600080516020610f9d8339815191528054829081106104cd57fe5b6000918252602082200154600160a060020a031690631b45f0e090604051608001526040518163ffffffff1660e060020a028152600401608060405180830381600087803b151561051d57600080fd5b6102c65a03f1151561052e57600080fd5b505050604051805190602001805190602001805190602001805193985091965094509092505081156106225760026000526005602052600080516020610f9d833981519152805473__SortRLib______________________________9163ef61a13991600e91908590811061059f57fe5b600091825260209091200154600160a060020a031688888860405160e060020a63ffffffff88160281526004810195909552600160a060020a03909316602485015260448401919091526064830152608482015260a40160006040518083038186803b151561060d57600080fd5b6102c65a03f4151561061e57600080fd5b5050505b600101610487565b505042600a55505050565b73__SortRLib______________________________63534e1918600e60405160e060020a63ffffffff8416028152600481019190915260240160006040518083038186803b151561068557600080fd5b6102c65a03f4151561069657600080fd5b505050565b60008060008060008060008060006106b28a610d79565b600c549399509197509550935073__TransactLib___________________________9063bc2e368c908760006040516020015260405160e060020a63ffffffff85160281526004810192909252602482015260440160206040518083038186803b151561071e57600080fd5b6102c65a03f4151561072f57600080fd5b505050604051805160026000908152600560205290985073__AdrLib________________________________9150632c2fc20e90600080516020610f9d8339815191529089906040516020015260405160e060020a63ffffffff85160281526004810192909252600160a060020a0316602482015260440160206040518083038186803b15156107be57600080fd5b6102c65a03f415156107cf57600080fd5b50505060405180519050156108f95785600160a060020a0316630ff372828860006040516020015260405160e060020a63ffffffff84160281526004810191909152602401602060405180830381600087803b151561082d57600080fd5b6102c65a03f1151561083e57600080fd5b5050506040518051600c80548290039055600d54600b549194508402925073__TransactLib___________________________915063e2992d299083893060006040516020015260405160e060020a63ffffffff871602815260048101949094526024840192909252600160a060020a03908116604484015216606482015260840160206040518083038186803b15156108d757600080fd5b6102c65a03f415156108e857600080fd5b5050506040518051600b55506109ee565b6000808052600560205273__AdrLib________________________________90632c2fc20e90600080516020610fbd8339815191529089906040516020015260405160e060020a63ffffffff85160281526004810192909252600160a060020a0316602482015260440160206040518083038186803b151561097a57600080fd5b6102c65a03f4151561098b57600080fd5b50505060405180519050156109e95785600160a060020a0316630ff372828860006040516020015260405160e060020a63ffffffff84160281526004810191909152602401602060405180830381600087803b151561082d57600080fd5b600091505b5094989497509395505050505050565b60015433600160a060020a03908116911614156100ab57600c8190554260098190556001547fdf963fee409850630585bd095a505a9a956ef373cd706eb6eddec02d0a36731991600160a060020a039091169083906040518084600160a060020a0316600160a060020a03168152602001838152602001828152602001935050505060405180910390a15b50565b600080600080600080600c541115610d725760026000526005602052600080516020610f9d8339815191525415610c41575060005b60026000526005602052600080516020610f9d83398151915254811015610c3c5760026000526005602052600080516020610f9d833981519152805482908110610b0757fe5b6000918252602082200154600c54600160a060020a03909116935083916335f7f5e291906040516040015260405160e060020a63ffffffff841602815260048101919091526024016040805180830381600087803b1515610b6757600080fd5b6102c65a03f11515610b7857600080fd5b5050506040518051906020018051600c80548490039055600b549297508781029650945073__TransactLib___________________________9163e2992d29915086853060006040516020015260405160e060020a63ffffffff871602815260048101949094526024840192909252600160a060020a03908116604484015216606482015260840160206040518083038186803b1515610c1757600080fd5b6102c65a03f41515610c2857600080fd5b5050506040518051600b5550600101610ac1565b610d72565b600354600c54600160a060020a03909116906335f7f5e29060006040516040015260405160e060020a63ffffffff841602815260048101919091526024016040805180830381600087803b1515610c9757600080fd5b6102c65a03f11515610ca857600080fd5b5050506040518051906020018051600c80548490039055600b54600354939850888202975090955073__TransactLib___________________________9263e2992d2992508790600160a060020a03163060006040516020015260405160e060020a63ffffffff871602815260048101949094526024840192909252600160a060020a03908116604484015216606482015260840160206040518083038186803b1515610d5457600080fd5b6102c65a03f41515610d6557600080fd5b5050506040518051600b55505b5050505050565b600080808073__SortRLib______________________________6391871092600e87846040516080015260405160e060020a63ffffffff85160281526004810192909252602482015260440160806040518083038186803b1515610ddc57600080fd5b6102c65a03f41515610ded57600080fd5b5050506040518051906020018051906020018051906020018051905093509350935093509193509193565b60005433600160a060020a03908116911614156100ab576003805473ffffffffffffffffffffffffffffffffffffffff1916600160a060020a038316179055610a89565b600c546009549091565b60015433600160a060020a03908116911614156100ab57600d8190554260088190557fae46785019700e30375a5d7b4f91e32f8060ef085111f896ebf889450aa2ab5a9060405190815260200160405180910390a1610a89565b600d546007546008546000914291011015610edd57506000610ee1565b5060015b9091565b60005433600160a060020a03908116911614156100ab576000828152600560205260409020805460018101610f1a8382610f5f565b506000918252602090912001805473ffffffffffffffffffffffffffffffffffffffff1916600160a060020a0383161790555050565b600054600160a060020a031681565b8154818355818115116106965760008381526020902061069691810190830161027191905b80821115610f985760008155600101610f84565b5090560089832631fb3c3307a103ba2c84ab569c64d6182a18893dcd163f0f1c2090733a05b8ccbb9d4d8fb16ea74ce3c29a41f1b461fbdaff4714a0d9a8eb05499746bca165627a7a72305820e33869bdcbea9a04c0b55cb892837f0b2bd7e1bb80cbc3b5cbfaa8fd6aa85a340029606060405260038054600160a060020a031916905561012c6007819055600855341561002a57600080fd5b60405160408061146a833981016040528080519190602001805160018054600160a060020a03958616600160a060020a031991821617909155600080543390961695909116949094179093555050600d556113e08061008a6000396000f3006060604052600436106100e25763ffffffff60e060020a6000350416630e00c31681146100e75780630ff372821461011e5780631b45f0e0146101465780632fbc0bf11461018557806335f7f5e2146101b25780633d7224dc146101e05780633d859507146101f55780633fd2007d146102085780634559dcdc1461021e5780636a95841b146102345780636b6082231461024a57806379c19df01461029d5780638d646b11146102b0578063aac12b4b146102cf578063bfd11903146102e2578063c974602914610304578063f7d9757714610317578063ff1b636d14610330575b600080fd5b34156100f257600080fd5b6100fa61035f565b60405180848152602001838152602001828152602001935050505060405180910390f35b341561012957600080fd5b61013460043561036f565b60405190815260200160405180910390f35b341561015157600080fd5b6101596105e2565b604051938452602084019290925260408084019190915290151560608301526080909101905180910390f35b341561019057600080fd5b610198610685565b604051918252151560208201526040908101905180910390f35b34156101bd57600080fd5b6101c86004356106aa565b60405191825260208201526040908101905180910390f35b34156101eb57600080fd5b6101f36107d8565b005b341561020057600080fd5b6101f36109f2565b341561021357600080fd5b6101c8600435610a58565b341561022957600080fd5b6101f3600435610d37565b341561023f57600080fd5b6101f3600435610dc5565b341561025557600080fd5b610260600435610df9565b6040518085600160a060020a0316600160a060020a0316815260200184815260200183815260200182815260200194505050505060405180910390f35b34156102a857600080fd5b610134610e98565b34156102bb57600080fd5b6101f3600160a060020a0360043516610e9f565b34156102da57600080fd5b6101f3610ee3565b34156102ed57600080fd5b6101f3600435600160a060020a0360243516611064565b341561030f57600080fd5b6101f36110d0565b341561032257600080fd5b6101f36004356024356112c9565b341561033b57600080fd5b610343611328565b604051600160a060020a03909116815260200160405180910390f35b600e54600a54600d549192909190565b600160009081526005602052338173__AdrLib________________________________632c2fc20e60008051602061137583398151915284846040516020015260405160e060020a63ffffffff85160281526004810192909252600160a060020a0316602482015260440160206040518083038186803b15156103f157600080fd5b6102c65a03f4151561040257600080fd5b50505060405180519050806104245750600354600160a060020a038381169116145b151561042f57600080fd5b600f5473__TransactLib___________________________63bc2e368c90918660006040516020015260405160e060020a63ffffffff85160281526004810192909252602482015260440160206040518083038186803b151561049157600080fd5b6102c65a03f415156104a257600080fd5b5050506040518051600e805482019081905542600a8190556001549294507fa8533a3e28bf00cd05018ed80847d3d6f170da084f6417da50798db7335ff9a09350600160a060020a03909216916040518084600160a060020a0316600160a060020a03168152602001838152602001828152602001935050505060405180910390a1600f5473__TransactLib___________________________639e5fd0a99091833060006040516020015260405160e060020a63ffffffff861602815260048101939093526024830191909152600160a060020a0316604482015260640160206040518083038186803b151561059857600080fd5b6102c65a03f415156105a957600080fd5b5050506040518051600f5550600160a060020a038216600090815260126020526040902054600680549183029091039055915050919050565b600f546000808073__SortPLib______________________________63c6742457601233846040516060015260405160e060020a63ffffffff85160281526004810192909252600160a060020a0316602482015260440160606040518083038186803b151561065057600080fd5b6102c65a03f4151561066157600080fd5b50505060405180519060200180519060200180519697929691955090935090915050565b60105460085460095460009142910110156106a2575060006106a6565b5060015b9091565b60008060115490508273__TransactLib___________________________63bc2e368c9091600e54600d540360006040516020015260405160e060020a63ffffffff85160281526004810192909252602482015260440160206040518083038186803b151561071857600080fd5b6102c65a03f4151561072957600080fd5b505050604051805190509150600e5473__TransactLib___________________________63994459079091843060006040516020015260405160e060020a63ffffffff861602815260048101939093526024830191909152600160a060020a0316604482015260640160206040518083038186803b15156107a957600080fd5b6102c65a03f415156107ba57600080fd5b5050506040518051600e555060068054838302900390559092909150565b60008080808073__SortRLib______________________________63e6f37de9601660405160e060020a63ffffffff8416028152600481019190915260240160006040518083038186803b151561082e57600080fd5b6102c65a03f4151561083f57600080fd5b505050600090505b600080526005602052600080516020611395833981519152548110156109e75760008052600560205260008051602061139583398151915280548290811061088b57fe5b6000918252602082200154600160a060020a031690631b45f0e090604051608001526040518163ffffffff1660e060020a028152600401608060405180830381600087803b15156108db57600080fd5b6102c65a03f115156108ec57600080fd5b505050604051805190602001805190602001805190602001805193985091965094509092505081156109df57600080526005602052600080516020611395833981519152805473__SortRLib______________________________9163ef61a13991601691908590811061095c57fe5b600091825260209091200154600160a060020a031688888860405160e060020a63ffffffff88160281526004810195909552600160a060020a03909316602485015260448401919091526064830152608482015260a40160006040518083038186803b15156109ca57600080fd5b6102c65a03f415156109db57600080fd5b5050505b600101610847565b505042600c55505050565b73__SortRLib______________________________63534e1918601660405160e060020a63ffffffff8416028152600481019190915260240160006040518083038186803b1515610a4257600080fd5b6102c65a03f41515610a5357600080fd5b505050565b6000806000806000806000806000610a6f8a610df9565b600e549399509197509550935073__TransactLib___________________________9063bc2e368c908760006040516020015260405160e060020a63ffffffff85160281526004810192909252602482015260440160206040518083038186803b1515610adb57600080fd5b6102c65a03f41515610aec57600080fd5b50505060405180516000808052600560205290985073__AdrLib________________________________9150632c2fc20e906000805160206113958339815191529089906040516020015260405160e060020a63ffffffff85160281526004810192909252600160a060020a0316602482015260440160206040518083038186803b1515610b7957600080fd5b6102c65a03f41515610b8a57600080fd5b5050506040518051905015610d225785600160a060020a0316630ff372828860006040516020015260405160e060020a63ffffffff84160281526004810191909152602401602060405180830381600087803b1515610be857600080fd5b6102c65a03f11515610bf957600080fd5b5050506040518051600e80548290039081905542600a8190556001549295507fa8533a3e28bf00cd05018ed80847d3d6f170da084f6417da50798db7335ff9a09350600160a060020a03909216916040518084600160a060020a0316600160a060020a03168152602001838152602001828152602001935050505060405180910390a16010548202905060065473__TransactLib___________________________63e2992d29909183893060006040516020015260405160e060020a63ffffffff871602815260048101949094526024840192909252600160a060020a03908116604484015216606482015260840160206040518083038186803b1515610d0057600080fd5b6102c65a03f41515610d1157600080fd5b505050604051805160065550610d27565b600091505b5094989497509395505050505050565b60015433600160a060020a03908116911614156100e257600e81905542600a8190556001547fa8533a3e28bf00cd05018ed80847d3d6f170da084f6417da50798db7335ff9a091600160a060020a039091169083906040518084600160a060020a0316600160a060020a03168152602001838152602001828152602001935050505060405180910390a15b50565b60015433600160a060020a03908116911614156100e257600d54600e5482011115610def57600080fd5b600f819055610dc2565b600080808073__SortRLib______________________________6391871092601687846040516080015260405160e060020a63ffffffff85160281526004810192909252602482015260440160806040518083038186803b1515610e5c57600080fd5b6102c65a03f41515610e6d57600080fd5b5050506040518051906020018051906020018051906020018051905093509350935093509193509193565b600f545b90565b60005433600160a060020a03908116911614156100e2576003805473ffffffffffffffffffffffffffffffffffffffff1916600160a060020a038316179055610dc2565b60008073__SortPLib______________________________6332a76998601260405160e060020a63ffffffff8416028152600481019190915260240160006040518083038186803b1515610f3657600080fd5b6102c65a03f41515610f4757600080fd5b5050600354600160a060020a03161590506110605750506003546000908190600160a060020a03166398d5fdca82604051604001526040518163ffffffff1660e060020a0281526004016040805180830381600087803b1515610fa957600080fd5b6102c65a03f11515610fba57600080fd5b5050506040518051906020018051600354929450925073__SortPLib______________________________9163c3af64529150601290600160a060020a0316858560405160e060020a63ffffffff87160281526004810194909452600160a060020a03909216602484015260448301521515606482015260840160006040518083038186803b151561104b57600080fd5b6102c65a03f4151561105c57600080fd5b5050505b5050565b60005433600160a060020a03908116911614156100e25760008281526005602052604090208054600181016110998382611337565b506000918252602090912001805473ffffffffffffffffffffffffffffffffffffffff1916600160a060020a038316179055611060565b6000808073__SortPLib______________________________63e61f7934601260405160e060020a63ffffffff8416028152600481019190915260240160006040518083038186803b151561112457600080fd5b6102c65a03f4151561113557600080fd5b505050600090505b60016000526005602052600080516020611375833981519152548110156112c0576001600052600560205260008051602061137583398151915280548290811061118357fe5b6000918252602082200154600160a060020a0316906398d5fdca90604051604001526040518163ffffffff1660e060020a0281526004016040805180830381600087803b15156111d257600080fd5b6102c65a03f115156111e357600080fd5b505050604051805190602001805160016000526005602052600080516020611375833981519152805493965090945073__SortPLib______________________________9263c3af64529250601291908590811061123d57fe5b600091825260209091200154600160a060020a0316868660405160e060020a63ffffffff87160281526004810194909452600160a060020a03909216602484015260448301521515606482015260840160006040518083038186803b15156112a457600080fd5b6102c65a03f415156112b557600080fd5b50505060010161113d565b505042600b5550565b60015433600160a060020a03908116911614156100e257601082905560118190554260098190557fae46785019700e30375a5d7b4f91e32f8060ef085111f896ebf889450aa2ab5a9060405190815260200160405180910390a1611060565b600054600160a060020a031681565b815481835581811511610a5357600083815260209020610a53918101908301610e9c91905b80821115611370576000815560010161135c565b509056001471eb6eb2c5e789fc3de43f8ce62938c7d1836ec861730447e2ada8fd81017b05b8ccbb9d4d8fb16ea74ce3c29a41f1b461fbdaff4714a0d9a8eb05499746bca165627a7a723058208ef7974143e6c7a2e56f8f39de8786f55a4ab5f9a9e78d7614af89efa439b8990029a165627a7a7230582099a3e7a57b5f7d8699bed6cbc327f3e3ba32102aad9da72945d633cb8797489a0029",
  "source": "pragma solidity ^0.4.4;\r\n\r\nimport \"./SingleHouse.sol\";\r\nimport \"./SinglePV.sol\";\r\nimport \"./SingleBattery.sol\";\r\nimport \"./Grid.sol\";\r\n\r\ncontract Configuration {\r\n\r\n  address public admin = msg.sender; // only the admin node can modify the configuration...\r\n  address public gridAdr;          // store the address of grid...(address of the transformer that links to the grid... not the contract address)\r\n  uint public statusAt; // timestamp of the creation of Configuration instance\r\n\r\n  // The variables below should be deleted... \r\n  uint8 private numHouseCurrent = 0;    // current houses in the system\r\n  uint8 private numPVCurrent = 0;       // current PVs in the system\r\n  uint8 private numBatteryCurrent = 0;    // current batteries in the system\r\n\r\n  // Several types of devices in the system\r\n  enum deviceType {House, PV, Battery}\r\n\r\n  struct EndUser {\r\n    deviceType  dType;\r\n    address     cAddress;           // address of the contract\r\n    uint        statusAt;           // timestamp of the creation\r\n    mapping(address=>EndUser) connectedUser;     // List of another node connected.\r\n  }\r\n\r\n\r\n  mapping(address=>EndUser) userList;   // the account of the owner => struct\r\n  mapping(address=>address) contractList;   // now putting all the linkage to real contract address into this mapping\r\n\r\n  // Restricts execution by admin only\r\n  modifier adminOnly {\r\n    if(msg.sender == admin){\r\n      _;\r\n    } else {\r\n      revert();\r\n    }\r\n  }\r\n  \r\n  event LogDevice(address deviceAdr);\r\n  event LogConnection(address device1, address device2);\r\n\r\n  function Configuration() adminOnly {\r\n      statusAt = now;\r\n  }\r\n\r\n  function addGrid(address adr) adminOnly {\r\n      contractList[adr] = new Grid(adr);\r\n      gridAdr = address(contractList[adr]);\r\n  }\r\n\r\n  function addDevice(uint8 _deviceType, address adr, uint capacity, bool g) adminOnly public {\r\n      require (_deviceType < 3); //addBattery\r\n      if (_deviceType == 0) {   // addHouse\r\n        contractList[adr] = new SingleHouse(adr);\r\n        numHouseCurrent++;\r\n      } else if (_deviceType == 1) {    //addPV\r\n        contractList[adr] = new SinglePV(adr);\r\n        numPVCurrent++;\r\n      } else {\r\n        contractList[adr] = new SingleBattery(adr, capacity);\r\n        numBatteryCurrent++;\r\n      }\r\n      if (g) {\r\n          GeneralDevice(contractList[adr]).setGridAdr(gridAdr);\r\n          GeneralDevice(gridAdr).addConnectedDevice(_deviceType, contractList[adr]);\r\n        }\r\n      EndUser memory tempEU;\r\n      tempEU.dType = deviceType(_deviceType);\r\n      tempEU.cAddress = address(contractList[adr]);\r\n      tempEU.statusAt = now;\r\n      userList[adr] = tempEU;\r\n\r\n      LogDevice(adr);\r\n  }\r\n\r\n    function getContractAddress(address adr) view adminOnly returns(address) {\r\n      return address(contractList[adr]);\r\n    }  \r\n\r\n    function getDeviceType(address adr) returns (uint8) {\r\n        // deviceType {House,PV,Battery}\r\n        \r\n        if (userList[adr].cAddress != 0x0) {\r\n            return uint8(userList[adr].dType);\r\n        } else {\r\n            return 15;   // when the address corresponds no device in the configuration...\r\n        }\r\n    }\r\n\r\n    function linkDevices(address adr1, address adr2) adminOnly {\r\n        uint8[2] memory dt;\r\n        dt[0] = getDeviceType(adr1);\r\n        dt[1] = getDeviceType(adr2);\r\n        require(dt[0]<3 && userList[adr1].connectedUser[adr2].cAddress == 0x0);\r\n        require(dt[1]<3 && userList[adr2].connectedUser[adr1].cAddress == 0x0);\r\n        userList[adr1].connectedUser[adr2] = userList[adr2];\r\n        userList[adr2].connectedUser[adr1] = userList[adr1];\r\n\r\n        GeneralDevice(address(contractList[adr1])).addConnectedDevice(dt[1],address(contractList[adr2]));\r\n        GeneralDevice(address(contractList[adr2])).addConnectedDevice(dt[0],address(contractList[adr1]));\r\n        \r\n        LogConnection(adr1,adr2);\r\n    }\r\n\r\n    // test functions\r\n\r\n    function getAdmin() constant returns (address) {\r\n        return admin;\r\n    } \r\n\r\n    function getGridAdr() constant returns(address) {\r\n        return gridAdr;\r\n    } \r\n\r\n}\r\n",
  "sourcePath": "C:\\Users\\qianc\\Documents\\Thesis\\Code\\SimpleMonitor\\contracts\\Configuration.sol",
  "compiler": {
    "name": "solc",
    "version": "0.4.18+commit.9cf6e910.Emscripten.clang"
  },
  "schemaVersion": "1.0.1",
  "updatedAt": "2017-11-28T18:47:31.352Z"
}