{
  "contractName": "Configuration",
  "abi": [
    {
      "constant": false,
      "inputs": [
        {
          "name": "adr",
          "type": "address"
        }
      ],
      "name": "addGrid",
      "outputs": [],
      "payable": false,
      "stateMutability": "nonpayable",
      "type": "function"
    },
    {
      "constant": false,
      "inputs": [
        {
          "name": "adr",
          "type": "address"
        },
        {
          "name": "g",
          "type": "bool"
        }
      ],
      "name": "addPV",
      "outputs": [],
      "payable": false,
      "stateMutability": "nonpayable",
      "type": "function"
    },
    {
      "constant": true,
      "inputs": [],
      "name": "numPVTotal",
      "outputs": [
        {
          "name": "",
          "type": "uint8"
        }
      ],
      "payable": false,
      "stateMutability": "view",
      "type": "function"
    },
    {
      "constant": false,
      "inputs": [
        {
          "name": "adr",
          "type": "address"
        },
        {
          "name": "capacity",
          "type": "uint256"
        },
        {
          "name": "g",
          "type": "bool"
        }
      ],
      "name": "addBattery",
      "outputs": [],
      "payable": false,
      "stateMutability": "nonpayable",
      "type": "function"
    },
    {
      "constant": false,
      "inputs": [
        {
          "name": "adr",
          "type": "address"
        }
      ],
      "name": "getContractAddress",
      "outputs": [
        {
          "name": "",
          "type": "address"
        }
      ],
      "payable": false,
      "stateMutability": "nonpayable",
      "type": "function"
    },
    {
      "constant": false,
      "inputs": [
        {
          "name": "adrHouse",
          "type": "address"
        },
        {
          "name": "adrPV",
          "type": "address"
        }
      ],
      "name": "linkHousePV",
      "outputs": [],
      "payable": false,
      "stateMutability": "nonpayable",
      "type": "function"
    },
    {
      "constant": false,
      "inputs": [
        {
          "name": "adr",
          "type": "address"
        },
        {
          "name": "g",
          "type": "bool"
        }
      ],
      "name": "addHouse",
      "outputs": [],
      "payable": false,
      "stateMutability": "nonpayable",
      "type": "function"
    },
    {
      "constant": true,
      "inputs": [],
      "name": "getAdmin",
      "outputs": [
        {
          "name": "",
          "type": "address"
        }
      ],
      "payable": false,
      "stateMutability": "view",
      "type": "function"
    },
    {
      "constant": false,
      "inputs": [
        {
          "name": "adrPV",
          "type": "address"
        }
      ],
      "name": "getPVConnection",
      "outputs": [
        {
          "name": "numConnectedHouse",
          "type": "uint256"
        },
        {
          "name": "numConnectedBattery",
          "type": "uint256"
        }
      ],
      "payable": false,
      "stateMutability": "nonpayable",
      "type": "function"
    },
    {
      "constant": true,
      "inputs": [],
      "name": "statusAt",
      "outputs": [
        {
          "name": "",
          "type": "uint256"
        }
      ],
      "payable": false,
      "stateMutability": "view",
      "type": "function"
    },
    {
      "constant": true,
      "inputs": [],
      "name": "numBatteryTotal",
      "outputs": [
        {
          "name": "",
          "type": "uint8"
        }
      ],
      "payable": false,
      "stateMutability": "view",
      "type": "function"
    },
    {
      "constant": false,
      "inputs": [
        {
          "name": "adrPV",
          "type": "address"
        },
        {
          "name": "adrBattery",
          "type": "address"
        }
      ],
      "name": "linkPVBattery",
      "outputs": [],
      "payable": false,
      "stateMutability": "nonpayable",
      "type": "function"
    },
    {
      "constant": true,
      "inputs": [],
      "name": "numHouseTotal",
      "outputs": [
        {
          "name": "",
          "type": "uint8"
        }
      ],
      "payable": false,
      "stateMutability": "view",
      "type": "function"
    },
    {
      "constant": false,
      "inputs": [
        {
          "name": "adrHouse",
          "type": "address"
        },
        {
          "name": "adrBattery",
          "type": "address"
        }
      ],
      "name": "linkHouseBattery",
      "outputs": [],
      "payable": false,
      "stateMutability": "nonpayable",
      "type": "function"
    },
    {
      "constant": true,
      "inputs": [],
      "name": "getGridAdr",
      "outputs": [
        {
          "name": "",
          "type": "address"
        }
      ],
      "payable": false,
      "stateMutability": "view",
      "type": "function"
    },
    {
      "constant": true,
      "inputs": [],
      "name": "admin",
      "outputs": [
        {
          "name": "",
          "type": "address"
        }
      ],
      "payable": false,
      "stateMutability": "view",
      "type": "function"
    },
    {
      "inputs": [
        {
          "name": "numHouse",
          "type": "uint8"
        },
        {
          "name": "numPV",
          "type": "uint8"
        },
        {
          "name": "numBattery",
          "type": "uint8"
        }
      ],
      "payable": false,
      "stateMutability": "nonpayable",
      "type": "constructor"
    },
    {
      "anonymous": false,
      "inputs": [
        {
          "indexed": false,
          "name": "numHouses",
          "type": "uint256"
        },
        {
          "indexed": false,
          "name": "numPV",
          "type": "uint256"
        },
        {
          "indexed": false,
          "name": "numBattery",
          "type": "uint256"
        },
        {
          "indexed": false,
          "name": "statusat",
          "type": "uint256"
        }
      ],
      "name": "LogConfig",
      "type": "event"
    },
    {
      "anonymous": false,
      "inputs": [
        {
          "indexed": false,
          "name": "deviceAdr",
          "type": "address"
        }
      ],
      "name": "LogDevice",
      "type": "event"
    },
    {
      "anonymous": false,
      "inputs": [
        {
          "indexed": false,
          "name": "device1",
          "type": "address"
        },
        {
          "indexed": false,
          "name": "device2",
          "type": "address"
        }
      ],
      "name": "LogConnection",
      "type": "event"
    }
  ],
  "bytecode": "0x606060405260008054600160a060020a03191633600160a060020a03161790556002805460b860020a62ffffff0219169055341561003c57600080fd5b6040516060806159c583398101604052808051919060200180519190602001805160005490925033600160a060020a0390811691161415905061011f576002805460ff191660ff8581169190911761ff00191661010085831681029190911762ff0000191662010000858416810291909117938490554260018190557f2f3512603ca90996b9ddcd6b28a9c368ecc39a291377875368438314d3c6c1c694808516949381048416939290049091169060405160ff9485168152928416602084015292166040808301919091526060820192909252608001905180910390a1610124565b600080fd5b50505061588f806101366000396000f3006060604052600436106100cc5763ffffffff60e060020a6000350416633474efe681146100d1578063359b68bb146100f257806351d6037b146101165780635ea15b9b1461013f578063622bc90e146101665780636a5d5ee0146101a15780636b98fe2e146101c65780636e9960c3146101ea57806378f83caf146101fd57806380f57b3b1461023457806385fdfb4114610259578063ce92bd901461026c578063d5b56dba14610291578063e7bd5f6d146102a4578063f0c998ec146102c9578063f851a440146102dc575b600080fd5b34156100dc57600080fd5b6100f0600160a060020a03600435166102ef565b005b34156100fd57600080fd5b6100f0600160a060020a03600435166024351515610396565b341561012157600080fd5b610129610660565b60405160ff909116815260200160405180910390f35b341561014a57600080fd5b6100f0600160a060020a0360043516602435604435151561066e565b341561017157600080fd5b610185600160a060020a0360043516610943565b604051600160a060020a03909116815260200160405180910390f35b34156101ac57600080fd5b6100f0600160a060020a036004358116906024351661097a565b34156101d157600080fd5b6100f0600160a060020a03600435166024351515610c2b565b34156101f557600080fd5b610185610eb6565b341561020857600080fd5b61021c600160a060020a0360043516610ec6565b60405191825260208201526040908101905180910390f35b341561023f57600080fd5b610247610eec565b60405190815260200160405180910390f35b341561026457600080fd5b610129610ef2565b341561027757600080fd5b6100f0600160a060020a0360043581169060243516610f01565b341561029c57600080fd5b6101296111be565b34156102af57600080fd5b6100f0600160a060020a03600435811690602435166111c7565b34156102d457600080fd5b610185611398565b34156102e757600080fd5b6101856113ae565b60005433600160a060020a03908116911614156100cc578061030f6113bd565b600160a060020a039091168152602001604051809103906000f080151561033557600080fd5b600160a060020a0382811660009081526006602052604090208054600160a060020a03191692821692909217918290556002805476ffffffffffffffffffffffffffffffffffffffff00000019169290911663010000000291909117905550565b61039e6113cd565b60005433600160a060020a03908116911614156100cc5760025460ff61010082048116780100000000000000000000000000000000000000000000000090920416106103e957600080fd5b826103f2611400565b600160a060020a039091168152602001604051809103906000f080151561041857600080fd5b600160a060020a0384811660008181526006602090815260408083208054600160a060020a03191696861696909617958690559490931685524285840152908152600490915220819081518154600160a060020a031916600160a060020a0391909116178155602082015181600101556040820151816002019080516104a2929160200190611410565b506060820151816003019080516104bd929160200190611410565b5090505081156105cf57600160a060020a03808416600090815260066020526040908190205460025490831692638d646b1192630100000090920416905160e060020a63ffffffff8416028152600160a060020a039091166004820152602401600060405180830381600087803b151561053657600080fd5b6102c65a03f1151561054757600080fd5b5050600254600160a060020a038581166000908152600660205260409081902054630100000090930482169350634927f2e792909116905160e060020a63ffffffff8416028152600160a060020a039091166004820152602401600060405180830381600087803b15156105ba57600080fd5b6102c65a03f115156105cb57600080fd5b5050505b60028054600160ff7801000000000000000000000000000000000000000000000000808404821692909201160278ff000000000000000000000000000000000000000000000000199091161790557f65c506643f4516f3ef335c5dd71017b8e849268cd860c3235c7db2c62fd8e93b83604051600160a060020a03909116815260200160405180910390a15b505050565b600254610100900460ff1681565b6106766113cd565b60005433600160a060020a03908116911614156100cc5760025460ff620100008204811679010000000000000000000000000000000000000000000000000090920416106106c357600080fd5b83836106cd611477565b600160a060020a039092168252602082015260409081019051809103906000f08015156106f957600080fd5b600160a060020a0385811660008181526006602090815260408083208054600160a060020a03191696861696909617958690559490931685524285840152908152600590915220819081518154600160a060020a031916600160a060020a039190911617815560208201518160010155604082015181600201908051610783929160200190611410565b5060608201518160030190805161079e929160200190611410565b5090505081156108b057600160a060020a03808516600090815260066020526040908190205460025490831692638d646b1192630100000090920416905160e060020a63ffffffff8416028152600160a060020a039091166004820152602401600060405180830381600087803b151561081757600080fd5b6102c65a03f1151561082857600080fd5b5050600254600160a060020a03868116600090815260066020526040908190205463010000009093048216935063d545290192909116905160e060020a63ffffffff8416028152600160a060020a039091166004820152602401600060405180830381600087803b151561089b57600080fd5b6102c65a03f115156108ac57600080fd5b5050505b60028054600160ff790100000000000000000000000000000000000000000000000000808404821692909201160279ff00000000000000000000000000000000000000000000000000199091161790557f65c506643f4516f3ef335c5dd71017b8e849268cd860c3235c7db2c62fd8e93b84604051600160a060020a03909116815260200160405180910390a150505050565b6000805433600160a060020a03908116911614156100cc5750600160a060020a039081166000908152600660205260409020541690565b60005433600160a060020a03908116911614156100cc57600160a060020a038083166000908152600360205260409020541615156109b757600080fd5b600160a060020a038082166000908152600460205260409020541615156109dd57600080fd5b600160a060020a03828116600090815260036020908152604080832085851684526002019091529020541615610a1257600080fd5b600160a060020a038082166000818152600460209081526040808320878616845260038352818420948452600294850190925290912081548154600160a060020a0319169416939093178355600180820154908401558181018054919392610a7e929084019190611487565b5060038281018054610a939284019190611487565b505050600160a060020a0381166000908152600460205260409020600201805460018101610ac183826114c7565b5060009182526020808320919091018054600160a060020a031916600160a060020a038681169182179092558352600690915260408083205484831684529281902054928216926341977cf59216905160e060020a63ffffffff8416028152600160a060020a039091166004820152602401600060405180830381600087803b1515610b4c57600080fd5b6102c65a03f11515610b5d57600080fd5b505050600160a060020a03808216600090815260066020526040808220548584168352918190205491831692630a71db5e9216905160e060020a63ffffffff8416028152600160a060020a039091166004820152602401600060405180830381600087803b1515610bcd57600080fd5b6102c65a03f11515610bde57600080fd5b5050507f2defa27bb08b7ca89bc5fb146b34db072eccd285461d98ae368b88088a6cb8ec8282604051600160a060020a039283168152911660208201526040908101905180910390a15050565b610c336114eb565b60005433600160a060020a03908116911614156100cc5760025460ff808216770100000000000000000000000000000000000000000000009092041610610c7957600080fd5b82610c82611502565b600160a060020a039091168152602001604051809103906000f0801515610ca857600080fd5b600160a060020a0384811660008181526006602090815260408083208054600160a060020a03191696861696909617958690559490931685524285840152908152600390915220819081518154600160a060020a031916600160a060020a03919091161781556020820151600190910155508115610e2857600160a060020a03808416600090815260066020526040908190205460025490831692638d646b1192630100000090920416905160e060020a63ffffffff8416028152600160a060020a039091166004820152602401600060405180830381600087803b1515610d8f57600080fd5b6102c65a03f11515610da057600080fd5b5050600254600160a060020a03858116600090815260066020526040908190205463010000009093048216935063ad3ef3ab92909116905160e060020a63ffffffff8416028152600160a060020a039091166004820152602401600060405180830381600087803b1515610e1357600080fd5b6102c65a03f11515610e2457600080fd5b5050505b60028054600160ff77010000000000000000000000000000000000000000000000808404821692909201160277ff0000000000000000000000000000000000000000000000199091161790557f65c506643f4516f3ef335c5dd71017b8e849268cd860c3235c7db2c62fd8e93b83604051600160a060020a03909116815260200160405180910390a161065b565b600054600160a060020a03165b90565b600160a060020a0316600090815260046020526040902060028101546003909101549091565b60015481565b60025462010000900460ff1681565b6000805433600160a060020a03908116911614156100cc57600160a060020a03808416600090815260046020526040902054161515610f3f57600080fd5b600160a060020a03808316600090815260056020526040902054161515610f6557600080fd5b5060005b600160a060020a038316600090815260046020526040902060030154811015610fe057600160a060020a03838116600090815260046020526040902060030180549184169183908110610fb857fe5b600091825260209091200154600160a060020a03161415610fd857600080fd5b600101610f69565b600160a060020a038316600090815260046020526040902060030180546001810161100b83826114c7565b5060009182526020808320919091018054600160a060020a031916600160a060020a0386169081179091558252600590526040902060030180546001810161105383826114c7565b5060009182526020808320919091018054600160a060020a031916600160a060020a03878116918217909255835260069091526040808320548583168452928190205492821692638ad5366f9216905160e060020a63ffffffff8416028152600160a060020a039091166004820152602401600060405180830381600087803b15156110de57600080fd5b6102c65a03f115156110ef57600080fd5b505050600160a060020a038083166000908152600660205260408082205486841683529181902054918316926341977cf59216905160e060020a63ffffffff8416028152600160a060020a039091166004820152602401600060405180830381600087803b151561115f57600080fd5b6102c65a03f1151561117057600080fd5b5050507f2defa27bb08b7ca89bc5fb146b34db072eccd285461d98ae368b88088a6cb8ec8383604051600160a060020a039283168152911660208201526040908101905180910390a161065b565b60025460ff1681565b60005433600160a060020a03908116911614156100cc57600160a060020a0380831660009081526003602052604090205416151561120457600080fd5b600160a060020a0380821660009081526005602052604090205416151561122a57600080fd5b600160a060020a03808316600090815260036020818152604080842086861685529092019052902054161561125e57600080fd5b600160a060020a0380821660008181526005602090815260408083208786168452600380845282852095855294909401909152902081548154600160a060020a031916931692909217825560018082015490830155600280820180549293926112ca9284019190611487565b50600382810180546112df9284019190611487565b505050600160a060020a038116600090815260056020526040902060020180546001810161130d83826114c7565b5060009182526020808320919091018054600160a060020a031916600160a060020a03868116918217909255835260069091526040808320548483168452928190205492821692638ad5366f9216905160e060020a63ffffffff8416028152600160a060020a039091166004820152602401600060405180830381600087803b1515610b4c57600080fd5b60025463010000009004600160a060020a031690565b600054600160a060020a031681565b6040516107c38061156383390190565b608060405190810160409081526000808352602083015281016113ee611512565b81526020016113fb611512565b905290565b6040516112d780611d2683390190565b828054828255906000526020600020908101928215611467579160200282015b828111156114675782518254600160a060020a031916600160a060020a039190911617825560209290920191600190910190611430565b50611473929150611524565b5090565b60405161172180612ffd83390190565b8280548282559060005260206000209081019282156114675760005260206000209182015b828111156114675782548255916001019190600101906114ac565b81548183558181151161065b5760008381526020902061065b918101908301611548565b604080519081016040526000808252602082015290565b6040516111468061471e83390190565b60206040519081016040526000815290565b610ec391905b80821115611473578054600160a060020a031916815560010161152a565b610ec391905b80821115611473576000815560010161154e5600606060405261012c60045560646005556064600655341561001f57600080fd5b6040516020806107c38339810160405280805160018054600160a060020a03928316600160a060020a031991821617909155600080543390931692909116919091179055505061074f806100746000396000f30060606040526004361061007f5763ffffffff60e060020a60003504166335f7f5e281146100845780634927f2e7146100b25780636e285544146100d357806398d5fdca146100e9578063ad3ef3ab14610116578063cb99c15714610135578063d545290114610148578063f7d9757714610167578063ff1b636d14610180575b600080fd5b341561008f57600080fd5b61009a6004356101af565b60405191825260208201526040908101905180910390f35b34156100bd57600080fd5b6100d1600160a060020a03600435166102d9565b005b34156100de57600080fd5b61009a600435610324565b34156100f457600080fd5b6100fc610457565b604051918252151560208201526040908101905180910390f35b341561012157600080fd5b6100d1600160a060020a036004351661047c565b341561014057600080fd5b6100d161048e565b341561015357600080fd5b6100d1600160a060020a0360043516610692565b341561017257600080fd5b6100d16004356024356106a4565b341561018b57600080fd5b6101936106ca565b604051600160a060020a03909116815260200160405180910390f35b600080600b5490508273__TransactLib___________________________63bc2e368c909160065460006040516020015260405160e060020a63ffffffff85160281526004810192909252602482015260440160206040518083038186803b151561021957600080fd5b6102c65a03f4151561022a57600080fd5b50505060405180519050915060065473__TransactLib___________________________639e5fd0a99091843060006040516020015260405160e060020a63ffffffff861602815260048101939093526024830191909152600160a060020a0316604482015260640160206040518083038186803b15156102aa57600080fd5b6102c65a03f415156102bb57600080fd5b50505060405180516006555060038054838302900390559092909150565b60088054600181016102eb83826106d9565b506000918252602090912001805473ffffffffffffffffffffffffffffffffffffffff1916600160a060020a0392909216919091179055565b600080600a5490508273__TransactLib___________________________63bc2e368c909160055460006040516020015260405160e060020a63ffffffff85160281526004810192909252602482015260440160206040518083038186803b151561038e57600080fd5b6102c65a03f4151561039f57600080fd5b505050604051805160058054829003905560035490935073__TransactLib___________________________915063e2992d2990838502333060006040516020015260405160e060020a63ffffffff871602815260048101949094526024840192909252600160a060020a03908116604484015216606482015260840160206040518083038186803b151561043357600080fd5b6102c65a03f4151561044457600080fd5b5050506040518051600355509092909150565b600a54600454600c54600091429101101561047457506000610478565b5060015b9091565b60078054600181016102eb83826106d9565b6000808080808080805b6009548110156106885760098054829081106104b057fe5b6000918252602082200154600160a060020a03169063cf7fc76290604051608001526040518163ffffffff1660e060020a028152600401608060405180830381600087803b151561050057600080fd5b6102c65a03f1151561051157600080fd5b5050506040518051906020018051906020018051906020018051939b509199509750909550859050801561054457508715155b1561068057600980548290811061055757fe5b6000918252602082200154600554600160a060020a0390911693508391630ff3728291906040516020015260405160e060020a63ffffffff84160281526004810191909152602401602060405180830381600087803b15156105b857600080fd5b6102c65a03f115156105c957600080fd5b5050506040518051600580548290039055600a546003549196508602945073__TransactLib___________________________915063e2992d299085853060006040516020015260405160e060020a63ffffffff871602815260048101949094526024840192909252600160a060020a03908116604484015216606482015260840160206040518083038186803b151561066257600080fd5b6102c65a03f4151561067357600080fd5b5050506040518051600355505b600101610498565b5050505050505050565b60098054600181016102eb83826106d9565b60015433600160a060020a039081169116141561007f57600a91909155600b5542600c55565b600054600160a060020a031681565b8154818355818115116106fd576000838152602090206106fd918101908301610702565b505050565b61072091905b8082111561071c5760008155600101610708565b5090565b905600a165627a7a723058201c16f300d423c057c42c21db167d15d6fb84bff48f8c9043e145ef05441aa05e0029606060405260038054600160a060020a031916905561012c6004819055600555341561002a57600080fd5b6040516020806112d78339810160405280805160018054600160a060020a03928316600160a060020a03199182161790915560008054339093169290911691909117905550506112588061007f6000396000f3006060604052600436106100c15763ffffffff60e060020a6000350416630a71db5e81146100c657806313299604146100e75780633d7224dc1461010c5780633fd2007d1461011f578063567cc2b61461014d57806366b294431461016357806367a2829d1461019d5780638ad5366f146101b05780638d646b11146101cf5780638e4dfebb146101ee57806391b7f5ed1461020157806398d5fdca14610217578063d5adad5414610244578063fba3016714610297578063ff1b636d146102aa575b600080fd5b34156100d157600080fd5b6100e5600160a060020a03600435166102d9565b005b34156100f257600080fd5b6100fa610395565b60405190815260200160405180910390f35b341561011757600080fd5b6100e561039c565b341561012a57600080fd5b61013560043561078f565b60405191825260208201526040908101905180910390f35b341561015857600080fd5b6100e5600435610acc565b341561016e57600080fd5b610179600435610b5b565b60405180848152602001838152602001828152602001935050505060405180910390f35b34156101a857600080fd5b6100e5610bd0565b34156101bb57600080fd5b6100e5600160a060020a0360043516610e78565b34156101da57600080fd5b6100e5600160a060020a0360043516610f35565b34156101f957600080fd5b610135610f6c565b341561020c57600080fd5b6100e5600435610f76565b341561022257600080fd5b61022a610fd0565b604051918252151560208201526040908101905180910390f35b341561024f57600080fd5b61025a600435610ff5565b6040518085600160a060020a0316600160a060020a0316815260200184815260200183815260200182815260200194505050505060405180910390f35b34156102a257600080fd5b6100e561102f565b34156102b557600080fd5b6102bd611135565b604051600160a060020a03909116815260200160405180910390f35b60005433600160a060020a03908116911614156100c157600b8054600181016103028382611197565b5060009182526020909120018054600160a060020a031916600160a060020a0383161790557f34ff05936c7ffe85555df53a7bf1374ed025703c493a74c4ce3316646f950e1642604051602081019190915260408082526012818301527f486f757365206c696e6b656420746f205056000000000000000000000000000060608301526080909101905180910390a15b50565b6006545b90565b600c54600b5460009182918291829182918291016103bb600d826111bb565b50600090505b600b5481101561059757600b8054829081106103d957fe5b6000918252602082200154600160a060020a0316906338a3528c90604051608001526040518163ffffffff1660e060020a028152600401608060405180830381600087803b151561042957600080fd5b6102c65a03f1151561043a57600080fd5b5050506040518051906020018051906020018051906020018051939950919750955090935050821561058f576060604051908101604052808781526020018681526020018581525060106000600b8481548110151561049557fe5b6000918252602080832090910154600160a060020a03168352820192909252604001902081518155602082015181600101556040820151816002015590505060106000600b838154811015156104e757fe5b6000918252602080832090910154600160a060020a031683528201929092526040019020600d80548490811061051957fe5b60009182526020909120825460039092020190815560018083015490820155600291820154910155600b80548290811061054f57fe5b6000918252602080832090910154848352601190915260409091208054600160a060020a031916600160a060020a03909216919091179055600191909101905b6001016103c1565b5060005b600c5481101561077157600c8054829081106105b357fe5b6000918252602082200154600160a060020a03169063cf7fc76290604051608001526040518163ffffffff1660e060020a028152600401608060405180830381600087803b151561060357600080fd5b6102c65a03f1151561061457600080fd5b50505060405180519060200180519060200180519060200180519399509197509550909350508215610769576060604051908101604052808781526020018681526020018581525060106000600c8481548110151561066f57fe5b6000918252602080832090910154600160a060020a03168352820192909252604001902081518155602082015181600101556040820151816002015590505060106000600c838154811015156106c157fe5b6000918252602080832090910154600160a060020a031683528201929092526040019020600d8054849081106106f357fe5b60009182526020909120825460039092020190815560018083015490820155600291820154910155600c80548290811061072957fe5b6000918252602080832090910154848352601190915260409091208054600160a060020a031916600160a060020a03909216919091179055600191909101905b60010161059b565b600e82905581610782600d826111bb565b505042600f555050505050565b600081815260116020908152604080832054600754600160a060020a039091168085526010909352818420548493849390928492839273__TransactLib___________________________9263bc2e368c9290918590516020015260405160e060020a63ffffffff85160281526004810192909252602482015260440160206040518083038186803b151561082357600080fd5b6102c65a03f4151561083457600080fd5b5050506040518051945073__AdrLib________________________________90506354859436600c8560006040516020015260405160e060020a63ffffffff85160281526004810192909252600160a060020a0316602482015260440160206040518083038186803b15156108a857600080fd5b6102c65a03f415156108b957600080fd5b50505060405180519050156109e35782600160a060020a0316630ff372828560006040516020015260405160e060020a63ffffffff84160281526004810191909152602401602060405180830381600087803b151561091757600080fd5b6102c65a03f1151561092857600080fd5b50505060405180516007805482900390556009546006549194508402925073__TransactLib___________________________915063e2992d299083863060006040516020015260405160e060020a63ffffffff871602815260048101949094526024840192909252600160a060020a03908116604484015216606482015260840160206040518083038186803b15156109c157600080fd5b6102c65a03f415156109d257600080fd5b505050604051805160065550610abf565b73__AdrLib________________________________6354859436600b8560006040516020015260405160e060020a63ffffffff85160281526004810192909252600160a060020a0316602482015260440160206040518083038186803b1515610a4b57600080fd5b6102c65a03f41515610a5c57600080fd5b5050506040518051905015610aba5782600160a060020a0316630ff372828560006040516020015260405160e060020a63ffffffff84160281526004810191909152602401602060405180830381600087803b151561091757600080fd5b600091505b5091959194509092505050565b60015433600160a060020a03908116911614156100c15760078190554260088190556001547fdf963fee409850630585bd095a505a9a956ef373cd706eb6eddec02d0a36731991600160a060020a039091169083906040518084600160a060020a0316600160a060020a03168152602001838152602001828152602001935050505060405180910390a1610392565b6000806000600d84815481101515610b6f57fe5b9060005260206000209060030201600001549250600d84815481101515610b9257fe5b9060005260206000209060030201600101549150600d84815481101515610bb557fe5b90600052602060002090600302016002015490509193909250565b6000806000806000806007541115610e7157600c5415610d40575060005b600c54811015610d3b57600c805482908110610c0657fe5b6000918252602082200154600754600160a060020a03909116935083916335f7f5e291906040516040015260405160e060020a63ffffffff841602815260048101919091526024016040805180830381600087803b1515610c6657600080fd5b6102c65a03f11515610c7757600080fd5b50505060405180519060200180516007805484900390556006549297508781029650945073__TransactLib___________________________9163e2992d29915086853060006040516020015260405160e060020a63ffffffff871602815260048101949094526024840192909252600160a060020a03908116604484015216606482015260840160206040518083038186803b1515610d1657600080fd5b6102c65a03f41515610d2757600080fd5b505050604051805160065550600101610bee565b610e71565b600354600754600160a060020a03909116906335f7f5e29060006040516040015260405160e060020a63ffffffff841602815260048101919091526024016040805180830381600087803b1515610d9657600080fd5b6102c65a03f11515610da757600080fd5b5050506040518051906020018051600780548490039055600654600354939850888202975090955073__TransactLib___________________________9263e2992d2992508790600160a060020a03163060006040516020015260405160e060020a63ffffffff871602815260048101949094526024840192909252600160a060020a03908116604484015216606482015260840160206040518083038186803b1515610e5357600080fd5b6102c65a03f41515610e6457600080fd5b5050506040518051600655505b5050505050565b60005433600160a060020a03908116911614156100c157600c805460018101610ea18382611197565b5060009182526020909120018054600160a060020a031916600160a060020a0383161790557f34ff05936c7ffe85555df53a7bf1374ed025703c493a74c4ce3316646f950e1642604051602081019190915260408082526014818301527f42617474657279206c696e6b656420746f20505600000000000000000000000060608301526080909101905180910390a1610392565b60005433600160a060020a03908116911614156100c15760038054600160a060020a031916600160a060020a038316179055610392565b6007546008549091565b60015433600160a060020a03908116911614156100c157600981905542600a8190557fae46785019700e30375a5d7b4f91e32f8060ef085111f896ebf889450aa2ab5a9060405190815260200160405180910390a1610392565b600954600554600a546000914291011015610fed57506000610ff1565b5060015b9091565b600090815260116020908152604080832054600160a060020a03168084526010909252909120805460018201546002909201549293909290565b6000805b600e548110156111315773__SortRLib______________________________63f37de025600d60006040516020015260405160e060020a63ffffffff8416028152600481019190915260240160206040518083038186803b151561109657600080fd5b6102c65a03f415156110a757600080fd5b5050506040518051905091506110bf81838301611144565b73__SortRLib______________________________63b5762770600d8460405160e060020a63ffffffff85160281526004810192909252602482015260440160006040518083038186803b151561111557600080fd5b6102c65a03f4151561112657600080fd5b505050600101611033565b5050565b600054600160a060020a031681565b600082821461119257506000828152601160205260408082208054848452919092208054600160a060020a0319808416600160a060020a039283161790945581549093169290911691821790555b505050565b815481835581811511611192576000838152602090206111929181019083016111e7565b815481835581811511611192576003028160030283600052602060002091820191016111929190611205565b61039991905b8082111561120157600081556001016111ed565b5090565b61039991905b8082111561120157600080825560018201819055600282015560030161120b5600a165627a7a72305820f41a8cc30ac8c871b20c1be38220a4eaa90387f1e8b958ae1f3a333873e44e8d0029606060405260048054600160a060020a031916905561012c6008819055600b55341561002a57600080fd5b604051604080611721833981016040528080519190602001805160018054600160a060020a03958616600160a060020a0319918216179091556000805433909616959091169490941790935550506005556116978061008a6000396000f3006060604052600436106100f85763ffffffff60e060020a6000350416630a71db5e81146100fd5780630e00c3161461011e5780630ff37282146101555780632fbc0bf11461017d57806335f7f5e2146101aa5780633d7224dc146101d85780633fd2007d146101eb57806341977cf5146102015780634559dcdc146102205780636a95841b1461023657806379c19df01461024c5780638cdc86a61461025f5780638d646b1114610272578063b148f82b14610291578063c9746029146102b0578063cf7fc762146102c3578063d5adad5414610302578063f7d9757714610355578063fba301671461036e578063ff1b636d14610381575b600080fd5b341561010857600080fd5b61011c600160a060020a03600435166103b0565b005b341561012957600080fd5b61013161046c565b60405180848152602001838152602001828152602001935050505060405180910390f35b341561016057600080fd5b61016b60043561047c565b60405190815260200160405180910390f35b341561018857600080fd5b61019061066d565b604051918252151560208201526040908101905180910390f35b34156101b557600080fd5b6101c0600435610692565b60405191825260208201526040908101905180910390f35b34156101e357600080fd5b61011c6107c0565b34156101f657600080fd5b6101c06004356109d3565b341561020c57600080fd5b61011c600160a060020a0360043516610c39565b341561022b57600080fd5b61011c600435610cf6565b341561024157600080fd5b61011c600435610d85565b341561025757600080fd5b61016b610db9565b341561026a57600080fd5b61011c610dc0565b341561027d57600080fd5b61011c600160a060020a0360043516610ef9565b341561029c57600080fd5b61016b600160a060020a0360043516610f30565b34156102bb57600080fd5b61011c610fa6565b34156102ce57600080fd5b6102d6611188565b604051938452602084019290925260408084019190915290151560608301526080909101905180910390f35b341561030d57600080fd5b6103186004356111e3565b6040518085600160a060020a0316600160a060020a0316815260200184815260200183815260200182815260200194505050505060405180910390f35b341561036057600080fd5b61011c60043560243561121d565b341561037957600080fd5b61011c61127c565b341561038c57600080fd5b61039461137e565b604051600160a060020a03909116815260200160405180910390f35b60005433600160a060020a03908116911614156100f857600e8054600181016103d98382611584565b5060009182526020909120018054600160a060020a031916600160a060020a0383161790557f34ff05936c7ffe85555df53a7bf1374ed025703c493a74c4ce3316646f950e1642604051602081019190915260408082526017818301527f486f757365206c696e6b656420746f204261747465727900000000000000000060608301526080909101905180910390a15b50565b6006546009546005549192909190565b6000338173__AdrLib________________________________6354859436600f84846040516020015260405160e060020a63ffffffff85160281526004810192909252600160a060020a0316602482015260440160206040518083038186803b15156104e757600080fd5b6102c65a03f415156104f857600080fd5b505050604051805190508061051a5750600454600160a060020a038381169116145b151561052557600080fd5b60075473__TransactLib___________________________63bc2e368c90918660006040516020015260405160e060020a63ffffffff85160281526004810192909252602482015260440160206040518083038186803b151561058757600080fd5b6102c65a03f4151561059857600080fd5b5050506040518051600680548201905560075490925073__TransactLib___________________________9150639e5fd0a990833060006040516020015260405160e060020a63ffffffff861602815260048101939093526024830191909152600160a060020a0316604482015260640160206040518083038186803b151561062057600080fd5b6102c65a03f4151561063157600080fd5b505050604051805160075550600160a060020a0382166000908152601260205260409020546003805491830290910390559150815b5050919050565b600c54600b54600a54600091429101101561068a5750600061068e565b5060015b9091565b600080600d5490508273__TransactLib___________________________63bc2e368c90916006546005540360006040516020015260405160e060020a63ffffffff85160281526004810192909252602482015260440160206040518083038186803b151561070057600080fd5b6102c65a03f4151561071157600080fd5b50505060405180519050915060065473__TransactLib___________________________63994459079091843060006040516020015260405160e060020a63ffffffff861602815260048101939093526024830191909152600160a060020a0316604482015260640160206040518083038186803b151561079157600080fd5b6102c65a03f415156107a257600080fd5b50505060405180516006555060038054838302900390559092909150565b600080600080600080600e805490506014816107dc91906115a8565b50600090505b600e548110156109b857600e8054829081106107fa57fe5b6000918252602082200154600160a060020a0316906338a3528c90604051608001526040518163ffffffff1660e060020a028152600401608060405180830381600087803b151561084a57600080fd5b6102c65a03f1151561085b57600080fd5b505050604051805190602001805190602001805190602001805193995091975095509093505082156109b0576060604051908101604052808781526020018681526020018581525060176000600e848154811015156108b657fe5b6000918252602080832090910154600160a060020a03168352820192909252604001902081518155602082015181600101556040820151816002015590505060176000600e8381548110151561090857fe5b6000918252602080832090910154600160a060020a031683528201929092526040019020601480548490811061093a57fe5b60009182526020909120825460039092020190815560018083015490820155600291820154910155600e80548290811061097057fe5b6000918252602080832090910154848352601890915260409091208054600160a060020a031916600160a060020a03909216919091179055600191909101905b6001016107e2565b816109c46014826115a8565b50506016555050426015555050565b600081815260186020908152604080832054600654600160a060020a039091168085526017909352818420548493849390928492839273__TransactLib___________________________9263bc2e368c9290918590516020015260405160e060020a63ffffffff85160281526004810192909252602482015260440160206040518083038186803b1515610a6757600080fd5b6102c65a03f41515610a7857600080fd5b5050506040518051945073__AdrLib________________________________90506354859436600e8560006040516020015260405160e060020a63ffffffff85160281526004810192909252600160a060020a0316602482015260440160206040518083038186803b1515610aec57600080fd5b6102c65a03f41515610afd57600080fd5b5050506040518051905015610c275782600160a060020a0316630ff372828560006040516020015260405160e060020a63ffffffff84160281526004810191909152602401602060405180830381600087803b1515610b5b57600080fd5b6102c65a03f11515610b6c57600080fd5b5050506040518051600680548290039055600c546003549194508402925073__TransactLib___________________________915063e2992d299083863060006040516020015260405160e060020a63ffffffff871602815260048101949094526024840192909252600160a060020a03908116604484015216606482015260840160206040518083038186803b1515610c0557600080fd5b6102c65a03f41515610c1657600080fd5b505050604051805160035550610c2c565b600091505b5091959194509092505050565b60005433600160a060020a03908116911614156100f857600f805460018101610c628382611584565b5060009182526020909120018054600160a060020a031916600160a060020a0383161790557f34ff05936c7ffe85555df53a7bf1374ed025703c493a74c4ce3316646f950e1642604051602081019190915260408082526014818301527f5056206c696e6b656420746f204261747465727900000000000000000000000060608301526080909101905180910390a1610469565b60015433600160a060020a03908116911614156100f85760068190554260098190556001547fa8533a3e28bf00cd05018ed80847d3d6f170da084f6417da50798db7335ff9a091600160a060020a039091169083906040518084600160a060020a0316600160a060020a03168152602001838152602001828152602001935050505060405180910390a1610469565b60015433600160a060020a03908116911614156100f85760055460065482011115610daf57600080fd5b6007819055610469565b6007545b90565b6000806000610dcd61138d565b600454600160a060020a031615610deb57600f546001019150610df1565b600f5491505b5060005b81811015610ef45773__SortLib_______________________________63f27da568601060006040516020015260405160e060020a63ffffffff8416028152600481019190915260240160206040518083038186803b1515610e5657600080fd5b6102c65a03f41515610e6757600080fd5b505050604051805190509250610e8281600184030384611537565b73__SortLib_______________________________6343168c1b60108560405160e060020a63ffffffff85160281526004810192909252602482015260440160006040518083038186803b1515610ed857600080fd5b6102c65a03f41515610ee957600080fd5b505050600101610df5565b505050565b60005433600160a060020a03908116911614156100f85760048054600160a060020a031916600160a060020a038316179055610469565b60045460009081908190600160a060020a031615610f5557600f546001019150610f5b565b600f5491505b5060005b81811015610f9c57600081815260136020526040902054600160a060020a0385811691161415610f9457806001019250610666565b600101610f5f565b5060009392505050565b600080805b600f548110156110ae57600f805482908110610fc357fe5b6000918252602082200154600160a060020a0316906398d5fdca90604051604001526040518163ffffffff1660e060020a0281526004016040805180830381600087803b151561101257600080fd5b6102c65a03f1151561102357600080fd5b50505060405180519060200180519194509092506040905080519081016040528381528215156020820152600f80546012916000918590811061106257fe5b6000918252602080832090910154600160a060020a0316835282019290925260400190208151815560208201516001918201805460ff1916911515919091179055919091019050610fab565b600454600160a060020a03161561117f57600454600160a060020a03166398d5fdca6000604051604001526040518163ffffffff1660e060020a0281526004016040805180830381600087803b151561110657600080fd5b6102c65a03f1151561111757600080fd5b50505060405180519060200180519194509092506040905080519081016040908152848252831515602080840191909152600454600160a060020a03166000908152601290915220815181556020820151600191909101805460ff1916911515919091179055505b50504260115550565b600754600080803361119981610f30565b600454909450600160a060020a0316156111ba57600f5460010192506111c0565b600f5492505b42600b546011540110156111d757600091506111dc565b600191505b5090919293565b600090815260186020908152604080832054600160a060020a03168084526017909252909120805460018201546002909201549293909290565b60015433600160a060020a03908116911614156100f857600c829055600d81905542600a8190557fae46785019700e30375a5d7b4f91e32f8060ef085111f896ebf889450aa2ab5a9060405190815260200160405180910390a15b5050565b6000805b6016548110156112785773__SortRLib______________________________63f37de025601460006040516020015260405160e060020a63ffffffff8416028152600481019190915260240160206040518083038186803b15156112e357600080fd5b6102c65a03f415156112f457600080fd5b50505060405180519050915061130c81838301611537565b73__SortRLib______________________________63b576277060148460405160e060020a63ffffffff85160281526004810192909252602482015260440160006040518083038186803b151561136257600080fd5b6102c65a03f4151561137357600080fd5b505050600101611280565b600054600160a060020a031681565b600454600090600160a060020a0316156113b857600f546001016113b26010826115d4565b506113c8565b600f546113c66010826115d4565b505b5060005b600f548110156114995760126000600f838154811015156113e957fe5b6000918252602080832090910154600160a060020a031683528201929092526040019020601080548390811061141b57fe5b6000918252602090912082546002909202019081556001918201549101805460ff191660ff9092161515919091179055600f80548290811061145957fe5b6000918252602080832090910154838352601390915260409091208054600160a060020a031916600160a060020a039092169190911790556001016113cc565b50600f545b60105481101561046957600454600160a060020a0316600090815260126020526040902060108054839081106114d057fe5b600091825260208083208454600290930201918255600193840154918401805460ff909316151560ff1990931692909217909155600454848352601390915260409091208054600160a060020a031916600160a060020a039092169190911790550161149e565b6000828214610ef45750600091825260136020526040808320805492845292208054600160a060020a03908116600160a060020a0319808516919091179094558154921691909216179055565b815481835581811511610ef457600083815260209020610ef4918101908301611600565b815481835581811511610ef457600302816003028360005260206000209182019101610ef4919061161e565b815481835581811511610ef457600202816002028360005260206000209182019101610ef49190611645565b610dbd91905b8082111561161a5760008155600101611606565b5090565b610dbd91905b8082111561161a576000808255600182018190556002820155600301611624565b610dbd91905b8082111561161a576000815560018101805460ff1916905560020161164b5600a165627a7a723058203d12ddd4cda075f46106b22bb1ca7b201d26b2bc0dd16825ba7e0fda04c09cd00029606060405260038054600160a060020a031916905561012c600455341561002557600080fd5b6040516020806111468339810160405280805160018054600160a060020a03928316600160a060020a03199182161790915560008054339093169290911691909117905550506110cc8061007a6000396000f3006060604052600436106100c15763ffffffff60e060020a6000350416630ff3728281146100c657806313299604146100ee5780631628ce6c1461010157806338a3528c1461014c5780633acca96d1461015f57806341977cf5146101745780635a500ecc146101935780638a5cb1b6146101a95780638ad5366f146101d45780638b874f72146101f35780638d646b1114610206578063b148f82b14610225578063c974602914610244578063e7e2741014610257578063ff1b636d14610289575b600080fd5b34156100d157600080fd5b6100dc60043561029c565b60405190815260200160405180910390f35b34156100f957600080fd5b6100dc6104f4565b341561010c57600080fd5b610120600160a060020a03600435166104fb565b604051938452602084019290925260408084019190915290151560608301526080909101905180910390f35b341561015757600080fd5b61012061055b565b341561016a57600080fd5b610172610578565b005b341561017f57600080fd5b610172600160a060020a03600435166106c3565b341561019e57600080fd5b61017260043561077f565b34156101b457600080fd5b6101bc61080e565b60405191825260208201526040908101905180910390f35b34156101df57600080fd5b610172600160a060020a036004351661082f565b34156101fe57600080fd5b6101726108ec565b341561021157600080fd5b610172600160a060020a0360043516610b19565b341561023057600080fd5b6100dc600160a060020a0360043516610b50565b341561024f57600080fd5b610172610ba5565b341561026257600080fd5b61026d600435610dbd565b604051600160a060020a03909116815260200160405180910390f35b341561029457600080fd5b61026d610de9565b6000338173__AdrLib________________________________6354859436600984846040516020015260405160e060020a63ffffffff85160281526004810192909252600160a060020a0316602482015260440160206040518083038186803b151561030757600080fd5b6102c65a03f4151561031857600080fd5b50505060405180519050806103ac575073__AdrLib________________________________635485943660088460006040516020015260405160e060020a63ffffffff85160281526004810192909252600160a060020a0316602482015260440160206040518083038186803b151561039057600080fd5b6102c65a03f415156103a157600080fd5b505050604051805190505b15156103b757600080fd5b60055473__TransactLib___________________________63bc2e368c90918660006040516020015260405160e060020a63ffffffff85160281526004810192909252602482015260440160206040518083038186803b151561041957600080fd5b6102c65a03f4151561042a57600080fd5b50505060405180519050905060055473__TransactLib___________________________639e5fd0a99091833060006040516020015260405160e060020a63ffffffff861602815260048101939093526024830191909152600160a060020a0316604482015260640160206040518083038186803b15156104aa57600080fd5b6102c65a03f415156104bb57600080fd5b505050604051805160055550600160a060020a0382166000908152600c6020526040902054600680549183029091039055915050919050565b6006545b90565b6005546000808061050b85610b50565b600354909350600160a060020a0316156105305760095460085401600101915061053a565b6009546008540191505b42600454600b5401101561055057506000610554565b5060015b9193509193565b60008060008061056a336104fb565b935093509350935090919293565b60035460009081908190600160a060020a0316151561059657600080fd5b600060055411156106be57600354600554600160a060020a0390911690636e2855449060006040516040015260405160e060020a63ffffffff841602815260048101919091526024016040805180830381600087803b15156105f757600080fd5b6102c65a03f1151561060857600080fd5b5050506040518051906020018051600554929550925073__TransactLib___________________________91639e5fd0a99150853060006040516020015260405160e060020a63ffffffff861602815260048101939093526024830191909152600160a060020a0316604482015260640160206040518083038186803b151561069057600080fd5b6102c65a03f415156106a157600080fd5b505050604051805160055550600680548483029081900390915591505b505050565b60005433600160a060020a03908116911614156100c15760088054600181016106ec838261100c565b5060009182526020909120018054600160a060020a031916600160a060020a0383161790557f34ff05936c7ffe85555df53a7bf1374ed025703c493a74c4ce3316646f950e1642604051602081019190915260408082526012818301527f5056206c696e6b656420746f20486f757365000000000000000000000000000060608301526080909101905180910390a15b50565b60015433600160a060020a03908116911614156100c15760058190554260078190556001547f93e0cabaa551645c58979b9f1e87af3e09f708241c9bdd6468e581ad0651692691600160a060020a039091169083906040518084600160a060020a0316600160a060020a03168152602001838152602001828152602001935050505060405180910390a161077c565b60008060045480600754014210156100c15760055492506007549150509091565b60005433600160a060020a03908116911614156100c1576009805460018101610858838261100c565b5060009182526020909120018054600160a060020a031916600160a060020a0383161790557f34ff05936c7ffe85555df53a7bf1374ed025703c493a74c4ce3316646f950e1642604051602081019190915260408082526017818301527f42617474657279206c696e6b656420746f20486f75736500000000000000000060608301526080909101905180910390a161077c565b60008060008060006108fc610df8565b600954600854019350600092505b83831015610a0c5773__SortLib_______________________________63f27da568600a60006040516020015260405160e060020a63ffffffff8416028152600481019190915260240160206040518083038186803b151561096b57600080fd5b6102c65a03f4151561097c57600080fd5b50505060405180519050945061099783600186030386610fbf565b73__SortLib_______________________________6343168c1b600a8760405160e060020a63ffffffff85160281526004810192909252602482015260440160006040518083038186803b15156109ed57600080fd5b6102c65a03f415156109fe57600080fd5b50506001909301925061090a565b600354600160a060020a031615610b125750506003546000908190600160a060020a03166398d5fdca82604051604001526040518163ffffffff1660e060020a0281526004016040805180830381600087803b1515610a6a57600080fd5b6102c65a03f11515610a7b57600080fd5b50505060405180519060200180519193509091506040905080519081016040908152838252821515602080840191909152600354600160a060020a03166000908152600c909152208151815560208201516001909101805491151560ff19909216919091179055506003546000858152600d602052604090208054600160a060020a031916600160a060020a039092169190911790555b5050505050565b60005433600160a060020a03908116911614156100c15760038054600160a060020a031916600160a060020a03831617905561077c565b6000805b60095460085401600101811015610b9a576000818152600d6020526040902054600160a060020a0384811691161415610b9257806001019150610b9f565b600101610b54565b600091505b50919050565b600080805b600854811015610cad576008805482908110610bc257fe5b6000918252602082200154600160a060020a0316906398d5fdca90604051604001526040518163ffffffff1660e060020a0281526004016040805180830381600087803b1515610c1157600080fd5b6102c65a03f11515610c2257600080fd5b5050506040518051906020018051919450909250604090508051908101604052838152821515602082015260088054600c9160009185908110610c6157fe5b6000918252602080832090910154600160a060020a0316835282019290925260400190208151815560208201516001918201805460ff1916911515919091179055919091019050610baa565b5060005b600954811015610db4576009805482908110610cc957fe5b6000918252602082200154600160a060020a031690632fbc0bf190604051604001526040518163ffffffff1660e060020a0281526004016040805180830381600087803b1515610d1857600080fd5b6102c65a03f11515610d2957600080fd5b5050506040518051906020018051919450909250604090508051908101604052838152821515602082015260098054600c9160009185908110610d6857fe5b6000918252602080832090910154600160a060020a0316835282019290925260400190208151815560208201516001918201805460ff1916911515919091179055919091019050610cb1565b505042600b5550565b6000600882815481101515610dce57fe5b600091825260209091200154600160a060020a031692915050565b600054600160a060020a031681565b60095460085460009101610e0d600a82611030565b50600090505b600854811015610ee057600c6000600883815481101515610e3057fe5b6000918252602080832090910154600160a060020a031683528201929092526040019020600a805483908110610e6257fe5b6000918252602090912082546002909202019081556001918201549101805460ff191660ff90921615159190911790556008805482908110610ea057fe5b6000918252602080832090910154838352600d90915260409091208054600160a060020a031916600160a060020a03909216919091179055600101610e13565b506008545b600a5481101561077c57600c600060096008805490508403815481101515610f0957fe5b6000918252602080832090910154600160a060020a031683528201929092526040019020600a805483908110610f3b57fe5b6000918252602090912082546002909202019081556001918201549101805460ff191660ff90921615159190911790556008546009805490918303908110610f7f57fe5b6000918252602080832090910154838352600d90915260409091208054600160a060020a031916600160a060020a03909216919091179055600101610ee5565b60008282146106be57506000918252600d6020526040808320805492845292208054600160a060020a03908116600160a060020a0319808516919091179094558154921691909216179055565b8154818355818115116106be576000838152602090206106be91810190830161105c565b8154818355818115116106be576002028160020283600052602060002091820191016106be919061107a565b6104f891905b808211156110765760008155600101611062565b5090565b6104f891905b80821115611076576000815560018101805460ff191690556002016110805600a165627a7a7230582011f4a5ba5b8cc6ac5152020a72ceaaa6a3ee15e3c1d2fc2557a0a71c36b2df040029a165627a7a72305820e9dd3cb0cec671c681031a64cb74032238064d831ca264d243d92fa632d164310029",
  "source": "pragma solidity ^0.4.4;\n\nimport \"./SingleHouse.sol\";\nimport \"./SinglePV.sol\";\nimport \"./SingleBattery.sol\";\nimport \"./Grid.sol\";\n\ncontract Configuration {\n\n  address public admin = msg.sender; // only the admin node can modify the configuration...\n  uint public statusAt; // timestamp of the creation of Configuration instance\n  uint8 public numHouseTotal;       // number of houses in the system\n  uint8 public numPVTotal;          // number of PVs in the system\n  uint8 public numBatteryTotal;     // number of batteries in the system\n  address private gridAdr;          // store the address of grid...(address of the transformer that links to the grid... not the contract address)\n  uint8 private numHouseCurrent = 0;    // current houses in the system\n  uint8 private numPVCurrent = 0;       // current PVs in the system\n  uint8 private numBatteryCurrent = 0;    // current batteries in the system\n\n  // Several types of devices in the system\n  struct House {\n    address Address;          // address of the contract\n    uint    statusAt;         // timestamp of the update\n    mapping(address=>PVpannel) connectedPV;       // List of PV connected\n    mapping(address=>Battery) connectedBattery;   // List of batteries connected\n  }\n\n  struct PVpannel {\n    address Address;          // address of the contract\n    uint    statusAt;         // creation time\n    address[] connectedHouse; // List of households connected\n    address[] connectedBattery;// List of batteries connected\n  }\n\n  struct Battery {\n    address Address;          // address of the contract\n    uint    statusAt;         // creation time\n    address[] connectedHouse; // List of households connected\n    address[] connectedPV;// List of PV connected\n  }\n\n  event LogConfig(uint numHouses, uint numPV, uint numBattery, uint statusat);\n  event LogDevice(address deviceAdr);\n  event LogConnection(address device1, address device2);\n\n\n  mapping(address=>House) Houses;       \n  mapping(address=>PVpannel) PVs;\n  mapping(address=>Battery) Batteries;\n\n  //mapping(address=>address) mHouse;     // IP address of the owner (or device... this makes more sense? or just an identifier of the physical device) -> address of the contract\n  //mapping(address=>address) mPV;        // Or... mapping(bytes32=>address).... where the bytes32 is a hashed indentifier of the device serie number / address of house...\n  //mapping(address=>address) mBattery;\n\n  mapping(address=>address) contractList;   // now putting all the linkage to real contract address into this mapping\n\n  // Restricts execution by admin only\n  modifier adminOnly {\n    if(msg.sender == admin){\n      _;\n    } else {\n    // For now, the request will be rejected.\n    // Later, we should add the approval mechanism, such that each user can add their device to the network and let admin to approve it. \n      revert();\n    }\n  }\n\n  function Configuration(uint8 numHouse, uint8 numPV, uint8 numBattery) adminOnly {\n      // constructor\n      numHouseTotal = numHouse;\n      numPVTotal = numPV;\n      numBatteryTotal = numBattery;\n      statusAt = now;\n      // create the grid contract\n      LogConfig(numHouseTotal,numPVTotal,numBatteryTotal,statusAt);\n  }\n\n  function addGrid(address adr) adminOnly {\n      contractList[adr] = new Grid(adr);\n      gridAdr = address(contractList[adr]);\n  }\n\n  function addHouse(address adr, bool g) adminOnly {\n      require(numHouseCurrent < numHouseTotal);// \"Error: House number maximun. Cannot add more houses.\"\n      //mHouse[adr] = new SingleHouse(adr);   // create a SingleHouse contract and store it on the mHouse mapping\n      contractList[adr] = new SingleHouse(adr);\n      // creates a minimature (Struct House) that also stores the address and connection information, which is a private attribute in the Configuration.sol\n      House memory tempHouse;\n      //tempHouse.Address = address(mHouse[adr]);\n      tempHouse.Address = address(contractList[adr]);\n      tempHouse.statusAt = now;\n      Houses[adr] = tempHouse;\n      if (g) {\n          SingleHouse(contractList[adr]).setGridAdr(gridAdr);\n          Grid(gridAdr).addH(contractList[adr]);\n      }\n      numHouseCurrent++;\n      LogDevice(adr);\n  }\n\n    function getContractAddress(address adr) adminOnly returns(address) {\n      return address(contractList[adr]);\n    }\n\n    function addPV(address adr, bool g) adminOnly {\n        require(numPVCurrent < numPVTotal); //\"Error: House number maximun. Cannot add more houses.\"\n        //mPV[adr] = new SinglePV(adr);     // create a SingleHouse contract and store it on the mHouse mapping\n        contractList[adr] = new SinglePV(adr);\n        // creates a minimature (Struct PV) that also stores the address and connection information, which is a private attribute in the Configuration.sol\n        PVpannel memory tempPV;\n        //tempPV.Address = address(mPV[adr]);\n        tempPV.Address = address(contractList[adr]);\n        tempPV.statusAt = now;\n        PVs[adr] = tempPV;\n        if (g) {\n            SinglePV(contractList[adr]).setGridAdr(gridAdr);\n            Grid(gridAdr).addPV(contractList[adr]);\n        }\n        numPVCurrent++;\n         LogDevice(adr);\n  }\n  \n  function addBattery(address adr, uint capacity, bool g) adminOnly {\n      require(numBatteryCurrent < numBatteryTotal); // \"Error: Battery number maximun. Cannot add more Batteries.\"\n      //mBattery[adr] = new SingleBattery(adr, capacity);\n      contractList[adr] = new SingleBattery(adr, capacity);\n      Battery memory tempBattery;\n      //tempBattery.Address = address(mBattery[adr]);\n      tempBattery.Address = address(contractList[adr]);\n      tempBattery.statusAt = now;\n      Batteries[adr] = tempBattery;\n      if (g) {\n          SingleBattery(contractList[adr]).setGridAdr(gridAdr);\n          Grid(gridAdr).addB(contractList[adr]);\n      }\n      numBatteryCurrent++;\n      LogDevice(adr);\n  }\n\n    // test functions\n    \n    /*function checkHouseCon(address adrHouse) returns (uint) {\n        return (Houses[adrHouse].consumption);\n    }*/ \n    /*function checkHouseAdr(address adrHouse) returns (address) {\n        return (Houses[adrHouse].Address);\n    }*/\n    /*\n    function checkPVPro(address adrPV) returns (uint) {\n        return (PVs[adrPV].production);\n    }*/\n    /*\n    function checkPVAdr(address adrPV) returns (address) {\n        return (PVs[adrPV].Address);\n    }\n    function checkHousePVConnection(address adrHouse, address adrPV) returns (address) {\n        return (Houses[adrHouse].connectedPV[adrPV].Address);\n    }*/\n    function getAdmin() constant returns (address) {\n        return admin;\n    } \n\n    function getGridAdr() constant returns(address) {\n        return gridAdr;\n    }   \n\n  function linkHousePV(address adrHouse, address adrPV) adminOnly {     // the input shall be changed into hash info (device identifier)\n      require(Houses[adrHouse].Address != 0x0);                         // \"Error: House contract does not exist!\"\n      require(PVs[adrPV].Address != 0x0);                               // \"Error: PV contract does not exist!\"\n      require(Houses[adrHouse].connectedPV[adrPV].Address == address(0)); // \"Error: Already connected!\"\n      Houses[adrHouse].connectedPV[adrPV] = PVs[adrPV];\n      PVs[adrPV].connectedHouse.push(adrHouse);\n      // call functions in the contract\n      //SingleHouse(mHouse[adrHouse]).call(bytes4(sha3(\"addConnectedPV(address)\")),adrPV);\n      //SinglePV(mPV[adrPV]).call(bytes4(sha3(\"addConnectedHouse(address)\")),adrHouse);\n      // or\n      //SingleHouse(mHouse[adrHouse]).addConnectedPV(mPV[adrPV]);\n      //SinglePV(mPV[adrPV]).addConnectedHouse(mHouse[adrHouse]);\n      // or\n      SingleHouse(address(contractList[adrHouse])).addConnectedPV(address(contractList[adrPV]));\n      SinglePV(address(contractList[adrPV])).addConnectedHouse(address(contractList[adrHouse]));\n      LogConnection(adrHouse,adrPV);\n  }\n\n\n  function linkHouseBattery(address adrHouse, address adrBattery) adminOnly {   // the input shall be changed into hash info (device identifier)\n      require(Houses[adrHouse].Address != 0x0);                                 // \"Error: House does not exist!\"\n      require(Batteries[adrBattery].Address != 0x0);                            // \"Error: Battery does not exist!\"\n      require(Houses[adrHouse].connectedBattery[adrBattery].Address == 0x0);    // \"Error: Already connected!\"\n      Houses[adrHouse].connectedBattery[adrBattery] = Batteries[adrBattery];\n      Batteries[adrBattery].connectedHouse.push(adrHouse);\n      // call functions in the contract\n      //SingleHouse(mHouse[adrHouse]).addConnectedBattery(mBattery[adrBattery]);\n      //SingleBattery(mBattery[adrBattery]).addConnectedHouse(mHouse[adrHouse]);\n      //or\n      SingleHouse(contractList[adrHouse]).addConnectedBattery(contractList[adrBattery]);\n      SingleBattery(contractList[adrBattery]).addConnectedHouse(contractList[adrHouse]);\n      LogConnection(adrHouse,adrBattery);\n  }\n\n\n  function linkPVBattery(address adrPV, address adrBattery) adminOnly{          // the input shall be changed into hash info (device identifier)\n      require(PVs[adrPV].Address != 0x0);                                       // \"Error: PV does not exist!\"\n      require(Batteries[adrBattery].Address != 0x0);                            // \"Error: Battery does not exist!\"\n      for (uint k = 0;k<PVs[adrPV].connectedBattery.length;k++) {\n           require(PVs[adrPV].connectedBattery[k] != adrBattery);               // \"Error: Already connected!\"\n      }\n      PVs[adrPV].connectedBattery.push(adrBattery);\n      Batteries[adrBattery].connectedPV.push(adrPV);\n      // call functions in the contract\n      //SinglePV(mPV[adrPV]).addConnectedBattery(mBattery[adrBattery]);\n      //SingleBattery(mBattery[adrBattery]).addConnectedPV(mPV[adrPV]);\n      // or\n      SinglePV(contractList[adrPV]).addConnectedBattery(contractList[adrBattery]);\n      SingleBattery(contractList[adrBattery]).addConnectedPV(contractList[adrPV]);\n      LogConnection(adrPV,adrBattery);\n  }\n\n  function getPVConnection(address adrPV) returns (uint numConnectedHouse, uint numConnectedBattery) {\n      numConnectedHouse = PVs[adrPV].connectedHouse.length;\n      numConnectedBattery = PVs[adrPV].connectedBattery.length;\n  }\n/*\n  function getBatteryConnection(address adrBattery) returns (uint numConnectedHouse, uint numConnectedPV) {\n      numConnectedHouse = Batteries[adrBattery].connectedHouse.length;\n      numConnectedPV = Batteries[adrBattery].connectedPV.length;\n  }\n\n  function assertHouseConnection(address adrHouse, address adr) returns (bool) {\n      if (Houses[adrHouse].connectedBattery[adr].Address != 0x0 || Houses[adrHouse].connectedPV[adr].Address != 0x0) {\n          return true;\n      } else {\n          return false;\n      }\n  }\n\n  function assertPVConnection(address adrPV, address adr) returns (bool) {\n      var cH = PVs[adrPV].connectedHouse.length;\n      var cB = PVs[adrPV].connectedBattery.length;\n      for (uint i = 0; i < cH; i++) {\n          if (PVs[adrPV].connectedHouse[i] == adr) {\n              return true;\n          }\n      }\n      for (uint j = 0; j < cB; j++) {\n          if (PVs[adrPV].connectedBattery[j] == adr) {\n              return true;\n          }\n      }\n      return false;\n  }\n\n  function assertBatteryConnection(address adrBattery, address adr) returns (bool) {\n      var cH = Batteries[adrBattery].connectedHouse.length;\n      var cP = Batteries[adrBattery].connectedPV.length;\n      for (uint i = 0; i < cH; i++) {\n          if (Batteries[adrBattery].connectedHouse[i] == adr) {\n              return true;\n          }\n      }\n      for (uint j = 0; j < cP; j++) {\n          if (Batteries[adrBattery].connectedPV[j] == adr) {\n              return true;\n          }\n      }\n      return false;\n  }\n    function getDeviceType(address adr) returns (uint8) {\n        // deviceType {House,PVpannel,Battery}\n        if (Houses[adr].Address != 0x0) {\n            return 0;\n        } else if (PVs[adr].Address != 0x0) {\n            return 1;\n        } else if (Batteries[adr].Address != 0x0) {\n            return 2;\n        } else {\n            return 15;   // when the address corresponds no device in the configuration...\n        }\n  }\n    function isConnected(address adr1, address adr2) external returns (bool) {\n        if (Houses[adr1].Address != 0x0) {\n            return assertHouseConnection(adr1,adr2);\n        } else if (PVs[adr1].Address != 0x0) {\n            return assertPVConnection(adr1,adr2);\n        } else if (Batteries[adr1].Address != 0x0) {\n            return assertBatteryConnection(adr1,adr2);\n        } else {\n            return false;   // when the address corresponds no device in the configuration...\n        }\n    }*/\n}\n",
  "sourcePath": "C:\\Users\\qianc\\Documents\\Thesis\\Code\\SimpleMonitor\\contracts\\Configuration.sol",
  "compiler": {
    "name": "solc",
    "version": "0.4.18+commit.9cf6e910.Emscripten.clang"
  },
  "schemaVersion": "1.0.1",
  "updatedAt": "2017-11-26T10:01:55.595Z"
}