{
  "contractName": "Configuration",
  "abi": [
    {
      "constant": false,
      "inputs": [
        {
          "name": "adr",
          "type": "address"
        }
      ],
      "name": "addGrid",
      "outputs": [],
      "payable": false,
      "stateMutability": "nonpayable",
      "type": "function"
    },
    {
      "constant": true,
      "inputs": [],
      "name": "numPVTotal",
      "outputs": [
        {
          "name": "",
          "type": "uint8"
        }
      ],
      "payable": false,
      "stateMutability": "view",
      "type": "function"
    },
    {
      "constant": true,
      "inputs": [
        {
          "name": "adr",
          "type": "address"
        }
      ],
      "name": "getContractAddress",
      "outputs": [
        {
          "name": "",
          "type": "address"
        }
      ],
      "payable": false,
      "stateMutability": "view",
      "type": "function"
    },
    {
      "constant": true,
      "inputs": [],
      "name": "getAdmin",
      "outputs": [
        {
          "name": "",
          "type": "address"
        }
      ],
      "payable": false,
      "stateMutability": "view",
      "type": "function"
    },
    {
      "constant": true,
      "inputs": [],
      "name": "statusAt",
      "outputs": [
        {
          "name": "",
          "type": "uint256"
        }
      ],
      "payable": false,
      "stateMutability": "view",
      "type": "function"
    },
    {
      "constant": false,
      "inputs": [
        {
          "name": "adr1",
          "type": "address"
        },
        {
          "name": "adr2",
          "type": "address"
        }
      ],
      "name": "linkDevices",
      "outputs": [],
      "payable": false,
      "stateMutability": "nonpayable",
      "type": "function"
    },
    {
      "constant": true,
      "inputs": [],
      "name": "numBatteryTotal",
      "outputs": [
        {
          "name": "",
          "type": "uint8"
        }
      ],
      "payable": false,
      "stateMutability": "view",
      "type": "function"
    },
    {
      "constant": true,
      "inputs": [],
      "name": "gridAdr",
      "outputs": [
        {
          "name": "",
          "type": "address"
        }
      ],
      "payable": false,
      "stateMutability": "view",
      "type": "function"
    },
    {
      "constant": false,
      "inputs": [
        {
          "name": "adr",
          "type": "address"
        }
      ],
      "name": "getDeviceType",
      "outputs": [
        {
          "name": "",
          "type": "uint8"
        }
      ],
      "payable": false,
      "stateMutability": "nonpayable",
      "type": "function"
    },
    {
      "constant": true,
      "inputs": [],
      "name": "numHouseTotal",
      "outputs": [
        {
          "name": "",
          "type": "uint8"
        }
      ],
      "payable": false,
      "stateMutability": "view",
      "type": "function"
    },
    {
      "constant": false,
      "inputs": [
        {
          "name": "_deviceType",
          "type": "uint8"
        },
        {
          "name": "adr",
          "type": "address"
        },
        {
          "name": "capacity",
          "type": "uint256"
        },
        {
          "name": "g",
          "type": "bool"
        }
      ],
      "name": "addDevice",
      "outputs": [],
      "payable": false,
      "stateMutability": "nonpayable",
      "type": "function"
    },
    {
      "constant": true,
      "inputs": [],
      "name": "getGridAdr",
      "outputs": [
        {
          "name": "",
          "type": "address"
        }
      ],
      "payable": false,
      "stateMutability": "view",
      "type": "function"
    },
    {
      "constant": true,
      "inputs": [],
      "name": "admin",
      "outputs": [
        {
          "name": "",
          "type": "address"
        }
      ],
      "payable": false,
      "stateMutability": "view",
      "type": "function"
    },
    {
      "inputs": [
        {
          "name": "numHouse",
          "type": "uint8"
        },
        {
          "name": "numPV",
          "type": "uint8"
        },
        {
          "name": "numBattery",
          "type": "uint8"
        }
      ],
      "payable": false,
      "stateMutability": "nonpayable",
      "type": "constructor"
    },
    {
      "anonymous": false,
      "inputs": [
        {
          "indexed": false,
          "name": "numHouses",
          "type": "uint256"
        },
        {
          "indexed": false,
          "name": "numPV",
          "type": "uint256"
        },
        {
          "indexed": false,
          "name": "numBattery",
          "type": "uint256"
        },
        {
          "indexed": false,
          "name": "statusat",
          "type": "uint256"
        }
      ],
      "name": "LogConfig",
      "type": "event"
    },
    {
      "anonymous": false,
      "inputs": [
        {
          "indexed": false,
          "name": "deviceAdr",
          "type": "address"
        }
      ],
      "name": "LogDevice",
      "type": "event"
    },
    {
      "anonymous": false,
      "inputs": [
        {
          "indexed": false,
          "name": "device1",
          "type": "address"
        },
        {
          "indexed": false,
          "name": "device2",
          "type": "address"
        }
      ],
      "name": "LogConnection",
      "type": "event"
    }
  ],
  "bytecode": "0x606060405260008054600160a060020a03191633600160a060020a03161790556003805465ffffff00000019169055341561003957600080fd5b6040516060806154e283398101604052808051919060200180519190602001805160005490925033600160a060020a0390811691161415905061011c576003805460ff191660ff8581169190911761ff00191661010085831681029190911762ff0000191662010000858416810291909117938490554260028190557f2f3512603ca90996b9ddcd6b28a9c368ecc39a291377875368438314d3c6c1c694808516949381048416939290049091169060405160ff9485168152928416602084015292166040808301919091526060820192909252608001905180910390a1610121565b600080fd5b5050506153af806101336000396000f3006060604052600436106100ab5763ffffffff60e060020a6000350416633474efe681146100b057806351d6037b146100d1578063622bc90e146100fa5780636e9960c31461013557806380f57b3b146101485780638368bfcf1461016d57806385fdfb4114610192578063a1f51d03146101a5578063bb2f6e2c146101b8578063d5b56dba146101d7578063d88b3543146101ea578063f0c998ec14610217578063f851a4401461022a575b600080fd5b34156100bb57600080fd5b6100cf600160a060020a036004351661023d565b005b34156100dc57600080fd5b6100e46102ce565b60405160ff909116815260200160405180910390f35b341561010557600080fd5b610119600160a060020a03600435166102dc565b604051600160a060020a03909116815260200160405180910390f35b341561014057600080fd5b610119610316565b341561015357600080fd5b61015b610325565b60405190815260200160405180910390f35b341561017857600080fd5b6100cf600160a060020a036004358116906024351661032b565b341561019d57600080fd5b6100e46106ae565b34156101b057600080fd5b6101196106bd565b34156101c357600080fd5b6100e4600160a060020a03600435166106cc565b34156101e257600080fd5b6100e461072a565b34156101f557600080fd5b6100cf60ff60043516600160a060020a03602435166044356064351515610733565b341561022257600080fd5b610119610d23565b341561023557600080fd5b610119610d32565b60005433600160a060020a03908116911614156100ab578061025d610d41565b600160a060020a039091168152602001604051809103906000f080151561028357600080fd5b600160a060020a038083166000908152600560205260409020805492821673ffffffffffffffffffffffffffffffffffffffff19938416179081905560018054909316911617905550565b600354610100900460ff1681565b6000805433600160a060020a03908116911614156100ab5750600160a060020a03808216600090815260056020526040902054165b919050565b600054600160a060020a031690565b60025481565b610333610d51565b60005433600160a060020a03908116911614156100ab57610353836106cc565b60ff168152610361826106cc565b60ff1660208201526003815160ff161080156103aa5750600160a060020a0380841660009081526004602090815260408083208685168452600201909152902054610100900416155b15156103b557600080fd5b6003602082015160ff161080156103f95750600160a060020a0380831660009081526004602090815260408083208785168452600201909152902054610100900416155b151561040457600080fd5b600160a060020a03808316600081815260046020908152604080832094881683528083209383526002938401909152902082548154919260ff90911691839160ff1990911690600190849081111561045857fe5b02179055508154815474ffffffffffffffffffffffffffffffffffffffff00191661010091829004600160a060020a03908116909202178255600192830154918301919091558481166000818152600460209081526040808320948816835280832093835260029384019091529020825481549394919360ff90911692849260ff19909216919084908111156104ea57fe5b02179055508154815474ffffffffffffffffffffffffffffffffffffffff00191661010091829004600160a060020a0390811690920217825560019283015491830191909155848116600090815260056020526040902054169063bfd119039083906020020151600160a060020a038086166000908152600560205260409081902054909116905160e060020a63ffffffff851602815260ff9092166004830152600160a060020a03166024820152604401600060405180830381600087803b15156105b557600080fd5b6102c65a03f115156105c657600080fd5b505050600160a060020a038281166000908152600560205260409020541663bfd119038251600160a060020a038087166000908152600560205260409081902054909116905160e060020a63ffffffff851602815260ff9092166004830152600160a060020a03166024820152604401600060405180830381600087803b151561064f57600080fd5b6102c65a03f1151561066057600080fd5b5050507f2defa27bb08b7ca89bc5fb146b34db072eccd285461d98ae368b88088a6cb8ec8383604051600160a060020a039283168152911660208201526040908101905180910390a1505050565b60035462010000900460ff1681565b600154600160a060020a031681565b600160a060020a038082166000908152600460205260408120549091610100909104161561072257600160a060020a03821660009081526004602052604090205460ff16600281111561071b57fe5b9050610311565b50600f610311565b60035460ff1681565b61073b610d78565b60005433600160a060020a03908116911614156100ab57600360ff86161061076257600080fd5b60ff851615156109005783610775610d9a565b600160a060020a039091168152602001604051809103906000f080151561079b57600080fd5b600160a060020a038581166000908152600560205260409020805473ffffffffffffffffffffffffffffffffffffffff1916929091169190911790556003805463ff00000019811663010000009182900460ff9081166001011690910217905581156108fb57600160a060020a03808516600090815260056020526040908190205460015490831692638d646b11929116905160e060020a63ffffffff8416028152600160a060020a039091166004820152602401600060405180830381600087803b151561086957600080fd5b6102c65a03f1151561087a57600080fd5b5050600154600160a060020a038681166000908152600560205260409081902054928216935063ad3ef3ab92909116905160e060020a63ffffffff8416028152600160a060020a039091166004820152602401600060405180830381600087803b15156108e657600080fd5b6102c65a03f115156108f757600080fd5b5050505b610c22565b8460ff1660011415610a885783610915610daa565b600160a060020a039091168152602001604051809103906000f080151561093b57600080fd5b600160a060020a038581166000908152600560205260409020805473ffffffffffffffffffffffffffffffffffffffff1916929091169190911790556003805464ff000000001981166401000000009182900460ff9081166001011690910217905581156108fb57600160a060020a03808516600090815260056020526040908190205460015490831692638d646b11929116905160e060020a63ffffffff8416028152600160a060020a039091166004820152602401600060405180830381600087803b1515610a0b57600080fd5b6102c65a03f11515610a1c57600080fd5b5050600154600160a060020a0386811660009081526005602052604090819020549282169350634927f2e792909116905160e060020a63ffffffff8416028152600160a060020a039091166004820152602401600060405180830381600087803b15156108e657600080fd5b8383610a92610dba565b600160a060020a039092168252602082015260409081019051809103906000f0801515610abe57600080fd5b600160a060020a038581166000908152600560205260409020805473ffffffffffffffffffffffffffffffffffffffff1916929091169190911790556003805465ff0000000000198116650100000000009182900460ff908116600101169091021790558115610c2257600160a060020a03808516600090815260056020526040908190205460015490831692638d646b11929116905160e060020a63ffffffff8416028152600160a060020a039091166004820152602401600060405180830381600087803b1515610b9057600080fd5b6102c65a03f11515610ba157600080fd5b5050600154600160a060020a038681166000908152600560205260409081902054928216935063d545290192909116905160e060020a63ffffffff8416028152600160a060020a039091166004820152602401600060405180830381600087803b1515610c0d57600080fd5b6102c65a03f11515610c1e57600080fd5b5050505b8460ff166002811115610c3157fe5b81906002811115610c3e57fe5b90816002811115610c4b57fe5b905250600160a060020a03808516600081815260056020908152604080832054909416858201524285850152918152600490915220819081518154829060ff19166001836002811115610c9a57fe5b021790555060208201518154600160a060020a03919091166101000274ffffffffffffffffffffffffffffffffffffffff00199091161781556040820151600190910155507f65c506643f4516f3ef335c5dd71017b8e849268cd860c3235c7db2c62fd8e93b84604051600160a060020a03909116815260200160405180910390a15050505050565b600154600160a060020a031690565b600054600160a060020a031681565b6040516108dc80610dcb83390190565b604080519081016040526002815b600081526000199091019060200181610d5f5790505090565b6060604051908101604052806000815260006020820181905260409091015290565b6040516111d1806116a783390190565b60405161135f8061287883390190565b6040516117ad80613bd7833901905600606060405260038054600160a060020a031916905561012c60075560646008819055600955341561002f57600080fd5b6040516020806108dc8339810160405280805160018054600160a060020a03928316600160a060020a0319918216179091556000805433909316929091169190911790555050610858806100846000396000f3006060604052600436106100955763ffffffff60e060020a60003504166335f7f5e2811461009a5780634927f2e7146100c85780636e285544146100e95780638d646b11146100ff57806398d5fdca1461011e578063ad3ef3ab1461014b578063bfd119031461016a578063cb99c1571461018c578063d54529011461019f578063f7d97577146101be578063ff1b636d146101d7575b600080fd5b34156100a557600080fd5b6100b0600435610206565b60405191825260208201526040908101905180910390f35b34156100d357600080fd5b6100e7600160a060020a0360043516610330565b005b34156100f457600080fd5b6100b060043561037b565b341561010a57600080fd5b6100e7600160a060020a03600435166104ae565b341561012957600080fd5b6101316104f0565b604051918252151560208201526040908101905180910390f35b341561015657600080fd5b6100e7600160a060020a0360043516610515565b341561017557600080fd5b6100e7600435600160a060020a0360243516610527565b341561019757600080fd5b6100e7610593565b34156101aa57600080fd5b6100e7600160a060020a0360043516610797565b34156101c957600080fd5b6100e76004356024356107a9565b34156101e257600080fd5b6101ea6107d3565b604051600160a060020a03909116815260200160405180910390f35b600080600e5490508273__TransactLib___________________________63bc2e368c909160095460006040516020015260405160e060020a63ffffffff85160281526004810192909252602482015260440160206040518083038186803b151561027057600080fd5b6102c65a03f4151561028157600080fd5b50505060405180519050915060095473__TransactLib___________________________639e5fd0a99091843060006040516020015260405160e060020a63ffffffff861602815260048101939093526024830191909152600160a060020a0316604482015260640160206040518083038186803b151561030157600080fd5b6102c65a03f4151561031257600080fd5b50505060405180516009555060068054838302900390559092909150565b600b80546001810161034283826107e2565b506000918252602090912001805473ffffffffffffffffffffffffffffffffffffffff1916600160a060020a0392909216919091179055565b600080600d5490508273__TransactLib___________________________63bc2e368c909160085460006040516020015260405160e060020a63ffffffff85160281526004810192909252602482015260440160206040518083038186803b15156103e557600080fd5b6102c65a03f415156103f657600080fd5b505050604051805160088054829003905560065490935073__TransactLib___________________________915063e2992d2990838502333060006040516020015260405160e060020a63ffffffff871602815260048101949094526024840192909252600160a060020a03908116604484015216606482015260840160206040518083038186803b151561048a57600080fd5b6102c65a03f4151561049b57600080fd5b5050506040518051600655509092909150565b60005433600160a060020a0390811691161415610095576003805473ffffffffffffffffffffffffffffffffffffffff1916600160a060020a03831617905550565b600d54600754600f54600091429101101561050d57506000610511565b5060015b9091565b600a80546001810161034283826107e2565b60005433600160a060020a039081169116141561009557600082815260056020526040902080546001810161055c83826107e2565b506000918252602090912001805473ffffffffffffffffffffffffffffffffffffffff1916600160a060020a0383161790555b5050565b6000808080808080805b600c5481101561078d57600c8054829081106105b557fe5b6000918252602082200154600160a060020a03169063cf7fc76290604051608001526040518163ffffffff1660e060020a028152600401608060405180830381600087803b151561060557600080fd5b6102c65a03f1151561061657600080fd5b5050506040518051906020018051906020018051906020018051939b509199509750909550859050801561064957508715155b1561078557600c80548290811061065c57fe5b6000918252602082200154600854600160a060020a0390911693508391630ff3728291906040516020015260405160e060020a63ffffffff84160281526004810191909152602401602060405180830381600087803b15156106bd57600080fd5b6102c65a03f115156106ce57600080fd5b5050506040518051600880548290039055600d546006549196508602945073__TransactLib___________________________915063e2992d299085853060006040516020015260405160e060020a63ffffffff871602815260048101949094526024840192909252600160a060020a03908116604484015216606482015260840160206040518083038186803b151561076757600080fd5b6102c65a03f4151561077857600080fd5b5050506040518051600655505b60010161059d565b5050505050505050565b600c80546001810161034283826107e2565b60015433600160a060020a039081169116141561009557600d829055600e81905542600f5561058f565b600054600160a060020a031681565b8154818355818115116108065760008381526020902061080691810190830161080b565b505050565b61082991905b808211156108255760008155600101610811565b5090565b905600a165627a7a72305820d69d677b9b1e42ecec526861726facc7674d604e8a9deb0e641edaf2ab1b0cc20029606060405260038054600160a060020a031916905561012c600655341561002557600080fd5b6040516020806111d18339810160405280805160018054600160a060020a03928316600160a060020a03199182161790915560008054339093169290911691909117905550506111578061007a6000396000f3006060604052600436106100cc5763ffffffff60e060020a6000350416630ff3728281146100d157806313299604146100f95780631628ce6c1461010c57806338a3528c146101575780633acca96d1461016a57806341977cf51461017f5780635a500ecc1461019e5780638a5cb1b6146101b45780638ad5366f146101df5780638b874f72146101fe5780638d646b1114610211578063b148f82b14610230578063bfd119031461024f578063c974602914610271578063e7e2741014610284578063ff1b636d146102b6575b600080fd5b34156100dc57600080fd5b6100e76004356102c9565b60405190815260200160405180910390f35b341561010457600080fd5b6100e7610521565b341561011757600080fd5b61012b600160a060020a0360043516610528565b604051938452602084019290925260408084019190915290151560608301526080909101905180910390f35b341561016257600080fd5b61012b610588565b341561017557600080fd5b61017d6105a5565b005b341561018a57600080fd5b61017d600160a060020a03600435166106f0565b34156101a957600080fd5b61017d6004356107ac565b34156101bf57600080fd5b6101c761083b565b60405191825260208201526040908101905180910390f35b34156101ea57600080fd5b61017d600160a060020a036004351661085c565b341561020957600080fd5b61017d610919565b341561021c57600080fd5b61017d600160a060020a0360043516610b46565b341561023b57600080fd5b6100e7600160a060020a0360043516610b7d565b341561025a57600080fd5b61017d600435600160a060020a0360243516610bd2565b341561027c57600080fd5b61017d610c30565b341561028f57600080fd5b61029a600435610e48565b604051600160a060020a03909116815260200160405180910390f35b34156102c157600080fd5b61029a610e74565b6000338173__AdrLib________________________________6354859436600a84846040516020015260405160e060020a63ffffffff85160281526004810192909252600160a060020a0316602482015260440160206040518083038186803b151561033457600080fd5b6102c65a03f4151561034557600080fd5b50505060405180519050806103d9575073__AdrLib________________________________635485943660098460006040516020015260405160e060020a63ffffffff85160281526004810192909252600160a060020a0316602482015260440160206040518083038186803b15156103bd57600080fd5b6102c65a03f415156103ce57600080fd5b505050604051805190505b15156103e457600080fd5b60075473__TransactLib___________________________63bc2e368c90918660006040516020015260405160e060020a63ffffffff85160281526004810192909252602482015260440160206040518083038186803b151561044657600080fd5b6102c65a03f4151561045757600080fd5b50505060405180519050905060075473__TransactLib___________________________639e5fd0a99091833060006040516020015260405160e060020a63ffffffff861602815260048101939093526024830191909152600160a060020a0316604482015260640160206040518083038186803b15156104d757600080fd5b6102c65a03f415156104e857600080fd5b505050604051805160075550600160a060020a0382166000908152600d6020526040902054600480549183029091039055915050919050565b6004545b90565b6007546000808061053885610b7d565b600354909350600160a060020a03161561055d57600a54600954016001019150610567565b600a546009540191505b42600654600c5401101561057d57506000610581565b5060015b9193509193565b60008060008061059733610528565b935093509350935090919293565b60035460009081908190600160a060020a031615156105c357600080fd5b600060075411156106eb57600354600754600160a060020a0390911690636e2855449060006040516040015260405160e060020a63ffffffff841602815260048101919091526024016040805180830381600087803b151561062457600080fd5b6102c65a03f1151561063557600080fd5b5050506040518051906020018051600754929550925073__TransactLib___________________________91639e5fd0a99150853060006040516020015260405160e060020a63ffffffff861602815260048101939093526024830191909152600160a060020a0316604482015260640160206040518083038186803b15156106bd57600080fd5b6102c65a03f415156106ce57600080fd5b505050604051805160075550600480548483029081900390915591505b505050565b60005433600160a060020a03908116911614156100cc5760098054600181016107198382611097565b5060009182526020909120018054600160a060020a031916600160a060020a0383161790557f34ff05936c7ffe85555df53a7bf1374ed025703c493a74c4ce3316646f950e1642604051602081019190915260408082526012818301527f5056206c696e6b656420746f20486f757365000000000000000000000000000060608301526080909101905180910390a15b50565b60015433600160a060020a03908116911614156100cc5760078190554260088190556001547f93e0cabaa551645c58979b9f1e87af3e09f708241c9bdd6468e581ad0651692691600160a060020a039091169083906040518084600160a060020a0316600160a060020a03168152602001838152602001828152602001935050505060405180910390a16107a9565b60008060065480600854014210156100cc5760075492506008549150509091565b60005433600160a060020a03908116911614156100cc57600a8054600181016108858382611097565b5060009182526020909120018054600160a060020a031916600160a060020a0383161790557f34ff05936c7ffe85555df53a7bf1374ed025703c493a74c4ce3316646f950e1642604051602081019190915260408082526017818301527f42617474657279206c696e6b656420746f20486f75736500000000000000000060608301526080909101905180910390a16107a9565b6000806000806000610929610e83565b600a54600954019350600092505b83831015610a395773__SortLib_______________________________63f27da568600b60006040516020015260405160e060020a63ffffffff8416028152600481019190915260240160206040518083038186803b151561099857600080fd5b6102c65a03f415156109a957600080fd5b5050506040518051905094506109c48360018603038661104a565b73__SortLib_______________________________6343168c1b600b8760405160e060020a63ffffffff85160281526004810192909252602482015260440160006040518083038186803b1515610a1a57600080fd5b6102c65a03f41515610a2b57600080fd5b505060019093019250610937565b600354600160a060020a031615610b3f5750506003546000908190600160a060020a03166398d5fdca82604051604001526040518163ffffffff1660e060020a0281526004016040805180830381600087803b1515610a9757600080fd5b6102c65a03f11515610aa857600080fd5b50505060405180519060200180519193509091506040905080519081016040908152838252821515602080840191909152600354600160a060020a03166000908152600d909152208151815560208201516001909101805491151560ff19909216919091179055506003546000858152600e602052604090208054600160a060020a031916600160a060020a039092169190911790555b5050505050565b60005433600160a060020a03908116911614156100cc5760038054600160a060020a031916600160a060020a0383161790556107a9565b6000805b600a5460095401600101811015610bc7576000818152600e6020526040902054600160a060020a0384811691161415610bbf57806001019150610bcc565b600101610b81565b600091505b50919050565b60005433600160a060020a03908116911614156100cc576000828152600560205260409020805460018101610c078382611097565b5060009182526020909120018054600160a060020a031916600160a060020a0383161790555050565b600080805b600954811015610d38576009805482908110610c4d57fe5b6000918252602082200154600160a060020a0316906398d5fdca90604051604001526040518163ffffffff1660e060020a0281526004016040805180830381600087803b1515610c9c57600080fd5b6102c65a03f11515610cad57600080fd5b5050506040518051906020018051919450909250604090508051908101604052838152821515602082015260098054600d9160009185908110610cec57fe5b6000918252602080832090910154600160a060020a0316835282019290925260400190208151815560208201516001918201805460ff1916911515919091179055919091019050610c35565b5060005b600a54811015610e3f57600a805482908110610d5457fe5b6000918252602082200154600160a060020a031690632fbc0bf190604051604001526040518163ffffffff1660e060020a0281526004016040805180830381600087803b1515610da357600080fd5b6102c65a03f11515610db457600080fd5b50505060405180519060200180519194509092506040905080519081016040528381528215156020820152600a8054600d9160009185908110610df357fe5b6000918252602080832090910154600160a060020a0316835282019290925260400190208151815560208201516001918201805460ff1916911515919091179055919091019050610d3c565b505042600c5550565b6000600982815481101515610e5957fe5b600091825260209091200154600160a060020a031692915050565b600054600160a060020a031681565b600a5460095460009101610e98600b826110bb565b50600090505b600954811015610f6b57600d6000600983815481101515610ebb57fe5b6000918252602080832090910154600160a060020a031683528201929092526040019020600b805483908110610eed57fe5b6000918252602090912082546002909202019081556001918201549101805460ff191660ff90921615159190911790556009805482908110610f2b57fe5b6000918252602080832090910154838352600e90915260409091208054600160a060020a031916600160a060020a03909216919091179055600101610e9e565b506009545b600b548110156107a957600d6000600a6009805490508403815481101515610f9457fe5b6000918252602080832090910154600160a060020a031683528201929092526040019020600b805483908110610fc657fe5b6000918252602090912082546002909202019081556001918201549101805460ff191660ff9092161515919091179055600954600a80549091830390811061100a57fe5b6000918252602080832090910154838352600e90915260409091208054600160a060020a031916600160a060020a03909216919091179055600101610f70565b60008282146106eb57506000918252600e6020526040808320805492845292208054600160a060020a03908116600160a060020a0319808516919091179094558154921691909216179055565b8154818355818115116106eb576000838152602090206106eb9181019083016110e7565b8154818355818115116106eb576002028160020283600052602060002091820191016106eb9190611105565b61052591905b8082111561110157600081556001016110ed565b5090565b61052591905b80821115611101576000815560018101805460ff1916905560020161110b5600a165627a7a72305820a57bc8e0e5f45db5a00d734eb1f1a29ea017dc1aa9be9678a6c3db5693767b000029606060405260038054600160a060020a031916905561012c6006819055600755341561002a57600080fd5b60405160208061135f8339810160405280805160018054600160a060020a03928316600160a060020a03199182161790915560008054339093169290911691909117905550506112e08061007f6000396000f3006060604052600436106100cc5763ffffffff60e060020a6000350416630a71db5e81146100d157806313299604146100f25780633d7224dc146101175780633fd2007d1461012a578063567cc2b61461015857806366b294431461016e57806367a2829d146101a85780638ad5366f146101bb5780638d646b11146101da5780638e4dfebb146101f957806391b7f5ed1461020c57806398d5fdca14610222578063bfd119031461024f578063d5adad5414610271578063fba30167146102c4578063ff1b636d146102d7575b600080fd5b34156100dc57600080fd5b6100f0600160a060020a0360043516610306565b005b34156100fd57600080fd5b6101056103c2565b60405190815260200160405180910390f35b341561012257600080fd5b6100f06103c9565b341561013557600080fd5b6101406004356107bc565b60405191825260208201526040908101905180910390f35b341561016357600080fd5b6100f0600435610af9565b341561017957600080fd5b610184600435610b88565b60405180848152602001838152602001828152602001935050505060405180910390f35b34156101b357600080fd5b6100f0610bfd565b34156101c657600080fd5b6100f0600160a060020a0360043516610ea5565b34156101e557600080fd5b6100f0600160a060020a0360043516610f62565b341561020457600080fd5b610140610f99565b341561021757600080fd5b6100f0600435610fa3565b341561022d57600080fd5b610235610ffd565b604051918252151560208201526040908101905180910390f35b341561025a57600080fd5b6100f0600435600160a060020a0360243516611022565b341561027c57600080fd5b610287600435611081565b6040518085600160a060020a0316600160a060020a0316815260200184815260200183815260200182815260200194505050505060405180910390f35b34156102cf57600080fd5b6100f06110bb565b34156102e257600080fd5b6102ea6111bd565b604051600160a060020a03909116815260200160405180910390f35b60005433600160a060020a03908116911614156100cc57600d80546001810161032f838261121f565b5060009182526020909120018054600160a060020a031916600160a060020a0383161790557f34ff05936c7ffe85555df53a7bf1374ed025703c493a74c4ce3316646f950e1642604051602081019190915260408082526012818301527f486f757365206c696e6b656420746f205056000000000000000000000000000060608301526080909101905180910390a15b50565b6008545b90565b600e54600d5460009182918291829182918291016103e8600f82611243565b50600090505b600d548110156105c457600d80548290811061040657fe5b6000918252602082200154600160a060020a0316906338a3528c90604051608001526040518163ffffffff1660e060020a028152600401608060405180830381600087803b151561045657600080fd5b6102c65a03f1151561046757600080fd5b505050604051805190602001805190602001805190602001805193995091975095509093505082156105bc576060604051908101604052808781526020018681526020018581525060126000600d848154811015156104c257fe5b6000918252602080832090910154600160a060020a03168352820192909252604001902081518155602082015181600101556040820151816002015590505060126000600d8381548110151561051457fe5b6000918252602080832090910154600160a060020a031683528201929092526040019020600f80548490811061054657fe5b60009182526020909120825460039092020190815560018083015490820155600291820154910155600d80548290811061057c57fe5b6000918252602080832090910154848352601390915260409091208054600160a060020a031916600160a060020a03909216919091179055600191909101905b6001016103ee565b5060005b600e5481101561079e57600e8054829081106105e057fe5b6000918252602082200154600160a060020a03169063cf7fc76290604051608001526040518163ffffffff1660e060020a028152600401608060405180830381600087803b151561063057600080fd5b6102c65a03f1151561064157600080fd5b50505060405180519060200180519060200180519060200180519399509197509550909350508215610796576060604051908101604052808781526020018681526020018581525060126000600e8481548110151561069c57fe5b6000918252602080832090910154600160a060020a03168352820192909252604001902081518155602082015181600101556040820151816002015590505060126000600e838154811015156106ee57fe5b6000918252602080832090910154600160a060020a031683528201929092526040019020600f80548490811061072057fe5b60009182526020909120825460039092020190815560018083015490820155600291820154910155600e80548290811061075657fe5b6000918252602080832090910154848352601390915260409091208054600160a060020a031916600160a060020a03909216919091179055600191909101905b6001016105c8565b6010829055816107af600f82611243565b5050426011555050505050565b600081815260136020908152604080832054600954600160a060020a039091168085526012909352818420548493849390928492839273__TransactLib___________________________9263bc2e368c9290918590516020015260405160e060020a63ffffffff85160281526004810192909252602482015260440160206040518083038186803b151561085057600080fd5b6102c65a03f4151561086157600080fd5b5050506040518051945073__AdrLib________________________________90506354859436600e8560006040516020015260405160e060020a63ffffffff85160281526004810192909252600160a060020a0316602482015260440160206040518083038186803b15156108d557600080fd5b6102c65a03f415156108e657600080fd5b5050506040518051905015610a105782600160a060020a0316630ff372828560006040516020015260405160e060020a63ffffffff84160281526004810191909152602401602060405180830381600087803b151561094457600080fd5b6102c65a03f1151561095557600080fd5b5050506040518051600980548290039055600b546008549194508402925073__TransactLib___________________________915063e2992d299083863060006040516020015260405160e060020a63ffffffff871602815260048101949094526024840192909252600160a060020a03908116604484015216606482015260840160206040518083038186803b15156109ee57600080fd5b6102c65a03f415156109ff57600080fd5b505050604051805160085550610aec565b73__AdrLib________________________________6354859436600d8560006040516020015260405160e060020a63ffffffff85160281526004810192909252600160a060020a0316602482015260440160206040518083038186803b1515610a7857600080fd5b6102c65a03f41515610a8957600080fd5b5050506040518051905015610ae75782600160a060020a0316630ff372828560006040516020015260405160e060020a63ffffffff84160281526004810191909152602401602060405180830381600087803b151561094457600080fd5b600091505b5091959194509092505050565b60015433600160a060020a03908116911614156100cc57600981905542600a8190556001547fdf963fee409850630585bd095a505a9a956ef373cd706eb6eddec02d0a36731991600160a060020a039091169083906040518084600160a060020a0316600160a060020a03168152602001838152602001828152602001935050505060405180910390a16103bf565b6000806000600f84815481101515610b9c57fe5b9060005260206000209060030201600001549250600f84815481101515610bbf57fe5b9060005260206000209060030201600101549150600f84815481101515610be257fe5b90600052602060002090600302016002015490509193909250565b6000806000806000806009541115610e9e57600e5415610d6d575060005b600e54811015610d6857600e805482908110610c3357fe5b6000918252602082200154600954600160a060020a03909116935083916335f7f5e291906040516040015260405160e060020a63ffffffff841602815260048101919091526024016040805180830381600087803b1515610c9357600080fd5b6102c65a03f11515610ca457600080fd5b50505060405180519060200180516009805484900390556008549297508781029650945073__TransactLib___________________________9163e2992d29915086853060006040516020015260405160e060020a63ffffffff871602815260048101949094526024840192909252600160a060020a03908116604484015216606482015260840160206040518083038186803b1515610d4357600080fd5b6102c65a03f41515610d5457600080fd5b505050604051805160085550600101610c1b565b610e9e565b600354600954600160a060020a03909116906335f7f5e29060006040516040015260405160e060020a63ffffffff841602815260048101919091526024016040805180830381600087803b1515610dc357600080fd5b6102c65a03f11515610dd457600080fd5b5050506040518051906020018051600980548490039055600854600354939850888202975090955073__TransactLib___________________________9263e2992d2992508790600160a060020a03163060006040516020015260405160e060020a63ffffffff871602815260048101949094526024840192909252600160a060020a03908116604484015216606482015260840160206040518083038186803b1515610e8057600080fd5b6102c65a03f41515610e9157600080fd5b5050506040518051600855505b5050505050565b60005433600160a060020a03908116911614156100cc57600e805460018101610ece838261121f565b5060009182526020909120018054600160a060020a031916600160a060020a0383161790557f34ff05936c7ffe85555df53a7bf1374ed025703c493a74c4ce3316646f950e1642604051602081019190915260408082526014818301527f42617474657279206c696e6b656420746f20505600000000000000000000000060608301526080909101905180910390a16103bf565b60005433600160a060020a03908116911614156100cc5760038054600160a060020a031916600160a060020a0383161790556103bf565b600954600a549091565b60015433600160a060020a03908116911614156100cc57600b81905542600c8190557fae46785019700e30375a5d7b4f91e32f8060ef085111f896ebf889450aa2ab5a9060405190815260200160405180910390a16103bf565b600b54600754600c54600091429101101561101a5750600061101e565b5060015b9091565b60005433600160a060020a03908116911614156100cc576000828152600560205260409020805460018101611057838261121f565b5060009182526020909120018054600160a060020a031916600160a060020a0383161790555b5050565b600090815260136020908152604080832054600160a060020a03168084526012909252909120805460018201546002909201549293909290565b6000805b60105481101561107d5773__SortRLib______________________________63f37de025600f60006040516020015260405160e060020a63ffffffff8416028152600481019190915260240160206040518083038186803b151561112257600080fd5b6102c65a03f4151561113357600080fd5b50505060405180519050915061114b818383016111cc565b73__SortRLib______________________________63b5762770600f8460405160e060020a63ffffffff85160281526004810192909252602482015260440160006040518083038186803b15156111a157600080fd5b6102c65a03f415156111b257600080fd5b5050506001016110bf565b600054600160a060020a031681565b600082821461121a57506000828152601360205260408082208054848452919092208054600160a060020a0319808416600160a060020a039283161790945581549093169290911691821790555b505050565b81548183558181151161121a5760008381526020902061121a91810190830161126f565b81548183558181151161121a5760030281600302836000526020600020918201910161121a919061128d565b6103c691905b808211156112895760008155600101611275565b5090565b6103c691905b808211156112895760008082556001820181905560028201556003016112935600a165627a7a7230582097796f6cf222a66f605c61cd2d9375bd4bf5a1daaced6ca3fa3f32b5272236e40029606060405260038054600160a060020a031916905561012c600a819055600d55341561002a57600080fd5b6040516040806117ad833981016040528080519190602001805160018054600160a060020a03958616600160a060020a0319918216179091556000805433909616959091169490941790935550506007556117238061008a6000396000f3006060604052600436106101035763ffffffff60e060020a6000350416630a71db5e81146101085780630e00c316146101295780630ff37282146101605780632fbc0bf11461018857806335f7f5e2146101b55780633d7224dc146101e35780633fd2007d146101f657806341977cf51461020c5780634559dcdc1461022b5780636a95841b1461024157806379c19df0146102575780638cdc86a61461026a5780638d646b111461027d578063b148f82b1461029c578063bfd11903146102bb578063c9746029146102dd578063cf7fc762146102f0578063d5adad541461032f578063f7d9757714610382578063fba301671461039b578063ff1b636d146103ae575b600080fd5b341561011357600080fd5b610127600160a060020a03600435166103dd565b005b341561013457600080fd5b61013c610499565b60405180848152602001838152602001828152602001935050505060405180910390f35b341561016b57600080fd5b6101766004356104a9565b60405190815260200160405180910390f35b341561019357600080fd5b61019b61069a565b604051918252151560208201526040908101905180910390f35b34156101c057600080fd5b6101cb6004356106bf565b60405191825260208201526040908101905180910390f35b34156101ee57600080fd5b6101276107ed565b341561020157600080fd5b6101cb600435610a00565b341561021757600080fd5b610127600160a060020a0360043516610c66565b341561023657600080fd5b610127600435610d23565b341561024c57600080fd5b610127600435610db2565b341561026257600080fd5b610176610de6565b341561027557600080fd5b610127610ded565b341561028857600080fd5b610127600160a060020a0360043516610f26565b34156102a757600080fd5b610176600160a060020a0360043516610f5d565b34156102c657600080fd5b610127600435600160a060020a0360243516610fd3565b34156102e857600080fd5b610127611032565b34156102fb57600080fd5b610303611214565b604051938452602084019290925260408084019190915290151560608301526080909101905180910390f35b341561033a57600080fd5b61034560043561126f565b6040518085600160a060020a0316600160a060020a0316815260200184815260200183815260200182815260200194505050505060405180910390f35b341561038d57600080fd5b6101276004356024356112a9565b34156103a657600080fd5b610127611308565b34156103b957600080fd5b6103c161140a565b604051600160a060020a03909116815260200160405180910390f35b60005433600160a060020a03908116911614156101035760108054600181016104068382611610565b5060009182526020909120018054600160a060020a031916600160a060020a0383161790557f34ff05936c7ffe85555df53a7bf1374ed025703c493a74c4ce3316646f950e1642604051602081019190915260408082526017818301527f486f757365206c696e6b656420746f204261747465727900000000000000000060608301526080909101905180910390a15b50565b600854600b546007549192909190565b6000338173__AdrLib________________________________6354859436601184846040516020015260405160e060020a63ffffffff85160281526004810192909252600160a060020a0316602482015260440160206040518083038186803b151561051457600080fd5b6102c65a03f4151561052557600080fd5b50505060405180519050806105475750600354600160a060020a038381169116145b151561055257600080fd5b60095473__TransactLib___________________________63bc2e368c90918660006040516020015260405160e060020a63ffffffff85160281526004810192909252602482015260440160206040518083038186803b15156105b457600080fd5b6102c65a03f415156105c557600080fd5b5050506040518051600880548201905560095490925073__TransactLib___________________________9150639e5fd0a990833060006040516020015260405160e060020a63ffffffff861602815260048101939093526024830191909152600160a060020a0316604482015260640160206040518083038186803b151561064d57600080fd5b6102c65a03f4151561065e57600080fd5b505050604051805160095550600160a060020a0382166000908152601460205260409020546006805491830290910390559150815b5050919050565b600e54600d54600c5460009142910110156106b7575060006106bb565b5060015b9091565b600080600f5490508273__TransactLib___________________________63bc2e368c90916008546007540360006040516020015260405160e060020a63ffffffff85160281526004810192909252602482015260440160206040518083038186803b151561072d57600080fd5b6102c65a03f4151561073e57600080fd5b50505060405180519050915060085473__TransactLib___________________________63994459079091843060006040516020015260405160e060020a63ffffffff861602815260048101939093526024830191909152600160a060020a0316604482015260640160206040518083038186803b15156107be57600080fd5b6102c65a03f415156107cf57600080fd5b50505060405180516008555060068054838302900390559092909150565b6000806000806000806010805490506016816108099190611634565b50600090505b6010548110156109e557601080548290811061082757fe5b6000918252602082200154600160a060020a0316906338a3528c90604051608001526040518163ffffffff1660e060020a028152600401608060405180830381600087803b151561087757600080fd5b6102c65a03f1151561088857600080fd5b505050604051805190602001805190602001805190602001805193995091975095509093505082156109dd5760606040519081016040528087815260200186815260200185815250601960006010848154811015156108e357fe5b6000918252602080832090910154600160a060020a0316835282019290925260400190208151815560208201518160010155604082015181600201559050506019600060108381548110151561093557fe5b6000918252602080832090910154600160a060020a031683528201929092526040019020601680548490811061096757fe5b60009182526020909120825460039092020190815560018083015490820155600291820154910155601080548290811061099d57fe5b6000918252602080832090910154848352601a90915260409091208054600160a060020a031916600160a060020a03909216919091179055600191909101905b60010161080f565b816109f1601682611634565b50506018555050426017555050565b6000818152601a6020908152604080832054600854600160a060020a039091168085526019909352818420548493849390928492839273__TransactLib___________________________9263bc2e368c9290918590516020015260405160e060020a63ffffffff85160281526004810192909252602482015260440160206040518083038186803b1515610a9457600080fd5b6102c65a03f41515610aa557600080fd5b5050506040518051945073__AdrLib________________________________9050635485943660108560006040516020015260405160e060020a63ffffffff85160281526004810192909252600160a060020a0316602482015260440160206040518083038186803b1515610b1957600080fd5b6102c65a03f41515610b2a57600080fd5b5050506040518051905015610c545782600160a060020a0316630ff372828560006040516020015260405160e060020a63ffffffff84160281526004810191909152602401602060405180830381600087803b1515610b8857600080fd5b6102c65a03f11515610b9957600080fd5b5050506040518051600880548290039055600e546006549194508402925073__TransactLib___________________________915063e2992d299083863060006040516020015260405160e060020a63ffffffff871602815260048101949094526024840192909252600160a060020a03908116604484015216606482015260840160206040518083038186803b1515610c3257600080fd5b6102c65a03f41515610c4357600080fd5b505050604051805160065550610c59565b600091505b5091959194509092505050565b60005433600160a060020a0390811691161415610103576011805460018101610c8f8382611610565b5060009182526020909120018054600160a060020a031916600160a060020a0383161790557f34ff05936c7ffe85555df53a7bf1374ed025703c493a74c4ce3316646f950e1642604051602081019190915260408082526014818301527f5056206c696e6b656420746f204261747465727900000000000000000000000060608301526080909101905180910390a1610496565b60015433600160a060020a039081169116141561010357600881905542600b8190556001547fa8533a3e28bf00cd05018ed80847d3d6f170da084f6417da50798db7335ff9a091600160a060020a039091169083906040518084600160a060020a0316600160a060020a03168152602001838152602001828152602001935050505060405180910390a1610496565b60015433600160a060020a03908116911614156101035760075460085482011115610ddc57600080fd5b6009819055610496565b6009545b90565b6000806000610dfa611419565b600354600160a060020a031615610e18576011546001019150610e1e565b60115491505b5060005b81811015610f215773__SortLib_______________________________63f27da568601260006040516020015260405160e060020a63ffffffff8416028152600481019190915260240160206040518083038186803b1515610e8357600080fd5b6102c65a03f41515610e9457600080fd5b505050604051805190509250610eaf816001840303846115c3565b73__SortLib_______________________________6343168c1b60128560405160e060020a63ffffffff85160281526004810192909252602482015260440160006040518083038186803b1515610f0557600080fd5b6102c65a03f41515610f1657600080fd5b505050600101610e22565b505050565b60005433600160a060020a03908116911614156101035760038054600160a060020a031916600160a060020a038316179055610496565b60035460009081908190600160a060020a031615610f82576011546001019150610f88565b60115491505b5060005b81811015610fc957600081815260156020526040902054600160a060020a0385811691161415610fc157806001019250610693565b600101610f8c565b5060009392505050565b60005433600160a060020a03908116911614156101035760008281526005602052604090208054600181016110088382611610565b5060009182526020909120018054600160a060020a031916600160a060020a0383161790555b5050565b600080805b60115481101561113a57601180548290811061104f57fe5b6000918252602082200154600160a060020a0316906398d5fdca90604051604001526040518163ffffffff1660e060020a0281526004016040805180830381600087803b151561109e57600080fd5b6102c65a03f115156110af57600080fd5b5050506040518051906020018051919450909250604090508051908101604052838152821515602082015260118054601491600091859081106110ee57fe5b6000918252602080832090910154600160a060020a0316835282019290925260400190208151815560208201516001918201805460ff1916911515919091179055919091019050611037565b600354600160a060020a03161561120b57600354600160a060020a03166398d5fdca6000604051604001526040518163ffffffff1660e060020a0281526004016040805180830381600087803b151561119257600080fd5b6102c65a03f115156111a357600080fd5b50505060405180519060200180519194509092506040905080519081016040908152848252831515602080840191909152600354600160a060020a03166000908152601490915220815181556020820151600191909101805460ff1916911515919091179055505b50504260135550565b600954600080803361122581610f5d565b600354909450600160a060020a03161561124657601154600101925061124c565b60115492505b42600d546013540110156112635760009150611268565b600191505b5090919293565b6000908152601a6020908152604080832054600160a060020a03168084526019909252909120805460018201546002909201549293909290565b60015433600160a060020a039081169116141561010357600e829055600f81905542600c8190557fae46785019700e30375a5d7b4f91e32f8060ef085111f896ebf889450aa2ab5a9060405190815260200160405180910390a161102e565b6000805b60185481101561102e5773__SortRLib______________________________63f37de025601660006040516020015260405160e060020a63ffffffff8416028152600481019190915260240160206040518083038186803b151561136f57600080fd5b6102c65a03f4151561138057600080fd5b505050604051805190509150611398818383016115c3565b73__SortRLib______________________________63b576277060168460405160e060020a63ffffffff85160281526004810192909252602482015260440160006040518083038186803b15156113ee57600080fd5b6102c65a03f415156113ff57600080fd5b50505060010161130c565b600054600160a060020a031681565b600354600090600160a060020a0316156114445760115460010161143e601282611660565b50611454565b601154611452601282611660565b505b5060005b601154811015611525576014600060118381548110151561147557fe5b6000918252602080832090910154600160a060020a03168352820192909252604001902060128054839081106114a757fe5b6000918252602090912082546002909202019081556001918201549101805460ff191660ff909216151591909117905560118054829081106114e557fe5b6000918252602080832090910154838352601590915260409091208054600160a060020a031916600160a060020a03909216919091179055600101611458565b506011545b60125481101561049657600354600160a060020a03166000908152601460205260409020601280548390811061155c57fe5b600091825260208083208454600290930201918255600193840154918401805460ff909316151560ff1990931692909217909155600354848352601590915260409091208054600160a060020a031916600160a060020a039092169190911790550161152a565b6000828214610f215750600091825260156020526040808320805492845292208054600160a060020a03908116600160a060020a0319808516919091179094558154921691909216179055565b815481835581811511610f2157600083815260209020610f2191810190830161168c565b815481835581811511610f2157600302816003028360005260206000209182019101610f2191906116aa565b815481835581811511610f2157600202816002028360005260206000209182019101610f2191906116d1565b610dea91905b808211156116a65760008155600101611692565b5090565b610dea91905b808211156116a65760008082556001820181905560028201556003016116b0565b610dea91905b808211156116a6576000815560018101805460ff191690556002016116d75600a165627a7a72305820590a2d599cedfa84b5e51bee8c1ad0bb147c11725a7da72feb592b655c4364340029a165627a7a72305820c845da3588c79da10c988e2d97b067ff54a7e0401892ec0ceffad98400cdfe420029",
  "source": "pragma solidity ^0.4.4;\n\nimport \"./SingleHouse.sol\";\nimport \"./SinglePV.sol\";\nimport \"./SingleBattery.sol\";\nimport \"./Grid.sol\";\n\ncontract Configuration {\n\n  address public admin = msg.sender; // only the admin node can modify the configuration...\n  address public gridAdr;          // store the address of grid...(address of the transformer that links to the grid... not the contract address)\n  uint public statusAt; // timestamp of the creation of Configuration instance\n\n  // The variables below should be deleted...\n  uint8 public numHouseTotal;       // number of houses in the system\n  uint8 public numPVTotal;          // number of PVs in the system\n  uint8 public numBatteryTotal;     // number of batteries in the system\n  \n  uint8 private numHouseCurrent = 0;    // current houses in the system\n  uint8 private numPVCurrent = 0;       // current PVs in the system\n  uint8 private numBatteryCurrent = 0;    // current batteries in the system\n\n  // Several types of devices in the system\n  enum deviceType {House, PV, Battery}\n\n  struct EndUser {\n    deviceType  dType;\n    address     cAddress;           // address of the contract\n    uint        statusAt;           // timestamp of the creation\n    mapping(address=>EndUser) connectedUser;     // List of another node connected.\n  }\n\n\n  mapping(address=>EndUser) userList;   // the account of the owner => struct\n  mapping(address=>address) contractList;   // now putting all the linkage to real contract address into this mapping\n\n  // Restricts execution by admin only\n  modifier adminOnly {\n    if(msg.sender == admin){\n      _;\n    } else {\n      revert();\n    }\n  }\n  \n  event LogConfig(uint numHouses, uint numPV, uint numBattery, uint statusat);\n  event LogDevice(address deviceAdr);\n  event LogConnection(address device1, address device2);\n\n  function Configuration(uint8 numHouse, uint8 numPV, uint8 numBattery) adminOnly {\n      // constructor\n      numHouseTotal = numHouse;\n      numPVTotal = numPV;\n      numBatteryTotal = numBattery;\n      statusAt = now;\n      // create the grid contract\n      LogConfig(numHouseTotal,numPVTotal,numBatteryTotal,statusAt);\n  }\n\n  function addGrid(address adr) adminOnly {\n      contractList[adr] = new Grid(adr);\n      gridAdr = address(contractList[adr]);\n  }\n\n  function addDevice(uint8 _deviceType, address adr, uint capacity, bool g) adminOnly public {\n      require (_deviceType < 3); //addBattery\n      if (_deviceType == 0) {   // addHouse\n        contractList[adr] = new SingleHouse(adr);\n        numHouseCurrent++;\n        if (g) {\n          GeneralDevice(contractList[adr]).setGridAdr(gridAdr);\n          Grid(gridAdr).addH(contractList[adr]);\n        }\n      } else if (_deviceType == 1) {    //addPV\n        contractList[adr] = new SinglePV(adr);\n        numPVCurrent++;\n        if (g) {\n            GeneralDevice(contractList[adr]).setGridAdr(gridAdr);\n            Grid(gridAdr).addPV(contractList[adr]);\n        }\n      } else {\n        contractList[adr] = new SingleBattery(adr, capacity);\n        numBatteryCurrent++;\n        if (g) {\n            GeneralDevice(contractList[adr]).setGridAdr(gridAdr);\n            Grid(gridAdr).addB(contractList[adr]);\n        }\n      }\n      EndUser memory tempEU;\n      tempEU.dType = deviceType(_deviceType);\n      tempEU.cAddress = address(contractList[adr]);\n      tempEU.statusAt = now;\n      userList[adr] = tempEU;\n\n      LogDevice(adr);\n  }\n\n    function getContractAddress(address adr) view adminOnly returns(address) {\n      return address(contractList[adr]);\n    }  \n\n    function getDeviceType(address adr) returns (uint8) {\n        // deviceType {House,PV,Battery}\n        \n        if (userList[adr].cAddress != 0x0) {\n            return uint8(userList[adr].dType);\n        } else {\n            return 15;   // when the address corresponds no device in the configuration...\n        }\n    }\n\n    function linkDevices(address adr1, address adr2) adminOnly {\n        uint8[2] memory dt;\n        dt[0] = getDeviceType(adr1);\n        dt[1] = getDeviceType(adr2);\n        require(dt[0]<3 && userList[adr1].connectedUser[adr2].cAddress == 0x0);\n        require(dt[1]<3 && userList[adr2].connectedUser[adr1].cAddress == 0x0);\n        userList[adr1].connectedUser[adr2] = userList[adr2];\n        userList[adr2].connectedUser[adr1] = userList[adr1];\n\n        GeneralDevice(address(contractList[adr1])).addConnectedDevice(dt[1],address(contractList[adr2]));\n        GeneralDevice(address(contractList[adr2])).addConnectedDevice(dt[0],address(contractList[adr1]));\n        \n        LogConnection(adr1,adr2);\n    }\n\n    // test functions\n\n    function getAdmin() constant returns (address) {\n        return admin;\n    } \n\n    function getGridAdr() constant returns(address) {\n        return gridAdr;\n    } \n\n}\n",
  "sourcePath": "C:\\Users\\qianc\\Documents\\Thesis\\Code\\SimpleMonitor\\contracts\\Configuration.sol",
  "compiler": {
    "name": "solc",
    "version": "0.4.18+commit.9cf6e910.Emscripten.clang"
  },
  "schemaVersion": "1.0.1",
  "updatedAt": "2017-11-26T15:56:44.950Z"
}