{
  "contractName": "Configuration",
  "abi": [
    {
      "constant": false,
      "inputs": [
        {
          "name": "adr",
          "type": "address"
        }
      ],
      "name": "addGrid",
      "outputs": [],
      "payable": false,
      "stateMutability": "nonpayable",
      "type": "function"
    },
    {
      "constant": true,
      "inputs": [
        {
          "name": "adr",
          "type": "address"
        }
      ],
      "name": "getContractAddress",
      "outputs": [
        {
          "name": "",
          "type": "address"
        }
      ],
      "payable": false,
      "stateMutability": "view",
      "type": "function"
    },
    {
      "constant": true,
      "inputs": [],
      "name": "getAdmin",
      "outputs": [
        {
          "name": "",
          "type": "address"
        }
      ],
      "payable": false,
      "stateMutability": "view",
      "type": "function"
    },
    {
      "constant": true,
      "inputs": [],
      "name": "statusAt",
      "outputs": [
        {
          "name": "",
          "type": "uint256"
        }
      ],
      "payable": false,
      "stateMutability": "view",
      "type": "function"
    },
    {
      "constant": false,
      "inputs": [
        {
          "name": "adr1",
          "type": "address"
        },
        {
          "name": "adr2",
          "type": "address"
        }
      ],
      "name": "linkDevices",
      "outputs": [],
      "payable": false,
      "stateMutability": "nonpayable",
      "type": "function"
    },
    {
      "constant": true,
      "inputs": [],
      "name": "gridAdr",
      "outputs": [
        {
          "name": "",
          "type": "address"
        }
      ],
      "payable": false,
      "stateMutability": "view",
      "type": "function"
    },
    {
      "constant": false,
      "inputs": [
        {
          "name": "adr",
          "type": "address"
        }
      ],
      "name": "getDeviceType",
      "outputs": [
        {
          "name": "",
          "type": "uint8"
        }
      ],
      "payable": false,
      "stateMutability": "nonpayable",
      "type": "function"
    },
    {
      "constant": false,
      "inputs": [
        {
          "name": "_deviceType",
          "type": "uint8"
        },
        {
          "name": "adr",
          "type": "address"
        },
        {
          "name": "capacity",
          "type": "uint256"
        },
        {
          "name": "g",
          "type": "bool"
        }
      ],
      "name": "addDevice",
      "outputs": [],
      "payable": false,
      "stateMutability": "nonpayable",
      "type": "function"
    },
    {
      "constant": true,
      "inputs": [],
      "name": "getGridAdr",
      "outputs": [
        {
          "name": "",
          "type": "address"
        }
      ],
      "payable": false,
      "stateMutability": "view",
      "type": "function"
    },
    {
      "constant": true,
      "inputs": [],
      "name": "admin",
      "outputs": [
        {
          "name": "",
          "type": "address"
        }
      ],
      "payable": false,
      "stateMutability": "view",
      "type": "function"
    },
    {
      "inputs": [],
      "payable": false,
      "stateMutability": "nonpayable",
      "type": "constructor"
    },
    {
      "anonymous": false,
      "inputs": [
        {
          "indexed": false,
          "name": "deviceAdr",
          "type": "address"
        }
      ],
      "name": "LogDevice",
      "type": "event"
    },
    {
      "anonymous": false,
      "inputs": [
        {
          "indexed": false,
          "name": "device1",
          "type": "address"
        },
        {
          "indexed": false,
          "name": "device2",
          "type": "address"
        }
      ],
      "name": "LogConnection",
      "type": "event"
    }
  ],
  "bytecode": "0x606060405260008054600160a060020a03191633600160a060020a03161790556003805462ffffff19169055341561003657600080fd5b60005433600160a060020a0390811691161415610056574260025561005b565b600080fd5b6152288061006a6000396000f30060606040526004361061008a5763ffffffff60e060020a6000350416633474efe6811461008f578063622bc90e146100b05780636e9960c3146100eb57806380f57b3b146100fe5780638368bfcf14610123578063a1f51d0314610148578063bb2f6e2c1461015b578063d88b354314610190578063f0c998ec146101bd578063f851a440146101d0575b600080fd5b341561009a57600080fd5b6100ae600160a060020a03600435166101e3565b005b34156100bb57600080fd5b6100cf600160a060020a0360043516610274565b604051600160a060020a03909116815260200160405180910390f35b34156100f657600080fd5b6100cf6102ae565b341561010957600080fd5b6101116102bd565b60405190815260200160405180910390f35b341561012e57600080fd5b6100ae600160a060020a03600435811690602435166102c3565b341561015357600080fd5b6100cf610646565b341561016657600080fd5b61017a600160a060020a0360043516610655565b60405160ff909116815260200160405180910390f35b341561019b57600080fd5b6100ae60ff60043516600160a060020a036024351660443560643515156106b3565b34156101c857600080fd5b6100cf610aad565b34156101db57600080fd5b6100cf610abc565b60005433600160a060020a039081169116141561008a5780610203610acb565b600160a060020a039091168152602001604051809103906000f080151561022957600080fd5b600160a060020a038083166000908152600560205260409020805492821673ffffffffffffffffffffffffffffffffffffffff19938416179081905560018054909316911617905550565b6000805433600160a060020a039081169116141561008a5750600160a060020a03808216600090815260056020526040902054165b919050565b600054600160a060020a031690565b60025481565b6102cb610adb565b60005433600160a060020a039081169116141561008a576102eb83610655565b60ff1681526102f982610655565b60ff1660208201526003815160ff161080156103425750600160a060020a0380841660009081526004602090815260408083208685168452600201909152902054610100900416155b151561034d57600080fd5b6003602082015160ff161080156103915750600160a060020a0380831660009081526004602090815260408083208785168452600201909152902054610100900416155b151561039c57600080fd5b600160a060020a03808316600081815260046020908152604080832094881683528083209383526002938401909152902082548154919260ff90911691839160ff199091169060019084908111156103f057fe5b02179055508154815474ffffffffffffffffffffffffffffffffffffffff00191661010091829004600160a060020a03908116909202178255600192830154918301919091558481166000818152600460209081526040808320948816835280832093835260029384019091529020825481549394919360ff90911692849260ff199092169190849081111561048257fe5b02179055508154815474ffffffffffffffffffffffffffffffffffffffff00191661010091829004600160a060020a0390811690920217825560019283015491830191909155848116600090815260056020526040902054169063bfd119039083906020020151600160a060020a038086166000908152600560205260409081902054909116905160e060020a63ffffffff851602815260ff9092166004830152600160a060020a03166024820152604401600060405180830381600087803b151561054d57600080fd5b6102c65a03f1151561055e57600080fd5b505050600160a060020a038281166000908152600560205260409020541663bfd119038251600160a060020a038087166000908152600560205260409081902054909116905160e060020a63ffffffff851602815260ff9092166004830152600160a060020a03166024820152604401600060405180830381600087803b15156105e757600080fd5b6102c65a03f115156105f857600080fd5b5050507f2defa27bb08b7ca89bc5fb146b34db072eccd285461d98ae368b88088a6cb8ec8383604051600160a060020a039283168152911660208201526040908101905180910390a1505050565b600154600160a060020a031681565b600160a060020a03808216600090815260046020526040812054909161010090910416156106ab57600160a060020a03821660009081526004602052604090205460ff1660028111156106a457fe5b90506102a9565b50600f6102a9565b6106bb610b02565b60005433600160a060020a039081169116141561008a57600360ff8616106106e257600080fd5b60ff8516151561077357836106f5610b24565b600160a060020a039091168152602001604051809103906000f080151561071b57600080fd5b600160a060020a038581166000908152600560205260409020805473ffffffffffffffffffffffffffffffffffffffff1916929091169190911790556003805460ff19811660ff9182166001019091161790556108a4565b8460ff166001141561080f5783610788610b34565b600160a060020a039091168152602001604051809103906000f08015156107ae57600080fd5b600160a060020a038581166000908152600560205260409020805473ffffffffffffffffffffffffffffffffffffffff1916929091169190911790556003805461ff001981166101009182900460ff908116600101169091021790556108a4565b8383610819610b44565b600160a060020a039092168252602082015260409081019051809103906000f080151561084557600080fd5b600160a060020a038581166000908152600560205260409020805473ffffffffffffffffffffffffffffffffffffffff1916929091169190911790556003805462ff0000198116620100009182900460ff908116600101169091021790555b81156109ac57600160a060020a03808516600090815260056020526040908190205460015490831692638d646b11929116905160e060020a63ffffffff8416028152600160a060020a039091166004820152602401600060405180830381600087803b151561091257600080fd5b6102c65a03f1151561092357600080fd5b5050600154600160a060020a038681166000908152600560205260409081902054928216935063bfd1190392899216905160e060020a63ffffffff851602815260ff9092166004830152600160a060020a03166024820152604401600060405180830381600087803b151561099757600080fd5b6102c65a03f115156109a857600080fd5b5050505b8460ff1660028111156109bb57fe5b819060028111156109c857fe5b908160028111156109d557fe5b905250600160a060020a03808516600081815260056020908152604080832054909416858201524285850152918152600490915220819081518154829060ff19166001836002811115610a2457fe5b021790555060208201518154600160a060020a03919091166101000274ffffffffffffffffffffffffffffffffffffffff00199091161781556040820151600190910155507f65c506643f4516f3ef335c5dd71017b8e849268cd860c3235c7db2c62fd8e93b84604051600160a060020a03909116815260200160405180910390a15050505050565b600154600160a060020a031690565b600054600160a060020a031681565b60405161086a80610b5583390190565b604080519081016040526002815b600081526000199091019060200181610ae95790505090565b6060604051908101604052806000815260006020820181905260409091015290565b60405161127c806113bf83390190565b60405161138d8061263b83390190565b604051611835806139c8833901905600606060405260038054600160a060020a031916905561012c60075560646008819055600955341561002f57600080fd5b60405160208061086a8339810160405280805160018054600160a060020a03928316600160a060020a03199182161790915560008054339093169290911691909117905550506107e6806100846000396000f3006060604052600436106100745763ffffffff60e060020a60003504166335f7f5e281146100795780636e285544146100a75780638d646b11146100bd57806398d5fdca146100de578063bfd119031461010b578063cb99c1571461012d578063f7d9757714610140578063ff1b636d14610159575b600080fd5b341561008457600080fd5b61008f600435610188565b60405191825260208201526040908101905180910390f35b34156100b257600080fd5b61008f6004356102b2565b34156100c857600080fd5b6100dc600160a060020a03600435166103e5565b005b34156100e957600080fd5b6100f1610427565b604051918252151560208201526040908101905180910390f35b341561011657600080fd5b6100dc600435600160a060020a036024351661044c565b341561013857600080fd5b6100dc6104b8565b341561014b57600080fd5b6100dc600435602435610737565b341561016457600080fd5b61016c610761565b604051600160a060020a03909116815260200160405180910390f35b600080600b5490508273__TransactLib___________________________63bc2e368c909160095460006040516020015260405160e060020a63ffffffff85160281526004810192909252602482015260440160206040518083038186803b15156101f257600080fd5b6102c65a03f4151561020357600080fd5b50505060405180519050915060095473__TransactLib___________________________639e5fd0a99091843060006040516020015260405160e060020a63ffffffff861602815260048101939093526024830191909152600160a060020a0316604482015260640160206040518083038186803b151561028357600080fd5b6102c65a03f4151561029457600080fd5b50505060405180516009555060068054838302900390559092909150565b600080600a5490508273__TransactLib___________________________63bc2e368c909160085460006040516020015260405160e060020a63ffffffff85160281526004810192909252602482015260440160206040518083038186803b151561031c57600080fd5b6102c65a03f4151561032d57600080fd5b505050604051805160088054829003905560065490935073__TransactLib___________________________915063e2992d2990838502333060006040516020015260405160e060020a63ffffffff871602815260048101949094526024840192909252600160a060020a03908116604484015216606482015260840160206040518083038186803b15156103c157600080fd5b6102c65a03f415156103d257600080fd5b5050506040518051600655509092909150565b60005433600160a060020a0390811691161415610074576003805473ffffffffffffffffffffffffffffffffffffffff1916600160a060020a03831617905550565b600a54600754600c54600091429101101561044457506000610448565b5060015b9091565b60005433600160a060020a03908116911614156100745760008281526005602052604090208054600181016104818382610770565b506000918252602090912001805473ffffffffffffffffffffffffffffffffffffffff1916600160a060020a0383161790555b5050565b6000808080808080805b600260005260056020527f89832631fb3c3307a103ba2c84ab569c64d6182a18893dcd163f0f1c2090733a5481101561072d57600260005260056020527f89832631fb3c3307a103ba2c84ab569c64d6182a18893dcd163f0f1c2090733a80548290811061052c57fe5b6000918252602082200154600160a060020a03169063cf7fc76290604051608001526040518163ffffffff1660e060020a028152600401608060405180830381600087803b151561057c57600080fd5b6102c65a03f1151561058d57600080fd5b5050506040518051906020018051906020018051906020018051939b50919950975090955085905080156105c057508715155b1561072557600260005260056020527f89832631fb3c3307a103ba2c84ab569c64d6182a18893dcd163f0f1c2090733a8054829081106105fc57fe5b6000918252602082200154600854600160a060020a0390911693508391630ff3728291906040516020015260405160e060020a63ffffffff84160281526004810191909152602401602060405180830381600087803b151561065d57600080fd5b6102c65a03f1151561066e57600080fd5b5050506040518051600880548290039055600a546006549196508602945073__TransactLib___________________________915063e2992d299085853060006040516020015260405160e060020a63ffffffff871602815260048101949094526024840192909252600160a060020a03908116604484015216606482015260840160206040518083038186803b151561070757600080fd5b6102c65a03f4151561071857600080fd5b5050506040518051600655505b6001016104c2565b5050505050505050565b60015433600160a060020a039081169116141561007457600a829055600b81905542600c556104b4565b600054600160a060020a031681565b81548183558181151161079457600083815260209020610794918101908301610799565b505050565b6107b791905b808211156107b3576000815560010161079f565b5090565b905600a165627a7a723058205bbd71b9dd416bfbabdc614fbcef1a130c084eb2511ee37407ddec6cd94781f40029606060405260038054600160a060020a031916905561012c600655341561002557600080fd5b60405160208061127c8339810160405280805160018054600160a060020a03928316600160a060020a03199182161790915560008054339093169290911691909117905550506112028061007a6000396000f3006060604052600436106100b65763ffffffff60e060020a6000350416630ff3728281146100bb57806313299604146100e35780631628ce6c146100f657806338a3528c146101415780633acca96d146101545780635a500ecc146101695780638a5cb1b61461017f5780638b874f72146101aa5780638d646b11146101bd578063b148f82b146101dc578063bfd11903146101fb578063c97460291461021d578063e7e2741014610230578063ff1b636d14610262575b600080fd5b34156100c657600080fd5b6100d1600435610275565b60405190815260200160405180910390f35b34156100ee57600080fd5b6100d16104ff565b341561010157600080fd5b610115600160a060020a0360043516610506565b604051938452602084019290925260408084019190915290151560608301526080909101905180910390f35b341561014c57600080fd5b6101156105b0565b341561015f57600080fd5b6101676105cd565b005b341561017457600080fd5b610167600435610718565b341561018a57600080fd5b6101926107a6565b60405191825260208201526040908101905180910390f35b34156101b557600080fd5b6101676107c7565b34156101c857600080fd5b610167600160a060020a0360043516610a1a565b34156101e757600080fd5b6100d1600160a060020a0360043516610a51565b341561020657600080fd5b610167600435600160a060020a0360243516610acc565b341561022857600080fd5b610167610b2a565b341561023b57600080fd5b610246600435610dd6565b604051600160a060020a03909116815260200160405180910390f35b341561026d57600080fd5b610246610e18565b600260009081526005602052338173__AdrLib________________________________632c2fc20e6000805160206111b783398151915284846040516020015260405160e060020a63ffffffff85160281526004810192909252600160a060020a0316602482015260440160206040518083038186803b15156102f757600080fd5b6102c65a03f4151561030857600080fd5b50505060405180519050806103b7575060016000908152600560205273__AdrLib________________________________90632c2fc20e906000805160206111978339815191529085906040516020015260405160e060020a63ffffffff85160281526004810192909252600160a060020a0316602482015260440160206040518083038186803b151561039b57600080fd5b6102c65a03f415156103ac57600080fd5b505050604051805190505b15156103c257600080fd5b60075473__TransactLib___________________________63bc2e368c90918660006040516020015260405160e060020a63ffffffff85160281526004810192909252602482015260440160206040518083038186803b151561042457600080fd5b6102c65a03f4151561043557600080fd5b50505060405180519050905060075473__TransactLib___________________________639e5fd0a99091833060006040516020015260405160e060020a63ffffffff861602815260048101939093526024830191909152600160a060020a0316604482015260640160206040518083038186803b15156104b557600080fd5b6102c65a03f415156104c657600080fd5b505050604051805160075550600160a060020a0382166000908152600b6020526040902054600480549183029091039055915050919050565b6004545b90565b6007546000808061051685610a51565b600354909350600160a060020a0316156105615760056020526000805160206111b783398151915254600160008190526000805160206111978339815191525490910101915061058f565b60056020526000805160206111b7833981519152546001600052600080516020611197833981519152540191505b42600654600a540110156105a5575060006105a9565b5060015b9193509193565b6000806000806105bf33610506565b935093509350935090919293565b60035460009081908190600160a060020a031615156105eb57600080fd5b6000600754111561071357600354600754600160a060020a0390911690636e2855449060006040516040015260405160e060020a63ffffffff841602815260048101919091526024016040805180830381600087803b151561064c57600080fd5b6102c65a03f1151561065d57600080fd5b5050506040518051906020018051600754929550925073__TransactLib___________________________91639e5fd0a99150853060006040516020015260405160e060020a63ffffffff861602815260048101939093526024830191909152600160a060020a0316604482015260640160206040518083038186803b15156106e557600080fd5b6102c65a03f415156106f657600080fd5b505050604051805160075550600480548483029081900390915591505b505050565b60015433600160a060020a03908116911614156100b65760078190554260088190556001547f93e0cabaa551645c58979b9f1e87af3e09f708241c9bdd6468e581ad0651692691600160a060020a039091169083906040518084600160a060020a0316600160a060020a03168152602001838152602001828152602001935050505060405180910390a15b50565b60008060065480600854014210156100b65760075492506008549150509091565b60008060008060006107d7610e27565b60056020526000805160206111b7833981519152546001600090815260008051602061119783398151915254909101945092505b8383101561090d5773__SortLib_______________________________63f27da568600960006040516020015260405160e060020a63ffffffff8416028152600481019190915260240160206040518083038186803b151561086c57600080fd5b6102c65a03f4151561087d57600080fd5b505050604051805190509450610898836001860303866110b5565b73__SortLib_______________________________6343168c1b60098760405160e060020a63ffffffff85160281526004810192909252602482015260440160006040518083038186803b15156108ee57600080fd5b6102c65a03f415156108ff57600080fd5b50506001909301925061080b565b600354600160a060020a031615610a135750506003546000908190600160a060020a03166398d5fdca82604051604001526040518163ffffffff1660e060020a0281526004016040805180830381600087803b151561096b57600080fd5b6102c65a03f1151561097c57600080fd5b50505060405180519060200180519193509091506040905080519081016040908152838252821515602080840191909152600354600160a060020a03166000908152600b909152208151815560208201516001909101805491151560ff19909216919091179055506003546000858152600c602052604090208054600160a060020a031916600160a060020a039092169190911790555b5050505050565b60005433600160a060020a03908116911614156100b65760038054600160a060020a031916600160a060020a0383161790556107a3565b6000805b60056020526000805160206111b783398151915254600160008190526000805160206111978339815191525490910101811015610ac1576000818152600c6020526040902054600160a060020a0384811691161415610ab957806001019150610ac6565b600101610a55565b600091505b50919050565b60005433600160a060020a03908116911614156100b6576000828152600560205260409020805460018101610b018382611102565b5060009182526020909120018054600160a060020a031916600160a060020a0383161790555050565b600080805b6001600052600560205260008051602061119783398151915254811015610c7c5760016000526005602052600080516020611197833981519152805482908110610b7557fe5b6000918252602082200154600160a060020a0316906398d5fdca90604051604001526040518163ffffffff1660e060020a0281526004016040805180830381600087803b1515610bc457600080fd5b6102c65a03f11515610bd557600080fd5b50505060405180519060200180519194509092506040905080519081016040528381528215156020808301919091526001600090815260059091526000805160206111978339815191528054600b92919085908110610c3057fe5b6000918252602080832090910154600160a060020a0316835282019290925260400190208151815560208201516001918201805460ff1916911515919091179055919091019050610b2f565b5060005b600260005260056020526000805160206111b783398151915254811015610dcd57600260005260056020526000805160206111b7833981519152805482908110610cc657fe5b6000918252602082200154600160a060020a031690632fbc0bf190604051604001526040518163ffffffff1660e060020a0281526004016040805180830381600087803b1515610d1557600080fd5b6102c65a03f11515610d2657600080fd5b50505060405180519060200180519194509092506040905080519081016040528381528215156020808301919091526002600090815260059091526000805160206111b78339815191528054600b92919085908110610d8157fe5b6000918252602080832090910154600160a060020a0316835282019290925260400190208151815560208201516001918201805460ff1916911515919091179055919091019050610c80565b505042600a5550565b600160009081526005602052600080516020611197833981519152805483908110610dfd57fe5b600091825260209091200154600160a060020a031692915050565b600054600160a060020a031681565b60056020526000805160206111b7833981519152546001600090815260008051602061119783398151915254909101610e61600982611126565b50600090505b6001600052600560205260008051602061119783398151915254811015610f7b576001600090815260056020526000805160206111978339815191528054600b92919084908110610eb457fe5b6000918252602080832090910154600160a060020a0316835282019290925260400190206009805483908110610ee657fe5b60009182526020808320845460029390930201918255600193840154918401805460ff191660ff90931615159290921790915591905260059052600080516020611197833981519152805482908110610f3b57fe5b6000918252602080832090910154838352600c90915260409091208054600160a060020a031916600160a060020a03909216919091179055600101610e67565b5060016000526005602052600080516020611197833981519152545b6009548110156107a357600560205260016000908152600080516020611197833981519152546000805160206111b78339815191528054600b93928503908110610fdd57fe5b6000918252602080832090910154600160a060020a031683528201929092526040019020600980548390811061100f57fe5b60009182526020808320845460029390930201918255600193840154918401805460ff191660ff9093161515929092179091556005905252600080516020611197833981519152546000805160206111b783398151915280549091830390811061107557fe5b6000918252602080832090910154838352600c90915260409091208054600160a060020a031916600160a060020a03909216919091179055600101610f97565b600082821461071357506000918252600c6020526040808320805492845292208054600160a060020a03908116600160a060020a0319808516919091179094558154921691909216179055565b81548183558181151161071357600083815260209020610713918101908301611152565b815481835581811511610713576002028160020283600052602060002091820191016107139190611170565b61050391905b8082111561116c5760008155600101611158565b5090565b61050391905b8082111561116c576000815560018101805460ff1916905560020161117656001471eb6eb2c5e789fc3de43f8ce62938c7d1836ec861730447e2ada8fd81017b89832631fb3c3307a103ba2c84ab569c64d6182a18893dcd163f0f1c2090733aa165627a7a723058201a64288b9d74e0363ebeec1966aa36a68847828d48bb7248511024d69fa6db600029606060405260038054600160a060020a031916905561012c6006819055600755341561002a57600080fd5b60405160208061138d8339810160405280805160018054600160a060020a03928316600160a060020a031991821617909155600080543390931692909116919091179055505061130e8061007f6000396000f3006060604052600436106100b65763ffffffff60e060020a6000350416631329960481146100bb5780633d7224dc146100e05780633fd2007d146100f5578063567cc2b61461012357806366b294431461013957806367a2829d146101735780638d646b11146101865780638e4dfebb146101a557806391b7f5ed146101b857806398d5fdca146101ce578063bfd11903146101fb578063d5adad541461021d578063fba3016714610270578063ff1b636d14610283575b600080fd5b34156100c657600080fd5b6100ce6102b2565b60405190815260200160405180910390f35b34156100eb57600080fd5b6100f36102b9565b005b341561010057600080fd5b61010b6004356107c8565b60405191825260208201526040908101905180910390f35b341561012e57600080fd5b6100f3600435610b39565b341561014457600080fd5b61014f600435610bc7565b60405180848152602001838152602001828152602001935050505060405180910390f35b341561017e57600080fd5b6100f3610c3c565b341561019157600080fd5b6100f3600160a060020a0360043516610f29565b34156101b057600080fd5b61010b610f6d565b34156101c357600080fd5b6100f3600435610f77565b34156101d957600080fd5b6101e1610fd1565b604051918252151560208201526040908101905180910390f35b341561020657600080fd5b6100f3600435600160a060020a0360243516610ff6565b341561022857600080fd5b610233600435611062565b6040518085600160a060020a0316600160a060020a0316815260200184815260200183815260200182815260200194505050505060405180910390f35b341561027b57600080fd5b6100f361109c565b341561028e57600080fd5b61029661119e565b604051600160a060020a03909116815260200160405180910390f35b6008545b90565b60056020526000805160206112a38339815191525460008080526000805160206112c383398151915254909182918291829182918291016102fb600d8261120d565b50600090505b6000805260056020526000805160206112c383398151915254811015610557576000805260056020526000805160206112c383398151915280548290811061034557fe5b6000918252602082200154600160a060020a0316906338a3528c90604051608001526040518163ffffffff1660e060020a028152600401608060405180830381600087803b151561039557600080fd5b6102c65a03f115156103a657600080fd5b5050506040518051906020018051906020018051906020018051939950919750955090935050821561054f57606060405190810160409081528782526020808301889052908201869052600080805260059091526000805160206112c3833981519152805460109291908590811061041a57fe5b6000918252602080832090910154600160a060020a0316835282019290925260400190208151815560208201518160010155604082015160029091015550600080805260056020526000805160206112c3833981519152805460109291908490811061048257fe5b6000918252602080832090910154600160a060020a031683528201929092526040019020600d8054849081106104b457fe5b6000918252602080832084546003909302019182556001808501549083015560029384015493909101929092558052600590526000805160206112c383398151915280548290811061050257fe5b600091825260208083209091015484835260119091526040909120805473ffffffffffffffffffffffffffffffffffffffff1916600160a060020a03909216919091179055600191909101905b600101610301565b5060005b600260005260056020526000805160206112a3833981519152548110156107aa57600260005260056020526000805160206112a38339815191528054829081106105a157fe5b6000918252602082200154600160a060020a03169063cf7fc76290604051608001526040518163ffffffff1660e060020a028152600401608060405180830381600087803b15156105f157600080fd5b6102c65a03f1151561060257600080fd5b505050604051805190602001805190602001805190602001805193995091975095509093505082156107a257606060405190810160405280878152602001868152602001858152506010600060056000600281526020019081526020016000208481548110151561066f57fe5b6000918252602080832090910154600160a060020a03168352820192909252604001902081518155602082015181600101556040820151600291820155600090815260056020526000805160206112a3833981519152805460109350849081106106d557fe5b6000918252602080832090910154600160a060020a031683528201929092526040019020600d80548490811061070757fe5b6000918252602080832084546003909302019182556001808501549083015560029384015491840191909155919052600590526000805160206112a383398151915280548290811061075557fe5b600091825260208083209091015484835260119091526040909120805473ffffffffffffffffffffffffffffffffffffffff1916600160a060020a03909216919091179055600191909101905b60010161055b565b600e829055816107bb600d8261120d565b505042600f555050505050565b600081815260116020908152604080832054600954600160a060020a039091168085526010909352818420548493849390928492839273__TransactLib___________________________9263bc2e368c9290918590516020015260405160e060020a63ffffffff85160281526004810192909252602482015260440160206040518083038186803b151561085c57600080fd5b6102c65a03f4151561086d57600080fd5b505050604051805160026000908152600560205290955073__AdrLib________________________________9150632c2fc20e906000805160206112a38339815191529086906040516020015260405160e060020a63ffffffff85160281526004810192909252600160a060020a0316602482015260440160206040518083038186803b15156108fc57600080fd5b6102c65a03f4151561090d57600080fd5b5050506040518051905015610a375782600160a060020a0316630ff372828560006040516020015260405160e060020a63ffffffff84160281526004810191909152602401602060405180830381600087803b151561096b57600080fd5b6102c65a03f1151561097c57600080fd5b5050506040518051600980548290039055600b546008549194508402925073__TransactLib___________________________915063e2992d299083863060006040516020015260405160e060020a63ffffffff871602815260048101949094526024840192909252600160a060020a03908116604484015216606482015260840160206040518083038186803b1515610a1557600080fd5b6102c65a03f41515610a2657600080fd5b505050604051805160085550610b2c565b6000808052600560205273__AdrLib________________________________90632c2fc20e906000805160206112c38339815191529086906040516020015260405160e060020a63ffffffff85160281526004810192909252600160a060020a0316602482015260440160206040518083038186803b1515610ab857600080fd5b6102c65a03f41515610ac957600080fd5b5050506040518051905015610b275782600160a060020a0316630ff372828560006040516020015260405160e060020a63ffffffff84160281526004810191909152602401602060405180830381600087803b151561096b57600080fd5b600091505b5091959194509092505050565b60015433600160a060020a03908116911614156100b657600981905542600a8190556001547fdf963fee409850630585bd095a505a9a956ef373cd706eb6eddec02d0a36731991600160a060020a039091169083906040518084600160a060020a0316600160a060020a03168152602001838152602001828152602001935050505060405180910390a15b50565b6000806000600d84815481101515610bdb57fe5b9060005260206000209060030201600001549250600d84815481101515610bfe57fe5b9060005260206000209060030201600101549150600d84815481101515610c2157fe5b90600052602060002090600302016002015490509193909250565b6000806000806000806009541115610f2257600260005260056020526000805160206112a38339815191525415610df1575060005b600260005260056020526000805160206112a383398151915254811015610dec57600260005260056020526000805160206112a3833981519152805482908110610cb757fe5b6000918252602082200154600954600160a060020a03909116935083916335f7f5e291906040516040015260405160e060020a63ffffffff841602815260048101919091526024016040805180830381600087803b1515610d1757600080fd5b6102c65a03f11515610d2857600080fd5b50505060405180519060200180516009805484900390556008549297508781029650945073__TransactLib___________________________9163e2992d29915086853060006040516020015260405160e060020a63ffffffff871602815260048101949094526024840192909252600160a060020a03908116604484015216606482015260840160206040518083038186803b1515610dc757600080fd5b6102c65a03f41515610dd857600080fd5b505050604051805160085550600101610c71565b610f22565b600354600954600160a060020a03909116906335f7f5e29060006040516040015260405160e060020a63ffffffff841602815260048101919091526024016040805180830381600087803b1515610e4757600080fd5b6102c65a03f11515610e5857600080fd5b5050506040518051906020018051600980548490039055600854600354939850888202975090955073__TransactLib___________________________9263e2992d2992508790600160a060020a03163060006040516020015260405160e060020a63ffffffff871602815260048101949094526024840192909252600160a060020a03908116604484015216606482015260840160206040518083038186803b1515610f0457600080fd5b6102c65a03f41515610f1557600080fd5b5050506040518051600855505b5050505050565b60005433600160a060020a03908116911614156100b6576003805473ffffffffffffffffffffffffffffffffffffffff1916600160a060020a038316179055610bc4565b600954600a549091565b60015433600160a060020a03908116911614156100b657600b81905542600c8190557fae46785019700e30375a5d7b4f91e32f8060ef085111f896ebf889450aa2ab5a9060405190815260200160405180910390a1610bc4565b600b54600754600c546000914291011015610fee57506000610ff2565b5060015b9091565b60005433600160a060020a03908116911614156100b657600082815260056020526040902080546001810161102b8382611239565b506000918252602090912001805473ffffffffffffffffffffffffffffffffffffffff1916600160a060020a0383161790555b5050565b600090815260116020908152604080832054600160a060020a03168084526010909252909120805460018201546002909201549293909290565b6000805b600e5481101561105e5773__SortRLib______________________________63f37de025600d60006040516020015260405160e060020a63ffffffff8416028152600481019190915260240160206040518083038186803b151561110357600080fd5b6102c65a03f4151561111457600080fd5b50505060405180519050915061112c818383016111ad565b73__SortRLib______________________________63b5762770600d8460405160e060020a63ffffffff85160281526004810192909252602482015260440160006040518083038186803b151561118257600080fd5b6102c65a03f4151561119357600080fd5b5050506001016110a0565b600054600160a060020a031681565b60008282146112085750600082815260116020526040808220805484845291909220805473ffffffffffffffffffffffffffffffffffffffff19808416600160a060020a039283161790945581549093169290911691821790555b505050565b81548183558181151161120857600302816003028360005260206000209182019101611208919061125d565b81548183558181151161120857600083815260209020611208918101908301611288565b6102b691905b80821115611284576000808255600182018190556002820155600301611263565b5090565b6102b691905b80821115611284576000815560010161128e560089832631fb3c3307a103ba2c84ab569c64d6182a18893dcd163f0f1c2090733a05b8ccbb9d4d8fb16ea74ce3c29a41f1b461fbdaff4714a0d9a8eb05499746bca165627a7a723058207bb55398b4eb41d635ff6f3e6bcfdfc39a6432b153d02d6af0a66c2b681c60620029606060405260038054600160a060020a031916905561012c600a819055600d55341561002a57600080fd5b604051604080611835833981016040528080519190602001805160018054600160a060020a03958616600160a060020a0319918216179091556000805433909616959091169490941790935550506007556117ab8061008a6000396000f3006060604052600436106100ed5763ffffffff60e060020a6000350416630e00c31681146100f25780630ff37282146101295780632fbc0bf11461015157806335f7f5e21461017e5780633d7224dc146101ac5780633fd2007d146101c15780634559dcdc146101d75780636a95841b146101ed57806379c19df0146102035780638cdc86a6146102165780638d646b1114610229578063b148f82b14610248578063bfd1190314610267578063c974602914610289578063cf7fc7621461029c578063d5adad54146102db578063f7d975771461032e578063fba3016714610347578063ff1b636d1461035a575b600080fd5b34156100fd57600080fd5b610105610389565b60405180848152602001838152602001828152602001935050505060405180910390f35b341561013457600080fd5b61013f600435610399565b60405190815260200160405180910390f35b341561015c57600080fd5b6101646105a1565b604051918252151560208201526040908101905180910390f35b341561018957600080fd5b6101946004356105c6565b60405191825260208201526040908101905180910390f35b34156101b757600080fd5b6101bf6106f4565b005b34156101cc57600080fd5b61019460043561098d565b34156101e257600080fd5b6101bf600435610c0c565b34156101f857600080fd5b6101bf600435610c9a565b341561020e57600080fd5b61013f610cce565b341561022157600080fd5b6101bf610cd5565b341561023457600080fd5b6101bf600160a060020a0360043516610e3c565b341561025357600080fd5b61013f600160a060020a0360043516610e73565b341561027257600080fd5b6101bf600435600160a060020a0360243516610f17565b341561029457600080fd5b6101bf610f76565b34156102a757600080fd5b6102af6111a2565b604051938452602084019290925260408084019190915290151560608301526080909101905180910390f35b34156102e657600080fd5b6102f160043561122b565b6040518085600160a060020a0316600160a060020a0316815260200184815260200183815260200182815260200194505050505060405180910390f35b341561033957600080fd5b6101bf600435602435611265565b341561035257600080fd5b6101bf6112c4565b341561036557600080fd5b61036d6113c6565b604051600160a060020a03909116815260200160405180910390f35b600854600b546007549192909190565b600160009081526005602052338173__AdrLib________________________________632c2fc20e60008051602061174083398151915284846040516020015260405160e060020a63ffffffff85160281526004810192909252600160a060020a0316602482015260440160206040518083038186803b151561041b57600080fd5b6102c65a03f4151561042c57600080fd5b505050604051805190508061044e5750600354600160a060020a038381169116145b151561045957600080fd5b60095473__TransactLib___________________________63bc2e368c90918660006040516020015260405160e060020a63ffffffff85160281526004810192909252602482015260440160206040518083038186803b15156104bb57600080fd5b6102c65a03f415156104cc57600080fd5b5050506040518051600880548201905560095490925073__TransactLib___________________________9150639e5fd0a990833060006040516020015260405160e060020a63ffffffff861602815260048101939093526024830191909152600160a060020a0316604482015260640160206040518083038186803b151561055457600080fd5b6102c65a03f4151561056557600080fd5b505050604051805160095550600160a060020a0382166000908152601260205260409020546006805491830290910390559150815b5050919050565b600e54600d54600c5460009142910110156105be575060006105c2565b5060015b9091565b600080600f5490508273__TransactLib___________________________63bc2e368c90916008546007540360006040516020015260405160e060020a63ffffffff85160281526004810192909252602482015260440160206040518083038186803b151561063457600080fd5b6102c65a03f4151561064557600080fd5b50505060405180519050915060085473__TransactLib___________________________63994459079091843060006040516020015260405160e060020a63ffffffff861602815260048101939093526024830191909152600160a060020a0316604482015260640160206040518083038186803b15156106c557600080fd5b6102c65a03f415156106d657600080fd5b50505060405180516008555060068054838302900390559092909150565b600080805260056020526000805160206117608339815191525481908190819081908190610723601482611658565b50600090505b600080526005602052600080516020611760833981519152548110156109725760008052600560205260008051602061176083398151915280548290811061076d57fe5b6000918252602082200154600160a060020a0316906338a3528c90604051608001526040518163ffffffff1660e060020a028152600401608060405180830381600087803b15156107bd57600080fd5b6102c65a03f115156107ce57600080fd5b5050506040518051906020018051906020018051906020018051939950919750955090935050821561096a5760606040519081016040908152878252602080830188905290820186905260008080526005909152600080516020611760833981519152805460179291908590811061084257fe5b6000918252602080832090910154600160a060020a03168352820192909252604001902081518155602082015181600101556040820151600290910155506000808052600560205260008051602061176083398151915280546017929190849081106108aa57fe5b6000918252602080832090910154600160a060020a03168352820192909252604001902060148054849081106108dc57fe5b60009182526020808320845460039093020191825560018085015490830155600293840154939091019290925580526005905260008051602061176083398151915280548290811061092a57fe5b6000918252602080832090910154848352601890915260409091208054600160a060020a031916600160a060020a03909216919091179055600191909101905b600101610729565b8161097e601482611658565b50506016555050426015555050565b600081815260186020908152604080832054600854600160a060020a039091168085526017909352818420548493849390928492839273__TransactLib___________________________9263bc2e368c9290918590516020015260405160e060020a63ffffffff85160281526004810192909252602482015260440160206040518083038186803b1515610a2157600080fd5b6102c65a03f41515610a3257600080fd5b50505060405180516000808052600560205290955073__AdrLib________________________________9150632c2fc20e906000805160206117608339815191529086906040516020015260405160e060020a63ffffffff85160281526004810192909252600160a060020a0316602482015260440160206040518083038186803b1515610abf57600080fd5b6102c65a03f41515610ad057600080fd5b5050506040518051905015610bfa5782600160a060020a0316630ff372828560006040516020015260405160e060020a63ffffffff84160281526004810191909152602401602060405180830381600087803b1515610b2e57600080fd5b6102c65a03f11515610b3f57600080fd5b5050506040518051600880548290039055600e546006549194508402925073__TransactLib___________________________915063e2992d299083863060006040516020015260405160e060020a63ffffffff871602815260048101949094526024840192909252600160a060020a03908116604484015216606482015260840160206040518083038186803b1515610bd857600080fd5b6102c65a03f41515610be957600080fd5b505050604051805160065550610bff565b600091505b5091959194509092505050565b60015433600160a060020a03908116911614156100ed57600881905542600b8190556001547fa8533a3e28bf00cd05018ed80847d3d6f170da084f6417da50798db7335ff9a091600160a060020a039091169083906040518084600160a060020a0316600160a060020a03168152602001838152602001828152602001935050505060405180910390a15b50565b60015433600160a060020a03908116911614156100ed5760075460085482011115610cc457600080fd5b6009819055610c97565b6009545b90565b6000806000610ce26113d5565b600354600160a060020a031615610d175760016000819052600560205260008051602061174083398151915254019150610d34565b600160005260056020526000805160206117408339815191525491505b5060005b81811015610e375773__SortLib_______________________________63f27da568601060006040516020015260405160e060020a63ffffffff8416028152600481019190915260240160206040518083038186803b1515610d9957600080fd5b6102c65a03f41515610daa57600080fd5b505050604051805190509250610dc58160018403038461160b565b73__SortLib_______________________________6343168c1b60108560405160e060020a63ffffffff85160281526004810192909252602482015260440160006040518083038186803b1515610e1b57600080fd5b6102c65a03f41515610e2c57600080fd5b505050600101610d38565b505050565b60005433600160a060020a03908116911614156100ed5760038054600160a060020a031916600160a060020a038316179055610c97565b60035460009081908190600160a060020a031615610eaf5760016000819052600560205260008051602061174083398151915254019150610ecc565b600160005260056020526000805160206117408339815191525491505b5060005b81811015610f0d57600081815260136020526040902054600160a060020a0385811691161415610f055780600101925061059a565b600101610ed0565b5060009392505050565b60005433600160a060020a03908116911614156100ed576000828152600560205260409020805460018101610f4c8382611684565b5060009182526020909120018054600160a060020a031916600160a060020a0383161790555b5050565b600080805b60016000526005602052600080516020611740833981519152548110156110c85760016000526005602052600080516020611740833981519152805482908110610fc157fe5b6000918252602082200154600160a060020a0316906398d5fdca90604051604001526040518163ffffffff1660e060020a0281526004016040805180830381600087803b151561101057600080fd5b6102c65a03f1151561102157600080fd5b5050506040518051906020018051919450909250604090508051908101604052838152821515602080830191909152600160009081526005909152600080516020611740833981519152805460129291908590811061107c57fe5b6000918252602080832090910154600160a060020a0316835282019290925260400190208151815560208201516001918201805460ff1916911515919091179055919091019050610f7b565b600354600160a060020a03161561119957600354600160a060020a03166398d5fdca6000604051604001526040518163ffffffff1660e060020a0281526004016040805180830381600087803b151561112057600080fd5b6102c65a03f1151561113157600080fd5b50505060405180519060200180519194509092506040905080519081016040908152848252831515602080840191909152600354600160a060020a03166000908152601290915220815181556020820151600191909101805460ff1916911515919091179055505b50504260115550565b60095460008080336111b381610e73565b600354909450600160a060020a0316156111eb5760016000819052600560205260008051602061174083398151915254019250611208565b600160005260056020526000805160206117408339815191525492505b42600d5460115401101561121f5760009150611224565b600191505b5090919293565b600090815260186020908152604080832054600160a060020a03168084526017909252909120805460018201546002909201549293909290565b60015433600160a060020a03908116911614156100ed57600e829055600f81905542600c8190557fae46785019700e30375a5d7b4f91e32f8060ef085111f896ebf889450aa2ab5a9060405190815260200160405180910390a1610f72565b6000805b601654811015610f725773__SortRLib______________________________63f37de025601460006040516020015260405160e060020a63ffffffff8416028152600481019190915260240160206040518083038186803b151561132b57600080fd5b6102c65a03f4151561133c57600080fd5b5050506040518051905091506113548183830161160b565b73__SortRLib______________________________63b576277060148460405160e060020a63ffffffff85160281526004810192909252602482015260440160006040518083038186803b15156113aa57600080fd5b6102c65a03f415156113bb57600080fd5b5050506001016112c8565b600054600160a060020a031681565b600354600090600160a060020a0316156114175760016000819052600560205260008051602061174083398151915254016114116010826116a8565b5061143e565b600160005260056020526000805160206117408339815191525461143c6010826116a8565b505b5060005b600160005260056020526000805160206117408339815191525481101561155657600160009081526005602052600080516020611740833981519152805460129291908490811061148f57fe5b6000918252602080832090910154600160a060020a03168352820192909252604001902060108054839081106114c157fe5b60009182526020808320845460029390930201918255600193840154918401805460ff191660ff9093161515929092179091559190526005905260008051602061174083398151915280548290811061151657fe5b6000918252602080832090910154838352601390915260409091208054600160a060020a031916600160a060020a03909216919091179055600101611442565b5060016000526005602052600080516020611740833981519152545b601054811015610c9757600354600160a060020a0316600090815260126020526040902060108054839081106115a457fe5b600091825260208083208454600290930201918255600193840154918401805460ff909316151560ff1990931692909217909155600354848352601390915260409091208054600160a060020a031916600160a060020a0390921691909117905501611572565b6000828214610e375750600091825260136020526040808320805492845292208054600160a060020a03908116600160a060020a0319808516919091179094558154921691909216179055565b815481835581811511610e3757600302816003028360005260206000209182019101610e3791906116d4565b815481835581811511610e3757600083815260209020610e379181019083016116ff565b815481835581811511610e3757600202816002028360005260206000209182019101610e379190611719565b610cd291905b808211156116fb5760008082556001820181905560028201556003016116da565b5090565b610cd291905b808211156116fb5760008155600101611705565b610cd291905b808211156116fb576000815560018101805460ff1916905560020161171f56001471eb6eb2c5e789fc3de43f8ce62938c7d1836ec861730447e2ada8fd81017b05b8ccbb9d4d8fb16ea74ce3c29a41f1b461fbdaff4714a0d9a8eb05499746bca165627a7a72305820e1b5434d25c81aa0d4eb67a15c071c1a43d3c2a76bc8989669d6c4d646cb5b7b0029a165627a7a72305820f3f1d533163b6e30d92f1b69fe68bb06478e90d36f4ade154c66223f2f621db10029",
  "source": "pragma solidity ^0.4.4;\n\nimport \"./SingleHouse.sol\";\nimport \"./SinglePV.sol\";\nimport \"./SingleBattery.sol\";\nimport \"./Grid.sol\";\n\ncontract Configuration {\n\n  address public admin = msg.sender; // only the admin node can modify the configuration...\n  address public gridAdr;          // store the address of grid...(address of the transformer that links to the grid... not the contract address)\n  uint public statusAt; // timestamp of the creation of Configuration instance\n\n  // The variables below should be deleted... \n  uint8 private numHouseCurrent = 0;    // current houses in the system\n  uint8 private numPVCurrent = 0;       // current PVs in the system\n  uint8 private numBatteryCurrent = 0;    // current batteries in the system\n\n  // Several types of devices in the system\n  enum deviceType {House, PV, Battery}\n\n  struct EndUser {\n    deviceType  dType;\n    address     cAddress;           // address of the contract\n    uint        statusAt;           // timestamp of the creation\n    mapping(address=>EndUser) connectedUser;     // List of another node connected.\n  }\n\n\n  mapping(address=>EndUser) userList;   // the account of the owner => struct\n  mapping(address=>address) contractList;   // now putting all the linkage to real contract address into this mapping\n\n  // Restricts execution by admin only\n  modifier adminOnly {\n    if(msg.sender == admin){\n      _;\n    } else {\n      revert();\n    }\n  }\n  \n  event LogDevice(address deviceAdr);\n  event LogConnection(address device1, address device2);\n\n  function Configuration() adminOnly {\n      statusAt = now;\n  }\n\n  function addGrid(address adr) adminOnly {\n      contractList[adr] = new Grid(adr);\n      gridAdr = address(contractList[adr]);\n  }\n\n  function addDevice(uint8 _deviceType, address adr, uint capacity, bool g) adminOnly public {\n      require (_deviceType < 3); //addBattery\n      if (_deviceType == 0) {   // addHouse\n        contractList[adr] = new SingleHouse(adr);\n        numHouseCurrent++;\n      } else if (_deviceType == 1) {    //addPV\n        contractList[adr] = new SinglePV(adr);\n        numPVCurrent++;\n      } else {\n        contractList[adr] = new SingleBattery(adr, capacity);\n        numBatteryCurrent++;\n      }\n      if (g) {\n          GeneralDevice(contractList[adr]).setGridAdr(gridAdr);\n          GeneralDevice(gridAdr).addConnectedDevice(_deviceType, contractList[adr]);\n        }\n      EndUser memory tempEU;\n      tempEU.dType = deviceType(_deviceType);\n      tempEU.cAddress = address(contractList[adr]);\n      tempEU.statusAt = now;\n      userList[adr] = tempEU;\n\n      LogDevice(adr);\n  }\n\n    function getContractAddress(address adr) view adminOnly returns(address) {\n      return address(contractList[adr]);\n    }  \n\n    function getDeviceType(address adr) returns (uint8) {\n        // deviceType {House,PV,Battery}\n        \n        if (userList[adr].cAddress != 0x0) {\n            return uint8(userList[adr].dType);\n        } else {\n            return 15;   // when the address corresponds no device in the configuration...\n        }\n    }\n\n    function linkDevices(address adr1, address adr2) adminOnly {\n        uint8[2] memory dt;\n        dt[0] = getDeviceType(adr1);\n        dt[1] = getDeviceType(adr2);\n        require(dt[0]<3 && userList[adr1].connectedUser[adr2].cAddress == 0x0);\n        require(dt[1]<3 && userList[adr2].connectedUser[adr1].cAddress == 0x0);\n        userList[adr1].connectedUser[adr2] = userList[adr2];\n        userList[adr2].connectedUser[adr1] = userList[adr1];\n\n        GeneralDevice(address(contractList[adr1])).addConnectedDevice(dt[1],address(contractList[adr2]));\n        GeneralDevice(address(contractList[adr2])).addConnectedDevice(dt[0],address(contractList[adr1]));\n        \n        LogConnection(adr1,adr2);\n    }\n\n    // test functions\n\n    function getAdmin() constant returns (address) {\n        return admin;\n    } \n\n    function getGridAdr() constant returns(address) {\n        return gridAdr;\n    } \n\n}\n",
  "sourcePath": "C:\\Users\\qianc\\Documents\\Thesis\\Code\\SimpleMonitor\\contracts\\Configuration.sol",
  "compiler": {
    "name": "solc",
    "version": "0.4.18+commit.9cf6e910.Emscripten.clang"
  },
  "schemaVersion": "1.0.1",
  "updatedAt": "2017-11-26T21:22:43.752Z"
}