{
  "contractName": "Configuration",
  "abi": [
    {
      "constant": false,
      "inputs": [
        {
          "name": "adr",
          "type": "address"
        }
      ],
      "name": "addGrid",
      "outputs": [],
      "payable": false,
      "stateMutability": "nonpayable",
      "type": "function"
    },
    {
      "constant": true,
      "inputs": [
        {
          "name": "adr",
          "type": "address"
        }
      ],
      "name": "getContractAddress",
      "outputs": [
        {
          "name": "",
          "type": "address"
        }
      ],
      "payable": false,
      "stateMutability": "view",
      "type": "function"
    },
    {
      "constant": true,
      "inputs": [],
      "name": "getAdmin",
      "outputs": [
        {
          "name": "",
          "type": "address"
        }
      ],
      "payable": false,
      "stateMutability": "view",
      "type": "function"
    },
    {
      "constant": true,
      "inputs": [],
      "name": "statusAt",
      "outputs": [
        {
          "name": "",
          "type": "uint256"
        }
      ],
      "payable": false,
      "stateMutability": "view",
      "type": "function"
    },
    {
      "constant": false,
      "inputs": [
        {
          "name": "adr1",
          "type": "address"
        },
        {
          "name": "adr2",
          "type": "address"
        }
      ],
      "name": "linkDevices",
      "outputs": [],
      "payable": false,
      "stateMutability": "nonpayable",
      "type": "function"
    },
    {
      "constant": true,
      "inputs": [],
      "name": "gridAdr",
      "outputs": [
        {
          "name": "",
          "type": "address"
        }
      ],
      "payable": false,
      "stateMutability": "view",
      "type": "function"
    },
    {
      "constant": false,
      "inputs": [
        {
          "name": "adr",
          "type": "address"
        }
      ],
      "name": "getDeviceType",
      "outputs": [
        {
          "name": "",
          "type": "uint8"
        }
      ],
      "payable": false,
      "stateMutability": "nonpayable",
      "type": "function"
    },
    {
      "constant": false,
      "inputs": [
        {
          "name": "_deviceType",
          "type": "uint8"
        },
        {
          "name": "adr",
          "type": "address"
        },
        {
          "name": "capacity",
          "type": "uint256"
        },
        {
          "name": "g",
          "type": "bool"
        }
      ],
      "name": "addDevice",
      "outputs": [],
      "payable": false,
      "stateMutability": "nonpayable",
      "type": "function"
    },
    {
      "constant": true,
      "inputs": [],
      "name": "getGridAdr",
      "outputs": [
        {
          "name": "",
          "type": "address"
        }
      ],
      "payable": false,
      "stateMutability": "view",
      "type": "function"
    },
    {
      "constant": true,
      "inputs": [],
      "name": "admin",
      "outputs": [
        {
          "name": "",
          "type": "address"
        }
      ],
      "payable": false,
      "stateMutability": "view",
      "type": "function"
    },
    {
      "constant": true,
      "inputs": [],
      "name": "globalTimerAdr",
      "outputs": [
        {
          "name": "",
          "type": "address"
        }
      ],
      "payable": false,
      "stateMutability": "view",
      "type": "function"
    },
    {
      "inputs": [],
      "payable": false,
      "stateMutability": "nonpayable",
      "type": "constructor"
    },
    {
      "anonymous": false,
      "inputs": [
        {
          "indexed": false,
          "name": "deviceAdr",
          "type": "address"
        }
      ],
      "name": "LogDevice",
      "type": "event"
    },
    {
      "anonymous": false,
      "inputs": [
        {
          "indexed": false,
          "name": "device1",
          "type": "address"
        },
        {
          "indexed": false,
          "name": "device2",
          "type": "address"
        }
      ],
      "name": "LogConnection",
      "type": "event"
    }
  ],
  "bytecode": "0x606060405260008054600160a060020a03191633600160a060020a03161790556004805462ffffff19169055341561003657600080fd5b60005433600160a060020a0390811691161415610094574260035561005961009e565b604051809103906000f080151561006f57600080fd5b60018054600160a060020a031916600160a060020a0392909216919091179055610099565b600080fd5b6100ae565b604051610251806151a183390190565b6150e4806100bd6000396000f3006060604052600436106100955763ffffffff60e060020a6000350416633474efe6811461009a578063622bc90e146100bb5780636e9960c3146100f657806380f57b3b146101095780638368bfcf1461012e578063a1f51d0314610153578063bb2f6e2c14610166578063d88b35431461019b578063f0c998ec146101c8578063f851a440146101db578063f9c699ef146101ee575b600080fd5b34156100a557600080fd5b6100b9600160a060020a0360043516610201565b005b34156100c657600080fd5b6100da600160a060020a0360043516610324565b604051600160a060020a03909116815260200160405180910390f35b341561010157600080fd5b6100da61035e565b341561011457600080fd5b61011c61036d565b60405190815260200160405180910390f35b341561013957600080fd5b6100b9600160a060020a0360043581169060243516610373565b341561015e57600080fd5b6100da6106f6565b341561017157600080fd5b610185600160a060020a0360043516610705565b60405160ff909116815260200160405180910390f35b34156101a657600080fd5b6100b960ff60043516600160a060020a03602435166044356064351515610763565b34156101d357600080fd5b6100da610bd9565b34156101e657600080fd5b6100da610be8565b34156101f957600080fd5b6100da610bf7565b60005433600160a060020a03908116911614156100955780610221610c06565b600160a060020a039091168152602001604051809103906000f080151561024757600080fd5b600160a060020a0382811660009081526006602052604090819020805473ffffffffffffffffffffffffffffffffffffffff1916938316939093179283905560015492821692630830cfae9216905160e060020a63ffffffff8416028152600160a060020a039091166004820152602401600060405180830381600087803b15156102d157600080fd5b6102c65a03f115156102e257600080fd5b505050600160a060020a038082166000908152600660205260409020546002805473ffffffffffffffffffffffffffffffffffffffff19169190921617905550565b6000805433600160a060020a03908116911614156100955750600160a060020a03808216600090815260066020526040902054165b919050565b600054600160a060020a031690565b60035481565b61037b610c16565b60005433600160a060020a03908116911614156100955761039b83610705565b60ff1681526103a982610705565b60ff1660208201526003815160ff161080156103f25750600160a060020a0380841660009081526005602090815260408083208685168452600201909152902054610100900416155b15156103fd57600080fd5b6003602082015160ff161080156104415750600160a060020a0380831660009081526005602090815260408083208785168452600201909152902054610100900416155b151561044c57600080fd5b600160a060020a03808316600081815260056020908152604080832094881683528083209383526002938401909152902082548154919260ff90911691839160ff199091169060019084908111156104a057fe5b02179055508154815474ffffffffffffffffffffffffffffffffffffffff00191661010091829004600160a060020a03908116909202178255600192830154918301919091558481166000818152600560209081526040808320948816835280832093835260029384019091529020825481549394919360ff90911692849260ff199092169190849081111561053257fe5b02179055508154815474ffffffffffffffffffffffffffffffffffffffff00191661010091829004600160a060020a0390811690920217825560019283015491830191909155848116600090815260066020526040902054169063bfd119039083906020020151600160a060020a038086166000908152600660205260409081902054909116905160e060020a63ffffffff851602815260ff9092166004830152600160a060020a03166024820152604401600060405180830381600087803b15156105fd57600080fd5b6102c65a03f1151561060e57600080fd5b505050600160a060020a038281166000908152600660205260409020541663bfd119038251600160a060020a038087166000908152600660205260409081902054909116905160e060020a63ffffffff851602815260ff9092166004830152600160a060020a03166024820152604401600060405180830381600087803b151561069757600080fd5b6102c65a03f115156106a857600080fd5b5050507f2defa27bb08b7ca89bc5fb146b34db072eccd285461d98ae368b88088a6cb8ec8383604051600160a060020a039283168152911660208201526040908101905180910390a1505050565b600254600160a060020a031681565b600160a060020a038082166000908152600560205260408120549091610100909104161561075b57600160a060020a03821660009081526005602052604090205460ff16600281111561075457fe5b9050610359565b50600f610359565b61076b610c3d565b60005433600160a060020a039081169116141561009557600360ff86161061079257600080fd5b60ff8516151561082357836107a5610c5f565b600160a060020a039091168152602001604051809103906000f08015156107cb57600080fd5b600160a060020a038581166000908152600660205260409020805473ffffffffffffffffffffffffffffffffffffffff1916929091169190911790556004805460ff19811660ff918216600101909116179055610954565b8460ff16600114156108bf5783610838610c6f565b600160a060020a039091168152602001604051809103906000f080151561085e57600080fd5b600160a060020a038581166000908152600660205260409020805473ffffffffffffffffffffffffffffffffffffffff1916929091169190911790556004805461ff001981166101009182900460ff90811660010116909102179055610954565b83836108c9610c7f565b600160a060020a039092168252602082015260409081019051809103906000f08015156108f557600080fd5b600160a060020a038581166000908152600660205260409020805473ffffffffffffffffffffffffffffffffffffffff1916929091169190911790556004805462ff0000198116620100009182900460ff908116600101169091021790555b8115610a5c57600160a060020a03808516600090815260066020526040908190205460025490831692638d646b11929116905160e060020a63ffffffff8416028152600160a060020a039091166004820152602401600060405180830381600087803b15156109c257600080fd5b6102c65a03f115156109d357600080fd5b5050600254600160a060020a038681166000908152600660205260409081902054928216935063bfd1190392899216905160e060020a63ffffffff851602815260ff9092166004830152600160a060020a03166024820152604401600060405180830381600087803b1515610a4757600080fd5b6102c65a03f11515610a5857600080fd5b5050505b8460ff166002811115610a6b57fe5b81906002811115610a7857fe5b90816002811115610a8557fe5b905250600160a060020a03808516600081815260066020908152604080832054909416858201524285850152918152600590915220819081518154829060ff19166001836002811115610ad457fe5b021790555060208201518154600160a060020a03919091166101000274ffffffffffffffffffffffffffffffffffffffff00199091161781556040820151600191820155600160a060020a03808716600090815260066020526040908190205492549282169350630830cfae92909116905160e060020a63ffffffff8416028152600160a060020a039091166004820152602401600060405180830381600087803b1515610b8157600080fd5b6102c65a03f11515610b9257600080fd5b5050507f65c506643f4516f3ef335c5dd71017b8e849268cd860c3235c7db2c62fd8e93b84604051600160a060020a03909116815260200160405180910390a15050505050565b600254600160a060020a031690565b600054600160a060020a031681565b600154600160a060020a031681565b604051610a1880610c9083390190565b604080519081016040526002815b600081526000199091019060200181610c245790505090565b6060604051908101604052806000815260006020820181905260409091015290565b604051611025806116a883390190565b604051611362806126cd83390190565b60405161168a80613a2f833901905600606060405260038054600160a060020a031990811690915560048054909116905561012c60075560646009819055600a55341561003b57600080fd5b604051602080610a188339810160405280805160018054600160a060020a03928316600160a060020a0319918216179091556000805433909316929091169190911790555050610988806100906000396000f3006060604052600436106100a05763ffffffff60e060020a600035041663074b7c8081146100a55780630830cfae146100ca578063235a4a4f146100eb57806335f7f5e2146100fe5780636e2855441461012c57806370ed8f24146101425780638d646b111461017157806398d5fdca14610190578063bfd11903146101bd578063cb99c157146101df578063f7d97577146101f2578063ff1b636d1461020b575b600080fd5b34156100b057600080fd5b6100b861021e565b60405190815260200160405180910390f35b34156100d557600080fd5b6100e9600160a060020a0360043516610288565b005b34156100f657600080fd5b6100b86102cb565b341561010957600080fd5b610114600435610315565b60405191825260208201526040908101905180910390f35b341561013757600080fd5b61011460043561043f565b341561014d57600080fd5b610155610572565b604051600160a060020a03909116815260200160405180910390f35b341561017c57600080fd5b6100e9600160a060020a0360043516610581565b341561019b57600080fd5b6101a36105c5565b604051918252151560208201526040908101905180910390f35b34156101c857600080fd5b6100e9600435600160a060020a03602435166105ea565b34156101ea57600080fd5b6100e9610655565b34156101fd57600080fd5b6100e96004356024356108d4565b341561021657600080fd5b610155610910565b600454600090600160a060020a031663bdef9d9282604051602001526040518163ffffffff1660e060020a028152600401602060405180830381600087803b151561026857600080fd5b6102c65a03f1151561027957600080fd5b50505060405180519150505b90565b60005433600160a060020a03908116911614156100a0576004805473ffffffffffffffffffffffffffffffffffffffff1916600160a060020a0383161790555b50565b600454600090600160a060020a0316633b7104f282604051602001526040518163ffffffff1660e060020a028152600401602060405180830381600087803b151561026857600080fd5b600080600d5490508273__TransactLib___________________________63bc2e368c9091600a5460006040516020015260405160e060020a63ffffffff85160281526004810192909252602482015260440160206040518083038186803b151561037f57600080fd5b6102c65a03f4151561039057600080fd5b505050604051805190509150600a5473__TransactLib___________________________639e5fd0a99091843060006040516020015260405160e060020a63ffffffff861602815260048101939093526024830191909152600160a060020a0316604482015260640160206040518083038186803b151561041057600080fd5b6102c65a03f4151561042157600080fd5b5050506040518051600a5550600b8054838302900390559092909150565b600080600c5490508273__TransactLib___________________________63bc2e368c909160095460006040516020015260405160e060020a63ffffffff85160281526004810192909252602482015260440160206040518083038186803b15156104a957600080fd5b6102c65a03f415156104ba57600080fd5b5050506040518051600980548290039055600b5490935073__TransactLib___________________________915063e2992d2990838502333060006040516020015260405160e060020a63ffffffff871602815260048101949094526024840192909252600160a060020a03908116604484015216606482015260840160206040518083038186803b151561054e57600080fd5b6102c65a03f4151561055f57600080fd5b5050506040518051600b55509092909150565b600454600160a060020a031690565b60005433600160a060020a03908116911614156100a0576003805473ffffffffffffffffffffffffffffffffffffffff1916600160a060020a0383161790556102c8565b600c5460075460085460009142910110156105e2575060006105e6565b5060015b9091565b60005433600160a060020a03908116911614156100a057600082815260066020526040902080546001810161061f838261091f565b506000918252602090912001805473ffffffffffffffffffffffffffffffffffffffff1916600160a060020a0383161790555050565b6000808080808080805b600260005260066020527f8819ef417987f8ae7a81f42cdfb18815282fe989326fbff903d13cf0e03ace29548110156108ca57600260005260066020527f8819ef417987f8ae7a81f42cdfb18815282fe989326fbff903d13cf0e03ace298054829081106106c957fe5b6000918252602082200154600160a060020a031690631b45f0e090604051608001526040518163ffffffff1660e060020a028152600401608060405180830381600087803b151561071957600080fd5b6102c65a03f1151561072a57600080fd5b5050506040518051906020018051906020018051906020018051939b509199509750909550859050801561075d57508715155b156108c257600260005260066020527f8819ef417987f8ae7a81f42cdfb18815282fe989326fbff903d13cf0e03ace2980548290811061079957fe5b6000918252602082200154600954600160a060020a0390911693508391630ff3728291906040516020015260405160e060020a63ffffffff84160281526004810191909152602401602060405180830381600087803b15156107fa57600080fd5b6102c65a03f1151561080b57600080fd5b5050506040518051600980548290039055600c54600b549196508602945073__TransactLib___________________________915063e2992d299085853060006040516020015260405160e060020a63ffffffff871602815260048101949094526024840192909252600160a060020a03908116604484015216606482015260840160206040518083038186803b15156108a457600080fd5b6102c65a03f415156108b557600080fd5b5050506040518051600b55505b60010161065f565b5050505050505050565b60016108de6102cb565b8114156100a05760015433600160a060020a03908116911614156100a057600c839055600d829055426008555b505050565b600054600160a060020a031681565b81548183558181151161090b5760008381526020902061090b91810190830161028591905b808211156109585760008155600101610944565b50905600a165627a7a723058206a3cf096aff2477c5d52d8d7daa743d5ac587aaeb9f0994faf2cd7be1a68e1510029606060405260038054600160a060020a031990811690915560048054909116905561012c600855341561003157600080fd5b6040516020806110258339810160405280805160018054600160a060020a03928316600160a060020a0319918216179091556000805433909316929091169190911790555050610f9f806100866000396000f3006060604052600436106100d75763ffffffff60e060020a600035041663074b7c8081146100dc5780630830cfae146101015780630ff372821461012257806313299604146101385780631b45f0e01461014b578063235a4a4f1461018a5780633acca96d1461019d578063557ed1ba146101b05780635a500ecc146101c357806370ed8f24146101d95780638a5cb1b6146102085780638d646b1114610233578063aac12b4b14610252578063bbe4fd5014610265578063bfd1190314610278578063c97460291461029a578063ff1b636d146102ad575b600080fd5b34156100e757600080fd5b6100ef6102c0565b60405190815260200160405180910390f35b341561010c57600080fd5b610120600160a060020a036004351661032a565b005b341561012d57600080fd5b6100ef60043561036d565b341561014357600080fd5b6100ef6105f7565b341561015657600080fd5b61015e6105fd565b604051938452602084019290925260408084019190915290151560608301526080909101905180910390f35b341561019557600080fd5b6100ef6106a2565b34156101a857600080fd5b6101206106ec565b34156101bb57600080fd5b6100ef610837565b34156101ce57600080fd5b610120600435610846565b34156101e457600080fd5b6101ec6108e6565b604051600160a060020a03909116815260200160405180910390f35b341561021357600080fd5b61021b6108f5565b60405191825260208201526040908101905180910390f35b341561023e57600080fd5b610120600160a060020a03600435166108ff565b341561025d57600080fd5b610120610943565b341561027057600080fd5b6100ef610ad6565b341561028357600080fd5b610120600435600160a060020a0360243516610ada565b34156102a557600080fd5b610120610b46565b34156102b857600080fd5b6101ec610ee7565b600454600090600160a060020a031663bdef9d9282604051602001526040518163ffffffff1660e060020a028152600401602060405180830381600087803b151561030a57600080fd5b6102c65a03f1151561031b57600080fd5b50505060405180519150505b90565b60005433600160a060020a03908116911614156100d7576004805473ffffffffffffffffffffffffffffffffffffffff1916600160a060020a0383161790555b50565b600260009081526006602052338173__AdrLib________________________________632c2fc20e600080516020610f5483398151915284846040516020015260405160e060020a63ffffffff85160281526004810192909252600160a060020a0316602482015260440160206040518083038186803b15156103ef57600080fd5b6102c65a03f4151561040057600080fd5b50505060405180519050806104af575060016000908152600660205273__AdrLib________________________________90632c2fc20e90600080516020610f348339815191529085906040516020015260405160e060020a63ffffffff85160281526004810192909252600160a060020a0316602482015260440160206040518083038186803b151561049357600080fd5b6102c65a03f415156104a457600080fd5b505050604051805190505b15156104ba57600080fd5b60075473__TransactLib___________________________63bc2e368c90918660006040516020015260405160e060020a63ffffffff85160281526004810192909252602482015260440160206040518083038186803b151561051c57600080fd5b6102c65a03f4151561052d57600080fd5b50505060405180519050905060075473__TransactLib___________________________639e5fd0a99091833060006040516020015260405160e060020a63ffffffff861602815260048101939093526024830191909152600160a060020a0316604482015260640160206040518083038186803b15156105ad57600080fd5b6102c65a03f415156105be57600080fd5b505050604051805160075550600160a060020a0382166000908152600b6020526040902054600580549183029091039055915050919050565b60055490565b600754600080803373__SortPLib______________________________63c6742457600b83856040516060015260405160e060020a63ffffffff85160281526004810192909252600160a060020a0316602482015260440160606040518083038186803b151561066c57600080fd5b6102c65a03f4151561067d57600080fd5b5050506040518051906020018051906020018051979892979196509094509092505050565b600454600090600160a060020a0316633b7104f282604051602001526040518163ffffffff1660e060020a028152600401602060405180830381600087803b151561030a57600080fd5b60035460009081908190600160a060020a0316151561070a57600080fd5b6000600754111561083257600354600754600160a060020a0390911690636e2855449060006040516040015260405160e060020a63ffffffff841602815260048101919091526024016040805180830381600087803b151561076b57600080fd5b6102c65a03f1151561077c57600080fd5b5050506040518051906020018051600754929550925073__TransactLib___________________________91639e5fd0a99150853060006040516020015260405160e060020a63ffffffff861602815260048101939093526024830191909152600160a060020a0316604482015260640160206040518083038186803b151561080457600080fd5b6102c65a03f4151561081557600080fd5b505050604051805160075550600580548483029081900390915591505b505050565b60006108416106a2565b905090565b60016108506106a2565b8114156100d75760015433600160a060020a03908116911614156100d75760078290554260098190556001547f93e0cabaa551645c58979b9f1e87af3e09f708241c9bdd6468e581ad0651692691600160a060020a039091169084906040518084600160a060020a0316600160a060020a03168152602001838152602001828152602001935050505060405180910390a15b5050565b600454600160a060020a031690565b6007546009549091565b60005433600160a060020a03908116911614156100d7576003805473ffffffffffffffffffffffffffffffffffffffff1916600160a060020a03831617905561036a565b60008060026109506106a2565b8114156100d75773__SortPLib______________________________6332a76998600b60405160e060020a63ffffffff8416028152600481019190915260240160006040518083038186803b15156109a757600080fd5b6102c65a03f415156109b857600080fd5b5050600354600160a060020a0316159050610ad15760035460009350839250600160a060020a03166398d5fdca83604051604001526040518163ffffffff1660e060020a0281526004016040805180830381600087803b1515610a1a57600080fd5b6102c65a03f11515610a2b57600080fd5b5050506040518051906020018051600354929550935073__SortPLib______________________________9163c3af64529150600b90600160a060020a0316868660405160e060020a63ffffffff87160281526004810194909452600160a060020a03909216602484015260448301521515606482015260840160006040518083038186803b1515610abc57600080fd5b6102c65a03f41515610acd57600080fd5b5050505b610832565b4290565b60005433600160a060020a03908116911614156100d7576000828152600660205260409020805460018101610b0f8382610ef6565b506000918252602090912001805473ffffffffffffffffffffffffffffffffffffffff1916600160a060020a0383161790556108e2565b60008060006002610b556106a2565b8114156100d7576000935083925073__SortPLib______________________________63e61f7934600b60405160e060020a63ffffffff8416028152600481019190915260240160006040518083038186803b1515610bb357600080fd5b6102c65a03f41515610bc457600080fd5b505050600091505b60026000526006602052600080516020610f5483398151915254821015610d525760026000526006602052600080516020610f54833981519152805483908110610c1257fe5b6000918252602082200154600160a060020a031690632fbc0bf190604051604001526040518163ffffffff1660e060020a0281526004016040805180830381600087803b1515610c6157600080fd5b6102c65a03f11515610c7257600080fd5b505050604051805190602001805160026000526006602052600080516020610f54833981519152805493975090955073__SortPLib______________________________9263c3af64529250600b919086908110610ccc57fe5b600091825260209091200154600160a060020a0316878760405160e060020a63ffffffff87160281526004810194909452600160a060020a03909216602484015260448301521515606482015260840160006040518083038186803b1515610d3357600080fd5b6102c65a03f41515610d4457600080fd5b505060019092019150610bcc565b600091505b60016000526006602052600080516020610f3483398151915254821015610edd5760016000526006602052600080516020610f34833981519152805483908110610d9d57fe5b6000918252602082200154600160a060020a0316906398d5fdca90604051604001526040518163ffffffff1660e060020a0281526004016040805180830381600087803b1515610dec57600080fd5b6102c65a03f11515610dfd57600080fd5b505050604051805190602001805160016000526006602052600080516020610f34833981519152805493975090955073__SortPLib______________________________9263c3af64529250600b919086908110610e5757fe5b600091825260209091200154600160a060020a0316878760405160e060020a63ffffffff87160281526004810194909452600160a060020a03909216602484015260448301521515606482015260840160006040518083038186803b1515610ebe57600080fd5b6102c65a03f41515610ecf57600080fd5b505060019092019150610d57565b42600a5550505050565b600054600160a060020a031681565b8154818355818115116108325760008381526020902061083291810190830161032791905b80821115610f2f5760008155600101610f1b565b509056003e5fec24aa4dc4e5aee2e025e51e1392c72a2500577559fae9665c6d52bd6a318819ef417987f8ae7a81f42cdfb18815282fe989326fbff903d13cf0e03ace29a165627a7a723058205cbea88520f7e67032f8108076ed1c4256750a41194b90d29029ad0a1e3ee7c80029606060405260038054600160a060020a031990811690915560048054909116905561012c6007819055600855341561003657600080fd5b6040516020806113628339810160405280805160018054600160a060020a03928316600160a060020a03199182161790915560008054339093169290911691909117905550506112d78061008b6000396000f3006060604052600436106100e25763ffffffff60e060020a600035041663074b7c8081146100e75780630830cfae1461010c578063132996041461012d578063235a4a4f146101405780632c2735dd146101535780633d7224dc146101665780633d859507146101795780633fd2007d1461018c578063567cc2b6146101ba57806367a2829d146101d05780636b608223146101e357806370ed8f24146102365780638d646b11146102655780638e4dfebb1461028457806391b7f5ed1461029757806398d5fdca146102ad578063bfd11903146102da578063ff1b636d146102fc575b600080fd5b34156100f257600080fd5b6100fa61030f565b60405190815260200160405180910390f35b341561011757600080fd5b61012b600160a060020a0360043516610379565b005b341561013857600080fd5b6100fa6103bc565b341561014b57600080fd5b6100fa6103c2565b341561015e57600080fd5b61012b61040c565b341561017157600080fd5b61012b6104c6565b341561018457600080fd5b61012b6108a2565b341561019757600080fd5b6101a260043561091c565b60405191825260208201526040908101905180910390f35b34156101c557600080fd5b61012b600435610c90565b34156101db57600080fd5b61012b610d30565b34156101ee57600080fd5b6101f960043561101d565b6040518085600160a060020a0316600160a060020a0316815260200184815260200183815260200182815260200194505050505060405180910390f35b341561024157600080fd5b6102496110bc565b604051600160a060020a03909116815260200160405180910390f35b341561027057600080fd5b61012b600160a060020a03600435166110cb565b341561028f57600080fd5b6101a261110f565b34156102a257600080fd5b61012b600435611119565b34156102b857600080fd5b6102c0611184565b604051918252151560208201526040908101905180910390f35b34156102e557600080fd5b61012b600435600160a060020a03602435166111a9565b341561030757600080fd5b610249611215565b600454600090600160a060020a031663bdef9d9282604051602001526040518163ffffffff1660e060020a028152600401602060405180830381600087803b151561035957600080fd5b6102c65a03f1151561036a57600080fd5b50505060405180519150505b90565b60005433600160a060020a03908116911614156100e2576004805473ffffffffffffffffffffffffffffffffffffffff1916600160a060020a0383161790555b50565b600c5490565b600454600090600160a060020a0316633b7104f282604051602001526040518163ffffffff1660e060020a028152600401602060405180830381600087803b151561035957600080fd5b600080600080600080600080600060046104246103c2565b8114156100e25760115460009a509850600197505b87156104ba5761044761030f565b96508991505b888210156104a95761045e8a61101d565b9298509096509450925086841415610486576104798a61091c565b505060019099019861049e565b868410156104995760019099019861049e565b6104a9565b60019091019061044d565b888a106104b557600097505b610439565b50505050505050505050565b600080600080600060036104d86103c2565b8114156100e25773__SortRLib______________________________63e6f37de9600f60405160e060020a63ffffffff8416028152600481019190915260240160006040518083038186803b151561052f57600080fd5b6102c65a03f4151561054057600080fd5b505050600091505b60008052600660205260008051602061126c833981519152548210156106eb5760008052600660205260008051602061126c83398151915280548390811061058c57fe5b6000918252602082200154600160a060020a031690631b45f0e090604051608001526040518163ffffffff1660e060020a028152600401608060405180830381600087803b15156105dc57600080fd5b6102c65a03f115156105ed57600080fd5b505050604051805190602001805190602001805190602001805193995091975095509093505082156106e05760008052600660205260008051602061126c833981519152805473__SortRLib______________________________9163ef61a13991600f91908690811061065d57fe5b600091825260209091200154600160a060020a031689898960405160e060020a63ffffffff88160281526004810195909552600160a060020a03909316602485015260448401919091526064830152608482015260a40160006040518083038186803b15156106cb57600080fd5b6102c65a03f415156106dc57600080fd5b5050505b600190910190610548565b600091505b6002600052600660205260008051602061128c83398151915254821015610896576002600052600660205260008051602061128c83398151915280548390811061073657fe5b6000918252602082200154600160a060020a031690631b45f0e090604051608001526040518163ffffffff1660e060020a028152600401608060405180830381600087803b151561078657600080fd5b6102c65a03f1151561079757600080fd5b5050506040518051906020018051906020018051906020018051939950919750955090935050821561088b576002600052600660205260008051602061128c833981519152805473__SortRLib______________________________9163ef61a13991600f91908690811061080857fe5b600091825260209091200154600160a060020a031689898960405160e060020a63ffffffff88160281526004810195909552600160a060020a03909316602485015260448401919091526064830152608482015260a40160006040518083038186803b151561087657600080fd5b6102c65a03f4151561088757600080fd5b5050505b6001909101906106f0565b42600b55505050505050565b60036108ac6103c2565b8114156100e25773__SortRLib______________________________63534e1918600f60405160e060020a63ffffffff8416028152600481019190915260240160006040518083038186803b151561090357600080fd5b6102c65a03f4151561091457600080fd5b5050506103b9565b600080600080600080600080600060046109346103c2565b8114156100e2576109448b61101d565b600d54939a509198509650945073__TransactLib___________________________9063bc2e368c908860006040516020015260405160e060020a63ffffffff85160281526004810192909252602482015260440160206040518083038186803b15156109b057600080fd5b6102c65a03f415156109c157600080fd5b505050604051805160026000908152600660205290995073__AdrLib________________________________9150632c2fc20e9060008051602061128c833981519152908a906040516020015260405160e060020a63ffffffff85160281526004810192909252600160a060020a0316602482015260440160206040518083038186803b1515610a5057600080fd5b6102c65a03f41515610a6157600080fd5b5050506040518051905015610b8b5786600160a060020a0316630ff372828960006040516020015260405160e060020a63ffffffff84160281526004810191909152602401602060405180830381600087803b1515610abf57600080fd5b6102c65a03f11515610ad057600080fd5b5050506040518051600d80548290039055600e54600c549195508502935073__TransactLib___________________________915063e2992d2990848a3060006040516020015260405160e060020a63ffffffff871602815260048101949094526024840192909252600160a060020a03908116604484015216606482015260840160206040518083038186803b1515610b6957600080fd5b6102c65a03f41515610b7a57600080fd5b5050506040518051600c5550610c80565b6000808052600660205273__AdrLib________________________________90632c2fc20e9060008051602061126c833981519152908a906040516020015260405160e060020a63ffffffff85160281526004810192909252600160a060020a0316602482015260440160206040518083038186803b1515610c0c57600080fd5b6102c65a03f41515610c1d57600080fd5b5050506040518051905015610c7b5786600160a060020a0316630ff372828960006040516020015260405160e060020a63ffffffff84160281526004810191909152602401602060405180830381600087803b1515610abf57600080fd5b600092505b5095999098509650505050505050565b6001610c9a6103c2565b8114156100e25760015433600160a060020a03908116911614156100e257600d82905542600a8190556001547fdf963fee409850630585bd095a505a9a956ef373cd706eb6eddec02d0a36731991600160a060020a039091169084906040518084600160a060020a0316600160a060020a03168152602001838152602001828152602001935050505060405180910390a15b5050565b600080600080600080600d541115611016576002600052600660205260008051602061128c8339815191525415610ee5575060005b6002600052600660205260008051602061128c83398151915254811015610ee0576002600052600660205260008051602061128c833981519152805482908110610dab57fe5b6000918252602082200154600d54600160a060020a03909116935083916335f7f5e291906040516040015260405160e060020a63ffffffff841602815260048101919091526024016040805180830381600087803b1515610e0b57600080fd5b6102c65a03f11515610e1c57600080fd5b5050506040518051906020018051600d80548490039055600c549297508781029650945073__TransactLib___________________________9163e2992d29915086853060006040516020015260405160e060020a63ffffffff871602815260048101949094526024840192909252600160a060020a03908116604484015216606482015260840160206040518083038186803b1515610ebb57600080fd5b6102c65a03f41515610ecc57600080fd5b5050506040518051600c5550600101610d65565b611016565b600354600d54600160a060020a03909116906335f7f5e29060006040516040015260405160e060020a63ffffffff841602815260048101919091526024016040805180830381600087803b1515610f3b57600080fd5b6102c65a03f11515610f4c57600080fd5b5050506040518051906020018051600d80548490039055600c54600354939850888202975090955073__TransactLib___________________________9263e2992d2992508790600160a060020a03163060006040516020015260405160e060020a63ffffffff871602815260048101949094526024840192909252600160a060020a03908116604484015216606482015260840160206040518083038186803b1515610ff857600080fd5b6102c65a03f4151561100957600080fd5b5050506040518051600c55505b5050505050565b600080808073__SortRLib______________________________6391871092600f87846040516080015260405160e060020a63ffffffff85160281526004810192909252602482015260440160806040518083038186803b151561108057600080fd5b6102c65a03f4151561109157600080fd5b5050506040518051906020018051906020018051906020018051905093509350935093509193509193565b600454600160a060020a031690565b60005433600160a060020a03908116911614156100e2576003805473ffffffffffffffffffffffffffffffffffffffff1916600160a060020a0383161790556103b9565b600d54600a549091565b60016111236103c2565b8114156100e25760015433600160a060020a03908116911614156100e257600e8290554260098190557fae46785019700e30375a5d7b4f91e32f8060ef085111f896ebf889450aa2ab5a9060405190815260200160405180910390a1610d2c565b600e5460085460095460009142910110156111a1575060006111a5565b5060015b9091565b60005433600160a060020a03908116911614156100e25760008281526006602052604090208054600181016111de8382611224565b506000918252602090912001805473ffffffffffffffffffffffffffffffffffffffff1916600160a060020a038316179055610d2c565b600054600160a060020a031681565b8154818355818115116112485760008381526020902061124891810190830161124d565b505050565b61037691905b808211156112675760008155600101611253565b5090560054cdd369e4e8a8515e52ca72ec816c2101831ad1f18bf44102ed171459c9b4f88819ef417987f8ae7a81f42cdfb18815282fe989326fbff903d13cf0e03ace29a165627a7a7230582056c595ad4801d01d3d420aefd987ec5ee7e4558d289def3027c15726115501560029606060405260038054600160a060020a031990811690915560048054909116905561012c6008819055600955341561003657600080fd5b60405160408061168a833981016040528080519190602001805160018054600160a060020a03958616600160a060020a031991821617909155600080543390961695909116949094179093555050600e556115f4806100966000396000f30060606040526004361061010e5763ffffffff60e060020a600035041663074b7c8081146101135780630830cfae146101385780630e00c316146101595780630ff37282146101905780631b45f0e0146101a6578063235a4a4f146101e55780632fbc0bf1146101f857806335f7f5e2146102255780633d7224dc146102535780633d859507146102665780633fd2007d146102795780634559dcdc1461028f5780636a95841b146102a55780636b608223146102bb57806370ed8f241461030e57806379c19df01461033d5780638d646b1114610350578063aac12b4b1461036f578063bfd1190314610382578063c9746029146103a4578063f7d97577146103b7578063ff1b636d146103d0575b600080fd5b341561011e57600080fd5b6101266103e3565b60405190815260200160405180910390f35b341561014357600080fd5b610157600160a060020a036004351661044d565b005b341561016457600080fd5b61016c610490565b60405180848152602001838152602001828152602001935050505060405180910390f35b341561019b57600080fd5b6101266004356104a0565b34156101b157600080fd5b6101b9610713565b604051938452602084019290925260408084019190915290151560608301526080909101905180910390f35b34156101f057600080fd5b6101266107b6565b341561020357600080fd5b61020b610800565b604051918252151560208201526040908101905180910390f35b341561023057600080fd5b61023b600435610825565b60405191825260208201526040908101905180910390f35b341561025e57600080fd5b610157610953565b341561027157600080fd5b610157610b85565b341561028457600080fd5b61023b600435610bff565b341561029a57600080fd5b610157600435610eef565b34156102b057600080fd5b610157600435610f7e565b34156102c657600080fd5b6102d1600435610fc3565b6040518085600160a060020a0316600160a060020a0316815260200184815260200183815260200182815260200194505050505060405180910390f35b341561031957600080fd5b610321611062565b604051600160a060020a03909116815260200160405180910390f35b341561034857600080fd5b610126611071565b341561035b57600080fd5b610157600160a060020a0360043516611077565b341561037a57600080fd5b6101576110bb565b341561038d57600080fd5b610157600435600160a060020a036024351661124a565b34156103af57600080fd5b6101576112b6565b34156103c257600080fd5b6101576004356024356114cc565b34156103db57600080fd5b61032161153c565b600454600090600160a060020a031663bdef9d9282604051602001526040518163ffffffff1660e060020a028152600401602060405180830381600087803b151561042d57600080fd5b6102c65a03f1151561043e57600080fd5b50505060405180519150505b90565b60005433600160a060020a039081169116141561010e576004805473ffffffffffffffffffffffffffffffffffffffff1916600160a060020a0383161790555b50565b600f54600b54600e549192909190565b600160009081526006602052338173__AdrLib________________________________632c2fc20e60008051602061158983398151915284846040516020015260405160e060020a63ffffffff85160281526004810192909252600160a060020a0316602482015260440160206040518083038186803b151561052257600080fd5b6102c65a03f4151561053357600080fd5b50505060405180519050806105555750600354600160a060020a038381169116145b151561056057600080fd5b60105473__TransactLib___________________________63bc2e368c90918660006040516020015260405160e060020a63ffffffff85160281526004810192909252602482015260440160206040518083038186803b15156105c257600080fd5b6102c65a03f415156105d357600080fd5b5050506040518051600f805482019081905542600b8190556001549294507fa8533a3e28bf00cd05018ed80847d3d6f170da084f6417da50798db7335ff9a09350600160a060020a03909216916040518084600160a060020a0316600160a060020a03168152602001838152602001828152602001935050505060405180910390a160105473__TransactLib___________________________639e5fd0a99091833060006040516020015260405160e060020a63ffffffff861602815260048101939093526024830191909152600160a060020a0316604482015260640160206040518083038186803b15156106c957600080fd5b6102c65a03f415156106da57600080fd5b505050604051805160105550600160a060020a038216600090815260136020526040902054600780549183029091039055915050919050565b6010546000808073__SortPLib______________________________63c6742457601333846040516060015260405160e060020a63ffffffff85160281526004810192909252600160a060020a0316602482015260440160606040518083038186803b151561078157600080fd5b6102c65a03f4151561079257600080fd5b50505060405180519060200180519060200180519697929691955090935090915050565b600454600090600160a060020a0316633b7104f282604051602001526040518163ffffffff1660e060020a028152600401602060405180830381600087803b151561042d57600080fd5b601154600954600a54600091429101101561081d57506000610821565b5060015b9091565b60008060125490508273__TransactLib___________________________63bc2e368c9091600f54600e540360006040516020015260405160e060020a63ffffffff85160281526004810192909252602482015260440160206040518083038186803b151561089357600080fd5b6102c65a03f415156108a457600080fd5b505050604051805190509150600f5473__TransactLib___________________________63994459079091843060006040516020015260405160e060020a63ffffffff861602815260048101939093526024830191909152600160a060020a0316604482015260640160206040518083038186803b151561092457600080fd5b6102c65a03f4151561093557600080fd5b5050506040518051600f555060078054838302900390559092909150565b600080600080600060036109656107b6565b81141561010e5773__SortRLib______________________________63e6f37de9601760405160e060020a63ffffffff8416028152600481019190915260240160006040518083038186803b15156109bc57600080fd5b6102c65a03f415156109cd57600080fd5b505050600091505b6000805260066020526000805160206115a983398151915254821015610b78576000805260066020526000805160206115a9833981519152805483908110610a1957fe5b6000918252602082200154600160a060020a031690631b45f0e090604051608001526040518163ffffffff1660e060020a028152600401608060405180830381600087803b1515610a6957600080fd5b6102c65a03f11515610a7a57600080fd5b50505060405180519060200180519060200180519060200180519399509197509550909350508215610b6d576000805260066020526000805160206115a9833981519152805473__SortRLib______________________________9163ef61a139916017919086908110610aea57fe5b600091825260209091200154600160a060020a031689898960405160e060020a63ffffffff88160281526004810195909552600160a060020a03909316602485015260448401919091526064830152608482015260a40160006040518083038186803b1515610b5857600080fd5b6102c65a03f41515610b6957600080fd5b5050505b6001909101906109d5565b42600d555b505050505050565b6003610b8f6107b6565b81141561010e5773__SortRLib______________________________63534e1918601760405160e060020a63ffffffff8416028152600481019190915260240160006040518083038186803b1515610be657600080fd5b6102c65a03f41515610bf757600080fd5b50505061048d565b60008060008060008060008060006004610c176107b6565b81141561010e57610c278b610fc3565b600f54939a509198509650945073__TransactLib___________________________9063bc2e368c908860006040516020015260405160e060020a63ffffffff85160281526004810192909252602482015260440160206040518083038186803b1515610c9357600080fd5b6102c65a03f41515610ca457600080fd5b50505060405180516000808052600660205290995073__AdrLib________________________________9150632c2fc20e906000805160206115a9833981519152908a906040516020015260405160e060020a63ffffffff85160281526004810192909252600160a060020a0316602482015260440160206040518083038186803b1515610d3157600080fd5b6102c65a03f41515610d4257600080fd5b5050506040518051905015610eda5786600160a060020a0316630ff372828960006040516020015260405160e060020a63ffffffff84160281526004810191909152602401602060405180830381600087803b1515610da057600080fd5b6102c65a03f11515610db157600080fd5b5050506040518051600f80548290039081905542600b8190556001549296507fa8533a3e28bf00cd05018ed80847d3d6f170da084f6417da50798db7335ff9a09350600160a060020a03909216916040518084600160a060020a0316600160a060020a03168152602001838152602001828152602001935050505060405180910390a16011548302915060075473__TransactLib___________________________63e2992d299091848a3060006040516020015260405160e060020a63ffffffff871602815260048101949094526024840192909252600160a060020a03908116604484015216606482015260840160206040518083038186803b1515610eb857600080fd5b6102c65a03f41515610ec957600080fd5b505050604051805160075550610edf565b600092505b5095999098509650505050505050565b60015433600160a060020a039081169116141561010e57600f81905542600b8190556001547fa8533a3e28bf00cd05018ed80847d3d6f170da084f6417da50798db7335ff9a091600160a060020a039091169083906040518084600160a060020a0316600160a060020a03168152602001838152602001828152602001935050505060405180910390a161048d565b6001610f886107b6565b81141561010e5760015433600160a060020a039081169116141561010e57600e54600f5483011115610fb957600080fd5b60108290555b5050565b600080808073__SortRLib______________________________6391871092601787846040516080015260405160e060020a63ffffffff85160281526004810192909252602482015260440160806040518083038186803b151561102657600080fd5b6102c65a03f4151561103757600080fd5b5050506040518051906020018051906020018051906020018051905093509350935093509193509193565b600454600160a060020a031690565b60105490565b60005433600160a060020a039081169116141561010e576003805473ffffffffffffffffffffffffffffffffffffffff1916600160a060020a03831617905561048d565b60008060026110c86107b6565b81141561010e5773__SortPLib______________________________6332a76998601360405160e060020a63ffffffff8416028152600481019190915260240160006040518083038186803b151561111f57600080fd5b6102c65a03f4151561113057600080fd5b5050600354600160a060020a03161590506112455760035460009350839250600160a060020a03166398d5fdca83604051604001526040518163ffffffff1660e060020a0281526004016040805180830381600087803b151561119257600080fd5b6102c65a03f115156111a357600080fd5b5050506040518051906020018051600354929550935073__SortPLib______________________________9163c3af64529150601390600160a060020a0316868660405160e060020a63ffffffff87160281526004810194909452600160a060020a03909216602484015260448301521515606482015260840160006040518083038186803b151561123457600080fd5b6102c65a03f41515610b7d57600080fd5b505050565b60005433600160a060020a039081169116141561010e57600082815260066020526040902080546001810161127f838261154b565b506000918252602090912001805473ffffffffffffffffffffffffffffffffffffffff1916600160a060020a038316179055610fbf565b600080600060026112c56107b6565b81141561010e576000935083925073__SortPLib______________________________63e61f7934601360405160e060020a63ffffffff8416028152600481019190915260240160006040518083038186803b151561132357600080fd5b6102c65a03f4151561133457600080fd5b505050600091505b60016000526006602052600080516020611589833981519152548210156114c2576001600052600660205260008051602061158983398151915280548390811061138257fe5b6000918252602082200154600160a060020a0316906398d5fdca90604051604001526040518163ffffffff1660e060020a0281526004016040805180830381600087803b15156113d157600080fd5b6102c65a03f115156113e257600080fd5b505050604051805190602001805160016000526006602052600080516020611589833981519152805493975090955073__SortPLib______________________________9263c3af64529250601391908690811061143c57fe5b600091825260209091200154600160a060020a0316878760405160e060020a63ffffffff87160281526004810194909452600160a060020a03909216602484015260448301521515606482015260840160006040518083038186803b15156114a357600080fd5b6102c65a03f415156114b457600080fd5b50506001909201915061133c565b42600c5550505050565b60016114d66107b6565b81141561010e5760015433600160a060020a039081169116141561010e576011839055601282905542600a8190557fae46785019700e30375a5d7b4f91e32f8060ef085111f896ebf889450aa2ab5a9060405190815260200160405180910390a1611245565b600054600160a060020a031681565b8154818355818115116112455760008381526020902061124591810190830161044a91905b808211156115845760008155600101611570565b509056003e5fec24aa4dc4e5aee2e025e51e1392c72a2500577559fae9665c6d52bd6a3154cdd369e4e8a8515e52ca72ec816c2101831ad1f18bf44102ed171459c9b4f8a165627a7a72305820348298a1eafbe8f17a3a3e1a49d94750e63316884cbb3d236e42a3a1340c61d90029a165627a7a72305820f77bfc2f2aed5cd7685d6f7203248e012f6b17eddc2f3c3696245a1c7bbb4a4300296060604052341561000f57600080fd5b60006001819055600a600355600481905560025560c060405190810160409081526009825260016020830152600390820152600560608201819052600a6080830152600c60a0830152610063916006610069565b506100c9565b826006810192821561009c579160200282015b8281111561009c578251829060ff1690559160200191906001019061007c565b506100a89291506100ac565b5090565b6100c691905b808211156100a857600081556001016100b2565b90565b610179806100d86000396000f30060606040526004361061004b5763ffffffff7c01000000000000000000000000000000000000000000000000000000006000350416633b7104f28114610050578063bdef9d9214610075575b600080fd5b341561005b57600080fd5b610063610088565b60405190815260200160405180910390f35b341561008057600080fd5b6100636100fb565b600080600154600014156100a35760018055426000556100f3565b506001545b60068110156100e157600581600681106100be57fe5b0154603c0260005401421115156100d95760018190556100e1565b6001016100a8565b60078114156100f35760018055426000555b505060015490565b6000610105610088565b60041461011b5760006004819055600255610147565b600560040154603c0260005442030360048190555060035460045481151561013f57fe5b046001016002555b506001905600a165627a7a723058208d25c302bfe4fad0d9ce5d8b469f0890230e9c8cfa4fdfa4d08748db06ac85d70029",
  "source": "pragma solidity ^0.4.4;\r\n\r\nimport \"./SingleHouse.sol\";\r\nimport \"./SinglePV.sol\";\r\nimport \"./SingleBattery.sol\";\r\nimport \"./Grid.sol\";\r\nimport \"./GlobalTimer.sol\";\r\n\r\ncontract Configuration {\r\n\r\n  address public admin = msg.sender; // only the admin node can modify the configuration...\r\n  address public globalTimerAdr;\r\n  address public gridAdr;          // store the address of grid...(address of the transformer that links to the grid... not the contract address)\r\n  uint public statusAt; // timestamp of the creation of Configuration instance\r\n\r\n  // The variables below should be deleted... \r\n  uint8 private numHouseCurrent = 0;    // current houses in the system\r\n  uint8 private numPVCurrent = 0;       // current PVs in the system\r\n  uint8 private numBatteryCurrent = 0;    // current batteries in the system\r\n\r\n  // Several types of devices in the system\r\n  enum deviceType {House, PV, Battery}\r\n\r\n  struct EndUser {\r\n    deviceType  dType;\r\n    address     cAddress;           // address of the contract\r\n    uint        statusAt;           // timestamp of the creation\r\n    mapping(address=>EndUser) connectedUser;     // List of another node connected.\r\n  }\r\n\r\n\r\n  mapping(address=>EndUser) userList;   // the account of the owner => struct\r\n  mapping(address=>address) contractList;   // now putting all the linkage to real contract address into this mapping\r\n\r\n  // Restricts execution by admin only\r\n  modifier adminOnly {\r\n    if(msg.sender == admin){\r\n      _;\r\n    } else {\r\n      revert();\r\n    }\r\n  }\r\n  \r\n  event LogDevice(address deviceAdr);\r\n  event LogConnection(address device1, address device2);\r\n\r\n  function Configuration() adminOnly {\r\n      statusAt = now;\r\n      globalTimerAdr = new GlobalTimer();\r\n\r\n  }\r\n\r\n  function addGrid(address adr) adminOnly {\r\n      contractList[adr] = new Grid(adr);\r\n      GeneralDevice(contractList[adr]).setTimerAdr(globalTimerAdr);\r\n      gridAdr = address(contractList[adr]);\r\n  }\r\n\r\n  function addDevice(uint8 _deviceType, address adr, uint capacity, bool g) adminOnly public {\r\n      require (_deviceType < 3); //addBattery\r\n      if (_deviceType == 0) {   // addHouse\r\n        contractList[adr] = new SingleHouse(adr);\r\n        numHouseCurrent++;\r\n      } else if (_deviceType == 1) {    //addPV\r\n        contractList[adr] = new SinglePV(adr);\r\n        numPVCurrent++;\r\n      } else {\r\n        contractList[adr] = new SingleBattery(adr, capacity);\r\n        numBatteryCurrent++;\r\n      }\r\n      if (g) {\r\n          GeneralDevice(contractList[adr]).setGridAdr(gridAdr);\r\n          GeneralDevice(gridAdr).addConnectedDevice(_deviceType, contractList[adr]);\r\n        }\r\n      EndUser memory tempEU;\r\n      tempEU.dType = deviceType(_deviceType);\r\n      tempEU.cAddress = address(contractList[adr]);\r\n      tempEU.statusAt = now;\r\n      userList[adr] = tempEU;\r\n      GeneralDevice(contractList[adr]).setTimerAdr(globalTimerAdr);\r\n      LogDevice(adr);\r\n  }\r\n\r\n    function getContractAddress(address adr) view adminOnly returns(address) {\r\n      return address(contractList[adr]);\r\n    }  \r\n\r\n    function getDeviceType(address adr) returns (uint8) {\r\n        // deviceType {House,PV,Battery}\r\n        \r\n        if (userList[adr].cAddress != 0x0) {\r\n            return uint8(userList[adr].dType);\r\n        } else {\r\n            return 15;   // when the address corresponds no device in the configuration...\r\n        }\r\n    }\r\n\r\n    function linkDevices(address adr1, address adr2) adminOnly {\r\n        uint8[2] memory dt;\r\n        dt[0] = getDeviceType(adr1);\r\n        dt[1] = getDeviceType(adr2);\r\n        require(dt[0]<3 && userList[adr1].connectedUser[adr2].cAddress == 0x0);\r\n        require(dt[1]<3 && userList[adr2].connectedUser[adr1].cAddress == 0x0);\r\n        userList[adr1].connectedUser[adr2] = userList[adr2];\r\n        userList[adr2].connectedUser[adr1] = userList[adr1];\r\n\r\n        GeneralDevice(address(contractList[adr1])).addConnectedDevice(dt[1],address(contractList[adr2]));\r\n        GeneralDevice(address(contractList[adr2])).addConnectedDevice(dt[0],address(contractList[adr1]));\r\n        \r\n        LogConnection(adr1,adr2);\r\n    }\r\n\r\n    // test functions\r\n\r\n    function getAdmin() constant returns (address) {\r\n        return admin;\r\n    } \r\n\r\n    function getGridAdr() constant returns(address) {\r\n        return gridAdr;\r\n    } \r\n\r\n}\r\n",
  "sourcePath": "C:\\Users\\qianc\\Documents\\Thesis\\Code\\SimpleMonitor\\contracts\\Configuration.sol",
  "compiler": {
    "name": "solc",
    "version": "0.4.18+commit.9cf6e910.Emscripten.clang"
  },
  "schemaVersion": "1.0.1",
  "updatedAt": "2017-11-29T03:00:25.342Z"
}