{
  "contractName": "GeneralDevice",
  "abi": [
    {
      "constant": false,
      "inputs": [
        {
          "name": "adr",
          "type": "address"
        }
      ],
      "name": "setGridAdr",
      "outputs": [],
      "payable": false,
      "stateMutability": "nonpayable",
      "type": "function"
    },
    {
      "constant": false,
      "inputs": [
        {
          "name": "a",
          "type": "uint256"
        },
        {
          "name": "adr",
          "type": "address"
        }
      ],
      "name": "addConnectedDevice",
      "outputs": [],
      "payable": false,
      "stateMutability": "nonpayable",
      "type": "function"
    },
    {
      "constant": true,
      "inputs": [],
      "name": "Admin",
      "outputs": [
        {
          "name": "",
          "type": "address"
        }
      ],
      "payable": false,
      "stateMutability": "view",
      "type": "function"
    },
    {
      "inputs": [
        {
          "name": "adr",
          "type": "address"
        }
      ],
      "payable": false,
      "stateMutability": "nonpayable",
      "type": "constructor"
    }
  ],
  "bytecode": "0x606060405260038054600160a060020a0319169055341561001f57600080fd5b6040516020806102738339810160405280805160018054600160a060020a03928316600160a060020a03199182161790915560008054339093169290911691909117905550506101ff806100746000396000f3006060604052600436106100565763ffffffff7c01000000000000000000000000000000000000000000000000000000006000350416638d646b11811461005b578063bfd119031461007c578063ff1b636d1461009e575b600080fd5b341561006657600080fd5b61007a600160a060020a03600435166100cd565b005b341561008757600080fd5b61007a600435600160a060020a036024351661010f565b34156100a957600080fd5b6100b161017a565b604051600160a060020a03909116815260200160405180910390f35b60005433600160a060020a0390811691161415610056576003805473ffffffffffffffffffffffffffffffffffffffff1916600160a060020a03831617905550565b60005433600160a060020a03908116911614156100565760008281526005602052604090208054600181016101448382610189565b506000918252602090912001805473ffffffffffffffffffffffffffffffffffffffff1916600160a060020a0383161790555050565b600054600160a060020a031681565b8154818355818115116101ad576000838152602090206101ad9181019083016101b2565b505050565b6101d091905b808211156101cc57600081556001016101b8565b5090565b905600a165627a7a723058204f54b3b60f1a8ef7df6d81080f2c6a4732aa94cd92bb0d3bdb19cebf26b606f00029",
  "source": "pragma solidity ^0.4.4;\n\ncontract GeneralDevice {\n  address public Admin;               // the account address of the admin\n  address internal owner;             // the account address of the owner\n  // Here we are still using adr in the constructor, but later maybe we should change the adr input into byte32, by a harshed device identifier\n  bytes32 internal name;              // name of the device (Serie No.)\n  address grid = 0x0;\n  int     wallet;                     // To record loss & gain (that of house is negative -> need to pay others)\n  mapping(uint=>address[]) connectedDevice;\n\n  modifier adminOnly {\n    if (msg.sender == Admin) {\n      _;\n    } else {\n      revert();\n    }\n  }\n\n  modifier ownerOnly {\n    if (msg.sender == owner) {\n      _;\n    } else {\n      revert();\n    }\n  }\n\n  function GeneralDevice (address adr) {\n    owner = adr;\n    Admin = msg.sender;\n  }\n\n  function setGridAdr(address adr) adminOnly {\n    grid = adr;\n  }\n\n  function addConnectedDevice(uint a, address adr) adminOnly {\n    connectedDevice[a].push(adr);\n  }\n}\n",
  "sourcePath": "C:\\Users\\qianc\\Documents\\Thesis\\Code\\SimpleMonitor\\contracts\\GeneralDevice.sol",
  "compiler": {
    "name": "solc",
    "version": "0.4.18+commit.9cf6e910.Emscripten.clang"
  },
  "schemaVersion": "1.0.1",
  "updatedAt": "2017-11-26T15:56:44.886Z"
}