{
  "contractName": "GeneralDevice",
  "abi": [
    {
      "constant": true,
      "inputs": [],
      "name": "Admin",
      "outputs": [
        {
          "name": "",
          "type": "address"
        }
      ],
      "payable": false,
      "stateMutability": "view",
      "type": "function"
    },
    {
      "inputs": [
        {
          "name": "adr",
          "type": "address"
        }
      ],
      "payable": false,
      "stateMutability": "nonpayable",
      "type": "constructor"
    }
  ],
  "bytecode": "0x6060604052341561000f57600080fd5b6040516020806101278339810160405280805160018054600160a060020a03928316600160a060020a031991821617909155600080543390931692909116919091179055505060c4806100636000396000f300606060405260043610603e5763ffffffff7c0100000000000000000000000000000000000000000000000000000000600035041663ff1b636d81146043575b600080fd5b3415604d57600080fd5b6053607c565b60405173ffffffffffffffffffffffffffffffffffffffff909116815260200160405180910390f35b60005473ffffffffffffffffffffffffffffffffffffffff16815600a165627a7a72305820aaadf682de7bd65fffc60402ac0e2b1db3907cc09a04f7380d2ebdbe8b8e4c580029",
  "source": "pragma solidity ^0.4.4;\n\ncontract GeneralDevice {\n  address public Admin;             // the account address of the admin\n  address internal owner;             // the account address of the owner\n  // Here we are still using adr in the constructor, but later maybe we should change the adr input into byte32, by a harshed device identifier\n  bytes32 internal name;              // name of the device (Serie No.)\n\n  modifier adminOnly {\n    if (msg.sender == Admin) {\n      _;\n    } else {\n      revert();\n    }\n  }\n\n  modifier ownerOnly {\n    if (msg.sender == owner) {\n      _;\n    } else {\n      revert();\n    }\n  }\n\n  function GeneralDevice (address adr) {\n    owner = adr;\n    Admin = msg.sender;\n  }\n}\n",
  "sourcePath": "C:\\Users\\qianc\\Documents\\Thesis\\Code\\SimpleMonitor\\contracts\\GeneralDevice.sol",
  "compiler": {
    "name": "solc",
    "version": "0.4.18+commit.9cf6e910.Emscripten.clang"
  },
  "schemaVersion": "1.0.1",
  "updatedAt": "2017-11-26T10:01:55.542Z"
}