{
  "contractName": "GeneralDevice",
  "abi": [
    {
      "constant": true,
      "inputs": [],
      "name": "name",
      "outputs": [
        {
          "name": "",
          "type": "bytes32"
        }
      ],
      "payable": false,
      "stateMutability": "view",
      "type": "function"
    },
    {
      "constant": true,
      "inputs": [],
      "name": "owner",
      "outputs": [
        {
          "name": "",
          "type": "address"
        }
      ],
      "payable": false,
      "stateMutability": "view",
      "type": "function"
    },
    {
      "constant": true,
      "inputs": [],
      "name": "Admin",
      "outputs": [
        {
          "name": "",
          "type": "address"
        }
      ],
      "payable": false,
      "stateMutability": "view",
      "type": "function"
    }
  ],
  "bytecode": "0x6060604052341561000f57600080fd5b6101398061001e6000396000f3006060604052600436106100565763ffffffff7c010000000000000000000000000000000000000000000000000000000060003504166306fdde03811461005b5780638da5cb5b14610080578063ff1b636d146100bc575b600080fd5b341561006657600080fd5b61006e6100cf565b60405190815260200160405180910390f35b341561008b57600080fd5b6100936100d5565b60405173ffffffffffffffffffffffffffffffffffffffff909116815260200160405180910390f35b34156100c757600080fd5b6100936100f1565b60025481565b60015473ffffffffffffffffffffffffffffffffffffffff1681565b60005473ffffffffffffffffffffffffffffffffffffffff16815600a165627a7a72305820e0f58d50e4a3a21e1fa576e2e4644233744f2a3a777e612927966246af7a3cc00029",
  "source": "pragma solidity ^0.4.4;\n\ncontract GeneralDevice {\n  address public Admin;             // the account address of the admin\n  address public owner;             // the account address of the owner\n  bytes32 public name;              // name of the device (Serie No.)\n\n  modifier adminOnly {\n    if (msg.sender == Admin) {\n      _;\n    } else {\n      revert();\n    }\n  }\n\n  modifier ownerOnly {\n    if (msg.sender == owner) {\n      _;\n    } else {\n      revert();\n    }\n  }\n}\n",
  "sourcePath": "C:\\Users\\qianc\\Documents\\Thesis\\Code\\SimpleMonitor\\contracts\\GeneralDevice.sol",
  "compiler": {
    "name": "solc",
    "version": "0.4.18+commit.9cf6e910.Emscripten.clang"
  },
  "schemaVersion": "1.0.1",
  "updatedAt": "2017-11-25T14:26:09.013Z"
}