{
  "contractName": "GeneralDevice",
  "abi": [
    {
      "constant": false,
      "inputs": [
        {
          "name": "adr",
          "type": "address"
        }
      ],
      "name": "setTimerAdr",
      "outputs": [],
      "payable": false,
      "stateMutability": "nonpayable",
      "type": "function"
    },
    {
      "constant": false,
      "inputs": [],
      "name": "getTimerStatus",
      "outputs": [
        {
          "name": "",
          "type": "uint256"
        }
      ],
      "payable": false,
      "stateMutability": "nonpayable",
      "type": "function"
    },
    {
      "constant": false,
      "inputs": [],
      "name": "getTimerAddress",
      "outputs": [
        {
          "name": "",
          "type": "address"
        }
      ],
      "payable": false,
      "stateMutability": "nonpayable",
      "type": "function"
    },
    {
      "constant": false,
      "inputs": [
        {
          "name": "adr",
          "type": "address"
        }
      ],
      "name": "setGridAdr",
      "outputs": [],
      "payable": false,
      "stateMutability": "nonpayable",
      "type": "function"
    },
    {
      "constant": false,
      "inputs": [
        {
          "name": "a",
          "type": "uint256"
        },
        {
          "name": "adr",
          "type": "address"
        }
      ],
      "name": "addConnectedDevice",
      "outputs": [],
      "payable": false,
      "stateMutability": "nonpayable",
      "type": "function"
    },
    {
      "constant": true,
      "inputs": [],
      "name": "Admin",
      "outputs": [
        {
          "name": "",
          "type": "address"
        }
      ],
      "payable": false,
      "stateMutability": "view",
      "type": "function"
    },
    {
      "inputs": [
        {
          "name": "adr",
          "type": "address"
        }
      ],
      "payable": false,
      "stateMutability": "nonpayable",
      "type": "constructor"
    }
  ],
  "bytecode": "0x606060405260038054600160a060020a0319908116909155600480549091169055341561002b57600080fd5b6040516020806103cb8339810160405280805160018054600160a060020a03928316600160a060020a031991821617909155600080543390931692909116919091179055505061034b806100806000396000f3006060604052600436106100775763ffffffff7c01000000000000000000000000000000000000000000000000000000006000350416630830cfae811461007c578063235a4a4f1461009d57806370ed8f24146100c25780638d646b11146100f1578063bfd1190314610110578063ff1b636d14610132575b600080fd5b341561008757600080fd5b61009b600160a060020a0360043516610145565b005b34156100a857600080fd5b6100b0610188565b60405190815260200160405180910390f35b34156100cd57600080fd5b6100d561020b565b604051600160a060020a03909116815260200160405180910390f35b34156100fc57600080fd5b61009b600160a060020a036004351661021a565b341561011b57600080fd5b61009b600435600160a060020a036024351661025e565b341561013d57600080fd5b6100d56102c9565b60005433600160a060020a0390811691161415610077576004805473ffffffffffffffffffffffffffffffffffffffff1916600160a060020a0383161790555b50565b600454600090600160a060020a0316633b7104f282604051602001526040518163ffffffff167c0100000000000000000000000000000000000000000000000000000000028152600401602060405180830381600087803b15156101eb57600080fd5b6102c65a03f115156101fc57600080fd5b50505060405180519150505b90565b600454600160a060020a031690565b60005433600160a060020a0390811691161415610077576003805473ffffffffffffffffffffffffffffffffffffffff1916600160a060020a038316179055610185565b60005433600160a060020a039081169116141561007757600082815260066020526040902080546001810161029383826102d8565b506000918252602090912001805473ffffffffffffffffffffffffffffffffffffffff1916600160a060020a0383161790555050565b600054600160a060020a031681565b8154818355818115116102fc576000838152602090206102fc918101908301610301565b505050565b61020891905b8082111561031b5760008155600101610307565b50905600a165627a7a72305820001f4b681cf32f4d44208095d1a496063f07f6b82a8f26538e12edde5b6e8aa00029",
  "source": "pragma solidity ^0.4.4;\r\n\r\nimport \"./AdrLib.sol\";\r\n//import \"./ClockLib.sol\";\r\nimport \"./ITimer.sol\";\r\n\r\ncontract GeneralDevice {\r\n  using AdrLib for address[];\r\n  //using ClockLib for ClockLib.GlobalClock;\r\n\r\n  address public Admin;               // the account address of the admin\r\n  address internal owner;             // the account address of the owner. Here we are still using adr in the constructor, \r\n                                      // but later we may change the adr input into byte32, by a harshed device identifier\r\n  bytes32 internal name;              // name of the device (Serie No.)\r\n  address grid = 0x0;\r\n  address globalTimer = 0x0;\r\n  int     wallet;                     // To record loss & gain (that of house is negative -> need to pay others)\r\n  mapping(uint=>address[]) connectedDevice;\r\n  //ClockLib.GlobalClock globalTimer;\r\n\r\n  modifier adminOnly {\r\n    if (msg.sender == Admin) {\r\n      _;\r\n    } else {\r\n      revert();\r\n    }\r\n  }\r\n\r\n  modifier ownerOnly {\r\n    if (msg.sender == owner) {\r\n      _;\r\n    } else {\r\n      revert();\r\n    }\r\n  }\r\n\r\n  modifier connectedHouseOnly (address adr) {\r\n    if (connectedDevice[1].assertInside(adr) == true) {\r\n      _;\r\n    } else {\r\n      revert();\r\n    } \r\n  }\r\n\r\n  modifier connectedPVOnly (address adr) {\r\n    if (connectedDevice[1].assertInside(adr)) {\r\n      _;\r\n    } else {\r\n      revert();\r\n    }\r\n  }\r\n\r\n  modifier connectedBatteryOnly (address adr) {\r\n    if (connectedDevice[2].assertInside(adr)) {\r\n      _;\r\n    } else {\r\n      revert();\r\n    }\r\n  }\r\n\r\n  function GeneralDevice (address adr) {\r\n    owner = adr;\r\n    Admin = msg.sender;\r\n  }\r\n\r\n  function setGridAdr(address adr) adminOnly {\r\n    grid = adr;\r\n  }\r\n\r\n  function setTimerAdr(address adr) adminOnly {\r\n    globalTimer = adr;\r\n  }\r\n\r\n  function addConnectedDevice(uint a, address adr) adminOnly {\r\n    connectedDevice[a].push(adr);\r\n  }\r\n  // a function that disconnects devices can be added here, if needed\r\n\r\n  function getTimerStatus() returns (uint) {\r\n    return ITimer(globalTimer).checkStatus();\r\n  }\r\n\r\n  //test\r\n\r\n  function getTimerAddress() returns (address) {\r\n    return globalTimer;\r\n  }\r\n\r\n}\r\n",
  "sourcePath": "C:\\Users\\qianc\\Documents\\Thesis\\Code\\SimpleMonitor\\contracts\\GeneralDevice.sol",
  "compiler": {
    "name": "solc",
    "version": "0.4.18+commit.9cf6e910.Emscripten.clang"
  },
  "schemaVersion": "1.0.1",
  "updatedAt": "2017-11-28T21:48:08.012Z"
}