{
  "contractName": "GeneralDevice",
  "abi": [
    {
      "constant": false,
      "inputs": [],
      "name": "getTimerIndex",
      "outputs": [
        {
          "name": "",
          "type": "uint256"
        }
      ],
      "payable": false,
      "stateMutability": "nonpayable",
      "type": "function"
    },
    {
      "constant": false,
      "inputs": [
        {
          "name": "adr",
          "type": "address"
        }
      ],
      "name": "setTimerAdr",
      "outputs": [],
      "payable": false,
      "stateMutability": "nonpayable",
      "type": "function"
    },
    {
      "constant": false,
      "inputs": [],
      "name": "getTimerStatus",
      "outputs": [
        {
          "name": "",
          "type": "uint256"
        }
      ],
      "payable": false,
      "stateMutability": "nonpayable",
      "type": "function"
    },
    {
      "constant": false,
      "inputs": [],
      "name": "getTimerAddress",
      "outputs": [
        {
          "name": "",
          "type": "address"
        }
      ],
      "payable": false,
      "stateMutability": "nonpayable",
      "type": "function"
    },
    {
      "constant": false,
      "inputs": [
        {
          "name": "adr",
          "type": "address"
        }
      ],
      "name": "setGridAdr",
      "outputs": [],
      "payable": false,
      "stateMutability": "nonpayable",
      "type": "function"
    },
    {
      "constant": false,
      "inputs": [
        {
          "name": "a",
          "type": "uint256"
        },
        {
          "name": "adr",
          "type": "address"
        }
      ],
      "name": "addConnectedDevice",
      "outputs": [],
      "payable": false,
      "stateMutability": "nonpayable",
      "type": "function"
    },
    {
      "constant": true,
      "inputs": [],
      "name": "Admin",
      "outputs": [
        {
          "name": "",
          "type": "address"
        }
      ],
      "payable": false,
      "stateMutability": "view",
      "type": "function"
    },
    {
      "inputs": [
        {
          "name": "adr",
          "type": "address"
        }
      ],
      "payable": false,
      "stateMutability": "nonpayable",
      "type": "constructor"
    }
  ],
  "bytecode": "0x606060405260038054600160a060020a0319908116909155600480549091169055341561002b57600080fd5b6040516020806104018339810160405280805160018054600160a060020a03928316600160a060020a0319918216179091556000805433909316929091169190911790555050610381806100806000396000f3006060604052600436106100695763ffffffff60e060020a600035041663074b7c80811461006e5780630830cfae14610093578063235a4a4f146100b457806370ed8f24146100c75780638d646b11146100f6578063bfd1190314610115578063ff1b636d14610137575b600080fd5b341561007957600080fd5b61008161014a565b60405190815260200160405180910390f35b341561009e57600080fd5b6100b2600160a060020a03600435166101b4565b005b34156100bf57600080fd5b6100816101f7565b34156100d257600080fd5b6100da610241565b604051600160a060020a03909116815260200160405180910390f35b341561010157600080fd5b6100b2600160a060020a0360043516610250565b341561012057600080fd5b6100b2600435600160a060020a0360243516610294565b341561014257600080fd5b6100da6102ff565b600454600090600160a060020a031663bdef9d9282604051602001526040518163ffffffff1660e060020a028152600401602060405180830381600087803b151561019457600080fd5b6102c65a03f115156101a557600080fd5b50505060405180519150505b90565b60005433600160a060020a0390811691161415610069576004805473ffffffffffffffffffffffffffffffffffffffff1916600160a060020a0383161790555b50565b600454600090600160a060020a0316633b7104f282604051602001526040518163ffffffff1660e060020a028152600401602060405180830381600087803b151561019457600080fd5b600454600160a060020a031690565b60005433600160a060020a0390811691161415610069576003805473ffffffffffffffffffffffffffffffffffffffff1916600160a060020a0383161790556101f4565b60005433600160a060020a03908116911614156100695760008281526006602052604090208054600181016102c9838261030e565b506000918252602090912001805473ffffffffffffffffffffffffffffffffffffffff1916600160a060020a0383161790555050565b600054600160a060020a031681565b81548183558181151161033257600083815260209020610332918101908301610337565b505050565b6101b191905b80821115610351576000815560010161033d565b50905600a165627a7a72305820d6a32e1e0bc27b6c2f66f7a9a5e05a5b1e0c81f76d651da9eb0293df2e3f9b340029",
  "source": "pragma solidity ^0.4.4;\r\n\r\nimport \"./AdrLib.sol\";\r\n//import \"./ClockLib.sol\";\r\nimport \"./ITimer.sol\";\r\n\r\ncontract GeneralDevice {\r\n  using AdrLib for address[];\r\n  //using ClockLib for ClockLib.GlobalClock;\r\n\r\n  address public Admin;               // the account address of the admin\r\n  address internal owner;             // the account address of the owner. Here we are still using adr in the constructor, \r\n                                      // but later we may change the adr input into byte32, by a harshed device identifier\r\n  bytes32 internal name;              // name of the device (Serie No.)\r\n  address grid = 0x0;\r\n  address globalTimer = 0x0;\r\n  int     wallet;                     // To record loss & gain (that of house is negative -> need to pay others)\r\n  mapping(uint=>address[]) connectedDevice;\r\n  //ClockLib.GlobalClock globalTimer;\r\n\r\n  modifier adminOnly {\r\n    if (msg.sender == Admin) {\r\n      _;\r\n    } else {\r\n      revert();\r\n    }\r\n  }\r\n\r\n  modifier ownerOnly {\r\n    if (msg.sender == owner) {\r\n      _;\r\n    } else {\r\n      revert();\r\n    }\r\n  }\r\n\r\n  modifier connectedHouseOnly (address adr) {\r\n    if (connectedDevice[1].assertInside(adr) == true) {\r\n      _;\r\n    } else {\r\n      revert();\r\n    } \r\n  }\r\n\r\n  modifier connectedPVOnly (address adr) {\r\n    if (connectedDevice[1].assertInside(adr)) {\r\n      _;\r\n    } else {\r\n      revert();\r\n    }\r\n  }\r\n\r\n  modifier connectedBatteryOnly (address adr) {\r\n    if (connectedDevice[2].assertInside(adr)) {\r\n      _;\r\n    } else {\r\n      revert();\r\n    }\r\n  }\r\n\r\n  modifier timed (uint shouldStatus) {\r\n    if(shouldStatus == getTimerStatus()) {\r\n      _;\r\n    } else {\r\n      revert();\r\n    }\r\n  }\r\n\r\n  function GeneralDevice (address adr) {\r\n    owner = adr;\r\n    Admin = msg.sender;\r\n  }\r\n\r\n  function setGridAdr(address adr) adminOnly {\r\n    grid = adr;\r\n  }\r\n\r\n  function setTimerAdr(address adr) adminOnly {\r\n    globalTimer = adr;\r\n  }\r\n\r\n  function addConnectedDevice(uint a, address adr) adminOnly {\r\n    connectedDevice[a].push(adr);\r\n  }\r\n  // a function that disconnects devices can be added here, if needed\r\n\r\n  function getTimerStatus() returns (uint) {\r\n    return ITimer(globalTimer).checkStatus();\r\n  }\r\n\r\n  function getTimerIndex() returns (uint) {\r\n    return ITimer(globalTimer).checkIndex();\r\n  }\r\n\r\n  //test\r\n\r\n  function getTimerAddress() returns (address) {\r\n    return globalTimer;\r\n  }\r\n\r\n}\r\n",
  "sourcePath": "C:\\Users\\qianc\\Documents\\Thesis\\Code\\SimpleMonitor\\contracts\\GeneralDevice.sol",
  "compiler": {
    "name": "solc",
    "version": "0.4.18+commit.9cf6e910.Emscripten.clang"
  },
  "schemaVersion": "1.0.1",
  "updatedAt": "2017-11-29T03:11:33.850Z"
}