{
  "contractName": "GlobalTimer",
  "abi": [
    {
      "constant": false,
      "inputs": [],
      "name": "checkStatus",
      "outputs": [
        {
          "name": "",
          "type": "uint256"
        }
      ],
      "payable": false,
      "stateMutability": "nonpayable",
      "type": "function"
    },
    {
      "constant": false,
      "inputs": [],
      "name": "checkIndex",
      "outputs": [
        {
          "name": "",
          "type": "uint256"
        }
      ],
      "payable": false,
      "stateMutability": "nonpayable",
      "type": "function"
    },
    {
      "inputs": [],
      "payable": false,
      "stateMutability": "nonpayable",
      "type": "constructor"
    }
  ],
  "bytecode": "0x6060604052341561000f57600080fd5b60006001819055600a600355600481905560025560c060405190810160409081526009825260016020830152600390820152600560608201819052600a6080830152600c60a0830152610063916006610069565b506100c9565b826006810192821561009c579160200282015b8281111561009c578251829060ff1690559160200191906001019061007c565b506100a89291506100ac565b5090565b6100c691905b808211156100a857600081556001016100b2565b90565b61017a806100d86000396000f30060606040526004361061004b5763ffffffff7c01000000000000000000000000000000000000000000000000000000006000350416633b7104f28114610050578063bdef9d9214610075575b600080fd5b341561005b57600080fd5b610063610088565b60405190815260200160405180910390f35b341561008057600080fd5b6100636100fb565b600080600154600014156100a35760018055426000556100f3565b506001545b60068110156100e157600581600681106100be57fe5b0154603c0260005401421115156100d95760018190556100e1565b6001016100a8565b60078114156100f35760018055426000555b505060015490565b6000610105610088565b60041461011b5760006004819055600255610147565b600560030154603c0260005442030360048190555060035460045481151561013f57fe5b046001016002555b50600254905600a165627a7a72305820e8da894051639c9bb23c9afa119cfed3e43031d4d46a41a1c3337e3852a8240f0029",
  "source": "pragma solidity ^0.4.4;\n\nimport \"./ITimer.sol\";\n\ncontract GlobalTimer is ITimer {\n\n  uint startingTime;\n  uint statusNo;\n  //uint maxLoop;\n  uint currentLoop;\n  uint transactInterval;\n  uint timeLapse;\n  uint[6] cumulatedTime; \n\n  function GlobalTimer() {\n    // constructor\n    statusNo = 0;\n    transactInterval = 10; // seconds\n    timeLapse = 0;\n    //maxLoop = 30;  // each rank take 1s to finish transaction (5 min/10s = 30 times)\n    currentLoop = 0;\n    cumulatedTime = [9, 1, 3, 5, 10, 12];  //[inf, 1, 2, 2, 5, 2];\n  }\n\n  /*function setStatus(uint s) {\n    statusNo = s;\n  }\n\n  function setcurrentLoop(uint s) {\n    currentLoop = s;\n  }*/\n\n  function checkStatus() public returns (uint) {\n    // everytime one asks for Status, the GlobalTimer updates the status.\n    if (statusNo == 0) {\n      // start counting time\n      statusNo = 1;\n      startingTime = now;\n    } else {\n      for (uint i = statusNo; i < cumulatedTime.length; i++) {\n        if (now <= startingTime + cumulatedTime[i] * 1 minutes) {\n          // remain the same status\n          statusNo = i;\n          break;\n        }\n      }\n      if (i == cumulatedTime.length+1) {\n        // one loop finished.\n        statusNo = 1;\n        startingTime = now; \n      }\n    }\n    //setStatus(statusNo);\n    return statusNo;\n  }\n\n  function checkIndex() public returns (uint) {\n    if (checkStatus() != 4) {\n      //no transaction can be made at this time\n      timeLapse = 0;\n      currentLoop = 0;\n      //etcurrentLoop(0); \n    } else {\n      timeLapse = now - startingTime - cumulatedTime[3] * 1 minutes;\n      currentLoop = uint(timeLapse/transactInterval) + 1;\n      //currentLoop = timeLapse;\n      //setcurrentLoop(currentLoop);\n    }\n    return currentLoop;\n    //return 1;\n  }\n}\n",
  "sourcePath": "C:\\Users\\qianc\\Documents\\Thesis\\Code\\SimpleMonitor\\contracts\\GlobalTimer.sol",
  "compiler": {
    "name": "solc",
    "version": "0.4.18+commit.9cf6e910.Emscripten.clang"
  },
  "schemaVersion": "1.0.1",
  "updatedAt": "2017-11-30T19:16:39.366Z"
}