{
  "contractName": "GlobalTimer",
  "abi": [
    {
      "constant": false,
      "inputs": [],
      "name": "checkStatus",
      "outputs": [
        {
          "name": "",
          "type": "uint256"
        }
      ],
      "payable": false,
      "stateMutability": "nonpayable",
      "type": "function"
    },
    {
      "inputs": [],
      "payable": false,
      "stateMutability": "nonpayable",
      "type": "constructor"
    }
  ],
  "bytecode": "0x6060604052341561000f57600080fd5b6000808055600181905560025560c0604051908101604090815260098252600160208301526002908201819052606082018190526005608083015260a082015261005d906003906006610063565b506100c3565b8260068101928215610096579160200282015b82811115610096578251829060ff16905591602001919060010190610076565b506100a29291506100a6565b5090565b6100c091905b808211156100a257600081556001016100ac565b90565b60a7806100d16000396000f300606060405260043610603e5763ffffffff7c01000000000000000000000000000000000000000000000000000000006000350416633b7104f281146043575b600080fd5b3415604d57600080fd5b60536065565b60405190815260200160405180910390f35b60008054151560745760016000555b50600054905600a165627a7a723058200cfc952d44ca2f8cd32169b127a207851466eb28e35e4847bc2f0b1bb5fed83d0029",
  "source": "pragma solidity ^0.4.4;\n\nimport \"./ITimer.sol\";\n\ncontract GlobalTimer is ITimer {\n\n  uint statusNo;\n  uint maxLoop;\n  uint currentLoop;\n  uint[6] timeInterval; \n\n  function GlobalTimer() {\n    // constructor\n    statusNo = 0;\n    maxLoop = 0;\n    currentLoop = 0;\n    timeInterval = [9, 1, 2, 2, 5, 2];\n  }\n\n  /*function setStatus(uint s) {\n    statusNo = s;\n  }*/\n\n  function checkStatus() public returns (uint) {\n    if (statusNo == 0) {\n      statusNo = 1;\n    }\n    return statusNo;\n  }\n}\n",
  "sourcePath": "C:\\Users\\qianc\\Documents\\Thesis\\Code\\SimpleMonitor\\contracts\\GlobalTimer.sol",
  "compiler": {
    "name": "solc",
    "version": "0.4.18+commit.9cf6e910.Emscripten.clang"
  },
  "schemaVersion": "1.0.1",
  "updatedAt": "2017-11-28T21:26:42.749Z"
}