{
  "contractName": "GlobalTimer",
  "abi": [
    {
      "constant": false,
      "inputs": [],
      "name": "checkStatus",
      "outputs": [
        {
          "name": "",
          "type": "uint256"
        }
      ],
      "payable": false,
      "stateMutability": "nonpayable",
      "type": "function"
    },
    {
      "inputs": [],
      "payable": false,
      "stateMutability": "nonpayable",
      "type": "constructor"
    }
  ],
  "bytecode": "0x6060604052341561000f57600080fd5b60006001819055600281905560035560c06040519081016040908152600982526001602083015260039082015260056060820152600a6080820152600c60a082015261005f906004906006610065565b506100c5565b8260068101928215610098579160200282015b82811115610098578251829060ff16905591602001919060010190610078565b506100a49291506100a8565b5090565b6100c291905b808211156100a457600081556001016100ae565b90565b60fb806100d36000396000f300606060405260043610603e5763ffffffff7c01000000000000000000000000000000000000000000000000000000006000350416633b7104f281146043575b600080fd5b3415604d57600080fd5b60536065565b60405190815260200160405180910390f35b60008060015460001415607e57600180554260005560c7565b5060015b600681101560b65760048160068110609657fe5b0154603c02600054014211151560af57600181905560b6565b6001016082565b600781141560c75760018055426000555b5050600154905600a165627a7a723058209adeef5718aad3a107dfe6c5dcc35fcd52ef5945300da853f48dd2ff88bea1220029",
  "source": "pragma solidity ^0.4.4;\n\nimport \"./ITimer.sol\";\n\ncontract GlobalTimer is ITimer {\n\n  uint startingTime;\n  uint statusNo;\n  uint maxLoop;\n  uint currentLoop;\n  uint[6] cumulatedTime; \n\n  function GlobalTimer() {\n    // constructor\n    statusNo = 0;\n    maxLoop = 0;\n    currentLoop = 0;\n    cumulatedTime = [9, 1, 3, 5, 10, 12];  //[inf, 1, 2, 2, 5, 2];\n  }\n\n  /*function setStatus(uint s) {\n    statusNo = s;\n  }*/\n\n  function checkStatus() public returns (uint) {\n    // everytime one asks for Status, the GlobalTimer updates the status.\n    if (statusNo == 0) {\n      // start counting time\n      statusNo = 1;\n      startingTime = now;\n    } else {\n      for (uint i = 1; i < cumulatedTime.length; i++) {\n        if (now <= startingTime + cumulatedTime[i] * 1 minutes) {\n          // remain the same status\n          statusNo = i;\n          break;\n        }\n      }\n      if (i == cumulatedTime.length+1) {\n        // one loop finished.\n        statusNo = 1;\n        startingTime = now; \n      }\n    }\n    return statusNo;\n  }\n}\n",
  "sourcePath": "C:\\Users\\qianc\\Documents\\Thesis\\Code\\SimpleMonitor\\contracts\\GlobalTimer.sol",
  "compiler": {
    "name": "solc",
    "version": "0.4.18+commit.9cf6e910.Emscripten.clang"
  },
  "schemaVersion": "1.0.1",
  "updatedAt": "2017-11-29T00:04:15.585Z"
}