{
  "contractName": "Grid",
  "abi": [
    {
      "constant": false,
      "inputs": [],
      "name": "getTimerIndex",
      "outputs": [
        {
          "name": "",
          "type": "uint256"
        }
      ],
      "payable": false,
      "stateMutability": "nonpayable",
      "type": "function"
    },
    {
      "constant": false,
      "inputs": [
        {
          "name": "adr",
          "type": "address"
        }
      ],
      "name": "setTimerAdr",
      "outputs": [],
      "payable": false,
      "stateMutability": "nonpayable",
      "type": "function"
    },
    {
      "constant": false,
      "inputs": [],
      "name": "getTimerStatus",
      "outputs": [
        {
          "name": "",
          "type": "uint256"
        }
      ],
      "payable": false,
      "stateMutability": "nonpayable",
      "type": "function"
    },
    {
      "constant": false,
      "inputs": [
        {
          "name": "vol",
          "type": "uint256"
        }
      ],
      "name": "goExcess",
      "outputs": [
        {
          "name": "takeVol",
          "type": "uint256"
        },
        {
          "name": "prs",
          "type": "uint256"
        }
      ],
      "payable": false,
      "stateMutability": "nonpayable",
      "type": "function"
    },
    {
      "constant": false,
      "inputs": [
        {
          "name": "vol",
          "type": "uint256"
        }
      ],
      "name": "goExtra",
      "outputs": [
        {
          "name": "takeVol",
          "type": "uint256"
        },
        {
          "name": "prs",
          "type": "uint256"
        }
      ],
      "payable": false,
      "stateMutability": "nonpayable",
      "type": "function"
    },
    {
      "constant": false,
      "inputs": [],
      "name": "getTimerAddress",
      "outputs": [
        {
          "name": "",
          "type": "address"
        }
      ],
      "payable": false,
      "stateMutability": "nonpayable",
      "type": "function"
    },
    {
      "constant": false,
      "inputs": [
        {
          "name": "adr",
          "type": "address"
        }
      ],
      "name": "setGridAdr",
      "outputs": [],
      "payable": false,
      "stateMutability": "nonpayable",
      "type": "function"
    },
    {
      "constant": true,
      "inputs": [],
      "name": "getPrice",
      "outputs": [
        {
          "name": "prs",
          "type": "uint256"
        },
        {
          "name": "updatedOrNot",
          "type": "bool"
        }
      ],
      "payable": false,
      "stateMutability": "view",
      "type": "function"
    },
    {
      "constant": false,
      "inputs": [
        {
          "name": "a",
          "type": "uint256"
        },
        {
          "name": "adr",
          "type": "address"
        }
      ],
      "name": "addConnectedDevice",
      "outputs": [],
      "payable": false,
      "stateMutability": "nonpayable",
      "type": "function"
    },
    {
      "constant": false,
      "inputs": [],
      "name": "needTBCharged",
      "outputs": [],
      "payable": false,
      "stateMutability": "nonpayable",
      "type": "function"
    },
    {
      "constant": false,
      "inputs": [
        {
          "name": "prs",
          "type": "uint256"
        },
        {
          "name": "prsF",
          "type": "uint256"
        }
      ],
      "name": "setPrice",
      "outputs": [],
      "payable": false,
      "stateMutability": "nonpayable",
      "type": "function"
    },
    {
      "constant": true,
      "inputs": [],
      "name": "Admin",
      "outputs": [
        {
          "name": "",
          "type": "address"
        }
      ],
      "payable": false,
      "stateMutability": "view",
      "type": "function"
    },
    {
      "inputs": [
        {
          "name": "adr",
          "type": "address"
        }
      ],
      "payable": false,
      "stateMutability": "nonpayable",
      "type": "constructor"
    }
  ],
  "bytecode": "0x606060405260038054600160a060020a031990811690915560048054909116905561012c60075560646009819055600a55341561003b57600080fd5b604051602080610a388339810160405280805160018054600160a060020a03928316600160a060020a03199182161790915560008054339093169290911691909117905550506109a8806100906000396000f3006060604052600436106100a05763ffffffff60e060020a600035041663074b7c8081146100a55780630830cfae146100ca578063235a4a4f146100eb57806335f7f5e2146100fe5780636e2855441461012c57806370ed8f24146101425780638d646b111461017157806398d5fdca14610190578063bfd11903146101bd578063cb99c157146101df578063f7d97577146101f2578063ff1b636d1461020b575b600080fd5b34156100b057600080fd5b6100b861021e565b60405190815260200160405180910390f35b34156100d557600080fd5b6100e9600160a060020a0360043516610288565b005b34156100f657600080fd5b6100b86102cb565b341561010957600080fd5b610114600435610315565b60405191825260208201526040908101905180910390f35b341561013757600080fd5b610114600435610450565b341561014d57600080fd5b610155610592565b604051600160a060020a03909116815260200160405180910390f35b341561017c57600080fd5b6100e9600160a060020a03600435166105a1565b341561019b57600080fd5b6101a36105e5565b604051918252151560208201526040908101905180910390f35b34156101c857600080fd5b6100e9600435600160a060020a036024351661060a565b34156101ea57600080fd5b6100e9610675565b34156101fd57600080fd5b6100e96004356024356108f4565b341561021657600080fd5b610155610930565b600454600090600160a060020a031663bdef9d9282604051602001526040518163ffffffff1660e060020a028152600401602060405180830381600087803b151561026857600080fd5b6102c65a03f1151561027957600080fd5b50505060405180519150505b90565b60005433600160a060020a03908116911614156100a0576004805473ffffffffffffffffffffffffffffffffffffffff1916600160a060020a0383161790555b50565b600454600090600160a060020a0316633b7104f282604051602001526040518163ffffffff1660e060020a028152600401602060405180830381600087803b151561026857600080fd5b60008060056103226102cb565b8114156100a057600d5491508373__TransactLib___________________________63bc2e368c9091600a5460006040516020015260405160e060020a63ffffffff85160281526004810192909252602482015260440160206040518083038186803b151561039057600080fd5b6102c65a03f415156103a157600080fd5b505050604051805190509250600a5473__TransactLib___________________________639e5fd0a99091853060006040516020015260405160e060020a63ffffffff861602815260048101939093526024830191909152600160a060020a0316604482015260640160206040518083038186803b151561042157600080fd5b6102c65a03f4151561043257600080fd5b5050506040518051600a5550600b8054848402900390555b50915091565b600080600561045d6102cb565b8114156100a057600c5491508373__TransactLib___________________________63bc2e368c909160095460006040516020015260405160e060020a63ffffffff85160281526004810192909252602482015260440160206040518083038186803b15156104cb57600080fd5b6102c65a03f415156104dc57600080fd5b5050506040518051600980548290039055600b5490945073__TransactLib___________________________915063e2992d2990848602333060006040516020015260405160e060020a63ffffffff871602815260048101949094526024840192909252600160a060020a03908116604484015216606482015260840160206040518083038186803b151561057057600080fd5b6102c65a03f4151561058157600080fd5b5050506040518051600b555061044a565b600454600160a060020a031690565b60005433600160a060020a03908116911614156100a0576003805473ffffffffffffffffffffffffffffffffffffffff1916600160a060020a0383161790556102c8565b600c54600754600854600091429101101561060257506000610606565b5060015b9091565b60005433600160a060020a03908116911614156100a057600082815260066020526040902080546001810161063f838261093f565b506000918252602090912001805473ffffffffffffffffffffffffffffffffffffffff1916600160a060020a0383161790555050565b6000808080808080805b600260005260066020527f8819ef417987f8ae7a81f42cdfb18815282fe989326fbff903d13cf0e03ace29548110156108ea57600260005260066020527f8819ef417987f8ae7a81f42cdfb18815282fe989326fbff903d13cf0e03ace298054829081106106e957fe5b6000918252602082200154600160a060020a031690631b45f0e090604051608001526040518163ffffffff1660e060020a028152600401608060405180830381600087803b151561073957600080fd5b6102c65a03f1151561074a57600080fd5b5050506040518051906020018051906020018051906020018051939b509199509750909550859050801561077d57508715155b156108e257600260005260066020527f8819ef417987f8ae7a81f42cdfb18815282fe989326fbff903d13cf0e03ace298054829081106107b957fe5b6000918252602082200154600954600160a060020a0390911693508391630ff3728291906040516020015260405160e060020a63ffffffff84160281526004810191909152602401602060405180830381600087803b151561081a57600080fd5b6102c65a03f1151561082b57600080fd5b5050506040518051600980548290039055600c54600b549196508602945073__TransactLib___________________________915063e2992d299085853060006040516020015260405160e060020a63ffffffff871602815260048101949094526024840192909252600160a060020a03908116604484015216606482015260840160206040518083038186803b15156108c457600080fd5b6102c65a03f415156108d557600080fd5b5050506040518051600b55505b60010161067f565b5050505050505050565b60016108fe6102cb565b8114156100a05760015433600160a060020a03908116911614156100a057600c839055600d829055426008555b505050565b600054600160a060020a031681565b81548183558181151161092b5760008381526020902061092b91810190830161028591905b808211156109785760008155600101610964565b50905600a165627a7a72305820ac01d18303a5e0e8138a951506346f728295a893fd4d40da2a34697c3c91639d0029",
  "source": "pragma solidity ^0.4.4;\r\n\r\nimport \"./IGrid.sol\";\r\nimport \"./IBattery.sol\";\r\nimport \"./TransactLib.sol\";\r\nimport \"./GeneralDevice.sol\";\r\n\r\ncontract Grid is GeneralDevice, IGrid {\r\n\r\n  using TransactLib for *;\r\n\r\n  uint    price;\r\n  uint    priceFeedIn;\r\n\r\n  \r\n\r\n  function Grid(address adr) GeneralDevice(adr) { }\r\n\r\n  function setPrice(uint prs, uint prsF) timed(1) ownerOnly {\r\n    price = prs;\r\n    priceFeedIn = prsF;\r\n    priceStatusAt = now;\r\n  }\r\n\r\n  function getPrice() public view returns (uint prs, bool updatedOrNot) {\r\n    prs = price;\r\n    //prsAt = priceStatusAt;\r\n    if (priceStatusAt + priceTimeOut < now) {\r\n      updatedOrNot = false;\r\n    } else {\r\n      updatedOrNot = true;\r\n    }\r\n    //adr = owner;\r\n  }\r\n  // Does not need to be implemented if the clockLib works\r\n  function needTBCharged() {\r\n    //Grid ask if battery is actively buying energy from grid?\r\n    uint consum;\r\n    uint rank;\r\n    uint tot;\r\n    bool updated;\r\n    uint whatDeviceAccept;\r\n    uint receivedMoney;\r\n    address adr;\r\n    for (uint i = 0; i < connectedDevice[2].length; i++) {\r\n      (consum,rank,tot,updated) = IBattery(connectedDevice[2][i]).getSortedPrice();\r\n      if (updated && consum != 0) {\r\n        // transaction\r\n        adr = connectedDevice[2][i];\r\n        whatDeviceAccept = IBattery(adr).goNoGo(posBackup);\r\n        posBackup -= whatDeviceAccept;\r\n        receivedMoney = whatDeviceAccept*price;\r\n        wallet = wallet.clearMoneyTransfer(receivedMoney,adr, address(this));\r\n      }\r\n    }\r\n  }\r\n\r\n  function goExcess(uint vol) timed(5) returns (uint takeVol, uint prs) {\r\n    prs = priceFeedIn;\r\n    takeVol = vol.findMin(negBackup);\r\n    negBackup = negBackup.clearEnergyTransfer(takeVol, address(this));\r\n    wallet -= int(takeVol*prs);\r\n  }\r\n\r\n  function goExtra(uint vol) timed(5) returns (uint takeVol, uint prs) { // when houses have not sufficient energy supply from microgrid\r\n    prs = price;\r\n    takeVol = vol.findMin(posBackup);\r\n    posBackup -= takeVol;\r\n    wallet = wallet.clearMoneyTransfer(takeVol*prs,msg.sender, address(this));\r\n  }\r\n}\r\n",
  "sourcePath": "C:\\Users\\qianc\\Documents\\Thesis\\Code\\SimpleMonitor\\contracts\\Grid.sol",
  "compiler": {
    "name": "solc",
    "version": "0.4.18+commit.9cf6e910.Emscripten.clang"
  },
  "schemaVersion": "1.0.1",
  "updatedAt": "2017-11-29T03:11:33.880Z"
}