{
  "contractName": "Grid",
  "abi": [
    {
      "constant": false,
      "inputs": [
        {
          "name": "vol",
          "type": "uint256"
        }
      ],
      "name": "goExcess",
      "outputs": [
        {
          "name": "takeVol",
          "type": "uint256"
        },
        {
          "name": "prs",
          "type": "uint256"
        }
      ],
      "payable": false,
      "stateMutability": "nonpayable",
      "type": "function"
    },
    {
      "constant": false,
      "inputs": [
        {
          "name": "vol",
          "type": "uint256"
        }
      ],
      "name": "goExtra",
      "outputs": [
        {
          "name": "takeVol",
          "type": "uint256"
        },
        {
          "name": "prs",
          "type": "uint256"
        }
      ],
      "payable": false,
      "stateMutability": "nonpayable",
      "type": "function"
    },
    {
      "constant": false,
      "inputs": [
        {
          "name": "adr",
          "type": "address"
        }
      ],
      "name": "setGridAdr",
      "outputs": [],
      "payable": false,
      "stateMutability": "nonpayable",
      "type": "function"
    },
    {
      "constant": false,
      "inputs": [],
      "name": "getPrice",
      "outputs": [
        {
          "name": "prs",
          "type": "uint256"
        },
        {
          "name": "updatedOrNot",
          "type": "bool"
        }
      ],
      "payable": false,
      "stateMutability": "nonpayable",
      "type": "function"
    },
    {
      "constant": false,
      "inputs": [
        {
          "name": "a",
          "type": "uint256"
        },
        {
          "name": "adr",
          "type": "address"
        }
      ],
      "name": "addConnectedDevice",
      "outputs": [],
      "payable": false,
      "stateMutability": "nonpayable",
      "type": "function"
    },
    {
      "constant": false,
      "inputs": [],
      "name": "needTBCharged",
      "outputs": [],
      "payable": false,
      "stateMutability": "nonpayable",
      "type": "function"
    },
    {
      "constant": false,
      "inputs": [
        {
          "name": "prs",
          "type": "uint256"
        },
        {
          "name": "prsF",
          "type": "uint256"
        }
      ],
      "name": "setPrice",
      "outputs": [],
      "payable": false,
      "stateMutability": "nonpayable",
      "type": "function"
    },
    {
      "constant": true,
      "inputs": [],
      "name": "Admin",
      "outputs": [
        {
          "name": "",
          "type": "address"
        }
      ],
      "payable": false,
      "stateMutability": "view",
      "type": "function"
    },
    {
      "inputs": [
        {
          "name": "adr",
          "type": "address"
        }
      ],
      "payable": false,
      "stateMutability": "nonpayable",
      "type": "constructor"
    }
  ],
  "bytecode": "0x606060405260038054600160a060020a031916905561012c60075560646008819055600955341561002f57600080fd5b60405160208061086a8339810160405280805160018054600160a060020a03928316600160a060020a03199182161790915560008054339093169290911691909117905550506107e6806100846000396000f3006060604052600436106100745763ffffffff60e060020a60003504166335f7f5e281146100795780636e285544146100a75780638d646b11146100bd57806398d5fdca146100de578063bfd119031461010b578063cb99c1571461012d578063f7d9757714610140578063ff1b636d14610159575b600080fd5b341561008457600080fd5b61008f600435610188565b60405191825260208201526040908101905180910390f35b34156100b257600080fd5b61008f6004356102b2565b34156100c857600080fd5b6100dc600160a060020a03600435166103e5565b005b34156100e957600080fd5b6100f1610427565b604051918252151560208201526040908101905180910390f35b341561011657600080fd5b6100dc600435600160a060020a036024351661044c565b341561013857600080fd5b6100dc6104b8565b341561014b57600080fd5b6100dc600435602435610737565b341561016457600080fd5b61016c610761565b604051600160a060020a03909116815260200160405180910390f35b600080600b5490508273__TransactLib___________________________63bc2e368c909160095460006040516020015260405160e060020a63ffffffff85160281526004810192909252602482015260440160206040518083038186803b15156101f257600080fd5b6102c65a03f4151561020357600080fd5b50505060405180519050915060095473__TransactLib___________________________639e5fd0a99091843060006040516020015260405160e060020a63ffffffff861602815260048101939093526024830191909152600160a060020a0316604482015260640160206040518083038186803b151561028357600080fd5b6102c65a03f4151561029457600080fd5b50505060405180516009555060068054838302900390559092909150565b600080600a5490508273__TransactLib___________________________63bc2e368c909160085460006040516020015260405160e060020a63ffffffff85160281526004810192909252602482015260440160206040518083038186803b151561031c57600080fd5b6102c65a03f4151561032d57600080fd5b505050604051805160088054829003905560065490935073__TransactLib___________________________915063e2992d2990838502333060006040516020015260405160e060020a63ffffffff871602815260048101949094526024840192909252600160a060020a03908116604484015216606482015260840160206040518083038186803b15156103c157600080fd5b6102c65a03f415156103d257600080fd5b5050506040518051600655509092909150565b60005433600160a060020a0390811691161415610074576003805473ffffffffffffffffffffffffffffffffffffffff1916600160a060020a03831617905550565b600a54600754600c54600091429101101561044457506000610448565b5060015b9091565b60005433600160a060020a03908116911614156100745760008281526005602052604090208054600181016104818382610770565b506000918252602090912001805473ffffffffffffffffffffffffffffffffffffffff1916600160a060020a0383161790555b5050565b6000808080808080805b600260005260056020527f89832631fb3c3307a103ba2c84ab569c64d6182a18893dcd163f0f1c2090733a5481101561072d57600260005260056020527f89832631fb3c3307a103ba2c84ab569c64d6182a18893dcd163f0f1c2090733a80548290811061052c57fe5b6000918252602082200154600160a060020a03169063cf7fc76290604051608001526040518163ffffffff1660e060020a028152600401608060405180830381600087803b151561057c57600080fd5b6102c65a03f1151561058d57600080fd5b5050506040518051906020018051906020018051906020018051939b50919950975090955085905080156105c057508715155b1561072557600260005260056020527f89832631fb3c3307a103ba2c84ab569c64d6182a18893dcd163f0f1c2090733a8054829081106105fc57fe5b6000918252602082200154600854600160a060020a0390911693508391630ff3728291906040516020015260405160e060020a63ffffffff84160281526004810191909152602401602060405180830381600087803b151561065d57600080fd5b6102c65a03f1151561066e57600080fd5b5050506040518051600880548290039055600a546006549196508602945073__TransactLib___________________________915063e2992d299085853060006040516020015260405160e060020a63ffffffff871602815260048101949094526024840192909252600160a060020a03908116604484015216606482015260840160206040518083038186803b151561070757600080fd5b6102c65a03f4151561071857600080fd5b5050506040518051600655505b6001016104c2565b5050505050505050565b60015433600160a060020a039081169116141561007457600a829055600b81905542600c556104b4565b600054600160a060020a031681565b81548183558181151161079457600083815260209020610794918101908301610799565b505050565b6107b791905b808211156107b3576000815560010161079f565b5090565b905600a165627a7a723058205bbd71b9dd416bfbabdc614fbcef1a130c084eb2511ee37407ddec6cd94781f40029",
  "source": "pragma solidity ^0.4.4;\n\nimport \"./IGrid.sol\";\nimport \"./IBattery.sol\";\nimport \"./TransactLib.sol\";\nimport \"./GeneralDevice.sol\";\n\ncontract Grid is GeneralDevice, IGrid {\n\n  using TransactLib for *;\n\n  uint    price;\n  uint    priceFeedIn;\n  uint    priceStatusAt;            // timestamp of the update (price)\n\n\n  function Grid(address adr) GeneralDevice(adr) { }\n\n  function setPrice(uint prs, uint prsF) ownerOnly {\n    price = prs;\n    priceFeedIn = prsF;\n    priceStatusAt = now;\n  }\n\n  function getPrice() returns (uint prs, bool updatedOrNot) {\n    prs = price;\n    //prsAt = priceStatusAt;\n    if (priceStatusAt + priceTimeOut < now) {\n      updatedOrNot = false;\n    } else {\n      updatedOrNot = true;\n    }\n    //adr = owner;\n  }\n\n  function needTBCharged() {\n    //Grid ask if battery is actively buying energy from grid?\n    uint consum;\n    uint rank;\n    uint tot;\n    bool updated;\n    uint whatDeviceAccept;\n    uint receivedMoney;\n    address adr;\n    for (uint i = 0; i < connectedDevice[2].length; i++) {\n      (consum,rank,tot,updated) = IBattery(connectedDevice[2][i]).getSortedPVInfo();\n      if (updated && consum != 0) {\n        // transaction\n        adr = connectedDevice[2][i];\n        whatDeviceAccept = IBattery(adr).goNoGo(posBackup);\n        posBackup -= whatDeviceAccept;\n        receivedMoney = whatDeviceAccept*price;\n        wallet = wallet.clearMoneyTransfer(receivedMoney,adr, address(this));\n      }\n    }\n  }\n\n  function goExcess(uint vol) returns (uint takeVol, uint prs) {\n    prs = priceFeedIn;\n    takeVol = vol.findMin(negBackup);\n    negBackup = negBackup.clearEnergyTransfer(takeVol, address(this));\n    wallet -= int(takeVol*prs);\n  }\n\n  function goExtra(uint vol) returns (uint takeVol, uint prs) { // when houses have not sufficient energy supply from microgrid\n    prs = price;\n    takeVol = vol.findMin(posBackup);\n    posBackup -= takeVol;\n    wallet = wallet.clearMoneyTransfer(takeVol*prs,msg.sender, address(this));\n  }\n}\n",
  "sourcePath": "C:\\Users\\qianc\\Documents\\Thesis\\Code\\SimpleMonitor\\contracts\\Grid.sol",
  "compiler": {
    "name": "solc",
    "version": "0.4.18+commit.9cf6e910.Emscripten.clang"
  },
  "schemaVersion": "1.0.1",
  "updatedAt": "2017-11-26T21:22:43.726Z"
}