{
  "contractName": "Grid",
  "abi": [
    {
      "constant": false,
      "inputs": [
        {
          "name": "vol",
          "type": "uint256"
        }
      ],
      "name": "goExcess",
      "outputs": [
        {
          "name": "takeVol",
          "type": "uint256"
        },
        {
          "name": "prs",
          "type": "uint256"
        }
      ],
      "payable": false,
      "stateMutability": "nonpayable",
      "type": "function"
    },
    {
      "constant": false,
      "inputs": [
        {
          "name": "adr",
          "type": "address"
        }
      ],
      "name": "addPV",
      "outputs": [],
      "payable": false,
      "stateMutability": "nonpayable",
      "type": "function"
    },
    {
      "constant": false,
      "inputs": [
        {
          "name": "vol",
          "type": "uint256"
        }
      ],
      "name": "goExtra",
      "outputs": [
        {
          "name": "takeVol",
          "type": "uint256"
        },
        {
          "name": "prs",
          "type": "uint256"
        }
      ],
      "payable": false,
      "stateMutability": "nonpayable",
      "type": "function"
    },
    {
      "constant": true,
      "inputs": [],
      "name": "owner",
      "outputs": [
        {
          "name": "",
          "type": "address"
        }
      ],
      "payable": false,
      "stateMutability": "view",
      "type": "function"
    },
    {
      "constant": false,
      "inputs": [],
      "name": "getPrice",
      "outputs": [
        {
          "name": "prs",
          "type": "uint256"
        },
        {
          "name": "updatedOrNot",
          "type": "bool"
        }
      ],
      "payable": false,
      "stateMutability": "nonpayable",
      "type": "function"
    },
    {
      "constant": false,
      "inputs": [
        {
          "name": "adr",
          "type": "address"
        }
      ],
      "name": "addH",
      "outputs": [],
      "payable": false,
      "stateMutability": "nonpayable",
      "type": "function"
    },
    {
      "constant": false,
      "inputs": [],
      "name": "needTBCharged",
      "outputs": [],
      "payable": false,
      "stateMutability": "nonpayable",
      "type": "function"
    },
    {
      "constant": false,
      "inputs": [
        {
          "name": "adr",
          "type": "address"
        }
      ],
      "name": "addB",
      "outputs": [],
      "payable": false,
      "stateMutability": "nonpayable",
      "type": "function"
    },
    {
      "constant": false,
      "inputs": [
        {
          "name": "prs",
          "type": "uint256"
        },
        {
          "name": "prsF",
          "type": "uint256"
        }
      ],
      "name": "setPrice",
      "outputs": [],
      "payable": false,
      "stateMutability": "nonpayable",
      "type": "function"
    },
    {
      "inputs": [
        {
          "name": "adr",
          "type": "address"
        }
      ],
      "payable": false,
      "stateMutability": "nonpayable",
      "type": "constructor"
    }
  ],
  "bytecode": "0x606060405261012c60015560646002556064600355341561001f57600080fd5b6040516020806107ca8339810160405280805160088054600160a060020a03928316600160a060020a0319918216179091556007805433909316929091169190911790555050610756806100746000396000f30060606040526004361061007f5763ffffffff60e060020a60003504166335f7f5e281146100845780634927f2e7146100b25780636e285544146100d35780638da5cb5b146100e957806398d5fdca14610118578063ad3ef3ab14610145578063cb99c15714610164578063d545290114610177578063f7d9757714610196575b600080fd5b341561008f57600080fd5b61009a6004356101af565b60405191825260208201526040908101905180910390f35b34156100bd57600080fd5b6100d1600160a060020a03600435166102d9565b005b34156100de57600080fd5b61009a600435610324565b34156100f457600080fd5b6100fc61045a565b604051600160a060020a03909116815260200160405180910390f35b341561012357600080fd5b61012b610469565b604051918252151560208201526040908101905180910390f35b341561015057600080fd5b6100d1600160a060020a036004351661048e565b341561016f57600080fd5b6100d16104a0565b341561018257600080fd5b6100d1600160a060020a03600435166106a8565b34156101a157600080fd5b6100d16004356024356106ba565b600080600a5490508273__TransactLib___________________________63bc2e368c909160035460006040516020015260405160e060020a63ffffffff85160281526004810192909252602482015260440160206040518083038186803b151561021957600080fd5b6102c65a03f4151561022a57600080fd5b50505060405180519050915060035473__TransactLib___________________________639e5fd0a99091843060006040516020015260405160e060020a63ffffffff861602815260048101939093526024830191909152600160a060020a0316604482015260640160206040518083038186803b15156102aa57600080fd5b6102c65a03f415156102bb57600080fd5b50505060405180516003555060008054838302900390559092909150565b60058054600181016102eb83826106e0565b506000918252602090912001805473ffffffffffffffffffffffffffffffffffffffff1916600160a060020a0392909216919091179055565b60008060095490508273__TransactLib___________________________63bc2e368c909160025460006040516020015260405160e060020a63ffffffff85160281526004810192909252602482015260440160206040518083038186803b151561038e57600080fd5b6102c65a03f4151561039f57600080fd5b50505060405180516002805482900390556000805491945073__TransactLib___________________________925063e2992d29919084860290339030906040516020015260405160e060020a63ffffffff871602815260048101949094526024840192909252600160a060020a03908116604484015216606482015260840160206040518083038186803b151561043657600080fd5b6102c65a03f4151561044757600080fd5b5050506040518051600055509092909150565b600854600160a060020a031681565b600954600154600b5460009142910110156104865750600061048a565b5060015b9091565b60048054600181016102eb83826106e0565b6000808080808080805b60065481101561069e5760068054829081106104c257fe5b6000918252602082200154600160a060020a03169063cf7fc76290604051608001526040518163ffffffff1660e060020a028152600401608060405180830381600087803b151561051257600080fd5b6102c65a03f1151561052357600080fd5b5050506040518051906020018051906020018051906020018051939b509199509750909550859050801561055657508715155b1561069657600680548290811061056957fe5b6000918252602082200154600254600160a060020a0390911693508391630ff3728291906040516020015260405160e060020a63ffffffff84160281526004810191909152602401602060405180830381600087803b15156105ca57600080fd5b6102c65a03f115156105db57600080fd5b505050604051805160028054829003905560095460008054929750908702955073__TransactLib___________________________925063e2992d2991908690869030906040516020015260405160e060020a63ffffffff871602815260048101949094526024840192909252600160a060020a03908116604484015216606482015260840160206040518083038186803b151561067857600080fd5b6102c65a03f4151561068957600080fd5b5050506040518051600055505b6001016104aa565b5050505050505050565b60068054600181016102eb83826106e0565b60085433600160a060020a039081169116141561007f57600991909155600a5542600b55565b81548183558181151161070457600083815260209020610704918101908301610709565b505050565b61072791905b80821115610723576000815560010161070f565b5090565b905600a165627a7a7230582095ce00ec49e9784eef0c5eee76e7e51466bc19a38e23759f6a182102e52f5c740029",
  "source": "pragma solidity ^0.4.4;\n\nimport \"./IGrid.sol\";\nimport \"./IBattery.sol\";\nimport \"./TransactLib.sol\";\n\ncontract Grid is IGrid {\n\n  using TransactLib for *;\n\n  address Admin;                    // shall be defined at the creation of contract or to be defined manually\n  address public owner;\n  uint    price;\n  uint    priceFeedIn;\n  uint    priceStatusAt;            // timestamp of the update (price)\n\n  modifier ownerOnly {\n    if (msg.sender == owner) {\n      _;\n    } else {\n      revert();\n    }\n  }\n\n  function Grid(address adr) {\n    // constructor\n    // Assuming that the Grid can be connected by all the devices\n    owner = adr;\n    Admin = msg.sender;\n  }\n\n  function setPrice(uint prs, uint prsF) ownerOnly {\n    price = prs;\n    priceFeedIn = prsF;\n    priceStatusAt = now;\n  }\n\n  function getPrice() returns (uint prs, bool updatedOrNot) {\n    prs = price;\n    //prsAt = priceStatusAt;\n    if (priceStatusAt + priceTimeOut < now) {\n      updatedOrNot = false;\n    } else {\n      updatedOrNot = true;\n    }\n    //adr = owner;\n  }\n\n  function needTBCharged() {\n    //Grid ask if battery is actively buying energy from grid?\n    uint consum;\n    uint rank;\n    uint tot;\n    bool updated;\n    uint whatDeviceAccept;\n    uint receivedMoney;\n    address adr;\n    for (uint i = 0; i < connectedBattery.length; i++) {\n      (consum,rank,tot,updated) = IBattery(connectedBattery[i]).getSortedPVInfo();\n      if (updated && consum != 0) {\n        // transaction\n        adr = connectedBattery[i];\n        whatDeviceAccept = IBattery(adr).goNoGo(posBackup);\n        posBackup -= whatDeviceAccept;\n        receivedMoney = whatDeviceAccept*price;\n        wallet = wallet.clearMoneyTransfer(receivedMoney,adr, address(this));\n      }\n    }\n  }\n\n  function goExcess(uint vol) returns (uint takeVol, uint prs) {\n    prs = priceFeedIn;\n    takeVol = vol.findMin(negBackup);\n    negBackup = negBackup.clearEnergyTransfer(takeVol, address(this));\n    wallet -= int(takeVol*prs);\n  }\n\n  function goExtra(uint vol) returns (uint takeVol, uint prs) { // when houses have not sufficient energy supply from microgrid\n    prs = price;\n    takeVol = vol.findMin(posBackup);\n    posBackup -= takeVol;\n    wallet = wallet.clearMoneyTransfer(takeVol*prs,msg.sender, address(this));\n  }\n}\n",
  "sourcePath": "C:\\Users\\qianc\\Documents\\Thesis\\Code\\SimpleMonitor\\contracts\\Grid.sol",
  "compiler": {
    "name": "solc",
    "version": "0.4.18+commit.9cf6e910.Emscripten.clang"
  },
  "schemaVersion": "1.0.1",
  "updatedAt": "2017-11-10T21:31:08.168Z"
}