{
  "contractName": "Grid",
  "abi": [
    {
      "constant": false,
      "inputs": [],
      "name": "getTimerIndex",
      "outputs": [
        {
          "name": "",
          "type": "uint256"
        }
      ],
      "payable": false,
      "stateMutability": "nonpayable",
      "type": "function"
    },
    {
      "constant": false,
      "inputs": [
        {
          "name": "adr",
          "type": "address"
        }
      ],
      "name": "setTimerAdr",
      "outputs": [],
      "payable": false,
      "stateMutability": "nonpayable",
      "type": "function"
    },
    {
      "constant": false,
      "inputs": [],
      "name": "getWallet",
      "outputs": [
        {
          "name": "",
          "type": "int256"
        }
      ],
      "payable": false,
      "stateMutability": "nonpayable",
      "type": "function"
    },
    {
      "constant": false,
      "inputs": [],
      "name": "getTimerStatus",
      "outputs": [
        {
          "name": "",
          "type": "uint256"
        }
      ],
      "payable": false,
      "stateMutability": "nonpayable",
      "type": "function"
    },
    {
      "constant": false,
      "inputs": [
        {
          "name": "vol",
          "type": "uint256"
        }
      ],
      "name": "goExcess",
      "outputs": [
        {
          "name": "takeVol",
          "type": "uint256"
        },
        {
          "name": "prs",
          "type": "uint256"
        }
      ],
      "payable": false,
      "stateMutability": "nonpayable",
      "type": "function"
    },
    {
      "constant": false,
      "inputs": [
        {
          "name": "vol",
          "type": "uint256"
        }
      ],
      "name": "goExtra",
      "outputs": [
        {
          "name": "takeVol",
          "type": "uint256"
        },
        {
          "name": "prs",
          "type": "uint256"
        }
      ],
      "payable": false,
      "stateMutability": "nonpayable",
      "type": "function"
    },
    {
      "constant": false,
      "inputs": [],
      "name": "getTimerAddress",
      "outputs": [
        {
          "name": "",
          "type": "address"
        }
      ],
      "payable": false,
      "stateMutability": "nonpayable",
      "type": "function"
    },
    {
      "constant": false,
      "inputs": [
        {
          "name": "adr",
          "type": "address"
        }
      ],
      "name": "setGridAdr",
      "outputs": [],
      "payable": false,
      "stateMutability": "nonpayable",
      "type": "function"
    },
    {
      "constant": true,
      "inputs": [],
      "name": "getPrice",
      "outputs": [
        {
          "name": "prs",
          "type": "uint256"
        },
        {
          "name": "updatedOrNot",
          "type": "bool"
        }
      ],
      "payable": false,
      "stateMutability": "view",
      "type": "function"
    },
    {
      "constant": false,
      "inputs": [
        {
          "name": "a",
          "type": "uint256"
        },
        {
          "name": "adr",
          "type": "address"
        }
      ],
      "name": "addConnectedDevice",
      "outputs": [],
      "payable": false,
      "stateMutability": "nonpayable",
      "type": "function"
    },
    {
      "constant": false,
      "inputs": [
        {
          "name": "prs",
          "type": "uint256"
        },
        {
          "name": "prsF",
          "type": "uint256"
        }
      ],
      "name": "setPrice",
      "outputs": [],
      "payable": false,
      "stateMutability": "nonpayable",
      "type": "function"
    },
    {
      "constant": true,
      "inputs": [],
      "name": "Admin",
      "outputs": [
        {
          "name": "",
          "type": "address"
        }
      ],
      "payable": false,
      "stateMutability": "view",
      "type": "function"
    },
    {
      "inputs": [
        {
          "name": "adr",
          "type": "address"
        }
      ],
      "payable": false,
      "stateMutability": "nonpayable",
      "type": "constructor"
    }
  ],
  "bytecode": "0x606060405260038054600160a060020a031990811690915560048054909116905561012c60075560646009819055600a55341561003b57600080fd5b6040516020806107bf8339810160405280805160018054600160a060020a03928316600160a060020a031991821617909155600080543390931692909116919091179055505061072f806100906000396000f3006060604052600436106100a05763ffffffff60e060020a600035041663074b7c8081146100a55780630830cfae146100ca57806313299604146100eb578063235a4a4f146100fe57806335f7f5e2146101115780636e2855441461013f57806370ed8f24146101555780638d646b111461018457806398d5fdca146101a3578063bfd11903146101d0578063f7d97577146101f2578063ff1b636d1461020b575b600080fd5b34156100b057600080fd5b6100b861021e565b60405190815260200160405180910390f35b34156100d557600080fd5b6100e9600160a060020a0360043516610288565b005b34156100f657600080fd5b6100b86102cb565b341561010957600080fd5b6100b86102d1565b341561011c57600080fd5b61012760043561031b565b60405191825260208201526040908101905180910390f35b341561014a57600080fd5b610127600435610456565b341561016057600080fd5b610168610598565b604051600160a060020a03909116815260200160405180910390f35b341561018f57600080fd5b6100e9600160a060020a03600435166105a7565b34156101ae57600080fd5b6101b66105eb565b604051918252151560208201526040908101905180910390f35b34156101db57600080fd5b6100e9600435600160a060020a0360243516610610565b34156101fd57600080fd5b6100e960043560243561067b565b341561021657600080fd5b6101686106b7565b600454600090600160a060020a031663bdef9d9282604051602001526040518163ffffffff1660e060020a028152600401602060405180830381600087803b151561026857600080fd5b6102c65a03f1151561027957600080fd5b50505060405180519150505b90565b60005433600160a060020a03908116911614156100a0576004805473ffffffffffffffffffffffffffffffffffffffff1916600160a060020a0383161790555b50565b600b5490565b600454600090600160a060020a0316633b7104f282604051602001526040518163ffffffff1660e060020a028152600401602060405180830381600087803b151561026857600080fd5b60008060056103286102d1565b8114156100a057600d5491508373__TransactLib___________________________63bc2e368c9091600a5460006040516020015260405160e060020a63ffffffff85160281526004810192909252602482015260440160206040518083038186803b151561039657600080fd5b6102c65a03f415156103a757600080fd5b505050604051805190509250600a5473__TransactLib___________________________639e5fd0a99091853060006040516020015260405160e060020a63ffffffff861602815260048101939093526024830191909152600160a060020a0316604482015260640160206040518083038186803b151561042757600080fd5b6102c65a03f4151561043857600080fd5b5050506040518051600a5550600b8054848402900390555b50915091565b60008060056104636102d1565b8114156100a057600c5491508373__TransactLib___________________________63bc2e368c909160095460006040516020015260405160e060020a63ffffffff85160281526004810192909252602482015260440160206040518083038186803b15156104d157600080fd5b6102c65a03f415156104e257600080fd5b5050506040518051600980548290039055600b5490945073__TransactLib___________________________915063e2992d2990848602333060006040516020015260405160e060020a63ffffffff871602815260048101949094526024840192909252600160a060020a03908116604484015216606482015260840160206040518083038186803b151561057657600080fd5b6102c65a03f4151561058757600080fd5b5050506040518051600b5550610450565b600454600160a060020a031690565b60005433600160a060020a03908116911614156100a0576003805473ffffffffffffffffffffffffffffffffffffffff1916600160a060020a0383161790556102c8565b600c5460075460085460009142910110156106085750600061060c565b5060015b9091565b60005433600160a060020a03908116911614156100a057600082815260066020526040902080546001810161064583826106c6565b506000918252602090912001805473ffffffffffffffffffffffffffffffffffffffff1916600160a060020a0383161790555050565b60016106856102d1565b8114156100a05760015433600160a060020a03908116911614156100a057600c839055600d829055426008555b505050565b600054600160a060020a031681565b8154818355818115116106b2576000838152602090206106b291810190830161028591905b808211156106ff57600081556001016106eb565b50905600a165627a7a7230582058de3af4e23f4b966940177db7d5b0754925fedf66689725b74f6fa243a573e50029",
  "source": "pragma solidity ^0.4.4;\r\n\r\nimport \"./IGrid.sol\";\r\nimport \"./IBattery.sol\";\r\nimport \"./TransactLib.sol\";\r\nimport \"./GeneralDevice.sol\";\r\n\r\ncontract Grid is GeneralDevice, IGrid {\r\n\r\n  using TransactLib for *;\r\n\r\n  uint    price;\r\n  uint    priceFeedIn;\r\n\r\n  \r\n\r\n  function Grid(address adr) GeneralDevice(adr) { }\r\n\r\n  function setPrice(uint prs, uint prsF) timed(1) ownerOnly {\r\n    price = prs;\r\n    priceFeedIn = prsF;\r\n    priceStatusAt = now;\r\n  }\r\n\r\n  function getPrice() public view returns (uint prs, bool updatedOrNot) {\r\n    prs = price;\r\n    //prsAt = priceStatusAt;\r\n    if (priceStatusAt + priceTimeOut < now) {\r\n      updatedOrNot = false;\r\n    } else {\r\n      updatedOrNot = true;\r\n    }\r\n    //adr = owner;\r\n  }\r\n  // Does not need to be implemented if the clockLib works\r\n  /*function needTBCharged() {\r\n    //Grid ask if battery is actively buying energy from grid?\r\n    uint consum;\r\n    uint rank;\r\n    uint tot;\r\n    bool updated;\r\n    uint whatDeviceAccept;\r\n    uint receivedMoney;\r\n    address adr;\r\n    for (uint i = 0; i < connectedDevice[2].length; i++) {\r\n      (consum,rank,tot,updated) = IBattery(connectedDevice[2][i]).getSortedPrice();\r\n      if (updated && consum != 0) {\r\n        // transaction\r\n        adr = connectedDevice[2][i];\r\n        whatDeviceAccept = IBattery(adr).goNoGo(posBackup);\r\n        posBackup -= whatDeviceAccept;\r\n        receivedMoney = whatDeviceAccept*price;\r\n        wallet = wallet.clearMoneyTransfer(receivedMoney,adr, address(this));\r\n      }\r\n    }\r\n  }*/\r\n\r\n  function goExcess(uint vol) timed(5) returns (uint takeVol, uint prs) {\r\n    prs = priceFeedIn;\r\n    takeVol = vol.findMin(negBackup);\r\n    negBackup = negBackup.clearEnergyTransfer(takeVol, address(this));\r\n    wallet -= int(takeVol*prs);\r\n  }\r\n\r\n  function goExtra(uint vol) timed(5) returns (uint takeVol, uint prs) { // when houses have not sufficient energy supply from microgrid\r\n    prs = price;\r\n    takeVol = vol.findMin(posBackup);\r\n    posBackup -= takeVol;\r\n    wallet = wallet.clearMoneyTransfer(takeVol*prs,msg.sender, address(this));\r\n  }\r\n}\r\n",
  "sourcePath": "C:\\Users\\qianc\\Documents\\Thesis\\Code\\SimpleMonitor\\contracts\\Grid.sol",
  "compiler": {
    "name": "solc",
    "version": "0.4.18+commit.9cf6e910.Emscripten.clang"
  },
  "schemaVersion": "1.0.1",
  "updatedAt": "2017-12-05T23:13:02.621Z"
}