{
  "contractName": "Grid",
  "abi": [
    {
      "constant": true,
      "inputs": [],
      "name": "name",
      "outputs": [
        {
          "name": "",
          "type": "bytes32"
        }
      ],
      "payable": false,
      "stateMutability": "view",
      "type": "function"
    },
    {
      "constant": false,
      "inputs": [
        {
          "name": "vol",
          "type": "uint256"
        }
      ],
      "name": "goExcess",
      "outputs": [
        {
          "name": "takeVol",
          "type": "uint256"
        },
        {
          "name": "prs",
          "type": "uint256"
        }
      ],
      "payable": false,
      "stateMutability": "nonpayable",
      "type": "function"
    },
    {
      "constant": false,
      "inputs": [
        {
          "name": "adr",
          "type": "address"
        }
      ],
      "name": "addPV",
      "outputs": [],
      "payable": false,
      "stateMutability": "nonpayable",
      "type": "function"
    },
    {
      "constant": false,
      "inputs": [
        {
          "name": "vol",
          "type": "uint256"
        }
      ],
      "name": "goExtra",
      "outputs": [
        {
          "name": "takeVol",
          "type": "uint256"
        },
        {
          "name": "prs",
          "type": "uint256"
        }
      ],
      "payable": false,
      "stateMutability": "nonpayable",
      "type": "function"
    },
    {
      "constant": true,
      "inputs": [],
      "name": "owner",
      "outputs": [
        {
          "name": "",
          "type": "address"
        }
      ],
      "payable": false,
      "stateMutability": "view",
      "type": "function"
    },
    {
      "constant": false,
      "inputs": [],
      "name": "getPrice",
      "outputs": [
        {
          "name": "prs",
          "type": "uint256"
        },
        {
          "name": "updatedOrNot",
          "type": "bool"
        }
      ],
      "payable": false,
      "stateMutability": "nonpayable",
      "type": "function"
    },
    {
      "constant": false,
      "inputs": [
        {
          "name": "adr",
          "type": "address"
        }
      ],
      "name": "addH",
      "outputs": [],
      "payable": false,
      "stateMutability": "nonpayable",
      "type": "function"
    },
    {
      "constant": false,
      "inputs": [],
      "name": "needTBCharged",
      "outputs": [],
      "payable": false,
      "stateMutability": "nonpayable",
      "type": "function"
    },
    {
      "constant": false,
      "inputs": [
        {
          "name": "adr",
          "type": "address"
        }
      ],
      "name": "addB",
      "outputs": [],
      "payable": false,
      "stateMutability": "nonpayable",
      "type": "function"
    },
    {
      "constant": false,
      "inputs": [
        {
          "name": "prs",
          "type": "uint256"
        },
        {
          "name": "prsF",
          "type": "uint256"
        }
      ],
      "name": "setPrice",
      "outputs": [],
      "payable": false,
      "stateMutability": "nonpayable",
      "type": "function"
    },
    {
      "constant": true,
      "inputs": [],
      "name": "Admin",
      "outputs": [
        {
          "name": "",
          "type": "address"
        }
      ],
      "payable": false,
      "stateMutability": "view",
      "type": "function"
    },
    {
      "inputs": [
        {
          "name": "adr",
          "type": "address"
        }
      ],
      "payable": false,
      "stateMutability": "nonpayable",
      "type": "constructor"
    }
  ],
  "bytecode": "0x606060405261012c60045560646005556064600655341561001f57600080fd5b60405160208061082683398101604052808051600b8054600160a060020a03928316600160a060020a031991821617909155600a8054339093169290911691909117905550506107b2806100746000396000f3006060604052600436106100955763ffffffff60e060020a60003504166306fdde03811461009a57806335f7f5e2146100bf5780634927f2e7146100ed5780636e2855441461010e5780638da5cb5b1461012457806398d5fdca14610153578063ad3ef3ab14610180578063cb99c1571461019f578063d5452901146101b2578063f7d97577146101d1578063ff1b636d146101ea575b600080fd5b34156100a557600080fd5b6100ad6101fd565b60405190815260200160405180910390f35b34156100ca57600080fd5b6100d5600435610203565b60405191825260208201526040908101905180910390f35b34156100f857600080fd5b61010c600160a060020a036004351661032d565b005b341561011957600080fd5b6100d5600435610378565b341561012f57600080fd5b6101376104ab565b604051600160a060020a03909116815260200160405180910390f35b341561015e57600080fd5b6101666104ba565b604051918252151560208201526040908101905180910390f35b341561018b57600080fd5b61010c600160a060020a03600435166104df565b34156101aa57600080fd5b61010c6104f1565b34156101bd57600080fd5b61010c600160a060020a03600435166106f5565b34156101dc57600080fd5b61010c600435602435610707565b34156101f557600080fd5b61013761072d565b60025481565b600080600d5490508273__TransactLib___________________________63bc2e368c909160065460006040516020015260405160e060020a63ffffffff85160281526004810192909252602482015260440160206040518083038186803b151561026d57600080fd5b6102c65a03f4151561027e57600080fd5b50505060405180519050915060065473__TransactLib___________________________639e5fd0a99091843060006040516020015260405160e060020a63ffffffff861602815260048101939093526024830191909152600160a060020a0316604482015260640160206040518083038186803b15156102fe57600080fd5b6102c65a03f4151561030f57600080fd5b50505060405180516006555060038054838302900390559092909150565b600880546001810161033f838261073c565b506000918252602090912001805473ffffffffffffffffffffffffffffffffffffffff1916600160a060020a0392909216919091179055565b600080600c5490508273__TransactLib___________________________63bc2e368c909160055460006040516020015260405160e060020a63ffffffff85160281526004810192909252602482015260440160206040518083038186803b15156103e257600080fd5b6102c65a03f415156103f357600080fd5b505050604051805160058054829003905560035490935073__TransactLib___________________________915063e2992d2990838502333060006040516020015260405160e060020a63ffffffff871602815260048101949094526024840192909252600160a060020a03908116604484015216606482015260840160206040518083038186803b151561048757600080fd5b6102c65a03f4151561049857600080fd5b5050506040518051600355509092909150565b600b54600160a060020a031681565b600c54600454600e5460009142910110156104d7575060006104db565b5060015b9091565b600780546001810161033f838261073c565b6000808080808080805b6009548110156106eb57600980548290811061051357fe5b6000918252602082200154600160a060020a03169063cf7fc76290604051608001526040518163ffffffff1660e060020a028152600401608060405180830381600087803b151561056357600080fd5b6102c65a03f1151561057457600080fd5b5050506040518051906020018051906020018051906020018051939b50919950975090955085905080156105a757508715155b156106e35760098054829081106105ba57fe5b6000918252602082200154600554600160a060020a0390911693508391630ff3728291906040516020015260405160e060020a63ffffffff84160281526004810191909152602401602060405180830381600087803b151561061b57600080fd5b6102c65a03f1151561062c57600080fd5b5050506040518051600580548290039055600c546003549196508602945073__TransactLib___________________________915063e2992d299085853060006040516020015260405160e060020a63ffffffff871602815260048101949094526024840192909252600160a060020a03908116604484015216606482015260840160206040518083038186803b15156106c557600080fd5b6102c65a03f415156106d657600080fd5b5050506040518051600355505b6001016104fb565b5050505050505050565b600980546001810161033f838261073c565b600b5433600160a060020a039081169116141561009557600c91909155600d5542600e55565b600054600160a060020a031681565b81548183558181151161076057600083815260209020610760918101908301610765565b505050565b61078391905b8082111561077f576000815560010161076b565b5090565b905600a165627a7a7230582034a931e41bcf29c85830fc852d4deca11aea6e031c20ca3957944c218ec74b080029",
  "source": "pragma solidity ^0.4.4;\n\nimport \"./IGrid.sol\";\nimport \"./IBattery.sol\";\nimport \"./TransactLib.sol\";\nimport \"./GeneralDevice.sol\";\n\ncontract Grid is GeneralDevice, IGrid {\n\n  using TransactLib for *;\n\n  address Admin;                    // shall be defined at the creation of contract or to be defined manually\n  address public owner;\n  uint    price;\n  uint    priceFeedIn;\n  uint    priceStatusAt;            // timestamp of the update (price)\n\n  modifier ownerOnly {\n    if (msg.sender == owner) {\n      _;\n    } else {\n      revert();\n    }\n  }\n\n  function Grid(address adr) {\n    // constructor\n    // Assuming that the Grid can be connected by all the devices\n    owner = adr;\n    Admin = msg.sender;\n  }\n\n  function setPrice(uint prs, uint prsF) ownerOnly {\n    price = prs;\n    priceFeedIn = prsF;\n    priceStatusAt = now;\n  }\n\n  function getPrice() returns (uint prs, bool updatedOrNot) {\n    prs = price;\n    //prsAt = priceStatusAt;\n    if (priceStatusAt + priceTimeOut < now) {\n      updatedOrNot = false;\n    } else {\n      updatedOrNot = true;\n    }\n    //adr = owner;\n  }\n\n  function needTBCharged() {\n    //Grid ask if battery is actively buying energy from grid?\n    uint consum;\n    uint rank;\n    uint tot;\n    bool updated;\n    uint whatDeviceAccept;\n    uint receivedMoney;\n    address adr;\n    for (uint i = 0; i < connectedBattery.length; i++) {\n      (consum,rank,tot,updated) = IBattery(connectedBattery[i]).getSortedPVInfo();\n      if (updated && consum != 0) {\n        // transaction\n        adr = connectedBattery[i];\n        whatDeviceAccept = IBattery(adr).goNoGo(posBackup);\n        posBackup -= whatDeviceAccept;\n        receivedMoney = whatDeviceAccept*price;\n        wallet = wallet.clearMoneyTransfer(receivedMoney,adr, address(this));\n      }\n    }\n  }\n\n  function goExcess(uint vol) returns (uint takeVol, uint prs) {\n    prs = priceFeedIn;\n    takeVol = vol.findMin(negBackup);\n    negBackup = negBackup.clearEnergyTransfer(takeVol, address(this));\n    wallet -= int(takeVol*prs);\n  }\n\n  function goExtra(uint vol) returns (uint takeVol, uint prs) { // when houses have not sufficient energy supply from microgrid\n    prs = price;\n    takeVol = vol.findMin(posBackup);\n    posBackup -= takeVol;\n    wallet = wallet.clearMoneyTransfer(takeVol*prs,msg.sender, address(this));\n  }\n}\n",
  "sourcePath": "C:\\Users\\qianc\\Documents\\Thesis\\Code\\SimpleMonitor\\contracts\\Grid.sol",
  "compiler": {
    "name": "solc",
    "version": "0.4.18+commit.9cf6e910.Emscripten.clang"
  },
  "schemaVersion": "1.0.1",
  "updatedAt": "2017-11-25T14:26:09.042Z"
}