{
  "contractName": "Grid",
  "abi": [
    {
      "constant": true,
      "inputs": [],
      "name": "owner",
      "outputs": [
        {
          "name": "",
          "type": "address"
        }
      ],
      "payable": false,
      "type": "function",
      "stateMutability": "view"
    },
    {
      "constant": false,
      "inputs": [
        {
          "name": "prs",
          "type": "uint256"
        }
      ],
      "name": "setPrice",
      "outputs": [],
      "payable": false,
      "type": "function",
      "stateMutability": "nonpayable"
    },
    {
      "constant": false,
      "inputs": [],
      "name": "getPrice",
      "outputs": [
        {
          "name": "prs",
          "type": "uint256"
        },
        {
          "name": "updatedOrNot",
          "type": "bool"
        }
      ],
      "payable": false,
      "type": "function",
      "stateMutability": "nonpayable"
    },
    {
      "inputs": [
        {
          "name": "adr",
          "type": "address"
        }
      ],
      "payable": false,
      "type": "constructor",
      "stateMutability": "nonpayable"
    }
  ],
  "bytecode": "0x606060405261012c600455341561001557600080fd5b6040516020806101e08339810160405280805160018054600160a060020a03928316600160a060020a03199182161790915560008054339093169290911691909117905550506101768061006a6000396000f3006060604052600436106100565763ffffffff7c01000000000000000000000000000000000000000000000000000000006000350416638da5cb5b811461005b57806391b7f5ed1461009757806398d5fdca146100af575b600080fd5b341561006657600080fd5b61006e6100dc565b60405173ffffffffffffffffffffffffffffffffffffffff909116815260200160405180910390f35b34156100a257600080fd5b6100ad6004356100f8565b005b34156100ba57600080fd5b6100c2610125565b604051918252151560208201526040908101905180910390f35b60015473ffffffffffffffffffffffffffffffffffffffff1681565b6001543373ffffffffffffffffffffffffffffffffffffffff908116911614156100565760025542600355565b600254600454600354600091429101101561014257506000610146565b5060015b90915600a165627a7a723058205b451aab16bcd6fd80bdaf36eda01e2bee3e266abf62b911a72a057db7601a7a0029",
  "source": "pragma solidity ^0.4.4;\n\nimport \"./IGrid.sol\";\n\ncontract Grid is IGrid {\n\n  address Admin;                    // shall be defined at the creation of contract or to be defined manually\n  address public owner;\n  uint    price;\n  uint    priceStatusAt;            // timestamp of the update (price)\n  uint    priceTimeOut = 5 minutes;\n\n  modifier ownerOnly {\n    if (msg.sender == owner) {\n      _;\n    } else {\n      revert();\n    }\n  }\n\n  function Grid(address adr) {\n    // constructor\n    // Assuming that the Grid can be connected by all the devices\n    owner = adr;\n    Admin = msg.sender;\n  }\n\n  function setPrice(uint prs) ownerOnly {\n    price = prs;\n    priceStatusAt = now;\n  }\n\n  function getPrice() returns (uint prs, bool updatedOrNot) {\n    prs = price;\n    //prsAt = priceStatusAt;\n    if (priceStatusAt + priceTimeOut < now) {\n      updatedOrNot = false;\n    } else {\n      updatedOrNot = true;\n    }\n    //adr = owner;\n  }\n}\n",
  "sourcePath": "C:\\Users\\qianc\\Documents\\Thesis\\Code\\SimpleMonitor\\contracts\\Grid.sol",
  "compiler": {
    "name": "solc",
    "version": "0.4.18+commit.9cf6e910.Emscripten.clang"
  },
  "schemaVersion": "1.0.1",
  "updatedAt": "2017-11-08T17:16:34.585Z"
}