{
  "contractName": "Grid",
  "abi": [
    {
      "constant": false,
      "inputs": [
        {
          "name": "vol",
          "type": "uint256"
        }
      ],
      "name": "goExcess",
      "outputs": [
        {
          "name": "takeVol",
          "type": "uint256"
        },
        {
          "name": "prs",
          "type": "uint256"
        }
      ],
      "payable": false,
      "stateMutability": "nonpayable",
      "type": "function"
    },
    {
      "constant": false,
      "inputs": [
        {
          "name": "adr",
          "type": "address"
        }
      ],
      "name": "addPV",
      "outputs": [],
      "payable": false,
      "stateMutability": "nonpayable",
      "type": "function"
    },
    {
      "constant": false,
      "inputs": [
        {
          "name": "vol",
          "type": "uint256"
        }
      ],
      "name": "goExtra",
      "outputs": [
        {
          "name": "takeVol",
          "type": "uint256"
        },
        {
          "name": "prs",
          "type": "uint256"
        }
      ],
      "payable": false,
      "stateMutability": "nonpayable",
      "type": "function"
    },
    {
      "constant": false,
      "inputs": [],
      "name": "getPrice",
      "outputs": [
        {
          "name": "prs",
          "type": "uint256"
        },
        {
          "name": "updatedOrNot",
          "type": "bool"
        }
      ],
      "payable": false,
      "stateMutability": "nonpayable",
      "type": "function"
    },
    {
      "constant": false,
      "inputs": [
        {
          "name": "adr",
          "type": "address"
        }
      ],
      "name": "addH",
      "outputs": [],
      "payable": false,
      "stateMutability": "nonpayable",
      "type": "function"
    },
    {
      "constant": false,
      "inputs": [],
      "name": "needTBCharged",
      "outputs": [],
      "payable": false,
      "stateMutability": "nonpayable",
      "type": "function"
    },
    {
      "constant": false,
      "inputs": [
        {
          "name": "adr",
          "type": "address"
        }
      ],
      "name": "addB",
      "outputs": [],
      "payable": false,
      "stateMutability": "nonpayable",
      "type": "function"
    },
    {
      "constant": false,
      "inputs": [
        {
          "name": "prs",
          "type": "uint256"
        },
        {
          "name": "prsF",
          "type": "uint256"
        }
      ],
      "name": "setPrice",
      "outputs": [],
      "payable": false,
      "stateMutability": "nonpayable",
      "type": "function"
    },
    {
      "constant": true,
      "inputs": [],
      "name": "Admin",
      "outputs": [
        {
          "name": "",
          "type": "address"
        }
      ],
      "payable": false,
      "stateMutability": "view",
      "type": "function"
    },
    {
      "inputs": [
        {
          "name": "adr",
          "type": "address"
        }
      ],
      "payable": false,
      "stateMutability": "nonpayable",
      "type": "constructor"
    }
  ],
  "bytecode": "0x606060405261012c60045560646005556064600655341561001f57600080fd5b6040516020806107c38339810160405280805160018054600160a060020a03928316600160a060020a031991821617909155600080543390931692909116919091179055505061074f806100746000396000f30060606040526004361061007f5763ffffffff60e060020a60003504166335f7f5e281146100845780634927f2e7146100b25780636e285544146100d357806398d5fdca146100e9578063ad3ef3ab14610116578063cb99c15714610135578063d545290114610148578063f7d9757714610167578063ff1b636d14610180575b600080fd5b341561008f57600080fd5b61009a6004356101af565b60405191825260208201526040908101905180910390f35b34156100bd57600080fd5b6100d1600160a060020a03600435166102d9565b005b34156100de57600080fd5b61009a600435610324565b34156100f457600080fd5b6100fc610457565b604051918252151560208201526040908101905180910390f35b341561012157600080fd5b6100d1600160a060020a036004351661047c565b341561014057600080fd5b6100d161048e565b341561015357600080fd5b6100d1600160a060020a0360043516610692565b341561017257600080fd5b6100d16004356024356106a4565b341561018b57600080fd5b6101936106ca565b604051600160a060020a03909116815260200160405180910390f35b600080600b5490508273__TransactLib___________________________63bc2e368c909160065460006040516020015260405160e060020a63ffffffff85160281526004810192909252602482015260440160206040518083038186803b151561021957600080fd5b6102c65a03f4151561022a57600080fd5b50505060405180519050915060065473__TransactLib___________________________639e5fd0a99091843060006040516020015260405160e060020a63ffffffff861602815260048101939093526024830191909152600160a060020a0316604482015260640160206040518083038186803b15156102aa57600080fd5b6102c65a03f415156102bb57600080fd5b50505060405180516006555060038054838302900390559092909150565b60088054600181016102eb83826106d9565b506000918252602090912001805473ffffffffffffffffffffffffffffffffffffffff1916600160a060020a0392909216919091179055565b600080600a5490508273__TransactLib___________________________63bc2e368c909160055460006040516020015260405160e060020a63ffffffff85160281526004810192909252602482015260440160206040518083038186803b151561038e57600080fd5b6102c65a03f4151561039f57600080fd5b505050604051805160058054829003905560035490935073__TransactLib___________________________915063e2992d2990838502333060006040516020015260405160e060020a63ffffffff871602815260048101949094526024840192909252600160a060020a03908116604484015216606482015260840160206040518083038186803b151561043357600080fd5b6102c65a03f4151561044457600080fd5b5050506040518051600355509092909150565b600a54600454600c54600091429101101561047457506000610478565b5060015b9091565b60078054600181016102eb83826106d9565b6000808080808080805b6009548110156106885760098054829081106104b057fe5b6000918252602082200154600160a060020a03169063cf7fc76290604051608001526040518163ffffffff1660e060020a028152600401608060405180830381600087803b151561050057600080fd5b6102c65a03f1151561051157600080fd5b5050506040518051906020018051906020018051906020018051939b509199509750909550859050801561054457508715155b1561068057600980548290811061055757fe5b6000918252602082200154600554600160a060020a0390911693508391630ff3728291906040516020015260405160e060020a63ffffffff84160281526004810191909152602401602060405180830381600087803b15156105b857600080fd5b6102c65a03f115156105c957600080fd5b5050506040518051600580548290039055600a546003549196508602945073__TransactLib___________________________915063e2992d299085853060006040516020015260405160e060020a63ffffffff871602815260048101949094526024840192909252600160a060020a03908116604484015216606482015260840160206040518083038186803b151561066257600080fd5b6102c65a03f4151561067357600080fd5b5050506040518051600355505b600101610498565b5050505050505050565b60098054600181016102eb83826106d9565b60015433600160a060020a039081169116141561007f57600a91909155600b5542600c55565b600054600160a060020a031681565b8154818355818115116106fd576000838152602090206106fd918101908301610702565b505050565b61072091905b8082111561071c5760008155600101610708565b5090565b905600a165627a7a723058201c16f300d423c057c42c21db167d15d6fb84bff48f8c9043e145ef05441aa05e0029",
  "source": "pragma solidity ^0.4.4;\n\nimport \"./IGrid.sol\";\nimport \"./IBattery.sol\";\nimport \"./TransactLib.sol\";\nimport \"./GeneralDevice.sol\";\n\ncontract Grid is GeneralDevice, IGrid {\n\n  using TransactLib for *;\n\n  uint    price;\n  uint    priceFeedIn;\n  uint    priceStatusAt;            // timestamp of the update (price)\n\n\n  function Grid(address adr) GeneralDevice(adr) { }\n\n  function setPrice(uint prs, uint prsF) ownerOnly {\n    price = prs;\n    priceFeedIn = prsF;\n    priceStatusAt = now;\n  }\n\n  function getPrice() returns (uint prs, bool updatedOrNot) {\n    prs = price;\n    //prsAt = priceStatusAt;\n    if (priceStatusAt + priceTimeOut < now) {\n      updatedOrNot = false;\n    } else {\n      updatedOrNot = true;\n    }\n    //adr = owner;\n  }\n\n  function needTBCharged() {\n    //Grid ask if battery is actively buying energy from grid?\n    uint consum;\n    uint rank;\n    uint tot;\n    bool updated;\n    uint whatDeviceAccept;\n    uint receivedMoney;\n    address adr;\n    for (uint i = 0; i < connectedBattery.length; i++) {\n      (consum,rank,tot,updated) = IBattery(connectedBattery[i]).getSortedPVInfo();\n      if (updated && consum != 0) {\n        // transaction\n        adr = connectedBattery[i];\n        whatDeviceAccept = IBattery(adr).goNoGo(posBackup);\n        posBackup -= whatDeviceAccept;\n        receivedMoney = whatDeviceAccept*price;\n        wallet = wallet.clearMoneyTransfer(receivedMoney,adr, address(this));\n      }\n    }\n  }\n\n  function goExcess(uint vol) returns (uint takeVol, uint prs) {\n    prs = priceFeedIn;\n    takeVol = vol.findMin(negBackup);\n    negBackup = negBackup.clearEnergyTransfer(takeVol, address(this));\n    wallet -= int(takeVol*prs);\n  }\n\n  function goExtra(uint vol) returns (uint takeVol, uint prs) { // when houses have not sufficient energy supply from microgrid\n    prs = price;\n    takeVol = vol.findMin(posBackup);\n    posBackup -= takeVol;\n    wallet = wallet.clearMoneyTransfer(takeVol*prs,msg.sender, address(this));\n  }\n}\n",
  "sourcePath": "C:\\Users\\qianc\\Documents\\Thesis\\Code\\SimpleMonitor\\contracts\\Grid.sol",
  "compiler": {
    "name": "solc",
    "version": "0.4.18+commit.9cf6e910.Emscripten.clang"
  },
  "schemaVersion": "1.0.1",
  "updatedAt": "2017-11-26T10:01:55.554Z"
}