{
  "contractName": "Grid",
  "abi": [
    {
      "constant": false,
      "inputs": [
        {
          "name": "adr",
          "type": "address"
        }
      ],
      "name": "addPV",
      "outputs": [],
      "payable": false,
      "stateMutability": "nonpayable",
      "type": "function"
    },
    {
      "constant": true,
      "inputs": [],
      "name": "owner",
      "outputs": [
        {
          "name": "",
          "type": "address"
        }
      ],
      "payable": false,
      "stateMutability": "view",
      "type": "function"
    },
    {
      "constant": false,
      "inputs": [
        {
          "name": "prs",
          "type": "uint256"
        }
      ],
      "name": "setPrice",
      "outputs": [],
      "payable": false,
      "stateMutability": "nonpayable",
      "type": "function"
    },
    {
      "constant": false,
      "inputs": [],
      "name": "getPrice",
      "outputs": [
        {
          "name": "prs",
          "type": "uint256"
        },
        {
          "name": "updatedOrNot",
          "type": "bool"
        }
      ],
      "payable": false,
      "stateMutability": "nonpayable",
      "type": "function"
    },
    {
      "constant": false,
      "inputs": [
        {
          "name": "adr",
          "type": "address"
        }
      ],
      "name": "addH",
      "outputs": [],
      "payable": false,
      "stateMutability": "nonpayable",
      "type": "function"
    },
    {
      "constant": false,
      "inputs": [],
      "name": "needTBCharged",
      "outputs": [],
      "payable": false,
      "stateMutability": "nonpayable",
      "type": "function"
    },
    {
      "constant": false,
      "inputs": [
        {
          "name": "adr",
          "type": "address"
        }
      ],
      "name": "addB",
      "outputs": [],
      "payable": false,
      "stateMutability": "nonpayable",
      "type": "function"
    },
    {
      "inputs": [
        {
          "name": "adr",
          "type": "address"
        }
      ],
      "payable": false,
      "stateMutability": "nonpayable",
      "type": "constructor"
    }
  ],
  "bytecode": "0x606060405261012c6001556064600255341561001a57600080fd5b6040516020806104fe8339810160405280805160078054600160a060020a03928316600160a060020a031991821617909155600680543390931692909116919091179055505061048f8061006f6000396000f3006060604052600436106100695763ffffffff60e060020a6000350416634927f2e7811461006e5780638da5cb5b1461008f57806391b7f5ed146100be57806398d5fdca146100d4578063ad3ef3ab14610101578063cb99c15714610120578063d545290114610133575b600080fd5b341561007957600080fd5b61008d600160a060020a0360043516610152565b005b341561009a57600080fd5b6100a261019d565b604051600160a060020a03909116815260200160405180910390f35b34156100c957600080fd5b61008d6004356101ac565b34156100df57600080fd5b6100e76101cc565b604051918252151560208201526040908101905180910390f35b341561010c57600080fd5b61008d600160a060020a03600435166101f1565b341561012b57600080fd5b61008d610203565b341561013e57600080fd5b61008d600160a060020a036004351661040b565b60048054600181016101648382610419565b506000918252602090912001805473ffffffffffffffffffffffffffffffffffffffff1916600160a060020a0392909216919091179055565b600754600160a060020a031681565b60075433600160a060020a03908116911614156100695760085542600955565b60085460015460095460009142910110156101e9575060006101ed565b5060015b9091565b60038054600181016101648382610419565b6000808080808080805b60055481101561040157600580548290811061022557fe5b6000918252602082200154600160a060020a03169063cf7fc76290604051608001526040518163ffffffff1660e060020a028152600401608060405180830381600087803b151561027557600080fd5b6102c65a03f1151561028657600080fd5b5050506040518051906020018051906020018051906020018051939b50919950975090955085905080156102b957508715155b156103f95760058054829081106102cc57fe5b6000918252602082200154600254600160a060020a0390911693508391630ff3728291906040516020015260405160e060020a63ffffffff84160281526004810191909152602401602060405180830381600087803b151561032d57600080fd5b6102c65a03f1151561033e57600080fd5b505050604051805160028054829003905560085460008054929750908702955073__TransactLib___________________________925063e2992d2991908690869030906040516020015260405160e060020a63ffffffff871602815260048101949094526024840192909252600160a060020a03908116604484015216606482015260840160206040518083038186803b15156103db57600080fd5b6102c65a03f415156103ec57600080fd5b5050506040518051600055505b60010161020d565b5050505050505050565b600580546001810161016483825b81548183558181151161043d5760008381526020902061043d918101908301610442565b505050565b61046091905b8082111561045c5760008155600101610448565b5090565b905600a165627a7a723058206071821f3719030a098c77f714a229b91866713d44e91b05e88e030d814c9f540029",
  "source": "pragma solidity ^0.4.4;\n\nimport \"./IGrid.sol\";\nimport \"./IBattery.sol\";\nimport \"./TransactLib.sol\";\n\ncontract Grid is IGrid {\n\n  using TransactLib for *;\n\n  address Admin;                    // shall be defined at the creation of contract or to be defined manually\n  address public owner;\n  uint    price;\n  uint    priceStatusAt;            // timestamp of the update (price)\n\n  modifier ownerOnly {\n    if (msg.sender == owner) {\n      _;\n    } else {\n      revert();\n    }\n  }\n\n  function Grid(address adr) {\n    // constructor\n    // Assuming that the Grid can be connected by all the devices\n    owner = adr;\n    Admin = msg.sender;\n  }\n\n  function setPrice(uint prs) ownerOnly {\n    price = prs;\n    priceStatusAt = now;\n  }\n\n  function getPrice() returns (uint prs, bool updatedOrNot) {\n    prs = price;\n    //prsAt = priceStatusAt;\n    if (priceStatusAt + priceTimeOut < now) {\n      updatedOrNot = false;\n    } else {\n      updatedOrNot = true;\n    }\n    //adr = owner;\n  }\n\n  function needTBCharged() {\n    //Grid ask if battery is actively buying energy from grid?\n    uint consum;\n    uint rank;\n    uint tot;\n    bool updated;\n    uint whatDeviceAccept;\n    uint receivedMoney;\n    address adr;\n    for (uint i = 0; i < connectedBattery.length; i++) {\n      (consum,rank,tot,updated) = IBattery(connectedBattery[i]).getSortedPVInfo();\n      if (updated && consum != 0) {\n        // transaction\n        adr = connectedBattery[i];\n        whatDeviceAccept = IBattery(adr).goNoGo(posBackup);\n        posBackup -= whatDeviceAccept;\n        receivedMoney = whatDeviceAccept*price;\n        wallet = wallet.clearMoneyTransfer(receivedMoney,adr, address(this));\n      }\n    }\n  }\n}\n",
  "sourcePath": "C:\\Users\\qianc\\Documents\\Thesis\\Code\\SimpleMonitor\\contracts\\Grid.sol",
  "compiler": {
    "name": "solc",
    "version": "0.4.18+commit.9cf6e910.Emscripten.clang"
  },
  "schemaVersion": "1.0.1",
  "updatedAt": "2017-11-10T13:22:37.109Z"
}