{
  "contractName": "Grid",
  "abi": [
    {
      "constant": false,
      "inputs": [
        {
          "name": "adr",
          "type": "address"
        }
      ],
      "name": "setTimerAdr",
      "outputs": [],
      "payable": false,
      "stateMutability": "nonpayable",
      "type": "function"
    },
    {
      "constant": false,
      "inputs": [],
      "name": "getTimerStatus",
      "outputs": [
        {
          "name": "",
          "type": "uint256"
        }
      ],
      "payable": false,
      "stateMutability": "nonpayable",
      "type": "function"
    },
    {
      "constant": false,
      "inputs": [
        {
          "name": "vol",
          "type": "uint256"
        }
      ],
      "name": "goExcess",
      "outputs": [
        {
          "name": "takeVol",
          "type": "uint256"
        },
        {
          "name": "prs",
          "type": "uint256"
        }
      ],
      "payable": false,
      "stateMutability": "nonpayable",
      "type": "function"
    },
    {
      "constant": false,
      "inputs": [
        {
          "name": "vol",
          "type": "uint256"
        }
      ],
      "name": "goExtra",
      "outputs": [
        {
          "name": "takeVol",
          "type": "uint256"
        },
        {
          "name": "prs",
          "type": "uint256"
        }
      ],
      "payable": false,
      "stateMutability": "nonpayable",
      "type": "function"
    },
    {
      "constant": false,
      "inputs": [],
      "name": "getTimerAddress",
      "outputs": [
        {
          "name": "",
          "type": "address"
        }
      ],
      "payable": false,
      "stateMutability": "nonpayable",
      "type": "function"
    },
    {
      "constant": false,
      "inputs": [
        {
          "name": "adr",
          "type": "address"
        }
      ],
      "name": "setGridAdr",
      "outputs": [],
      "payable": false,
      "stateMutability": "nonpayable",
      "type": "function"
    },
    {
      "constant": true,
      "inputs": [],
      "name": "getPrice",
      "outputs": [
        {
          "name": "prs",
          "type": "uint256"
        },
        {
          "name": "updatedOrNot",
          "type": "bool"
        }
      ],
      "payable": false,
      "stateMutability": "view",
      "type": "function"
    },
    {
      "constant": false,
      "inputs": [
        {
          "name": "a",
          "type": "uint256"
        },
        {
          "name": "adr",
          "type": "address"
        }
      ],
      "name": "addConnectedDevice",
      "outputs": [],
      "payable": false,
      "stateMutability": "nonpayable",
      "type": "function"
    },
    {
      "constant": false,
      "inputs": [],
      "name": "needTBCharged",
      "outputs": [],
      "payable": false,
      "stateMutability": "nonpayable",
      "type": "function"
    },
    {
      "constant": false,
      "inputs": [
        {
          "name": "prs",
          "type": "uint256"
        },
        {
          "name": "prsF",
          "type": "uint256"
        }
      ],
      "name": "setPrice",
      "outputs": [],
      "payable": false,
      "stateMutability": "nonpayable",
      "type": "function"
    },
    {
      "constant": true,
      "inputs": [],
      "name": "Admin",
      "outputs": [
        {
          "name": "",
          "type": "address"
        }
      ],
      "payable": false,
      "stateMutability": "view",
      "type": "function"
    },
    {
      "inputs": [
        {
          "name": "adr",
          "type": "address"
        }
      ],
      "payable": false,
      "stateMutability": "nonpayable",
      "type": "constructor"
    }
  ],
  "bytecode": "0x606060405260038054600160a060020a031990811690915560048054909116905561012c60075560646009819055600a55341561003b57600080fd5b6040516020806109a98339810160405280805160018054600160a060020a03928316600160a060020a0319918216179091556000805433909316929091169190911790555050610919806100906000396000f3006060604052600436106100955763ffffffff60e060020a6000350416630830cfae811461009a578063235a4a4f146100bb57806335f7f5e2146100e05780636e2855441461010e57806370ed8f24146101245780638d646b111461015357806398d5fdca14610172578063bfd119031461019f578063cb99c157146101c1578063f7d97577146101d4578063ff1b636d146101ed575b600080fd5b34156100a557600080fd5b6100b9600160a060020a0360043516610200565b005b34156100c657600080fd5b6100ce610243565b60405190815260200160405180910390f35b34156100eb57600080fd5b6100f66004356102ad565b60405191825260208201526040908101905180910390f35b341561011957600080fd5b6100f66004356103d7565b341561012f57600080fd5b61013761050a565b604051600160a060020a03909116815260200160405180910390f35b341561015e57600080fd5b6100b9600160a060020a0360043516610519565b341561017d57600080fd5b61018561055d565b604051918252151560208201526040908101905180910390f35b34156101aa57600080fd5b6100b9600435600160a060020a0360243516610582565b34156101cc57600080fd5b6100b96105ee565b34156101df57600080fd5b6100b960043560243561086d565b34156101f857600080fd5b610137610897565b60005433600160a060020a0390811691161415610095576004805473ffffffffffffffffffffffffffffffffffffffff1916600160a060020a0383161790555b50565b600454600090600160a060020a0316633b7104f282604051602001526040518163ffffffff1660e060020a028152600401602060405180830381600087803b151561028d57600080fd5b6102c65a03f1151561029e57600080fd5b50505060405180519150505b90565b600080600d5490508273__TransactLib___________________________63bc2e368c9091600a5460006040516020015260405160e060020a63ffffffff85160281526004810192909252602482015260440160206040518083038186803b151561031757600080fd5b6102c65a03f4151561032857600080fd5b505050604051805190509150600a5473__TransactLib___________________________639e5fd0a99091843060006040516020015260405160e060020a63ffffffff861602815260048101939093526024830191909152600160a060020a0316604482015260640160206040518083038186803b15156103a857600080fd5b6102c65a03f415156103b957600080fd5b5050506040518051600a5550600b8054838302900390559092909150565b600080600c5490508273__TransactLib___________________________63bc2e368c909160095460006040516020015260405160e060020a63ffffffff85160281526004810192909252602482015260440160206040518083038186803b151561044157600080fd5b6102c65a03f4151561045257600080fd5b5050506040518051600980548290039055600b5490935073__TransactLib___________________________915063e2992d2990838502333060006040516020015260405160e060020a63ffffffff871602815260048101949094526024840192909252600160a060020a03908116604484015216606482015260840160206040518083038186803b15156104e657600080fd5b6102c65a03f415156104f757600080fd5b5050506040518051600b55509092909150565b600454600160a060020a031690565b60005433600160a060020a0390811691161415610095576003805473ffffffffffffffffffffffffffffffffffffffff1916600160a060020a038316179055610240565b600c54600754600854600091429101101561057a5750600061057e565b5060015b9091565b60005433600160a060020a03908116911614156100955760008281526006602052604090208054600181016105b783826108a6565b506000918252602090912001805473ffffffffffffffffffffffffffffffffffffffff1916600160a060020a0383161790555b5050565b6000808080808080805b600260005260066020527f8819ef417987f8ae7a81f42cdfb18815282fe989326fbff903d13cf0e03ace295481101561086357600260005260066020527f8819ef417987f8ae7a81f42cdfb18815282fe989326fbff903d13cf0e03ace2980548290811061066257fe5b6000918252602082200154600160a060020a031690631b45f0e090604051608001526040518163ffffffff1660e060020a028152600401608060405180830381600087803b15156106b257600080fd5b6102c65a03f115156106c357600080fd5b5050506040518051906020018051906020018051906020018051939b50919950975090955085905080156106f657508715155b1561085b57600260005260066020527f8819ef417987f8ae7a81f42cdfb18815282fe989326fbff903d13cf0e03ace2980548290811061073257fe5b6000918252602082200154600954600160a060020a0390911693508391630ff3728291906040516020015260405160e060020a63ffffffff84160281526004810191909152602401602060405180830381600087803b151561079357600080fd5b6102c65a03f115156107a457600080fd5b5050506040518051600980548290039055600c54600b549196508602945073__TransactLib___________________________915063e2992d299085853060006040516020015260405160e060020a63ffffffff871602815260048101949094526024840192909252600160a060020a03908116604484015216606482015260840160206040518083038186803b151561083d57600080fd5b6102c65a03f4151561084e57600080fd5b5050506040518051600b55505b6001016105f8565b5050505050505050565b60015433600160a060020a039081169116141561009557600c829055600d819055426008556105ea565b600054600160a060020a031681565b8154818355818115116108ca576000838152602090206108ca9181019083016108cf565b505050565b6102aa91905b808211156108e957600081556001016108d5565b50905600a165627a7a72305820e2d7cb99759fe146406e952ee540d5d68acb392425cbd655381938e8f3c1cb090029",
  "source": "pragma solidity ^0.4.4;\r\n\r\nimport \"./IGrid.sol\";\r\nimport \"./IBattery.sol\";\r\nimport \"./TransactLib.sol\";\r\nimport \"./GeneralDevice.sol\";\r\n\r\ncontract Grid is GeneralDevice, IGrid {\r\n\r\n  using TransactLib for *;\r\n\r\n  uint    price;\r\n  uint    priceFeedIn;\r\n\r\n  function Grid(address adr) GeneralDevice(adr) { }\r\n\r\n  function setPrice(uint prs, uint prsF) ownerOnly {\r\n    price = prs;\r\n    priceFeedIn = prsF;\r\n    priceStatusAt = now;\r\n  }\r\n\r\n  function getPrice() public view returns (uint prs, bool updatedOrNot) {\r\n    prs = price;\r\n    //prsAt = priceStatusAt;\r\n    if (priceStatusAt + priceTimeOut < now) {\r\n      updatedOrNot = false;\r\n    } else {\r\n      updatedOrNot = true;\r\n    }\r\n    //adr = owner;\r\n  }\r\n  // Does not need to be implemented if the clockLib works\r\n  function needTBCharged() {\r\n    //Grid ask if battery is actively buying energy from grid?\r\n    uint consum;\r\n    uint rank;\r\n    uint tot;\r\n    bool updated;\r\n    uint whatDeviceAccept;\r\n    uint receivedMoney;\r\n    address adr;\r\n    for (uint i = 0; i < connectedDevice[2].length; i++) {\r\n      (consum,rank,tot,updated) = IBattery(connectedDevice[2][i]).getSortedPrice();\r\n      if (updated && consum != 0) {\r\n        // transaction\r\n        adr = connectedDevice[2][i];\r\n        whatDeviceAccept = IBattery(adr).goNoGo(posBackup);\r\n        posBackup -= whatDeviceAccept;\r\n        receivedMoney = whatDeviceAccept*price;\r\n        wallet = wallet.clearMoneyTransfer(receivedMoney,adr, address(this));\r\n      }\r\n    }\r\n  }\r\n\r\n  function goExcess(uint vol) returns (uint takeVol, uint prs) {\r\n    prs = priceFeedIn;\r\n    takeVol = vol.findMin(negBackup);\r\n    negBackup = negBackup.clearEnergyTransfer(takeVol, address(this));\r\n    wallet -= int(takeVol*prs);\r\n  }\r\n\r\n  function goExtra(uint vol) returns (uint takeVol, uint prs) { // when houses have not sufficient energy supply from microgrid\r\n    prs = price;\r\n    takeVol = vol.findMin(posBackup);\r\n    posBackup -= takeVol;\r\n    wallet = wallet.clearMoneyTransfer(takeVol*prs,msg.sender, address(this));\r\n  }\r\n}\r\n",
  "sourcePath": "C:\\Users\\qianc\\Documents\\Thesis\\Code\\SimpleMonitor\\contracts\\Grid.sol",
  "compiler": {
    "name": "solc",
    "version": "0.4.18+commit.9cf6e910.Emscripten.clang"
  },
  "schemaVersion": "1.0.1",
  "updatedAt": "2017-11-28T21:26:42.744Z"
}