{
  "contractName": "Grid",
  "abi": [
    {
      "constant": false,
      "inputs": [
        {
          "name": "vol",
          "type": "uint256"
        }
      ],
      "name": "goExcess",
      "outputs": [
        {
          "name": "takeVol",
          "type": "uint256"
        },
        {
          "name": "prs",
          "type": "uint256"
        }
      ],
      "payable": false,
      "stateMutability": "nonpayable",
      "type": "function"
    },
    {
      "constant": false,
      "inputs": [
        {
          "name": "adr",
          "type": "address"
        }
      ],
      "name": "addPV",
      "outputs": [],
      "payable": false,
      "stateMutability": "nonpayable",
      "type": "function"
    },
    {
      "constant": false,
      "inputs": [
        {
          "name": "vol",
          "type": "uint256"
        }
      ],
      "name": "goExtra",
      "outputs": [
        {
          "name": "takeVol",
          "type": "uint256"
        },
        {
          "name": "prs",
          "type": "uint256"
        }
      ],
      "payable": false,
      "stateMutability": "nonpayable",
      "type": "function"
    },
    {
      "constant": false,
      "inputs": [
        {
          "name": "adr",
          "type": "address"
        }
      ],
      "name": "setGridAdr",
      "outputs": [],
      "payable": false,
      "stateMutability": "nonpayable",
      "type": "function"
    },
    {
      "constant": false,
      "inputs": [],
      "name": "getPrice",
      "outputs": [
        {
          "name": "prs",
          "type": "uint256"
        },
        {
          "name": "updatedOrNot",
          "type": "bool"
        }
      ],
      "payable": false,
      "stateMutability": "nonpayable",
      "type": "function"
    },
    {
      "constant": false,
      "inputs": [
        {
          "name": "adr",
          "type": "address"
        }
      ],
      "name": "addH",
      "outputs": [],
      "payable": false,
      "stateMutability": "nonpayable",
      "type": "function"
    },
    {
      "constant": false,
      "inputs": [
        {
          "name": "a",
          "type": "uint256"
        },
        {
          "name": "adr",
          "type": "address"
        }
      ],
      "name": "addConnectedDevice",
      "outputs": [],
      "payable": false,
      "stateMutability": "nonpayable",
      "type": "function"
    },
    {
      "constant": false,
      "inputs": [],
      "name": "needTBCharged",
      "outputs": [],
      "payable": false,
      "stateMutability": "nonpayable",
      "type": "function"
    },
    {
      "constant": false,
      "inputs": [
        {
          "name": "adr",
          "type": "address"
        }
      ],
      "name": "addB",
      "outputs": [],
      "payable": false,
      "stateMutability": "nonpayable",
      "type": "function"
    },
    {
      "constant": false,
      "inputs": [
        {
          "name": "prs",
          "type": "uint256"
        },
        {
          "name": "prsF",
          "type": "uint256"
        }
      ],
      "name": "setPrice",
      "outputs": [],
      "payable": false,
      "stateMutability": "nonpayable",
      "type": "function"
    },
    {
      "constant": true,
      "inputs": [],
      "name": "Admin",
      "outputs": [
        {
          "name": "",
          "type": "address"
        }
      ],
      "payable": false,
      "stateMutability": "view",
      "type": "function"
    },
    {
      "inputs": [
        {
          "name": "adr",
          "type": "address"
        }
      ],
      "payable": false,
      "stateMutability": "nonpayable",
      "type": "constructor"
    }
  ],
  "bytecode": "0x606060405260038054600160a060020a031916905561012c60075560646008819055600955341561002f57600080fd5b6040516020806108dc8339810160405280805160018054600160a060020a03928316600160a060020a0319918216179091556000805433909316929091169190911790555050610858806100846000396000f3006060604052600436106100955763ffffffff60e060020a60003504166335f7f5e2811461009a5780634927f2e7146100c85780636e285544146100e95780638d646b11146100ff57806398d5fdca1461011e578063ad3ef3ab1461014b578063bfd119031461016a578063cb99c1571461018c578063d54529011461019f578063f7d97577146101be578063ff1b636d146101d7575b600080fd5b34156100a557600080fd5b6100b0600435610206565b60405191825260208201526040908101905180910390f35b34156100d357600080fd5b6100e7600160a060020a0360043516610330565b005b34156100f457600080fd5b6100b060043561037b565b341561010a57600080fd5b6100e7600160a060020a03600435166104ae565b341561012957600080fd5b6101316104f0565b604051918252151560208201526040908101905180910390f35b341561015657600080fd5b6100e7600160a060020a0360043516610515565b341561017557600080fd5b6100e7600435600160a060020a0360243516610527565b341561019757600080fd5b6100e7610593565b34156101aa57600080fd5b6100e7600160a060020a0360043516610797565b34156101c957600080fd5b6100e76004356024356107a9565b34156101e257600080fd5b6101ea6107d3565b604051600160a060020a03909116815260200160405180910390f35b600080600e5490508273__TransactLib___________________________63bc2e368c909160095460006040516020015260405160e060020a63ffffffff85160281526004810192909252602482015260440160206040518083038186803b151561027057600080fd5b6102c65a03f4151561028157600080fd5b50505060405180519050915060095473__TransactLib___________________________639e5fd0a99091843060006040516020015260405160e060020a63ffffffff861602815260048101939093526024830191909152600160a060020a0316604482015260640160206040518083038186803b151561030157600080fd5b6102c65a03f4151561031257600080fd5b50505060405180516009555060068054838302900390559092909150565b600b80546001810161034283826107e2565b506000918252602090912001805473ffffffffffffffffffffffffffffffffffffffff1916600160a060020a0392909216919091179055565b600080600d5490508273__TransactLib___________________________63bc2e368c909160085460006040516020015260405160e060020a63ffffffff85160281526004810192909252602482015260440160206040518083038186803b15156103e557600080fd5b6102c65a03f415156103f657600080fd5b505050604051805160088054829003905560065490935073__TransactLib___________________________915063e2992d2990838502333060006040516020015260405160e060020a63ffffffff871602815260048101949094526024840192909252600160a060020a03908116604484015216606482015260840160206040518083038186803b151561048a57600080fd5b6102c65a03f4151561049b57600080fd5b5050506040518051600655509092909150565b60005433600160a060020a0390811691161415610095576003805473ffffffffffffffffffffffffffffffffffffffff1916600160a060020a03831617905550565b600d54600754600f54600091429101101561050d57506000610511565b5060015b9091565b600a80546001810161034283826107e2565b60005433600160a060020a039081169116141561009557600082815260056020526040902080546001810161055c83826107e2565b506000918252602090912001805473ffffffffffffffffffffffffffffffffffffffff1916600160a060020a0383161790555b5050565b6000808080808080805b600c5481101561078d57600c8054829081106105b557fe5b6000918252602082200154600160a060020a03169063cf7fc76290604051608001526040518163ffffffff1660e060020a028152600401608060405180830381600087803b151561060557600080fd5b6102c65a03f1151561061657600080fd5b5050506040518051906020018051906020018051906020018051939b509199509750909550859050801561064957508715155b1561078557600c80548290811061065c57fe5b6000918252602082200154600854600160a060020a0390911693508391630ff3728291906040516020015260405160e060020a63ffffffff84160281526004810191909152602401602060405180830381600087803b15156106bd57600080fd5b6102c65a03f115156106ce57600080fd5b5050506040518051600880548290039055600d546006549196508602945073__TransactLib___________________________915063e2992d299085853060006040516020015260405160e060020a63ffffffff871602815260048101949094526024840192909252600160a060020a03908116604484015216606482015260840160206040518083038186803b151561076757600080fd5b6102c65a03f4151561077857600080fd5b5050506040518051600655505b60010161059d565b5050505050505050565b600c80546001810161034283826107e2565b60015433600160a060020a039081169116141561009557600d829055600e81905542600f5561058f565b600054600160a060020a031681565b8154818355818115116108065760008381526020902061080691810190830161080b565b505050565b61082991905b808211156108255760008155600101610811565b5090565b905600a165627a7a72305820d69d677b9b1e42ecec526861726facc7674d604e8a9deb0e641edaf2ab1b0cc20029",
  "source": "pragma solidity ^0.4.4;\n\nimport \"./IGrid.sol\";\nimport \"./IBattery.sol\";\nimport \"./TransactLib.sol\";\nimport \"./GeneralDevice.sol\";\n\ncontract Grid is GeneralDevice, IGrid {\n\n  using TransactLib for *;\n\n  uint    price;\n  uint    priceFeedIn;\n  uint    priceStatusAt;            // timestamp of the update (price)\n\n\n  function Grid(address adr) GeneralDevice(adr) { }\n\n  function setPrice(uint prs, uint prsF) ownerOnly {\n    price = prs;\n    priceFeedIn = prsF;\n    priceStatusAt = now;\n  }\n\n  function getPrice() returns (uint prs, bool updatedOrNot) {\n    prs = price;\n    //prsAt = priceStatusAt;\n    if (priceStatusAt + priceTimeOut < now) {\n      updatedOrNot = false;\n    } else {\n      updatedOrNot = true;\n    }\n    //adr = owner;\n  }\n\n  function needTBCharged() {\n    //Grid ask if battery is actively buying energy from grid?\n    uint consum;\n    uint rank;\n    uint tot;\n    bool updated;\n    uint whatDeviceAccept;\n    uint receivedMoney;\n    address adr;\n    for (uint i = 0; i < connectedBattery.length; i++) {\n      (consum,rank,tot,updated) = IBattery(connectedBattery[i]).getSortedPVInfo();\n      if (updated && consum != 0) {\n        // transaction\n        adr = connectedBattery[i];\n        whatDeviceAccept = IBattery(adr).goNoGo(posBackup);\n        posBackup -= whatDeviceAccept;\n        receivedMoney = whatDeviceAccept*price;\n        wallet = wallet.clearMoneyTransfer(receivedMoney,adr, address(this));\n      }\n    }\n  }\n\n  function goExcess(uint vol) returns (uint takeVol, uint prs) {\n    prs = priceFeedIn;\n    takeVol = vol.findMin(negBackup);\n    negBackup = negBackup.clearEnergyTransfer(takeVol, address(this));\n    wallet -= int(takeVol*prs);\n  }\n\n  function goExtra(uint vol) returns (uint takeVol, uint prs) { // when houses have not sufficient energy supply from microgrid\n    prs = price;\n    takeVol = vol.findMin(posBackup);\n    posBackup -= takeVol;\n    wallet = wallet.clearMoneyTransfer(takeVol*prs,msg.sender, address(this));\n  }\n}\n",
  "sourcePath": "C:\\Users\\qianc\\Documents\\Thesis\\Code\\SimpleMonitor\\contracts\\Grid.sol",
  "compiler": {
    "name": "solc",
    "version": "0.4.18+commit.9cf6e910.Emscripten.clang"
  },
  "schemaVersion": "1.0.1",
  "updatedAt": "2017-11-26T15:56:44.904Z"
}