{
  "contractName": "SingleHouse",
  "abi": [
    {
      "constant": false,
      "inputs": [
        {
          "name": "giveoutvol",
          "type": "uint256"
        }
      ],
      "name": "goNoGo",
      "outputs": [
        {
          "name": "",
          "type": "uint256"
        }
      ],
      "payable": false,
      "stateMutability": "nonpayable",
      "type": "function"
    },
    {
      "constant": true,
      "inputs": [],
      "name": "getWallet",
      "outputs": [
        {
          "name": "",
          "type": "int256"
        }
      ],
      "payable": false,
      "stateMutability": "view",
      "type": "function"
    },
    {
      "constant": false,
      "inputs": [
        {
          "name": "adr",
          "type": "address"
        }
      ],
      "name": "getSortedHInfo",
      "outputs": [
        {
          "name": "consum",
          "type": "uint256"
        },
        {
          "name": "rank",
          "type": "uint256"
        },
        {
          "name": "tot",
          "type": "uint256"
        },
        {
          "name": "updated",
          "type": "bool"
        }
      ],
      "payable": false,
      "stateMutability": "nonpayable",
      "type": "function"
    },
    {
      "constant": false,
      "inputs": [],
      "name": "getSortedInfo",
      "outputs": [
        {
          "name": "consum",
          "type": "uint256"
        },
        {
          "name": "rank",
          "type": "uint256"
        },
        {
          "name": "tot",
          "type": "uint256"
        },
        {
          "name": "updated",
          "type": "bool"
        }
      ],
      "payable": false,
      "stateMutability": "nonpayable",
      "type": "function"
    },
    {
      "constant": false,
      "inputs": [],
      "name": "buyExtra",
      "outputs": [],
      "payable": false,
      "stateMutability": "nonpayable",
      "type": "function"
    },
    {
      "constant": false,
      "inputs": [
        {
          "name": "adrP",
          "type": "address"
        }
      ],
      "name": "addConnectedPV",
      "outputs": [],
      "payable": false,
      "stateMutability": "nonpayable",
      "type": "function"
    },
    {
      "constant": false,
      "inputs": [
        {
          "name": "consum",
          "type": "uint256"
        }
      ],
      "name": "setConsumption",
      "outputs": [],
      "payable": false,
      "stateMutability": "nonpayable",
      "type": "function"
    },
    {
      "constant": false,
      "inputs": [],
      "name": "getConsumption",
      "outputs": [
        {
          "name": "consum",
          "type": "uint256"
        },
        {
          "name": "consumAt",
          "type": "uint256"
        }
      ],
      "payable": false,
      "stateMutability": "nonpayable",
      "type": "function"
    },
    {
      "constant": false,
      "inputs": [
        {
          "name": "adrB",
          "type": "address"
        }
      ],
      "name": "addConnectedBattery",
      "outputs": [],
      "payable": false,
      "stateMutability": "nonpayable",
      "type": "function"
    },
    {
      "constant": false,
      "inputs": [],
      "name": "sortPriceList",
      "outputs": [],
      "payable": false,
      "stateMutability": "nonpayable",
      "type": "function"
    },
    {
      "constant": false,
      "inputs": [
        {
          "name": "adr",
          "type": "address"
        }
      ],
      "name": "setGridAdr",
      "outputs": [],
      "payable": false,
      "stateMutability": "nonpayable",
      "type": "function"
    },
    {
      "constant": false,
      "inputs": [
        {
          "name": "adr",
          "type": "address"
        }
      ],
      "name": "getSortedPosition",
      "outputs": [
        {
          "name": "",
          "type": "uint256"
        }
      ],
      "payable": false,
      "stateMutability": "nonpayable",
      "type": "function"
    },
    {
      "constant": false,
      "inputs": [],
      "name": "askForPrice",
      "outputs": [],
      "payable": false,
      "stateMutability": "nonpayable",
      "type": "function"
    },
    {
      "constant": false,
      "inputs": [
        {
          "name": "a",
          "type": "uint256"
        }
      ],
      "name": "getConnectPVAddress",
      "outputs": [
        {
          "name": "",
          "type": "address"
        }
      ],
      "payable": false,
      "stateMutability": "nonpayable",
      "type": "function"
    },
    {
      "constant": true,
      "inputs": [],
      "name": "Admin",
      "outputs": [
        {
          "name": "",
          "type": "address"
        }
      ],
      "payable": false,
      "stateMutability": "view",
      "type": "function"
    },
    {
      "inputs": [
        {
          "name": "adr",
          "type": "address"
        }
      ],
      "payable": false,
      "stateMutability": "nonpayable",
      "type": "constructor"
    },
    {
      "anonymous": false,
      "inputs": [
        {
          "indexed": false,
          "name": "adr",
          "type": "address"
        },
        {
          "indexed": false,
          "name": "consum",
          "type": "uint256"
        },
        {
          "indexed": false,
          "name": "consumAt",
          "type": "uint256"
        }
      ],
      "name": "ConsumptionLog",
      "type": "event"
    },
    {
      "anonymous": false,
      "inputs": [
        {
          "indexed": false,
          "name": "confMod",
          "type": "string"
        },
        {
          "indexed": false,
          "name": "statusAt",
          "type": "uint256"
        }
      ],
      "name": "ConfigurationLog",
      "type": "event"
    },
    {
      "anonymous": false,
      "inputs": [
        {
          "indexed": false,
          "name": "adrFrom",
          "type": "address"
        },
        {
          "indexed": false,
          "name": "adrTo",
          "type": "address"
        },
        {
          "indexed": false,
          "name": "eVol",
          "type": "uint256"
        },
        {
          "indexed": false,
          "name": "transferAt",
          "type": "uint256"
        }
      ],
      "name": "EnergyTransferLog",
      "type": "event"
    }
  ],
  "bytecode": "0x606060405260038054600160a060020a031916905561012c600455341561002557600080fd5b6040516020806111468339810160405280805160018054600160a060020a03928316600160a060020a03199182161790915560008054339093169290911691909117905550506110cc8061007a6000396000f3006060604052600436106100c15763ffffffff60e060020a6000350416630ff3728281146100c657806313299604146100ee5780631628ce6c1461010157806338a3528c1461014c5780633acca96d1461015f57806341977cf5146101745780635a500ecc146101935780638a5cb1b6146101a95780638ad5366f146101d45780638b874f72146101f35780638d646b1114610206578063b148f82b14610225578063c974602914610244578063e7e2741014610257578063ff1b636d14610289575b600080fd5b34156100d157600080fd5b6100dc60043561029c565b60405190815260200160405180910390f35b34156100f957600080fd5b6100dc6104f4565b341561010c57600080fd5b610120600160a060020a03600435166104fb565b604051938452602084019290925260408084019190915290151560608301526080909101905180910390f35b341561015757600080fd5b61012061055b565b341561016a57600080fd5b610172610578565b005b341561017f57600080fd5b610172600160a060020a03600435166106c3565b341561019e57600080fd5b61017260043561077f565b34156101b457600080fd5b6101bc61080e565b60405191825260208201526040908101905180910390f35b34156101df57600080fd5b610172600160a060020a036004351661082f565b34156101fe57600080fd5b6101726108ec565b341561021157600080fd5b610172600160a060020a0360043516610b19565b341561023057600080fd5b6100dc600160a060020a0360043516610b50565b341561024f57600080fd5b610172610ba5565b341561026257600080fd5b61026d600435610dbd565b604051600160a060020a03909116815260200160405180910390f35b341561029457600080fd5b61026d610de9565b6000338173__AdrLib________________________________6354859436600984846040516020015260405160e060020a63ffffffff85160281526004810192909252600160a060020a0316602482015260440160206040518083038186803b151561030757600080fd5b6102c65a03f4151561031857600080fd5b50505060405180519050806103ac575073__AdrLib________________________________635485943660088460006040516020015260405160e060020a63ffffffff85160281526004810192909252600160a060020a0316602482015260440160206040518083038186803b151561039057600080fd5b6102c65a03f415156103a157600080fd5b505050604051805190505b15156103b757600080fd5b60055473__TransactLib___________________________63bc2e368c90918660006040516020015260405160e060020a63ffffffff85160281526004810192909252602482015260440160206040518083038186803b151561041957600080fd5b6102c65a03f4151561042a57600080fd5b50505060405180519050905060055473__TransactLib___________________________639e5fd0a99091833060006040516020015260405160e060020a63ffffffff861602815260048101939093526024830191909152600160a060020a0316604482015260640160206040518083038186803b15156104aa57600080fd5b6102c65a03f415156104bb57600080fd5b505050604051805160055550600160a060020a0382166000908152600c6020526040902054600680549183029091039055915050919050565b6006545b90565b6005546000808061050b85610b50565b600354909350600160a060020a0316156105305760095460085401600101915061053a565b6009546008540191505b42600454600b5401101561055057506000610554565b5060015b9193509193565b60008060008061056a336104fb565b935093509350935090919293565b60035460009081908190600160a060020a0316151561059657600080fd5b600060055411156106be57600354600554600160a060020a0390911690636e2855449060006040516040015260405160e060020a63ffffffff841602815260048101919091526024016040805180830381600087803b15156105f757600080fd5b6102c65a03f1151561060857600080fd5b5050506040518051906020018051600554929550925073__TransactLib___________________________91639e5fd0a99150853060006040516020015260405160e060020a63ffffffff861602815260048101939093526024830191909152600160a060020a0316604482015260640160206040518083038186803b151561069057600080fd5b6102c65a03f415156106a157600080fd5b505050604051805160055550600680548483029081900390915591505b505050565b60005433600160a060020a03908116911614156100c15760088054600181016106ec838261100c565b5060009182526020909120018054600160a060020a031916600160a060020a0383161790557f34ff05936c7ffe85555df53a7bf1374ed025703c493a74c4ce3316646f950e1642604051602081019190915260408082526012818301527f5056206c696e6b656420746f20486f757365000000000000000000000000000060608301526080909101905180910390a15b50565b60015433600160a060020a03908116911614156100c15760058190554260078190556001547f93e0cabaa551645c58979b9f1e87af3e09f708241c9bdd6468e581ad0651692691600160a060020a039091169083906040518084600160a060020a0316600160a060020a03168152602001838152602001828152602001935050505060405180910390a161077c565b60008060045480600754014210156100c15760055492506007549150509091565b60005433600160a060020a03908116911614156100c1576009805460018101610858838261100c565b5060009182526020909120018054600160a060020a031916600160a060020a0383161790557f34ff05936c7ffe85555df53a7bf1374ed025703c493a74c4ce3316646f950e1642604051602081019190915260408082526017818301527f42617474657279206c696e6b656420746f20486f75736500000000000000000060608301526080909101905180910390a161077c565b60008060008060006108fc610df8565b600954600854019350600092505b83831015610a0c5773__SortLib_______________________________63f27da568600a60006040516020015260405160e060020a63ffffffff8416028152600481019190915260240160206040518083038186803b151561096b57600080fd5b6102c65a03f4151561097c57600080fd5b50505060405180519050945061099783600186030386610fbf565b73__SortLib_______________________________6343168c1b600a8760405160e060020a63ffffffff85160281526004810192909252602482015260440160006040518083038186803b15156109ed57600080fd5b6102c65a03f415156109fe57600080fd5b50506001909301925061090a565b600354600160a060020a031615610b125750506003546000908190600160a060020a03166398d5fdca82604051604001526040518163ffffffff1660e060020a0281526004016040805180830381600087803b1515610a6a57600080fd5b6102c65a03f11515610a7b57600080fd5b50505060405180519060200180519193509091506040905080519081016040908152838252821515602080840191909152600354600160a060020a03166000908152600c909152208151815560208201516001909101805491151560ff19909216919091179055506003546000858152600d602052604090208054600160a060020a031916600160a060020a039092169190911790555b5050505050565b60005433600160a060020a03908116911614156100c15760038054600160a060020a031916600160a060020a03831617905561077c565b6000805b60095460085401600101811015610b9a576000818152600d6020526040902054600160a060020a0384811691161415610b9257806001019150610b9f565b600101610b54565b600091505b50919050565b600080805b600854811015610cad576008805482908110610bc257fe5b6000918252602082200154600160a060020a0316906398d5fdca90604051604001526040518163ffffffff1660e060020a0281526004016040805180830381600087803b1515610c1157600080fd5b6102c65a03f11515610c2257600080fd5b5050506040518051906020018051919450909250604090508051908101604052838152821515602082015260088054600c9160009185908110610c6157fe5b6000918252602080832090910154600160a060020a0316835282019290925260400190208151815560208201516001918201805460ff1916911515919091179055919091019050610baa565b5060005b600954811015610db4576009805482908110610cc957fe5b6000918252602082200154600160a060020a031690632fbc0bf190604051604001526040518163ffffffff1660e060020a0281526004016040805180830381600087803b1515610d1857600080fd5b6102c65a03f11515610d2957600080fd5b5050506040518051906020018051919450909250604090508051908101604052838152821515602082015260098054600c9160009185908110610d6857fe5b6000918252602080832090910154600160a060020a0316835282019290925260400190208151815560208201516001918201805460ff1916911515919091179055919091019050610cb1565b505042600b5550565b6000600882815481101515610dce57fe5b600091825260209091200154600160a060020a031692915050565b600054600160a060020a031681565b60095460085460009101610e0d600a82611030565b50600090505b600854811015610ee057600c6000600883815481101515610e3057fe5b6000918252602080832090910154600160a060020a031683528201929092526040019020600a805483908110610e6257fe5b6000918252602090912082546002909202019081556001918201549101805460ff191660ff90921615159190911790556008805482908110610ea057fe5b6000918252602080832090910154838352600d90915260409091208054600160a060020a031916600160a060020a03909216919091179055600101610e13565b506008545b600a5481101561077c57600c600060096008805490508403815481101515610f0957fe5b6000918252602080832090910154600160a060020a031683528201929092526040019020600a805483908110610f3b57fe5b6000918252602090912082546002909202019081556001918201549101805460ff191660ff90921615159190911790556008546009805490918303908110610f7f57fe5b6000918252602080832090910154838352600d90915260409091208054600160a060020a031916600160a060020a03909216919091179055600101610ee5565b60008282146106be57506000918252600d6020526040808320805492845292208054600160a060020a03908116600160a060020a0319808516919091179094558154921691909216179055565b8154818355818115116106be576000838152602090206106be91810190830161105c565b8154818355818115116106be576002028160020283600052602060002091820191016106be919061107a565b6104f891905b808211156110765760008155600101611062565b5090565b6104f891905b80821115611076576000815560018101805460ff191690556002016110805600a165627a7a7230582011f4a5ba5b8cc6ac5152020a72ceaaa6a3ee15e3c1d2fc2557a0a71c36b2df040029",
  "source": "pragma solidity ^0.4.4;\r\n\r\nimport \"./SortLib.sol\";\r\nimport \"./AdrLib.sol\";\r\nimport \"./TransactLib.sol\";\r\nimport \"./IPV.sol\";\r\nimport \"./IGrid.sol\";\r\nimport \"./IBattery.sol\";\r\nimport \"./IHouse.sol\";\r\nimport \"./GeneralDevice.sol\";\r\n\r\ncontract SingleHouse is GeneralDevice, IHouse {\r\n  \r\n  // one contract is associated to one particular House in the network.\r\n\r\n  using AdrLib for address[];\r\n  using TransactLib for uint;\r\n\r\n  //uint    consumTimeOut = 5 minutes;\r\n\r\n  uint    consumStatusAt;           // timestamp of the update (consumption)\r\n  address[] connectedPV;            // List of contract address of connected PV\r\n  address[] connectedBattery;       // List of contract address of connected batteries\r\n\r\n  // may be splited into another contract\r\n\r\n  /*struct PriceTF {\r\n    uint  prs;\r\n    bool  updated;\r\n  }*/\r\n\r\n  using SortLib for SortLib.PriceTF[];\r\n  SortLib.PriceTF[] prepPriceQueryInfo;\r\n\r\n  uint    lastPriceQueryAt;\r\n\r\n  mapping(address=>SortLib.PriceTF) priceQueryInfo;\r\n  mapping(uint=>address) sortedPriceQueryInfo;\r\n  \r\n// ======= Modifiers =======\r\n  \r\n\r\n  modifier connectedPVOnly (address adrP) {\r\n    if (connectedPV.AssertInside(adrP)) {\r\n      _;\r\n    } else {\r\n      revert();\r\n    }\r\n  }\r\n\r\n  modifier connectedBatteryOnly (address adrB) {\r\n    if (connectedBattery.AssertInside(adrB)) {\r\n      _;\r\n    } else {\r\n      revert();\r\n    }\r\n  }\r\n\r\n  modifier timed (uint allowedTimeOut) {\r\n    if(now < consumStatusAt + allowedTimeOut) {\r\n      _;\r\n    } else {\r\n      revert();\r\n    }\r\n  }\r\n\r\n// ======= Event Logs =======\r\n  event ConsumptionLog(address adr, uint consum, uint consumAt);\r\n  event ConfigurationLog(string confMod, uint statusAt);\r\n  event EnergyTransferLog(address adrFrom, address adrTo, uint eVol, uint transferAt);\r\n\r\n// ======= Basic Functionalities =======\r\n\r\n  // --- Upon contract creation and configuration ---\r\n\r\n  function SingleHouse (address adr) GeneralDevice(adr) { }\r\n  \r\n  /*function setGridAdr(address adr) adminOnly external {\r\n    grid = adr;\r\n  }*/\r\n  \r\n  function addConnectedPV(address adrP) adminOnly external {\r\n    connectedPV.push(adrP);\r\n    ConfigurationLog(\"PV linked to House\",now);\r\n  }\r\n\r\n  function addConnectedBattery(address adrB) adminOnly external {\r\n    connectedBattery.push(adrB);\r\n    ConfigurationLog(\"Battery linked to House\",now);\r\n  }\r\n\r\n  // --- Regular usage ---\r\n\r\n  function setConsumption(uint consum) ownerOnly {\r\n    consumption = consum;\r\n    consumStatusAt = now;\r\n    ConsumptionLog(owner, consumption, consumStatusAt);\r\n  }\r\n\r\n  function getConsumption()  external timed(consumTimeOut) returns (uint consum, uint consumAt) { //\r\n    consum = consumption;\r\n    consumAt = consumStatusAt;\r\n  }\r\n\r\n  // \r\n\r\n  function askForPrice() {\r\n    // House query price info to all the connected PV/Battery. \r\n    // If the house is connected to grid (most of the time), the price of Grid will be automatically added to the end of the sorted list.\r\n    uint tP = 0;\r\n    bool tF = false;\r\n    for (uint i = 0; i < connectedPV.length; i++) {\r\n      (tP,tF) = IPV(connectedPV[i]).getPrice();\r\n      priceQueryInfo[connectedPV[i]] = SortLib.PriceTF(tP,tF);\r\n    }\r\n    for (i = 0; i < connectedBattery.length; i++) {\r\n      (tP,tF) = IBattery(connectedBattery[i]).getSalePrice();\r\n      priceQueryInfo[connectedBattery[i]] = SortLib.PriceTF(tP,tF);\r\n    }\r\n    lastPriceQueryAt = now;\r\n  }\r\n\r\n  //------------------------------\r\n  // to Sort the received list of Price (from PV and Battery)\r\n  //------------------------------\r\n  \r\n\r\n  function sortPriceList() {\r\n    createPriceList();\r\n    uint maxTemp;\r\n    uint totalLength = connectedPV.length + connectedBattery.length;\r\n    for (uint i = 0; i < totalLength; i++) {\r\n      maxTemp = prepPriceQueryInfo.maxStruct();\r\n      swap(totalLength-1-i,maxTemp);\r\n      prepPriceQueryInfo.del(maxTemp);\r\n    }\r\n    // if the grid is connected -> add the price from the grid to the end of the sorted list \r\n    if (grid != 0x0) {\r\n      uint tP = 0;\r\n      bool tF = false;\r\n      (tP,tF) = IGrid(grid).getPrice();\r\n      priceQueryInfo[grid] = SortLib.PriceTF(tP,tF);\r\n      //setPriceQueryInfo(grid,tP,tF);\r\n      sortedPriceQueryInfo[totalLength] = grid;\r\n    }\r\n  }\r\n\r\n  function createPriceList() private {\r\n    prepPriceQueryInfo.length = connectedPV.length + connectedBattery.length;\r\n    //sortedPriceQueryInfo.length = prepPriceQueryInfo.length; => sortedPQI is using mapping now\r\n    for (uint i = 0; i < connectedPV.length; i++) {\r\n      prepPriceQueryInfo[i] = priceQueryInfo[connectedPV[i]];\r\n      sortedPriceQueryInfo[i] = connectedPV[i];\r\n    }\r\n    for (i = connectedPV.length; i < prepPriceQueryInfo.length; i++) {\r\n      prepPriceQueryInfo[i] = priceQueryInfo[connectedBattery[i-connectedPV.length]];\r\n      sortedPriceQueryInfo[i] = connectedBattery[i-connectedPV.length];\r\n    }\r\n  }\r\n\r\n  function swap (uint _id1, uint _id2) private {\r\n    if (_id1 != _id2) {\r\n      address temp;\r\n      temp = sortedPriceQueryInfo[_id1];\r\n      sortedPriceQueryInfo[_id1] = sortedPriceQueryInfo[_id2];\r\n      sortedPriceQueryInfo[_id2] = temp;   \r\n    }\r\n  }\r\n\r\n  //------------------------------\r\n  // Once sorted, actively send to all the connected devices.\r\n  //------------------------------\r\n\r\n  function getSortedPosition (address adr) returns (uint) { // should be private, here the \"private\" is temporarily removed due to testing\r\n    //require(adr != 0x0);      // Sometimes with this line, there will be error in the configuration.js test... sometimes not.... sometimes need to _migrate_ twice to eliminate the error.... Don't know why\r\n    for (uint i=0; i<connectedPV.length + connectedBattery.length+1; i++) {\r\n      if (adr == sortedPriceQueryInfo[i]) {\r\n        return (i+1);\r\n      }\r\n    }\r\n    return 0;\r\n  }\r\n\r\n  function getSortedInfo() external returns(uint consum, uint rank, uint tot, bool updated) {\r\n    return  getSortedHInfo(msg.sender);\r\n  }\r\n\r\n  function getSortedHInfo(address adr) returns(uint consum, uint rank, uint tot, bool updated) {  // should be private, here the \"private\" is temporarily removed due to testing\r\n    //address adr = msg.sender;\r\n    consum = consumption;\r\n    rank = getSortedPosition(adr);\r\n    if (grid != 0x0) {\r\n      tot = connectedPV.length + connectedBattery.length+1;\r\n    } else {\r\n      tot = connectedPV.length + connectedBattery.length;\r\n    }\r\n    if (lastPriceQueryAt + consumTimeOut < now) {\r\n      updated = false;    // The house may be inactive for a while, so the list stored is outdated.\r\n    } else {\r\n      updated = true;      \r\n    }\r\n  }\r\n\r\n  // ------------Functions used in transaction------------------\r\n  function goNoGo(uint giveoutvol) returns (uint) {\r\n    address adrDevice = msg.sender;\r\n    uint takeoutvol;\r\n    require(connectedBattery.AssertInside(adrDevice) || connectedPV.AssertInside(adrDevice));\r\n    takeoutvol = consumption.findMin(giveoutvol);\r\n    consumption = consumption.clearEnergyTransfer(takeoutvol, address(this));\r\n    //EnergyTransferLog(adrDevice,address(this), takeoutvol, consumption);\r\n    //wallet = wallet.clearMoneyTransfer(-int(takeoutvol*priceQueryInfo[adrDevice].prs), adrDevice);\r\n    wallet -= int(takeoutvol*priceQueryInfo[adrDevice].prs);\r\n    return (takeoutvol); \r\n  }\r\n\r\n  function buyExtra() {\r\n    // when houses still have extra needs...\r\n    uint whatDeviceAccept;\r\n    uint receivedMoney;\r\n    uint unitPrs;\r\n    require(grid != 0x0);\r\n    if (consumption > 0) {\r\n      (whatDeviceAccept, unitPrs) = IGrid(grid).goExtra(consumption);\r\n      consumption = consumption.clearEnergyTransfer(whatDeviceAccept, address(this));\r\n      receivedMoney = whatDeviceAccept*unitPrs;\r\n      wallet -= int(receivedMoney);\r\n    }\r\n  }\r\n\r\n\r\n  // ------------Functions used in testing------------------\r\n/*\r\n  function getSortedPriceList (uint _id) returns (address) {\r\n    return sortedPriceQueryInfo[_id];\r\n  }\r\n\r\n  function getAskedPrice(address adr) returns (uint,bool) {\r\n    return (priceQueryInfo[adr].prs,priceQueryInfo[adr].updated) ;\r\n  }\r\n\r\n  function askForPricePV(uint i) returns (uint,bool) {\r\n    return IPV(connectedPV[i]).getPrice();\r\n  }\r\n\r\n  function askForPriceB(uint i) returns (uint,bool) {\r\n    return IBattery(connectedBattery[i]).getSalePrice();\r\n  }\r\n\r\n  function getOwnerAdmin() returns (address, address){\r\n    return (owner,Admin);\r\n  }\r\n\r\n  function getConnectedPVCount() returns (uint){\r\n    return connectedPV.length;\r\n  }\r\n\r\n  function getconnectedBatteryCount() returns (uint){\r\n    return connectedBattery.length;\r\n  }\r\n\r\n  function getConnectPVAddress(uint a) returns (address) {\r\n    if (a<connectedPV.length) {\r\n      return connectedPV[a];\r\n    } else {\r\n      return 0x0;\r\n    }\r\n  }\r\n\r\n  function getconnectedBatteryAddress(uint a) returns (address) {\r\n    if (a<connectedBattery.length) {\r\n      return connectedBattery[a];\r\n    } else {\r\n      return 0x0;\r\n   \r\n    }\r\n  }\r\n  */\r\n\r\n  function getConnectPVAddress(uint a) returns (address) {\r\n      return connectedPV[a];\r\n  }\r\n}\r\n",
  "sourcePath": "C:\\Users\\qianc\\Documents\\Thesis\\Code\\SimpleMonitor\\contracts\\SingleHouse.sol",
  "compiler": {
    "name": "solc",
    "version": "0.4.18+commit.9cf6e910.Emscripten.clang"
  },
  "schemaVersion": "1.0.1",
  "updatedAt": "2017-11-26T10:01:55.577Z"
}