{
  "contractName": "SingleBattery",
  "abi": [
    {
      "constant": true,
      "inputs": [],
      "name": "getVolumeCapacity",
      "outputs": [
        {
          "name": "vol",
          "type": "uint256"
        },
        {
          "name": "volAt",
          "type": "uint256"
        },
        {
          "name": "cap",
          "type": "uint256"
        }
      ],
      "payable": false,
      "stateMutability": "view",
      "type": "function"
    },
    {
      "constant": false,
      "inputs": [
        {
          "name": "giveoutvol",
          "type": "uint256"
        }
      ],
      "name": "goNoGo",
      "outputs": [
        {
          "name": "",
          "type": "uint256"
        }
      ],
      "payable": false,
      "stateMutability": "nonpayable",
      "type": "function"
    },
    {
      "constant": true,
      "inputs": [],
      "name": "getSortedPrice",
      "outputs": [
        {
          "name": "consum",
          "type": "uint256"
        },
        {
          "name": "rank",
          "type": "uint256"
        },
        {
          "name": "tot",
          "type": "uint256"
        },
        {
          "name": "updated",
          "type": "bool"
        }
      ],
      "payable": false,
      "stateMutability": "view",
      "type": "function"
    },
    {
      "constant": true,
      "inputs": [],
      "name": "getSalePrice",
      "outputs": [
        {
          "name": "prs",
          "type": "uint256"
        },
        {
          "name": "updatedOrNot",
          "type": "bool"
        }
      ],
      "payable": false,
      "stateMutability": "view",
      "type": "function"
    },
    {
      "constant": false,
      "inputs": [
        {
          "name": "vol",
          "type": "uint256"
        }
      ],
      "name": "goExcess",
      "outputs": [
        {
          "name": "takeVol",
          "type": "uint256"
        },
        {
          "name": "prs",
          "type": "uint256"
        }
      ],
      "payable": false,
      "stateMutability": "nonpayable",
      "type": "function"
    },
    {
      "constant": false,
      "inputs": [],
      "name": "askForRank",
      "outputs": [],
      "payable": false,
      "stateMutability": "nonpayable",
      "type": "function"
    },
    {
      "constant": false,
      "inputs": [],
      "name": "sortRank",
      "outputs": [],
      "payable": false,
      "stateMutability": "nonpayable",
      "type": "function"
    },
    {
      "constant": false,
      "inputs": [
        {
          "name": "_id",
          "type": "uint256"
        }
      ],
      "name": "initiateTransaction",
      "outputs": [
        {
          "name": "",
          "type": "uint256"
        },
        {
          "name": "",
          "type": "uint256"
        }
      ],
      "payable": false,
      "stateMutability": "nonpayable",
      "type": "function"
    },
    {
      "constant": false,
      "inputs": [
        {
          "name": "vol",
          "type": "uint256"
        }
      ],
      "name": "setVolume",
      "outputs": [],
      "payable": false,
      "stateMutability": "nonpayable",
      "type": "function"
    },
    {
      "constant": false,
      "inputs": [
        {
          "name": "v",
          "type": "uint256"
        }
      ],
      "name": "setBuyVolume",
      "outputs": [],
      "payable": false,
      "stateMutability": "nonpayable",
      "type": "function"
    },
    {
      "constant": false,
      "inputs": [
        {
          "name": "_id",
          "type": "uint256"
        }
      ],
      "name": "getSortedRank",
      "outputs": [
        {
          "name": "adr",
          "type": "address"
        },
        {
          "name": "consum",
          "type": "uint256"
        },
        {
          "name": "rank",
          "type": "uint256"
        },
        {
          "name": "tot",
          "type": "uint256"
        }
      ],
      "payable": false,
      "stateMutability": "nonpayable",
      "type": "function"
    },
    {
      "constant": false,
      "inputs": [],
      "name": "getBuyVol",
      "outputs": [
        {
          "name": "",
          "type": "uint256"
        }
      ],
      "payable": false,
      "stateMutability": "nonpayable",
      "type": "function"
    },
    {
      "constant": false,
      "inputs": [
        {
          "name": "adr",
          "type": "address"
        }
      ],
      "name": "setGridAdr",
      "outputs": [],
      "payable": false,
      "stateMutability": "nonpayable",
      "type": "function"
    },
    {
      "constant": false,
      "inputs": [],
      "name": "sortPrice",
      "outputs": [],
      "payable": false,
      "stateMutability": "nonpayable",
      "type": "function"
    },
    {
      "constant": false,
      "inputs": [
        {
          "name": "a",
          "type": "uint256"
        },
        {
          "name": "adr",
          "type": "address"
        }
      ],
      "name": "addConnectedDevice",
      "outputs": [],
      "payable": false,
      "stateMutability": "nonpayable",
      "type": "function"
    },
    {
      "constant": false,
      "inputs": [],
      "name": "askForPrice",
      "outputs": [],
      "payable": false,
      "stateMutability": "nonpayable",
      "type": "function"
    },
    {
      "constant": false,
      "inputs": [
        {
          "name": "prsSale",
          "type": "uint256"
        },
        {
          "name": "prsBuy",
          "type": "uint256"
        }
      ],
      "name": "setPrice",
      "outputs": [],
      "payable": false,
      "stateMutability": "nonpayable",
      "type": "function"
    },
    {
      "constant": true,
      "inputs": [],
      "name": "Admin",
      "outputs": [
        {
          "name": "",
          "type": "address"
        }
      ],
      "payable": false,
      "stateMutability": "view",
      "type": "function"
    },
    {
      "inputs": [
        {
          "name": "adr",
          "type": "address"
        },
        {
          "name": "cap",
          "type": "uint256"
        }
      ],
      "payable": false,
      "stateMutability": "nonpayable",
      "type": "constructor"
    },
    {
      "anonymous": false,
      "inputs": [
        {
          "indexed": false,
          "name": "adr",
          "type": "address"
        },
        {
          "indexed": false,
          "name": "vol",
          "type": "uint256"
        },
        {
          "indexed": false,
          "name": "volAt",
          "type": "uint256"
        }
      ],
      "name": "VolLog",
      "type": "event"
    },
    {
      "anonymous": false,
      "inputs": [
        {
          "indexed": false,
          "name": "updateAt",
          "type": "uint256"
        }
      ],
      "name": "PriceUpdate",
      "type": "event"
    }
  ],
  "bytecode": "0x606060405260038054600160a060020a031916905561012c600a819055600d55341561002a57600080fd5b60405160408061138e833981016040528080519190602001805160018054600160a060020a03958616600160a060020a0319918216179091556000805433909616959091169490941790935550506007556113048061008a6000396000f3006060604052600436106100e25763ffffffff60e060020a6000350416630e00c31681146100e75780630ff372821461011e5780631b45f0e0146101465780632fbc0bf11461018557806335f7f5e2146101b25780633d7224dc146101e05780633d859507146101f55780633fd2007d146102085780634559dcdc1461021e5780636a95841b146102345780636b6082231461024a57806379c19df01461029d5780638d646b11146102b0578063aac12b4b146102cf578063bfd11903146102e2578063c974602914610304578063f7d9757714610317578063ff1b636d14610330575b600080fd5b34156100f257600080fd5b6100fa61035f565b60405180848152602001838152602001828152602001935050505060405180910390f35b341561012957600080fd5b61013460043561036f565b60405190815260200160405180910390f35b341561015157600080fd5b610159610574565b604051938452602084019290925260408084019190915290151560608301526080909101905180910390f35b341561019057600080fd5b610198610617565b604051918252151560208201526040908101905180910390f35b34156101bd57600080fd5b6101c860043561063c565b60405191825260208201526040908101905180910390f35b34156101eb57600080fd5b6101f361076a565b005b341561020057600080fd5b6101f3610984565b341561021357600080fd5b6101c86004356109ea565b341561022957600080fd5b6101f3600435610c5b565b341561023f57600080fd5b6101f3600435610ce9565b341561025557600080fd5b610260600435610d1d565b6040518085600160a060020a0316600160a060020a0316815260200184815260200183815260200182815260200194505050505060405180910390f35b34156102a857600080fd5b610134610dbc565b34156102bb57600080fd5b6101f3600160a060020a0360043516610dc3565b34156102da57600080fd5b6101f3610e07565b34156102ed57600080fd5b6101f3600435600160a060020a0360243516610f88565b341561030f57600080fd5b6101f3610ff4565b341561032257600080fd5b6101f36004356024356111ed565b341561033b57600080fd5b61034361124c565b604051600160a060020a03909116815260200160405180910390f35b600854600b546007549192909190565b600160009081526005602052338173__AdrLib________________________________632c2fc20e60008051602061129983398151915284846040516020015260405160e060020a63ffffffff85160281526004810192909252600160a060020a0316602482015260440160206040518083038186803b15156103f157600080fd5b6102c65a03f4151561040257600080fd5b50505060405180519050806104245750600354600160a060020a038381169116145b151561042f57600080fd5b60095473__TransactLib___________________________63bc2e368c90918660006040516020015260405160e060020a63ffffffff85160281526004810192909252602482015260440160206040518083038186803b151561049157600080fd5b6102c65a03f415156104a257600080fd5b5050506040518051600880548201905560095490925073__TransactLib___________________________9150639e5fd0a990833060006040516020015260405160e060020a63ffffffff861602815260048101939093526024830191909152600160a060020a0316604482015260640160206040518083038186803b151561052a57600080fd5b6102c65a03f4151561053b57600080fd5b505050604051805160095550600160a060020a038216600090815260106020526040902054600680549183029091039055915050919050565b6009546000808073__SortPLib______________________________63c6742457601033846040516060015260405160e060020a63ffffffff85160281526004810192909252600160a060020a0316602482015260440160606040518083038186803b15156105e257600080fd5b6102c65a03f415156105f357600080fd5b50505060405180519060200180519060200180519697929691955090935090915050565b600e54600d54600c54600091429101101561063457506000610638565b5060015b9091565b600080600f5490508273__TransactLib___________________________63bc2e368c90916008546007540360006040516020015260405160e060020a63ffffffff85160281526004810192909252602482015260440160206040518083038186803b15156106aa57600080fd5b6102c65a03f415156106bb57600080fd5b50505060405180519050915060085473__TransactLib___________________________63994459079091843060006040516020015260405160e060020a63ffffffff861602815260048101939093526024830191909152600160a060020a0316604482015260640160206040518083038186803b151561073b57600080fd5b6102c65a03f4151561074c57600080fd5b50505060405180516008555060068054838302900390559092909150565b60008080808073__SortRLib______________________________63e6f37de9601460405160e060020a63ffffffff8416028152600481019190915260240160006040518083038186803b15156107c057600080fd5b6102c65a03f415156107d157600080fd5b505050600090505b6000805260056020526000805160206112b983398151915254811015610979576000805260056020526000805160206112b983398151915280548290811061081d57fe5b6000918252602082200154600160a060020a031690631b45f0e090604051608001526040518163ffffffff1660e060020a028152600401608060405180830381600087803b151561086d57600080fd5b6102c65a03f1151561087e57600080fd5b50505060405180519060200180519060200180519060200180519398509196509450909250508115610971576000805260056020526000805160206112b9833981519152805473__SortRLib______________________________9163ef61a1399160149190859081106108ee57fe5b600091825260209091200154600160a060020a031688888860405160e060020a63ffffffff88160281526004810195909552600160a060020a03909316602485015260448401919091526064830152608482015260a40160006040518083038186803b151561095c57600080fd5b6102c65a03f4151561096d57600080fd5b5050505b6001016107d9565b505042601855505050565b73__SortRLib______________________________63534e1918601460405160e060020a63ffffffff8416028152600481019190915260240160006040518083038186803b15156109d457600080fd5b6102c65a03f415156109e557600080fd5b505050565b6000806000806000806000806000610a018a610d1d565b6008549399509197509550935073__TransactLib___________________________9063bc2e368c908760006040516020015260405160e060020a63ffffffff85160281526004810192909252602482015260440160206040518083038186803b1515610a6d57600080fd5b6102c65a03f41515610a7e57600080fd5b50505060405180516000808052600560205290985073__AdrLib________________________________9150632c2fc20e906000805160206112b98339815191529089906040516020015260405160e060020a63ffffffff85160281526004810192909252600160a060020a0316602482015260440160206040518083038186803b1515610b0b57600080fd5b6102c65a03f41515610b1c57600080fd5b5050506040518051905015610c465785600160a060020a0316630ff372828860006040516020015260405160e060020a63ffffffff84160281526004810191909152602401602060405180830381600087803b1515610b7a57600080fd5b6102c65a03f11515610b8b57600080fd5b5050506040518051600880548290039055600e546006549194508402925073__TransactLib___________________________915063e2992d299083893060006040516020015260405160e060020a63ffffffff871602815260048101949094526024840192909252600160a060020a03908116604484015216606482015260840160206040518083038186803b1515610c2457600080fd5b6102c65a03f41515610c3557600080fd5b505050604051805160065550610c4b565b600091505b5094989497509395505050505050565b60015433600160a060020a03908116911614156100e257600881905542600b8190556001547fa8533a3e28bf00cd05018ed80847d3d6f170da084f6417da50798db7335ff9a091600160a060020a039091169083906040518084600160a060020a0316600160a060020a03168152602001838152602001828152602001935050505060405180910390a15b50565b60015433600160a060020a03908116911614156100e25760075460085482011115610d1357600080fd5b6009819055610ce6565b600080808073__SortRLib______________________________6391871092601487846040516080015260405160e060020a63ffffffff85160281526004810192909252602482015260440160806040518083038186803b1515610d8057600080fd5b6102c65a03f41515610d9157600080fd5b5050506040518051906020018051906020018051906020018051905093509350935093509193509193565b6009545b90565b60005433600160a060020a03908116911614156100e2576003805473ffffffffffffffffffffffffffffffffffffffff1916600160a060020a038316179055610ce6565b60008073__SortPLib______________________________6332a76998601060405160e060020a63ffffffff8416028152600481019190915260240160006040518083038186803b1515610e5a57600080fd5b6102c65a03f41515610e6b57600080fd5b5050600354600160a060020a0316159050610f845750506003546000908190600160a060020a03166398d5fdca82604051604001526040518163ffffffff1660e060020a0281526004016040805180830381600087803b1515610ecd57600080fd5b6102c65a03f11515610ede57600080fd5b5050506040518051906020018051600354929450925073__SortPLib______________________________9163c3af64529150601090600160a060020a0316858560405160e060020a63ffffffff87160281526004810194909452600160a060020a03909216602484015260448301521515606482015260840160006040518083038186803b1515610f6f57600080fd5b6102c65a03f41515610f8057600080fd5b5050505b5050565b60005433600160a060020a03908116911614156100e2576000828152600560205260409020805460018101610fbd838261125b565b506000918252602090912001805473ffffffffffffffffffffffffffffffffffffffff1916600160a060020a038316179055610f84565b6000808073__SortPLib______________________________63e61f7934601060405160e060020a63ffffffff8416028152600481019190915260240160006040518083038186803b151561104857600080fd5b6102c65a03f4151561105957600080fd5b505050600090505b60016000526005602052600080516020611299833981519152548110156111e457600160005260056020526000805160206112998339815191528054829081106110a757fe5b6000918252602082200154600160a060020a0316906398d5fdca90604051604001526040518163ffffffff1660e060020a0281526004016040805180830381600087803b15156110f657600080fd5b6102c65a03f1151561110757600080fd5b505050604051805190602001805160016000526005602052600080516020611299833981519152805493965090945073__SortPLib______________________________9263c3af64529250601091908590811061116157fe5b600091825260209091200154600160a060020a0316868660405160e060020a63ffffffff87160281526004810194909452600160a060020a03909216602484015260448301521515606482015260840160006040518083038186803b15156111c857600080fd5b6102c65a03f415156111d957600080fd5b505050600101611061565b50504260175550565b60015433600160a060020a03908116911614156100e257600e829055600f81905542600c8190557fae46785019700e30375a5d7b4f91e32f8060ef085111f896ebf889450aa2ab5a9060405190815260200160405180910390a1610f84565b600054600160a060020a031681565b8154818355818115116109e5576000838152602090206109e5918101908301610dc091905b808211156112945760008155600101611280565b509056001471eb6eb2c5e789fc3de43f8ce62938c7d1836ec861730447e2ada8fd81017b05b8ccbb9d4d8fb16ea74ce3c29a41f1b461fbdaff4714a0d9a8eb05499746bca165627a7a72305820d4b01dc6f2bc7b1de1761dafeaa9a94131e944f99ad3a05c0bdfb9a1e02f91bf0029",
  "source": "pragma solidity ^0.4.4;\r\n\r\nimport \"./IBattery.sol\";\r\nimport \"./IPV.sol\";\r\nimport \"./IGrid.sol\";\r\nimport \"./IHouse.sol\";\r\nimport \"./GeneralDevice.sol\";\r\n\r\nimport \"./SortRLib.sol\";\r\nimport \"./SortPLib.sol\"; \r\nimport \"./AdrLib.sol\"; \r\nimport \"./TransactLib.sol\";\r\n\r\n\r\n//For simplicity, we do not use the sorting functions here, as in our configuration, there is only one battery and there's only one PV connected.  \r\n\r\ncontract SingleBattery is GeneralDevice, IBattery {\r\n  \r\n  using AdrLib for address[];\r\n  using TransactLib for *;\r\n  using SortPLib for *;\r\n  using SortRLib for *;\r\n\r\n\r\n  uint    capacity;                 // Cap of the device\r\n  uint    currentVolume;            // Production of electricity\r\n  uint    buyVolume;                // Amount of electricity that this battery would like to buy. Will first participate in the supply competition \r\n                                    //and will be finally (anyway) fulfilled b either the network or from the grid...\r\n  uint    volTimeOut = 5 minutes;\r\n  uint    volStatusAt;              // timestamp of the update\r\n  \r\n  uint    priceStatusAt;            // timestamp of the update (price)\r\n  uint    priceTimeOut = 5 minutes;\r\n  uint    priceForSale;\r\n  uint    priceForBuy;              // lower than market price (ForExcessEnergy)\r\n   \r\n  SortPLib.PriceMap draftPriceMap;\r\n  SortRLib.RankMap draftRankMap;\r\n\r\n  uint    lastPriceQueryAt;\r\n  uint    lastRankingAt;\r\n\r\n// ======= Modifiers =======\r\n\r\n  modifier timed (uint initialTime, uint allowedTimeOut) {\r\n    if(now < initialTime + allowedTimeOut) {\r\n      _;\r\n    } else {\r\n      revert();\r\n    }\r\n  }\r\n\r\n// ======= Event Logs =======\r\n\r\n  event VolLog(address adr, uint vol, uint volAt);\r\n  //event ConfigurationLog(string confMod, uint statusAt);\r\n  event PriceUpdate(uint updateAt);\r\n\r\n// ======= Basic Functionalities =======\r\n\r\n  // --- 0. Upon contract creation and configuration ---\r\n\r\n  function SingleBattery (address adr,  uint cap) GeneralDevice(adr) {\r\n    capacity = cap;\r\n  }\r\n\r\n  function setVolume(uint vol) public ownerOnly {\r\n    // Can only be triggered once....Should be moved into the constructor...Once the initial volumne is set, can only be changed by energy trading.\r\n    currentVolume = vol;\r\n    volStatusAt = now;\r\n    VolLog(owner,vol,volStatusAt);\r\n  }\r\n\r\n  // --- 1. set and get the active purchase volume (if battery wants) and selling price every 15 min (or less) ---\r\n\r\n  function setPrice(uint prsSale, uint prsBuy) public ownerOnly {\r\n    priceForSale = prsSale;\r\n    priceForBuy = prsBuy;\r\n    priceStatusAt = now;\r\n    PriceUpdate(priceStatusAt);\r\n  }\r\n\r\n  function getSalePrice() public view returns (uint prs, bool updatedOrNot) { // connectedHouseOnly external\r\n    prs = priceForSale;\r\n    //prsAt = priceStatusAt;\r\n    if (priceStatusAt + priceTimeOut < now) {\r\n      updatedOrNot = false;\r\n    } else {\r\n      updatedOrNot = true;\r\n    }\r\n    //adr = owner;\r\n  }\r\n\r\n  function setBuyVolume(uint v) public ownerOnly {\r\n    require(currentVolume + v <= capacity);\r\n    buyVolume = v;\r\n  }\r\n\r\n  function getVolumeCapacity () external view returns (uint vol, uint volAt, uint cap) { // timed(initTime,volTimeOut) \r\n    vol = currentVolume;\r\n    volAt = volStatusAt;\r\n    cap = capacity;\r\n  }\r\n\r\n  // --- 2. Battery can be considered as a house if it wants to actively purchase energy. --- \r\n  // ---    Ask for connected PV / batteries / grid for price of electricity supply. --- \r\n  // ---    Sort the list of offers. --- \r\n\r\n  function askForPrice() {\r\n    // Battery query price info to all the connected PV/Battery. \r\n    uint tP = 0;\r\n    bool tF = false;\r\n    draftPriceMap.initPrsTable();\r\n    for (uint i = 0; i < connectedDevice[1].length; i++) {\r\n      (tP,tF) = IPV(connectedDevice[1][i]).getPrice();\r\n      draftPriceMap.addToPrsTable(connectedDevice[1][i],tP,tF);\r\n    }\r\n    lastPriceQueryAt = now;\r\n  }\r\n\r\n  function sortPrice() {\r\n    draftPriceMap.sortPrsTable();\r\n    // if the grid is connected -> add the price from the grid to the end of the sorted list \r\n    if (grid != 0x0) {\r\n      uint tP = 0;\r\n      bool tF = false;\r\n      (tP,tF) = IGrid(grid).getPrice();\r\n      draftPriceMap.addToPrsTable(grid,tP,tF);\r\n    }\r\n  }\r\n\r\n  function getSortedPrice() external view returns(uint consum, uint rank, uint tot, bool updated) {\r\n    consum = buyVolume;\r\n    (rank,tot,updated) = draftPriceMap.getPrsTable(msg.sender);\r\n  }\r\n\r\n  // --- 3. Battery can also provide energy to houses. --- \r\n  // ---    Sort the list of ranks. --- \r\n\r\n  function askForRank() {\r\n    uint consum;\r\n    uint rank;\r\n    uint tot;\r\n    bool updated;\r\n    draftRankMap.initRnkTable();\r\n    for (uint i = 0; i < connectedDevice[0].length; i++) {\r\n      (consum, rank, tot, updated) = IHouse(connectedDevice[0][i]).getSortedPrice();\r\n      if (updated) {\r\n        draftRankMap.addToRnkTable(connectedDevice[0][i],consum, rank, tot);\r\n      }\r\n    }\r\n    lastRankingAt = now;\r\n  }\r\n\r\n  function sortRank() {\r\n    draftRankMap.sortRnkTable();\r\n  }\r\n\r\n  function getSortedRank(uint _id) returns(address adr, uint consum, uint rank, uint tot) {\r\n    return draftRankMap.getSortedList(_id);\r\n  }\r\n\r\n  /*//  for test \r\n\r\n  function getDraftPrsMap(address adr) public view returns (uint, bool) {\r\n    return (draftPriceMap.prsTable[adr].prs, draftPriceMap.prsTable[adr].updated);\r\n  }\r\n\r\n  function getSrtList(uint a) public returns(address, uint, bool) { //address, uint, bool\r\n    return draftPriceMap.getSortedList(a);\r\n  }*/\r\n\r\n\r\n  // --- 4. PV/Battery/Grid asks Battery to confirm energy transaction ---\r\n\r\n// start transaction\r\n  function goNoGo(uint giveoutvol) returns (uint) {\r\n    address adrDevice = msg.sender;\r\n    uint takeoutvol;\r\n    require(connectedDevice[1].assertInside(adrDevice) || adrDevice == grid);\r\n    takeoutvol = buyVolume.findMin(giveoutvol);\r\n    currentVolume += takeoutvol;\r\n    buyVolume = buyVolume.clearEnergyTransfer(takeoutvol, address(this));\r\n    wallet -= int(takeoutvol*draftPriceMap.prsTable[adrDevice].prs);\r\n    return (takeoutvol); \r\n  }\r\n\r\n  function goExcess(uint vol) returns (uint takeVol, uint prs) {\r\n    prs = priceForBuy;\r\n    takeVol = vol.findMin(capacity-currentVolume);\r\n    currentVolume = currentVolume.clearExcessTransfer(takeVol, address(this));\r\n    wallet -= int(takeVol*prs);\r\n  }\r\n\r\n\r\n  function getBuyVol() returns (uint) {return buyVolume;}\r\n\r\n\r\n  \r\n  function initiateTransaction(uint _id) returns (uint, uint) {\r\n    uint giveoutVol;\r\n    address adr;\r\n    uint consum;\r\n    uint rank;\r\n    uint tot;\r\n\r\n    uint whatDeviceAccept;\r\n    uint receivedMoney;\r\n    //for (uint i = 0; i < rLength; i++) {\r\n      (adr,consum,rank,tot) = getSortedRank(_id);//sortedRankingInfo[_id];\r\n      giveoutVol = currentVolume.findMin(consum);\r\n      if (connectedDevice[0].assertInside(adr)) {\r\n        whatDeviceAccept = IHouse(adr).goNoGo(giveoutVol);\r\n        currentVolume -= whatDeviceAccept;\r\n        receivedMoney = whatDeviceAccept*priceForSale;\r\n        wallet = wallet.clearMoneyTransfer(receivedMoney,adr, address(this));\r\n      } else {\r\n        whatDeviceAccept = 0; \r\n      }\r\n      return(giveoutVol, whatDeviceAccept);\r\n    //}\r\n  }\r\n\r\n\r\n\r\n}\r\n",
  "sourcePath": "C:\\Users\\qianc\\Documents\\Thesis\\Code\\SimpleMonitor\\contracts\\SingleBattery.sol",
  "compiler": {
    "name": "solc",
    "version": "0.4.18+commit.9cf6e910.Emscripten.clang"
  },
  "schemaVersion": "1.0.1",
  "updatedAt": "2017-11-27T23:12:35.078Z"
}