{
  "contractName": "SingleBattery",
  "abi": [
    {
      "constant": false,
      "inputs": [],
      "name": "getTimerIndex",
      "outputs": [
        {
          "name": "",
          "type": "uint256"
        }
      ],
      "payable": false,
      "stateMutability": "nonpayable",
      "type": "function"
    },
    {
      "constant": false,
      "inputs": [
        {
          "name": "adr",
          "type": "address"
        }
      ],
      "name": "setTimerAdr",
      "outputs": [],
      "payable": false,
      "stateMutability": "nonpayable",
      "type": "function"
    },
    {
      "constant": true,
      "inputs": [],
      "name": "getVolumeCapacity",
      "outputs": [
        {
          "name": "vol",
          "type": "uint256"
        },
        {
          "name": "volAt",
          "type": "uint256"
        },
        {
          "name": "cap",
          "type": "uint256"
        }
      ],
      "payable": false,
      "stateMutability": "view",
      "type": "function"
    },
    {
      "constant": false,
      "inputs": [
        {
          "name": "giveoutvol",
          "type": "uint256"
        }
      ],
      "name": "goNoGo",
      "outputs": [
        {
          "name": "",
          "type": "uint256"
        }
      ],
      "payable": false,
      "stateMutability": "nonpayable",
      "type": "function"
    },
    {
      "constant": true,
      "inputs": [],
      "name": "getWallet",
      "outputs": [
        {
          "name": "",
          "type": "int256"
        }
      ],
      "payable": false,
      "stateMutability": "view",
      "type": "function"
    },
    {
      "constant": true,
      "inputs": [],
      "name": "getSortedPrice",
      "outputs": [
        {
          "name": "consum",
          "type": "uint256"
        },
        {
          "name": "rank",
          "type": "uint256"
        },
        {
          "name": "tot",
          "type": "uint256"
        },
        {
          "name": "updated",
          "type": "bool"
        }
      ],
      "payable": false,
      "stateMutability": "view",
      "type": "function"
    },
    {
      "constant": false,
      "inputs": [],
      "name": "getTimerStatus",
      "outputs": [
        {
          "name": "",
          "type": "uint256"
        }
      ],
      "payable": false,
      "stateMutability": "nonpayable",
      "type": "function"
    },
    {
      "constant": false,
      "inputs": [],
      "name": "sellEnergy",
      "outputs": [],
      "payable": false,
      "stateMutability": "nonpayable",
      "type": "function"
    },
    {
      "constant": true,
      "inputs": [],
      "name": "getSalePrice",
      "outputs": [
        {
          "name": "prs",
          "type": "uint256"
        },
        {
          "name": "updatedOrNot",
          "type": "bool"
        }
      ],
      "payable": false,
      "stateMutability": "view",
      "type": "function"
    },
    {
      "constant": false,
      "inputs": [
        {
          "name": "vol",
          "type": "uint256"
        }
      ],
      "name": "goExcess",
      "outputs": [
        {
          "name": "takeVol",
          "type": "uint256"
        },
        {
          "name": "prs",
          "type": "uint256"
        }
      ],
      "payable": false,
      "stateMutability": "nonpayable",
      "type": "function"
    },
    {
      "constant": false,
      "inputs": [],
      "name": "askForRank",
      "outputs": [],
      "payable": false,
      "stateMutability": "nonpayable",
      "type": "function"
    },
    {
      "constant": false,
      "inputs": [],
      "name": "sortRank",
      "outputs": [],
      "payable": false,
      "stateMutability": "nonpayable",
      "type": "function"
    },
    {
      "constant": false,
      "inputs": [
        {
          "name": "_id",
          "type": "uint256"
        }
      ],
      "name": "initiateTransaction",
      "outputs": [
        {
          "name": "",
          "type": "uint256"
        },
        {
          "name": "",
          "type": "uint256"
        }
      ],
      "payable": false,
      "stateMutability": "nonpayable",
      "type": "function"
    },
    {
      "constant": false,
      "inputs": [
        {
          "name": "vol",
          "type": "uint256"
        }
      ],
      "name": "setVolume",
      "outputs": [],
      "payable": false,
      "stateMutability": "nonpayable",
      "type": "function"
    },
    {
      "constant": false,
      "inputs": [
        {
          "name": "v",
          "type": "uint256"
        }
      ],
      "name": "setBuyVolume",
      "outputs": [],
      "payable": false,
      "stateMutability": "nonpayable",
      "type": "function"
    },
    {
      "constant": false,
      "inputs": [
        {
          "name": "_id",
          "type": "uint256"
        }
      ],
      "name": "getSortedRank",
      "outputs": [
        {
          "name": "adr",
          "type": "address"
        },
        {
          "name": "consum",
          "type": "uint256"
        },
        {
          "name": "rank",
          "type": "uint256"
        },
        {
          "name": "tot",
          "type": "uint256"
        }
      ],
      "payable": false,
      "stateMutability": "nonpayable",
      "type": "function"
    },
    {
      "constant": false,
      "inputs": [],
      "name": "getTimerAddress",
      "outputs": [
        {
          "name": "",
          "type": "address"
        }
      ],
      "payable": false,
      "stateMutability": "nonpayable",
      "type": "function"
    },
    {
      "constant": false,
      "inputs": [],
      "name": "getBuyVol",
      "outputs": [
        {
          "name": "",
          "type": "uint256"
        }
      ],
      "payable": false,
      "stateMutability": "nonpayable",
      "type": "function"
    },
    {
      "constant": false,
      "inputs": [
        {
          "name": "adr",
          "type": "address"
        }
      ],
      "name": "setGridAdr",
      "outputs": [],
      "payable": false,
      "stateMutability": "nonpayable",
      "type": "function"
    },
    {
      "constant": false,
      "inputs": [],
      "name": "sortPrice",
      "outputs": [],
      "payable": false,
      "stateMutability": "nonpayable",
      "type": "function"
    },
    {
      "constant": false,
      "inputs": [
        {
          "name": "a",
          "type": "uint256"
        },
        {
          "name": "adr",
          "type": "address"
        }
      ],
      "name": "addConnectedDevice",
      "outputs": [],
      "payable": false,
      "stateMutability": "nonpayable",
      "type": "function"
    },
    {
      "constant": false,
      "inputs": [],
      "name": "askForPrice",
      "outputs": [],
      "payable": false,
      "stateMutability": "nonpayable",
      "type": "function"
    },
    {
      "constant": false,
      "inputs": [
        {
          "name": "prsSale",
          "type": "uint256"
        },
        {
          "name": "prsBuy",
          "type": "uint256"
        }
      ],
      "name": "setPrice",
      "outputs": [],
      "payable": false,
      "stateMutability": "nonpayable",
      "type": "function"
    },
    {
      "constant": true,
      "inputs": [],
      "name": "Admin",
      "outputs": [
        {
          "name": "",
          "type": "address"
        }
      ],
      "payable": false,
      "stateMutability": "view",
      "type": "function"
    },
    {
      "inputs": [
        {
          "name": "adr",
          "type": "address"
        },
        {
          "name": "cap",
          "type": "uint256"
        }
      ],
      "payable": false,
      "stateMutability": "nonpayable",
      "type": "constructor"
    },
    {
      "anonymous": false,
      "inputs": [
        {
          "indexed": false,
          "name": "adr",
          "type": "address"
        },
        {
          "indexed": false,
          "name": "vol",
          "type": "uint256"
        },
        {
          "indexed": false,
          "name": "volAt",
          "type": "uint256"
        }
      ],
      "name": "VolLog",
      "type": "event"
    },
    {
      "anonymous": false,
      "inputs": [
        {
          "indexed": false,
          "name": "updateAt",
          "type": "uint256"
        }
      ],
      "name": "PriceUpdate",
      "type": "event"
    }
  ],
  "bytecode": "0x606060405260038054600160a060020a031990811690915560048054909116905561012c600855341561003157600080fd5b6040516040806117cc833981016040528080519190602001805160018054600160a060020a03958616600160a060020a031991821617909155600080543390961695909116949094179093555050600d5561173b806100916000396000f3006060604052600436106101245763ffffffff60e060020a600035041663074b7c8081146101295780630830cfae1461014e5780630e00c3161461016f5780630ff37282146101a657806313299604146101bc5780631b45f0e0146101cf578063235a4a4f1461020e5780632c2735dd146102215780632fbc0bf11461023457806335f7f5e2146102615780633d7224dc1461028f5780633d859507146102a25780633fd2007d146102b55780634559dcdc146102cb5780636a95841b146102e15780636b608223146102f757806370ed8f241461034a57806379c19df0146103795780638d646b111461038c578063aac12b4b146103ab578063bfd11903146103be578063c9746029146103e0578063f7d97577146103f3578063ff1b636d1461040c575b600080fd5b341561013457600080fd5b61013c61041f565b60405190815260200160405180910390f35b341561015957600080fd5b61016d600160a060020a0360043516610489565b005b341561017a57600080fd5b6101826104cc565b60405180848152602001838152602001828152602001935050505060405180910390f35b34156101b157600080fd5b61013c6004356104dc565b34156101c757600080fd5b61013c61076a565b34156101da57600080fd5b6101e2610770565b604051938452602084019290925260408084019190915290151560608301526080909101905180910390f35b341561021957600080fd5b61013c610813565b341561022c57600080fd5b61016d61085d565b341561023f57600080fd5b610247610937565b604051918252151560208201526040908101905180910390f35b341561026c57600080fd5b61027760043561095c565b60405191825260208201526040908101905180910390f35b341561029a57600080fd5b61016d610a9a565b34156102ad57600080fd5b61016d610ccc565b34156102c057600080fd5b610277600435610d46565b34156102d657600080fd5b61016d600435611036565b34156102ec57600080fd5b61016d6004356110c5565b341561030257600080fd5b61030d60043561110a565b6040518085600160a060020a0316600160a060020a0316815260200184815260200183815260200182815260200194505050505060405180910390f35b341561035557600080fd5b61035d6111a9565b604051600160a060020a03909116815260200160405180910390f35b341561038457600080fd5b61013c6111b8565b341561039757600080fd5b61016d600160a060020a03600435166111be565b34156103b657600080fd5b61016d611202565b34156103c957600080fd5b61016d600435600160a060020a0360243516611391565b34156103eb57600080fd5b61016d6113fd565b34156103fe57600080fd5b61016d600435602435611613565b341561041757600080fd5b61035d611683565b600454600090600160a060020a031663bdef9d9282604051602001526040518163ffffffff1660e060020a028152600401602060405180830381600087803b151561046957600080fd5b6102c65a03f1151561047a57600080fd5b50505060405180519150505b90565b60005433600160a060020a0390811691161415610124576004805473ffffffffffffffffffffffffffffffffffffffff1916600160a060020a0383161790555b50565b600e54600a54600d549192909190565b600080600060046104eb610813565b8114156101245760016000908152600660205233935073__AdrLib________________________________90632c2fc20e906000805160206116d08339815191529086906040516020015260405160e060020a63ffffffff85160281526004810192909252600160a060020a0316602482015260440160206040518083038186803b151561057857600080fd5b6102c65a03f4151561058957600080fd5b50505060405180519050806105ab5750600354600160a060020a038481169116145b15156105b657600080fd5b600f5473__TransactLib___________________________63bc2e368c90918760006040516020015260405160e060020a63ffffffff85160281526004810192909252602482015260440160206040518083038186803b151561061857600080fd5b6102c65a03f4151561062957600080fd5b5050506040518051600e805482019081905542600a8190556001549295507fa8533a3e28bf00cd05018ed80847d3d6f170da084f6417da50798db7335ff9a09350600160a060020a03909216916040518084600160a060020a0316600160a060020a03168152602001838152602001828152602001935050505060405180910390a1600f5473__TransactLib___________________________639e5fd0a99091843060006040516020015260405160e060020a63ffffffff861602815260048101939093526024830191909152600160a060020a0316604482015260640160206040518083038186803b151561071f57600080fd5b6102c65a03f4151561073057600080fd5b5050506040518051600f555050600160a060020a039190911660009081526012602052604090205460078054918302909103905592915050565b60075490565b600f546000808073__SortPLib______________________________63c6742457601233846040516060015260405160e060020a63ffffffff85160281526004810192909252600160a060020a0316602482015260440160606040518083038186803b15156107de57600080fd5b6102c65a03f415156107ef57600080fd5b50505060405180519060200180519060200180519697929691955090935090915050565b600454600090600160a060020a0316633b7104f282604051602001526040518163ffffffff1660e060020a028152600401602060405180830381600087803b151561046957600080fd5b60008060008060008060008060008060006004610878610813565b8114156101245760185460009c509a5060019950600e19420192505b891561092957426001840111610924576108ac61041f565b98508b91505b8a821015610914576108c38c61110a565b929a5090985096509450888614156108eb576108de8c610d46565b50506001909b019a610909565b888610156108fe576001909b019a610909565b889350429250610914565b6001909101906108b2565b8a8c106109245760009950610929565b610894565b505050505050505050505050565b601054600854600954600091429101101561095457506000610958565b5060015b9091565b6000806005610969610813565b8114156101245760115491508373__TransactLib___________________________63bc2e368c9091600e54600d540360006040516020015260405160e060020a63ffffffff85160281526004810192909252602482015260440160206040518083038186803b15156109db57600080fd5b6102c65a03f415156109ec57600080fd5b505050604051805190509250600e5473__TransactLib___________________________63994459079091853060006040516020015260405160e060020a63ffffffff861602815260048101939093526024830191909152600160a060020a0316604482015260640160206040518083038186803b1515610a6c57600080fd5b6102c65a03f41515610a7d57600080fd5b5050506040518051600e5550600780548484029003905550915091565b60008060008060006003610aac610813565b8114156101245773__SortRLib______________________________63e6f37de9601660405160e060020a63ffffffff8416028152600481019190915260240160006040518083038186803b1515610b0357600080fd5b6102c65a03f41515610b1457600080fd5b505050600091505b6000805260066020526000805160206116f083398151915254821015610cbf576000805260066020526000805160206116f0833981519152805483908110610b6057fe5b6000918252602082200154600160a060020a031690631b45f0e090604051608001526040518163ffffffff1660e060020a028152600401608060405180830381600087803b1515610bb057600080fd5b6102c65a03f11515610bc157600080fd5b50505060405180519060200180519060200180519060200180519399509197509550909350508215610cb4576000805260066020526000805160206116f0833981519152805473__SortRLib______________________________9163ef61a139916016919086908110610c3157fe5b600091825260209091200154600160a060020a031689898960405160e060020a63ffffffff88160281526004810195909552600160a060020a03909316602485015260448401919091526064830152608482015260a40160006040518083038186803b1515610c9f57600080fd5b6102c65a03f41515610cb057600080fd5b5050505b600190910190610b1c565b42600c555b505050505050565b6003610cd6610813565b8114156101245773__SortRLib______________________________63534e1918601660405160e060020a63ffffffff8416028152600481019190915260240160006040518083038186803b1515610d2d57600080fd5b6102c65a03f41515610d3e57600080fd5b5050506104c9565b60008060008060008060008060006004610d5e610813565b81141561012457610d6e8b61110a565b600e54939a509198509650945073__TransactLib___________________________9063bc2e368c908860006040516020015260405160e060020a63ffffffff85160281526004810192909252602482015260440160206040518083038186803b1515610dda57600080fd5b6102c65a03f41515610deb57600080fd5b50505060405180516000808052600660205290995073__AdrLib________________________________9150632c2fc20e906000805160206116f0833981519152908a906040516020015260405160e060020a63ffffffff85160281526004810192909252600160a060020a0316602482015260440160206040518083038186803b1515610e7857600080fd5b6102c65a03f41515610e8957600080fd5b50505060405180519050156110215786600160a060020a0316630ff372828960006040516020015260405160e060020a63ffffffff84160281526004810191909152602401602060405180830381600087803b1515610ee757600080fd5b6102c65a03f11515610ef857600080fd5b5050506040518051600e80548290039081905542600a8190556001549296507fa8533a3e28bf00cd05018ed80847d3d6f170da084f6417da50798db7335ff9a09350600160a060020a03909216916040518084600160a060020a0316600160a060020a03168152602001838152602001828152602001935050505060405180910390a16010548302915060075473__TransactLib___________________________63e2992d299091848a3060006040516020015260405160e060020a63ffffffff871602815260048101949094526024840192909252600160a060020a03908116604484015216606482015260840160206040518083038186803b1515610fff57600080fd5b6102c65a03f4151561101057600080fd5b505050604051805160075550611026565b600092505b5095999098509650505050505050565b60015433600160a060020a039081169116141561012457600e81905542600a8190556001547fa8533a3e28bf00cd05018ed80847d3d6f170da084f6417da50798db7335ff9a091600160a060020a039091169083906040518084600160a060020a0316600160a060020a03168152602001838152602001828152602001935050505060405180910390a16104c9565b60016110cf610813565b8114156101245760015433600160a060020a039081169116141561012457600d54600e548301111561110057600080fd5b600f8290555b5050565b600080808073__SortRLib______________________________6391871092601687846040516080015260405160e060020a63ffffffff85160281526004810192909252602482015260440160806040518083038186803b151561116d57600080fd5b6102c65a03f4151561117e57600080fd5b5050506040518051906020018051906020018051906020018051905093509350935093509193509193565b600454600160a060020a031690565b600f5490565b60005433600160a060020a0390811691161415610124576003805473ffffffffffffffffffffffffffffffffffffffff1916600160a060020a0383161790556104c9565b600080600261120f610813565b8114156101245773__SortPLib______________________________6332a76998601260405160e060020a63ffffffff8416028152600481019190915260240160006040518083038186803b151561126657600080fd5b6102c65a03f4151561127757600080fd5b5050600354600160a060020a031615905061138c5760035460009350839250600160a060020a03166398d5fdca83604051604001526040518163ffffffff1660e060020a0281526004016040805180830381600087803b15156112d957600080fd5b6102c65a03f115156112ea57600080fd5b5050506040518051906020018051600354929550935073__SortPLib______________________________9163c3af64529150601290600160a060020a0316868660405160e060020a63ffffffff87160281526004810194909452600160a060020a03909216602484015260448301521515606482015260840160006040518083038186803b151561137b57600080fd5b6102c65a03f41515610cc457600080fd5b505050565b60005433600160a060020a03908116911614156101245760008281526006602052604090208054600181016113c68382611692565b506000918252602090912001805473ffffffffffffffffffffffffffffffffffffffff1916600160a060020a038316179055611106565b6000806000600261140c610813565b811415610124576000935083925073__SortPLib______________________________63e61f7934601260405160e060020a63ffffffff8416028152600481019190915260240160006040518083038186803b151561146a57600080fd5b6102c65a03f4151561147b57600080fd5b505050600091505b600160005260066020526000805160206116d08339815191525482101561160957600160005260066020526000805160206116d08339815191528054839081106114c957fe5b6000918252602082200154600160a060020a0316906398d5fdca90604051604001526040518163ffffffff1660e060020a0281526004016040805180830381600087803b151561151857600080fd5b6102c65a03f1151561152957600080fd5b5050506040518051906020018051600160005260066020526000805160206116d0833981519152805493975090955073__SortPLib______________________________9263c3af64529250601291908690811061158357fe5b600091825260209091200154600160a060020a0316878760405160e060020a63ffffffff87160281526004810194909452600160a060020a03909216602484015260448301521515606482015260840160006040518083038186803b15156115ea57600080fd5b6102c65a03f415156115fb57600080fd5b505060019092019150611483565b42600b5550505050565b600161161d610813565b8114156101245760015433600160a060020a039081169116141561012457601083905560118290554260098190557fae46785019700e30375a5d7b4f91e32f8060ef085111f896ebf889450aa2ab5a9060405190815260200160405180910390a161138c565b600054600160a060020a031681565b81548183558181151161138c5760008381526020902061138c91810190830161048691905b808211156116cb57600081556001016116b7565b509056003e5fec24aa4dc4e5aee2e025e51e1392c72a2500577559fae9665c6d52bd6a3154cdd369e4e8a8515e52ca72ec816c2101831ad1f18bf44102ed171459c9b4f8a165627a7a723058206dd101f612d55fbab4e82a6f4adcd6d79b8a49a5adb6ac5feb2a80f3a724f5320029",
  "source": "pragma solidity ^0.4.4;\r\n\r\nimport \"./IBattery.sol\";\r\nimport \"./IPV.sol\";\r\nimport \"./IGrid.sol\";\r\nimport \"./IHouse.sol\";\r\nimport \"./GeneralDevice.sol\";\r\n\r\nimport \"./SortRLib.sol\";\r\nimport \"./SortPLib.sol\"; \r\nimport \"./AdrLib.sol\"; \r\nimport \"./TransactLib.sol\";\r\n\r\n\r\n//For simplicity, we do not use the sorting functions here, as in our configuration, there is only one battery and there's only one PV connected.  \r\n\r\ncontract SingleBattery is GeneralDevice, IBattery {\r\n  \r\n  using AdrLib for address[];\r\n  using TransactLib for *;\r\n  using SortPLib for *;\r\n  using SortRLib for *;\r\n\r\n  uint    capacity;                 // Cap of the device\r\n  uint    currentVolume;            // Production of electricity\r\n  uint    buyVolume;                // Amount of electricity that this battery would like to buy. Will first participate in the supply competition \r\n                                    //and will be finally (anyway) fulfilled b either the network or from the grid...\r\n  uint    priceForSale;\r\n  uint    priceForBuy;              // lower than market price (ForExcessEnergy)\r\n\r\n  SortPLib.PriceMap draftPriceMap;\r\n  SortRLib.RankMap draftRankMap;\r\n\r\n// ======= Modifiers =======\r\n\r\n// ======= Event Logs =======\r\n\r\n  event VolLog(address adr, uint vol, uint volAt);\r\n  //event ConfigurationLog(string confMod, uint statusAt);\r\n  event PriceUpdate(uint updateAt);\r\n\r\n// ======= Basic Functionalities =======\r\n\r\n  // --- 0. Upon contract creation and configuration ---\r\n\r\n  function SingleBattery (address adr,  uint cap) GeneralDevice(adr) {\r\n    capacity = cap;\r\n  }\r\n\r\n  function setVolume(uint vol) public ownerOnly {\r\n    // Can only be triggered once....Should be moved into the constructor...Once the initial volumne is set, can only be changed by energy trading.\r\n    currentVolume = vol;\r\n    volStatusAt = now;\r\n    VolLog(owner,vol,volStatusAt);\r\n  }\r\n\r\n  // --- 1. set and get the active purchase volume (if battery wants) and selling price every 15 min (or less) ---\r\n\r\n  function setPrice(uint prsSale, uint prsBuy) public timed(1) ownerOnly {\r\n    priceForSale = prsSale;\r\n    priceForBuy = prsBuy;\r\n    priceStatusAt = now;\r\n    PriceUpdate(priceStatusAt);\r\n  }\r\n\r\n  function getSalePrice() public view returns (uint prs, bool updatedOrNot) { // connectedHouseOnly external\r\n    prs = priceForSale;\r\n    //prsAt = priceStatusAt;\r\n    if (priceStatusAt + priceTimeOut < now) {\r\n      updatedOrNot = false;\r\n    } else {\r\n      updatedOrNot = true;\r\n    }\r\n    //adr = owner;\r\n  }\r\n\r\n  function setBuyVolume(uint v) public timed(1) ownerOnly {\r\n    require(currentVolume + v <= capacity);\r\n    buyVolume = v;\r\n  }\r\n\r\n  function getBuyVol() returns (uint) {return buyVolume;}\r\n\r\n  function getVolumeCapacity () external view returns (uint vol, uint volAt, uint cap) {\r\n    vol = currentVolume;\r\n    volAt = volStatusAt;\r\n    cap = capacity;\r\n  }\r\n\r\n  // --- 2. Battery can be considered as a house if it wants to actively purchase energy. --- \r\n  // ---    Ask for connected PV / batteries / grid for price of electricity supply. --- \r\n  // ---    Sort the list of offers. --- \r\n\r\n  function askForPrice() timed(2) {\r\n    // Battery query price info to all the connected PV/Battery. \r\n    uint tP = 0;\r\n    bool tF = false;\r\n    draftPriceMap.initPrsTable();\r\n    for (uint i = 0; i < connectedDevice[1].length; i++) {\r\n      (tP,tF) = IPV(connectedDevice[1][i]).getPrice();\r\n      draftPriceMap.addToPrsTable(connectedDevice[1][i],tP,tF);\r\n    }\r\n    lastPriceQueryAt = now;\r\n  }\r\n\r\n  function sortPrice() timed(2) {\r\n    draftPriceMap.sortPrsTable();\r\n    // if the grid is connected -> add the price from the grid to the end of the sorted list \r\n    if (grid != 0x0) {\r\n      uint tP = 0;\r\n      bool tF = false;\r\n      (tP,tF) = IGrid(grid).getPrice();\r\n      draftPriceMap.addToPrsTable(grid,tP,tF);\r\n    }\r\n  }\r\n\r\n  function getSortedPrice() external view returns(uint consum, uint rank, uint tot, bool updated) {\r\n    consum = buyVolume;\r\n    (rank,tot,updated) = draftPriceMap.getPrsTable(msg.sender);\r\n  }\r\n\r\n  // --- 3. Battery can also provide energy to houses. --- \r\n  // ---    Sort the list of ranks. --- \r\n\r\n  function askForRank() timed(3) {\r\n    uint consum;\r\n    uint rank;\r\n    uint tot;\r\n    bool updated;\r\n    draftRankMap.initRnkTable();\r\n    for (uint i = 0; i < connectedDevice[0].length; i++) {\r\n      (consum, rank, tot, updated) = IHouse(connectedDevice[0][i]).getSortedPrice();\r\n      if (updated) {\r\n        draftRankMap.addToRnkTable(connectedDevice[0][i],consum, rank, tot);\r\n      }\r\n    }\r\n    lastRankingAt = now;\r\n  }\r\n\r\n  function sortRank() timed(3) {\r\n    draftRankMap.sortRnkTable();\r\n  }\r\n\r\n  function getSortedRank(uint _id) returns(address adr, uint consum, uint rank, uint tot) {\r\n    return draftRankMap.getSortedList(_id);\r\n  }\r\n\r\n  // --- 4. PV/Battery/Grid asks Battery to confirm energy transaction ---\r\n\r\n  function goNoGo(uint giveoutvol) timed(4) returns (uint) {\r\n    address adrDevice = msg.sender;\r\n    uint takeoutvol;\r\n    require(connectedDevice[1].assertInside(adrDevice) || adrDevice == grid);\r\n    takeoutvol = buyVolume.findMin(giveoutvol);\r\n    currentVolume += takeoutvol;\r\n    volStatusAt = now;\r\n    VolLog(owner,currentVolume,volStatusAt);\r\n    buyVolume = buyVolume.clearEnergyTransfer(takeoutvol, address(this));\r\n    wallet -= int(takeoutvol*draftPriceMap.prsTable[adrDevice].prs);\r\n    return (takeoutvol); \r\n  }\r\n\r\n  function sellEnergy() timed(4) {\r\n    uint counter = 0;\r\n    uint tL = draftRankMap.totalLength;\r\n    bool waiting = true;\r\n    uint i;\r\n\r\n    address adr;\r\n    uint consum;\r\n    uint rank;\r\n    uint tot;\r\n\r\n    uint lastIndex;\r\n    uint lastITime = now - 15 seconds;\r\n\r\n    while (waiting) {\r\n      if (lastITime + 1 seconds <= now) {\r\n      i = getTimerIndex();\r\n      for (uint j = counter; j < tL; j++) {\r\n        (adr,consum,rank,tot) = getSortedRank(counter);\r\n        if (rank == i) {\r\n          // time to make transaction\r\n          initiateTransaction(counter);\r\n          counter++;\r\n        } else if (rank < i) {\r\n          // the transaction of this ranking has been done globally. No more transaction should be made for this ranking.\r\n          counter++;\r\n        } else {\r\n          // when rank > i, need to wait\r\n          lastIndex = i;  // note down the index that has been requested last time. \r\n          lastITime = now;  // The next query should be ideally in 15s...\r\n          break;\r\n        }\r\n      }\r\n      if (counter >= tL) {\r\n        waiting = false;\r\n        break;\r\n      }\r\n      }\r\n    }\r\n  }\r\n\r\n  function initiateTransaction(uint _id) timed(4) returns (uint, uint) {\r\n    uint giveoutVol;\r\n    address adr;\r\n    uint consum;\r\n    uint rank;\r\n    uint tot;\r\n    uint whatDeviceAccept;\r\n    uint receivedMoney;\r\n \r\n      (adr,consum,rank,tot) = getSortedRank(_id);\r\n      giveoutVol = currentVolume.findMin(consum);\r\n      if (connectedDevice[0].assertInside(adr)) {\r\n        whatDeviceAccept = IHouse(adr).goNoGo(giveoutVol);\r\n        //setVolume(currentVolume-whatDeviceAccept);\r\n        currentVolume -= whatDeviceAccept;\r\n        volStatusAt = now;\r\n        VolLog(owner,currentVolume,volStatusAt);\r\n        receivedMoney = whatDeviceAccept*priceForSale;\r\n        wallet = wallet.clearMoneyTransfer(receivedMoney,adr, address(this));\r\n      } else {\r\n        whatDeviceAccept = 0; \r\n      }\r\n      return(giveoutVol, whatDeviceAccept);\r\n    //}\r\n  }\r\n\r\n  // --- 5. Deal with excess energy --- \r\n\r\n  function goExcess(uint vol) timed(5) returns (uint takeVol, uint prs) {\r\n    prs = priceForBuy;\r\n    takeVol = vol.findMin(capacity-currentVolume);\r\n    currentVolume = currentVolume.clearExcessTransfer(takeVol, address(this));\r\n    wallet -= int(takeVol*prs);\r\n  }\r\n\r\n}\r\n",
  "sourcePath": "C:\\Users\\qianc\\Documents\\Thesis\\Code\\SimpleMonitor\\contracts\\SingleBattery.sol",
  "compiler": {
    "name": "solc",
    "version": "0.4.18+commit.9cf6e910.Emscripten.clang"
  },
  "schemaVersion": "1.0.1",
  "updatedAt": "2017-12-05T23:13:02.648Z"
}