{
  "contractName": "SingleHouse",
  "abi": [
    {
      "constant": false,
      "inputs": [
        {
          "name": "adr",
          "type": "address"
        }
      ],
      "name": "setTimerAdr",
      "outputs": [],
      "payable": false,
      "stateMutability": "nonpayable",
      "type": "function"
    },
    {
      "constant": false,
      "inputs": [
        {
          "name": "giveoutvol",
          "type": "uint256"
        }
      ],
      "name": "goNoGo",
      "outputs": [
        {
          "name": "",
          "type": "uint256"
        }
      ],
      "payable": false,
      "stateMutability": "nonpayable",
      "type": "function"
    },
    {
      "constant": true,
      "inputs": [],
      "name": "getWallet",
      "outputs": [
        {
          "name": "",
          "type": "int256"
        }
      ],
      "payable": false,
      "stateMutability": "view",
      "type": "function"
    },
    {
      "constant": false,
      "inputs": [],
      "name": "getSortedPrice",
      "outputs": [
        {
          "name": "consum",
          "type": "uint256"
        },
        {
          "name": "rank",
          "type": "uint256"
        },
        {
          "name": "tot",
          "type": "uint256"
        },
        {
          "name": "updated",
          "type": "bool"
        }
      ],
      "payable": false,
      "stateMutability": "nonpayable",
      "type": "function"
    },
    {
      "constant": false,
      "inputs": [],
      "name": "getTimerStatus",
      "outputs": [
        {
          "name": "",
          "type": "uint256"
        }
      ],
      "payable": false,
      "stateMutability": "nonpayable",
      "type": "function"
    },
    {
      "constant": false,
      "inputs": [],
      "name": "buyExtra",
      "outputs": [],
      "payable": false,
      "stateMutability": "nonpayable",
      "type": "function"
    },
    {
      "constant": false,
      "inputs": [],
      "name": "getTime",
      "outputs": [
        {
          "name": "",
          "type": "uint256"
        }
      ],
      "payable": false,
      "stateMutability": "nonpayable",
      "type": "function"
    },
    {
      "constant": false,
      "inputs": [
        {
          "name": "consum",
          "type": "uint256"
        }
      ],
      "name": "setConsumption",
      "outputs": [],
      "payable": false,
      "stateMutability": "nonpayable",
      "type": "function"
    },
    {
      "constant": false,
      "inputs": [],
      "name": "getTimerAddress",
      "outputs": [
        {
          "name": "",
          "type": "address"
        }
      ],
      "payable": false,
      "stateMutability": "nonpayable",
      "type": "function"
    },
    {
      "constant": true,
      "inputs": [],
      "name": "getConsumption",
      "outputs": [
        {
          "name": "consum",
          "type": "uint256"
        },
        {
          "name": "consumAt",
          "type": "uint256"
        }
      ],
      "payable": false,
      "stateMutability": "view",
      "type": "function"
    },
    {
      "constant": false,
      "inputs": [
        {
          "name": "adr",
          "type": "address"
        }
      ],
      "name": "setGridAdr",
      "outputs": [],
      "payable": false,
      "stateMutability": "nonpayable",
      "type": "function"
    },
    {
      "constant": false,
      "inputs": [],
      "name": "sortPrice",
      "outputs": [],
      "payable": false,
      "stateMutability": "nonpayable",
      "type": "function"
    },
    {
      "constant": false,
      "inputs": [],
      "name": "getNow",
      "outputs": [
        {
          "name": "",
          "type": "uint256"
        }
      ],
      "payable": false,
      "stateMutability": "nonpayable",
      "type": "function"
    },
    {
      "constant": false,
      "inputs": [
        {
          "name": "a",
          "type": "uint256"
        },
        {
          "name": "adr",
          "type": "address"
        }
      ],
      "name": "addConnectedDevice",
      "outputs": [],
      "payable": false,
      "stateMutability": "nonpayable",
      "type": "function"
    },
    {
      "constant": false,
      "inputs": [],
      "name": "askForPrice",
      "outputs": [],
      "payable": false,
      "stateMutability": "nonpayable",
      "type": "function"
    },
    {
      "constant": true,
      "inputs": [],
      "name": "Admin",
      "outputs": [
        {
          "name": "",
          "type": "address"
        }
      ],
      "payable": false,
      "stateMutability": "view",
      "type": "function"
    },
    {
      "inputs": [
        {
          "name": "adr",
          "type": "address"
        }
      ],
      "payable": false,
      "stateMutability": "nonpayable",
      "type": "constructor"
    },
    {
      "anonymous": false,
      "inputs": [
        {
          "indexed": false,
          "name": "adr",
          "type": "address"
        },
        {
          "indexed": false,
          "name": "consum",
          "type": "uint256"
        },
        {
          "indexed": false,
          "name": "consumAt",
          "type": "uint256"
        }
      ],
      "name": "ConsumptionLog",
      "type": "event"
    },
    {
      "anonymous": false,
      "inputs": [
        {
          "indexed": false,
          "name": "adrFrom",
          "type": "address"
        },
        {
          "indexed": false,
          "name": "adrTo",
          "type": "address"
        },
        {
          "indexed": false,
          "name": "eVol",
          "type": "uint256"
        },
        {
          "indexed": false,
          "name": "transferAt",
          "type": "uint256"
        }
      ],
      "name": "EnergyTransferLog",
      "type": "event"
    }
  ],
  "bytecode": "0x606060405260038054600160a060020a031990811690915560048054909116905561012c600855341561003157600080fd5b604051602080610fbd8339810160405280805160018054600160a060020a03928316600160a060020a0319918216179091556000805433909316929091169190911790555050610f37806100866000396000f3006060604052600436106100cc5763ffffffff60e060020a6000350416630830cfae81146100d15780630ff37282146100f2578063132996041461011a5780631b45f0e01461012d578063235a4a4f1461016c5780633acca96d1461017f578063557ed1ba146101925780635a500ecc146101a557806370ed8f24146101bb5780638a5cb1b6146101ea5780638d646b1114610215578063aac12b4b14610234578063bbe4fd5014610247578063bfd119031461025a578063c97460291461027c578063ff1b636d1461028f575b600080fd5b34156100dc57600080fd5b6100f0600160a060020a03600435166102a2565b005b34156100fd57600080fd5b6101086004356102e5565b60405190815260200160405180910390f35b341561012557600080fd5b61010861056f565b341561013857600080fd5b610140610576565b604051938452602084019290925260408084019190915290151560608301526080909101905180910390f35b341561017757600080fd5b61010861061b565b341561018a57600080fd5b6100f0610684565b341561019d57600080fd5b6101086107cf565b34156101b057600080fd5b6100f06004356107de565b34156101c657600080fd5b6101ce61087e565b604051600160a060020a03909116815260200160405180910390f35b34156101f557600080fd5b6101fd61088d565b60405191825260208201526040908101905180910390f35b341561022057600080fd5b6100f0600160a060020a0360043516610897565b341561023f57600080fd5b6100f06108db565b341561025257600080fd5b610108610a6e565b341561026557600080fd5b6100f0600435600160a060020a0360243516610a72565b341561028757600080fd5b6100f0610ade565b341561029a57600080fd5b6101ce610e7f565b60005433600160a060020a03908116911614156100cc576004805473ffffffffffffffffffffffffffffffffffffffff1916600160a060020a0383161790555b50565b600260009081526006602052338173__AdrLib________________________________632c2fc20e600080516020610eec83398151915284846040516020015260405160e060020a63ffffffff85160281526004810192909252600160a060020a0316602482015260440160206040518083038186803b151561036757600080fd5b6102c65a03f4151561037857600080fd5b5050506040518051905080610427575060016000908152600660205273__AdrLib________________________________90632c2fc20e90600080516020610ecc8339815191529085906040516020015260405160e060020a63ffffffff85160281526004810192909252600160a060020a0316602482015260440160206040518083038186803b151561040b57600080fd5b6102c65a03f4151561041c57600080fd5b505050604051805190505b151561043257600080fd5b60075473__TransactLib___________________________63bc2e368c90918660006040516020015260405160e060020a63ffffffff85160281526004810192909252602482015260440160206040518083038186803b151561049457600080fd5b6102c65a03f415156104a557600080fd5b50505060405180519050905060075473__TransactLib___________________________639e5fd0a99091833060006040516020015260405160e060020a63ffffffff861602815260048101939093526024830191909152600160a060020a0316604482015260640160206040518083038186803b151561052557600080fd5b6102c65a03f4151561053657600080fd5b505050604051805160075550600160a060020a0382166000908152600b6020526040902054600580549183029091039055915050919050565b6005545b90565b600754600080803373__SortPLib______________________________63c6742457600b83856040516060015260405160e060020a63ffffffff85160281526004810192909252600160a060020a0316602482015260440160606040518083038186803b15156105e557600080fd5b6102c65a03f415156105f657600080fd5b5050506040518051906020018051906020018051979892979196509094509092505050565b600454600090600160a060020a0316633b7104f282604051602001526040518163ffffffff1660e060020a028152600401602060405180830381600087803b151561066557600080fd5b6102c65a03f1151561067657600080fd5b505050604051805191505090565b60035460009081908190600160a060020a031615156106a257600080fd5b600060075411156107ca57600354600754600160a060020a0390911690636e2855449060006040516040015260405160e060020a63ffffffff841602815260048101919091526024016040805180830381600087803b151561070357600080fd5b6102c65a03f1151561071457600080fd5b5050506040518051906020018051600754929550925073__TransactLib___________________________91639e5fd0a99150853060006040516020015260405160e060020a63ffffffff861602815260048101939093526024830191909152600160a060020a0316604482015260640160206040518083038186803b151561079c57600080fd5b6102c65a03f415156107ad57600080fd5b505050604051805160075550600580548483029081900390915591505b505050565b60006107d961061b565b905090565b60016107e861061b565b8114156100cc5760015433600160a060020a03908116911614156100cc5760078290554260098190556001547f93e0cabaa551645c58979b9f1e87af3e09f708241c9bdd6468e581ad0651692691600160a060020a039091169084906040518084600160a060020a0316600160a060020a03168152602001838152602001828152602001935050505060405180910390a15b5050565b600454600160a060020a031690565b6007546009549091565b60005433600160a060020a03908116911614156100cc576003805473ffffffffffffffffffffffffffffffffffffffff1916600160a060020a0383161790556102e2565b60008060026108e861061b565b8114156100cc5773__SortPLib______________________________6332a76998600b60405160e060020a63ffffffff8416028152600481019190915260240160006040518083038186803b151561093f57600080fd5b6102c65a03f4151561095057600080fd5b5050600354600160a060020a0316159050610a695760035460009350839250600160a060020a03166398d5fdca83604051604001526040518163ffffffff1660e060020a0281526004016040805180830381600087803b15156109b257600080fd5b6102c65a03f115156109c357600080fd5b5050506040518051906020018051600354929550935073__SortPLib______________________________9163c3af64529150600b90600160a060020a0316868660405160e060020a63ffffffff87160281526004810194909452600160a060020a03909216602484015260448301521515606482015260840160006040518083038186803b1515610a5457600080fd5b6102c65a03f41515610a6557600080fd5b5050505b6107ca565b4290565b60005433600160a060020a03908116911614156100cc576000828152600660205260409020805460018101610aa78382610e8e565b506000918252602090912001805473ffffffffffffffffffffffffffffffffffffffff1916600160a060020a03831617905561087a565b60008060006002610aed61061b565b8114156100cc576000935083925073__SortPLib______________________________63e61f7934600b60405160e060020a63ffffffff8416028152600481019190915260240160006040518083038186803b1515610b4b57600080fd5b6102c65a03f41515610b5c57600080fd5b505050600091505b60026000526006602052600080516020610eec83398151915254821015610cea5760026000526006602052600080516020610eec833981519152805483908110610baa57fe5b6000918252602082200154600160a060020a031690632fbc0bf190604051604001526040518163ffffffff1660e060020a0281526004016040805180830381600087803b1515610bf957600080fd5b6102c65a03f11515610c0a57600080fd5b505050604051805190602001805160026000526006602052600080516020610eec833981519152805493975090955073__SortPLib______________________________9263c3af64529250600b919086908110610c6457fe5b600091825260209091200154600160a060020a0316878760405160e060020a63ffffffff87160281526004810194909452600160a060020a03909216602484015260448301521515606482015260840160006040518083038186803b1515610ccb57600080fd5b6102c65a03f41515610cdc57600080fd5b505060019092019150610b64565b600091505b60016000526006602052600080516020610ecc83398151915254821015610e755760016000526006602052600080516020610ecc833981519152805483908110610d3557fe5b6000918252602082200154600160a060020a0316906398d5fdca90604051604001526040518163ffffffff1660e060020a0281526004016040805180830381600087803b1515610d8457600080fd5b6102c65a03f11515610d9557600080fd5b505050604051805190602001805160016000526006602052600080516020610ecc833981519152805493975090955073__SortPLib______________________________9263c3af64529250600b919086908110610def57fe5b600091825260209091200154600160a060020a0316878760405160e060020a63ffffffff87160281526004810194909452600160a060020a03909216602484015260448301521515606482015260840160006040518083038186803b1515610e5657600080fd5b6102c65a03f41515610e6757600080fd5b505060019092019150610cef565b42600a5550505050565b600054600160a060020a031681565b8154818355818115116107ca576000838152602090206107ca91810190830161057391905b80821115610ec75760008155600101610eb3565b509056003e5fec24aa4dc4e5aee2e025e51e1392c72a2500577559fae9665c6d52bd6a318819ef417987f8ae7a81f42cdfb18815282fe989326fbff903d13cf0e03ace29a165627a7a72305820369aa7d55a6e35ee089a863a2c3e81a7db26b222699c459ac4b1dcfcb9226b440029",
  "source": "pragma solidity ^0.4.4;\r\n\r\nimport \"./SortPLib.sol\";\r\nimport \"./AdrLib.sol\";\r\nimport \"./TransactLib.sol\";\r\nimport \"./IPV.sol\";\r\nimport \"./IGrid.sol\";\r\nimport \"./IBattery.sol\";\r\nimport \"./IHouse.sol\";\r\nimport \"./GeneralDevice.sol\";\r\n\r\ncontract SingleHouse is GeneralDevice, IHouse {\r\n  // one contract is associated to one particular House in the network.\r\n\r\n  using AdrLib for address[];\r\n  using TransactLib for uint;\r\n  using SortPLib for *;\r\n\r\n  SortPLib.PriceMap draftPriceMap;\r\n\r\n// ======= Modifiers =======\r\n\r\n\r\n// ======= Event Logs =======\r\n\r\n  event ConsumptionLog(address adr, uint consum, uint consumAt);\r\n  //event ConfigurationLog(string confMod, uint statusAt);\r\n  event EnergyTransferLog(address adrFrom, address adrTo, uint eVol, uint transferAt);\r\n\r\n// ======= Basic Functionalities =======\r\n\r\n  // --- 0. Upon contract creation and configuration ---\r\n\r\n  function SingleHouse (address adr) GeneralDevice(adr) { }\r\n  \r\n  // --- 1. set and get house consumption every 15 min (or less) ---\r\n\r\n  function setConsumption(uint consum) public timed(1) ownerOnly { //\r\n    consumption = consum;\r\n    consumStatusAt = now;\r\n    ConsumptionLog(owner, consumption, consumStatusAt);\r\n  }\r\n\r\n  function getConsumption() external view  returns (uint consum, uint consumAt) { //timed(consumTimeOut)\r\n    consum = consumption;\r\n    consumAt = consumStatusAt;\r\n  }\r\n\r\n  // --- 2. ask for connected PV / batteries / grid for price of electricity supply ---\r\n\r\n  function askForPrice() timed(2) {\r\n    uint tP = 0;\r\n    bool tF = false;\r\n    draftPriceMap.initPrsTable();\r\n    for (i = 0; i < connectedDevice[2].length; i++) {\r\n      (tP,tF) = IBattery(connectedDevice[2][i]).getSalePrice(); \r\n      draftPriceMap.addToPrsTable(connectedDevice[2][i],tP,tF);\r\n    }\r\n    for (uint i = 0; i < connectedDevice[1].length; i++) {\r\n      (tP,tF) = IPV(connectedDevice[1][i]).getPrice();\r\n      draftPriceMap.addToPrsTable(connectedDevice[1][i],tP,tF);\r\n    }\r\n    lastPriceQueryAt = now;\r\n  }\r\n\r\n  // --- 3. House sorts all the information internally ---\r\n\r\n  function sortPrice() timed(2) {\r\n    draftPriceMap.sortPrsTable();\r\n    // if the grid is connected -> add the price from the grid to the end of the sorted list \r\n    if (grid != 0x0) {\r\n      uint tP = 0;\r\n      bool tF = false;\r\n      (tP,tF) = IGrid(grid).getPrice();\r\n      draftPriceMap.addToPrsTable(grid,tP,tF);\r\n    }\r\n  }\r\n\r\n  function getSortedPrice() external returns(uint consum, uint rank, uint tot, bool updated) {\r\n    address adr = msg.sender;\r\n    consum = consumption;\r\n    (rank,tot,updated) = draftPriceMap.getPrsTable(adr);\r\n  }\r\n\r\n  // --- 4. PV/Battery ask House to confirm energy transaction ---\r\n\r\n  function goNoGo(uint giveoutvol) returns (uint) {\r\n    address adrDevice = msg.sender;\r\n    uint takeoutvol;\r\n    require(connectedDevice[2].assertInside(adrDevice) || connectedDevice[1].assertInside(adrDevice));\r\n    takeoutvol = consumption.findMin(giveoutvol);\r\n    consumption = consumption.clearEnergyTransfer(takeoutvol, address(this));\r\n    //EnergyTransferLog(adrDevice,address(this), takeoutvol, consumption);\r\n    //wallet = wallet.clearMoneyTransfer(-int(takeoutvol*priceQueryInfo[adrDevice].prs), adrDevice);\r\n    wallet -= int(takeoutvol*draftPriceMap.prsTable[adrDevice].prs);\r\n    return (takeoutvol); \r\n  }\r\n\r\n  // --- 5. If house still has energy demand, ask grid for energy ---\r\n\r\n  function buyExtra() {\r\n    // when houses still have extra needs...\r\n    uint whatDeviceAccept;\r\n    uint receivedMoney;\r\n    uint unitPrs;\r\n    require(grid != 0x0);\r\n    if (consumption > 0) {\r\n      (whatDeviceAccept, unitPrs) = IGrid(grid).goExtra(consumption);\r\n      consumption = consumption.clearEnergyTransfer(whatDeviceAccept, address(this));\r\n      receivedMoney = whatDeviceAccept*unitPrs;\r\n      wallet -= int(receivedMoney);\r\n    }\r\n  }\r\n\r\n\r\n  // ------------Functions used in testing------------------\r\n/*\r\n  function getSortedPriceList (uint _id) returns (address) {\r\n    return sortedPriceQueryInfo[_id];\r\n  }\r\n\r\n  function getAskedPrice(address adr) returns (uint,bool) {\r\n    return (priceQueryInfo[adr].prs,priceQueryInfo[adr].updated) ;\r\n  }\r\n\r\n  function askForPricePV(uint i) returns (uint,bool) {\r\n    return IPV(connectedDevice[1][i]).getPrice();\r\n  }\r\n\r\n  function askForPriceB(uint i) returns (uint,bool) {\r\n    return IBattery(connectedDevice[2][i]).getSalePrice();\r\n  }\r\n  */\r\n\r\n  /*function getConnectPVAddress(uint a) returns (address) {\r\n      return connectedDevice[1][a];\r\n  }\r\n\r\n  function getDraftPrsMap(address adr) public view returns (uint, bool) {\r\n    return (draftPriceMap.prsTable[adr].prs, draftPriceMap.prsTable[adr].updated);\r\n  }\r\n  function getSrtPosition(address adr) public returns (uint, uint, bool) {\r\n    return draftPriceMap.getPrsTable(adr);\r\n  }\r\n\r\n  function getSrtList(uint a) public returns(address, uint, bool) { //address, uint, bool\r\n    return draftPriceMap.getSortedList(a);\r\n  }*/\r\n\r\n  function getTime() returns (uint) {\r\n    return getTimerStatus();\r\n  }\r\n\r\n  function getNow() returns (uint) {\r\n    return now;\r\n  }\r\n}\r\n",
  "sourcePath": "C:\\Users\\qianc\\Documents\\Thesis\\Code\\SimpleMonitor\\contracts\\SingleHouse.sol",
  "compiler": {
    "name": "solc",
    "version": "0.4.18+commit.9cf6e910.Emscripten.clang"
  },
  "schemaVersion": "1.0.1",
  "updatedAt": "2017-11-29T01:05:52.133Z"
}