{
  "contractName": "SingleHouse",
  "abi": [
    {
      "constant": false,
      "inputs": [
        {
          "name": "giveoutvol",
          "type": "uint256"
        }
      ],
      "name": "goNoGo",
      "outputs": [
        {
          "name": "",
          "type": "uint256"
        }
      ],
      "payable": false,
      "stateMutability": "nonpayable",
      "type": "function"
    },
    {
      "constant": true,
      "inputs": [],
      "name": "getWallet",
      "outputs": [
        {
          "name": "",
          "type": "int256"
        }
      ],
      "payable": false,
      "stateMutability": "view",
      "type": "function"
    },
    {
      "constant": true,
      "inputs": [],
      "name": "getSortedInfo",
      "outputs": [
        {
          "name": "consum",
          "type": "uint256"
        },
        {
          "name": "rank",
          "type": "uint256"
        },
        {
          "name": "tot",
          "type": "uint256"
        },
        {
          "name": "updated",
          "type": "bool"
        }
      ],
      "payable": false,
      "stateMutability": "view",
      "type": "function"
    },
    {
      "constant": false,
      "inputs": [],
      "name": "buyExtra",
      "outputs": [],
      "payable": false,
      "stateMutability": "nonpayable",
      "type": "function"
    },
    {
      "constant": false,
      "inputs": [
        {
          "name": "consum",
          "type": "uint256"
        }
      ],
      "name": "setConsumption",
      "outputs": [],
      "payable": false,
      "stateMutability": "nonpayable",
      "type": "function"
    },
    {
      "constant": true,
      "inputs": [
        {
          "name": "adr",
          "type": "address"
        }
      ],
      "name": "getDraftPrsMap",
      "outputs": [
        {
          "name": "",
          "type": "uint256"
        },
        {
          "name": "",
          "type": "bool"
        }
      ],
      "payable": false,
      "stateMutability": "view",
      "type": "function"
    },
    {
      "constant": false,
      "inputs": [
        {
          "name": "adr",
          "type": "address"
        }
      ],
      "name": "getSrtPosition",
      "outputs": [
        {
          "name": "",
          "type": "uint256"
        },
        {
          "name": "",
          "type": "uint256"
        },
        {
          "name": "",
          "type": "bool"
        }
      ],
      "payable": false,
      "stateMutability": "nonpayable",
      "type": "function"
    },
    {
      "constant": true,
      "inputs": [],
      "name": "getConsumption",
      "outputs": [
        {
          "name": "consum",
          "type": "uint256"
        },
        {
          "name": "consumAt",
          "type": "uint256"
        }
      ],
      "payable": false,
      "stateMutability": "view",
      "type": "function"
    },
    {
      "constant": false,
      "inputs": [
        {
          "name": "adr",
          "type": "address"
        }
      ],
      "name": "setGridAdr",
      "outputs": [],
      "payable": false,
      "stateMutability": "nonpayable",
      "type": "function"
    },
    {
      "constant": false,
      "inputs": [
        {
          "name": "a",
          "type": "uint256"
        }
      ],
      "name": "getSrtList",
      "outputs": [
        {
          "name": "",
          "type": "address"
        },
        {
          "name": "",
          "type": "uint256"
        },
        {
          "name": "",
          "type": "bool"
        }
      ],
      "payable": false,
      "stateMutability": "nonpayable",
      "type": "function"
    },
    {
      "constant": false,
      "inputs": [],
      "name": "sortPrice",
      "outputs": [],
      "payable": false,
      "stateMutability": "nonpayable",
      "type": "function"
    },
    {
      "constant": false,
      "inputs": [
        {
          "name": "a",
          "type": "uint256"
        },
        {
          "name": "adr",
          "type": "address"
        }
      ],
      "name": "addConnectedDevice",
      "outputs": [],
      "payable": false,
      "stateMutability": "nonpayable",
      "type": "function"
    },
    {
      "constant": false,
      "inputs": [],
      "name": "askForPrice",
      "outputs": [],
      "payable": false,
      "stateMutability": "nonpayable",
      "type": "function"
    },
    {
      "constant": false,
      "inputs": [
        {
          "name": "a",
          "type": "uint256"
        }
      ],
      "name": "getConnectPVAddress",
      "outputs": [
        {
          "name": "",
          "type": "address"
        }
      ],
      "payable": false,
      "stateMutability": "nonpayable",
      "type": "function"
    },
    {
      "constant": true,
      "inputs": [],
      "name": "Admin",
      "outputs": [
        {
          "name": "",
          "type": "address"
        }
      ],
      "payable": false,
      "stateMutability": "view",
      "type": "function"
    },
    {
      "inputs": [
        {
          "name": "adr",
          "type": "address"
        }
      ],
      "payable": false,
      "stateMutability": "nonpayable",
      "type": "constructor"
    },
    {
      "anonymous": false,
      "inputs": [
        {
          "indexed": false,
          "name": "adr",
          "type": "address"
        },
        {
          "indexed": false,
          "name": "consum",
          "type": "uint256"
        },
        {
          "indexed": false,
          "name": "consumAt",
          "type": "uint256"
        }
      ],
      "name": "ConsumptionLog",
      "type": "event"
    },
    {
      "anonymous": false,
      "inputs": [
        {
          "indexed": false,
          "name": "adrFrom",
          "type": "address"
        },
        {
          "indexed": false,
          "name": "adrTo",
          "type": "address"
        },
        {
          "indexed": false,
          "name": "eVol",
          "type": "uint256"
        },
        {
          "indexed": false,
          "name": "transferAt",
          "type": "uint256"
        }
      ],
      "name": "EnergyTransferLog",
      "type": "event"
    }
  ],
  "bytecode": "0x606060405260038054600160a060020a031916905561012c600655341561002557600080fd5b6040516020806110818339810160405280805160018054600160a060020a03928316600160a060020a03199182161790915560008054339093169290911691909117905550506110078061007a6000396000f3006060604052600436106100c15763ffffffff60e060020a6000350416630ff3728281146100c657806313299604146100ee57806338a3528c146101015780633acca96d146101405780635a500ecc146101555780635eec5fae1461016b5780635f5a786e146101a45780638a5cb1b6146101e95780638d646b11146102145780639eb5381914610233578063aac12b4b14610279578063bfd119031461028c578063c9746029146102ae578063e7e27410146102c1578063ff1b636d146102f3575b600080fd5b34156100d157600080fd5b6100dc600435610306565b60405190815260200160405180910390f35b34156100f957600080fd5b6100dc610590565b341561010c57600080fd5b610114610597565b604051938452602084019290925260408084019190915290151560608301526080909101905180910390f35b341561014b57600080fd5b61015361063a565b005b341561016057600080fd5b610153600435610785565b341561017657600080fd5b61018a600160a060020a0360043516610813565b604051918252151560208201526040908101905180910390f35b34156101af57600080fd5b6101c3600160a060020a036004351661083b565b604051928352602083019190915215156040808301919091526060909101905180910390f35b34156101f457600080fd5b6101fc6108d9565b60405191825260208201526040908101905180910390f35b341561021f57600080fd5b610153600160a060020a03600435166108fa565b341561023e57600080fd5b61024960043561093e565b604051600160a060020a039093168352602083019190915215156040808301919091526060909101905180910390f35b341561028457600080fd5b6101536109a0565b341561029757600080fd5b610153600435600160a060020a0360243516610b21565b34156102b957600080fd5b610153610b8d565b34156102cc57600080fd5b6102d7600435610f0d565b604051600160a060020a03909116815260200160405180910390f35b34156102fe57600080fd5b6102d7610f4f565b600260009081526005602052338173__AdrLib________________________________632c2fc20e600080516020610fbc83398151915284846040516020015260405160e060020a63ffffffff85160281526004810192909252600160a060020a0316602482015260440160206040518083038186803b151561038857600080fd5b6102c65a03f4151561039957600080fd5b5050506040518051905080610448575060016000908152600560205273__AdrLib________________________________90632c2fc20e90600080516020610f9c8339815191529085906040516020015260405160e060020a63ffffffff85160281526004810192909252600160a060020a0316602482015260440160206040518083038186803b151561042c57600080fd5b6102c65a03f4151561043d57600080fd5b505050604051805190505b151561045357600080fd5b60075473__TransactLib___________________________63bc2e368c90918660006040516020015260405160e060020a63ffffffff85160281526004810192909252602482015260440160206040518083038186803b15156104b557600080fd5b6102c65a03f415156104c657600080fd5b50505060405180519050905060075473__TransactLib___________________________639e5fd0a99091833060006040516020015260405160e060020a63ffffffff861602815260048101939093526024830191909152600160a060020a0316604482015260640160206040518083038186803b151561054657600080fd5b6102c65a03f4151561055757600080fd5b505050604051805160075550600160a060020a0382166000908152600a6020526040902054600480549183029091039055915050919050565b6004545b90565b6007546000808073__SortLib_______________________________63b08ac9cc600a33846040516060015260405160e060020a63ffffffff85160281526004810192909252600160a060020a0316602482015260440160606040518083038186803b151561060557600080fd5b6102c65a03f4151561061657600080fd5b50505060405180519060200180519060200180519697929691955090935090915050565b60035460009081908190600160a060020a0316151561065857600080fd5b6000600754111561078057600354600754600160a060020a0390911690636e2855449060006040516040015260405160e060020a63ffffffff841602815260048101919091526024016040805180830381600087803b15156106b957600080fd5b6102c65a03f115156106ca57600080fd5b5050506040518051906020018051600754929550925073__TransactLib___________________________91639e5fd0a99150853060006040516020015260405160e060020a63ffffffff861602815260048101939093526024830191909152600160a060020a0316604482015260640160206040518083038186803b151561075257600080fd5b6102c65a03f4151561076357600080fd5b505050604051805160075550600480548483029081900390915591505b505050565b60015433600160a060020a03908116911614156100c15760078190554260088190556001547f93e0cabaa551645c58979b9f1e87af3e09f708241c9bdd6468e581ad0651692691600160a060020a039091169083906040518084600160a060020a0316600160a060020a03168152602001838152602001828152602001935050505060405180910390a15b50565b600160a060020a0381166000908152600a60205260409020805460019091015460ff16915091565b6000808073__SortLib_______________________________63b08ac9cc600a86846040516060015260405160e060020a63ffffffff85160281526004810192909252600160a060020a0316602482015260440160606040518083038186803b15156108a657600080fd5b6102c65a03f415156108b757600080fd5b5050506040518051906020018051906020018051929791965091945092505050565b60008060065480600854014210156100c15760075492506008549150509091565b60005433600160a060020a03908116911614156100c1576003805473ffffffffffffffffffffffffffffffffffffffff1916600160a060020a038316179055610810565b6000808073__SortLib_______________________________63a0decdb8600a86846040516060015260405160e060020a63ffffffff85160281526004810192909252602482015260440160606040518083038186803b15156108a657600080fd5b60008073__SortLib_______________________________635945fd7c600a60405160e060020a63ffffffff8416028152600481019190915260240160006040518083038186803b15156109f357600080fd5b6102c65a03f41515610a0457600080fd5b5050600354600160a060020a0316159050610b1d5750506003546000908190600160a060020a03166398d5fdca82604051604001526040518163ffffffff1660e060020a0281526004016040805180830381600087803b1515610a6657600080fd5b6102c65a03f11515610a7757600080fd5b5050506040518051906020018051600354929450925073__SortLib_______________________________91638092f3689150600a90600160a060020a0316858560405160e060020a63ffffffff87160281526004810194909452600160a060020a03909216602484015260448301521515606482015260840160006040518083038186803b1515610b0857600080fd5b6102c65a03f41515610b1957600080fd5b5050505b5050565b60005433600160a060020a03908116911614156100c1576000828152600560205260409020805460018101610b568382610f5e565b506000918252602090912001805473ffffffffffffffffffffffffffffffffffffffff1916600160a060020a038316179055610b1d565b6000808073__SortLib_______________________________6362f50213600a60405160e060020a63ffffffff8416028152600481019190915260240160006040518083038186803b1515610be157600080fd5b6102c65a03f41515610bf257600080fd5b505050600090505b60026000526005602052600080516020610fbc83398151915254811015610d7d5760026000526005602052600080516020610fbc833981519152805482908110610c4057fe5b6000918252602082200154600160a060020a031690632fbc0bf190604051604001526040518163ffffffff1660e060020a0281526004016040805180830381600087803b1515610c8f57600080fd5b6102c65a03f11515610ca057600080fd5b505050604051805190602001805160026000526005602052600080516020610fbc833981519152805493965090945073__SortLib_______________________________92638092f3689250600a919085908110610cfa57fe5b600091825260209091200154600160a060020a0316868660405160e060020a63ffffffff87160281526004810194909452600160a060020a03909216602484015260448301521515606482015260840160006040518083038186803b1515610d6157600080fd5b6102c65a03f41515610d7257600080fd5b505050600101610bfa565b5060005b60016000526005602052600080516020610f9c83398151915254811015610f045760016000526005602052600080516020610f9c833981519152805482908110610dc757fe5b6000918252602082200154600160a060020a0316906398d5fdca90604051604001526040518163ffffffff1660e060020a0281526004016040805180830381600087803b1515610e1657600080fd5b6102c65a03f11515610e2757600080fd5b505050604051805190602001805160016000526005602052600080516020610f9c833981519152805493965090945073__SortLib_______________________________92638092f3689250600a919085908110610e8157fe5b600091825260209091200154600160a060020a0316868660405160e060020a63ffffffff87160281526004810194909452600160a060020a03909216602484015260448301521515606482015260840160006040518083038186803b1515610ee857600080fd5b6102c65a03f41515610ef957600080fd5b505050600101610d81565b50504260095550565b600160009081526005602052600080516020610f9c833981519152805483908110610f3457fe5b600091825260209091200154600160a060020a031692915050565b600054600160a060020a031681565b8154818355818115116107805760008381526020902061078091810190830161059491905b80821115610f975760008155600101610f83565b509056001471eb6eb2c5e789fc3de43f8ce62938c7d1836ec861730447e2ada8fd81017b89832631fb3c3307a103ba2c84ab569c64d6182a18893dcd163f0f1c2090733aa165627a7a72305820044425413276cfbb1d0fe9a2581de70439dd2931c99f9bb64f781f1b7f2e86e70029",
  "source": "pragma solidity ^0.4.4;\r\n\r\nimport \"./SortLib.sol\";\r\nimport \"./AdrLib.sol\";\r\nimport \"./TransactLib.sol\";\r\nimport \"./IPV.sol\";\r\nimport \"./IGrid.sol\";\r\nimport \"./IBattery.sol\";\r\nimport \"./IHouse.sol\";\r\nimport \"./GeneralDevice.sol\";\r\n\r\ncontract SingleHouse is GeneralDevice, IHouse {\r\n  // one contract is associated to one particular House in the network.\r\n\r\n  using AdrLib for address[];\r\n  using TransactLib for uint;\r\n  using SortLib for *;\r\n\r\n  //uint    consumTimeOut = 5 minutes;\r\n  uint    consumStatusAt;           // timestamp of the update (consumption)\r\n  uint    lastPriceQueryAt;\r\n\r\n  SortLib.PriceMap draftPriceMap;\r\n\r\n// ======= Modifiers =======\r\n\r\n  modifier timed (uint allowedTimeOut) {\r\n    if(now < consumStatusAt + allowedTimeOut) {\r\n      _;\r\n    } else {\r\n      revert();\r\n    }\r\n  }\r\n\r\n// ======= Event Logs =======\r\n  event ConsumptionLog(address adr, uint consum, uint consumAt);\r\n  //event ConfigurationLog(string confMod, uint statusAt);\r\n  event EnergyTransferLog(address adrFrom, address adrTo, uint eVol, uint transferAt);\r\n\r\n// ======= Basic Functionalities =======\r\n\r\n  // --- 0. Upon contract creation and configuration ---\r\n\r\n  function SingleHouse (address adr) GeneralDevice(adr) { }\r\n  \r\n  // --- 1. set and get house consumption every 15 min (or less) ---\r\n\r\n  function setConsumption(uint consum) public ownerOnly {\r\n    consumption = consum;\r\n    consumStatusAt = now;\r\n    ConsumptionLog(owner, consumption, consumStatusAt);\r\n  }\r\n\r\n  function getConsumption() external view timed(consumTimeOut) returns (uint consum, uint consumAt) { \r\n    consum = consumption;\r\n    consumAt = consumStatusAt;\r\n  }\r\n\r\n  // --- 2. ask for connected PV / batteries / grid for price of electricity supply ---\r\n\r\n  function askForPrice() {\r\n    uint tP = 0;\r\n    bool tF = false;\r\n    draftPriceMap.initPrsTable();\r\n    for (i = 0; i < connectedDevice[2].length; i++) {\r\n      (tP,tF) = IBattery(connectedDevice[2][i]).getSalePrice(); \r\n      draftPriceMap.addToPrsTable(connectedDevice[2][i],tP,tF);\r\n    }\r\n    for (uint i = 0; i < connectedDevice[1].length; i++) {\r\n      (tP,tF) = IPV(connectedDevice[1][i]).getPrice();\r\n      draftPriceMap.addToPrsTable(connectedDevice[1][i],tP,tF);\r\n    }\r\n    lastPriceQueryAt = now;\r\n  }\r\n\r\n  // --- 3. House sort all the information internally ---\r\n\r\n  function sortPrice() {\r\n    draftPriceMap.sortPrsTable();\r\n    // if the grid is connected -> add the price from the grid to the end of the sorted list \r\n    if (grid != 0x0) {\r\n      uint tP = 0;\r\n      bool tF = false;\r\n      (tP,tF) = IGrid(grid).getPrice();\r\n      draftPriceMap.addToPrsTable(grid,tP,tF);\r\n    }\r\n  }\r\n\r\n  function getSortedInfo() external view returns(uint consum, uint rank, uint tot, bool updated) {\r\n    consum = consumption;\r\n    (rank,tot,updated) = draftPriceMap.getPrsTable(msg.sender);\r\n  }\r\n\r\n  // --- 4. PV/Battery ask House to confirm energy transaction ---\r\n\r\n  function goNoGo(uint giveoutvol) returns (uint) {\r\n    address adrDevice = msg.sender;\r\n    uint takeoutvol;\r\n    require(connectedDevice[2].assertInside(adrDevice) || connectedDevice[1].assertInside(adrDevice));\r\n    takeoutvol = consumption.findMin(giveoutvol);\r\n    consumption = consumption.clearEnergyTransfer(takeoutvol, address(this));\r\n    //EnergyTransferLog(adrDevice,address(this), takeoutvol, consumption);\r\n    //wallet = wallet.clearMoneyTransfer(-int(takeoutvol*priceQueryInfo[adrDevice].prs), adrDevice);\r\n    wallet -= int(takeoutvol*draftPriceMap.prsTable[adrDevice].prs);\r\n    return (takeoutvol); \r\n  }\r\n\r\n  // --- 5. If house still has energy demand, ask grid for energy ---\r\n\r\n  function buyExtra() {\r\n    // when houses still have extra needs...\r\n    uint whatDeviceAccept;\r\n    uint receivedMoney;\r\n    uint unitPrs;\r\n    require(grid != 0x0);\r\n    if (consumption > 0) {\r\n      (whatDeviceAccept, unitPrs) = IGrid(grid).goExtra(consumption);\r\n      consumption = consumption.clearEnergyTransfer(whatDeviceAccept, address(this));\r\n      receivedMoney = whatDeviceAccept*unitPrs;\r\n      wallet -= int(receivedMoney);\r\n    }\r\n  }\r\n\r\n\r\n  // ------------Functions used in testing------------------\r\n/*\r\n  function getSortedPriceList (uint _id) returns (address) {\r\n    return sortedPriceQueryInfo[_id];\r\n  }\r\n\r\n  function getAskedPrice(address adr) returns (uint,bool) {\r\n    return (priceQueryInfo[adr].prs,priceQueryInfo[adr].updated) ;\r\n  }\r\n\r\n  function askForPricePV(uint i) returns (uint,bool) {\r\n    return IPV(connectedDevice[1][i]).getPrice();\r\n  }\r\n\r\n  function askForPriceB(uint i) returns (uint,bool) {\r\n    return IBattery(connectedDevice[2][i]).getSalePrice();\r\n  }\r\n  */\r\n\r\n  function getConnectPVAddress(uint a) returns (address) {\r\n      return connectedDevice[1][a];\r\n  }\r\n\r\n  function getDraftPrsMap(address adr) public view returns (uint, bool) {\r\n    return (draftPriceMap.prsTable[adr].prs, draftPriceMap.prsTable[adr].updated);\r\n  }\r\n  function getSrtPosition(address adr) public returns (uint, uint, bool) {\r\n    return draftPriceMap.getPrsTable(adr);\r\n  }\r\n\r\n  function getSrtList(uint a) public returns(address, uint, bool) { //address, uint, bool\r\n    return draftPriceMap.getSortedList(a);\r\n  }\r\n}\r\n",
  "sourcePath": "C:\\Users\\qianc\\Documents\\Thesis\\Code\\SimpleMonitor\\contracts\\SingleHouse.sol",
  "compiler": {
    "name": "solc",
    "version": "0.4.18+commit.9cf6e910.Emscripten.clang"
  },
  "schemaVersion": "1.0.1",
  "updatedAt": "2017-11-27T16:02:27.681Z"
}