{
  "contractName": "SinglePV",
  "abi": [
    {
      "constant": true,
      "inputs": [],
      "name": "name",
      "outputs": [
        {
          "name": "",
          "type": "bytes32"
        }
      ],
      "payable": false,
      "stateMutability": "view",
      "type": "function"
    },
    {
      "constant": false,
      "inputs": [
        {
          "name": "adrH",
          "type": "address"
        }
      ],
      "name": "addConnectedHouse",
      "outputs": [],
      "payable": false,
      "stateMutability": "nonpayable",
      "type": "function"
    },
    {
      "constant": false,
      "inputs": [],
      "name": "getWallet",
      "outputs": [
        {
          "name": "",
          "type": "int256"
        }
      ],
      "payable": false,
      "stateMutability": "nonpayable",
      "type": "function"
    },
    {
      "constant": false,
      "inputs": [],
      "name": "askForRank",
      "outputs": [],
      "payable": false,
      "stateMutability": "nonpayable",
      "type": "function"
    },
    {
      "constant": false,
      "inputs": [
        {
          "name": "_id",
          "type": "uint256"
        }
      ],
      "name": "initiateTransaction",
      "outputs": [
        {
          "name": "",
          "type": "uint256"
        },
        {
          "name": "",
          "type": "uint256"
        }
      ],
      "payable": false,
      "stateMutability": "nonpayable",
      "type": "function"
    },
    {
      "constant": false,
      "inputs": [
        {
          "name": "produc",
          "type": "uint256"
        }
      ],
      "name": "setProduction",
      "outputs": [],
      "payable": false,
      "stateMutability": "nonpayable",
      "type": "function"
    },
    {
      "constant": false,
      "inputs": [
        {
          "name": "_id",
          "type": "uint256"
        }
      ],
      "name": "getPrepInfo",
      "outputs": [
        {
          "name": "consum",
          "type": "uint256"
        },
        {
          "name": "rank",
          "type": "uint256"
        },
        {
          "name": "tot",
          "type": "uint256"
        }
      ],
      "payable": false,
      "stateMutability": "nonpayable",
      "type": "function"
    },
    {
      "constant": false,
      "inputs": [],
      "name": "sellExcess",
      "outputs": [],
      "payable": false,
      "stateMutability": "nonpayable",
      "type": "function"
    },
    {
      "constant": false,
      "inputs": [
        {
          "name": "adrB",
          "type": "address"
        }
      ],
      "name": "addConnectedBattery",
      "outputs": [],
      "payable": false,
      "stateMutability": "nonpayable",
      "type": "function"
    },
    {
      "constant": false,
      "inputs": [
        {
          "name": "adr",
          "type": "address"
        }
      ],
      "name": "setGridAdr",
      "outputs": [],
      "payable": false,
      "stateMutability": "nonpayable",
      "type": "function"
    },
    {
      "constant": true,
      "inputs": [],
      "name": "owner",
      "outputs": [
        {
          "name": "",
          "type": "address"
        }
      ],
      "payable": false,
      "stateMutability": "view",
      "type": "function"
    },
    {
      "constant": false,
      "inputs": [],
      "name": "getProduction",
      "outputs": [
        {
          "name": "prod",
          "type": "uint256"
        },
        {
          "name": "prodAt",
          "type": "uint256"
        }
      ],
      "payable": false,
      "stateMutability": "nonpayable",
      "type": "function"
    },
    {
      "constant": false,
      "inputs": [
        {
          "name": "prs",
          "type": "uint256"
        }
      ],
      "name": "setPrice",
      "outputs": [],
      "payable": false,
      "stateMutability": "nonpayable",
      "type": "function"
    },
    {
      "constant": false,
      "inputs": [],
      "name": "getPrice",
      "outputs": [
        {
          "name": "prs",
          "type": "uint256"
        },
        {
          "name": "updatedOrNot",
          "type": "bool"
        }
      ],
      "payable": false,
      "stateMutability": "nonpayable",
      "type": "function"
    },
    {
      "constant": false,
      "inputs": [
        {
          "name": "_id",
          "type": "uint256"
        }
      ],
      "name": "getSortedInfo",
      "outputs": [
        {
          "name": "adr",
          "type": "address"
        },
        {
          "name": "consum",
          "type": "uint256"
        },
        {
          "name": "rank",
          "type": "uint256"
        },
        {
          "name": "tot",
          "type": "uint256"
        }
      ],
      "payable": false,
      "stateMutability": "nonpayable",
      "type": "function"
    },
    {
      "constant": false,
      "inputs": [],
      "name": "sortRankList",
      "outputs": [],
      "payable": false,
      "stateMutability": "nonpayable",
      "type": "function"
    },
    {
      "inputs": [
        {
          "name": "adr",
          "type": "address"
        }
      ],
      "payable": false,
      "stateMutability": "nonpayable",
      "type": "constructor"
    },
    {
      "anonymous": false,
      "inputs": [
        {
          "indexed": false,
          "name": "adr",
          "type": "address"
        },
        {
          "indexed": false,
          "name": "produc",
          "type": "uint256"
        },
        {
          "indexed": false,
          "name": "prodAt",
          "type": "uint256"
        }
      ],
      "name": "ProductionLog",
      "type": "event"
    },
    {
      "anonymous": false,
      "inputs": [
        {
          "indexed": false,
          "name": "confMod",
          "type": "string"
        },
        {
          "indexed": false,
          "name": "statusAt",
          "type": "uint256"
        }
      ],
      "name": "ConfigurationLog",
      "type": "event"
    },
    {
      "anonymous": false,
      "inputs": [
        {
          "indexed": false,
          "name": "updateAt",
          "type": "uint256"
        }
      ],
      "name": "PriceUpdate",
      "type": "event"
    }
  ],
  "bytecode": "0x606060405260018054600160a060020a031916905561012c6002819055600355341561002a57600080fd5b6040516020806112fb8339810160405280805160058054600160a060020a03928316600160a060020a031991821617909155600080543390931692909116919091179055505061127c8061007f6000396000f3006060604052600436106100cc5763ffffffff60e060020a60003504166306fdde0381146100d15780630a71db5e146100f657806313299604146101175780633d7224dc1461012a5780633fd2007d1461013d578063567cc2b61461016b57806366b294431461018157806367a2829d146101bb5780638ad5366f146101ce5780638d646b11146101ed5780638da5cb5b1461020c5780638e4dfebb1461023b57806391b7f5ed1461024e57806398d5fdca14610264578063d5adad5414610291578063fba30167146102e4575b600080fd5b34156100dc57600080fd5b6100e46102f7565b60405190815260200160405180910390f35b341561010157600080fd5b610115600160a060020a03600435166102fd565b005b341561012257600080fd5b6100e46103b9565b341561013557600080fd5b6101156103c0565b341561014857600080fd5b6101536004356107b3565b60405191825260208201526040908101905180910390f35b341561017657600080fd5b610115600435610af0565b341561018c57600080fd5b610197600435610b7f565b60405180848152602001838152602001828152602001935050505060405180910390f35b34156101c657600080fd5b610115610bf4565b34156101d957600080fd5b610115600160a060020a0360043516610e9c565b34156101f857600080fd5b610115600160a060020a0360043516610f59565b341561021757600080fd5b61021f610f90565b604051600160a060020a03909116815260200160405180910390f35b341561024657600080fd5b610153610f9f565b341561025957600080fd5b610115600435610fa9565b341561026f57600080fd5b610277611003565b604051918252151560208201526040908101905180910390f35b341561029c57600080fd5b6102a7600435611028565b6040518085600160a060020a0316600160a060020a0316815260200184815260200183815260200182815260200194505050505060405180910390f35b34156102ef57600080fd5b610115611062565b60065481565b60005433600160a060020a03908116911614156100cc57600b80546001810161032683826111bb565b5060009182526020909120018054600160a060020a031916600160a060020a0383161790557f34ff05936c7ffe85555df53a7bf1374ed025703c493a74c4ce3316646f950e1642604051602081019190915260408082526012818301527f486f757365206c696e6b656420746f205056000000000000000000000000000060608301526080909101905180910390a15b50565b6004545b90565b600c54600b5460009182918291829182918291016103df600d826111df565b50600090505b600b548110156105bb57600b8054829081106103fd57fe5b6000918252602082200154600160a060020a0316906338a3528c90604051608001526040518163ffffffff1660e060020a028152600401608060405180830381600087803b151561044d57600080fd5b6102c65a03f1151561045e57600080fd5b505050604051805190602001805190602001805190602001805193995091975095509093505082156105b3576060604051908101604052808781526020018681526020018581525060106000600b848154811015156104b957fe5b6000918252602080832090910154600160a060020a03168352820192909252604001902081518155602082015181600101556040820151816002015590505060106000600b8381548110151561050b57fe5b6000918252602080832090910154600160a060020a031683528201929092526040019020600d80548490811061053d57fe5b60009182526020909120825460039092020190815560018083015490820155600291820154910155600b80548290811061057357fe5b6000918252602080832090910154848352601190915260409091208054600160a060020a031916600160a060020a03909216919091179055600191909101905b6001016103e5565b5060005b600c5481101561079557600c8054829081106105d757fe5b6000918252602082200154600160a060020a03169063cf7fc76290604051608001526040518163ffffffff1660e060020a028152600401608060405180830381600087803b151561062757600080fd5b6102c65a03f1151561063857600080fd5b5050506040518051906020018051906020018051906020018051939950919750955090935050821561078d576060604051908101604052808781526020018681526020018581525060106000600c8481548110151561069357fe5b6000918252602080832090910154600160a060020a03168352820192909252604001902081518155602082015181600101556040820151816002015590505060106000600c838154811015156106e557fe5b6000918252602080832090910154600160a060020a031683528201929092526040019020600d80548490811061071757fe5b60009182526020909120825460039092020190815560018083015490820155600291820154910155600c80548290811061074d57fe5b6000918252602080832090910154848352601190915260409091208054600160a060020a031916600160a060020a03909216919091179055600191909101905b6001016105bf565b600e829055816107a6600d826111df565b505042600f555050505050565b600081815260116020908152604080832054600754600160a060020a039091168085526010909352818420548493849390928492839273__TransactLib___________________________9263bc2e368c9290918590516020015260405160e060020a63ffffffff85160281526004810192909252602482015260440160206040518083038186803b151561084757600080fd5b6102c65a03f4151561085857600080fd5b5050506040518051945073__AdrLib________________________________90506354859436600c8560006040516020015260405160e060020a63ffffffff85160281526004810192909252600160a060020a0316602482015260440160206040518083038186803b15156108cc57600080fd5b6102c65a03f415156108dd57600080fd5b5050506040518051905015610a075782600160a060020a0316630ff372828560006040516020015260405160e060020a63ffffffff84160281526004810191909152602401602060405180830381600087803b151561093b57600080fd5b6102c65a03f1151561094c57600080fd5b50505060405180516007805482900390556009546004549194508402925073__TransactLib___________________________915063e2992d299083863060006040516020015260405160e060020a63ffffffff871602815260048101949094526024840192909252600160a060020a03908116604484015216606482015260840160206040518083038186803b15156109e557600080fd5b6102c65a03f415156109f657600080fd5b505050604051805160045550610ae3565b73__AdrLib________________________________6354859436600b8560006040516020015260405160e060020a63ffffffff85160281526004810192909252600160a060020a0316602482015260440160206040518083038186803b1515610a6f57600080fd5b6102c65a03f41515610a8057600080fd5b5050506040518051905015610ade5782600160a060020a0316630ff372828560006040516020015260405160e060020a63ffffffff84160281526004810191909152602401602060405180830381600087803b151561093b57600080fd5b600091505b5091959194509092505050565b60055433600160a060020a03908116911614156100cc5760078190554260088190556005547fdf963fee409850630585bd095a505a9a956ef373cd706eb6eddec02d0a36731991600160a060020a039091169083906040518084600160a060020a0316600160a060020a03168152602001838152602001828152602001935050505060405180910390a16103b6565b6000806000600d84815481101515610b9357fe5b9060005260206000209060030201600001549250600d84815481101515610bb657fe5b9060005260206000209060030201600101549150600d84815481101515610bd957fe5b90600052602060002090600302016002015490509193909250565b6000806000806000806007541115610e9557600c5415610d64575060005b600c54811015610d5f57600c805482908110610c2a57fe5b6000918252602082200154600754600160a060020a03909116935083916335f7f5e291906040516040015260405160e060020a63ffffffff841602815260048101919091526024016040805180830381600087803b1515610c8a57600080fd5b6102c65a03f11515610c9b57600080fd5b50505060405180519060200180516007805484900390556004549297508781029650945073__TransactLib___________________________9163e2992d29915086853060006040516020015260405160e060020a63ffffffff871602815260048101949094526024840192909252600160a060020a03908116604484015216606482015260840160206040518083038186803b1515610d3a57600080fd5b6102c65a03f41515610d4b57600080fd5b505050604051805160045550600101610c12565b610e95565b600154600754600160a060020a03909116906335f7f5e29060006040516040015260405160e060020a63ffffffff841602815260048101919091526024016040805180830381600087803b1515610dba57600080fd5b6102c65a03f11515610dcb57600080fd5b5050506040518051906020018051600780548490039055600454600154939850888202975090955073__TransactLib___________________________9263e2992d2992508790600160a060020a03163060006040516020015260405160e060020a63ffffffff871602815260048101949094526024840192909252600160a060020a03908116604484015216606482015260840160206040518083038186803b1515610e7757600080fd5b6102c65a03f41515610e8857600080fd5b5050506040518051600455505b5050505050565b60005433600160a060020a03908116911614156100cc57600c805460018101610ec583826111bb565b5060009182526020909120018054600160a060020a031916600160a060020a0383161790557f34ff05936c7ffe85555df53a7bf1374ed025703c493a74c4ce3316646f950e1642604051602081019190915260408082526014818301527f42617474657279206c696e6b656420746f20505600000000000000000000000060608301526080909101905180910390a16103b6565b60005433600160a060020a03908116911614156100cc5760018054600160a060020a031916600160a060020a0383161790556103b6565b600554600160a060020a031681565b6007546008549091565b60055433600160a060020a03908116911614156100cc57600981905542600a8190557fae46785019700e30375a5d7b4f91e32f8060ef085111f896ebf889450aa2ab5a9060405190815260200160405180910390a16103b6565b600954600354600a54600091429101101561102057506000611024565b5060015b9091565b600090815260116020908152604080832054600160a060020a03168084526010909252909120805460018201546002909201549293909290565b6000805b600e548110156111645773__SortRLib______________________________63f37de025600d60006040516020015260405160e060020a63ffffffff8416028152600481019190915260240160206040518083038186803b15156110c957600080fd5b6102c65a03f415156110da57600080fd5b5050506040518051905091506110f281838301611168565b73__SortRLib______________________________63b5762770600d8460405160e060020a63ffffffff85160281526004810192909252602482015260440160006040518083038186803b151561114857600080fd5b6102c65a03f4151561115957600080fd5b505050600101611066565b5050565b60008282146111b657506000828152601160205260408082208054848452919092208054600160a060020a0319808416600160a060020a039283161790945581549093169290911691821790555b505050565b8154818355818115116111b6576000838152602090206111b691810190830161120b565b8154818355818115116111b6576003028160030283600052602060002091820191016111b69190611229565b6103bd91905b808211156112255760008155600101611211565b5090565b6103bd91905b8082111561122557600080825560018201819055600282015560030161122f5600a165627a7a72305820e21dd6e97e22a4ab86e7c29093787e49df42efe5254aac33ffb144f517c8ce740029",
  "source": "pragma solidity ^0.4.4;\n\nimport \"./IPV.sol\";\nimport \"./IHouse.sol\";\nimport \"./IBattery.sol\";\nimport \"./IGrid.sol\";\nimport \"./SortRLib.sol\";\nimport \"./AdrLib.sol\";\nimport \"./TransactLib.sol\";\n\ncontract SinglePV is IPV {\n  \n  using AdrLib for address[];\n  using TransactLib for *;\n  // one contract is associated to one particular PV panel in the network.\n  // later we need to modify the parent contract that creates each PV contract - configuration.sol\n  //address Admin;                    // shall be defined at the creation of contract or to be defined manually\n  address public owner;\n  bytes32 public name;              // name of the device (Serie No.)\n  uint    production;               // Production of electricity (supply: negative)\n  uint    prodStatusAt;             // timestamp of the update (prod)\n  //uint    prodTimeOut = 5 minutes;\n  uint    price;\n  uint    priceStatusAt;            // timestamp of the update (price)\n  //uint    priceTimeOut = 5 minutes;\n  //mapping(address=>bool) connectedHouse;      // List of households connected\n  // mapping(address=>bool) connectedBattery;   // List of batteries connected\n  //uint    connectedHouseNum;\n  //uint    connectedBatteryNum;  \n  //address grid = 0x0;                     // contract address of grid\n  address[] connectedHouse;         // List of households connected\n  address[] connectedBattery;       // List of batteries connected\n\n  /*struct Request {\n    uint  consump;\n    uint  rank;\n    uint  total;\n  } */\n\n  using SortRLib for SortRLib.Request[];\n  SortRLib.Request[] prepRankingInfo;\n\n  uint    rLength;\n  uint    lastRankingAt;\n  mapping(address=>SortRLib.Request) RankingInfo;\n  mapping(uint=>address) sortedRankingInfo;\n\n  /*function askForRankTEST() returns (uint, uint) {\n    uint consum;\n    uint rank;\n    uint tot;\n    bool updated;\n    uint num1 = 0;\n    uint num2 = 0;\n    prepRankingInfo.length = connectedHouse.length+connectedBattery.length;\n\n    for (uint i = 0; i < connectedHouse.length; i++) {\n      \n      (consum, rank, tot, updated) = IHouse(connectedHouse[i]).getSortedInfo();\n      GetSortedInfo(connectedHouse[i], consum, rank, tot, updated);\n      RankingInfo[connectedHouse[i]] = SortRLib.Request(consum, rank, tot);\n\n      prepRankingInfo[num1] = RankingInfo[connectedHouse[i]];\n      num1++;\n    }\n\n    for (i = 0; i < connectedBattery.length; i++) {\n        num2++;\n    }\n\n    return (num1, num2);\n  }*/\n\n  function getPrepInfo(uint _id) returns(uint consum, uint rank, uint tot) {\n    consum = prepRankingInfo[_id].consump;\n    rank = prepRankingInfo[_id].rank;\n    tot = prepRankingInfo[_id].total;\n  }\n\n  function askForRank() {\n    // ask and prepare for sorting the ranking...\n    uint consum;\n    uint rank;\n    uint tot;\n    bool updated;\n    uint num;\n    prepRankingInfo.length = connectedHouse.length+connectedBattery.length;\n    for (uint i = 0; i < connectedHouse.length; i++) {\n      (consum, rank, tot, updated) = IHouse(connectedHouse[i]).getSortedInfo();\n      //GetSortedInfo(connectedHouse[i], consum, rank, tot, updated);\n      if (updated) {\n        RankingInfo[connectedHouse[i]] = SortRLib.Request(consum, rank, tot);\n        prepRankingInfo[num] = RankingInfo[connectedHouse[i]];\n        sortedRankingInfo[num] = connectedHouse[i];\n        num++;\n      }\n    }\n    for (i = 0; i < connectedBattery.length; i++) {\n      (consum,rank,tot,updated) = IBattery(connectedBattery[i]).getSortedPVInfo();\n      //GetSortedInfo(connectedBattery[i], consum, rank, tot, updated);\n      if (updated) {\n        RankingInfo[connectedBattery[i]] = SortRLib.Request(consum, rank, tot);\n        prepRankingInfo[num] = RankingInfo[connectedBattery[i]];\n        sortedRankingInfo[num] = connectedBattery[i];\n        num++;\n      }\n    }\n    rLength = num;\n    prepRankingInfo.length = num;\n    lastRankingAt = now;\n  }\n  // This event is only for testing reason\n  //event GetSortedInfo(address device, uint consum, uint rank, uint tot, bool updated);\n\n  function swap (uint _id1, uint _id2) private {\n    if (_id1 != _id2) {\n      address temp;\n      temp = sortedRankingInfo[_id1];\n      sortedRankingInfo[_id1] = sortedRankingInfo[_id2];\n      sortedRankingInfo[_id2] = temp;   \n    }\n  }\n\n  function sortRankList() {\n    uint minTemp;\n    for (uint i=0; i<rLength; i++) {\n      minTemp = prepRankingInfo.minStruct();\n      swap(i,i+minTemp);\n      prepRankingInfo.del(minTemp);\n    }\n    /*\n    // In case there is still excess, need to ask connectedBattery to buy for the extra...as much as possible\n    if (connectedBattery.length != 0) {\n      for (i=0; i<connectedBattery.length; i++) {\n        uint prs = 0;\n        uint cap = 0;\n        (prs, cap) = IBattery(grid).getExcess();\n      \n      }\n      \n    }\n    // if the grid is connected -> add the price from the grid to the end of the sorted list \n    if (grid != 0x0) {\n      uint tP = 0;\n      bool tF = false;\n      (tP,tF) = IGrid(grid).getPrice();\n      setPriceQueryInfo(grid,tP,tF);\n      sortedPriceQueryInfo[num] = grid;\n    }*/\n  }\n\n\n  function getSortedInfo(uint _id) returns(address adr, uint consum, uint rank, uint tot) {\n    adr = sortedRankingInfo[_id];\n    consum = RankingInfo[adr].consump;\n    rank = RankingInfo[adr].rank;\n    tot = RankingInfo[adr].total;\n  }\n  \n  function initiateTransaction(uint _id) returns (uint, uint) {\n    uint giveoutVol;\n    address adr;\n    uint whatDeviceAccept;\n    uint receivedMoney;\n    //for (uint i = 0; i < rLength; i++) {\n      adr = sortedRankingInfo[_id];\n      giveoutVol = production.findMin(RankingInfo[adr].consump);\n      if (connectedBattery.AssertInside(adr)) {\n        whatDeviceAccept = IBattery(adr).goNoGo(giveoutVol);\n        production -= whatDeviceAccept;\n        receivedMoney = whatDeviceAccept*price;\n        wallet = wallet.clearMoneyTransfer(receivedMoney,adr, address(this));\n      } else if (connectedHouse.AssertInside(adr)) {\n        whatDeviceAccept = IHouse(adr).goNoGo(giveoutVol);\n        production -= whatDeviceAccept;\n        receivedMoney = whatDeviceAccept*price;\n        wallet = wallet.clearMoneyTransfer(receivedMoney,adr, address(this));\n      } else {\n        whatDeviceAccept = 0; \n      }\n      return(giveoutVol, whatDeviceAccept);\n    //}\n  }\n\n  function sellExcess() {\n    // after all, if there's still excess and the connected Battery still have the capacity.\n    uint whatDeviceAccept;\n    uint receivedMoney;\n    uint unitPrs;\n    address adr;\n    if (production > 0) {\n      //ToBattery\n      if (connectedBattery.length != 0) {\n        for (uint i = 0; i < connectedBattery.length; i++) {\n          adr = connectedBattery[i];\n          (whatDeviceAccept, unitPrs) = IBattery(adr).goExcess(production);\n          production -= whatDeviceAccept;\n          receivedMoney = whatDeviceAccept*unitPrs;\n          wallet = wallet.clearMoneyTransfer(receivedMoney,adr, address(this));\n        }\n      } else {\n        //ToGrid (by default, it's connected to grid)\n        (whatDeviceAccept, unitPrs) = IGrid(grid).goExcess(production);\n        production -= whatDeviceAccept;\n        receivedMoney = whatDeviceAccept*unitPrs;\n        wallet = wallet.clearMoneyTransfer(receivedMoney,grid, address(this));\n      }\n    }\n  }\n  \n  modifier ownerOnly {\n    if (msg.sender == owner) {\n      _;\n    } else {\n      revert();\n    }\n  }\n\n  modifier connectedHouseOnly {\n    if (connectedHouse.AssertInside(msg.sender) == true) {\n      _;\n    } else {\n      revert();\n    }\n  }\n\n  modifier connectedBatteryOnly (address adrB) {\n    var check = false;\n    for (uint i = 0; i < connectedBattery.length; i++) {\n      if (msg.sender == connectedBattery[i]) {\n        check = true;\n      }\n    }\n    if (check == true) {\n      _;\n    } else {\n      revert();\n    }\n  }\n\n  modifier timed (uint initialTime, uint allowedTimeOut){\n    if(now < initialTime + allowedTimeOut){\n      _;\n    } else {\n      revert();\n    }\n  }\n\n  event ProductionLog(address adr, uint produc, uint prodAt);\n  event ConfigurationLog(string confMod, uint statusAt);\n  event PriceUpdate(uint updateAt);\n  \n\n  function SinglePV(address adr) { // Here we are still using adr in the constructor, but later maybe we should change the adr input into byte32, by a harshed device identifier\n    // constructor\n    owner = adr;\n    Admin = msg.sender;\n  }\n\n  function setProduction(uint produc) ownerOnly {\n    production = produc;\n    prodStatusAt = now;\n    ProductionLog(owner, production, prodStatusAt);\n  }\n\n  function setPrice(uint prs) ownerOnly {\n    price = prs;\n    priceStatusAt = now;\n    PriceUpdate(now);\n  }\n\n  function setGridAdr(address adr) adminOnly external {\n    grid = adr;\n  }\n\n  function addConnectedHouse(address adrH) adminOnly external {\n    connectedHouse.push(adrH);\n    ConfigurationLog(\"House linked to PV\",now);\n  }\n\n  /*\n  function deleteConnectedHouse(address adrH) adminOnly external returns (bool) {\n    for (uint i = 0; i < connectedHouse.length; i++) {\n      if (adrH == connectedHouse[i]) {\n        delete connectedHouse[i];\n        if (i != connectedHouse.length-1) {\n          connectedHouse[i] = connectedHouse[connectedHouse.length-1];\n        }\n        connectedHouse.length--;\n        ConfigurationLog(\"House Deleted\",now);\n        return true;\n      }\n    }\n    return false;\n  }*/\n\n  function addConnectedBattery(address adrB) adminOnly external {\n    connectedBattery.push(adrB);\n    ConfigurationLog(\"Battery linked to PV\",now);\n\n  }\n\n  /*\n  function deleteConnectedBattery(address adrB) adminOnly external returns (bool) {\n    for (uint i = 0; i < connectedBattery.length; i++) {\n      if (adrB == connectedBattery[i]) {\n        delete connectedBattery[i];\n        if (i != connectedBattery.length-1) {\n          connectedBattery[i] = connectedBattery[connectedBattery.length-1];\n        }\n        connectedBattery.length--;\n        ConfigurationLog(\"Battery Deleted\",now);\n        return true;\n      }\n    }\n    return false;\n  }*/\n\n  function getProduction() external returns (uint prod, uint prodAt) {//timed(queryTime,prodTimeOut)\n    prod = production;\n    prodAt = prodStatusAt;\n  }\n\n  function getPrice() returns (uint prs, bool updatedOrNot) { //connectedHouseOnly external\n    prs = price;\n    //prsAt = priceStatusAt;\n    if (priceStatusAt + priceTimeOut < now) {\n      updatedOrNot = false;\n    } else {\n      updatedOrNot = true;\n    }\n    //adr = owner;\n  }\n}\n",
  "sourcePath": "C:\\Users\\qianc\\Documents\\Thesis\\Code\\SimpleMonitor\\contracts\\SinglePV.sol",
  "compiler": {
    "name": "solc",
    "version": "0.4.18+commit.9cf6e910.Emscripten.clang"
  },
  "schemaVersion": "1.0.1",
  "updatedAt": "2017-11-10T21:31:08.206Z"
}