{
  "contractName": "SingleHouse",
  "abi": [
    {
      "constant": false,
      "inputs": [
        {
          "name": "giveoutvol",
          "type": "uint256"
        }
      ],
      "name": "goNoGo",
      "outputs": [
        {
          "name": "",
          "type": "uint256"
        }
      ],
      "payable": false,
      "stateMutability": "nonpayable",
      "type": "function"
    },
    {
      "constant": true,
      "inputs": [],
      "name": "getWallet",
      "outputs": [
        {
          "name": "",
          "type": "int256"
        }
      ],
      "payable": false,
      "stateMutability": "view",
      "type": "function"
    },
    {
      "constant": false,
      "inputs": [
        {
          "name": "adr",
          "type": "address"
        }
      ],
      "name": "getSortedHInfo",
      "outputs": [
        {
          "name": "consum",
          "type": "uint256"
        },
        {
          "name": "rank",
          "type": "uint256"
        },
        {
          "name": "tot",
          "type": "uint256"
        },
        {
          "name": "updated",
          "type": "bool"
        }
      ],
      "payable": false,
      "stateMutability": "nonpayable",
      "type": "function"
    },
    {
      "constant": false,
      "inputs": [],
      "name": "getSortedInfo",
      "outputs": [
        {
          "name": "consum",
          "type": "uint256"
        },
        {
          "name": "rank",
          "type": "uint256"
        },
        {
          "name": "tot",
          "type": "uint256"
        },
        {
          "name": "updated",
          "type": "bool"
        }
      ],
      "payable": false,
      "stateMutability": "nonpayable",
      "type": "function"
    },
    {
      "constant": false,
      "inputs": [],
      "name": "buyExtra",
      "outputs": [],
      "payable": false,
      "stateMutability": "nonpayable",
      "type": "function"
    },
    {
      "constant": false,
      "inputs": [],
      "name": "sortDraftPrsMap",
      "outputs": [],
      "payable": false,
      "stateMutability": "nonpayable",
      "type": "function"
    },
    {
      "constant": false,
      "inputs": [
        {
          "name": "consum",
          "type": "uint256"
        }
      ],
      "name": "setConsumption",
      "outputs": [],
      "payable": false,
      "stateMutability": "nonpayable",
      "type": "function"
    },
    {
      "constant": true,
      "inputs": [
        {
          "name": "adr",
          "type": "address"
        }
      ],
      "name": "getDraftPrsMap",
      "outputs": [
        {
          "name": "",
          "type": "uint256"
        },
        {
          "name": "",
          "type": "bool"
        }
      ],
      "payable": false,
      "stateMutability": "view",
      "type": "function"
    },
    {
      "constant": false,
      "inputs": [
        {
          "name": "adr",
          "type": "address"
        }
      ],
      "name": "getSrtPosition",
      "outputs": [
        {
          "name": "",
          "type": "uint256"
        }
      ],
      "payable": false,
      "stateMutability": "nonpayable",
      "type": "function"
    },
    {
      "constant": true,
      "inputs": [],
      "name": "getConsumption",
      "outputs": [
        {
          "name": "consum",
          "type": "uint256"
        },
        {
          "name": "consumAt",
          "type": "uint256"
        }
      ],
      "payable": false,
      "stateMutability": "view",
      "type": "function"
    },
    {
      "constant": false,
      "inputs": [],
      "name": "sortPriceList",
      "outputs": [],
      "payable": false,
      "stateMutability": "nonpayable",
      "type": "function"
    },
    {
      "constant": false,
      "inputs": [
        {
          "name": "adr",
          "type": "address"
        }
      ],
      "name": "setGridAdr",
      "outputs": [],
      "payable": false,
      "stateMutability": "nonpayable",
      "type": "function"
    },
    {
      "constant": false,
      "inputs": [
        {
          "name": "a",
          "type": "uint256"
        }
      ],
      "name": "getSrtList",
      "outputs": [
        {
          "name": "",
          "type": "address"
        },
        {
          "name": "",
          "type": "uint256"
        },
        {
          "name": "",
          "type": "bool"
        }
      ],
      "payable": false,
      "stateMutability": "nonpayable",
      "type": "function"
    },
    {
      "constant": false,
      "inputs": [
        {
          "name": "adr",
          "type": "address"
        }
      ],
      "name": "getSortedPosition",
      "outputs": [
        {
          "name": "",
          "type": "uint256"
        }
      ],
      "payable": false,
      "stateMutability": "nonpayable",
      "type": "function"
    },
    {
      "constant": false,
      "inputs": [
        {
          "name": "a",
          "type": "uint256"
        },
        {
          "name": "adr",
          "type": "address"
        }
      ],
      "name": "addConnectedDevice",
      "outputs": [],
      "payable": false,
      "stateMutability": "nonpayable",
      "type": "function"
    },
    {
      "constant": false,
      "inputs": [],
      "name": "askForPrice",
      "outputs": [],
      "payable": false,
      "stateMutability": "nonpayable",
      "type": "function"
    },
    {
      "constant": false,
      "inputs": [
        {
          "name": "a",
          "type": "uint256"
        }
      ],
      "name": "getConnectPVAddress",
      "outputs": [
        {
          "name": "",
          "type": "address"
        }
      ],
      "payable": false,
      "stateMutability": "nonpayable",
      "type": "function"
    },
    {
      "constant": true,
      "inputs": [],
      "name": "Admin",
      "outputs": [
        {
          "name": "",
          "type": "address"
        }
      ],
      "payable": false,
      "stateMutability": "view",
      "type": "function"
    },
    {
      "inputs": [
        {
          "name": "adr",
          "type": "address"
        }
      ],
      "payable": false,
      "stateMutability": "nonpayable",
      "type": "constructor"
    },
    {
      "anonymous": false,
      "inputs": [
        {
          "indexed": false,
          "name": "adr",
          "type": "address"
        },
        {
          "indexed": false,
          "name": "consum",
          "type": "uint256"
        },
        {
          "indexed": false,
          "name": "consumAt",
          "type": "uint256"
        }
      ],
      "name": "ConsumptionLog",
      "type": "event"
    },
    {
      "anonymous": false,
      "inputs": [
        {
          "indexed": false,
          "name": "confMod",
          "type": "string"
        },
        {
          "indexed": false,
          "name": "statusAt",
          "type": "uint256"
        }
      ],
      "name": "ConfigurationLog",
      "type": "event"
    },
    {
      "anonymous": false,
      "inputs": [
        {
          "indexed": false,
          "name": "adrFrom",
          "type": "address"
        },
        {
          "indexed": false,
          "name": "adrTo",
          "type": "address"
        },
        {
          "indexed": false,
          "name": "eVol",
          "type": "uint256"
        },
        {
          "indexed": false,
          "name": "transferAt",
          "type": "uint256"
        }
      ],
      "name": "EnergyTransferLog",
      "type": "event"
    }
  ],
  "bytecode": "0x606060405260038054600160a060020a031916905561012c600655341561002557600080fd5b6040516020806118038339810160405280805160018054600160a060020a03928316600160a060020a03199182161790915560008054339093169290911691909117905550506117898061007a6000396000f3006060604052600436106100e25763ffffffff60e060020a6000350416630ff3728281146100e7578063132996041461010f5780631628ce6c1461012257806338a3528c1461016d5780633acca96d14610180578063463f1702146101955780635a500ecc146101a85780635eec5fae146101be5780635f5a786e146101f75780638a5cb1b6146102165780638b874f72146102415780638d646b11146102545780639eb5381914610273578063b148f82b146102b9578063bfd11903146102d8578063c9746029146102fa578063e7e274101461030d578063ff1b636d1461033f575b600080fd5b34156100f257600080fd5b6100fd600435610352565b60405190815260200160405180910390f35b341561011a57600080fd5b6100fd6105dc565b341561012d57600080fd5b610141600160a060020a03600435166105e3565b604051938452602084019290925260408084019190915290151560608301526080909101905180910390f35b341561017857600080fd5b61014161068d565b341561018b57600080fd5b6101936106aa565b005b34156101a057600080fd5b6101936107f5565b34156101b357600080fd5b610193600435610976565b34156101c957600080fd5b6101dd600160a060020a0360043516610a04565b604051918252151560208201526040908101905180910390f35b341561020257600080fd5b6100fd600160a060020a0360043516610a2c565b341561022157600080fd5b610229610ab5565b60405191825260208201526040908101905180910390f35b341561024c57600080fd5b610193610ad6565b341561025f57600080fd5b610193600160a060020a0360043516610d28565b341561027e57600080fd5b610289600435610d5f565b604051600160a060020a039093168352602083019190915215156040808301919091526060909101905180910390f35b34156102c457600080fd5b6100fd600160a060020a0360043516610df4565b34156102e357600080fd5b610193600435600160a060020a0360243516610e6f565b341561030557600080fd5b610193610ece565b341561031857600080fd5b61032360043561135d565b604051600160a060020a03909116815260200160405180910390f35b341561034a57600080fd5b61032361139f565b600260009081526005602052338173__AdrLib________________________________632c2fc20e60008051602061173e83398151915284846040516020015260405160e060020a63ffffffff85160281526004810192909252600160a060020a0316602482015260440160206040518083038186803b15156103d457600080fd5b6102c65a03f415156103e557600080fd5b5050506040518051905080610494575060016000908152600560205273__AdrLib________________________________90632c2fc20e9060008051602061171e8339815191529085906040516020015260405160e060020a63ffffffff85160281526004810192909252600160a060020a0316602482015260440160206040518083038186803b151561047857600080fd5b6102c65a03f4151561048957600080fd5b505050604051805190505b151561049f57600080fd5b60075473__TransactLib___________________________63bc2e368c90918660006040516020015260405160e060020a63ffffffff85160281526004810192909252602482015260440160206040518083038186803b151561050157600080fd5b6102c65a03f4151561051257600080fd5b50505060405180519050905060075473__TransactLib___________________________639e5fd0a99091833060006040516020015260405160e060020a63ffffffff861602815260048101939093526024830191909152600160a060020a0316604482015260640160206040518083038186803b151561059257600080fd5b6102c65a03f415156105a357600080fd5b505050604051805160075550600160a060020a0382166000908152600f6020526040902054600480549183029091039055915050919050565b6004545b90565b600754600080806105f385610df4565b600354909350600160a060020a03161561063e57600560205260008051602061173e833981519152546001600081905260008051602061171e8339815191525490910101915061066c565b600560205260008051602061173e83398151915254600160005260008051602061171e833981519152540191505b42600654600e5401101561068257506000610686565b5060015b9193509193565b60008060008061069c336105e3565b935093509350935090919293565b60035460009081908190600160a060020a031615156106c857600080fd5b600060075411156107f057600354600754600160a060020a0390911690636e2855449060006040516040015260405160e060020a63ffffffff841602815260048101919091526024016040805180830381600087803b151561072957600080fd5b6102c65a03f1151561073a57600080fd5b5050506040518051906020018051600754929550925073__TransactLib___________________________91639e5fd0a99150853060006040516020015260405160e060020a63ffffffff861602815260048101939093526024830191909152600160a060020a0316604482015260640160206040518083038186803b15156107c257600080fd5b6102c65a03f415156107d357600080fd5b505050604051805160075550600480548483029081900390915591505b505050565b60008073__SortLib_______________________________635945fd7c600a60405160e060020a63ffffffff8416028152600481019190915260240160006040518083038186803b151561084857600080fd5b6102c65a03f4151561085957600080fd5b5050600354600160a060020a03161590506109725750506003546000908190600160a060020a03166398d5fdca82604051604001526040518163ffffffff1660e060020a0281526004016040805180830381600087803b15156108bb57600080fd5b6102c65a03f115156108cc57600080fd5b5050506040518051906020018051600354929450925073__SortLib_______________________________91638092f3689150600a90600160a060020a0316858560405160e060020a63ffffffff87160281526004810194909452600160a060020a03909216602484015260448301521515606482015260840160006040518083038186803b151561095d57600080fd5b6102c65a03f4151561096e57600080fd5b5050505b5050565b60015433600160a060020a03908116911614156100e25760078190554260088190556001547f93e0cabaa551645c58979b9f1e87af3e09f708241c9bdd6468e581ad0651692691600160a060020a039091169083906040518084600160a060020a0316600160a060020a03168152602001838152602001828152602001935050505060405180910390a15b50565b600160a060020a0381166000908152600a60205260409020805460019091015460ff16915091565b600073__SortLib_______________________________63b08ac9cc600a84846040516020015260405160e060020a63ffffffff85160281526004810192909252600160a060020a0316602482015260440160206040518083038186803b1515610a9557600080fd5b6102c65a03f41515610aa657600080fd5b50505060405180519392505050565b60008060065480600854014210156100e25760075492506008549150509091565b6000806000806000610ae66113ae565b600560205260008051602061173e833981519152546001600090815260008051602061171e83398151915254909101945092505b83831015610c1c5773__SortLib_______________________________63f27da568600960006040516020015260405160e060020a63ffffffff8416028152600481019190915260240160206040518083038186803b1515610b7b57600080fd5b6102c65a03f41515610b8c57600080fd5b505050604051805190509450610ba78360018603038661163c565b73__SortLib_______________________________6343168c1b60098760405160e060020a63ffffffff85160281526004810192909252602482015260440160006040518083038186803b1515610bfd57600080fd5b6102c65a03f41515610c0e57600080fd5b505060019093019250610b1a565b600354600160a060020a03161561096e5750506003546000908190600160a060020a03166398d5fdca82604051604001526040518163ffffffff1660e060020a0281526004016040805180830381600087803b1515610c7a57600080fd5b6102c65a03f11515610c8b57600080fd5b50505060405180519060200180519193509091506040905080519081016040908152838252821515602080840191909152600354600160a060020a03166000908152600f909152208151815560208201516001909101805491151560ff199092169190911790555060035460008581526010602052604090208054600160a060020a031916600160a060020a039092169190911790555050505050565b60005433600160a060020a03908116911614156100e25760038054600160a060020a031916600160a060020a038316179055610a01565b6000808073__SortLib_______________________________63a0decdb8600a86846040516060015260405160e060020a63ffffffff85160281526004810192909252602482015260440160606040518083038186803b1515610dc157600080fd5b6102c65a03f41515610dd257600080fd5b5050506040518051906020018051906020018051929791965091945092505050565b6000805b600560205260008051602061173e833981519152546001600081905260008051602061171e8339815191525490910101811015610e6457600081815260106020526040902054600160a060020a0384811691161415610e5c57806001019150610e69565b600101610df8565b600091505b50919050565b60005433600160a060020a03908116911614156100e2576000828152600560205260409020805460018101610ea48382611689565b5060009182526020909120018054600160a060020a031916600160a060020a038316179055610972565b6000808073__SortLib_______________________________6362f50213600a60405160e060020a63ffffffff8416028152600481019190915260240160006040518083038186803b1515610f2257600080fd5b6102c65a03f41515610f3357600080fd5b505050600090505b6002600052600560205260008051602061173e83398151915254811015611147576002600052600560205260008051602061173e833981519152805482908110610f8157fe5b6000918252602082200154600160a060020a031690632fbc0bf190604051604001526040518163ffffffff1660e060020a0281526004016040805180830381600087803b1515610fd057600080fd5b6102c65a03f11515610fe157600080fd5b505050604051805190602001805191945090925060409050805190810160405283815282151560208083019190915260026000908152600590915260008051602061173e8339815191528054600f9291908590811061103c57fe5b6000918252602080832090910154600160a060020a031683528201929092526040019020815181556020820151600191909101805460ff1916911515919091179055506002600052600560205260008051602061173e833981519152805473__SortLib_______________________________91638092f36891600a9190859081106110c457fe5b600091825260209091200154600160a060020a0316868660405160e060020a63ffffffff87160281526004810194909452600160a060020a03909216602484015260448301521515606482015260840160006040518083038186803b151561112b57600080fd5b6102c65a03f4151561113c57600080fd5b505050600101610f3b565b5060005b6001600052600560205260008051602061171e83398151915254811015611354576001600052600560205260008051602061171e83398151915280548290811061119157fe5b6000918252602082200154600160a060020a0316906398d5fdca90604051604001526040518163ffffffff1660e060020a0281526004016040805180830381600087803b15156111e057600080fd5b6102c65a03f115156111f157600080fd5b505050604051805190602001805191945090925060409050805190810160405283815282151560208083019190915260016000908152600590915260008051602061171e8339815191528054600f9291908590811061124c57fe5b6000918252602080832090910154600160a060020a0316835282019290925260400190208151815560208201516001918201805460ff191691151591909117905560005250600560205260008051602061171e833981519152805473__SortLib_______________________________91638092f36891600a9190859081106112d157fe5b600091825260209091200154600160a060020a0316868660405160e060020a63ffffffff87160281526004810194909452600160a060020a03909216602484015260448301521515606482015260840160006040518083038186803b151561133857600080fd5b6102c65a03f4151561134957600080fd5b50505060010161114b565b505042600e5550565b60016000908152600560205260008051602061171e83398151915280548390811061138457fe5b600091825260209091200154600160a060020a031692915050565b600054600160a060020a031681565b600560205260008051602061173e833981519152546001600090815260008051602061171e833981519152549091016113e86009826116ad565b50600090505b6001600052600560205260008051602061171e833981519152548110156115025760016000908152600560205260008051602061171e8339815191528054600f9291908490811061143b57fe5b6000918252602080832090910154600160a060020a031683528201929092526040019020600980548390811061146d57fe5b60009182526020808320845460029390930201918255600193840154918401805460ff191660ff9093161515929092179091559190526005905260008051602061171e8339815191528054829081106114c257fe5b6000918252602080832090910154838352601090915260409091208054600160a060020a031916600160a060020a039092169190911790556001016113ee565b506001600052600560205260008051602061171e833981519152545b600954811015610a015760056020526001600090815260008051602061171e8339815191525460008051602061173e8339815191528054600f9392850390811061156457fe5b6000918252602080832090910154600160a060020a031683528201929092526040019020600980548390811061159657fe5b60009182526020808320845460029390930201918255600193840154918401805460ff191660ff909316151592909217909155600590525260008051602061171e8339815191525460008051602061173e8339815191528054909183039081106115fc57fe5b6000918252602080832090910154838352601090915260409091208054600160a060020a031916600160a060020a0390921691909117905560010161151e565b60008282146107f05750600091825260106020526040808320805492845292208054600160a060020a03908116600160a060020a0319808516919091179094558154921691909216179055565b8154818355818115116107f0576000838152602090206107f09181019083016116d9565b8154818355818115116107f0576002028160020283600052602060002091820191016107f091906116f7565b6105e091905b808211156116f357600081556001016116df565b5090565b6105e091905b808211156116f3576000815560018101805460ff191690556002016116fd56001471eb6eb2c5e789fc3de43f8ce62938c7d1836ec861730447e2ada8fd81017b89832631fb3c3307a103ba2c84ab569c64d6182a18893dcd163f0f1c2090733aa165627a7a72305820c99d83ea28f6d8d28323a1256c70b928a0645b4902cfa7723d04c2c2e245450e0029",
  "source": "pragma solidity ^0.4.4;\r\n\r\nimport \"./SortLib.sol\";\r\nimport \"./AdrLib.sol\";\r\nimport \"./TransactLib.sol\";\r\nimport \"./IPV.sol\";\r\nimport \"./IGrid.sol\";\r\nimport \"./IBattery.sol\";\r\nimport \"./IHouse.sol\";\r\nimport \"./GeneralDevice.sol\";\r\n\r\ncontract SingleHouse is GeneralDevice, IHouse {\r\n  \r\n  // one contract is associated to one particular House in the network.\r\n\r\n  using AdrLib for address[];\r\n  using TransactLib for uint;\r\n\r\n  //uint    consumTimeOut = 5 minutes;\r\n  uint    consumStatusAt;           // timestamp of the update (consumption)\r\n  \r\n\r\n  // may be splited into another contract\r\n\r\n  /*struct PriceTF {\r\n    uint  prs;\r\n    bool  updated;\r\n  }*/\r\n\r\n  //using SortLib for SortLib.PriceTF[];\r\n  using SortLib for *;\r\n  SortLib.PriceTF[] prepPriceQueryInfo;\r\n  SortLib.PriceMap draftPriceMap;\r\n\r\n  uint    lastPriceQueryAt;\r\n\r\n  mapping(address=>SortLib.PriceTF) priceQueryInfo;\r\n  mapping(uint=>address) sortedPriceQueryInfo;\r\n  \r\n// ======= Modifiers =======\r\n\r\n  modifier timed (uint allowedTimeOut) {\r\n    if(now < consumStatusAt + allowedTimeOut) {\r\n      _;\r\n    } else {\r\n      revert();\r\n    }\r\n  }\r\n\r\n// ======= Event Logs =======\r\n  event ConsumptionLog(address adr, uint consum, uint consumAt);\r\n  event ConfigurationLog(string confMod, uint statusAt);\r\n  event EnergyTransferLog(address adrFrom, address adrTo, uint eVol, uint transferAt);\r\n\r\n// ======= Basic Functionalities =======\r\n\r\n  // --- Upon contract creation and configuration ---\r\n\r\n  function SingleHouse (address adr) GeneralDevice(adr) { }\r\n  \r\n  // --- Regular usage ---\r\n\r\n  function setConsumption(uint consum) public ownerOnly {\r\n    consumption = consum;\r\n    consumStatusAt = now;\r\n    ConsumptionLog(owner, consumption, consumStatusAt);\r\n  }\r\n\r\n  function getConsumption() external view timed(consumTimeOut) returns (uint consum, uint consumAt) { \r\n    consum = consumption;\r\n    consumAt = consumStatusAt;\r\n  }\r\n\r\n  // \r\n\r\n  function askForPrice() {\r\n    // House query price info to all the connected PV/Battery. \r\n    // If the house is connected to grid (most of the time), the price of Grid will be automatically added to the end of the sorted list.\r\n    uint tP = 0;\r\n    bool tF = false;\r\n    draftPriceMap.initPrsTable();\r\n    for (i = 0; i < connectedDevice[2].length; i++) {\r\n      (tP,tF) = IBattery(connectedDevice[2][i]).getSalePrice(); \r\n      priceQueryInfo[connectedDevice[2][i]] = SortLib.PriceTF(tP,tF);\r\n      draftPriceMap.addToPrsTable(connectedDevice[2][i],tP,tF);\r\n    }\r\n    for (uint i = 0; i < connectedDevice[1].length; i++) {\r\n      (tP,tF) = IPV(connectedDevice[1][i]).getPrice();\r\n      priceQueryInfo[connectedDevice[1][i]] = SortLib.PriceTF(tP,tF);\r\n      draftPriceMap.addToPrsTable(connectedDevice[1][i],tP,tF);\r\n    }\r\n\r\n    lastPriceQueryAt = now;\r\n  }\r\n\r\n  function sortDraftPrsMap() {\r\n    draftPriceMap.sortPrsTable();\r\n    // if the grid is connected -> add the price from the grid to the end of the sorted list \r\n    if (grid != 0x0) {\r\n      uint tP = 0;\r\n      bool tF = false;\r\n      (tP,tF) = IGrid(grid).getPrice();\r\n      draftPriceMap.addToPrsTable(grid,tP,tF);\r\n    }\r\n  }\r\n// test\r\n  function getDraftPrsMap(address adr) public view returns (uint, bool) {\r\n    //return (101,false);\r\n    return (draftPriceMap.prsTable[adr].prs, draftPriceMap.prsTable[adr].updated);\r\n  }\r\n  function getSrtPosition(address adr) public returns (uint) {\r\n    return draftPriceMap.getPrsTable(adr);\r\n  }\r\n\r\n  function getSrtList(uint a) public returns(address, uint, bool) { //address, uint, bool\r\n    return draftPriceMap.getSortedList(a);\r\n  }\r\n\r\n  //------------------------------\r\n  // to Sort the received list of Price (from PV and Battery)\r\n  //------------------------------\r\n  \r\n\r\n  function sortPriceList() {\r\n    createPriceList();\r\n    uint maxTemp;\r\n    uint totalLength = connectedDevice[1].length + connectedDevice[2].length;\r\n    for (uint i = 0; i < totalLength; i++) {\r\n      maxTemp = prepPriceQueryInfo.maxStruct();\r\n      swap(totalLength-1-i,maxTemp);\r\n      prepPriceQueryInfo.del(maxTemp);\r\n    }\r\n    // if the grid is connected -> add the price from the grid to the end of the sorted list \r\n    if (grid != 0x0) {\r\n      uint tP = 0;\r\n      bool tF = false;\r\n      (tP,tF) = IGrid(grid).getPrice();\r\n      priceQueryInfo[grid] = SortLib.PriceTF(tP,tF);\r\n      //setPriceQueryInfo(grid,tP,tF);\r\n      sortedPriceQueryInfo[totalLength] = grid;\r\n    }\r\n  }\r\n\r\n  function createPriceList() private {\r\n    prepPriceQueryInfo.length = connectedDevice[1].length + connectedDevice[2].length;\r\n    //sortedPriceQueryInfo.length = prepPriceQueryInfo.length; => sortedPQI is using mapping now\r\n    for (uint i = 0; i < connectedDevice[1].length; i++) {\r\n      prepPriceQueryInfo[i] = priceQueryInfo[connectedDevice[1][i]];\r\n      sortedPriceQueryInfo[i] = connectedDevice[1][i];\r\n    }\r\n    for (i = connectedDevice[1].length; i < prepPriceQueryInfo.length; i++) {\r\n      prepPriceQueryInfo[i] = priceQueryInfo[connectedDevice[2][i-connectedDevice[1].length]];\r\n      sortedPriceQueryInfo[i] = connectedDevice[2][i-connectedDevice[1].length];\r\n    }\r\n  }\r\n\r\n  function swap (uint _id1, uint _id2) private {\r\n    if (_id1 != _id2) {\r\n      address temp;\r\n      temp = sortedPriceQueryInfo[_id1];\r\n      sortedPriceQueryInfo[_id1] = sortedPriceQueryInfo[_id2];\r\n      sortedPriceQueryInfo[_id2] = temp;   \r\n    }\r\n  }\r\n\r\n  //------------------------------\r\n  // Once sorted, actively send to all the connected devices.\r\n  //------------------------------\r\n\r\n  function getSortedPosition (address adr) returns (uint) { // should be private, here the \"private\" is temporarily removed due to testing\r\n    //require(adr != 0x0);      // Sometimes with this line, there will be error in the configuration.js test... sometimes not.... sometimes need to _migrate_ twice to eliminate the error.... Don't know why\r\n    for (uint i=0; i<connectedDevice[1].length + connectedDevice[2].length+1; i++) {\r\n      if (adr == sortedPriceQueryInfo[i]) {\r\n        return (i+1);\r\n      }\r\n    }\r\n    return 0;\r\n  }\r\n\r\n  function getSortedInfo() external returns(uint consum, uint rank, uint tot, bool updated) {\r\n    return  getSortedHInfo(msg.sender);\r\n  }\r\n\r\n  function getSortedHInfo(address adr) returns(uint consum, uint rank, uint tot, bool updated) {  // should be private, here the \"private\" is temporarily removed due to testing\r\n    //address adr = msg.sender;\r\n    consum = consumption;\r\n    rank = getSortedPosition(adr);\r\n    if (grid != 0x0) {\r\n      tot = connectedDevice[1].length + connectedDevice[2].length+1;\r\n    } else {\r\n      tot = connectedDevice[1].length + connectedDevice[2].length;\r\n    }\r\n    if (lastPriceQueryAt + consumTimeOut < now) {\r\n      updated = false;    // The house may be inactive for a while, so the list stored is outdated.\r\n    } else {\r\n      updated = true;      \r\n    }\r\n  }\r\n\r\n  // ------------Functions used in transaction------------------\r\n  function goNoGo(uint giveoutvol) returns (uint) {\r\n    address adrDevice = msg.sender;\r\n    uint takeoutvol;\r\n    require(connectedDevice[2].assertInside(adrDevice) || connectedDevice[1].assertInside(adrDevice));\r\n    takeoutvol = consumption.findMin(giveoutvol);\r\n    consumption = consumption.clearEnergyTransfer(takeoutvol, address(this));\r\n    //EnergyTransferLog(adrDevice,address(this), takeoutvol, consumption);\r\n    //wallet = wallet.clearMoneyTransfer(-int(takeoutvol*priceQueryInfo[adrDevice].prs), adrDevice);\r\n    wallet -= int(takeoutvol*priceQueryInfo[adrDevice].prs);\r\n    return (takeoutvol); \r\n  }\r\n\r\n  function buyExtra() {\r\n    // when houses still have extra needs...\r\n    uint whatDeviceAccept;\r\n    uint receivedMoney;\r\n    uint unitPrs;\r\n    require(grid != 0x0);\r\n    if (consumption > 0) {\r\n      (whatDeviceAccept, unitPrs) = IGrid(grid).goExtra(consumption);\r\n      consumption = consumption.clearEnergyTransfer(whatDeviceAccept, address(this));\r\n      receivedMoney = whatDeviceAccept*unitPrs;\r\n      wallet -= int(receivedMoney);\r\n    }\r\n  }\r\n\r\n\r\n  // ------------Functions used in testing------------------\r\n/*\r\n  function getSortedPriceList (uint _id) returns (address) {\r\n    return sortedPriceQueryInfo[_id];\r\n  }\r\n\r\n  function getAskedPrice(address adr) returns (uint,bool) {\r\n    return (priceQueryInfo[adr].prs,priceQueryInfo[adr].updated) ;\r\n  }\r\n\r\n  function askForPricePV(uint i) returns (uint,bool) {\r\n    return IPV(connectedDevice[1][i]).getPrice();\r\n  }\r\n\r\n  function askForPriceB(uint i) returns (uint,bool) {\r\n    return IBattery(connectedDevice[2][i]).getSalePrice();\r\n  }\r\n\r\n  function getOwnerAdmin() returns (address, address){\r\n    return (owner,Admin);\r\n  }\r\n\r\n  function getConnectedPVCount() returns (uint){\r\n    return connectedDevice[1].length;\r\n  }\r\n\r\n  function getconnectedBatteryCount() returns (uint){\r\n    return connectedDevice[2].length;\r\n  }\r\n\r\n  function getConnectPVAddress(uint a) returns (address) {\r\n    if (a<connectedDevice[1].length) {\r\n      return connectedDevice[1][a];\r\n    } else {\r\n      return 0x0;\r\n    }\r\n  }\r\n\r\n  function getconnectedBatteryAddress(uint a) returns (address) {\r\n    if (a<connectedDevice[2].length) {\r\n      return connectedDevice[2][a];\r\n    } else {\r\n      return 0x0;\r\n   \r\n    }\r\n  }\r\n  */\r\n\r\n  function getConnectPVAddress(uint a) returns (address) {\r\n      return connectedDevice[1][a];\r\n  }\r\n}\r\n",
  "sourcePath": "C:\\Users\\qianc\\Documents\\Thesis\\Code\\SimpleMonitor\\contracts\\SingleHouse.sol",
  "compiler": {
    "name": "solc",
    "version": "0.4.18+commit.9cf6e910.Emscripten.clang"
  },
  "schemaVersion": "1.0.1",
  "updatedAt": "2017-11-27T15:20:11.554Z"
}