{
  "contractName": "SingleBattery",
  "abi": [
    {
      "constant": false,
      "inputs": [],
      "name": "getTimerIndex",
      "outputs": [
        {
          "name": "",
          "type": "uint256"
        }
      ],
      "payable": false,
      "stateMutability": "nonpayable",
      "type": "function"
    },
    {
      "constant": false,
      "inputs": [
        {
          "name": "adr",
          "type": "address"
        }
      ],
      "name": "setTimerAdr",
      "outputs": [],
      "payable": false,
      "stateMutability": "nonpayable",
      "type": "function"
    },
    {
      "constant": true,
      "inputs": [],
      "name": "getVolumeCapacity",
      "outputs": [
        {
          "name": "vol",
          "type": "uint256"
        },
        {
          "name": "volAt",
          "type": "uint256"
        },
        {
          "name": "cap",
          "type": "uint256"
        }
      ],
      "payable": false,
      "stateMutability": "view",
      "type": "function"
    },
    {
      "constant": false,
      "inputs": [
        {
          "name": "giveoutvol",
          "type": "uint256"
        }
      ],
      "name": "goNoGo",
      "outputs": [
        {
          "name": "",
          "type": "uint256"
        }
      ],
      "payable": false,
      "stateMutability": "nonpayable",
      "type": "function"
    },
    {
      "constant": true,
      "inputs": [],
      "name": "getSortedPrice",
      "outputs": [
        {
          "name": "consum",
          "type": "uint256"
        },
        {
          "name": "rank",
          "type": "uint256"
        },
        {
          "name": "tot",
          "type": "uint256"
        },
        {
          "name": "updated",
          "type": "bool"
        }
      ],
      "payable": false,
      "stateMutability": "view",
      "type": "function"
    },
    {
      "constant": false,
      "inputs": [],
      "name": "getTimerStatus",
      "outputs": [
        {
          "name": "",
          "type": "uint256"
        }
      ],
      "payable": false,
      "stateMutability": "nonpayable",
      "type": "function"
    },
    {
      "constant": true,
      "inputs": [],
      "name": "getSalePrice",
      "outputs": [
        {
          "name": "prs",
          "type": "uint256"
        },
        {
          "name": "updatedOrNot",
          "type": "bool"
        }
      ],
      "payable": false,
      "stateMutability": "view",
      "type": "function"
    },
    {
      "constant": false,
      "inputs": [
        {
          "name": "vol",
          "type": "uint256"
        }
      ],
      "name": "goExcess",
      "outputs": [
        {
          "name": "takeVol",
          "type": "uint256"
        },
        {
          "name": "prs",
          "type": "uint256"
        }
      ],
      "payable": false,
      "stateMutability": "nonpayable",
      "type": "function"
    },
    {
      "constant": false,
      "inputs": [],
      "name": "askForRank",
      "outputs": [],
      "payable": false,
      "stateMutability": "nonpayable",
      "type": "function"
    },
    {
      "constant": false,
      "inputs": [],
      "name": "sortRank",
      "outputs": [],
      "payable": false,
      "stateMutability": "nonpayable",
      "type": "function"
    },
    {
      "constant": false,
      "inputs": [
        {
          "name": "_id",
          "type": "uint256"
        }
      ],
      "name": "initiateTransaction",
      "outputs": [
        {
          "name": "",
          "type": "uint256"
        },
        {
          "name": "",
          "type": "uint256"
        }
      ],
      "payable": false,
      "stateMutability": "nonpayable",
      "type": "function"
    },
    {
      "constant": false,
      "inputs": [
        {
          "name": "vol",
          "type": "uint256"
        }
      ],
      "name": "setVolume",
      "outputs": [],
      "payable": false,
      "stateMutability": "nonpayable",
      "type": "function"
    },
    {
      "constant": false,
      "inputs": [
        {
          "name": "v",
          "type": "uint256"
        }
      ],
      "name": "setBuyVolume",
      "outputs": [],
      "payable": false,
      "stateMutability": "nonpayable",
      "type": "function"
    },
    {
      "constant": false,
      "inputs": [
        {
          "name": "_id",
          "type": "uint256"
        }
      ],
      "name": "getSortedRank",
      "outputs": [
        {
          "name": "adr",
          "type": "address"
        },
        {
          "name": "consum",
          "type": "uint256"
        },
        {
          "name": "rank",
          "type": "uint256"
        },
        {
          "name": "tot",
          "type": "uint256"
        }
      ],
      "payable": false,
      "stateMutability": "nonpayable",
      "type": "function"
    },
    {
      "constant": false,
      "inputs": [],
      "name": "getTimerAddress",
      "outputs": [
        {
          "name": "",
          "type": "address"
        }
      ],
      "payable": false,
      "stateMutability": "nonpayable",
      "type": "function"
    },
    {
      "constant": false,
      "inputs": [],
      "name": "getBuyVol",
      "outputs": [
        {
          "name": "",
          "type": "uint256"
        }
      ],
      "payable": false,
      "stateMutability": "nonpayable",
      "type": "function"
    },
    {
      "constant": false,
      "inputs": [
        {
          "name": "adr",
          "type": "address"
        }
      ],
      "name": "setGridAdr",
      "outputs": [],
      "payable": false,
      "stateMutability": "nonpayable",
      "type": "function"
    },
    {
      "constant": false,
      "inputs": [],
      "name": "sortPrice",
      "outputs": [],
      "payable": false,
      "stateMutability": "nonpayable",
      "type": "function"
    },
    {
      "constant": false,
      "inputs": [
        {
          "name": "a",
          "type": "uint256"
        },
        {
          "name": "adr",
          "type": "address"
        }
      ],
      "name": "addConnectedDevice",
      "outputs": [],
      "payable": false,
      "stateMutability": "nonpayable",
      "type": "function"
    },
    {
      "constant": false,
      "inputs": [],
      "name": "askForPrice",
      "outputs": [],
      "payable": false,
      "stateMutability": "nonpayable",
      "type": "function"
    },
    {
      "constant": false,
      "inputs": [
        {
          "name": "prsSale",
          "type": "uint256"
        },
        {
          "name": "prsBuy",
          "type": "uint256"
        }
      ],
      "name": "setPrice",
      "outputs": [],
      "payable": false,
      "stateMutability": "nonpayable",
      "type": "function"
    },
    {
      "constant": true,
      "inputs": [],
      "name": "Admin",
      "outputs": [
        {
          "name": "",
          "type": "address"
        }
      ],
      "payable": false,
      "stateMutability": "view",
      "type": "function"
    },
    {
      "inputs": [
        {
          "name": "adr",
          "type": "address"
        },
        {
          "name": "cap",
          "type": "uint256"
        }
      ],
      "payable": false,
      "stateMutability": "nonpayable",
      "type": "constructor"
    },
    {
      "anonymous": false,
      "inputs": [
        {
          "indexed": false,
          "name": "adr",
          "type": "address"
        },
        {
          "indexed": false,
          "name": "vol",
          "type": "uint256"
        },
        {
          "indexed": false,
          "name": "volAt",
          "type": "uint256"
        }
      ],
      "name": "VolLog",
      "type": "event"
    },
    {
      "anonymous": false,
      "inputs": [
        {
          "indexed": false,
          "name": "updateAt",
          "type": "uint256"
        }
      ],
      "name": "PriceUpdate",
      "type": "event"
    }
  ],
  "bytecode": "0x606060405260038054600160a060020a031990811690915560048054909116905561012c6008819055600955341561003657600080fd5b60405160408061168a833981016040528080519190602001805160018054600160a060020a03958616600160a060020a031991821617909155600080543390961695909116949094179093555050600e556115f4806100966000396000f30060606040526004361061010e5763ffffffff60e060020a600035041663074b7c8081146101135780630830cfae146101385780630e00c316146101595780630ff37282146101905780631b45f0e0146101a6578063235a4a4f146101e55780632fbc0bf1146101f857806335f7f5e2146102255780633d7224dc146102535780633d859507146102665780633fd2007d146102795780634559dcdc1461028f5780636a95841b146102a55780636b608223146102bb57806370ed8f241461030e57806379c19df01461033d5780638d646b1114610350578063aac12b4b1461036f578063bfd1190314610382578063c9746029146103a4578063f7d97577146103b7578063ff1b636d146103d0575b600080fd5b341561011e57600080fd5b6101266103e3565b60405190815260200160405180910390f35b341561014357600080fd5b610157600160a060020a036004351661044d565b005b341561016457600080fd5b61016c610490565b60405180848152602001838152602001828152602001935050505060405180910390f35b341561019b57600080fd5b6101266004356104a0565b34156101b157600080fd5b6101b9610713565b604051938452602084019290925260408084019190915290151560608301526080909101905180910390f35b34156101f057600080fd5b6101266107b6565b341561020357600080fd5b61020b610800565b604051918252151560208201526040908101905180910390f35b341561023057600080fd5b61023b600435610825565b60405191825260208201526040908101905180910390f35b341561025e57600080fd5b610157610953565b341561027157600080fd5b610157610b85565b341561028457600080fd5b61023b600435610bff565b341561029a57600080fd5b610157600435610eef565b34156102b057600080fd5b610157600435610f7e565b34156102c657600080fd5b6102d1600435610fc3565b6040518085600160a060020a0316600160a060020a0316815260200184815260200183815260200182815260200194505050505060405180910390f35b341561031957600080fd5b610321611062565b604051600160a060020a03909116815260200160405180910390f35b341561034857600080fd5b610126611071565b341561035b57600080fd5b610157600160a060020a0360043516611077565b341561037a57600080fd5b6101576110bb565b341561038d57600080fd5b610157600435600160a060020a036024351661124a565b34156103af57600080fd5b6101576112b6565b34156103c257600080fd5b6101576004356024356114cc565b34156103db57600080fd5b61032161153c565b600454600090600160a060020a031663bdef9d9282604051602001526040518163ffffffff1660e060020a028152600401602060405180830381600087803b151561042d57600080fd5b6102c65a03f1151561043e57600080fd5b50505060405180519150505b90565b60005433600160a060020a039081169116141561010e576004805473ffffffffffffffffffffffffffffffffffffffff1916600160a060020a0383161790555b50565b600f54600b54600e549192909190565b600160009081526006602052338173__AdrLib________________________________632c2fc20e60008051602061158983398151915284846040516020015260405160e060020a63ffffffff85160281526004810192909252600160a060020a0316602482015260440160206040518083038186803b151561052257600080fd5b6102c65a03f4151561053357600080fd5b50505060405180519050806105555750600354600160a060020a038381169116145b151561056057600080fd5b60105473__TransactLib___________________________63bc2e368c90918660006040516020015260405160e060020a63ffffffff85160281526004810192909252602482015260440160206040518083038186803b15156105c257600080fd5b6102c65a03f415156105d357600080fd5b5050506040518051600f805482019081905542600b8190556001549294507fa8533a3e28bf00cd05018ed80847d3d6f170da084f6417da50798db7335ff9a09350600160a060020a03909216916040518084600160a060020a0316600160a060020a03168152602001838152602001828152602001935050505060405180910390a160105473__TransactLib___________________________639e5fd0a99091833060006040516020015260405160e060020a63ffffffff861602815260048101939093526024830191909152600160a060020a0316604482015260640160206040518083038186803b15156106c957600080fd5b6102c65a03f415156106da57600080fd5b505050604051805160105550600160a060020a038216600090815260136020526040902054600780549183029091039055915050919050565b6010546000808073__SortPLib______________________________63c6742457601333846040516060015260405160e060020a63ffffffff85160281526004810192909252600160a060020a0316602482015260440160606040518083038186803b151561078157600080fd5b6102c65a03f4151561079257600080fd5b50505060405180519060200180519060200180519697929691955090935090915050565b600454600090600160a060020a0316633b7104f282604051602001526040518163ffffffff1660e060020a028152600401602060405180830381600087803b151561042d57600080fd5b601154600954600a54600091429101101561081d57506000610821565b5060015b9091565b60008060125490508273__TransactLib___________________________63bc2e368c9091600f54600e540360006040516020015260405160e060020a63ffffffff85160281526004810192909252602482015260440160206040518083038186803b151561089357600080fd5b6102c65a03f415156108a457600080fd5b505050604051805190509150600f5473__TransactLib___________________________63994459079091843060006040516020015260405160e060020a63ffffffff861602815260048101939093526024830191909152600160a060020a0316604482015260640160206040518083038186803b151561092457600080fd5b6102c65a03f4151561093557600080fd5b5050506040518051600f555060078054838302900390559092909150565b600080600080600060036109656107b6565b81141561010e5773__SortRLib______________________________63e6f37de9601760405160e060020a63ffffffff8416028152600481019190915260240160006040518083038186803b15156109bc57600080fd5b6102c65a03f415156109cd57600080fd5b505050600091505b6000805260066020526000805160206115a983398151915254821015610b78576000805260066020526000805160206115a9833981519152805483908110610a1957fe5b6000918252602082200154600160a060020a031690631b45f0e090604051608001526040518163ffffffff1660e060020a028152600401608060405180830381600087803b1515610a6957600080fd5b6102c65a03f11515610a7a57600080fd5b50505060405180519060200180519060200180519060200180519399509197509550909350508215610b6d576000805260066020526000805160206115a9833981519152805473__SortRLib______________________________9163ef61a139916017919086908110610aea57fe5b600091825260209091200154600160a060020a031689898960405160e060020a63ffffffff88160281526004810195909552600160a060020a03909316602485015260448401919091526064830152608482015260a40160006040518083038186803b1515610b5857600080fd5b6102c65a03f41515610b6957600080fd5b5050505b6001909101906109d5565b42600d555b505050505050565b6003610b8f6107b6565b81141561010e5773__SortRLib______________________________63534e1918601760405160e060020a63ffffffff8416028152600481019190915260240160006040518083038186803b1515610be657600080fd5b6102c65a03f41515610bf757600080fd5b50505061048d565b60008060008060008060008060006004610c176107b6565b81141561010e57610c278b610fc3565b600f54939a509198509650945073__TransactLib___________________________9063bc2e368c908860006040516020015260405160e060020a63ffffffff85160281526004810192909252602482015260440160206040518083038186803b1515610c9357600080fd5b6102c65a03f41515610ca457600080fd5b50505060405180516000808052600660205290995073__AdrLib________________________________9150632c2fc20e906000805160206115a9833981519152908a906040516020015260405160e060020a63ffffffff85160281526004810192909252600160a060020a0316602482015260440160206040518083038186803b1515610d3157600080fd5b6102c65a03f41515610d4257600080fd5b5050506040518051905015610eda5786600160a060020a0316630ff372828960006040516020015260405160e060020a63ffffffff84160281526004810191909152602401602060405180830381600087803b1515610da057600080fd5b6102c65a03f11515610db157600080fd5b5050506040518051600f80548290039081905542600b8190556001549296507fa8533a3e28bf00cd05018ed80847d3d6f170da084f6417da50798db7335ff9a09350600160a060020a03909216916040518084600160a060020a0316600160a060020a03168152602001838152602001828152602001935050505060405180910390a16011548302915060075473__TransactLib___________________________63e2992d299091848a3060006040516020015260405160e060020a63ffffffff871602815260048101949094526024840192909252600160a060020a03908116604484015216606482015260840160206040518083038186803b1515610eb857600080fd5b6102c65a03f41515610ec957600080fd5b505050604051805160075550610edf565b600092505b5095999098509650505050505050565b60015433600160a060020a039081169116141561010e57600f81905542600b8190556001547fa8533a3e28bf00cd05018ed80847d3d6f170da084f6417da50798db7335ff9a091600160a060020a039091169083906040518084600160a060020a0316600160a060020a03168152602001838152602001828152602001935050505060405180910390a161048d565b6001610f886107b6565b81141561010e5760015433600160a060020a039081169116141561010e57600e54600f5483011115610fb957600080fd5b60108290555b5050565b600080808073__SortRLib______________________________6391871092601787846040516080015260405160e060020a63ffffffff85160281526004810192909252602482015260440160806040518083038186803b151561102657600080fd5b6102c65a03f4151561103757600080fd5b5050506040518051906020018051906020018051906020018051905093509350935093509193509193565b600454600160a060020a031690565b60105490565b60005433600160a060020a039081169116141561010e576003805473ffffffffffffffffffffffffffffffffffffffff1916600160a060020a03831617905561048d565b60008060026110c86107b6565b81141561010e5773__SortPLib______________________________6332a76998601360405160e060020a63ffffffff8416028152600481019190915260240160006040518083038186803b151561111f57600080fd5b6102c65a03f4151561113057600080fd5b5050600354600160a060020a03161590506112455760035460009350839250600160a060020a03166398d5fdca83604051604001526040518163ffffffff1660e060020a0281526004016040805180830381600087803b151561119257600080fd5b6102c65a03f115156111a357600080fd5b5050506040518051906020018051600354929550935073__SortPLib______________________________9163c3af64529150601390600160a060020a0316868660405160e060020a63ffffffff87160281526004810194909452600160a060020a03909216602484015260448301521515606482015260840160006040518083038186803b151561123457600080fd5b6102c65a03f41515610b7d57600080fd5b505050565b60005433600160a060020a039081169116141561010e57600082815260066020526040902080546001810161127f838261154b565b506000918252602090912001805473ffffffffffffffffffffffffffffffffffffffff1916600160a060020a038316179055610fbf565b600080600060026112c56107b6565b81141561010e576000935083925073__SortPLib______________________________63e61f7934601360405160e060020a63ffffffff8416028152600481019190915260240160006040518083038186803b151561132357600080fd5b6102c65a03f4151561133457600080fd5b505050600091505b60016000526006602052600080516020611589833981519152548210156114c2576001600052600660205260008051602061158983398151915280548390811061138257fe5b6000918252602082200154600160a060020a0316906398d5fdca90604051604001526040518163ffffffff1660e060020a0281526004016040805180830381600087803b15156113d157600080fd5b6102c65a03f115156113e257600080fd5b505050604051805190602001805160016000526006602052600080516020611589833981519152805493975090955073__SortPLib______________________________9263c3af64529250601391908690811061143c57fe5b600091825260209091200154600160a060020a0316878760405160e060020a63ffffffff87160281526004810194909452600160a060020a03909216602484015260448301521515606482015260840160006040518083038186803b15156114a357600080fd5b6102c65a03f415156114b457600080fd5b50506001909201915061133c565b42600c5550505050565b60016114d66107b6565b81141561010e5760015433600160a060020a039081169116141561010e576011839055601282905542600a8190557fae46785019700e30375a5d7b4f91e32f8060ef085111f896ebf889450aa2ab5a9060405190815260200160405180910390a1611245565b600054600160a060020a031681565b8154818355818115116112455760008381526020902061124591810190830161044a91905b808211156115845760008155600101611570565b509056003e5fec24aa4dc4e5aee2e025e51e1392c72a2500577559fae9665c6d52bd6a3154cdd369e4e8a8515e52ca72ec816c2101831ad1f18bf44102ed171459c9b4f8a165627a7a72305820348298a1eafbe8f17a3a3e1a49d94750e63316884cbb3d236e42a3a1340c61d90029",
  "source": "pragma solidity ^0.4.4;\r\n\r\nimport \"./IBattery.sol\";\r\nimport \"./IPV.sol\";\r\nimport \"./IGrid.sol\";\r\nimport \"./IHouse.sol\";\r\nimport \"./GeneralDevice.sol\";\r\n\r\nimport \"./SortRLib.sol\";\r\nimport \"./SortPLib.sol\"; \r\nimport \"./AdrLib.sol\"; \r\nimport \"./TransactLib.sol\";\r\n\r\n\r\n//For simplicity, we do not use the sorting functions here, as in our configuration, there is only one battery and there's only one PV connected.  \r\n\r\ncontract SingleBattery is GeneralDevice, IBattery {\r\n  \r\n  using AdrLib for address[];\r\n  using TransactLib for *;\r\n  using SortPLib for *;\r\n  using SortRLib for *;\r\n\r\n  uint    capacity;                 // Cap of the device\r\n  uint    currentVolume;            // Production of electricity\r\n  uint    buyVolume;                // Amount of electricity that this battery would like to buy. Will first participate in the supply competition \r\n                                    //and will be finally (anyway) fulfilled b either the network or from the grid...\r\n  uint    priceForSale;\r\n  uint    priceForBuy;              // lower than market price (ForExcessEnergy)\r\n\r\n  SortPLib.PriceMap draftPriceMap;\r\n  SortRLib.RankMap draftRankMap;\r\n\r\n// ======= Modifiers =======\r\n\r\n// ======= Event Logs =======\r\n\r\n  event VolLog(address adr, uint vol, uint volAt);\r\n  //event ConfigurationLog(string confMod, uint statusAt);\r\n  event PriceUpdate(uint updateAt);\r\n\r\n// ======= Basic Functionalities =======\r\n\r\n  // --- 0. Upon contract creation and configuration ---\r\n\r\n  function SingleBattery (address adr,  uint cap) GeneralDevice(adr) {\r\n    capacity = cap;\r\n  }\r\n\r\n  function setVolume(uint vol) public ownerOnly {\r\n    // Can only be triggered once....Should be moved into the constructor...Once the initial volumne is set, can only be changed by energy trading.\r\n    currentVolume = vol;\r\n    volStatusAt = now;\r\n    VolLog(owner,vol,volStatusAt);\r\n  }\r\n\r\n  // --- 1. set and get the active purchase volume (if battery wants) and selling price every 15 min (or less) ---\r\n\r\n  function setPrice(uint prsSale, uint prsBuy) public timed(1) ownerOnly {\r\n    priceForSale = prsSale;\r\n    priceForBuy = prsBuy;\r\n    priceStatusAt = now;\r\n    PriceUpdate(priceStatusAt);\r\n  }\r\n\r\n  function getSalePrice() public view returns (uint prs, bool updatedOrNot) { // connectedHouseOnly external\r\n    prs = priceForSale;\r\n    //prsAt = priceStatusAt;\r\n    if (priceStatusAt + priceTimeOut < now) {\r\n      updatedOrNot = false;\r\n    } else {\r\n      updatedOrNot = true;\r\n    }\r\n    //adr = owner;\r\n  }\r\n\r\n  function setBuyVolume(uint v) public timed(1) ownerOnly {\r\n    require(currentVolume + v <= capacity);\r\n    buyVolume = v;\r\n  }\r\n\r\n  function getVolumeCapacity () external view returns (uint vol, uint volAt, uint cap) { // timed(initTime,volTimeOut) \r\n    vol = currentVolume;\r\n    volAt = volStatusAt;\r\n    cap = capacity;\r\n  }\r\n\r\n  // --- 2. Battery can be considered as a house if it wants to actively purchase energy. --- \r\n  // ---    Ask for connected PV / batteries / grid for price of electricity supply. --- \r\n  // ---    Sort the list of offers. --- \r\n\r\n  function askForPrice() timed(2) {\r\n    // Battery query price info to all the connected PV/Battery. \r\n    uint tP = 0;\r\n    bool tF = false;\r\n    draftPriceMap.initPrsTable();\r\n    for (uint i = 0; i < connectedDevice[1].length; i++) {\r\n      (tP,tF) = IPV(connectedDevice[1][i]).getPrice();\r\n      draftPriceMap.addToPrsTable(connectedDevice[1][i],tP,tF);\r\n    }\r\n    lastPriceQueryAt = now;\r\n  }\r\n\r\n  function sortPrice() timed(2) {\r\n    draftPriceMap.sortPrsTable();\r\n    // if the grid is connected -> add the price from the grid to the end of the sorted list \r\n    if (grid != 0x0) {\r\n      uint tP = 0;\r\n      bool tF = false;\r\n      (tP,tF) = IGrid(grid).getPrice();\r\n      draftPriceMap.addToPrsTable(grid,tP,tF);\r\n    }\r\n  }\r\n\r\n  function getSortedPrice() external view returns(uint consum, uint rank, uint tot, bool updated) {\r\n    consum = buyVolume;\r\n    (rank,tot,updated) = draftPriceMap.getPrsTable(msg.sender);\r\n  }\r\n\r\n  // --- 3. Battery can also provide energy to houses. --- \r\n  // ---    Sort the list of ranks. --- \r\n\r\n  function askForRank() timed(3) {\r\n    uint consum;\r\n    uint rank;\r\n    uint tot;\r\n    bool updated;\r\n    draftRankMap.initRnkTable();\r\n    for (uint i = 0; i < connectedDevice[0].length; i++) {\r\n      (consum, rank, tot, updated) = IHouse(connectedDevice[0][i]).getSortedPrice();\r\n      if (updated) {\r\n        draftRankMap.addToRnkTable(connectedDevice[0][i],consum, rank, tot);\r\n      }\r\n    }\r\n    lastRankingAt = now;\r\n  }\r\n\r\n  function sortRank() timed(3) {\r\n    draftRankMap.sortRnkTable();\r\n  }\r\n\r\n  function getSortedRank(uint _id) returns(address adr, uint consum, uint rank, uint tot) {\r\n    return draftRankMap.getSortedList(_id);\r\n  }\r\n\r\n  /*//  for test \r\n\r\n  function getDraftPrsMap(address adr) public view returns (uint, bool) {\r\n    return (draftPriceMap.prsTable[adr].prs, draftPriceMap.prsTable[adr].updated);\r\n  }\r\n\r\n  function getSrtList(uint a) public returns(address, uint, bool) { //address, uint, bool\r\n    return draftPriceMap.getSortedList(a);\r\n  }*/\r\n\r\n\r\n  // --- 4. PV/Battery/Grid asks Battery to confirm energy transaction ---\r\n\r\n  function goNoGo(uint giveoutvol) returns (uint) {\r\n    address adrDevice = msg.sender;\r\n    uint takeoutvol;\r\n    require(connectedDevice[1].assertInside(adrDevice) || adrDevice == grid);\r\n    takeoutvol = buyVolume.findMin(giveoutvol);\r\n    currentVolume += takeoutvol;\r\n    volStatusAt = now;\r\n    VolLog(owner,currentVolume,volStatusAt);\r\n    buyVolume = buyVolume.clearEnergyTransfer(takeoutvol, address(this));\r\n    wallet -= int(takeoutvol*draftPriceMap.prsTable[adrDevice].prs);\r\n    return (takeoutvol); \r\n  }\r\n\r\n  function goExcess(uint vol) returns (uint takeVol, uint prs) {\r\n    prs = priceForBuy;\r\n    takeVol = vol.findMin(capacity-currentVolume);\r\n    currentVolume = currentVolume.clearExcessTransfer(takeVol, address(this));\r\n    wallet -= int(takeVol*prs);\r\n  }\r\n\r\n\r\n  function getBuyVol() returns (uint) {return buyVolume;}\r\n\r\n  \r\n  function initiateTransaction(uint _id) timed(4) returns (uint, uint) {\r\n    uint giveoutVol;\r\n    address adr;\r\n    uint consum;\r\n    uint rank;\r\n    uint tot;\r\n\r\n    uint whatDeviceAccept;\r\n    uint receivedMoney;\r\n    //for (uint i = 0; i < rLength; i++) {\r\n      (adr,consum,rank,tot) = getSortedRank(_id);//sortedRankingInfo[_id];\r\n      giveoutVol = currentVolume.findMin(consum);\r\n      if (connectedDevice[0].assertInside(adr)) {\r\n        whatDeviceAccept = IHouse(adr).goNoGo(giveoutVol);\r\n        //setVolume(currentVolume-whatDeviceAccept);\r\n        currentVolume -= whatDeviceAccept;\r\n        volStatusAt = now;\r\n        VolLog(owner,currentVolume,volStatusAt);\r\n        receivedMoney = whatDeviceAccept*priceForSale;\r\n        wallet = wallet.clearMoneyTransfer(receivedMoney,adr, address(this));\r\n      } else {\r\n        whatDeviceAccept = 0; \r\n      }\r\n      return(giveoutVol, whatDeviceAccept);\r\n    //}\r\n  }\r\n\r\n\r\n\r\n}\r\n",
  "sourcePath": "C:\\Users\\qianc\\Documents\\Thesis\\Code\\SimpleMonitor\\contracts\\SingleBattery.sol",
  "compiler": {
    "name": "solc",
    "version": "0.4.18+commit.9cf6e910.Emscripten.clang"
  },
  "schemaVersion": "1.0.1",
  "updatedAt": "2017-11-29T01:40:11.686Z"
}