{
  "contractName": "SingleBattery",
  "abi": [
    {
      "constant": true,
      "inputs": [],
      "name": "name",
      "outputs": [
        {
          "name": "",
          "type": "bytes32"
        }
      ],
      "payable": false,
      "stateMutability": "view",
      "type": "function"
    },
    {
      "constant": false,
      "inputs": [
        {
          "name": "adrH",
          "type": "address"
        }
      ],
      "name": "addConnectedHouse",
      "outputs": [],
      "payable": false,
      "stateMutability": "nonpayable",
      "type": "function"
    },
    {
      "constant": false,
      "inputs": [
        {
          "name": "giveoutvol",
          "type": "uint256"
        }
      ],
      "name": "goNoGo",
      "outputs": [
        {
          "name": "",
          "type": "uint256"
        }
      ],
      "payable": false,
      "stateMutability": "nonpayable",
      "type": "function"
    },
    {
      "constant": false,
      "inputs": [],
      "name": "getSalePrice",
      "outputs": [
        {
          "name": "prs",
          "type": "uint256"
        },
        {
          "name": "updatedOrNot",
          "type": "bool"
        }
      ],
      "payable": false,
      "stateMutability": "nonpayable",
      "type": "function"
    },
    {
      "constant": false,
      "inputs": [
        {
          "name": "adrP",
          "type": "address"
        }
      ],
      "name": "addConnectedPV",
      "outputs": [],
      "payable": false,
      "stateMutability": "nonpayable",
      "type": "function"
    },
    {
      "constant": false,
      "inputs": [
        {
          "name": "vol",
          "type": "uint256"
        }
      ],
      "name": "setVolume",
      "outputs": [],
      "payable": false,
      "stateMutability": "nonpayable",
      "type": "function"
    },
    {
      "constant": false,
      "inputs": [
        {
          "name": "v",
          "type": "uint256"
        }
      ],
      "name": "setBuyVolume",
      "outputs": [],
      "payable": false,
      "stateMutability": "nonpayable",
      "type": "function"
    },
    {
      "constant": false,
      "inputs": [],
      "name": "getBuyVol",
      "outputs": [
        {
          "name": "",
          "type": "uint256"
        }
      ],
      "payable": false,
      "stateMutability": "nonpayable",
      "type": "function"
    },
    {
      "constant": false,
      "inputs": [],
      "name": "sort",
      "outputs": [],
      "payable": false,
      "stateMutability": "nonpayable",
      "type": "function"
    },
    {
      "constant": false,
      "inputs": [
        {
          "name": "initTime",
          "type": "uint256"
        }
      ],
      "name": "getVolumeCapacity",
      "outputs": [
        {
          "name": "vol",
          "type": "uint256"
        },
        {
          "name": "volAt",
          "type": "uint256"
        },
        {
          "name": "cap",
          "type": "uint256"
        }
      ],
      "payable": false,
      "stateMutability": "nonpayable",
      "type": "function"
    },
    {
      "constant": false,
      "inputs": [
        {
          "name": "adr",
          "type": "address"
        }
      ],
      "name": "setGridAdr",
      "outputs": [],
      "payable": false,
      "stateMutability": "nonpayable",
      "type": "function"
    },
    {
      "constant": true,
      "inputs": [],
      "name": "owner",
      "outputs": [
        {
          "name": "",
          "type": "address"
        }
      ],
      "payable": false,
      "stateMutability": "view",
      "type": "function"
    },
    {
      "constant": false,
      "inputs": [
        {
          "name": "prsSale",
          "type": "uint256"
        },
        {
          "name": "prsBuy",
          "type": "uint256"
        },
        {
          "name": "prsExcess",
          "type": "uint256"
        }
      ],
      "name": "setPrice",
      "outputs": [],
      "payable": false,
      "stateMutability": "nonpayable",
      "type": "function"
    },
    {
      "constant": false,
      "inputs": [
        {
          "name": "adr",
          "type": "address"
        }
      ],
      "name": "getSortedPosition",
      "outputs": [
        {
          "name": "",
          "type": "uint256"
        }
      ],
      "payable": false,
      "stateMutability": "nonpayable",
      "type": "function"
    },
    {
      "constant": false,
      "inputs": [],
      "name": "askForPrice",
      "outputs": [],
      "payable": false,
      "stateMutability": "nonpayable",
      "type": "function"
    },
    {
      "constant": false,
      "inputs": [],
      "name": "getSortedPVInfo",
      "outputs": [
        {
          "name": "consum",
          "type": "uint256"
        },
        {
          "name": "rank",
          "type": "uint256"
        },
        {
          "name": "tot",
          "type": "uint256"
        },
        {
          "name": "updated",
          "type": "bool"
        }
      ],
      "payable": false,
      "stateMutability": "nonpayable",
      "type": "function"
    },
    {
      "constant": false,
      "inputs": [],
      "name": "getExcess",
      "outputs": [
        {
          "name": "prs",
          "type": "uint256"
        },
        {
          "name": "cap",
          "type": "uint256"
        }
      ],
      "payable": false,
      "stateMutability": "nonpayable",
      "type": "function"
    },
    {
      "inputs": [
        {
          "name": "adr",
          "type": "address"
        },
        {
          "name": "cap",
          "type": "uint256"
        }
      ],
      "payable": false,
      "stateMutability": "nonpayable",
      "type": "constructor"
    },
    {
      "anonymous": false,
      "inputs": [
        {
          "indexed": false,
          "name": "adr",
          "type": "address"
        },
        {
          "indexed": false,
          "name": "vol",
          "type": "uint256"
        },
        {
          "indexed": false,
          "name": "volAt",
          "type": "uint256"
        }
      ],
      "name": "VolLog",
      "type": "event"
    },
    {
      "anonymous": false,
      "inputs": [
        {
          "indexed": false,
          "name": "confMod",
          "type": "string"
        },
        {
          "indexed": false,
          "name": "statusAt",
          "type": "uint256"
        }
      ],
      "name": "ConfigurationLog",
      "type": "event"
    },
    {
      "anonymous": false,
      "inputs": [
        {
          "indexed": false,
          "name": "updateAt",
          "type": "uint256"
        }
      ],
      "name": "PriceUpdate",
      "type": "event"
    }
  ],
  "bytecode": "0x606060405260028054600160a060020a031916905561012c6008819055600b55341561002a57600080fd5b604051604080610f7f833981016040528080519190602001805160038054600160a060020a03958616600160a060020a031991821617909155600080543390961695909116949094179093555050600555610ef58061008a6000396000f3006060604052600436106100d75763ffffffff60e060020a60003504166306fdde0381146100dc5780630a71db5e146101015780630ff37282146101225780632fbc0bf11461013857806341977cf5146101655780634559dcdc146101845780636a95841b1461019a57806379c19df0146101b05780638cdc86a6146101c35780638cfcc070146101d65780638d646b11146102105780638da5cb5b1461022f578063aa585d561461025e578063b148f82b1461027a578063c974602914610299578063cf7fc762146102ac578063d54c564e146102eb575b600080fd5b34156100e757600080fd5b6100ef610316565b60405190815260200160405180910390f35b341561010c57600080fd5b610120600160a060020a036004351661031c565b005b341561012d57600080fd5b6100ef6004356103d8565b341561014357600080fd5b61014b6105c1565b604051918252151560208201526040908101905180910390f35b341561017057600080fd5b610120600160a060020a03600435166105e6565b341561018f57600080fd5b6101206004356106a3565b34156101a557600080fd5b610120600435610732565b34156101bb57600080fd5b6100ef610766565b34156101ce57600080fd5b61012061076d565b34156101e157600080fd5b6101ec6004356108a6565b60405180848152602001838152602001828152602001935050505060405180910390f35b341561021b57600080fd5b610120600160a060020a03600435166108d1565b341561023a57600080fd5b610242610908565b604051600160a060020a03909116815260200160405180910390f35b341561026957600080fd5b610120600435602435604435610917565b341561028557600080fd5b6100ef600160a060020a036004351661097b565b34156102a457600080fd5b6101206109f1565b34156102b757600080fd5b6102bf610bd3565b604051938452602084019290925260408084019190915290151560608301526080909101905180910390f35b34156102f657600080fd5b6102fe610c2e565b60405191825260208201526040908101905180910390f35b60045481565b60005433600160a060020a03908116911614156100d757600f8054600181016103458382610e35565b5060009182526020909120018054600160a060020a031916600160a060020a0383161790557f34ff05936c7ffe85555df53a7bf1374ed025703c493a74c4ce3316646f950e1642604051602081019190915260408082526017818301527f486f757365206c696e6b656420746f204261747465727900000000000000000060608301526080909101905180910390a15b50565b6000338173__AdrLib________________________________6354859436601084846040516020015260405160e060020a63ffffffff85160281526004810192909252600160a060020a0316602482015260440160206040518083038186803b151561044357600080fd5b6102c65a03f4151561045457600080fd5b50505060405180519050806104765750600254600160a060020a038381169116145b151561048157600080fd5b60075473__TransactLib___________________________63345387fc90918660006040516020015260405160e060020a63ffffffff85160281526004810192909252602482015260440160206040518083038186803b15156104e357600080fd5b6102c65a03f415156104f457600080fd5b50505060405180519050905060075473__TransactLib___________________________639e5fd0a99091833060006040516020015260405160e060020a63ffffffff861602815260048101939093526024830191909152600160a060020a0316604482015260640160206040518083038186803b151561057457600080fd5b6102c65a03f4151561058557600080fd5b505050604051805160075550600160a060020a0382166000908152601360205260409020546001805491830290910390559150815b5050919050565b600c54600b54600a5460009142910110156105de575060006105e2565b5060015b9091565b60005433600160a060020a03908116911614156100d757601080546001810161060f8382610e35565b5060009182526020909120018054600160a060020a031916600160a060020a0383161790557f34ff05936c7ffe85555df53a7bf1374ed025703c493a74c4ce3316646f950e1642604051602081019190915260408082526014818301527f5056206c696e6b656420746f204261747465727900000000000000000000000060608301526080909101905180910390a16103d5565b60035433600160a060020a03908116911614156100d75760068190554260098190556003547fa8533a3e28bf00cd05018ed80847d3d6f170da084f6417da50798db7335ff9a091600160a060020a039091169083906040518084600160a060020a0316600160a060020a03168152602001838152602001828152602001935050505060405180910390a16103d5565b60035433600160a060020a03908116911614156100d7576005546006548201111561075c57600080fd5b60078190556103d5565b6007545b90565b600080600061077a610c3e565b600254600160a060020a03161561079857601054600101915061079e565b60105491505b5060005b818110156108a15773__SortLib_______________________________63f27da568601160006040516020015260405160e060020a63ffffffff8416028152600481019190915260240160206040518083038186803b151561080357600080fd5b6102c65a03f4151561081457600080fd5b50505060405180519050925061082f81600184030384610de8565b73__SortLib_______________________________6343168c1b60118560405160e060020a63ffffffff85160281526004810192909252602482015260440160006040518083038186803b151561088557600080fd5b6102c65a03f4151561089657600080fd5b5050506001016107a2565b505050565b6000806000836008548082014210156100d75760065494506009549350600554925050509193909250565b60005433600160a060020a03908116911614156100d75760028054600160a060020a031916600160a060020a0383161790556103d5565b600354600160a060020a031681565b60035433600160a060020a03908116911614156100d757600c839055600d829055600e81905542600a8190557fae46785019700e30375a5d7b4f91e32f8060ef085111f896ebf889450aa2ab5a9060405190815260200160405180910390a16108a1565b60025460009081908190600160a060020a0316156109a05760105460010191506109a6565b60105491505b5060005b818110156109e757600081815260146020526040902054600160a060020a03858116911614156109df578060010192506105ba565b6001016109aa565b5060009392505050565b600080805b601054811015610af9576010805482908110610a0e57fe5b6000918252602082200154600160a060020a0316906398d5fdca90604051604001526040518163ffffffff1660e060020a0281526004016040805180830381600087803b1515610a5d57600080fd5b6102c65a03f11515610a6e57600080fd5b505050604051805190602001805191945090925060409050805190810160405283815282151560208201526010805460139160009185908110610aad57fe5b6000918252602080832090910154600160a060020a0316835282019290925260400190208151815560208201516001918201805460ff19169115159190911790559190910190506109f6565b600254600160a060020a031615610bca57600254600160a060020a03166398d5fdca6000604051604001526040518163ffffffff1660e060020a0281526004016040805180830381600087803b1515610b5157600080fd5b6102c65a03f11515610b6257600080fd5b50505060405180519060200180519194509092506040905080519081016040908152848252831515602080840191909152600254600160a060020a03166000908152601390915220815181556020820151600191909101805460ff1916911515919091179055505b50504260125550565b6007546000808033610be48161097b565b600254909450600160a060020a031615610c05576010546001019250610c0b565b60105492505b42600b54601254011015610c225760009150610c27565b600191505b5090919293565b600e546006546005549192910390565b600254600090600160a060020a031615610c6957601054600101610c63601182610e59565b50610c79565b601054610c77601182610e59565b505b5060005b601054811015610d4a5760136000601083815481101515610c9a57fe5b6000918252602080832090910154600160a060020a0316835282019290925260400190206011805483908110610ccc57fe5b6000918252602090912082546002909202019081556001918201549101805460ff191660ff90921615159190911790556010805482908110610d0a57fe5b6000918252602080832090910154838352601490915260409091208054600160a060020a031916600160a060020a03909216919091179055600101610c7d565b506010545b6011548110156103d557600254600160a060020a031660009081526013602052604090206011805483908110610d8157fe5b6000918252602080832084546002938402909101908155600194850154908501805460ff909216151560ff199092169190911790559054848352601490915260409091208054600160a060020a031916600160a060020a0390921691909117905501610d4f565b60008282146108a15750600091825260146020526040808320805492845292208054600160a060020a03908116600160a060020a0319808516919091179094558154921691909216179055565b8154818355818115116108a1576000838152602090206108a1918101908301610e85565b8154818355818115116108a1576002028160020283600052602060002091820191016108a19190610ea3565b61076a91905b80821115610e9f5760008155600101610e8b565b5090565b61076a91905b80821115610e9f576000815560018101805460ff19169055600201610ea95600a165627a7a72305820d34bd26a217e9bfa0d6973c3dd92227c2eed5cf89d262b9025cf930e502e5e480029",
  "source": "pragma solidity ^0.4.4;\n\nimport \"./IBattery.sol\";\nimport \"./SortLib.sol\"; \nimport \"./AdrLib.sol\"; \nimport \"./TransactLib.sol\";\n//For simplicity, we do not use the sorting functions here, as in our configuration, there is only one battery and there's only one PV connected.  \nimport \"./IPV.sol\";\nimport \"./IGrid.sol\";\n\ncontract SingleBattery is IBattery {\n  \n  using AdrLib for address[];\n  using TransactLib for uint;\n\n  \n  address public owner;\n  bytes32 public name;              // name of the device (Serie No.)\n  uint    capacity;                 // Cap of the device\n  uint    currentVolume;            // Production of electricity\n  uint    buyVolume;                // Amount of electricity that this battery would like to buy. Will first participate in the supply competition \n                                    //and will be finally (anyway) fulfilled b either the network or from the grid...\n  uint    volTimeOut = 5 minutes;\n  uint    volStatusAt;              // timestamp of the update\n  \n  uint    priceStatusAt;            // timestamp of the update (price)\n  uint    priceTimeOut = 5 minutes;\n  uint    priceForSale;\n  uint    priceForBuy;              // lower than market price\n  uint    priceForExcessEnergy;     // lower than market price\n  \n  address[] connectedHouse; // List of households connected\n  address[] connectedPV;// List of PV connected\n  \n  /*struct PriceTF {\n    uint  prs;\n    bool  updated;\n  }*/\n\n  using SortLib for SortLib.PriceTF[];\n  SortLib.PriceTF[] prepPriceQueryInfo;\n  uint    lastPriceQueryAt;\n\n  mapping(address=>SortLib.PriceTF) priceQueryInfo;\n  mapping(uint=>address) sortedPriceQueryInfo;\n\n  function askForPrice() {\n    // House query price info to all the connected PV/Battery. \n    // If the house is connected to grid (most of the time), the price of Grid also participates in the sorting (it's not less favored anymore)\n    uint tP = 0;\n    bool tF = false;\n    for (uint i = 0; i < connectedPV.length; i++) {\n      (tP,tF) = IPV(connectedPV[i]).getPrice();\n      priceQueryInfo[connectedPV[i]] = SortLib.PriceTF(tP,tF);\n    }\n    if (grid != 0x0) {\n      (tP,tF) = IGrid(grid).getPrice();\n      priceQueryInfo[grid] = SortLib.PriceTF(tP,tF);\n    }\n    lastPriceQueryAt = now;\n  }\n\n  function getSortedPosition (address adr) returns (uint) { // should be private, here the \"private\" is temporarily removed due to testing\n    //require(adr != 0x0);      // Sometimes with this line, there will be error in the configuration.js test... sometimes not.... sometimes need to _migrate_ twice to eliminate the error.... Don't know why\n    uint _l;\n    if (grid != 0x0) {\n      _l = connectedPV.length+1;\n    } else {\n      _l = connectedPV.length;\n    }\n    for (uint i=0; i<_l; i++) {\n      if (adr == sortedPriceQueryInfo[i]) {\n        return (i+1);\n      }\n    }\n    return 0;\n  }\n\n  function sort() { // we are not doing sorting here -> as there is only 1 PV in the exercise layout\n    /*sortedPriceQueryInfo[0] = connectedPV[0];\n    if (grid != 0x0) {\n      sortedPriceQueryInfo[1] = grid;\n    }*/\n    createPriceList();\n    uint maxTemp;\n    uint totalLength;\n    if (grid != 0x0) {\n      totalLength = connectedPV.length+1;\n    } else {\n      totalLength = connectedPV.length;\n    }\n    for (uint i = 0; i < totalLength; i++) {\n      maxTemp = prepPriceQueryInfo.maxStruct();\n      swap(totalLength-1-i,maxTemp);\n      prepPriceQueryInfo.del(maxTemp);\n    }\n  } \n\n  function createPriceList() private {\n    if (grid != 0x0) {\n      prepPriceQueryInfo.length = connectedPV.length+1;\n    } else {\n      prepPriceQueryInfo.length = connectedPV.length;\n    }\n    for (uint i = 0; i < connectedPV.length; i++) {\n      prepPriceQueryInfo[i] = priceQueryInfo[connectedPV[i]];\n      sortedPriceQueryInfo[i] = connectedPV[i];\n    }\n    for (i = connectedPV.length; i < prepPriceQueryInfo.length; i++) {\n      prepPriceQueryInfo[i] = priceQueryInfo[grid];\n      sortedPriceQueryInfo[i] = grid;\n    }\n  }\n\n  function swap (uint _id1, uint _id2) private {\n    if (_id1 != _id2) {\n      address temp;\n      temp = sortedPriceQueryInfo[_id1];\n      sortedPriceQueryInfo[_id1] = sortedPriceQueryInfo[_id2];\n      sortedPriceQueryInfo[_id2] = temp;   \n    }\n  }\n\n  function getSortedPVInfo() returns(uint consum, uint rank, uint tot, bool updated) {\n    address adr = msg.sender;     //If the PV is connected\n    consum = buyVolume;\n    rank = getSortedPosition(adr); // We only have one PV connnected (In the demo layout)\n    if (grid != 0x0) {\n      tot = connectedPV.length + 1;\n    } else {\n      tot = connectedPV.length;\n    }\n    if (lastPriceQueryAt + priceTimeOut < now) {\n      updated = false;    // The house may be inactive for a while, so the list stored is outdated.\n    } else {\n      updated = true;      \n    }\n  }\n\n// start transaction\n  function goNoGo(uint giveoutvol) returns (uint) {\n    address adrDevice = msg.sender;\n    uint takeoutvol;\n    require(connectedPV.AssertInside(adrDevice) || adrDevice == grid);\n    takeoutvol = buyVolume.calculateHouseReceivedVolume(giveoutvol);\n    buyVolume = buyVolume.clearEnergyTransfer(takeoutvol, address(this));\n    wallet -= int(takeoutvol*priceQueryInfo[adrDevice].prs);\n    return (takeoutvol); \n  }\n\n\n  modifier ownerOnly {\n    if (msg.sender == owner) {\n      _;\n    } else {\n      revert();\n    }\n  }\n\n  \n\n  modifier connectedPVOnly (address adrP) {\n    if (connectedPV.AssertInside(adrP) == true) {\n      _;\n    } else {\n      revert();\n    }\n  }\n\n  modifier connectedHouseOnly {\n    if (connectedPV.AssertInside(msg.sender) == true) {\n      _;\n    } else {\n      revert();\n    } \n  }\n\n  modifier timed (uint initialTime, uint allowedTimeOut) {\n    if(now < initialTime + allowedTimeOut) {\n      _;\n    } else {\n      revert();\n    }\n  }\n\n  event VolLog(address adr, uint vol, uint volAt);\n  event ConfigurationLog(string confMod, uint statusAt);\n  event PriceUpdate(uint updateAt);\n\n  function SingleBattery (address adr,  uint cap) {\n    // constructor\n    owner = adr;\n    Admin = msg.sender;\n    capacity = cap;\n  }\n\n  \n\n  function setVolume(uint vol) ownerOnly {\n    // Can only be triggered once....Should be moved to the constructor...Once the initial volumne is set, can only be changed by energy trading.\n    currentVolume = vol;\n    volStatusAt = now;\n    VolLog(owner,vol,volStatusAt);\n  }\n\n  function setPrice(uint prsSale, uint prsBuy, uint prsExcess) ownerOnly {\n    priceForSale = prsSale;\n    priceForBuy = prsBuy;\n    priceForExcessEnergy = prsExcess;\n    priceStatusAt = now;\n    PriceUpdate(priceStatusAt);\n  }\n\n  function setBuyVolume(uint v) ownerOnly {\n    require(currentVolume + v <= capacity);\n    buyVolume = v;\n  }\n\n  // function askForPrice() {} // to ask for prices set by PVs...\n\n  function addConnectedPV(address adrP) adminOnly external {\n    connectedPV.push(adrP);\n    ConfigurationLog(\"PV linked to Battery\",now);\n  }\n\n  /*function deleteConnectedPV(address adrP) adminOnly external {\n    for (uint i = 0; i < connectedPV.length; i++) {\n      if (adrP == connectedPV[i]) {\n        delete connectedPV[i];\n        if (i != connectedPV.length-1) {\n          connectedPV[i] = connectedPV[connectedPV.length-1];\n        }\n        connectedPV.length--;\n      }\n    }\n  }*/\n\n  function addConnectedHouse(address adrH) adminOnly external {\n    connectedHouse.push(adrH);\n    ConfigurationLog(\"House linked to Battery\",now);\n  }\n\n  /*function deleteConnectedHouse(address adrH) adminOnly external {\n    for (uint i = 0; i < connectedHouse.length; i++) {\n      if (adrH == connectedHouse[i]) {\n        delete connectedHouse[i];\n        if (i != connectedHouse.length-1) {\n          connectedHouse[i] = connectedHouse[connectedHouse.length-1];\n        }\n        connectedHouse.length--;\n      }\n    }\n  }*/\n\n  function getVolumeCapacity (uint initTime) timed(initTime,volTimeOut) external returns (uint vol, uint volAt, uint cap) {\n    vol = currentVolume;\n    volAt = volStatusAt;\n    cap = capacity;\n  }\n\n  function getSalePrice() returns (uint prs, bool updatedOrNot) { // connectedHouseOnly external\n    prs = priceForSale;\n    //prsAt = priceStatusAt;\n    if (priceStatusAt + priceTimeOut < now) {\n      updatedOrNot = false;\n    } else {\n      updatedOrNot = true;\n    }\n    //adr = owner;\n  }\n\n  function getExcess() returns (uint prs, uint cap) {\n    prs = priceForExcessEnergy;\n    cap = capacity - currentVolume;\n  }\n\n  function getBuyVol() returns (uint) {return buyVolume;}\n\n\n\n}\n",
  "sourcePath": "C:\\Users\\qianc\\Documents\\Thesis\\Code\\SimpleMonitor\\contracts\\SingleBattery.sol",
  "compiler": {
    "name": "solc",
    "version": "0.4.18+commit.9cf6e910.Emscripten.clang"
  },
  "schemaVersion": "1.0.1",
  "updatedAt": "2017-11-10T13:22:37.156Z"
}