{
  "contractName": "SingleHouse",
  "abi": [
    {
      "constant": true,
      "inputs": [],
      "name": "name",
      "outputs": [
        {
          "name": "",
          "type": "bytes32"
        }
      ],
      "payable": false,
      "type": "function",
      "stateMutability": "view"
    },
    {
      "constant": false,
      "inputs": [
        {
          "name": "adr",
          "type": "address"
        }
      ],
      "name": "getSortedHInfo",
      "outputs": [
        {
          "name": "consum",
          "type": "uint256"
        },
        {
          "name": "rank",
          "type": "uint256"
        },
        {
          "name": "tot",
          "type": "uint256"
        },
        {
          "name": "updated",
          "type": "bool"
        }
      ],
      "payable": false,
      "type": "function",
      "stateMutability": "nonpayable"
    },
    {
      "constant": false,
      "inputs": [],
      "name": "getSortedInfo",
      "outputs": [
        {
          "name": "consum",
          "type": "uint256"
        },
        {
          "name": "rank",
          "type": "uint256"
        },
        {
          "name": "tot",
          "type": "uint256"
        },
        {
          "name": "updated",
          "type": "bool"
        }
      ],
      "payable": false,
      "type": "function",
      "stateMutability": "nonpayable"
    },
    {
      "constant": false,
      "inputs": [
        {
          "name": "adrP",
          "type": "address"
        }
      ],
      "name": "addConnectedPV",
      "outputs": [],
      "payable": false,
      "type": "function",
      "stateMutability": "nonpayable"
    },
    {
      "constant": false,
      "inputs": [
        {
          "name": "consum",
          "type": "uint256"
        }
      ],
      "name": "setConsumption",
      "outputs": [],
      "payable": false,
      "type": "function",
      "stateMutability": "nonpayable"
    },
    {
      "constant": false,
      "inputs": [],
      "name": "getConsumption",
      "outputs": [
        {
          "name": "consum",
          "type": "uint256"
        },
        {
          "name": "consumAt",
          "type": "uint256"
        }
      ],
      "payable": false,
      "type": "function",
      "stateMutability": "nonpayable"
    },
    {
      "constant": false,
      "inputs": [
        {
          "name": "adrB",
          "type": "address"
        }
      ],
      "name": "addConnectedBattery",
      "outputs": [],
      "payable": false,
      "type": "function",
      "stateMutability": "nonpayable"
    },
    {
      "constant": false,
      "inputs": [],
      "name": "sortPriceList",
      "outputs": [],
      "payable": false,
      "type": "function",
      "stateMutability": "nonpayable"
    },
    {
      "constant": false,
      "inputs": [
        {
          "name": "adr",
          "type": "address"
        }
      ],
      "name": "setGridAdr",
      "outputs": [],
      "payable": false,
      "type": "function",
      "stateMutability": "nonpayable"
    },
    {
      "constant": true,
      "inputs": [],
      "name": "owner",
      "outputs": [
        {
          "name": "",
          "type": "address"
        }
      ],
      "payable": false,
      "type": "function",
      "stateMutability": "view"
    },
    {
      "constant": false,
      "inputs": [
        {
          "name": "adr",
          "type": "address"
        }
      ],
      "name": "getSortedPosition",
      "outputs": [
        {
          "name": "",
          "type": "uint256"
        }
      ],
      "payable": false,
      "type": "function",
      "stateMutability": "nonpayable"
    },
    {
      "constant": false,
      "inputs": [],
      "name": "askForPrice",
      "outputs": [],
      "payable": false,
      "type": "function",
      "stateMutability": "nonpayable"
    },
    {
      "constant": false,
      "inputs": [
        {
          "name": "a",
          "type": "uint256"
        }
      ],
      "name": "getConnectPVAddress",
      "outputs": [
        {
          "name": "",
          "type": "address"
        }
      ],
      "payable": false,
      "type": "function",
      "stateMutability": "nonpayable"
    },
    {
      "inputs": [
        {
          "name": "adr",
          "type": "address"
        }
      ],
      "payable": false,
      "type": "constructor",
      "stateMutability": "nonpayable"
    },
    {
      "anonymous": false,
      "inputs": [
        {
          "indexed": false,
          "name": "adr",
          "type": "address"
        },
        {
          "indexed": false,
          "name": "consum",
          "type": "uint256"
        },
        {
          "indexed": false,
          "name": "consumAt",
          "type": "uint256"
        }
      ],
      "name": "ConsumptionLog",
      "type": "event"
    },
    {
      "anonymous": false,
      "inputs": [
        {
          "indexed": false,
          "name": "confMod",
          "type": "string"
        },
        {
          "indexed": false,
          "name": "statusAt",
          "type": "uint256"
        }
      ],
      "name": "ConfigurationLog",
      "type": "event"
    }
  ],
  "bytecode": "0x606060405260018054600160a060020a031916905561012c600255341561002557600080fd5b604051602080610d6a8339810160405280805160038054600160a060020a03928316600160a060020a0319918216179091556000805433909316929091169190911790555050610cf08061007a6000396000f3006060604052600436106100ab5763ffffffff60e060020a60003504166306fdde0381146100b05780631628ce6c146100d557806338a3528c1461012057806341977cf5146101335780635a500ecc146101545780638a5cb1b61461016a5780638ad5366f146101955780638b874f72146101b45780638d646b11146101c75780638da5cb5b146101e6578063b148f82b14610215578063c974602914610234578063e7e2741014610247575b600080fd5b34156100bb57600080fd5b6100c361025d565b60405190815260200160405180910390f35b34156100e057600080fd5b6100f4600160a060020a0360043516610263565b604051938452602084019290925260408084019190915290151560608301526080909101905180910390f35b341561012b57600080fd5b6100f46102c3565b341561013e57600080fd5b610152600160a060020a03600435166102e0565b005b341561015f57600080fd5b61015260043561039c565b341561017557600080fd5b61017d61042b565b60405191825260208201526040908101905180910390f35b34156101a057600080fd5b610152600160a060020a036004351661044c565b34156101bf57600080fd5b610152610509565b34156101d257600080fd5b610152600160a060020a0360043516610734565b34156101f157600080fd5b6101f961076b565b604051600160a060020a03909116815260200160405180910390f35b341561022057600080fd5b6100c3600160a060020a036004351661077a565b341561023f57600080fd5b6101526107cf565b341561025257600080fd5b6101f96004356109e7565b60045481565b600554600080806102738561077a565b600154909350600160a060020a031615610298576008546007540160010191506102a2565b6008546007540191505b42600254600a540110156102b8575060006102bc565b5060015b9193509193565b6000806000806102d233610263565b935093509350935090919293565b60005433600160a060020a03908116911614156100ab5760078054600181016103098382610c2d565b5060009182526020909120018054600160a060020a031916600160a060020a0383161790557f34ff05936c7ffe85555df53a7bf1374ed025703c493a74c4ce3316646f950e1642604051602081019190915260408082526012818301527f5056206c696e6b656420746f20486f757365000000000000000000000000000060608301526080909101905180910390a15b50565b60035433600160a060020a03908116911614156100ab5760058190554260068190556003547f93e0cabaa551645c58979b9f1e87af3e09f708241c9bdd6468e581ad0651692691600160a060020a039091169083906040518084600160a060020a0316600160a060020a03168152602001838152602001828152602001935050505060405180910390a1610399565b60008060025480600654014210156100ab5760055492506006549150509091565b60005433600160a060020a03908116911614156100ab5760088054600181016104758382610c2d565b5060009182526020909120018054600160a060020a031916600160a060020a0383161790557f34ff05936c7ffe85555df53a7bf1374ed025703c493a74c4ce3316646f950e1642604051602081019190915260408082526017818301527f42617474657279206c696e6b656420746f20486f75736500000000000000000060608301526080909101905180910390a1610399565b6000806000806000610519610a13565b600854600754019350600092505b838310156106295773__SortLib_______________________________63f27da568600960006040516020015260405160e060020a63ffffffff8416028152600481019190915260240160206040518083038186803b151561058857600080fd5b6102c65a03f4151561059957600080fd5b5050506040518051905094506105b483600186030386610bda565b73__SortLib_______________________________6343168c1b60098760405160e060020a63ffffffff85160281526004810192909252602482015260440160006040518083038186803b151561060a57600080fd5b6102c65a03f4151561061b57600080fd5b505060019093019250610527565b600154600160a060020a03161561072d5750506001546000908190600160a060020a03166398d5fdca82604051604001526040518163ffffffff1660e060020a0281526004016040805180830381600087803b151561068757600080fd5b6102c65a03f1151561069857600080fd5b50505060405180519060200180519193509091506040905080519081016040908152838252821515602080840191909152600154600160a060020a03166000908152600b909152208151815560208201516001918201805491151560ff19909216919091179055546000868152600c602052604090208054600160a060020a031916600160a060020a03909216919091179055505b5050505050565b60005433600160a060020a03908116911614156100ab5760018054600160a060020a031916600160a060020a038316179055610399565b600354600160a060020a031681565b6000805b600854600754016001018110156107c4576000818152600c6020526040902054600160a060020a03848116911614156107bc578060010191506107c9565b60010161077e565b600091505b50919050565b600080805b6007548110156108d75760078054829081106107ec57fe5b6000918252602082200154600160a060020a0316906398d5fdca90604051604001526040518163ffffffff1660e060020a0281526004016040805180830381600087803b151561083b57600080fd5b6102c65a03f1151561084c57600080fd5b5050506040518051906020018051919450909250604090508051908101604052838152821515602082015260078054600b916000918590811061088b57fe5b6000918252602080832090910154600160a060020a0316835282019290925260400190208151815560208201516001918201805460ff19169115159190911790559190910190506107d4565b5060005b6008548110156109de5760088054829081106108f357fe5b6000918252602082200154600160a060020a031690632fbc0bf190604051604001526040518163ffffffff1660e060020a0281526004016040805180830381600087803b151561094257600080fd5b6102c65a03f1151561095357600080fd5b5050506040518051906020018051919450909250604090508051908101604052838152821515602082015260088054600b916000918590811061099257fe5b6000918252602080832090910154600160a060020a0316835282019290925260400190208151815560208201516001918201805460ff19169115159190911790559190910190506108db565b505042600a5550565b60006007828154811015156109f857fe5b600091825260209091200154600160a060020a031692915050565b60085460075460009101610a28600982610c51565b50600090505b600754811015610afb57600b6000600783815481101515610a4b57fe5b6000918252602080832090910154600160a060020a0316835282019290925260400190206009805483908110610a7d57fe5b6000918252602090912082546002909202019081556001918201549101805460ff191660ff90921615159190911790556007805482908110610abb57fe5b6000918252602080832090910154838352600c90915260409091208054600160a060020a031916600160a060020a03909216919091179055600101610a2e565b506007545b60095481101561039957600b600060086007805490508403815481101515610b2457fe5b6000918252602080832090910154600160a060020a0316835282019290925260400190206009805483908110610b5657fe5b6000918252602090912082546002909202019081556001918201549101805460ff191660ff90921615159190911790556007546008805490918303908110610b9a57fe5b6000918252602080832090910154838352600c90915260409091208054600160a060020a031916600160a060020a03909216919091179055600101610b00565b6000828214610c2857506000828152600c60205260408082208054848452919092208054600160a060020a0319808416600160a060020a039283161790945581549093169290911691821790555b505050565b815481835581811511610c2857600083815260209020610c28918101908301610c7d565b815481835581811511610c2857600202816002028360005260206000209182019101610c289190610c9e565b610c9b91905b80821115610c975760008155600101610c83565b5090565b90565b610c9b91905b80821115610c97576000815560018101805460ff19169055600201610ca45600a165627a7a723058202519bf18b869b525a0a733bdb8e1dfa65c03677f6a951584c45884e9c27071990029",
  "source": "pragma solidity ^0.4.4;\n\nimport \"./SortLib.sol\";\nimport \"./AdrLib.sol\";\nimport \"./IPV.sol\";\nimport \"./IGrid.sol\";\nimport \"./IBattery.sol\";\nimport \"./IHouse.sol\";\n\ncontract SingleHouse is IHouse {\n  \n  // one contract is associated to one particular House in the network.\n\n  using AdrLib for address[];\n\n  //address Admin;                    // shall be defined at the creation of contract or to be defined manually... now it doesn't work well. It captures the address of the Configuration contract.\n  //uint    consumTimeOut = 5 minutes;\n  //address grid = 0x0;               // contract address of grid\n  address public owner;\n  bytes32 public name;              // name of the device (Serie No.)\n  uint    consumption;              // Production of electricity (consumption: positive)\n  uint    consumStatusAt;           // timestamp of the update (consumption)\n  address[] connectedPV;            // List of contract address of connected PV\n  address[] connectedBattery;       // List of contract address of connected batteries\n\n  // may be splited into another contract\n\n  /*struct PriceTF {\n    uint  prs;\n    bool  updated;\n  }*/\n\n  using SortLib for SortLib.PriceTF[];\n  SortLib.PriceTF[] prepPriceQueryInfo;\n\n  uint    lastPriceQueryAt;\n\n  mapping(address=>SortLib.PriceTF) priceQueryInfo;\n  mapping(uint=>address) sortedPriceQueryInfo;\n  \n// ======= Modifiers =======\n  \n  modifier ownerOnly {\n    if (msg.sender == owner) {\n      _;\n    } else {\n      revert();\n    }\n  }\n\n\n/*  modifier adminOnly {\n    if (msg.sender == Admin) {\n      _;\n    } else {\n      revert();\n    }\n  }*/\n\n  modifier connectedPVOnly (address adrP) {\n    if (connectedPV.AssertInside(adrP)) {\n      _;\n    } else {\n      revert();\n    }\n  }\n\n  modifier connectedBatteryOnly (address adrB) {\n    if (connectedBattery.AssertInside(adrB)) {\n      _;\n    } else {\n      revert();\n    }\n  }\n\n  modifier timed (uint allowedTimeOut) {\n    if(now < consumStatusAt + allowedTimeOut) {\n      _;\n    } else {\n      revert();\n    }\n  }\n\n// ======= Event Logs =======\n  event ConsumptionLog(address adr, uint consum, uint consumAt);\n  event ConfigurationLog(string confMod, uint statusAt);\n\n// ======= Basic Functionalities =======\n\n  // --- Upon contract creation and configuration ---\n\n  function SingleHouse (address adr) {\n    owner = adr;\n    Admin = msg.sender;\n  }\n  \n  /*function setGridAdr(address adr) adminOnly external {\n    grid = adr;\n  }*/\n  \n  function addConnectedPV(address adrP) adminOnly external {\n    connectedPV.push(adrP);\n    ConfigurationLog(\"PV linked to House\",now);\n  }\n\n  function addConnectedBattery(address adrB) adminOnly external {\n    connectedBattery.push(adrB);\n    ConfigurationLog(\"Battery linked to House\",now);\n  }\n\n  // --- Regular usage ---\n\n  function setConsumption(uint consum) ownerOnly {\n    consumption = consum;\n    consumStatusAt = now;\n    ConsumptionLog(owner, consumption, consumStatusAt);\n  }\n\n  function getConsumption()  external timed(consumTimeOut) returns (uint consum, uint consumAt) { //\n    consum = consumption;\n    consumAt = consumStatusAt;\n  }\n\n  // \n\n  function askForPrice() {\n    // House query price info to all the connected PV/Battery. \n    // If the house is connected to grid (most of the time), the price of Grid will be automatically added to the end of the sorted list.\n    uint tP = 0;\n    bool tF = false;\n    for (uint i = 0; i < connectedPV.length; i++) {\n      (tP,tF) = IPV(connectedPV[i]).getPrice();\n      priceQueryInfo[connectedPV[i]] = SortLib.PriceTF(tP,tF);\n    }\n    for (i = 0; i < connectedBattery.length; i++) {\n      (tP,tF) = IBattery(connectedBattery[i]).getSalePrice();\n      priceQueryInfo[connectedBattery[i]] = SortLib.PriceTF(tP,tF);\n    }\n    lastPriceQueryAt = now;\n  }\n\n  //------------------------------\n  // to Sort the received list of Price (from PV and Battery)\n  //------------------------------\n  \n\n  function sortPriceList() {\n    createPriceList();\n    uint maxTemp;\n    uint totalLength = connectedPV.length + connectedBattery.length;\n    for (uint i = 0; i < totalLength; i++) {\n      maxTemp = prepPriceQueryInfo.maxStruct();\n      swap(totalLength-1-i,maxTemp);\n      prepPriceQueryInfo.del(maxTemp);\n    }\n    // if the grid is connected -> add the price from the grid to the end of the sorted list \n    if (grid != 0x0) {\n      uint tP = 0;\n      bool tF = false;\n      (tP,tF) = IGrid(grid).getPrice();\n      priceQueryInfo[grid] = SortLib.PriceTF(tP,tF);\n      //setPriceQueryInfo(grid,tP,tF);\n      sortedPriceQueryInfo[totalLength] = grid;\n    }\n  }\n\n  function createPriceList() private {\n    prepPriceQueryInfo.length = connectedPV.length + connectedBattery.length;\n    //sortedPriceQueryInfo.length = prepPriceQueryInfo.length; => sortedPQI is using mapping now\n    for (uint i = 0; i < connectedPV.length; i++) {\n      prepPriceQueryInfo[i] = priceQueryInfo[connectedPV[i]];\n      sortedPriceQueryInfo[i] = connectedPV[i];\n    }\n    for (i = connectedPV.length; i < prepPriceQueryInfo.length; i++) {\n      prepPriceQueryInfo[i] = priceQueryInfo[connectedBattery[i-connectedPV.length]];\n      sortedPriceQueryInfo[i] = connectedBattery[i-connectedPV.length];\n    }\n  }\n\n  function swap (uint _id1, uint _id2) private {\n    if (_id1 != _id2) {\n      address temp;\n      temp = sortedPriceQueryInfo[_id1];\n      sortedPriceQueryInfo[_id1] = sortedPriceQueryInfo[_id2];\n      sortedPriceQueryInfo[_id2] = temp;   \n    }\n  }\n\n  //------------------------------\n  // Once sorted, actively send to all the connected devices.\n  //------------------------------\n\n  function getSortedPosition (address adr) returns (uint) { // should be private, here the \"private\" is temporarily removed due to testing\n    //require(adr != 0x0);      // Sometimes with this line, there will be error in the configuration.js test... sometimes not.... sometimes need to _migrate_ twice to eliminate the error.... Don't know why\n    for (uint i=0; i<connectedPV.length + connectedBattery.length+1; i++) {\n      if (adr == sortedPriceQueryInfo[i]) {\n        return (i+1);\n      }\n    }\n    return 0;\n  }\n\n  function getSortedInfo() external returns(uint consum, uint rank, uint tot, bool updated) {\n    return  getSortedHInfo(msg.sender);\n  }\n\n  function getSortedHInfo(address adr) returns(uint consum, uint rank, uint tot, bool updated) {  // should be private, here the \"private\" is temporarily removed due to testing\n    //address adr = msg.sender;\n    consum = consumption;\n    rank = getSortedPosition(adr);\n    if (grid != 0x0) {\n      tot = connectedPV.length + connectedBattery.length+1;\n    } else {\n      tot = connectedPV.length + connectedBattery.length;\n    }\n    if (lastPriceQueryAt + consumTimeOut < now) {\n      updated = false;    // The house may be inactive for a while, so the list stored is outdated.\n    } else {\n      updated = true;      \n    }\n  }\n\n\n  // ------------Functions used in testing------------------\n/*\n  function getSortedPriceList (uint _id) returns (address) {\n    return sortedPriceQueryInfo[_id];\n  }\n\n  function getAskedPrice(address adr) returns (uint,bool) {\n    return (priceQueryInfo[adr].prs,priceQueryInfo[adr].updated) ;\n  }\n\n  function askForPricePV(uint i) returns (uint,bool) {\n    return IPV(connectedPV[i]).getPrice();\n  }\n\n  function askForPriceB(uint i) returns (uint,bool) {\n    return IBattery(connectedBattery[i]).getSalePrice();\n  }\n\n  function getOwnerAdmin() returns (address, address){\n    return (owner,Admin);\n  }\n\n  function getConnectedPVCount() returns (uint){\n    return connectedPV.length;\n  }\n\n  function getconnectedBatteryCount() returns (uint){\n    return connectedBattery.length;\n  }\n\n  function getConnectPVAddress(uint a) returns (address) {\n    if (a<connectedPV.length) {\n      return connectedPV[a];\n    } else {\n      return 0x0;\n    }\n  }\n\n  function getconnectedBatteryAddress(uint a) returns (address) {\n    if (a<connectedBattery.length) {\n      return connectedBattery[a];\n    } else {\n      return 0x0;\n   \n    }\n  }\n  */\n\n  function getConnectPVAddress(uint a) returns (address) {\n      return connectedPV[a];\n  }\n}\n",
  "sourcePath": "C:\\Users\\qianc\\Documents\\Thesis\\Code\\SimpleMonitor\\contracts\\SingleHouse.sol",
  "compiler": {
    "name": "solc",
    "version": "0.4.18+commit.9cf6e910.Emscripten.clang"
  },
  "schemaVersion": "1.0.1",
  "updatedAt": "2017-11-08T17:16:34.594Z"
}