{
  "contractName": "SinglePV",
  "abi": [
    {
      "constant": false,
      "inputs": [
        {
          "name": "adrH",
          "type": "address"
        }
      ],
      "name": "addConnectedHouse",
      "outputs": [],
      "payable": false,
      "stateMutability": "nonpayable",
      "type": "function"
    },
    {
      "constant": false,
      "inputs": [],
      "name": "getWallet",
      "outputs": [
        {
          "name": "",
          "type": "int256"
        }
      ],
      "payable": false,
      "stateMutability": "nonpayable",
      "type": "function"
    },
    {
      "constant": false,
      "inputs": [],
      "name": "askForRank",
      "outputs": [],
      "payable": false,
      "stateMutability": "nonpayable",
      "type": "function"
    },
    {
      "constant": false,
      "inputs": [
        {
          "name": "_id",
          "type": "uint256"
        }
      ],
      "name": "initiateTransaction",
      "outputs": [
        {
          "name": "",
          "type": "uint256"
        },
        {
          "name": "",
          "type": "uint256"
        }
      ],
      "payable": false,
      "stateMutability": "nonpayable",
      "type": "function"
    },
    {
      "constant": false,
      "inputs": [
        {
          "name": "produc",
          "type": "uint256"
        }
      ],
      "name": "setProduction",
      "outputs": [],
      "payable": false,
      "stateMutability": "nonpayable",
      "type": "function"
    },
    {
      "constant": false,
      "inputs": [
        {
          "name": "_id",
          "type": "uint256"
        }
      ],
      "name": "getPrepInfo",
      "outputs": [
        {
          "name": "consum",
          "type": "uint256"
        },
        {
          "name": "rank",
          "type": "uint256"
        },
        {
          "name": "tot",
          "type": "uint256"
        }
      ],
      "payable": false,
      "stateMutability": "nonpayable",
      "type": "function"
    },
    {
      "constant": false,
      "inputs": [],
      "name": "sellExcess",
      "outputs": [],
      "payable": false,
      "stateMutability": "nonpayable",
      "type": "function"
    },
    {
      "constant": false,
      "inputs": [
        {
          "name": "adrB",
          "type": "address"
        }
      ],
      "name": "addConnectedBattery",
      "outputs": [],
      "payable": false,
      "stateMutability": "nonpayable",
      "type": "function"
    },
    {
      "constant": false,
      "inputs": [
        {
          "name": "adr",
          "type": "address"
        }
      ],
      "name": "setGridAdr",
      "outputs": [],
      "payable": false,
      "stateMutability": "nonpayable",
      "type": "function"
    },
    {
      "constant": false,
      "inputs": [],
      "name": "getProduction",
      "outputs": [
        {
          "name": "prod",
          "type": "uint256"
        },
        {
          "name": "prodAt",
          "type": "uint256"
        }
      ],
      "payable": false,
      "stateMutability": "nonpayable",
      "type": "function"
    },
    {
      "constant": false,
      "inputs": [
        {
          "name": "prs",
          "type": "uint256"
        }
      ],
      "name": "setPrice",
      "outputs": [],
      "payable": false,
      "stateMutability": "nonpayable",
      "type": "function"
    },
    {
      "constant": false,
      "inputs": [],
      "name": "getPrice",
      "outputs": [
        {
          "name": "prs",
          "type": "uint256"
        },
        {
          "name": "updatedOrNot",
          "type": "bool"
        }
      ],
      "payable": false,
      "stateMutability": "nonpayable",
      "type": "function"
    },
    {
      "constant": false,
      "inputs": [
        {
          "name": "_id",
          "type": "uint256"
        }
      ],
      "name": "getSortedInfo",
      "outputs": [
        {
          "name": "adr",
          "type": "address"
        },
        {
          "name": "consum",
          "type": "uint256"
        },
        {
          "name": "rank",
          "type": "uint256"
        },
        {
          "name": "tot",
          "type": "uint256"
        }
      ],
      "payable": false,
      "stateMutability": "nonpayable",
      "type": "function"
    },
    {
      "constant": false,
      "inputs": [],
      "name": "sortRankList",
      "outputs": [],
      "payable": false,
      "stateMutability": "nonpayable",
      "type": "function"
    },
    {
      "constant": true,
      "inputs": [],
      "name": "Admin",
      "outputs": [
        {
          "name": "",
          "type": "address"
        }
      ],
      "payable": false,
      "stateMutability": "view",
      "type": "function"
    },
    {
      "inputs": [
        {
          "name": "adr",
          "type": "address"
        }
      ],
      "payable": false,
      "stateMutability": "nonpayable",
      "type": "constructor"
    },
    {
      "anonymous": false,
      "inputs": [
        {
          "indexed": false,
          "name": "adr",
          "type": "address"
        },
        {
          "indexed": false,
          "name": "produc",
          "type": "uint256"
        },
        {
          "indexed": false,
          "name": "prodAt",
          "type": "uint256"
        }
      ],
      "name": "ProductionLog",
      "type": "event"
    },
    {
      "anonymous": false,
      "inputs": [
        {
          "indexed": false,
          "name": "confMod",
          "type": "string"
        },
        {
          "indexed": false,
          "name": "statusAt",
          "type": "uint256"
        }
      ],
      "name": "ConfigurationLog",
      "type": "event"
    },
    {
      "anonymous": false,
      "inputs": [
        {
          "indexed": false,
          "name": "updateAt",
          "type": "uint256"
        }
      ],
      "name": "PriceUpdate",
      "type": "event"
    }
  ],
  "bytecode": "0x606060405260038054600160a060020a031916905561012c6004819055600555341561002a57600080fd5b6040516020806112d78339810160405280805160018054600160a060020a03928316600160a060020a03199182161790915560008054339093169290911691909117905550506112588061007f6000396000f3006060604052600436106100c15763ffffffff60e060020a6000350416630a71db5e81146100c657806313299604146100e75780633d7224dc1461010c5780633fd2007d1461011f578063567cc2b61461014d57806366b294431461016357806367a2829d1461019d5780638ad5366f146101b05780638d646b11146101cf5780638e4dfebb146101ee57806391b7f5ed1461020157806398d5fdca14610217578063d5adad5414610244578063fba3016714610297578063ff1b636d146102aa575b600080fd5b34156100d157600080fd5b6100e5600160a060020a03600435166102d9565b005b34156100f257600080fd5b6100fa610395565b60405190815260200160405180910390f35b341561011757600080fd5b6100e561039c565b341561012a57600080fd5b61013560043561078f565b60405191825260208201526040908101905180910390f35b341561015857600080fd5b6100e5600435610acc565b341561016e57600080fd5b610179600435610b5b565b60405180848152602001838152602001828152602001935050505060405180910390f35b34156101a857600080fd5b6100e5610bd0565b34156101bb57600080fd5b6100e5600160a060020a0360043516610e78565b34156101da57600080fd5b6100e5600160a060020a0360043516610f35565b34156101f957600080fd5b610135610f6c565b341561020c57600080fd5b6100e5600435610f76565b341561022257600080fd5b61022a610fd0565b604051918252151560208201526040908101905180910390f35b341561024f57600080fd5b61025a600435610ff5565b6040518085600160a060020a0316600160a060020a0316815260200184815260200183815260200182815260200194505050505060405180910390f35b34156102a257600080fd5b6100e561102f565b34156102b557600080fd5b6102bd611135565b604051600160a060020a03909116815260200160405180910390f35b60005433600160a060020a03908116911614156100c157600b8054600181016103028382611197565b5060009182526020909120018054600160a060020a031916600160a060020a0383161790557f34ff05936c7ffe85555df53a7bf1374ed025703c493a74c4ce3316646f950e1642604051602081019190915260408082526012818301527f486f757365206c696e6b656420746f205056000000000000000000000000000060608301526080909101905180910390a15b50565b6006545b90565b600c54600b5460009182918291829182918291016103bb600d826111bb565b50600090505b600b5481101561059757600b8054829081106103d957fe5b6000918252602082200154600160a060020a0316906338a3528c90604051608001526040518163ffffffff1660e060020a028152600401608060405180830381600087803b151561042957600080fd5b6102c65a03f1151561043a57600080fd5b5050506040518051906020018051906020018051906020018051939950919750955090935050821561058f576060604051908101604052808781526020018681526020018581525060106000600b8481548110151561049557fe5b6000918252602080832090910154600160a060020a03168352820192909252604001902081518155602082015181600101556040820151816002015590505060106000600b838154811015156104e757fe5b6000918252602080832090910154600160a060020a031683528201929092526040019020600d80548490811061051957fe5b60009182526020909120825460039092020190815560018083015490820155600291820154910155600b80548290811061054f57fe5b6000918252602080832090910154848352601190915260409091208054600160a060020a031916600160a060020a03909216919091179055600191909101905b6001016103c1565b5060005b600c5481101561077157600c8054829081106105b357fe5b6000918252602082200154600160a060020a03169063cf7fc76290604051608001526040518163ffffffff1660e060020a028152600401608060405180830381600087803b151561060357600080fd5b6102c65a03f1151561061457600080fd5b50505060405180519060200180519060200180519060200180519399509197509550909350508215610769576060604051908101604052808781526020018681526020018581525060106000600c8481548110151561066f57fe5b6000918252602080832090910154600160a060020a03168352820192909252604001902081518155602082015181600101556040820151816002015590505060106000600c838154811015156106c157fe5b6000918252602080832090910154600160a060020a031683528201929092526040019020600d8054849081106106f357fe5b60009182526020909120825460039092020190815560018083015490820155600291820154910155600c80548290811061072957fe5b6000918252602080832090910154848352601190915260409091208054600160a060020a031916600160a060020a03909216919091179055600191909101905b60010161059b565b600e82905581610782600d826111bb565b505042600f555050505050565b600081815260116020908152604080832054600754600160a060020a039091168085526010909352818420548493849390928492839273__TransactLib___________________________9263bc2e368c9290918590516020015260405160e060020a63ffffffff85160281526004810192909252602482015260440160206040518083038186803b151561082357600080fd5b6102c65a03f4151561083457600080fd5b5050506040518051945073__AdrLib________________________________90506354859436600c8560006040516020015260405160e060020a63ffffffff85160281526004810192909252600160a060020a0316602482015260440160206040518083038186803b15156108a857600080fd5b6102c65a03f415156108b957600080fd5b50505060405180519050156109e35782600160a060020a0316630ff372828560006040516020015260405160e060020a63ffffffff84160281526004810191909152602401602060405180830381600087803b151561091757600080fd5b6102c65a03f1151561092857600080fd5b50505060405180516007805482900390556009546006549194508402925073__TransactLib___________________________915063e2992d299083863060006040516020015260405160e060020a63ffffffff871602815260048101949094526024840192909252600160a060020a03908116604484015216606482015260840160206040518083038186803b15156109c157600080fd5b6102c65a03f415156109d257600080fd5b505050604051805160065550610abf565b73__AdrLib________________________________6354859436600b8560006040516020015260405160e060020a63ffffffff85160281526004810192909252600160a060020a0316602482015260440160206040518083038186803b1515610a4b57600080fd5b6102c65a03f41515610a5c57600080fd5b5050506040518051905015610aba5782600160a060020a0316630ff372828560006040516020015260405160e060020a63ffffffff84160281526004810191909152602401602060405180830381600087803b151561091757600080fd5b600091505b5091959194509092505050565b60015433600160a060020a03908116911614156100c15760078190554260088190556001547fdf963fee409850630585bd095a505a9a956ef373cd706eb6eddec02d0a36731991600160a060020a039091169083906040518084600160a060020a0316600160a060020a03168152602001838152602001828152602001935050505060405180910390a1610392565b6000806000600d84815481101515610b6f57fe5b9060005260206000209060030201600001549250600d84815481101515610b9257fe5b9060005260206000209060030201600101549150600d84815481101515610bb557fe5b90600052602060002090600302016002015490509193909250565b6000806000806000806007541115610e7157600c5415610d40575060005b600c54811015610d3b57600c805482908110610c0657fe5b6000918252602082200154600754600160a060020a03909116935083916335f7f5e291906040516040015260405160e060020a63ffffffff841602815260048101919091526024016040805180830381600087803b1515610c6657600080fd5b6102c65a03f11515610c7757600080fd5b50505060405180519060200180516007805484900390556006549297508781029650945073__TransactLib___________________________9163e2992d29915086853060006040516020015260405160e060020a63ffffffff871602815260048101949094526024840192909252600160a060020a03908116604484015216606482015260840160206040518083038186803b1515610d1657600080fd5b6102c65a03f41515610d2757600080fd5b505050604051805160065550600101610bee565b610e71565b600354600754600160a060020a03909116906335f7f5e29060006040516040015260405160e060020a63ffffffff841602815260048101919091526024016040805180830381600087803b1515610d9657600080fd5b6102c65a03f11515610da757600080fd5b5050506040518051906020018051600780548490039055600654600354939850888202975090955073__TransactLib___________________________9263e2992d2992508790600160a060020a03163060006040516020015260405160e060020a63ffffffff871602815260048101949094526024840192909252600160a060020a03908116604484015216606482015260840160206040518083038186803b1515610e5357600080fd5b6102c65a03f41515610e6457600080fd5b5050506040518051600655505b5050505050565b60005433600160a060020a03908116911614156100c157600c805460018101610ea18382611197565b5060009182526020909120018054600160a060020a031916600160a060020a0383161790557f34ff05936c7ffe85555df53a7bf1374ed025703c493a74c4ce3316646f950e1642604051602081019190915260408082526014818301527f42617474657279206c696e6b656420746f20505600000000000000000000000060608301526080909101905180910390a1610392565b60005433600160a060020a03908116911614156100c15760038054600160a060020a031916600160a060020a038316179055610392565b6007546008549091565b60015433600160a060020a03908116911614156100c157600981905542600a8190557fae46785019700e30375a5d7b4f91e32f8060ef085111f896ebf889450aa2ab5a9060405190815260200160405180910390a1610392565b600954600554600a546000914291011015610fed57506000610ff1565b5060015b9091565b600090815260116020908152604080832054600160a060020a03168084526010909252909120805460018201546002909201549293909290565b6000805b600e548110156111315773__SortRLib______________________________63f37de025600d60006040516020015260405160e060020a63ffffffff8416028152600481019190915260240160206040518083038186803b151561109657600080fd5b6102c65a03f415156110a757600080fd5b5050506040518051905091506110bf81838301611144565b73__SortRLib______________________________63b5762770600d8460405160e060020a63ffffffff85160281526004810192909252602482015260440160006040518083038186803b151561111557600080fd5b6102c65a03f4151561112657600080fd5b505050600101611033565b5050565b600054600160a060020a031681565b600082821461119257506000828152601160205260408082208054848452919092208054600160a060020a0319808416600160a060020a039283161790945581549093169290911691821790555b505050565b815481835581811511611192576000838152602090206111929181019083016111e7565b815481835581811511611192576003028160030283600052602060002091820191016111929190611205565b61039991905b8082111561120157600081556001016111ed565b5090565b61039991905b8082111561120157600080825560018201819055600282015560030161120b5600a165627a7a72305820f41a8cc30ac8c871b20c1be38220a4eaa90387f1e8b958ae1f3a333873e44e8d0029",
  "source": "pragma solidity ^0.4.4;\r\n\r\nimport \"./IPV.sol\";\r\nimport \"./IHouse.sol\";\r\nimport \"./IBattery.sol\";\r\nimport \"./IGrid.sol\";\r\nimport \"./SortRLib.sol\";\r\nimport \"./AdrLib.sol\";\r\nimport \"./TransactLib.sol\";\r\nimport \"./GeneralDevice.sol\";\r\n\r\ncontract SinglePV is GeneralDevice, IPV {\r\n  \r\n  using AdrLib for address[];\r\n  using TransactLib for *;\r\n  // one contract is associated to one particular PV panel in the network.\r\n  // later we need to modify the parent contract that creates each PV contract - configuration.sol\r\n\r\n  uint    production;               // Production of electricity (supply: negative)\r\n  uint    prodStatusAt;             // timestamp of the update (prod)\r\n  //uint    prodTimeOut = 5 minutes;\r\n  uint    price;\r\n  uint    priceStatusAt;            // timestamp of the update (price)\r\n  //uint    priceTimeOut = 5 minutes;\r\n\r\n  address[] connectedHouse;         // List of households connected\r\n  address[] connectedBattery;       // List of batteries connected\r\n\r\n  /*struct Request {\r\n    uint  consump;\r\n    uint  rank;\r\n    uint  total;\r\n  } */\r\n\r\n  using SortRLib for SortRLib.Request[];\r\n  SortRLib.Request[] prepRankingInfo;\r\n\r\n  uint    rLength;\r\n  uint    lastRankingAt;\r\n  mapping(address=>SortRLib.Request) RankingInfo;\r\n  mapping(uint=>address) sortedRankingInfo;\r\n\r\n  /*function askForRankTEST() returns (uint, uint) {\r\n    uint consum;\r\n    uint rank;\r\n    uint tot;\r\n    bool updated;\r\n    uint num1 = 0;\r\n    uint num2 = 0;\r\n    prepRankingInfo.length = connectedHouse.length+connectedBattery.length;\r\n\r\n    for (uint i = 0; i < connectedHouse.length; i++) {\r\n      \r\n      (consum, rank, tot, updated) = IHouse(connectedHouse[i]).getSortedInfo();\r\n      GetSortedInfo(connectedHouse[i], consum, rank, tot, updated);\r\n      RankingInfo[connectedHouse[i]] = SortRLib.Request(consum, rank, tot);\r\n\r\n      prepRankingInfo[num1] = RankingInfo[connectedHouse[i]];\r\n      num1++;\r\n    }\r\n\r\n    for (i = 0; i < connectedBattery.length; i++) {\r\n        num2++;\r\n    }\r\n\r\n    return (num1, num2);\r\n  }*/\r\n\r\n  function getPrepInfo(uint _id) returns(uint consum, uint rank, uint tot) {\r\n    consum = prepRankingInfo[_id].consump;\r\n    rank = prepRankingInfo[_id].rank;\r\n    tot = prepRankingInfo[_id].total;\r\n  }\r\n\r\n  function askForRank() {\r\n    // ask and prepare for sorting the ranking...\r\n    uint consum;\r\n    uint rank;\r\n    uint tot;\r\n    bool updated;\r\n    uint num;\r\n    prepRankingInfo.length = connectedHouse.length+connectedBattery.length;\r\n    for (uint i = 0; i < connectedHouse.length; i++) {\r\n      (consum, rank, tot, updated) = IHouse(connectedHouse[i]).getSortedInfo();\r\n      //GetSortedInfo(connectedHouse[i], consum, rank, tot, updated);\r\n      if (updated) {\r\n        RankingInfo[connectedHouse[i]] = SortRLib.Request(consum, rank, tot);\r\n        prepRankingInfo[num] = RankingInfo[connectedHouse[i]];\r\n        sortedRankingInfo[num] = connectedHouse[i];\r\n        num++;\r\n      }\r\n    }\r\n    for (i = 0; i < connectedBattery.length; i++) {\r\n      (consum,rank,tot,updated) = IBattery(connectedBattery[i]).getSortedPVInfo();\r\n      //GetSortedInfo(connectedBattery[i], consum, rank, tot, updated);\r\n      if (updated) {\r\n        RankingInfo[connectedBattery[i]] = SortRLib.Request(consum, rank, tot);\r\n        prepRankingInfo[num] = RankingInfo[connectedBattery[i]];\r\n        sortedRankingInfo[num] = connectedBattery[i];\r\n        num++;\r\n      }\r\n    }\r\n    rLength = num;\r\n    prepRankingInfo.length = num;\r\n    lastRankingAt = now;\r\n  }\r\n  // This event is only for testing reason\r\n  //event GetSortedInfo(address device, uint consum, uint rank, uint tot, bool updated);\r\n\r\n  function swap (uint _id1, uint _id2) private {\r\n    if (_id1 != _id2) {\r\n      address temp;\r\n      temp = sortedRankingInfo[_id1];\r\n      sortedRankingInfo[_id1] = sortedRankingInfo[_id2];\r\n      sortedRankingInfo[_id2] = temp;   \r\n    }\r\n  }\r\n\r\n  function sortRankList() {\r\n    uint minTemp;\r\n    for (uint i=0; i<rLength; i++) {\r\n      minTemp = prepRankingInfo.minStruct();\r\n      swap(i,i+minTemp);\r\n      prepRankingInfo.del(minTemp);\r\n    }\r\n    /*\r\n    // In case there is still excess, need to ask connectedBattery to buy for the extra...as much as possible\r\n    if (connectedBattery.length != 0) {\r\n      for (i=0; i<connectedBattery.length; i++) {\r\n        uint prs = 0;\r\n        uint cap = 0;\r\n        (prs, cap) = IBattery(grid).getExcess();\r\n      \r\n      }\r\n      \r\n    }\r\n    // if the grid is connected -> add the price from the grid to the end of the sorted list \r\n    if (grid != 0x0) {\r\n      uint tP = 0;\r\n      bool tF = false;\r\n      (tP,tF) = IGrid(grid).getPrice();\r\n      setPriceQueryInfo(grid,tP,tF);\r\n      sortedPriceQueryInfo[num] = grid;\r\n    }*/\r\n  }\r\n\r\n\r\n  function getSortedInfo(uint _id) returns(address adr, uint consum, uint rank, uint tot) {\r\n    adr = sortedRankingInfo[_id];\r\n    consum = RankingInfo[adr].consump;\r\n    rank = RankingInfo[adr].rank;\r\n    tot = RankingInfo[adr].total;\r\n  }\r\n  \r\n  function initiateTransaction(uint _id) returns (uint, uint) {\r\n    uint giveoutVol;\r\n    address adr;\r\n    uint whatDeviceAccept;\r\n    uint receivedMoney;\r\n    //for (uint i = 0; i < rLength; i++) {\r\n      adr = sortedRankingInfo[_id];\r\n      giveoutVol = production.findMin(RankingInfo[adr].consump);\r\n      if (connectedBattery.AssertInside(adr)) {\r\n        whatDeviceAccept = IBattery(adr).goNoGo(giveoutVol);\r\n        production -= whatDeviceAccept;\r\n        receivedMoney = whatDeviceAccept*price;\r\n        wallet = wallet.clearMoneyTransfer(receivedMoney,adr, address(this));\r\n      } else if (connectedHouse.AssertInside(adr)) {\r\n        whatDeviceAccept = IHouse(adr).goNoGo(giveoutVol);\r\n        production -= whatDeviceAccept;\r\n        receivedMoney = whatDeviceAccept*price;\r\n        wallet = wallet.clearMoneyTransfer(receivedMoney,adr, address(this));\r\n      } else {\r\n        whatDeviceAccept = 0; \r\n      }\r\n      return(giveoutVol, whatDeviceAccept);\r\n    //}\r\n  }\r\n\r\n  function sellExcess() {\r\n    // after all, if there's still excess and the connected Battery still have the capacity.\r\n    uint whatDeviceAccept;\r\n    uint receivedMoney;\r\n    uint unitPrs;\r\n    address adr;\r\n    if (production > 0) {\r\n      //ToBattery\r\n      if (connectedBattery.length != 0) {\r\n        for (uint i = 0; i < connectedBattery.length; i++) {\r\n          adr = connectedBattery[i];\r\n          (whatDeviceAccept, unitPrs) = IBattery(adr).goExcess(production);\r\n          production -= whatDeviceAccept;\r\n          receivedMoney = whatDeviceAccept*unitPrs;\r\n          wallet = wallet.clearMoneyTransfer(receivedMoney,adr, address(this));\r\n        }\r\n      } else {\r\n        //ToGrid (by default, it's connected to grid)\r\n        (whatDeviceAccept, unitPrs) = IGrid(grid).goExcess(production);\r\n        production -= whatDeviceAccept;\r\n        receivedMoney = whatDeviceAccept*unitPrs;\r\n        wallet = wallet.clearMoneyTransfer(receivedMoney,grid, address(this));\r\n      }\r\n    }\r\n  }\r\n  /*\r\n  modifier ownerOnly {\r\n    if (msg.sender == owner) {\r\n      _;\r\n    } else {\r\n      revert();\r\n    }\r\n  }*/\r\n\r\n  modifier connectedHouseOnly {\r\n    if (connectedHouse.AssertInside(msg.sender) == true) {\r\n      _;\r\n    } else {\r\n      revert();\r\n    }\r\n  }\r\n\r\n  modifier connectedBatteryOnly (address adrB) {\r\n    var check = false;\r\n    for (uint i = 0; i < connectedBattery.length; i++) {\r\n      if (msg.sender == connectedBattery[i]) {\r\n        check = true;\r\n      }\r\n    }\r\n    if (check == true) {\r\n      _;\r\n    } else {\r\n      revert();\r\n    }\r\n  }\r\n\r\n  modifier timed (uint initialTime, uint allowedTimeOut){\r\n    if(now < initialTime + allowedTimeOut){\r\n      _;\r\n    } else {\r\n      revert();\r\n    }\r\n  }\r\n\r\n  event ProductionLog(address adr, uint produc, uint prodAt);\r\n  event ConfigurationLog(string confMod, uint statusAt);\r\n  event PriceUpdate(uint updateAt);\r\n  \r\n\r\n  function SinglePV(address adr) GeneralDevice(adr) { }\r\n\r\n  function setProduction(uint produc) ownerOnly {\r\n    production = produc;\r\n    prodStatusAt = now;\r\n    ProductionLog(owner, production, prodStatusAt);\r\n  }\r\n\r\n  function setPrice(uint prs) ownerOnly {\r\n    price = prs;\r\n    priceStatusAt = now;\r\n    PriceUpdate(now);\r\n  }\r\n\r\n  function setGridAdr(address adr) adminOnly external {\r\n    grid = adr;\r\n  }\r\n\r\n  function addConnectedHouse(address adrH) adminOnly external {\r\n    connectedHouse.push(adrH);\r\n    ConfigurationLog(\"House linked to PV\",now);\r\n  }\r\n\r\n  /*\r\n  function deleteConnectedHouse(address adrH) adminOnly external returns (bool) {\r\n    for (uint i = 0; i < connectedHouse.length; i++) {\r\n      if (adrH == connectedHouse[i]) {\r\n        delete connectedHouse[i];\r\n        if (i != connectedHouse.length-1) {\r\n          connectedHouse[i] = connectedHouse[connectedHouse.length-1];\r\n        }\r\n        connectedHouse.length--;\r\n        ConfigurationLog(\"House Deleted\",now);\r\n        return true;\r\n      }\r\n    }\r\n    return false;\r\n  }*/\r\n\r\n  function addConnectedBattery(address adrB) adminOnly external {\r\n    connectedBattery.push(adrB);\r\n    ConfigurationLog(\"Battery linked to PV\",now);\r\n\r\n  }\r\n\r\n  /*\r\n  function deleteConnectedBattery(address adrB) adminOnly external returns (bool) {\r\n    for (uint i = 0; i < connectedBattery.length; i++) {\r\n      if (adrB == connectedBattery[i]) {\r\n        delete connectedBattery[i];\r\n        if (i != connectedBattery.length-1) {\r\n          connectedBattery[i] = connectedBattery[connectedBattery.length-1];\r\n        }\r\n        connectedBattery.length--;\r\n        ConfigurationLog(\"Battery Deleted\",now);\r\n        return true;\r\n      }\r\n    }\r\n    return false;\r\n  }*/\r\n\r\n  function getProduction() external returns (uint prod, uint prodAt) {//timed(queryTime,prodTimeOut)\r\n    prod = production;\r\n    prodAt = prodStatusAt;\r\n  }\r\n\r\n  function getPrice() returns (uint prs, bool updatedOrNot) { //connectedHouseOnly external\r\n    prs = price;\r\n    //prsAt = priceStatusAt;\r\n    if (priceStatusAt + priceTimeOut < now) {\r\n      updatedOrNot = false;\r\n    } else {\r\n      updatedOrNot = true;\r\n    }\r\n    //adr = owner;\r\n  }\r\n}\r\n",
  "sourcePath": "C:\\Users\\qianc\\Documents\\Thesis\\Code\\SimpleMonitor\\contracts\\SinglePV.sol",
  "compiler": {
    "name": "solc",
    "version": "0.4.18+commit.9cf6e910.Emscripten.clang"
  },
  "schemaVersion": "1.0.1",
  "updatedAt": "2017-11-26T10:01:55.568Z"
}