{
  "contractName": "SingleHouse",
  "abi": [
    {
      "constant": false,
      "inputs": [
        {
          "name": "giveoutvol",
          "type": "uint256"
        }
      ],
      "name": "goNoGo",
      "outputs": [
        {
          "name": "",
          "type": "uint256"
        }
      ],
      "payable": false,
      "stateMutability": "nonpayable",
      "type": "function"
    },
    {
      "constant": true,
      "inputs": [],
      "name": "getWallet",
      "outputs": [
        {
          "name": "",
          "type": "int256"
        }
      ],
      "payable": false,
      "stateMutability": "view",
      "type": "function"
    },
    {
      "constant": false,
      "inputs": [
        {
          "name": "adr",
          "type": "address"
        }
      ],
      "name": "getSortedHInfo",
      "outputs": [
        {
          "name": "consum",
          "type": "uint256"
        },
        {
          "name": "rank",
          "type": "uint256"
        },
        {
          "name": "tot",
          "type": "uint256"
        },
        {
          "name": "updated",
          "type": "bool"
        }
      ],
      "payable": false,
      "stateMutability": "nonpayable",
      "type": "function"
    },
    {
      "constant": false,
      "inputs": [],
      "name": "getSortedInfo",
      "outputs": [
        {
          "name": "consum",
          "type": "uint256"
        },
        {
          "name": "rank",
          "type": "uint256"
        },
        {
          "name": "tot",
          "type": "uint256"
        },
        {
          "name": "updated",
          "type": "bool"
        }
      ],
      "payable": false,
      "stateMutability": "nonpayable",
      "type": "function"
    },
    {
      "constant": false,
      "inputs": [],
      "name": "buyExtra",
      "outputs": [],
      "payable": false,
      "stateMutability": "nonpayable",
      "type": "function"
    },
    {
      "constant": false,
      "inputs": [
        {
          "name": "consum",
          "type": "uint256"
        }
      ],
      "name": "setConsumption",
      "outputs": [],
      "payable": false,
      "stateMutability": "nonpayable",
      "type": "function"
    },
    {
      "constant": true,
      "inputs": [],
      "name": "getConsumption",
      "outputs": [
        {
          "name": "consum",
          "type": "uint256"
        },
        {
          "name": "consumAt",
          "type": "uint256"
        }
      ],
      "payable": false,
      "stateMutability": "view",
      "type": "function"
    },
    {
      "constant": false,
      "inputs": [],
      "name": "sortPriceList",
      "outputs": [],
      "payable": false,
      "stateMutability": "nonpayable",
      "type": "function"
    },
    {
      "constant": false,
      "inputs": [
        {
          "name": "adr",
          "type": "address"
        }
      ],
      "name": "setGridAdr",
      "outputs": [],
      "payable": false,
      "stateMutability": "nonpayable",
      "type": "function"
    },
    {
      "constant": false,
      "inputs": [
        {
          "name": "adr",
          "type": "address"
        }
      ],
      "name": "getSortedPosition",
      "outputs": [
        {
          "name": "",
          "type": "uint256"
        }
      ],
      "payable": false,
      "stateMutability": "nonpayable",
      "type": "function"
    },
    {
      "constant": false,
      "inputs": [
        {
          "name": "a",
          "type": "uint256"
        },
        {
          "name": "adr",
          "type": "address"
        }
      ],
      "name": "addConnectedDevice",
      "outputs": [],
      "payable": false,
      "stateMutability": "nonpayable",
      "type": "function"
    },
    {
      "constant": false,
      "inputs": [],
      "name": "askForPrice",
      "outputs": [],
      "payable": false,
      "stateMutability": "nonpayable",
      "type": "function"
    },
    {
      "constant": false,
      "inputs": [
        {
          "name": "a",
          "type": "uint256"
        }
      ],
      "name": "getConnectPVAddress",
      "outputs": [
        {
          "name": "",
          "type": "address"
        }
      ],
      "payable": false,
      "stateMutability": "nonpayable",
      "type": "function"
    },
    {
      "constant": true,
      "inputs": [],
      "name": "Admin",
      "outputs": [
        {
          "name": "",
          "type": "address"
        }
      ],
      "payable": false,
      "stateMutability": "view",
      "type": "function"
    },
    {
      "inputs": [
        {
          "name": "adr",
          "type": "address"
        }
      ],
      "payable": false,
      "stateMutability": "nonpayable",
      "type": "constructor"
    },
    {
      "anonymous": false,
      "inputs": [
        {
          "indexed": false,
          "name": "adr",
          "type": "address"
        },
        {
          "indexed": false,
          "name": "consum",
          "type": "uint256"
        },
        {
          "indexed": false,
          "name": "consumAt",
          "type": "uint256"
        }
      ],
      "name": "ConsumptionLog",
      "type": "event"
    },
    {
      "anonymous": false,
      "inputs": [
        {
          "indexed": false,
          "name": "confMod",
          "type": "string"
        },
        {
          "indexed": false,
          "name": "statusAt",
          "type": "uint256"
        }
      ],
      "name": "ConfigurationLog",
      "type": "event"
    },
    {
      "anonymous": false,
      "inputs": [
        {
          "indexed": false,
          "name": "adrFrom",
          "type": "address"
        },
        {
          "indexed": false,
          "name": "adrTo",
          "type": "address"
        },
        {
          "indexed": false,
          "name": "eVol",
          "type": "uint256"
        },
        {
          "indexed": false,
          "name": "transferAt",
          "type": "uint256"
        }
      ],
      "name": "EnergyTransferLog",
      "type": "event"
    }
  ],
  "bytecode": "0x606060405260038054600160a060020a031916905561012c600655341561002557600080fd5b60405160208061127c8339810160405280805160018054600160a060020a03928316600160a060020a03199182161790915560008054339093169290911691909117905550506112028061007a6000396000f3006060604052600436106100b65763ffffffff60e060020a6000350416630ff3728281146100bb57806313299604146100e35780631628ce6c146100f657806338a3528c146101415780633acca96d146101545780635a500ecc146101695780638a5cb1b61461017f5780638b874f72146101aa5780638d646b11146101bd578063b148f82b146101dc578063bfd11903146101fb578063c97460291461021d578063e7e2741014610230578063ff1b636d14610262575b600080fd5b34156100c657600080fd5b6100d1600435610275565b60405190815260200160405180910390f35b34156100ee57600080fd5b6100d16104ff565b341561010157600080fd5b610115600160a060020a0360043516610506565b604051938452602084019290925260408084019190915290151560608301526080909101905180910390f35b341561014c57600080fd5b6101156105b0565b341561015f57600080fd5b6101676105cd565b005b341561017457600080fd5b610167600435610718565b341561018a57600080fd5b6101926107a6565b60405191825260208201526040908101905180910390f35b34156101b557600080fd5b6101676107c7565b34156101c857600080fd5b610167600160a060020a0360043516610a1a565b34156101e757600080fd5b6100d1600160a060020a0360043516610a51565b341561020657600080fd5b610167600435600160a060020a0360243516610acc565b341561022857600080fd5b610167610b2a565b341561023b57600080fd5b610246600435610dd6565b604051600160a060020a03909116815260200160405180910390f35b341561026d57600080fd5b610246610e18565b600260009081526005602052338173__AdrLib________________________________632c2fc20e6000805160206111b783398151915284846040516020015260405160e060020a63ffffffff85160281526004810192909252600160a060020a0316602482015260440160206040518083038186803b15156102f757600080fd5b6102c65a03f4151561030857600080fd5b50505060405180519050806103b7575060016000908152600560205273__AdrLib________________________________90632c2fc20e906000805160206111978339815191529085906040516020015260405160e060020a63ffffffff85160281526004810192909252600160a060020a0316602482015260440160206040518083038186803b151561039b57600080fd5b6102c65a03f415156103ac57600080fd5b505050604051805190505b15156103c257600080fd5b60075473__TransactLib___________________________63bc2e368c90918660006040516020015260405160e060020a63ffffffff85160281526004810192909252602482015260440160206040518083038186803b151561042457600080fd5b6102c65a03f4151561043557600080fd5b50505060405180519050905060075473__TransactLib___________________________639e5fd0a99091833060006040516020015260405160e060020a63ffffffff861602815260048101939093526024830191909152600160a060020a0316604482015260640160206040518083038186803b15156104b557600080fd5b6102c65a03f415156104c657600080fd5b505050604051805160075550600160a060020a0382166000908152600b6020526040902054600480549183029091039055915050919050565b6004545b90565b6007546000808061051685610a51565b600354909350600160a060020a0316156105615760056020526000805160206111b783398151915254600160008190526000805160206111978339815191525490910101915061058f565b60056020526000805160206111b7833981519152546001600052600080516020611197833981519152540191505b42600654600a540110156105a5575060006105a9565b5060015b9193509193565b6000806000806105bf33610506565b935093509350935090919293565b60035460009081908190600160a060020a031615156105eb57600080fd5b6000600754111561071357600354600754600160a060020a0390911690636e2855449060006040516040015260405160e060020a63ffffffff841602815260048101919091526024016040805180830381600087803b151561064c57600080fd5b6102c65a03f1151561065d57600080fd5b5050506040518051906020018051600754929550925073__TransactLib___________________________91639e5fd0a99150853060006040516020015260405160e060020a63ffffffff861602815260048101939093526024830191909152600160a060020a0316604482015260640160206040518083038186803b15156106e557600080fd5b6102c65a03f415156106f657600080fd5b505050604051805160075550600480548483029081900390915591505b505050565b60015433600160a060020a03908116911614156100b65760078190554260088190556001547f93e0cabaa551645c58979b9f1e87af3e09f708241c9bdd6468e581ad0651692691600160a060020a039091169083906040518084600160a060020a0316600160a060020a03168152602001838152602001828152602001935050505060405180910390a15b50565b60008060065480600854014210156100b65760075492506008549150509091565b60008060008060006107d7610e27565b60056020526000805160206111b7833981519152546001600090815260008051602061119783398151915254909101945092505b8383101561090d5773__SortLib_______________________________63f27da568600960006040516020015260405160e060020a63ffffffff8416028152600481019190915260240160206040518083038186803b151561086c57600080fd5b6102c65a03f4151561087d57600080fd5b505050604051805190509450610898836001860303866110b5565b73__SortLib_______________________________6343168c1b60098760405160e060020a63ffffffff85160281526004810192909252602482015260440160006040518083038186803b15156108ee57600080fd5b6102c65a03f415156108ff57600080fd5b50506001909301925061080b565b600354600160a060020a031615610a135750506003546000908190600160a060020a03166398d5fdca82604051604001526040518163ffffffff1660e060020a0281526004016040805180830381600087803b151561096b57600080fd5b6102c65a03f1151561097c57600080fd5b50505060405180519060200180519193509091506040905080519081016040908152838252821515602080840191909152600354600160a060020a03166000908152600b909152208151815560208201516001909101805491151560ff19909216919091179055506003546000858152600c602052604090208054600160a060020a031916600160a060020a039092169190911790555b5050505050565b60005433600160a060020a03908116911614156100b65760038054600160a060020a031916600160a060020a0383161790556107a3565b6000805b60056020526000805160206111b783398151915254600160008190526000805160206111978339815191525490910101811015610ac1576000818152600c6020526040902054600160a060020a0384811691161415610ab957806001019150610ac6565b600101610a55565b600091505b50919050565b60005433600160a060020a03908116911614156100b6576000828152600560205260409020805460018101610b018382611102565b5060009182526020909120018054600160a060020a031916600160a060020a0383161790555050565b600080805b6001600052600560205260008051602061119783398151915254811015610c7c5760016000526005602052600080516020611197833981519152805482908110610b7557fe5b6000918252602082200154600160a060020a0316906398d5fdca90604051604001526040518163ffffffff1660e060020a0281526004016040805180830381600087803b1515610bc457600080fd5b6102c65a03f11515610bd557600080fd5b50505060405180519060200180519194509092506040905080519081016040528381528215156020808301919091526001600090815260059091526000805160206111978339815191528054600b92919085908110610c3057fe5b6000918252602080832090910154600160a060020a0316835282019290925260400190208151815560208201516001918201805460ff1916911515919091179055919091019050610b2f565b5060005b600260005260056020526000805160206111b783398151915254811015610dcd57600260005260056020526000805160206111b7833981519152805482908110610cc657fe5b6000918252602082200154600160a060020a031690632fbc0bf190604051604001526040518163ffffffff1660e060020a0281526004016040805180830381600087803b1515610d1557600080fd5b6102c65a03f11515610d2657600080fd5b50505060405180519060200180519194509092506040905080519081016040528381528215156020808301919091526002600090815260059091526000805160206111b78339815191528054600b92919085908110610d8157fe5b6000918252602080832090910154600160a060020a0316835282019290925260400190208151815560208201516001918201805460ff1916911515919091179055919091019050610c80565b505042600a5550565b600160009081526005602052600080516020611197833981519152805483908110610dfd57fe5b600091825260209091200154600160a060020a031692915050565b600054600160a060020a031681565b60056020526000805160206111b7833981519152546001600090815260008051602061119783398151915254909101610e61600982611126565b50600090505b6001600052600560205260008051602061119783398151915254811015610f7b576001600090815260056020526000805160206111978339815191528054600b92919084908110610eb457fe5b6000918252602080832090910154600160a060020a0316835282019290925260400190206009805483908110610ee657fe5b60009182526020808320845460029390930201918255600193840154918401805460ff191660ff90931615159290921790915591905260059052600080516020611197833981519152805482908110610f3b57fe5b6000918252602080832090910154838352600c90915260409091208054600160a060020a031916600160a060020a03909216919091179055600101610e67565b5060016000526005602052600080516020611197833981519152545b6009548110156107a357600560205260016000908152600080516020611197833981519152546000805160206111b78339815191528054600b93928503908110610fdd57fe5b6000918252602080832090910154600160a060020a031683528201929092526040019020600980548390811061100f57fe5b60009182526020808320845460029390930201918255600193840154918401805460ff191660ff9093161515929092179091556005905252600080516020611197833981519152546000805160206111b783398151915280549091830390811061107557fe5b6000918252602080832090910154838352600c90915260409091208054600160a060020a031916600160a060020a03909216919091179055600101610f97565b600082821461071357506000918252600c6020526040808320805492845292208054600160a060020a03908116600160a060020a0319808516919091179094558154921691909216179055565b81548183558181151161071357600083815260209020610713918101908301611152565b815481835581811511610713576002028160020283600052602060002091820191016107139190611170565b61050391905b8082111561116c5760008155600101611158565b5090565b61050391905b8082111561116c576000815560018101805460ff1916905560020161117656001471eb6eb2c5e789fc3de43f8ce62938c7d1836ec861730447e2ada8fd81017b89832631fb3c3307a103ba2c84ab569c64d6182a18893dcd163f0f1c2090733aa165627a7a723058201a64288b9d74e0363ebeec1966aa36a68847828d48bb7248511024d69fa6db600029",
  "source": "pragma solidity ^0.4.4;\r\n\r\nimport \"./SortLib.sol\";\r\nimport \"./AdrLib.sol\";\r\nimport \"./TransactLib.sol\";\r\nimport \"./IPV.sol\";\r\nimport \"./IGrid.sol\";\r\nimport \"./IBattery.sol\";\r\nimport \"./IHouse.sol\";\r\nimport \"./GeneralDevice.sol\";\r\n\r\ncontract SingleHouse is GeneralDevice, IHouse {\r\n  \r\n  // one contract is associated to one particular House in the network.\r\n\r\n  using AdrLib for address[];\r\n  using TransactLib for uint;\r\n\r\n  //uint    consumTimeOut = 5 minutes;\r\n\r\n  uint    consumStatusAt;           // timestamp of the update (consumption)\r\n  \r\n\r\n  // may be splited into another contract\r\n\r\n  /*struct PriceTF {\r\n    uint  prs;\r\n    bool  updated;\r\n  }*/\r\n\r\n  using SortLib for SortLib.PriceTF[];\r\n  SortLib.PriceTF[] prepPriceQueryInfo;\r\n\r\n  uint    lastPriceQueryAt;\r\n\r\n  mapping(address=>SortLib.PriceTF) priceQueryInfo;\r\n  mapping(uint=>address) sortedPriceQueryInfo;\r\n  \r\n// ======= Modifiers =======\r\n\r\n  modifier timed (uint allowedTimeOut) {\r\n    if(now < consumStatusAt + allowedTimeOut) {\r\n      _;\r\n    } else {\r\n      revert();\r\n    }\r\n  }\r\n\r\n// ======= Event Logs =======\r\n  event ConsumptionLog(address adr, uint consum, uint consumAt);\r\n  event ConfigurationLog(string confMod, uint statusAt);\r\n  event EnergyTransferLog(address adrFrom, address adrTo, uint eVol, uint transferAt);\r\n\r\n// ======= Basic Functionalities =======\r\n\r\n  // --- Upon contract creation and configuration ---\r\n\r\n  function SingleHouse (address adr) GeneralDevice(adr) { }\r\n  \r\n  // --- Regular usage ---\r\n\r\n  function setConsumption(uint consum) public ownerOnly {\r\n    consumption = consum;\r\n    consumStatusAt = now;\r\n    ConsumptionLog(owner, consumption, consumStatusAt);\r\n  }\r\n\r\n  function getConsumption() external view timed(consumTimeOut) returns (uint consum, uint consumAt) { \r\n    consum = consumption;\r\n    consumAt = consumStatusAt;\r\n  }\r\n\r\n  // \r\n\r\n  function askForPrice() {\r\n    // House query price info to all the connected PV/Battery. \r\n    // If the house is connected to grid (most of the time), the price of Grid will be automatically added to the end of the sorted list.\r\n    uint tP = 0;\r\n    bool tF = false;\r\n    for (uint i = 0; i < connectedDevice[1].length; i++) {\r\n      (tP,tF) = IPV(connectedDevice[1][i]).getPrice();\r\n      priceQueryInfo[connectedDevice[1][i]] = SortLib.PriceTF(tP,tF);\r\n    }\r\n    for (i = 0; i < connectedDevice[2].length; i++) {\r\n      (tP,tF) = IBattery(connectedDevice[2][i]).getSalePrice();\r\n      priceQueryInfo[connectedDevice[2][i]] = SortLib.PriceTF(tP,tF);\r\n    }\r\n    lastPriceQueryAt = now;\r\n  }\r\n\r\n  //------------------------------\r\n  // to Sort the received list of Price (from PV and Battery)\r\n  //------------------------------\r\n  \r\n\r\n  function sortPriceList() {\r\n    createPriceList();\r\n    uint maxTemp;\r\n    uint totalLength = connectedDevice[1].length + connectedDevice[2].length;\r\n    for (uint i = 0; i < totalLength; i++) {\r\n      maxTemp = prepPriceQueryInfo.maxStruct();\r\n      swap(totalLength-1-i,maxTemp);\r\n      prepPriceQueryInfo.del(maxTemp);\r\n    }\r\n    // if the grid is connected -> add the price from the grid to the end of the sorted list \r\n    if (grid != 0x0) {\r\n      uint tP = 0;\r\n      bool tF = false;\r\n      (tP,tF) = IGrid(grid).getPrice();\r\n      priceQueryInfo[grid] = SortLib.PriceTF(tP,tF);\r\n      //setPriceQueryInfo(grid,tP,tF);\r\n      sortedPriceQueryInfo[totalLength] = grid;\r\n    }\r\n  }\r\n\r\n  function createPriceList() private {\r\n    prepPriceQueryInfo.length = connectedDevice[1].length + connectedDevice[2].length;\r\n    //sortedPriceQueryInfo.length = prepPriceQueryInfo.length; => sortedPQI is using mapping now\r\n    for (uint i = 0; i < connectedDevice[1].length; i++) {\r\n      prepPriceQueryInfo[i] = priceQueryInfo[connectedDevice[1][i]];\r\n      sortedPriceQueryInfo[i] = connectedDevice[1][i];\r\n    }\r\n    for (i = connectedDevice[1].length; i < prepPriceQueryInfo.length; i++) {\r\n      prepPriceQueryInfo[i] = priceQueryInfo[connectedDevice[2][i-connectedDevice[1].length]];\r\n      sortedPriceQueryInfo[i] = connectedDevice[2][i-connectedDevice[1].length];\r\n    }\r\n  }\r\n\r\n  function swap (uint _id1, uint _id2) private {\r\n    if (_id1 != _id2) {\r\n      address temp;\r\n      temp = sortedPriceQueryInfo[_id1];\r\n      sortedPriceQueryInfo[_id1] = sortedPriceQueryInfo[_id2];\r\n      sortedPriceQueryInfo[_id2] = temp;   \r\n    }\r\n  }\r\n\r\n  //------------------------------\r\n  // Once sorted, actively send to all the connected devices.\r\n  //------------------------------\r\n\r\n  function getSortedPosition (address adr) returns (uint) { // should be private, here the \"private\" is temporarily removed due to testing\r\n    //require(adr != 0x0);      // Sometimes with this line, there will be error in the configuration.js test... sometimes not.... sometimes need to _migrate_ twice to eliminate the error.... Don't know why\r\n    for (uint i=0; i<connectedDevice[1].length + connectedDevice[2].length+1; i++) {\r\n      if (adr == sortedPriceQueryInfo[i]) {\r\n        return (i+1);\r\n      }\r\n    }\r\n    return 0;\r\n  }\r\n\r\n  function getSortedInfo() external returns(uint consum, uint rank, uint tot, bool updated) {\r\n    return  getSortedHInfo(msg.sender);\r\n  }\r\n\r\n  function getSortedHInfo(address adr) returns(uint consum, uint rank, uint tot, bool updated) {  // should be private, here the \"private\" is temporarily removed due to testing\r\n    //address adr = msg.sender;\r\n    consum = consumption;\r\n    rank = getSortedPosition(adr);\r\n    if (grid != 0x0) {\r\n      tot = connectedDevice[1].length + connectedDevice[2].length+1;\r\n    } else {\r\n      tot = connectedDevice[1].length + connectedDevice[2].length;\r\n    }\r\n    if (lastPriceQueryAt + consumTimeOut < now) {\r\n      updated = false;    // The house may be inactive for a while, so the list stored is outdated.\r\n    } else {\r\n      updated = true;      \r\n    }\r\n  }\r\n\r\n  // ------------Functions used in transaction------------------\r\n  function goNoGo(uint giveoutvol) returns (uint) {\r\n    address adrDevice = msg.sender;\r\n    uint takeoutvol;\r\n    require(connectedDevice[2].assertInside(adrDevice) || connectedDevice[1].assertInside(adrDevice));\r\n    takeoutvol = consumption.findMin(giveoutvol);\r\n    consumption = consumption.clearEnergyTransfer(takeoutvol, address(this));\r\n    //EnergyTransferLog(adrDevice,address(this), takeoutvol, consumption);\r\n    //wallet = wallet.clearMoneyTransfer(-int(takeoutvol*priceQueryInfo[adrDevice].prs), adrDevice);\r\n    wallet -= int(takeoutvol*priceQueryInfo[adrDevice].prs);\r\n    return (takeoutvol); \r\n  }\r\n\r\n  function buyExtra() {\r\n    // when houses still have extra needs...\r\n    uint whatDeviceAccept;\r\n    uint receivedMoney;\r\n    uint unitPrs;\r\n    require(grid != 0x0);\r\n    if (consumption > 0) {\r\n      (whatDeviceAccept, unitPrs) = IGrid(grid).goExtra(consumption);\r\n      consumption = consumption.clearEnergyTransfer(whatDeviceAccept, address(this));\r\n      receivedMoney = whatDeviceAccept*unitPrs;\r\n      wallet -= int(receivedMoney);\r\n    }\r\n  }\r\n\r\n\r\n  // ------------Functions used in testing------------------\r\n/*\r\n  function getSortedPriceList (uint _id) returns (address) {\r\n    return sortedPriceQueryInfo[_id];\r\n  }\r\n\r\n  function getAskedPrice(address adr) returns (uint,bool) {\r\n    return (priceQueryInfo[adr].prs,priceQueryInfo[adr].updated) ;\r\n  }\r\n\r\n  function askForPricePV(uint i) returns (uint,bool) {\r\n    return IPV(connectedDevice[1][i]).getPrice();\r\n  }\r\n\r\n  function askForPriceB(uint i) returns (uint,bool) {\r\n    return IBattery(connectedDevice[2][i]).getSalePrice();\r\n  }\r\n\r\n  function getOwnerAdmin() returns (address, address){\r\n    return (owner,Admin);\r\n  }\r\n\r\n  function getConnectedPVCount() returns (uint){\r\n    return connectedDevice[1].length;\r\n  }\r\n\r\n  function getconnectedBatteryCount() returns (uint){\r\n    return connectedDevice[2].length;\r\n  }\r\n\r\n  function getConnectPVAddress(uint a) returns (address) {\r\n    if (a<connectedDevice[1].length) {\r\n      return connectedDevice[1][a];\r\n    } else {\r\n      return 0x0;\r\n    }\r\n  }\r\n\r\n  function getconnectedBatteryAddress(uint a) returns (address) {\r\n    if (a<connectedDevice[2].length) {\r\n      return connectedDevice[2][a];\r\n    } else {\r\n      return 0x0;\r\n   \r\n    }\r\n  }\r\n  */\r\n\r\n  function getConnectPVAddress(uint a) returns (address) {\r\n      return connectedDevice[1][a];\r\n  }\r\n}\r\n",
  "sourcePath": "C:\\Users\\qianc\\Documents\\Thesis\\Code\\SimpleMonitor\\contracts\\SingleHouse.sol",
  "compiler": {
    "name": "solc",
    "version": "0.4.18+commit.9cf6e910.Emscripten.clang"
  },
  "schemaVersion": "1.0.1",
  "updatedAt": "2017-11-26T21:22:43.752Z"
}