{
  "contractName": "SinglePV",
  "abi": [
    {
      "constant": false,
      "inputs": [],
      "name": "getWallet",
      "outputs": [
        {
          "name": "",
          "type": "int256"
        }
      ],
      "payable": false,
      "stateMutability": "nonpayable",
      "type": "function"
    },
    {
      "constant": false,
      "inputs": [],
      "name": "askForRank",
      "outputs": [],
      "payable": false,
      "stateMutability": "nonpayable",
      "type": "function"
    },
    {
      "constant": false,
      "inputs": [
        {
          "name": "_id",
          "type": "uint256"
        }
      ],
      "name": "initiateTransaction",
      "outputs": [
        {
          "name": "",
          "type": "uint256"
        },
        {
          "name": "",
          "type": "uint256"
        }
      ],
      "payable": false,
      "stateMutability": "nonpayable",
      "type": "function"
    },
    {
      "constant": false,
      "inputs": [
        {
          "name": "produc",
          "type": "uint256"
        }
      ],
      "name": "setProduction",
      "outputs": [],
      "payable": false,
      "stateMutability": "nonpayable",
      "type": "function"
    },
    {
      "constant": false,
      "inputs": [
        {
          "name": "_id",
          "type": "uint256"
        }
      ],
      "name": "getPrepInfo",
      "outputs": [
        {
          "name": "consum",
          "type": "uint256"
        },
        {
          "name": "rank",
          "type": "uint256"
        },
        {
          "name": "tot",
          "type": "uint256"
        }
      ],
      "payable": false,
      "stateMutability": "nonpayable",
      "type": "function"
    },
    {
      "constant": false,
      "inputs": [],
      "name": "sellExcess",
      "outputs": [],
      "payable": false,
      "stateMutability": "nonpayable",
      "type": "function"
    },
    {
      "constant": false,
      "inputs": [
        {
          "name": "adr",
          "type": "address"
        }
      ],
      "name": "setGridAdr",
      "outputs": [],
      "payable": false,
      "stateMutability": "nonpayable",
      "type": "function"
    },
    {
      "constant": false,
      "inputs": [],
      "name": "getProduction",
      "outputs": [
        {
          "name": "prod",
          "type": "uint256"
        },
        {
          "name": "prodAt",
          "type": "uint256"
        }
      ],
      "payable": false,
      "stateMutability": "nonpayable",
      "type": "function"
    },
    {
      "constant": false,
      "inputs": [
        {
          "name": "prs",
          "type": "uint256"
        }
      ],
      "name": "setPrice",
      "outputs": [],
      "payable": false,
      "stateMutability": "nonpayable",
      "type": "function"
    },
    {
      "constant": false,
      "inputs": [],
      "name": "getPrice",
      "outputs": [
        {
          "name": "prs",
          "type": "uint256"
        },
        {
          "name": "updatedOrNot",
          "type": "bool"
        }
      ],
      "payable": false,
      "stateMutability": "nonpayable",
      "type": "function"
    },
    {
      "constant": false,
      "inputs": [
        {
          "name": "a",
          "type": "uint256"
        },
        {
          "name": "adr",
          "type": "address"
        }
      ],
      "name": "addConnectedDevice",
      "outputs": [],
      "payable": false,
      "stateMutability": "nonpayable",
      "type": "function"
    },
    {
      "constant": false,
      "inputs": [
        {
          "name": "_id",
          "type": "uint256"
        }
      ],
      "name": "getSortedInfo",
      "outputs": [
        {
          "name": "adr",
          "type": "address"
        },
        {
          "name": "consum",
          "type": "uint256"
        },
        {
          "name": "rank",
          "type": "uint256"
        },
        {
          "name": "tot",
          "type": "uint256"
        }
      ],
      "payable": false,
      "stateMutability": "nonpayable",
      "type": "function"
    },
    {
      "constant": false,
      "inputs": [],
      "name": "sortRankList",
      "outputs": [],
      "payable": false,
      "stateMutability": "nonpayable",
      "type": "function"
    },
    {
      "constant": true,
      "inputs": [],
      "name": "Admin",
      "outputs": [
        {
          "name": "",
          "type": "address"
        }
      ],
      "payable": false,
      "stateMutability": "view",
      "type": "function"
    },
    {
      "inputs": [
        {
          "name": "adr",
          "type": "address"
        }
      ],
      "payable": false,
      "stateMutability": "nonpayable",
      "type": "constructor"
    },
    {
      "anonymous": false,
      "inputs": [
        {
          "indexed": false,
          "name": "adr",
          "type": "address"
        },
        {
          "indexed": false,
          "name": "produc",
          "type": "uint256"
        },
        {
          "indexed": false,
          "name": "prodAt",
          "type": "uint256"
        }
      ],
      "name": "ProductionLog",
      "type": "event"
    },
    {
      "anonymous": false,
      "inputs": [
        {
          "indexed": false,
          "name": "confMod",
          "type": "string"
        },
        {
          "indexed": false,
          "name": "statusAt",
          "type": "uint256"
        }
      ],
      "name": "ConfigurationLog",
      "type": "event"
    },
    {
      "anonymous": false,
      "inputs": [
        {
          "indexed": false,
          "name": "updateAt",
          "type": "uint256"
        }
      ],
      "name": "PriceUpdate",
      "type": "event"
    }
  ],
  "bytecode": "0x606060405260038054600160a060020a031916905561012c6006819055600755341561002a57600080fd5b60405160208061138d8339810160405280805160018054600160a060020a03928316600160a060020a031991821617909155600080543390931692909116919091179055505061130e8061007f6000396000f3006060604052600436106100b65763ffffffff60e060020a6000350416631329960481146100bb5780633d7224dc146100e05780633fd2007d146100f5578063567cc2b61461012357806366b294431461013957806367a2829d146101735780638d646b11146101865780638e4dfebb146101a557806391b7f5ed146101b857806398d5fdca146101ce578063bfd11903146101fb578063d5adad541461021d578063fba3016714610270578063ff1b636d14610283575b600080fd5b34156100c657600080fd5b6100ce6102b2565b60405190815260200160405180910390f35b34156100eb57600080fd5b6100f36102b9565b005b341561010057600080fd5b61010b6004356107c8565b60405191825260208201526040908101905180910390f35b341561012e57600080fd5b6100f3600435610b39565b341561014457600080fd5b61014f600435610bc7565b60405180848152602001838152602001828152602001935050505060405180910390f35b341561017e57600080fd5b6100f3610c3c565b341561019157600080fd5b6100f3600160a060020a0360043516610f29565b34156101b057600080fd5b61010b610f6d565b34156101c357600080fd5b6100f3600435610f77565b34156101d957600080fd5b6101e1610fd1565b604051918252151560208201526040908101905180910390f35b341561020657600080fd5b6100f3600435600160a060020a0360243516610ff6565b341561022857600080fd5b610233600435611062565b6040518085600160a060020a0316600160a060020a0316815260200184815260200183815260200182815260200194505050505060405180910390f35b341561027b57600080fd5b6100f361109c565b341561028e57600080fd5b61029661119e565b604051600160a060020a03909116815260200160405180910390f35b6008545b90565b60056020526000805160206112a38339815191525460008080526000805160206112c383398151915254909182918291829182918291016102fb600d8261120d565b50600090505b6000805260056020526000805160206112c383398151915254811015610557576000805260056020526000805160206112c383398151915280548290811061034557fe5b6000918252602082200154600160a060020a0316906338a3528c90604051608001526040518163ffffffff1660e060020a028152600401608060405180830381600087803b151561039557600080fd5b6102c65a03f115156103a657600080fd5b5050506040518051906020018051906020018051906020018051939950919750955090935050821561054f57606060405190810160409081528782526020808301889052908201869052600080805260059091526000805160206112c3833981519152805460109291908590811061041a57fe5b6000918252602080832090910154600160a060020a0316835282019290925260400190208151815560208201518160010155604082015160029091015550600080805260056020526000805160206112c3833981519152805460109291908490811061048257fe5b6000918252602080832090910154600160a060020a031683528201929092526040019020600d8054849081106104b457fe5b6000918252602080832084546003909302019182556001808501549083015560029384015493909101929092558052600590526000805160206112c383398151915280548290811061050257fe5b600091825260208083209091015484835260119091526040909120805473ffffffffffffffffffffffffffffffffffffffff1916600160a060020a03909216919091179055600191909101905b600101610301565b5060005b600260005260056020526000805160206112a3833981519152548110156107aa57600260005260056020526000805160206112a38339815191528054829081106105a157fe5b6000918252602082200154600160a060020a03169063cf7fc76290604051608001526040518163ffffffff1660e060020a028152600401608060405180830381600087803b15156105f157600080fd5b6102c65a03f1151561060257600080fd5b505050604051805190602001805190602001805190602001805193995091975095509093505082156107a257606060405190810160405280878152602001868152602001858152506010600060056000600281526020019081526020016000208481548110151561066f57fe5b6000918252602080832090910154600160a060020a03168352820192909252604001902081518155602082015181600101556040820151600291820155600090815260056020526000805160206112a3833981519152805460109350849081106106d557fe5b6000918252602080832090910154600160a060020a031683528201929092526040019020600d80548490811061070757fe5b6000918252602080832084546003909302019182556001808501549083015560029384015491840191909155919052600590526000805160206112a383398151915280548290811061075557fe5b600091825260208083209091015484835260119091526040909120805473ffffffffffffffffffffffffffffffffffffffff1916600160a060020a03909216919091179055600191909101905b60010161055b565b600e829055816107bb600d8261120d565b505042600f555050505050565b600081815260116020908152604080832054600954600160a060020a039091168085526010909352818420548493849390928492839273__TransactLib___________________________9263bc2e368c9290918590516020015260405160e060020a63ffffffff85160281526004810192909252602482015260440160206040518083038186803b151561085c57600080fd5b6102c65a03f4151561086d57600080fd5b505050604051805160026000908152600560205290955073__AdrLib________________________________91506354859436906000805160206112a38339815191529086906040516020015260405160e060020a63ffffffff85160281526004810192909252600160a060020a0316602482015260440160206040518083038186803b15156108fc57600080fd5b6102c65a03f4151561090d57600080fd5b5050506040518051905015610a375782600160a060020a0316630ff372828560006040516020015260405160e060020a63ffffffff84160281526004810191909152602401602060405180830381600087803b151561096b57600080fd5b6102c65a03f1151561097c57600080fd5b5050506040518051600980548290039055600b546008549194508402925073__TransactLib___________________________915063e2992d299083863060006040516020015260405160e060020a63ffffffff871602815260048101949094526024840192909252600160a060020a03908116604484015216606482015260840160206040518083038186803b1515610a1557600080fd5b6102c65a03f41515610a2657600080fd5b505050604051805160085550610b2c565b6000808052600560205273__AdrLib________________________________906354859436906000805160206112c38339815191529086906040516020015260405160e060020a63ffffffff85160281526004810192909252600160a060020a0316602482015260440160206040518083038186803b1515610ab857600080fd5b6102c65a03f41515610ac957600080fd5b5050506040518051905015610b275782600160a060020a0316630ff372828560006040516020015260405160e060020a63ffffffff84160281526004810191909152602401602060405180830381600087803b151561096b57600080fd5b600091505b5091959194509092505050565b60015433600160a060020a03908116911614156100b657600981905542600a8190556001547fdf963fee409850630585bd095a505a9a956ef373cd706eb6eddec02d0a36731991600160a060020a039091169083906040518084600160a060020a0316600160a060020a03168152602001838152602001828152602001935050505060405180910390a15b50565b6000806000600d84815481101515610bdb57fe5b9060005260206000209060030201600001549250600d84815481101515610bfe57fe5b9060005260206000209060030201600101549150600d84815481101515610c2157fe5b90600052602060002090600302016002015490509193909250565b6000806000806000806009541115610f2257600260005260056020526000805160206112a38339815191525415610df1575060005b600260005260056020526000805160206112a383398151915254811015610dec57600260005260056020526000805160206112a3833981519152805482908110610cb757fe5b6000918252602082200154600954600160a060020a03909116935083916335f7f5e291906040516040015260405160e060020a63ffffffff841602815260048101919091526024016040805180830381600087803b1515610d1757600080fd5b6102c65a03f11515610d2857600080fd5b50505060405180519060200180516009805484900390556008549297508781029650945073__TransactLib___________________________9163e2992d29915086853060006040516020015260405160e060020a63ffffffff871602815260048101949094526024840192909252600160a060020a03908116604484015216606482015260840160206040518083038186803b1515610dc757600080fd5b6102c65a03f41515610dd857600080fd5b505050604051805160085550600101610c71565b610f22565b600354600954600160a060020a03909116906335f7f5e29060006040516040015260405160e060020a63ffffffff841602815260048101919091526024016040805180830381600087803b1515610e4757600080fd5b6102c65a03f11515610e5857600080fd5b5050506040518051906020018051600980548490039055600854600354939850888202975090955073__TransactLib___________________________9263e2992d2992508790600160a060020a03163060006040516020015260405160e060020a63ffffffff871602815260048101949094526024840192909252600160a060020a03908116604484015216606482015260840160206040518083038186803b1515610f0457600080fd5b6102c65a03f41515610f1557600080fd5b5050506040518051600855505b5050505050565b60005433600160a060020a03908116911614156100b6576003805473ffffffffffffffffffffffffffffffffffffffff1916600160a060020a038316179055610bc4565b600954600a549091565b60015433600160a060020a03908116911614156100b657600b81905542600c8190557fae46785019700e30375a5d7b4f91e32f8060ef085111f896ebf889450aa2ab5a9060405190815260200160405180910390a1610bc4565b600b54600754600c546000914291011015610fee57506000610ff2565b5060015b9091565b60005433600160a060020a03908116911614156100b657600082815260056020526040902080546001810161102b8382611239565b506000918252602090912001805473ffffffffffffffffffffffffffffffffffffffff1916600160a060020a0383161790555b5050565b600090815260116020908152604080832054600160a060020a03168084526010909252909120805460018201546002909201549293909290565b6000805b600e5481101561105e5773__SortRLib______________________________63f37de025600d60006040516020015260405160e060020a63ffffffff8416028152600481019190915260240160206040518083038186803b151561110357600080fd5b6102c65a03f4151561111457600080fd5b50505060405180519050915061112c818383016111ad565b73__SortRLib______________________________63b5762770600d8460405160e060020a63ffffffff85160281526004810192909252602482015260440160006040518083038186803b151561118257600080fd5b6102c65a03f4151561119357600080fd5b5050506001016110a0565b600054600160a060020a031681565b60008282146112085750600082815260116020526040808220805484845291909220805473ffffffffffffffffffffffffffffffffffffffff19808416600160a060020a039283161790945581549093169290911691821790555b505050565b81548183558181151161120857600302816003028360005260206000209182019101611208919061125d565b81548183558181151161120857600083815260209020611208918101908301611288565b6102b691905b80821115611284576000808255600182018190556002820155600301611263565b5090565b6102b691905b80821115611284576000815560010161128e560089832631fb3c3307a103ba2c84ab569c64d6182a18893dcd163f0f1c2090733a05b8ccbb9d4d8fb16ea74ce3c29a41f1b461fbdaff4714a0d9a8eb05499746bca165627a7a72305820ac5e21ed7cef2c7ed5195eadf42fb7c1444be952f687a53adf8ac1a06fe2be690029",
  "source": "pragma solidity ^0.4.4;\r\n\r\nimport \"./IPV.sol\";\r\nimport \"./IHouse.sol\";\r\nimport \"./IBattery.sol\";\r\nimport \"./IGrid.sol\";\r\nimport \"./SortRLib.sol\";\r\nimport \"./AdrLib.sol\";\r\nimport \"./TransactLib.sol\";\r\nimport \"./GeneralDevice.sol\";\r\n\r\ncontract SinglePV is GeneralDevice, IPV {\r\n  \r\n  using AdrLib for address[];\r\n  using TransactLib for *;\r\n  // one contract is associated to one particular PV panel in the network.\r\n  // later we need to modify the parent contract that creates each PV contract - configuration.sol\r\n\r\n  uint    production;               // Production of electricity (supply: negative)\r\n  uint    prodStatusAt;             // timestamp of the update (prod)\r\n  //uint    prodTimeOut = 5 minutes;\r\n  uint    price;\r\n  uint    priceStatusAt;            // timestamp of the update (price)\r\n  //uint    priceTimeOut = 5 minutes;\r\n\r\n\r\n  /*struct Request {\r\n    uint  consump;\r\n    uint  rank;\r\n    uint  total;\r\n  } */\r\n\r\n  using SortRLib for SortRLib.Request[];\r\n  SortRLib.Request[] prepRankingInfo;\r\n\r\n  uint    rLength;\r\n  uint    lastRankingAt;\r\n  mapping(address=>SortRLib.Request) RankingInfo;\r\n  mapping(uint=>address) sortedRankingInfo;\r\n\r\n  /*function askForRankTEST() returns (uint, uint) {\r\n    uint consum;\r\n    uint rank;\r\n    uint tot;\r\n    bool updated;\r\n    uint num1 = 0;\r\n    uint num2 = 0;\r\n    prepRankingInfo.length = connectedHouse.length+connectedBattery.length;\r\n\r\n    for (uint i = 0; i < connectedHouse.length; i++) {\r\n      \r\n      (consum, rank, tot, updated) = IHouse(connectedHouse[i]).getSortedInfo();\r\n      GetSortedInfo(connectedHouse[i], consum, rank, tot, updated);\r\n      RankingInfo[connectedHouse[i]] = SortRLib.Request(consum, rank, tot);\r\n\r\n      prepRankingInfo[num1] = RankingInfo[connectedHouse[i]];\r\n      num1++;\r\n    }\r\n\r\n    for (i = 0; i < connectedBattery.length; i++) {\r\n        num2++;\r\n    }\r\n\r\n    return (num1, num2);\r\n  }*/\r\n\r\n  function getPrepInfo(uint _id) returns(uint consum, uint rank, uint tot) {\r\n    consum = prepRankingInfo[_id].consump;\r\n    rank = prepRankingInfo[_id].rank;\r\n    tot = prepRankingInfo[_id].total;\r\n  }\r\n\r\n  function askForRank() {\r\n    // ask and prepare for sorting the ranking...\r\n    uint consum;\r\n    uint rank;\r\n    uint tot;\r\n    bool updated;\r\n    uint num;\r\n    prepRankingInfo.length = connectedDevice[0].length+connectedDevice[2].length;\r\n    for (uint i = 0; i < connectedDevice[0].length; i++) {\r\n      (consum, rank, tot, updated) = IHouse(connectedDevice[0][i]).getSortedInfo();\r\n      //GetSortedInfo(connectedHouse[i], consum, rank, tot, updated);\r\n      if (updated) {\r\n        RankingInfo[connectedDevice[0][i]] = SortRLib.Request(consum, rank, tot);\r\n        prepRankingInfo[num] = RankingInfo[connectedDevice[0][i]];\r\n        sortedRankingInfo[num] = connectedDevice[0][i];\r\n        num++;\r\n      }\r\n    }\r\n    for (i = 0; i < connectedDevice[2].length; i++) {\r\n      (consum,rank,tot,updated) = IBattery(connectedDevice[2][i]).getSortedPVInfo();\r\n      //GetSortedInfo(connectedBattery[i], consum, rank, tot, updated);\r\n      if (updated) {\r\n        RankingInfo[connectedDevice[2][i]] = SortRLib.Request(consum, rank, tot);\r\n        prepRankingInfo[num] = RankingInfo[connectedDevice[2][i]];\r\n        sortedRankingInfo[num] = connectedDevice[2][i];\r\n        num++;\r\n      }\r\n    }\r\n    rLength = num;\r\n    prepRankingInfo.length = num;\r\n    lastRankingAt = now;\r\n  }\r\n  // This event is only for testing reason\r\n  //event GetSortedInfo(address device, uint consum, uint rank, uint tot, bool updated);\r\n\r\n  function swap (uint _id1, uint _id2) private {\r\n    if (_id1 != _id2) {\r\n      address temp;\r\n      temp = sortedRankingInfo[_id1];\r\n      sortedRankingInfo[_id1] = sortedRankingInfo[_id2];\r\n      sortedRankingInfo[_id2] = temp;   \r\n    }\r\n  }\r\n\r\n  function sortRankList() {\r\n    uint minTemp;\r\n    for (uint i=0; i<rLength; i++) {\r\n      minTemp = prepRankingInfo.minStruct();\r\n      swap(i,i+minTemp);\r\n      prepRankingInfo.del(minTemp);\r\n    }\r\n    /*\r\n    // In case there is still excess, need to ask connectedBattery to buy for the extra...as much as possible\r\n    if (connectedBattery.length != 0) {\r\n      for (i=0; i<connectedBattery.length; i++) {\r\n        uint prs = 0;\r\n        uint cap = 0;\r\n        (prs, cap) = IBattery(grid).getExcess();\r\n      \r\n      }\r\n      \r\n    }\r\n    // if the grid is connected -> add the price from the grid to the end of the sorted list \r\n    if (grid != 0x0) {\r\n      uint tP = 0;\r\n      bool tF = false;\r\n      (tP,tF) = IGrid(grid).getPrice();\r\n      setPriceQueryInfo(grid,tP,tF);\r\n      sortedPriceQueryInfo[num] = grid;\r\n    }*/\r\n  }\r\n\r\n\r\n  function getSortedInfo(uint _id) returns(address adr, uint consum, uint rank, uint tot) {\r\n    adr = sortedRankingInfo[_id];\r\n    consum = RankingInfo[adr].consump;\r\n    rank = RankingInfo[adr].rank;\r\n    tot = RankingInfo[adr].total;\r\n  }\r\n  \r\n  function initiateTransaction(uint _id) returns (uint, uint) {\r\n    uint giveoutVol;\r\n    address adr;\r\n    uint whatDeviceAccept;\r\n    uint receivedMoney;\r\n    //for (uint i = 0; i < rLength; i++) {\r\n      adr = sortedRankingInfo[_id];\r\n      giveoutVol = production.findMin(RankingInfo[adr].consump);\r\n      if (connectedDevice[2].AssertInside(adr)) {\r\n        whatDeviceAccept = IBattery(adr).goNoGo(giveoutVol);\r\n        production -= whatDeviceAccept;\r\n        receivedMoney = whatDeviceAccept*price;\r\n        wallet = wallet.clearMoneyTransfer(receivedMoney,adr, address(this));\r\n      } else if (connectedDevice[0].AssertInside(adr)) {\r\n        whatDeviceAccept = IHouse(adr).goNoGo(giveoutVol);\r\n        production -= whatDeviceAccept;\r\n        receivedMoney = whatDeviceAccept*price;\r\n        wallet = wallet.clearMoneyTransfer(receivedMoney,adr, address(this));\r\n      } else {\r\n        whatDeviceAccept = 0; \r\n      }\r\n      return(giveoutVol, whatDeviceAccept);\r\n    //}\r\n  }\r\n\r\n  function sellExcess() {\r\n    // after all, if there's still excess and the connected Battery still have the capacity.\r\n    uint whatDeviceAccept;\r\n    uint receivedMoney;\r\n    uint unitPrs;\r\n    address adr;\r\n    if (production > 0) {\r\n      //ToBattery\r\n      if (connectedDevice[2].length != 0) {\r\n        for (uint i = 0; i < connectedDevice[2].length; i++) {\r\n          adr = connectedDevice[2][i];\r\n          (whatDeviceAccept, unitPrs) = IBattery(adr).goExcess(production);\r\n          production -= whatDeviceAccept;\r\n          receivedMoney = whatDeviceAccept*unitPrs;\r\n          wallet = wallet.clearMoneyTransfer(receivedMoney,adr, address(this));\r\n        }\r\n      } else {\r\n        //ToGrid (by default, it's connected to grid)\r\n        (whatDeviceAccept, unitPrs) = IGrid(grid).goExcess(production);\r\n        production -= whatDeviceAccept;\r\n        receivedMoney = whatDeviceAccept*unitPrs;\r\n        wallet = wallet.clearMoneyTransfer(receivedMoney,grid, address(this));\r\n      }\r\n    }\r\n  }\r\n  /*\r\n  modifier ownerOnly {\r\n    if (msg.sender == owner) {\r\n      _;\r\n    } else {\r\n      revert();\r\n    }\r\n  }*/\r\n\r\n  modifier connectedHouseOnly {\r\n    if (connectedDevice[0].AssertInside(msg.sender) == true) {\r\n      _;\r\n    } else {\r\n      revert();\r\n    }\r\n  }\r\n\r\n  modifier connectedBatteryOnly (address adrB) {\r\n    var check = false;\r\n    for (uint i = 0; i < connectedDevice[2].length; i++) {\r\n      if (msg.sender == connectedDevice[2][i]) {\r\n        check = true;\r\n      }\r\n    }\r\n    if (check == true) {\r\n      _;\r\n    } else {\r\n      revert();\r\n    }\r\n  }\r\n\r\n  modifier timed (uint initialTime, uint allowedTimeOut){\r\n    if(now < initialTime + allowedTimeOut){\r\n      _;\r\n    } else {\r\n      revert();\r\n    }\r\n  }\r\n\r\n  event ProductionLog(address adr, uint produc, uint prodAt);\r\n  event ConfigurationLog(string confMod, uint statusAt);\r\n  event PriceUpdate(uint updateAt);\r\n  \r\n\r\n  function SinglePV(address adr) GeneralDevice(adr) { }\r\n\r\n  function setProduction(uint produc) ownerOnly {\r\n    production = produc;\r\n    prodStatusAt = now;\r\n    ProductionLog(owner, production, prodStatusAt);\r\n  }\r\n\r\n  function setPrice(uint prs) ownerOnly {\r\n    price = prs;\r\n    priceStatusAt = now;\r\n    PriceUpdate(now);\r\n  }\r\n\r\n  /*function setGridAdr(address adr) adminOnly external {\r\n    grid = adr;\r\n  }*/\r\n\r\n  /*function addConnectedHouse(address adrH) adminOnly external {\r\n    connectedDevice[0].push(adrH);\r\n    ConfigurationLog(\"House linked to PV\",now);\r\n  }*/\r\n\r\n  /*\r\n  function deleteConnectedHouse(address adrH) adminOnly external returns (bool) {\r\n    for (uint i = 0; i < connectedHouse.length; i++) {\r\n      if (adrH == connectedHouse[i]) {\r\n        delete connectedHouse[i];\r\n        if (i != connectedHouse.length-1) {\r\n          connectedHouse[i] = connectedHouse[connectedHouse.length-1];\r\n        }\r\n        connectedHouse.length--;\r\n        ConfigurationLog(\"House Deleted\",now);\r\n        return true;\r\n      }\r\n    }\r\n    return false;\r\n  }*/\r\n/*\r\n  function addConnectedBattery(address adrB) adminOnly external {\r\n    connectedDevice[2].push(adrB);\r\n    ConfigurationLog(\"Battery linked to PV\",now);\r\n\r\n  }*/\r\n\r\n  /*\r\n  function deleteConnectedBattery(address adrB) adminOnly external returns (bool) {\r\n    for (uint i = 0; i < connectedBattery.length; i++) {\r\n      if (adrB == connectedBattery[i]) {\r\n        delete connectedBattery[i];\r\n        if (i != connectedBattery.length-1) {\r\n          connectedBattery[i] = connectedBattery[connectedBattery.length-1];\r\n        }\r\n        connectedBattery.length--;\r\n        ConfigurationLog(\"Battery Deleted\",now);\r\n        return true;\r\n      }\r\n    }\r\n    return false;\r\n  }*/\r\n\r\n  function getProduction() external returns (uint prod, uint prodAt) {//timed(queryTime,prodTimeOut)\r\n    prod = production;\r\n    prodAt = prodStatusAt;\r\n  }\r\n\r\n  function getPrice() returns (uint prs, bool updatedOrNot) { //connectedHouseOnly external\r\n    prs = price;\r\n    //prsAt = priceStatusAt;\r\n    if (priceStatusAt + priceTimeOut < now) {\r\n      updatedOrNot = false;\r\n    } else {\r\n      updatedOrNot = true;\r\n    }\r\n    //adr = owner;\r\n  }\r\n}\r\n",
  "sourcePath": "C:\\Users\\qianc\\Documents\\Thesis\\Code\\SimpleMonitor\\contracts\\SinglePV.sol",
  "compiler": {
    "name": "solc",
    "version": "0.4.18+commit.9cf6e910.Emscripten.clang"
  },
  "schemaVersion": "1.0.1",
  "updatedAt": "2017-11-26T20:51:18.696Z"
}