{
  "contractName": "SinglePV",
  "abi": [
    {
      "constant": true,
      "inputs": [],
      "name": "name",
      "outputs": [
        {
          "name": "",
          "type": "bytes32"
        }
      ],
      "payable": false,
      "type": "function",
      "stateMutability": "view"
    },
    {
      "constant": false,
      "inputs": [
        {
          "name": "adrH",
          "type": "address"
        }
      ],
      "name": "addConnectedHouse",
      "outputs": [],
      "payable": false,
      "type": "function",
      "stateMutability": "nonpayable"
    },
    {
      "constant": false,
      "inputs": [],
      "name": "askForRank",
      "outputs": [],
      "payable": false,
      "type": "function",
      "stateMutability": "nonpayable"
    },
    {
      "constant": false,
      "inputs": [
        {
          "name": "produc",
          "type": "uint256"
        }
      ],
      "name": "setProduction",
      "outputs": [],
      "payable": false,
      "type": "function",
      "stateMutability": "nonpayable"
    },
    {
      "constant": false,
      "inputs": [
        {
          "name": "_id",
          "type": "uint256"
        }
      ],
      "name": "getPrepInfo",
      "outputs": [
        {
          "name": "consum",
          "type": "uint256"
        },
        {
          "name": "rank",
          "type": "uint256"
        },
        {
          "name": "tot",
          "type": "uint256"
        }
      ],
      "payable": false,
      "type": "function",
      "stateMutability": "nonpayable"
    },
    {
      "constant": false,
      "inputs": [
        {
          "name": "adrB",
          "type": "address"
        }
      ],
      "name": "addConnectedBattery",
      "outputs": [],
      "payable": false,
      "type": "function",
      "stateMutability": "nonpayable"
    },
    {
      "constant": false,
      "inputs": [
        {
          "name": "adr",
          "type": "address"
        }
      ],
      "name": "setGridAdr",
      "outputs": [],
      "payable": false,
      "type": "function",
      "stateMutability": "nonpayable"
    },
    {
      "constant": true,
      "inputs": [],
      "name": "owner",
      "outputs": [
        {
          "name": "",
          "type": "address"
        }
      ],
      "payable": false,
      "type": "function",
      "stateMutability": "view"
    },
    {
      "constant": false,
      "inputs": [
        {
          "name": "prs",
          "type": "uint256"
        }
      ],
      "name": "setPrice",
      "outputs": [],
      "payable": false,
      "type": "function",
      "stateMutability": "nonpayable"
    },
    {
      "constant": false,
      "inputs": [],
      "name": "getPrice",
      "outputs": [
        {
          "name": "prs",
          "type": "uint256"
        },
        {
          "name": "updatedOrNot",
          "type": "bool"
        }
      ],
      "payable": false,
      "type": "function",
      "stateMutability": "nonpayable"
    },
    {
      "constant": false,
      "inputs": [
        {
          "name": "_id",
          "type": "uint256"
        }
      ],
      "name": "getSortedInfo",
      "outputs": [
        {
          "name": "adr",
          "type": "address"
        },
        {
          "name": "consum",
          "type": "uint256"
        },
        {
          "name": "rank",
          "type": "uint256"
        },
        {
          "name": "tot",
          "type": "uint256"
        }
      ],
      "payable": false,
      "type": "function",
      "stateMutability": "nonpayable"
    },
    {
      "constant": false,
      "inputs": [],
      "name": "sortRankList",
      "outputs": [],
      "payable": false,
      "type": "function",
      "stateMutability": "nonpayable"
    },
    {
      "inputs": [
        {
          "name": "adr",
          "type": "address"
        }
      ],
      "payable": false,
      "type": "constructor",
      "stateMutability": "nonpayable"
    },
    {
      "anonymous": false,
      "inputs": [
        {
          "indexed": false,
          "name": "adr",
          "type": "address"
        },
        {
          "indexed": false,
          "name": "produc",
          "type": "uint256"
        },
        {
          "indexed": false,
          "name": "prodAt",
          "type": "uint256"
        }
      ],
      "name": "ProductionLog",
      "type": "event"
    },
    {
      "anonymous": false,
      "inputs": [
        {
          "indexed": false,
          "name": "confMod",
          "type": "string"
        },
        {
          "indexed": false,
          "name": "statusAt",
          "type": "uint256"
        }
      ],
      "name": "ConfigurationLog",
      "type": "event"
    },
    {
      "anonymous": false,
      "inputs": [
        {
          "indexed": false,
          "name": "updateAt",
          "type": "uint256"
        }
      ],
      "name": "PriceUpdate",
      "type": "event"
    }
  ],
  "bytecode": "0x606060405260018054600160a060020a031916905561012c6002819055600355341561002a57600080fd5b604051602080610c758339810160405280805160048054600160a060020a03928316600160a060020a0319918216179091556000805433909316929091169190911790555050610bf68061007f6000396000f3006060604052600436106100a05763ffffffff60e060020a60003504166306fdde0381146100a55780630a71db5e146100ca5780633d7224dc146100eb578063567cc2b6146100fe57806366b29443146101145780638ad5366f1461014e5780638d646b111461016d5780638da5cb5b1461018c57806391b7f5ed146101bb57806398d5fdca146101d1578063d5adad54146101fe578063fba3016714610251575b600080fd5b34156100b057600080fd5b6100b8610264565b60405190815260200160405180910390f35b34156100d557600080fd5b6100e9600160a060020a036004351661026a565b005b34156100f657600080fd5b6100e9610326565b341561010957600080fd5b6100e9600435610719565b341561011f57600080fd5b61012a6004356107a8565b60405180848152602001838152602001828152602001935050505060405180910390f35b341561015957600080fd5b6100e9600160a060020a036004351661081d565b341561017857600080fd5b6100e9600160a060020a03600435166108da565b341561019757600080fd5b61019f610911565b604051600160a060020a03909116815260200160405180910390f35b34156101c657600080fd5b6100e9600435610920565b34156101dc57600080fd5b6101e461097a565b604051918252151560208201526040908101905180910390f35b341561020957600080fd5b61021460043561099f565b6040518085600160a060020a0316600160a060020a0316815260200184815260200183815260200182815260200194505050505060405180910390f35b341561025c57600080fd5b6100e96109d9565b60055481565b60005433600160a060020a03908116911614156100a057600a8054600181016102938382610b32565b5060009182526020909120018054600160a060020a031916600160a060020a0383161790557f34ff05936c7ffe85555df53a7bf1374ed025703c493a74c4ce3316646f950e1642604051602081019190915260408082526012818301527f486f757365206c696e6b656420746f205056000000000000000000000000000060608301526080909101905180910390a15b50565b600b54600a546000918291829182918291829101610345600c82610b56565b50600090505b600a5481101561052157600a80548290811061036357fe5b6000918252602082200154600160a060020a0316906338a3528c90604051608001526040518163ffffffff1660e060020a028152600401608060405180830381600087803b15156103b357600080fd5b6102c65a03f115156103c457600080fd5b505050604051805190602001805190602001805190602001805193995091975095509093505082156105195760606040519081016040528087815260200186815260200185815250600f6000600a8481548110151561041f57fe5b6000918252602080832090910154600160a060020a031683528201929092526040019020815181556020820151816001015560408201518160020155905050600f6000600a8381548110151561047157fe5b6000918252602080832090910154600160a060020a031683528201929092526040019020600c8054849081106104a357fe5b60009182526020909120825460039092020190815560018083015490820155600291820154910155600a8054829081106104d957fe5b6000918252602080832090910154848352601090915260409091208054600160a060020a031916600160a060020a03909216919091179055600191909101905b60010161034b565b5060005b600b548110156106fb57600b80548290811061053d57fe5b6000918252602082200154600160a060020a03169063cf7fc76290604051608001526040518163ffffffff1660e060020a028152600401608060405180830381600087803b151561058d57600080fd5b6102c65a03f1151561059e57600080fd5b505050604051805190602001805190602001805190602001805193995091975095509093505082156106f35760606040519081016040528087815260200186815260200185815250600f6000600b848154811015156105f957fe5b6000918252602080832090910154600160a060020a031683528201929092526040019020815181556020820151816001015560408201518160020155905050600f6000600b8381548110151561064b57fe5b6000918252602080832090910154600160a060020a031683528201929092526040019020600c80548490811061067d57fe5b60009182526020909120825460039092020190815560018083015490820155600291820154910155600b8054829081106106b357fe5b6000918252602080832090910154848352601090915260409091208054600160a060020a031916600160a060020a03909216919091179055600191909101905b600101610525565b600d8290558161070c600c82610b56565b505042600e555050505050565b60045433600160a060020a03908116911614156100a05760068190554260078190556004547fdf963fee409850630585bd095a505a9a956ef373cd706eb6eddec02d0a36731991600160a060020a039091169083906040518084600160a060020a0316600160a060020a03168152602001838152602001828152602001935050505060405180910390a1610323565b6000806000600c848154811015156107bc57fe5b9060005260206000209060030201600001549250600c848154811015156107df57fe5b9060005260206000209060030201600101549150600c8481548110151561080257fe5b90600052602060002090600302016002015490509193909250565b60005433600160a060020a03908116911614156100a057600b8054600181016108468382610b32565b5060009182526020909120018054600160a060020a031916600160a060020a0383161790557f34ff05936c7ffe85555df53a7bf1374ed025703c493a74c4ce3316646f950e1642604051602081019190915260408082526014818301527f42617474657279206c696e6b656420746f20505600000000000000000000000060608301526080909101905180910390a1610323565b60005433600160a060020a03908116911614156100a05760018054600160a060020a031916600160a060020a038316179055610323565b600454600160a060020a031681565b60045433600160a060020a03908116911614156100a05760088190554260098190557fae46785019700e30375a5d7b4f91e32f8060ef085111f896ebf889450aa2ab5a9060405190815260200160405180910390a1610323565b60085460035460095460009142910110156109975750600061099b565b5060015b9091565b600090815260106020908152604080832054600160a060020a0316808452600f909252909120805460018201546002909201549293909290565b6000805b600d54811015610adb5773__SortRLib______________________________63f37de025600c60006040516020015260405160e060020a63ffffffff8416028152600481019190915260240160206040518083038186803b1515610a4057600080fd5b6102c65a03f41515610a5157600080fd5b505050604051805190509150610a6981838301610adf565b73__SortRLib______________________________63b5762770600c8460405160e060020a63ffffffff85160281526004810192909252602482015260440160006040518083038186803b1515610abf57600080fd5b6102c65a03f41515610ad057600080fd5b5050506001016109dd565b5050565b6000828214610b2d57506000828152601060205260408082208054848452919092208054600160a060020a0319808416600160a060020a039283161790945581549093169290911691821790555b505050565b815481835581811511610b2d57600083815260209020610b2d918101908301610b82565b815481835581811511610b2d57600302816003028360005260206000209182019101610b2d9190610ba3565b610ba091905b80821115610b9c5760008155600101610b88565b5090565b90565b610ba091905b80821115610b9c576000808255600182018190556002820155600301610ba95600a165627a7a723058205c756f89437b0ca00949457c0aa28afd0144a999b3edd54f1700efe49d02ea470029",
  "source": "pragma solidity ^0.4.4;\n\nimport \"./IPV.sol\";\nimport \"./IHouse.sol\";\nimport \"./IBattery.sol\";\nimport \"./SortRLib.sol\";\nimport \"./AdrLib.sol\";\n\ncontract SinglePV is IPV {\n  \n  using AdrLib for address[];\n  // one contract is associated to one particular PV panel in the network.\n  // later we need to modify the parent contract that creates each PV contract - configuration.sol\n  //address Admin;                    // shall be defined at the creation of contract or to be defined manually\n  address public owner;\n  bytes32 public name;              // name of the device (Serie No.)\n  uint    production;               // Production of electricity (supply: negative)\n  uint    prodStatusAt;             // timestamp of the update (prod)\n  //uint    prodTimeOut = 5 minutes;\n  uint    price;\n  uint    priceStatusAt;            // timestamp of the update (price)\n  //uint    priceTimeOut = 5 minutes;\n  //mapping(address=>bool) connectedHouse;      // List of households connected\n  // mapping(address=>bool) connectedBattery;   // List of batteries connected\n  //uint    connectedHouseNum;\n  //uint    connectedBatteryNum;  \n  //address grid = 0x0;                     // contract address of grid\n  address[] connectedHouse;         // List of households connected\n  address[] connectedBattery;       // List of batteries connected\n\n  /*struct Request {\n    uint  consump;\n    uint  rank;\n    uint  total;\n  } */\n\n  using SortRLib for SortRLib.Request[];\n  SortRLib.Request[] prepRankingInfo;\n\n  uint    rLength;\n  uint    lastRankingAt;\n  mapping(address=>SortRLib.Request) RankingInfo;\n  mapping(uint=>address) sortedRankingInfo;\n\n  /*function askForRankTEST() returns (uint, uint) {\n    uint consum;\n    uint rank;\n    uint tot;\n    bool updated;\n    uint num1 = 0;\n    uint num2 = 0;\n    prepRankingInfo.length = connectedHouse.length+connectedBattery.length;\n\n    for (uint i = 0; i < connectedHouse.length; i++) {\n      \n      (consum, rank, tot, updated) = IHouse(connectedHouse[i]).getSortedInfo();\n      GetSortedInfo(connectedHouse[i], consum, rank, tot, updated);\n      RankingInfo[connectedHouse[i]] = SortRLib.Request(consum, rank, tot);\n\n      prepRankingInfo[num1] = RankingInfo[connectedHouse[i]];\n      num1++;\n    }\n\n    for (i = 0; i < connectedBattery.length; i++) {\n        num2++;\n    }\n\n    return (num1, num2);\n  }*/\n\n  function getPrepInfo(uint _id) returns(uint consum, uint rank, uint tot) {\n    consum = prepRankingInfo[_id].consump;\n    rank = prepRankingInfo[_id].rank;\n    tot = prepRankingInfo[_id].total;\n  }\n\n  function askForRank() {\n    // ask and prepare for sorting the ranking...\n    uint consum;\n    uint rank;\n    uint tot;\n    bool updated;\n    uint num;\n    prepRankingInfo.length = connectedHouse.length+connectedBattery.length;\n    for (uint i = 0; i < connectedHouse.length; i++) {\n      (consum, rank, tot, updated) = IHouse(connectedHouse[i]).getSortedInfo();\n      //GetSortedInfo(connectedHouse[i], consum, rank, tot, updated);\n      if (updated) {\n        RankingInfo[connectedHouse[i]] = SortRLib.Request(consum, rank, tot);\n        prepRankingInfo[num] = RankingInfo[connectedHouse[i]];\n        sortedRankingInfo[num] = connectedHouse[i];\n        num++;\n      }\n    }\n    for (i = 0; i < connectedBattery.length; i++) {\n      (consum,rank,tot,updated) = IBattery(connectedBattery[i]).getSortedPVInfo();\n      //GetSortedInfo(connectedBattery[i], consum, rank, tot, updated);\n      if (updated) {\n        RankingInfo[connectedBattery[i]] = SortRLib.Request(consum, rank, tot);\n        prepRankingInfo[num] = RankingInfo[connectedBattery[i]];\n        sortedRankingInfo[num] = connectedBattery[i];\n        num++;\n      }\n    }\n    rLength = num;\n    prepRankingInfo.length = num;\n    lastRankingAt = now;\n  }\n  // This event is only for testing reason\n  //event GetSortedInfo(address device, uint consum, uint rank, uint tot, bool updated);\n\n  function swap (uint _id1, uint _id2) private {\n    if (_id1 != _id2) {\n      address temp;\n      temp = sortedRankingInfo[_id1];\n      sortedRankingInfo[_id1] = sortedRankingInfo[_id2];\n      sortedRankingInfo[_id2] = temp;   \n    }\n  }\n\n  function sortRankList() {\n    uint minTemp;\n    for (uint i=0; i<rLength; i++) {\n      minTemp = prepRankingInfo.minStruct();\n      swap(i,i+minTemp);\n      prepRankingInfo.del(minTemp);\n    }\n    /*\n    // In case there is still excess, need to ask connectedBattery to buy for the extra...as much as possible\n    if (connectedBattery.length != 0) {\n      for (i=0; i<connectedBattery.length; i++) {\n        uint prs = 0;\n        uint cap = 0;\n        (prs, cap) = IBattery(grid).getExcess();\n      \n      }\n      \n    }\n    // if the grid is connected -> add the price from the grid to the end of the sorted list \n    if (grid != 0x0) {\n      uint tP = 0;\n      bool tF = false;\n      (tP,tF) = IGrid(grid).getPrice();\n      setPriceQueryInfo(grid,tP,tF);\n      sortedPriceQueryInfo[num] = grid;\n    }*/\n  }\n\n\n  function getSortedInfo(uint _id) returns(address adr, uint consum, uint rank, uint tot) {\n    adr = sortedRankingInfo[_id];\n    consum = RankingInfo[adr].consump;\n    rank = RankingInfo[adr].rank;\n    tot = RankingInfo[adr].total;\n  }\n  \n  \n  modifier ownerOnly {\n    if (msg.sender == owner) {\n      _;\n    } else {\n      revert();\n    }\n  }\n\n  modifier connectedHouseOnly {\n    if (connectedHouse.AssertInside(msg.sender) == true) {\n      _;\n    } else {\n      revert();\n    }\n  }\n\n  modifier connectedBatteryOnly (address adrB) {\n    var check = false;\n    for (uint i = 0; i < connectedBattery.length; i++) {\n      if (msg.sender == connectedBattery[i]) {\n        check = true;\n      }\n    }\n    if (check == true) {\n      _;\n    } else {\n      revert();\n    }\n  }\n\n  modifier timed (uint initialTime, uint allowedTimeOut){\n    if(now < initialTime + allowedTimeOut){\n      _;\n    } else {\n      revert();\n    }\n  }\n\n  event ProductionLog(address adr, uint produc, uint prodAt);\n  event ConfigurationLog(string confMod, uint statusAt);\n  event PriceUpdate(uint updateAt);\n\n  function SinglePV(address adr) { // Here we are still using adr in the constructor, but later maybe we should change the adr input into byte32, by a harshed device identifier\n    // constructor\n    owner = adr;\n    Admin = msg.sender;\n  }\n\n  function setProduction(uint produc) ownerOnly {\n    production = produc;\n    prodStatusAt = now;\n    ProductionLog(owner, production, prodStatusAt);\n  }\n\n  function setPrice(uint prs) ownerOnly {\n    price = prs;\n    priceStatusAt = now;\n    PriceUpdate(now);\n  }\n\n  function setGridAdr(address adr) adminOnly external {\n    grid = adr;\n  }\n\n  function addConnectedHouse(address adrH) adminOnly external {\n    connectedHouse.push(adrH);\n    ConfigurationLog(\"House linked to PV\",now);\n  }\n\n  /*\n  function deleteConnectedHouse(address adrH) adminOnly external returns (bool) {\n    for (uint i = 0; i < connectedHouse.length; i++) {\n      if (adrH == connectedHouse[i]) {\n        delete connectedHouse[i];\n        if (i != connectedHouse.length-1) {\n          connectedHouse[i] = connectedHouse[connectedHouse.length-1];\n        }\n        connectedHouse.length--;\n        ConfigurationLog(\"House Deleted\",now);\n        return true;\n      }\n    }\n    return false;\n  }*/\n\n  function addConnectedBattery(address adrB) adminOnly external {\n    connectedBattery.push(adrB);\n    ConfigurationLog(\"Battery linked to PV\",now);\n\n  }\n\n  /*\n  function deleteConnectedBattery(address adrB) adminOnly external returns (bool) {\n    for (uint i = 0; i < connectedBattery.length; i++) {\n      if (adrB == connectedBattery[i]) {\n        delete connectedBattery[i];\n        if (i != connectedBattery.length-1) {\n          connectedBattery[i] = connectedBattery[connectedBattery.length-1];\n        }\n        connectedBattery.length--;\n        ConfigurationLog(\"Battery Deleted\",now);\n        return true;\n      }\n    }\n    return false;\n  }*/\n\n  /*function getProduction(uint queryTime) timed(queryTime,prodTimeOut) external returns (uint prod, uint prodAt) {\n    prod = production;\n    prodAt = prodStatusAt;\n  }*/\n\n  function getPrice() returns (uint prs, bool updatedOrNot) { //connectedHouseOnly external\n    prs = price;\n    //prsAt = priceStatusAt;\n    if (priceStatusAt + priceTimeOut < now) {\n      updatedOrNot = false;\n    } else {\n      updatedOrNot = true;\n    }\n    //adr = owner;\n  }\n}\n",
  "sourcePath": "C:\\Users\\qianc\\Documents\\Thesis\\Code\\SimpleMonitor\\contracts\\SinglePV.sol",
  "compiler": {
    "name": "solc",
    "version": "0.4.18+commit.9cf6e910.Emscripten.clang"
  },
  "schemaVersion": "1.0.1",
  "updatedAt": "2017-11-08T17:16:34.581Z"
}