{
  "contractName": "SingleBattery",
  "abi": [
    {
      "constant": false,
      "inputs": [],
      "name": "getVolumeCapacity",
      "outputs": [
        {
          "name": "vol",
          "type": "uint256"
        },
        {
          "name": "volAt",
          "type": "uint256"
        },
        {
          "name": "cap",
          "type": "uint256"
        }
      ],
      "payable": false,
      "stateMutability": "nonpayable",
      "type": "function"
    },
    {
      "constant": false,
      "inputs": [
        {
          "name": "giveoutvol",
          "type": "uint256"
        }
      ],
      "name": "goNoGo",
      "outputs": [
        {
          "name": "",
          "type": "uint256"
        }
      ],
      "payable": false,
      "stateMutability": "nonpayable",
      "type": "function"
    },
    {
      "constant": false,
      "inputs": [],
      "name": "getSalePrice",
      "outputs": [
        {
          "name": "prs",
          "type": "uint256"
        },
        {
          "name": "updatedOrNot",
          "type": "bool"
        }
      ],
      "payable": false,
      "stateMutability": "nonpayable",
      "type": "function"
    },
    {
      "constant": false,
      "inputs": [
        {
          "name": "vol",
          "type": "uint256"
        }
      ],
      "name": "goExcess",
      "outputs": [
        {
          "name": "takeVol",
          "type": "uint256"
        },
        {
          "name": "prs",
          "type": "uint256"
        }
      ],
      "payable": false,
      "stateMutability": "nonpayable",
      "type": "function"
    },
    {
      "constant": false,
      "inputs": [],
      "name": "askForRank",
      "outputs": [],
      "payable": false,
      "stateMutability": "nonpayable",
      "type": "function"
    },
    {
      "constant": false,
      "inputs": [
        {
          "name": "_id",
          "type": "uint256"
        }
      ],
      "name": "initiateTransaction",
      "outputs": [
        {
          "name": "",
          "type": "uint256"
        },
        {
          "name": "",
          "type": "uint256"
        }
      ],
      "payable": false,
      "stateMutability": "nonpayable",
      "type": "function"
    },
    {
      "constant": false,
      "inputs": [
        {
          "name": "vol",
          "type": "uint256"
        }
      ],
      "name": "setVolume",
      "outputs": [],
      "payable": false,
      "stateMutability": "nonpayable",
      "type": "function"
    },
    {
      "constant": false,
      "inputs": [
        {
          "name": "v",
          "type": "uint256"
        }
      ],
      "name": "setBuyVolume",
      "outputs": [],
      "payable": false,
      "stateMutability": "nonpayable",
      "type": "function"
    },
    {
      "constant": false,
      "inputs": [],
      "name": "getBuyVol",
      "outputs": [
        {
          "name": "",
          "type": "uint256"
        }
      ],
      "payable": false,
      "stateMutability": "nonpayable",
      "type": "function"
    },
    {
      "constant": false,
      "inputs": [],
      "name": "sort",
      "outputs": [],
      "payable": false,
      "stateMutability": "nonpayable",
      "type": "function"
    },
    {
      "constant": false,
      "inputs": [
        {
          "name": "adr",
          "type": "address"
        }
      ],
      "name": "setGridAdr",
      "outputs": [],
      "payable": false,
      "stateMutability": "nonpayable",
      "type": "function"
    },
    {
      "constant": false,
      "inputs": [
        {
          "name": "adr",
          "type": "address"
        }
      ],
      "name": "getSortedPosition",
      "outputs": [
        {
          "name": "",
          "type": "uint256"
        }
      ],
      "payable": false,
      "stateMutability": "nonpayable",
      "type": "function"
    },
    {
      "constant": false,
      "inputs": [
        {
          "name": "a",
          "type": "uint256"
        },
        {
          "name": "adr",
          "type": "address"
        }
      ],
      "name": "addConnectedDevice",
      "outputs": [],
      "payable": false,
      "stateMutability": "nonpayable",
      "type": "function"
    },
    {
      "constant": false,
      "inputs": [],
      "name": "askForPrice",
      "outputs": [],
      "payable": false,
      "stateMutability": "nonpayable",
      "type": "function"
    },
    {
      "constant": false,
      "inputs": [],
      "name": "getSortedPVInfo",
      "outputs": [
        {
          "name": "consum",
          "type": "uint256"
        },
        {
          "name": "rank",
          "type": "uint256"
        },
        {
          "name": "tot",
          "type": "uint256"
        },
        {
          "name": "updated",
          "type": "bool"
        }
      ],
      "payable": false,
      "stateMutability": "nonpayable",
      "type": "function"
    },
    {
      "constant": false,
      "inputs": [
        {
          "name": "_id",
          "type": "uint256"
        }
      ],
      "name": "getSortedInfo",
      "outputs": [
        {
          "name": "adr",
          "type": "address"
        },
        {
          "name": "consum",
          "type": "uint256"
        },
        {
          "name": "rank",
          "type": "uint256"
        },
        {
          "name": "tot",
          "type": "uint256"
        }
      ],
      "payable": false,
      "stateMutability": "nonpayable",
      "type": "function"
    },
    {
      "constant": false,
      "inputs": [
        {
          "name": "prsSale",
          "type": "uint256"
        },
        {
          "name": "prsBuy",
          "type": "uint256"
        }
      ],
      "name": "setPrice",
      "outputs": [],
      "payable": false,
      "stateMutability": "nonpayable",
      "type": "function"
    },
    {
      "constant": false,
      "inputs": [],
      "name": "sortRankList",
      "outputs": [],
      "payable": false,
      "stateMutability": "nonpayable",
      "type": "function"
    },
    {
      "constant": true,
      "inputs": [],
      "name": "Admin",
      "outputs": [
        {
          "name": "",
          "type": "address"
        }
      ],
      "payable": false,
      "stateMutability": "view",
      "type": "function"
    },
    {
      "inputs": [
        {
          "name": "adr",
          "type": "address"
        },
        {
          "name": "cap",
          "type": "uint256"
        }
      ],
      "payable": false,
      "stateMutability": "nonpayable",
      "type": "constructor"
    },
    {
      "anonymous": false,
      "inputs": [
        {
          "indexed": false,
          "name": "adr",
          "type": "address"
        },
        {
          "indexed": false,
          "name": "vol",
          "type": "uint256"
        },
        {
          "indexed": false,
          "name": "volAt",
          "type": "uint256"
        }
      ],
      "name": "VolLog",
      "type": "event"
    },
    {
      "anonymous": false,
      "inputs": [
        {
          "indexed": false,
          "name": "confMod",
          "type": "string"
        },
        {
          "indexed": false,
          "name": "statusAt",
          "type": "uint256"
        }
      ],
      "name": "ConfigurationLog",
      "type": "event"
    },
    {
      "anonymous": false,
      "inputs": [
        {
          "indexed": false,
          "name": "updateAt",
          "type": "uint256"
        }
      ],
      "name": "PriceUpdate",
      "type": "event"
    }
  ],
  "bytecode": "0x606060405260038054600160a060020a031916905561012c600a819055600d55341561002a57600080fd5b604051604080611835833981016040528080519190602001805160018054600160a060020a03958616600160a060020a0319918216179091556000805433909616959091169490941790935550506007556117ab8061008a6000396000f3006060604052600436106100ed5763ffffffff60e060020a6000350416630e00c31681146100f25780630ff37282146101295780632fbc0bf11461015157806335f7f5e21461017e5780633d7224dc146101ac5780633fd2007d146101c15780634559dcdc146101d75780636a95841b146101ed57806379c19df0146102035780638cdc86a6146102165780638d646b1114610229578063b148f82b14610248578063bfd1190314610267578063c974602914610289578063cf7fc7621461029c578063d5adad54146102db578063f7d975771461032e578063fba3016714610347578063ff1b636d1461035a575b600080fd5b34156100fd57600080fd5b610105610389565b60405180848152602001838152602001828152602001935050505060405180910390f35b341561013457600080fd5b61013f600435610399565b60405190815260200160405180910390f35b341561015c57600080fd5b6101646105a1565b604051918252151560208201526040908101905180910390f35b341561018957600080fd5b6101946004356105c6565b60405191825260208201526040908101905180910390f35b34156101b757600080fd5b6101bf6106f4565b005b34156101cc57600080fd5b61019460043561098d565b34156101e257600080fd5b6101bf600435610c0c565b34156101f857600080fd5b6101bf600435610c9a565b341561020e57600080fd5b61013f610cce565b341561022157600080fd5b6101bf610cd5565b341561023457600080fd5b6101bf600160a060020a0360043516610e3c565b341561025357600080fd5b61013f600160a060020a0360043516610e73565b341561027257600080fd5b6101bf600435600160a060020a0360243516610f17565b341561029457600080fd5b6101bf610f76565b34156102a757600080fd5b6102af6111a2565b604051938452602084019290925260408084019190915290151560608301526080909101905180910390f35b34156102e657600080fd5b6102f160043561122b565b6040518085600160a060020a0316600160a060020a0316815260200184815260200183815260200182815260200194505050505060405180910390f35b341561033957600080fd5b6101bf600435602435611265565b341561035257600080fd5b6101bf6112c4565b341561036557600080fd5b61036d6113c6565b604051600160a060020a03909116815260200160405180910390f35b600854600b546007549192909190565b600160009081526005602052338173__AdrLib________________________________635485943660008051602061174083398151915284846040516020015260405160e060020a63ffffffff85160281526004810192909252600160a060020a0316602482015260440160206040518083038186803b151561041b57600080fd5b6102c65a03f4151561042c57600080fd5b505050604051805190508061044e5750600354600160a060020a038381169116145b151561045957600080fd5b60095473__TransactLib___________________________63bc2e368c90918660006040516020015260405160e060020a63ffffffff85160281526004810192909252602482015260440160206040518083038186803b15156104bb57600080fd5b6102c65a03f415156104cc57600080fd5b5050506040518051600880548201905560095490925073__TransactLib___________________________9150639e5fd0a990833060006040516020015260405160e060020a63ffffffff861602815260048101939093526024830191909152600160a060020a0316604482015260640160206040518083038186803b151561055457600080fd5b6102c65a03f4151561056557600080fd5b505050604051805160095550600160a060020a0382166000908152601260205260409020546006805491830290910390559150815b5050919050565b600e54600d54600c5460009142910110156105be575060006105c2565b5060015b9091565b600080600f5490508273__TransactLib___________________________63bc2e368c90916008546007540360006040516020015260405160e060020a63ffffffff85160281526004810192909252602482015260440160206040518083038186803b151561063457600080fd5b6102c65a03f4151561064557600080fd5b50505060405180519050915060085473__TransactLib___________________________63994459079091843060006040516020015260405160e060020a63ffffffff861602815260048101939093526024830191909152600160a060020a0316604482015260640160206040518083038186803b15156106c557600080fd5b6102c65a03f415156106d657600080fd5b50505060405180516008555060068054838302900390559092909150565b600080805260056020526000805160206117608339815191525481908190819081908190610723601482611658565b50600090505b600080526005602052600080516020611760833981519152548110156109725760008052600560205260008051602061176083398151915280548290811061076d57fe5b6000918252602082200154600160a060020a0316906338a3528c90604051608001526040518163ffffffff1660e060020a028152600401608060405180830381600087803b15156107bd57600080fd5b6102c65a03f115156107ce57600080fd5b5050506040518051906020018051906020018051906020018051939950919750955090935050821561096a5760606040519081016040908152878252602080830188905290820186905260008080526005909152600080516020611760833981519152805460179291908590811061084257fe5b6000918252602080832090910154600160a060020a03168352820192909252604001902081518155602082015181600101556040820151600290910155506000808052600560205260008051602061176083398151915280546017929190849081106108aa57fe5b6000918252602080832090910154600160a060020a03168352820192909252604001902060148054849081106108dc57fe5b60009182526020808320845460039093020191825560018085015490830155600293840154939091019290925580526005905260008051602061176083398151915280548290811061092a57fe5b6000918252602080832090910154848352601890915260409091208054600160a060020a031916600160a060020a03909216919091179055600191909101905b600101610729565b8161097e601482611658565b50506016555050426015555050565b600081815260186020908152604080832054600854600160a060020a039091168085526017909352818420548493849390928492839273__TransactLib___________________________9263bc2e368c9290918590516020015260405160e060020a63ffffffff85160281526004810192909252602482015260440160206040518083038186803b1515610a2157600080fd5b6102c65a03f41515610a3257600080fd5b50505060405180516000808052600560205290955073__AdrLib________________________________91506354859436906000805160206117608339815191529086906040516020015260405160e060020a63ffffffff85160281526004810192909252600160a060020a0316602482015260440160206040518083038186803b1515610abf57600080fd5b6102c65a03f41515610ad057600080fd5b5050506040518051905015610bfa5782600160a060020a0316630ff372828560006040516020015260405160e060020a63ffffffff84160281526004810191909152602401602060405180830381600087803b1515610b2e57600080fd5b6102c65a03f11515610b3f57600080fd5b5050506040518051600880548290039055600e546006549194508402925073__TransactLib___________________________915063e2992d299083863060006040516020015260405160e060020a63ffffffff871602815260048101949094526024840192909252600160a060020a03908116604484015216606482015260840160206040518083038186803b1515610bd857600080fd5b6102c65a03f41515610be957600080fd5b505050604051805160065550610bff565b600091505b5091959194509092505050565b60015433600160a060020a03908116911614156100ed57600881905542600b8190556001547fa8533a3e28bf00cd05018ed80847d3d6f170da084f6417da50798db7335ff9a091600160a060020a039091169083906040518084600160a060020a0316600160a060020a03168152602001838152602001828152602001935050505060405180910390a15b50565b60015433600160a060020a03908116911614156100ed5760075460085482011115610cc457600080fd5b6009819055610c97565b6009545b90565b6000806000610ce26113d5565b600354600160a060020a031615610d175760016000819052600560205260008051602061174083398151915254019150610d34565b600160005260056020526000805160206117408339815191525491505b5060005b81811015610e375773__SortLib_______________________________63f27da568601060006040516020015260405160e060020a63ffffffff8416028152600481019190915260240160206040518083038186803b1515610d9957600080fd5b6102c65a03f41515610daa57600080fd5b505050604051805190509250610dc58160018403038461160b565b73__SortLib_______________________________6343168c1b60108560405160e060020a63ffffffff85160281526004810192909252602482015260440160006040518083038186803b1515610e1b57600080fd5b6102c65a03f41515610e2c57600080fd5b505050600101610d38565b505050565b60005433600160a060020a03908116911614156100ed5760038054600160a060020a031916600160a060020a038316179055610c97565b60035460009081908190600160a060020a031615610eaf5760016000819052600560205260008051602061174083398151915254019150610ecc565b600160005260056020526000805160206117408339815191525491505b5060005b81811015610f0d57600081815260136020526040902054600160a060020a0385811691161415610f055780600101925061059a565b600101610ed0565b5060009392505050565b60005433600160a060020a03908116911614156100ed576000828152600560205260409020805460018101610f4c8382611684565b5060009182526020909120018054600160a060020a031916600160a060020a0383161790555b5050565b600080805b60016000526005602052600080516020611740833981519152548110156110c85760016000526005602052600080516020611740833981519152805482908110610fc157fe5b6000918252602082200154600160a060020a0316906398d5fdca90604051604001526040518163ffffffff1660e060020a0281526004016040805180830381600087803b151561101057600080fd5b6102c65a03f1151561102157600080fd5b5050506040518051906020018051919450909250604090508051908101604052838152821515602080830191909152600160009081526005909152600080516020611740833981519152805460129291908590811061107c57fe5b6000918252602080832090910154600160a060020a0316835282019290925260400190208151815560208201516001918201805460ff1916911515919091179055919091019050610f7b565b600354600160a060020a03161561119957600354600160a060020a03166398d5fdca6000604051604001526040518163ffffffff1660e060020a0281526004016040805180830381600087803b151561112057600080fd5b6102c65a03f1151561113157600080fd5b50505060405180519060200180519194509092506040905080519081016040908152848252831515602080840191909152600354600160a060020a03166000908152601290915220815181556020820151600191909101805460ff1916911515919091179055505b50504260115550565b60095460008080336111b381610e73565b600354909450600160a060020a0316156111eb5760016000819052600560205260008051602061174083398151915254019250611208565b600160005260056020526000805160206117408339815191525492505b42600d5460115401101561121f5760009150611224565b600191505b5090919293565b600090815260186020908152604080832054600160a060020a03168084526017909252909120805460018201546002909201549293909290565b60015433600160a060020a03908116911614156100ed57600e829055600f81905542600c8190557fae46785019700e30375a5d7b4f91e32f8060ef085111f896ebf889450aa2ab5a9060405190815260200160405180910390a1610f72565b6000805b601654811015610f725773__SortRLib______________________________63f37de025601460006040516020015260405160e060020a63ffffffff8416028152600481019190915260240160206040518083038186803b151561132b57600080fd5b6102c65a03f4151561133c57600080fd5b5050506040518051905091506113548183830161160b565b73__SortRLib______________________________63b576277060148460405160e060020a63ffffffff85160281526004810192909252602482015260440160006040518083038186803b15156113aa57600080fd5b6102c65a03f415156113bb57600080fd5b5050506001016112c8565b600054600160a060020a031681565b600354600090600160a060020a0316156114175760016000819052600560205260008051602061174083398151915254016114116010826116a8565b5061143e565b600160005260056020526000805160206117408339815191525461143c6010826116a8565b505b5060005b600160005260056020526000805160206117408339815191525481101561155657600160009081526005602052600080516020611740833981519152805460129291908490811061148f57fe5b6000918252602080832090910154600160a060020a03168352820192909252604001902060108054839081106114c157fe5b60009182526020808320845460029390930201918255600193840154918401805460ff191660ff9093161515929092179091559190526005905260008051602061174083398151915280548290811061151657fe5b6000918252602080832090910154838352601390915260409091208054600160a060020a031916600160a060020a03909216919091179055600101611442565b5060016000526005602052600080516020611740833981519152545b601054811015610c9757600354600160a060020a0316600090815260126020526040902060108054839081106115a457fe5b600091825260208083208454600290930201918255600193840154918401805460ff909316151560ff1990931692909217909155600354848352601390915260409091208054600160a060020a031916600160a060020a0390921691909117905501611572565b6000828214610e375750600091825260136020526040808320805492845292208054600160a060020a03908116600160a060020a0319808516919091179094558154921691909216179055565b815481835581811511610e3757600302816003028360005260206000209182019101610e3791906116d4565b815481835581811511610e3757600083815260209020610e379181019083016116ff565b815481835581811511610e3757600202816002028360005260206000209182019101610e379190611719565b610cd291905b808211156116fb5760008082556001820181905560028201556003016116da565b5090565b610cd291905b808211156116fb5760008155600101611705565b610cd291905b808211156116fb576000815560018101805460ff1916905560020161171f56001471eb6eb2c5e789fc3de43f8ce62938c7d1836ec861730447e2ada8fd81017b05b8ccbb9d4d8fb16ea74ce3c29a41f1b461fbdaff4714a0d9a8eb05499746bca165627a7a723058202fe331381d1e3fb8566c56d6e1b0363cc41d1faddda0ae9f7c94440cb0c481910029",
  "source": "pragma solidity ^0.4.4;\n\nimport \"./IBattery.sol\";\nimport \"./IPV.sol\";\nimport \"./IGrid.sol\";\nimport \"./IHouse.sol\";\nimport \"./GeneralDevice.sol\";\n\nimport \"./SortRLib.sol\";\nimport \"./SortLib.sol\"; \nimport \"./AdrLib.sol\"; \nimport \"./TransactLib.sol\";\n\n\n//For simplicity, we do not use the sorting functions here, as in our configuration, there is only one battery and there's only one PV connected.  \n\ncontract SingleBattery is GeneralDevice, IBattery {\n  \n  using AdrLib for address[];\n  using TransactLib for *;\n\n\n  uint    capacity;                 // Cap of the device\n  uint    currentVolume;            // Production of electricity\n  uint    buyVolume;                // Amount of electricity that this battery would like to buy. Will first participate in the supply competition \n                                    //and will be finally (anyway) fulfilled b either the network or from the grid...\n  uint    volTimeOut = 5 minutes;\n  uint    volStatusAt;              // timestamp of the update\n  \n  uint    priceStatusAt;            // timestamp of the update (price)\n  uint    priceTimeOut = 5 minutes;\n  uint    priceForSale;\n  uint    priceForBuy;              // lower than market price (ForExcessEnergy)\n  \n  \n  /*struct PriceTF {\n    uint  prs;\n    bool  updated;\n  }*/\n\n  using SortLib for SortLib.PriceTF[];\n  SortLib.PriceTF[] prepPriceQueryInfo;\n  uint    lastPriceQueryAt;\n\n  mapping(address=>SortLib.PriceTF) priceQueryInfo;\n  mapping(uint=>address) sortedPriceQueryInfo;\n\n  using SortRLib for SortRLib.Request[];\n  SortRLib.Request[] prepRankingInfo;\n\n\n  uint    lastRankingAt;\n  uint    rLength;\n  mapping(address=>SortRLib.Request) RankingInfo;\n  mapping(uint=>address) sortedRankingInfo;\n\n  function askForPrice() {\n    // House query price info to all the connected PV/Battery. \n    // If the house is connected to grid (most of the time), the price of Grid also participates in the sorting (it's not less favored anymore)\n    uint tP = 0;\n    bool tF = false;\n    for (uint i = 0; i < connectedDevice[1].length; i++) {\n      (tP,tF) = IPV(connectedDevice[1][i]).getPrice();\n      priceQueryInfo[connectedDevice[1][i]] = SortLib.PriceTF(tP,tF);\n    }\n    if (grid != 0x0) {\n      (tP,tF) = IGrid(grid).getPrice();\n      priceQueryInfo[grid] = SortLib.PriceTF(tP,tF);\n    }\n    lastPriceQueryAt = now;\n  }\n\n  function getSortedPosition (address adr) returns (uint) { // should be private, here the \"private\" is temporarily removed due to testing\n    //require(adr != 0x0);      // Sometimes with this line, there will be error in the configuration.js test... sometimes not.... sometimes need to _migrate_ twice to eliminate the error.... Don't know why\n    uint _l;\n    if (grid != 0x0) {\n      _l = connectedDevice[1].length+1;\n    } else {\n      _l = connectedDevice[1].length;\n    }\n    for (uint i=0; i<_l; i++) {\n      if (adr == sortedPriceQueryInfo[i]) {\n        return (i+1);\n      }\n    }\n    return 0;\n  }\n\n  function sort() { // we are not doing sorting here -> as there is only 1 PV in the exercise layout\n    /*sortedPriceQueryInfo[0] = connectedDevice[1][0];\n    if (grid != 0x0) {\n      sortedPriceQueryInfo[1] = grid;\n    }*/\n    createPriceList();\n    uint maxTemp;\n    uint totalLength;\n    if (grid != 0x0) {\n      totalLength = connectedDevice[1].length+1;\n    } else {\n      totalLength = connectedDevice[1].length;\n    }\n    for (uint i = 0; i < totalLength; i++) {\n      maxTemp = prepPriceQueryInfo.maxStruct();\n      swap(totalLength-1-i,maxTemp);\n      prepPriceQueryInfo.del(maxTemp);\n    }\n  } \n\n  function createPriceList() private {\n    if (grid != 0x0) {\n      prepPriceQueryInfo.length = connectedDevice[1].length+1;\n    } else {\n      prepPriceQueryInfo.length = connectedDevice[1].length;\n    }\n    for (uint i = 0; i < connectedDevice[1].length; i++) {\n      prepPriceQueryInfo[i] = priceQueryInfo[connectedDevice[1][i]];\n      sortedPriceQueryInfo[i] = connectedDevice[1][i];\n    }\n    for (i = connectedDevice[1].length; i < prepPriceQueryInfo.length; i++) {\n      prepPriceQueryInfo[i] = priceQueryInfo[grid];\n      sortedPriceQueryInfo[i] = grid;\n    }\n  }\n\n  function swap (uint _id1, uint _id2) private {\n    if (_id1 != _id2) {\n      address temp;\n      temp = sortedPriceQueryInfo[_id1];\n      sortedPriceQueryInfo[_id1] = sortedPriceQueryInfo[_id2];\n      sortedPriceQueryInfo[_id2] = temp;   \n    }\n  }\n\n  function getSortedPVInfo() returns(uint consum, uint rank, uint tot, bool updated) {\n    address adr = msg.sender;     //If the PV is connected\n    consum = buyVolume;\n    rank = getSortedPosition(adr); // We only have one PV connnected (In the demo layout)\n    if (grid != 0x0) {\n      tot = connectedDevice[1].length + 1;\n    } else {\n      tot = connectedDevice[1].length;\n    }\n    if (lastPriceQueryAt + priceTimeOut < now) {\n      updated = false;    // The house may be inactive for a while, so the list stored is outdated.\n    } else {\n      updated = true;      \n    }\n  }\n\n// start transaction\n  function goNoGo(uint giveoutvol) returns (uint) {\n    address adrDevice = msg.sender;\n    uint takeoutvol;\n    require(connectedDevice[1].AssertInside(adrDevice) || adrDevice == grid);\n    takeoutvol = buyVolume.findMin(giveoutvol);\n    currentVolume += takeoutvol;\n    buyVolume = buyVolume.clearEnergyTransfer(takeoutvol, address(this));\n    wallet -= int(takeoutvol*priceQueryInfo[adrDevice].prs);\n    return (takeoutvol); \n  }\n\n\n  modifier connectedPVOnly (address adrP) {\n    if (connectedDevice[1].AssertInside(adrP) == true) {\n      _;\n    } else {\n      revert();\n    }\n  }\n\n  modifier connectedHouseOnly {\n    if (connectedDevice[1].AssertInside(msg.sender) == true) {\n      _;\n    } else {\n      revert();\n    } \n  }\n\n  modifier timed (uint initialTime, uint allowedTimeOut) {\n    if(now < initialTime + allowedTimeOut) {\n      _;\n    } else {\n      revert();\n    }\n  }\n\n  event VolLog(address adr, uint vol, uint volAt);\n  event ConfigurationLog(string confMod, uint statusAt);\n  event PriceUpdate(uint updateAt);\n\n  function SingleBattery (address adr,  uint cap) GeneralDevice(adr) {\n    capacity = cap;\n  }\n\n  \n\n  function setVolume(uint vol) ownerOnly {\n    // Can only be triggered once....Should be moved to the constructor...Once the initial volumne is set, can only be changed by energy trading.\n    currentVolume = vol;\n    volStatusAt = now;\n    VolLog(owner,vol,volStatusAt);\n  }\n\n  function setPrice(uint prsSale, uint prsBuy) ownerOnly {\n    priceForSale = prsSale;\n    priceForBuy = prsBuy;\n    priceStatusAt = now;\n    PriceUpdate(priceStatusAt);\n  }\n\n  function setBuyVolume(uint v) ownerOnly {\n    require(currentVolume + v <= capacity);\n    buyVolume = v;\n  }\n\n  // function askForPrice() {} // to ask for prices set by PVs...\n\n  /*function addConnectedPV(address adrP) adminOnly external {\n    connectedDevice[1].push(adrP);\n    ConfigurationLog(\"PV linked to Battery\",now);\n  }\n\n  function deleteConnectedPV(address adrP) adminOnly external {\n    for (uint i = 0; i < connectedDevice[1].length; i++) {\n      if (adrP == connectedDevice[1][i]) {\n        delete connectedDevice[1][i];\n        if (i != connectedDevice[1].length-1) {\n          connectedDevice[1][i] = connectedDevice[1][connectedDevice[1].length-1];\n        }\n        connectedDevice[1].length--;\n      }\n    }\n  }*/\n\n  /*function addConnectedHouse(address adrH) adminOnly external {\n    connectedDevice[0].push(adrH);\n    ConfigurationLog(\"House linked to Battery\",now);\n  }*/\n\n  /*function deleteConnectedHouse(address adrH) adminOnly external {\n    for (uint i = 0; i < connectedDevice[0].length; i++) {\n      if (adrH == connectedDevice[0][i]) {\n        delete connectedDevice[0][i];\n        if (i != connectedDevice[0].length-1) {\n          connectedDevice[0][i] = connectedDevice[0][connectedDevice[0].length-1];\n        }\n        connectedDevice[0].length--;\n      }\n    }\n  }*/\n\n  function getVolumeCapacity () external returns (uint vol, uint volAt, uint cap) { // timed(initTime,volTimeOut) \n    vol = currentVolume;\n    volAt = volStatusAt;\n    cap = capacity;\n  }\n\n  function getSalePrice() returns (uint prs, bool updatedOrNot) { // connectedHouseOnly external\n    prs = priceForSale;\n    //prsAt = priceStatusAt;\n    if (priceStatusAt + priceTimeOut < now) {\n      updatedOrNot = false;\n    } else {\n      updatedOrNot = true;\n    }\n    //adr = owner;\n  }\n\n  function goExcess(uint vol) returns (uint takeVol, uint prs) {\n    prs = priceForBuy;\n    takeVol = vol.findMin(capacity-currentVolume);\n    currentVolume = currentVolume.clearExcessTransfer(takeVol, address(this));\n    wallet -= int(takeVol*prs);\n  }\n\n\n  function getBuyVol() returns (uint) {return buyVolume;}\n\n  // Battery also provides energy to houses\n  function askForRank() {\n    // ask and prepare for sorting the ranking...\n    uint consum;\n    uint rank;\n    uint tot;\n    bool updated;\n    uint num;\n\n    prepRankingInfo.length = connectedDevice[0].length;\n    for (uint i = 0; i < connectedDevice[0].length; i++) {\n      (consum, rank, tot, updated) = IHouse(connectedDevice[0][i]).getSortedInfo();\n      //GetSortedInfo(connectedDevice[0][i], consum, rank, tot, updated);\n      if (updated) {\n        RankingInfo[connectedDevice[0][i]] = SortRLib.Request(consum, rank, tot);\n        prepRankingInfo[num] = RankingInfo[connectedDevice[0][i]];\n        sortedRankingInfo[num] = connectedDevice[0][i];\n        num++;\n      }\n    }\n    prepRankingInfo.length = num;\n    rLength = num;\n    lastRankingAt = now;\n  }\n\n  function sortRankList() {\n    uint minTemp;\n    for (uint i=0; i<rLength; i++) {\n      minTemp = prepRankingInfo.minStruct();\n      swap(i,i+minTemp);\n      prepRankingInfo.del(minTemp);\n    }\n  }\n\n\n  function getSortedInfo(uint _id) returns(address adr, uint consum, uint rank, uint tot) {\n    adr = sortedRankingInfo[_id];\n    consum = RankingInfo[adr].consump;\n    rank = RankingInfo[adr].rank;\n    tot = RankingInfo[adr].total;\n  }\n  \n  function initiateTransaction(uint _id) returns (uint, uint) {\n    uint giveoutVol;\n    address adr;\n    uint whatDeviceAccept;\n    uint receivedMoney;\n    //for (uint i = 0; i < rLength; i++) {\n      adr = sortedRankingInfo[_id];\n      giveoutVol = currentVolume.findMin(RankingInfo[adr].consump);\n      if (connectedDevice[0].AssertInside(adr)) {\n        whatDeviceAccept = IHouse(adr).goNoGo(giveoutVol);\n        currentVolume -= whatDeviceAccept;\n        receivedMoney = whatDeviceAccept*priceForSale;\n        wallet = wallet.clearMoneyTransfer(receivedMoney,adr, address(this));\n      } else {\n        whatDeviceAccept = 0; \n      }\n      return(giveoutVol, whatDeviceAccept);\n    //}\n  }\n\n\n\n}\n",
  "sourcePath": "C:\\Users\\qianc\\Documents\\Thesis\\Code\\SimpleMonitor\\contracts\\SingleBattery.sol",
  "compiler": {
    "name": "solc",
    "version": "0.4.18+commit.9cf6e910.Emscripten.clang"
  },
  "schemaVersion": "1.0.1",
  "updatedAt": "2017-11-26T20:51:18.691Z"
}