{
  "contractName": "SingleBattery",
  "abi": [
    {
      "constant": false,
      "inputs": [],
      "name": "getTimerIndex",
      "outputs": [
        {
          "name": "",
          "type": "uint256"
        }
      ],
      "payable": false,
      "stateMutability": "nonpayable",
      "type": "function"
    },
    {
      "constant": false,
      "inputs": [
        {
          "name": "adr",
          "type": "address"
        }
      ],
      "name": "setTimerAdr",
      "outputs": [],
      "payable": false,
      "stateMutability": "nonpayable",
      "type": "function"
    },
    {
      "constant": true,
      "inputs": [],
      "name": "getVolumeCapacity",
      "outputs": [
        {
          "name": "vol",
          "type": "uint256"
        },
        {
          "name": "volAt",
          "type": "uint256"
        },
        {
          "name": "cap",
          "type": "uint256"
        }
      ],
      "payable": false,
      "stateMutability": "view",
      "type": "function"
    },
    {
      "constant": false,
      "inputs": [
        {
          "name": "giveoutvol",
          "type": "uint256"
        }
      ],
      "name": "goNoGo",
      "outputs": [
        {
          "name": "",
          "type": "uint256"
        }
      ],
      "payable": false,
      "stateMutability": "nonpayable",
      "type": "function"
    },
    {
      "constant": true,
      "inputs": [],
      "name": "getSortedPrice",
      "outputs": [
        {
          "name": "consum",
          "type": "uint256"
        },
        {
          "name": "rank",
          "type": "uint256"
        },
        {
          "name": "tot",
          "type": "uint256"
        },
        {
          "name": "updated",
          "type": "bool"
        }
      ],
      "payable": false,
      "stateMutability": "view",
      "type": "function"
    },
    {
      "constant": false,
      "inputs": [],
      "name": "getTimerStatus",
      "outputs": [
        {
          "name": "",
          "type": "uint256"
        }
      ],
      "payable": false,
      "stateMutability": "nonpayable",
      "type": "function"
    },
    {
      "constant": false,
      "inputs": [],
      "name": "sellEnergy",
      "outputs": [],
      "payable": false,
      "stateMutability": "nonpayable",
      "type": "function"
    },
    {
      "constant": true,
      "inputs": [],
      "name": "getSalePrice",
      "outputs": [
        {
          "name": "prs",
          "type": "uint256"
        },
        {
          "name": "updatedOrNot",
          "type": "bool"
        }
      ],
      "payable": false,
      "stateMutability": "view",
      "type": "function"
    },
    {
      "constant": false,
      "inputs": [
        {
          "name": "vol",
          "type": "uint256"
        }
      ],
      "name": "goExcess",
      "outputs": [
        {
          "name": "takeVol",
          "type": "uint256"
        },
        {
          "name": "prs",
          "type": "uint256"
        }
      ],
      "payable": false,
      "stateMutability": "nonpayable",
      "type": "function"
    },
    {
      "constant": false,
      "inputs": [],
      "name": "askForRank",
      "outputs": [],
      "payable": false,
      "stateMutability": "nonpayable",
      "type": "function"
    },
    {
      "constant": false,
      "inputs": [],
      "name": "sortRank",
      "outputs": [],
      "payable": false,
      "stateMutability": "nonpayable",
      "type": "function"
    },
    {
      "constant": false,
      "inputs": [
        {
          "name": "_id",
          "type": "uint256"
        }
      ],
      "name": "initiateTransaction",
      "outputs": [
        {
          "name": "",
          "type": "uint256"
        },
        {
          "name": "",
          "type": "uint256"
        }
      ],
      "payable": false,
      "stateMutability": "nonpayable",
      "type": "function"
    },
    {
      "constant": false,
      "inputs": [
        {
          "name": "vol",
          "type": "uint256"
        }
      ],
      "name": "setVolume",
      "outputs": [],
      "payable": false,
      "stateMutability": "nonpayable",
      "type": "function"
    },
    {
      "constant": false,
      "inputs": [
        {
          "name": "v",
          "type": "uint256"
        }
      ],
      "name": "setBuyVolume",
      "outputs": [],
      "payable": false,
      "stateMutability": "nonpayable",
      "type": "function"
    },
    {
      "constant": false,
      "inputs": [
        {
          "name": "_id",
          "type": "uint256"
        }
      ],
      "name": "getSortedRank",
      "outputs": [
        {
          "name": "adr",
          "type": "address"
        },
        {
          "name": "consum",
          "type": "uint256"
        },
        {
          "name": "rank",
          "type": "uint256"
        },
        {
          "name": "tot",
          "type": "uint256"
        }
      ],
      "payable": false,
      "stateMutability": "nonpayable",
      "type": "function"
    },
    {
      "constant": false,
      "inputs": [],
      "name": "getTimerAddress",
      "outputs": [
        {
          "name": "",
          "type": "address"
        }
      ],
      "payable": false,
      "stateMutability": "nonpayable",
      "type": "function"
    },
    {
      "constant": false,
      "inputs": [],
      "name": "getBuyVol",
      "outputs": [
        {
          "name": "",
          "type": "uint256"
        }
      ],
      "payable": false,
      "stateMutability": "nonpayable",
      "type": "function"
    },
    {
      "constant": false,
      "inputs": [
        {
          "name": "adr",
          "type": "address"
        }
      ],
      "name": "setGridAdr",
      "outputs": [],
      "payable": false,
      "stateMutability": "nonpayable",
      "type": "function"
    },
    {
      "constant": false,
      "inputs": [],
      "name": "sortPrice",
      "outputs": [],
      "payable": false,
      "stateMutability": "nonpayable",
      "type": "function"
    },
    {
      "constant": false,
      "inputs": [
        {
          "name": "a",
          "type": "uint256"
        },
        {
          "name": "adr",
          "type": "address"
        }
      ],
      "name": "addConnectedDevice",
      "outputs": [],
      "payable": false,
      "stateMutability": "nonpayable",
      "type": "function"
    },
    {
      "constant": false,
      "inputs": [],
      "name": "askForPrice",
      "outputs": [],
      "payable": false,
      "stateMutability": "nonpayable",
      "type": "function"
    },
    {
      "constant": false,
      "inputs": [
        {
          "name": "prsSale",
          "type": "uint256"
        },
        {
          "name": "prsBuy",
          "type": "uint256"
        }
      ],
      "name": "setPrice",
      "outputs": [],
      "payable": false,
      "stateMutability": "nonpayable",
      "type": "function"
    },
    {
      "constant": true,
      "inputs": [],
      "name": "Admin",
      "outputs": [
        {
          "name": "",
          "type": "address"
        }
      ],
      "payable": false,
      "stateMutability": "view",
      "type": "function"
    },
    {
      "inputs": [
        {
          "name": "adr",
          "type": "address"
        },
        {
          "name": "cap",
          "type": "uint256"
        }
      ],
      "payable": false,
      "stateMutability": "nonpayable",
      "type": "constructor"
    },
    {
      "anonymous": false,
      "inputs": [
        {
          "indexed": false,
          "name": "adr",
          "type": "address"
        },
        {
          "indexed": false,
          "name": "vol",
          "type": "uint256"
        },
        {
          "indexed": false,
          "name": "volAt",
          "type": "uint256"
        }
      ],
      "name": "VolLog",
      "type": "event"
    },
    {
      "anonymous": false,
      "inputs": [
        {
          "indexed": false,
          "name": "updateAt",
          "type": "uint256"
        }
      ],
      "name": "PriceUpdate",
      "type": "event"
    }
  ],
  "bytecode": "0x606060405260038054600160a060020a031990811690915560048054909116905561012c6008819055600955341561003657600080fd5b60405160408061178d833981016040528080519190602001805160018054600160a060020a03958616600160a060020a031991821617909155600080543390961695909116949094179093555050600e556116f7806100966000396000f3006060604052600436106101195763ffffffff60e060020a600035041663074b7c80811461011e5780630830cfae146101435780630e00c316146101645780630ff372821461019b5780631b45f0e0146101b1578063235a4a4f146101f05780632c2735dd146102035780632fbc0bf11461021657806335f7f5e2146102435780633d7224dc146102715780633d859507146102845780633fd2007d146102975780634559dcdc146102ad5780636a95841b146102c35780636b608223146102d957806370ed8f241461032c57806379c19df01461035b5780638d646b111461036e578063aac12b4b1461038d578063bfd11903146103a0578063c9746029146103c2578063f7d97577146103d5578063ff1b636d146103ee575b600080fd5b341561012957600080fd5b610131610401565b60405190815260200160405180910390f35b341561014e57600080fd5b610162600160a060020a036004351661046b565b005b341561016f57600080fd5b6101776104ae565b60405180848152602001838152602001828152602001935050505060405180910390f35b34156101a657600080fd5b6101316004356104be565b34156101bc57600080fd5b6101c461074c565b604051938452602084019290925260408084019190915290151560608301526080909101905180910390f35b34156101fb57600080fd5b6101316107ef565b341561020e57600080fd5b610162610839565b341561022157600080fd5b6102296108f3565b604051918252151560208201526040908101905180910390f35b341561024e57600080fd5b610259600435610918565b60405191825260208201526040908101905180910390f35b341561027c57600080fd5b610162610a56565b341561028f57600080fd5b610162610c88565b34156102a257600080fd5b610259600435610d02565b34156102b857600080fd5b610162600435610ff2565b34156102ce57600080fd5b610162600435611081565b34156102e457600080fd5b6102ef6004356110c6565b6040518085600160a060020a0316600160a060020a0316815260200184815260200183815260200182815260200194505050505060405180910390f35b341561033757600080fd5b61033f611165565b604051600160a060020a03909116815260200160405180910390f35b341561036657600080fd5b610131611174565b341561037957600080fd5b610162600160a060020a036004351661117a565b341561039857600080fd5b6101626111be565b34156103ab57600080fd5b610162600435600160a060020a036024351661134d565b34156103cd57600080fd5b6101626113b9565b34156103e057600080fd5b6101626004356024356115cf565b34156103f957600080fd5b61033f61163f565b600454600090600160a060020a031663bdef9d9282604051602001526040518163ffffffff1660e060020a028152600401602060405180830381600087803b151561044b57600080fd5b6102c65a03f1151561045c57600080fd5b50505060405180519150505b90565b60005433600160a060020a0390811691161415610119576004805473ffffffffffffffffffffffffffffffffffffffff1916600160a060020a0383161790555b50565b600f54600b54600e549192909190565b600080600060046104cd6107ef565b8114156101195760016000908152600660205233935073__AdrLib________________________________90632c2fc20e9060008051602061168c8339815191529086906040516020015260405160e060020a63ffffffff85160281526004810192909252600160a060020a0316602482015260440160206040518083038186803b151561055a57600080fd5b6102c65a03f4151561056b57600080fd5b505050604051805190508061058d5750600354600160a060020a038481169116145b151561059857600080fd5b60105473__TransactLib___________________________63bc2e368c90918760006040516020015260405160e060020a63ffffffff85160281526004810192909252602482015260440160206040518083038186803b15156105fa57600080fd5b6102c65a03f4151561060b57600080fd5b5050506040518051600f805482019081905542600b8190556001549295507fa8533a3e28bf00cd05018ed80847d3d6f170da084f6417da50798db7335ff9a09350600160a060020a03909216916040518084600160a060020a0316600160a060020a03168152602001838152602001828152602001935050505060405180910390a160105473__TransactLib___________________________639e5fd0a99091843060006040516020015260405160e060020a63ffffffff861602815260048101939093526024830191909152600160a060020a0316604482015260640160206040518083038186803b151561070157600080fd5b6102c65a03f4151561071257600080fd5b50505060405180516010555050600160a060020a039190911660009081526013602052604090205460078054918302909103905592915050565b6010546000808073__SortPLib______________________________63c6742457601333846040516060015260405160e060020a63ffffffff85160281526004810192909252600160a060020a0316602482015260440160606040518083038186803b15156107ba57600080fd5b6102c65a03f415156107cb57600080fd5b50505060405180519060200180519060200180519697929691955090935090915050565b600454600090600160a060020a0316633b7104f282604051602001526040518163ffffffff1660e060020a028152600401602060405180830381600087803b151561044b57600080fd5b600080600080600080600080600060046108516107ef565b8114156101195760195460009a509850600197505b87156108e757610874610401565b96508991505b888210156108d65761088b8a6110c6565b92985090965094509250868414156108b3576108a68a610d02565b50506001909901986108cb565b868410156108c6576001909901986108cb565b6108d6565b60019091019061087a565b888a106108e257600097505b610866565b50505050505050505050565b601154600954600a54600091429101101561091057506000610914565b5060015b9091565b60008060056109256107ef565b8114156101195760125491508373__TransactLib___________________________63bc2e368c9091600f54600e540360006040516020015260405160e060020a63ffffffff85160281526004810192909252602482015260440160206040518083038186803b151561099757600080fd5b6102c65a03f415156109a857600080fd5b505050604051805190509250600f5473__TransactLib___________________________63994459079091853060006040516020015260405160e060020a63ffffffff861602815260048101939093526024830191909152600160a060020a0316604482015260640160206040518083038186803b1515610a2857600080fd5b6102c65a03f41515610a3957600080fd5b5050506040518051600f5550600780548484029003905550915091565b60008060008060006003610a686107ef565b8114156101195773__SortRLib______________________________63e6f37de9601760405160e060020a63ffffffff8416028152600481019190915260240160006040518083038186803b1515610abf57600080fd5b6102c65a03f41515610ad057600080fd5b505050600091505b6000805260066020526000805160206116ac83398151915254821015610c7b576000805260066020526000805160206116ac833981519152805483908110610b1c57fe5b6000918252602082200154600160a060020a031690631b45f0e090604051608001526040518163ffffffff1660e060020a028152600401608060405180830381600087803b1515610b6c57600080fd5b6102c65a03f11515610b7d57600080fd5b50505060405180519060200180519060200180519060200180519399509197509550909350508215610c70576000805260066020526000805160206116ac833981519152805473__SortRLib______________________________9163ef61a139916017919086908110610bed57fe5b600091825260209091200154600160a060020a031689898960405160e060020a63ffffffff88160281526004810195909552600160a060020a03909316602485015260448401919091526064830152608482015260a40160006040518083038186803b1515610c5b57600080fd5b6102c65a03f41515610c6c57600080fd5b5050505b600190910190610ad8565b42600d555b505050505050565b6003610c926107ef565b8114156101195773__SortRLib______________________________63534e1918601760405160e060020a63ffffffff8416028152600481019190915260240160006040518083038186803b1515610ce957600080fd5b6102c65a03f41515610cfa57600080fd5b5050506104ab565b60008060008060008060008060006004610d1a6107ef565b81141561011957610d2a8b6110c6565b600f54939a509198509650945073__TransactLib___________________________9063bc2e368c908860006040516020015260405160e060020a63ffffffff85160281526004810192909252602482015260440160206040518083038186803b1515610d9657600080fd5b6102c65a03f41515610da757600080fd5b50505060405180516000808052600660205290995073__AdrLib________________________________9150632c2fc20e906000805160206116ac833981519152908a906040516020015260405160e060020a63ffffffff85160281526004810192909252600160a060020a0316602482015260440160206040518083038186803b1515610e3457600080fd5b6102c65a03f41515610e4557600080fd5b5050506040518051905015610fdd5786600160a060020a0316630ff372828960006040516020015260405160e060020a63ffffffff84160281526004810191909152602401602060405180830381600087803b1515610ea357600080fd5b6102c65a03f11515610eb457600080fd5b5050506040518051600f80548290039081905542600b8190556001549296507fa8533a3e28bf00cd05018ed80847d3d6f170da084f6417da50798db7335ff9a09350600160a060020a03909216916040518084600160a060020a0316600160a060020a03168152602001838152602001828152602001935050505060405180910390a16011548302915060075473__TransactLib___________________________63e2992d299091848a3060006040516020015260405160e060020a63ffffffff871602815260048101949094526024840192909252600160a060020a03908116604484015216606482015260840160206040518083038186803b1515610fbb57600080fd5b6102c65a03f41515610fcc57600080fd5b505050604051805160075550610fe2565b600092505b5095999098509650505050505050565b60015433600160a060020a039081169116141561011957600f81905542600b8190556001547fa8533a3e28bf00cd05018ed80847d3d6f170da084f6417da50798db7335ff9a091600160a060020a039091169083906040518084600160a060020a0316600160a060020a03168152602001838152602001828152602001935050505060405180910390a16104ab565b600161108b6107ef565b8114156101195760015433600160a060020a039081169116141561011957600e54600f54830111156110bc57600080fd5b60108290555b5050565b600080808073__SortRLib______________________________6391871092601787846040516080015260405160e060020a63ffffffff85160281526004810192909252602482015260440160806040518083038186803b151561112957600080fd5b6102c65a03f4151561113a57600080fd5b5050506040518051906020018051906020018051906020018051905093509350935093509193509193565b600454600160a060020a031690565b60105490565b60005433600160a060020a0390811691161415610119576003805473ffffffffffffffffffffffffffffffffffffffff1916600160a060020a0383161790556104ab565b60008060026111cb6107ef565b8114156101195773__SortPLib______________________________6332a76998601360405160e060020a63ffffffff8416028152600481019190915260240160006040518083038186803b151561122257600080fd5b6102c65a03f4151561123357600080fd5b5050600354600160a060020a03161590506113485760035460009350839250600160a060020a03166398d5fdca83604051604001526040518163ffffffff1660e060020a0281526004016040805180830381600087803b151561129557600080fd5b6102c65a03f115156112a657600080fd5b5050506040518051906020018051600354929550935073__SortPLib______________________________9163c3af64529150601390600160a060020a0316868660405160e060020a63ffffffff87160281526004810194909452600160a060020a03909216602484015260448301521515606482015260840160006040518083038186803b151561133757600080fd5b6102c65a03f41515610c8057600080fd5b505050565b60005433600160a060020a0390811691161415610119576000828152600660205260409020805460018101611382838261164e565b506000918252602090912001805473ffffffffffffffffffffffffffffffffffffffff1916600160a060020a0383161790556110c2565b600080600060026113c86107ef565b811415610119576000935083925073__SortPLib______________________________63e61f7934601360405160e060020a63ffffffff8416028152600481019190915260240160006040518083038186803b151561142657600080fd5b6102c65a03f4151561143757600080fd5b505050600091505b6001600052600660205260008051602061168c833981519152548210156115c5576001600052600660205260008051602061168c83398151915280548390811061148557fe5b6000918252602082200154600160a060020a0316906398d5fdca90604051604001526040518163ffffffff1660e060020a0281526004016040805180830381600087803b15156114d457600080fd5b6102c65a03f115156114e557600080fd5b50505060405180519060200180516001600052600660205260008051602061168c833981519152805493975090955073__SortPLib______________________________9263c3af64529250601391908690811061153f57fe5b600091825260209091200154600160a060020a0316878760405160e060020a63ffffffff87160281526004810194909452600160a060020a03909216602484015260448301521515606482015260840160006040518083038186803b15156115a657600080fd5b6102c65a03f415156115b757600080fd5b50506001909201915061143f565b42600c5550505050565b60016115d96107ef565b8114156101195760015433600160a060020a0390811691161415610119576011839055601282905542600a8190557fae46785019700e30375a5d7b4f91e32f8060ef085111f896ebf889450aa2ab5a9060405190815260200160405180910390a1611348565b600054600160a060020a031681565b8154818355818115116113485760008381526020902061134891810190830161046891905b808211156116875760008155600101611673565b509056003e5fec24aa4dc4e5aee2e025e51e1392c72a2500577559fae9665c6d52bd6a3154cdd369e4e8a8515e52ca72ec816c2101831ad1f18bf44102ed171459c9b4f8a165627a7a7230582059f67e658c9322087cdbdc1f7fdeb7b7e98c6c530c1ad1552a779441571b0bb10029",
  "source": "pragma solidity ^0.4.4;\r\n\r\nimport \"./IBattery.sol\";\r\nimport \"./IPV.sol\";\r\nimport \"./IGrid.sol\";\r\nimport \"./IHouse.sol\";\r\nimport \"./GeneralDevice.sol\";\r\n\r\nimport \"./SortRLib.sol\";\r\nimport \"./SortPLib.sol\"; \r\nimport \"./AdrLib.sol\"; \r\nimport \"./TransactLib.sol\";\r\n\r\n\r\n//For simplicity, we do not use the sorting functions here, as in our configuration, there is only one battery and there's only one PV connected.  \r\n\r\ncontract SingleBattery is GeneralDevice, IBattery {\r\n  \r\n  using AdrLib for address[];\r\n  using TransactLib for *;\r\n  using SortPLib for *;\r\n  using SortRLib for *;\r\n\r\n  uint    capacity;                 // Cap of the device\r\n  uint    currentVolume;            // Production of electricity\r\n  uint    buyVolume;                // Amount of electricity that this battery would like to buy. Will first participate in the supply competition \r\n                                    //and will be finally (anyway) fulfilled b either the network or from the grid...\r\n  uint    priceForSale;\r\n  uint    priceForBuy;              // lower than market price (ForExcessEnergy)\r\n\r\n  SortPLib.PriceMap draftPriceMap;\r\n  SortRLib.RankMap draftRankMap;\r\n\r\n// ======= Modifiers =======\r\n\r\n// ======= Event Logs =======\r\n\r\n  event VolLog(address adr, uint vol, uint volAt);\r\n  //event ConfigurationLog(string confMod, uint statusAt);\r\n  event PriceUpdate(uint updateAt);\r\n\r\n// ======= Basic Functionalities =======\r\n\r\n  // --- 0. Upon contract creation and configuration ---\r\n\r\n  function SingleBattery (address adr,  uint cap) GeneralDevice(adr) {\r\n    capacity = cap;\r\n  }\r\n\r\n  function setVolume(uint vol) public ownerOnly {\r\n    // Can only be triggered once....Should be moved into the constructor...Once the initial volumne is set, can only be changed by energy trading.\r\n    currentVolume = vol;\r\n    volStatusAt = now;\r\n    VolLog(owner,vol,volStatusAt);\r\n  }\r\n\r\n  // --- 1. set and get the active purchase volume (if battery wants) and selling price every 15 min (or less) ---\r\n\r\n  function setPrice(uint prsSale, uint prsBuy) public timed(1) ownerOnly {\r\n    priceForSale = prsSale;\r\n    priceForBuy = prsBuy;\r\n    priceStatusAt = now;\r\n    PriceUpdate(priceStatusAt);\r\n  }\r\n\r\n  function getSalePrice() public view returns (uint prs, bool updatedOrNot) { // connectedHouseOnly external\r\n    prs = priceForSale;\r\n    //prsAt = priceStatusAt;\r\n    if (priceStatusAt + priceTimeOut < now) {\r\n      updatedOrNot = false;\r\n    } else {\r\n      updatedOrNot = true;\r\n    }\r\n    //adr = owner;\r\n  }\r\n\r\n  function setBuyVolume(uint v) public timed(1) ownerOnly {\r\n    require(currentVolume + v <= capacity);\r\n    buyVolume = v;\r\n  }\r\n\r\n  function getBuyVol() returns (uint) {return buyVolume;}\r\n\r\n  function getVolumeCapacity () external view returns (uint vol, uint volAt, uint cap) { // timed(initTime,volTimeOut) \r\n    vol = currentVolume;\r\n    volAt = volStatusAt;\r\n    cap = capacity;\r\n  }\r\n\r\n  // --- 2. Battery can be considered as a house if it wants to actively purchase energy. --- \r\n  // ---    Ask for connected PV / batteries / grid for price of electricity supply. --- \r\n  // ---    Sort the list of offers. --- \r\n\r\n  function askForPrice() timed(2) {\r\n    // Battery query price info to all the connected PV/Battery. \r\n    uint tP = 0;\r\n    bool tF = false;\r\n    draftPriceMap.initPrsTable();\r\n    for (uint i = 0; i < connectedDevice[1].length; i++) {\r\n      (tP,tF) = IPV(connectedDevice[1][i]).getPrice();\r\n      draftPriceMap.addToPrsTable(connectedDevice[1][i],tP,tF);\r\n    }\r\n    lastPriceQueryAt = now;\r\n  }\r\n\r\n  function sortPrice() timed(2) {\r\n    draftPriceMap.sortPrsTable();\r\n    // if the grid is connected -> add the price from the grid to the end of the sorted list \r\n    if (grid != 0x0) {\r\n      uint tP = 0;\r\n      bool tF = false;\r\n      (tP,tF) = IGrid(grid).getPrice();\r\n      draftPriceMap.addToPrsTable(grid,tP,tF);\r\n    }\r\n  }\r\n\r\n  function getSortedPrice() external view returns(uint consum, uint rank, uint tot, bool updated) {\r\n    consum = buyVolume;\r\n    (rank,tot,updated) = draftPriceMap.getPrsTable(msg.sender);\r\n  }\r\n\r\n  // --- 3. Battery can also provide energy to houses. --- \r\n  // ---    Sort the list of ranks. --- \r\n\r\n  function askForRank() timed(3) {\r\n    uint consum;\r\n    uint rank;\r\n    uint tot;\r\n    bool updated;\r\n    draftRankMap.initRnkTable();\r\n    for (uint i = 0; i < connectedDevice[0].length; i++) {\r\n      (consum, rank, tot, updated) = IHouse(connectedDevice[0][i]).getSortedPrice();\r\n      if (updated) {\r\n        draftRankMap.addToRnkTable(connectedDevice[0][i],consum, rank, tot);\r\n      }\r\n    }\r\n    lastRankingAt = now;\r\n  }\r\n\r\n  function sortRank() timed(3) {\r\n    draftRankMap.sortRnkTable();\r\n  }\r\n\r\n  function getSortedRank(uint _id) returns(address adr, uint consum, uint rank, uint tot) {\r\n    return draftRankMap.getSortedList(_id);\r\n  }\r\n\r\n  /*//  for test \r\n\r\n  function getDraftPrsMap(address adr) public view returns (uint, bool) {\r\n    return (draftPriceMap.prsTable[adr].prs, draftPriceMap.prsTable[adr].updated);\r\n  }\r\n\r\n  function getSrtList(uint a) public returns(address, uint, bool) { //address, uint, bool\r\n    return draftPriceMap.getSortedList(a);\r\n  }*/\r\n\r\n\r\n  // --- 4. PV/Battery/Grid asks Battery to confirm energy transaction ---\r\n\r\n  function goNoGo(uint giveoutvol) timed(4) returns (uint) {\r\n    address adrDevice = msg.sender;\r\n    uint takeoutvol;\r\n    require(connectedDevice[1].assertInside(adrDevice) || adrDevice == grid);\r\n    takeoutvol = buyVolume.findMin(giveoutvol);\r\n    currentVolume += takeoutvol;\r\n    volStatusAt = now;\r\n    VolLog(owner,currentVolume,volStatusAt);\r\n    buyVolume = buyVolume.clearEnergyTransfer(takeoutvol, address(this));\r\n    wallet -= int(takeoutvol*draftPriceMap.prsTable[adrDevice].prs);\r\n    return (takeoutvol); \r\n  }\r\n\r\n  function sellEnergy() timed(4) {\r\n    uint counter = 0;\r\n    uint tL = draftRankMap.totalLength;\r\n    bool waiting = true;\r\n    uint i;\r\n\r\n    address adr;\r\n    uint consum;\r\n    uint rank;\r\n    uint tot;\r\n\r\n    while (waiting) {\r\n      i = getTimerIndex();\r\n      for (uint j = counter; j < tL; j++) {\r\n        (adr,consum,rank,tot) = getSortedRank(counter);\r\n        if (rank == i) {\r\n          // time to make transaction\r\n          initiateTransaction(counter);\r\n          counter++;\r\n        } else if (rank < i) {\r\n          // the transaction of this ranking has been done globally. No more transaction should be made for this ranking.\r\n          counter++;\r\n        } else {\r\n          // when rank > i, need to wait\r\n          break;\r\n        }\r\n      }\r\n      if (counter >= tL) {\r\n        waiting = false;\r\n      }\r\n    }\r\n  }\r\n\r\n  function initiateTransaction(uint _id) timed(4) returns (uint, uint) {\r\n    uint giveoutVol;\r\n    address adr;\r\n    uint consum;\r\n    uint rank;\r\n    uint tot;\r\n    uint whatDeviceAccept;\r\n    uint receivedMoney;\r\n \r\n      (adr,consum,rank,tot) = getSortedRank(_id);\r\n      giveoutVol = currentVolume.findMin(consum);\r\n      if (connectedDevice[0].assertInside(adr)) {\r\n        whatDeviceAccept = IHouse(adr).goNoGo(giveoutVol);\r\n        //setVolume(currentVolume-whatDeviceAccept);\r\n        currentVolume -= whatDeviceAccept;\r\n        volStatusAt = now;\r\n        VolLog(owner,currentVolume,volStatusAt);\r\n        receivedMoney = whatDeviceAccept*priceForSale;\r\n        wallet = wallet.clearMoneyTransfer(receivedMoney,adr, address(this));\r\n      } else {\r\n        whatDeviceAccept = 0; \r\n      }\r\n      return(giveoutVol, whatDeviceAccept);\r\n    //}\r\n  }\r\n\r\n  // --- 5. Deal with excess energy --- \r\n\r\n  function goExcess(uint vol) timed(5) returns (uint takeVol, uint prs) {\r\n    prs = priceForBuy;\r\n    takeVol = vol.findMin(capacity-currentVolume);\r\n    currentVolume = currentVolume.clearExcessTransfer(takeVol, address(this));\r\n    wallet -= int(takeVol*prs);\r\n  }\r\n\r\n}\r\n",
  "sourcePath": "C:\\Users\\qianc\\Documents\\Thesis\\Code\\SimpleMonitor\\contracts\\SingleBattery.sol",
  "compiler": {
    "name": "solc",
    "version": "0.4.18+commit.9cf6e910.Emscripten.clang"
  },
  "schemaVersion": "1.0.1",
  "updatedAt": "2017-11-30T19:16:39.395Z"
}