{
  "contractName": "SingleHouse",
  "abi": [
    {
      "constant": true,
      "inputs": [],
      "name": "name",
      "outputs": [
        {
          "name": "",
          "type": "bytes32"
        }
      ],
      "payable": false,
      "stateMutability": "view",
      "type": "function"
    },
    {
      "constant": false,
      "inputs": [
        {
          "name": "giveoutvol",
          "type": "uint256"
        }
      ],
      "name": "goNoGo",
      "outputs": [
        {
          "name": "",
          "type": "uint256"
        }
      ],
      "payable": false,
      "stateMutability": "nonpayable",
      "type": "function"
    },
    {
      "constant": true,
      "inputs": [],
      "name": "getWallet",
      "outputs": [
        {
          "name": "",
          "type": "int256"
        }
      ],
      "payable": false,
      "stateMutability": "view",
      "type": "function"
    },
    {
      "constant": false,
      "inputs": [
        {
          "name": "adr",
          "type": "address"
        }
      ],
      "name": "getSortedHInfo",
      "outputs": [
        {
          "name": "consum",
          "type": "uint256"
        },
        {
          "name": "rank",
          "type": "uint256"
        },
        {
          "name": "tot",
          "type": "uint256"
        },
        {
          "name": "updated",
          "type": "bool"
        }
      ],
      "payable": false,
      "stateMutability": "nonpayable",
      "type": "function"
    },
    {
      "constant": false,
      "inputs": [],
      "name": "getSortedInfo",
      "outputs": [
        {
          "name": "consum",
          "type": "uint256"
        },
        {
          "name": "rank",
          "type": "uint256"
        },
        {
          "name": "tot",
          "type": "uint256"
        },
        {
          "name": "updated",
          "type": "bool"
        }
      ],
      "payable": false,
      "stateMutability": "nonpayable",
      "type": "function"
    },
    {
      "constant": false,
      "inputs": [],
      "name": "buyExtra",
      "outputs": [],
      "payable": false,
      "stateMutability": "nonpayable",
      "type": "function"
    },
    {
      "constant": false,
      "inputs": [
        {
          "name": "adrP",
          "type": "address"
        }
      ],
      "name": "addConnectedPV",
      "outputs": [],
      "payable": false,
      "stateMutability": "nonpayable",
      "type": "function"
    },
    {
      "constant": false,
      "inputs": [
        {
          "name": "consum",
          "type": "uint256"
        }
      ],
      "name": "setConsumption",
      "outputs": [],
      "payable": false,
      "stateMutability": "nonpayable",
      "type": "function"
    },
    {
      "constant": false,
      "inputs": [],
      "name": "getConsumption",
      "outputs": [
        {
          "name": "consum",
          "type": "uint256"
        },
        {
          "name": "consumAt",
          "type": "uint256"
        }
      ],
      "payable": false,
      "stateMutability": "nonpayable",
      "type": "function"
    },
    {
      "constant": false,
      "inputs": [
        {
          "name": "adrB",
          "type": "address"
        }
      ],
      "name": "addConnectedBattery",
      "outputs": [],
      "payable": false,
      "stateMutability": "nonpayable",
      "type": "function"
    },
    {
      "constant": false,
      "inputs": [],
      "name": "sortPriceList",
      "outputs": [],
      "payable": false,
      "stateMutability": "nonpayable",
      "type": "function"
    },
    {
      "constant": false,
      "inputs": [
        {
          "name": "adr",
          "type": "address"
        }
      ],
      "name": "setGridAdr",
      "outputs": [],
      "payable": false,
      "stateMutability": "nonpayable",
      "type": "function"
    },
    {
      "constant": true,
      "inputs": [],
      "name": "owner",
      "outputs": [
        {
          "name": "",
          "type": "address"
        }
      ],
      "payable": false,
      "stateMutability": "view",
      "type": "function"
    },
    {
      "constant": false,
      "inputs": [
        {
          "name": "adr",
          "type": "address"
        }
      ],
      "name": "getSortedPosition",
      "outputs": [
        {
          "name": "",
          "type": "uint256"
        }
      ],
      "payable": false,
      "stateMutability": "nonpayable",
      "type": "function"
    },
    {
      "constant": false,
      "inputs": [],
      "name": "askForPrice",
      "outputs": [],
      "payable": false,
      "stateMutability": "nonpayable",
      "type": "function"
    },
    {
      "constant": false,
      "inputs": [
        {
          "name": "a",
          "type": "uint256"
        }
      ],
      "name": "getConnectPVAddress",
      "outputs": [
        {
          "name": "",
          "type": "address"
        }
      ],
      "payable": false,
      "stateMutability": "nonpayable",
      "type": "function"
    },
    {
      "constant": true,
      "inputs": [],
      "name": "Admin",
      "outputs": [
        {
          "name": "",
          "type": "address"
        }
      ],
      "payable": false,
      "stateMutability": "view",
      "type": "function"
    },
    {
      "inputs": [
        {
          "name": "adr",
          "type": "address"
        }
      ],
      "payable": false,
      "stateMutability": "nonpayable",
      "type": "constructor"
    },
    {
      "anonymous": false,
      "inputs": [
        {
          "indexed": false,
          "name": "adr",
          "type": "address"
        },
        {
          "indexed": false,
          "name": "consum",
          "type": "uint256"
        },
        {
          "indexed": false,
          "name": "consumAt",
          "type": "uint256"
        }
      ],
      "name": "ConsumptionLog",
      "type": "event"
    },
    {
      "anonymous": false,
      "inputs": [
        {
          "indexed": false,
          "name": "confMod",
          "type": "string"
        },
        {
          "indexed": false,
          "name": "statusAt",
          "type": "uint256"
        }
      ],
      "name": "ConfigurationLog",
      "type": "event"
    },
    {
      "anonymous": false,
      "inputs": [
        {
          "indexed": false,
          "name": "adrFrom",
          "type": "address"
        },
        {
          "indexed": false,
          "name": "adrTo",
          "type": "address"
        },
        {
          "indexed": false,
          "name": "eVol",
          "type": "uint256"
        },
        {
          "indexed": false,
          "name": "transferAt",
          "type": "uint256"
        }
      ],
      "name": "EnergyTransferLog",
      "type": "event"
    }
  ],
  "bytecode": "0x606060405260038054600160a060020a031916905561012c600455341561002557600080fd5b6040516020806111978339810160405280805160078054600160a060020a03928316600160a060020a031991821617909155600080543390931692909116919091179055505061111d8061007a6000396000f3006060604052600436106100d75763ffffffff60e060020a60003504166306fdde0381146100dc5780630ff372821461010157806313299604146101175780631628ce6c1461012a57806338a3528c146101755780633acca96d1461018857806341977cf51461019d5780635a500ecc146101bc5780638a5cb1b6146101d25780638ad5366f146101fd5780638b874f721461021c5780638d646b111461022f5780638da5cb5b1461024e578063b148f82b1461027d578063c97460291461029c578063e7e27410146102af578063ff1b636d146102c5575b600080fd5b34156100e757600080fd5b6100ef6102d8565b60405190815260200160405180910390f35b341561010c57600080fd5b6100ef6004356102de565b341561012257600080fd5b6100ef610536565b341561013557600080fd5b610149600160a060020a036004351661053d565b604051938452602084019290925260408084019190915290151560608301526080909101905180910390f35b341561018057600080fd5b61014961059d565b341561019357600080fd5b61019b6105ba565b005b34156101a857600080fd5b61019b600160a060020a0360043516610705565b34156101c757600080fd5b61019b6004356107c1565b34156101dd57600080fd5b6101e5610850565b60405191825260208201526040908101905180910390f35b341561020857600080fd5b61019b600160a060020a0360043516610871565b341561022757600080fd5b61019b61092e565b341561023a57600080fd5b61019b600160a060020a0360043516610b5b565b341561025957600080fd5b610261610b92565b604051600160a060020a03909116815260200160405180910390f35b341561028857600080fd5b6100ef600160a060020a0360043516610ba1565b34156102a757600080fd5b61019b610bf6565b34156102ba57600080fd5b610261600435610e0e565b34156102d057600080fd5b610261610e3a565b60085481565b6000338173__AdrLib________________________________6354859436600b84846040516020015260405160e060020a63ffffffff85160281526004810192909252600160a060020a0316602482015260440160206040518083038186803b151561034957600080fd5b6102c65a03f4151561035a57600080fd5b50505060405180519050806103ee575073__AdrLib________________________________6354859436600a8460006040516020015260405160e060020a63ffffffff85160281526004810192909252600160a060020a0316602482015260440160206040518083038186803b15156103d257600080fd5b6102c65a03f415156103e357600080fd5b505050604051805190505b15156103f957600080fd5b60055473__TransactLib___________________________63bc2e368c90918660006040516020015260405160e060020a63ffffffff85160281526004810192909252602482015260440160206040518083038186803b151561045b57600080fd5b6102c65a03f4151561046c57600080fd5b50505060405180519050905060055473__TransactLib___________________________639e5fd0a99091833060006040516020015260405160e060020a63ffffffff861602815260048101939093526024830191909152600160a060020a0316604482015260640160206040518083038186803b15156104ec57600080fd5b6102c65a03f415156104fd57600080fd5b505050604051805160055550600160a060020a0382166000908152600e6020526040902054600680549183029091039055915050919050565b6006545b90565b6005546000808061054d85610ba1565b600354909350600160a060020a03161561057257600b54600a5401600101915061057c565b600b54600a540191505b42600454600d5401101561059257506000610596565b5060015b9193509193565b6000806000806105ac3361053d565b935093509350935090919293565b60035460009081908190600160a060020a031615156105d857600080fd5b6000600554111561070057600354600554600160a060020a0390911690636e2855449060006040516040015260405160e060020a63ffffffff841602815260048101919091526024016040805180830381600087803b151561063957600080fd5b6102c65a03f1151561064a57600080fd5b5050506040518051906020018051600554929550925073__TransactLib___________________________91639e5fd0a99150853060006040516020015260405160e060020a63ffffffff861602815260048101939093526024830191909152600160a060020a0316604482015260640160206040518083038186803b15156106d257600080fd5b6102c65a03f415156106e357600080fd5b505050604051805160055550600680548483029081900390915591505b505050565b60005433600160a060020a03908116911614156100d757600a80546001810161072e838261105d565b5060009182526020909120018054600160a060020a031916600160a060020a0383161790557f34ff05936c7ffe85555df53a7bf1374ed025703c493a74c4ce3316646f950e1642604051602081019190915260408082526012818301527f5056206c696e6b656420746f20486f757365000000000000000000000000000060608301526080909101905180910390a15b50565b60075433600160a060020a03908116911614156100d75760058190554260098190556007547f93e0cabaa551645c58979b9f1e87af3e09f708241c9bdd6468e581ad0651692691600160a060020a039091169083906040518084600160a060020a0316600160a060020a03168152602001838152602001828152602001935050505060405180910390a16107be565b60008060045480600954014210156100d75760055492506009549150509091565b60005433600160a060020a03908116911614156100d757600b80546001810161089a838261105d565b5060009182526020909120018054600160a060020a031916600160a060020a0383161790557f34ff05936c7ffe85555df53a7bf1374ed025703c493a74c4ce3316646f950e1642604051602081019190915260408082526017818301527f42617474657279206c696e6b656420746f20486f75736500000000000000000060608301526080909101905180910390a16107be565b600080600080600061093e610e49565b600b54600a54019350600092505b83831015610a4e5773__SortLib_______________________________63f27da568600c60006040516020015260405160e060020a63ffffffff8416028152600481019190915260240160206040518083038186803b15156109ad57600080fd5b6102c65a03f415156109be57600080fd5b5050506040518051905094506109d983600186030386611010565b73__SortLib_______________________________6343168c1b600c8760405160e060020a63ffffffff85160281526004810192909252602482015260440160006040518083038186803b1515610a2f57600080fd5b6102c65a03f41515610a4057600080fd5b50506001909301925061094c565b600354600160a060020a031615610b545750506003546000908190600160a060020a03166398d5fdca82604051604001526040518163ffffffff1660e060020a0281526004016040805180830381600087803b1515610aac57600080fd5b6102c65a03f11515610abd57600080fd5b50505060405180519060200180519193509091506040905080519081016040908152838252821515602080840191909152600354600160a060020a03166000908152600e909152208151815560208201516001909101805491151560ff19909216919091179055506003546000858152600f602052604090208054600160a060020a031916600160a060020a039092169190911790555b5050505050565b60005433600160a060020a03908116911614156100d75760038054600160a060020a031916600160a060020a0383161790556107be565b600754600160a060020a031681565b6000805b600b54600a5401600101811015610beb576000818152600f6020526040902054600160a060020a0384811691161415610be357806001019150610bf0565b600101610ba5565b600091505b50919050565b600080805b600a54811015610cfe57600a805482908110610c1357fe5b6000918252602082200154600160a060020a0316906398d5fdca90604051604001526040518163ffffffff1660e060020a0281526004016040805180830381600087803b1515610c6257600080fd5b6102c65a03f11515610c7357600080fd5b50505060405180519060200180519194509092506040905080519081016040528381528215156020820152600a8054600e9160009185908110610cb257fe5b6000918252602080832090910154600160a060020a0316835282019290925260400190208151815560208201516001918201805460ff1916911515919091179055919091019050610bfb565b5060005b600b54811015610e0557600b805482908110610d1a57fe5b6000918252602082200154600160a060020a031690632fbc0bf190604051604001526040518163ffffffff1660e060020a0281526004016040805180830381600087803b1515610d6957600080fd5b6102c65a03f11515610d7a57600080fd5b50505060405180519060200180519194509092506040905080519081016040528381528215156020820152600b8054600e9160009185908110610db957fe5b6000918252602080832090910154600160a060020a0316835282019290925260400190208151815560208201516001918201805460ff1916911515919091179055919091019050610d02565b505042600d5550565b6000600a82815481101515610e1f57fe5b600091825260209091200154600160a060020a031692915050565b600054600160a060020a031681565b600b54600a5460009101610e5e600c82611081565b50600090505b600a54811015610f3157600e6000600a83815481101515610e8157fe5b6000918252602080832090910154600160a060020a031683528201929092526040019020600c805483908110610eb357fe5b6000918252602090912082546002909202019081556001918201549101805460ff191660ff9092161515919091179055600a805482908110610ef157fe5b6000918252602080832090910154838352600f90915260409091208054600160a060020a031916600160a060020a03909216919091179055600101610e64565b50600a545b600c548110156107be57600e6000600b600a805490508403815481101515610f5a57fe5b6000918252602080832090910154600160a060020a031683528201929092526040019020600c805483908110610f8c57fe5b6000918252602090912082546002909202019081556001918201549101805460ff191660ff9092161515919091179055600a54600b805490918303908110610fd057fe5b6000918252602080832090910154838352600f90915260409091208054600160a060020a031916600160a060020a03909216919091179055600101610f36565b600082821461070057506000918252600f6020526040808320805492845292208054600160a060020a03908116600160a060020a0319808516919091179094558154921691909216179055565b815481835581811511610700576000838152602090206107009181019083016110ad565b8154818355818115116107005760020281600202836000526020600020918201910161070091906110cb565b61053a91905b808211156110c757600081556001016110b3565b5090565b61053a91905b808211156110c7576000815560018101805460ff191690556002016110d15600a165627a7a723058208f07e5ba1403f7ffa4a62b2a0cbe5e0c23f826a868893eafe744f9b95df62f890029",
  "source": "pragma solidity ^0.4.4;\r\n\r\nimport \"./SortLib.sol\";\r\nimport \"./AdrLib.sol\";\r\nimport \"./TransactLib.sol\";\r\nimport \"./IPV.sol\";\r\nimport \"./IGrid.sol\";\r\nimport \"./IBattery.sol\";\r\nimport \"./IHouse.sol\";\r\nimport \"./GeneralDevice.sol\";\r\n\r\ncontract SingleHouse is GeneralDevice, IHouse {\r\n  \r\n  // one contract is associated to one particular House in the network.\r\n\r\n  using AdrLib for address[];\r\n  using TransactLib for uint;\r\n\r\n  //address Admin;                    // shall be defined at the creation of contract or to be defined manually... now it doesn't work well. It captures the address of the Configuration contract.\r\n  //uint    consumTimeOut = 5 minutes;\r\n  //address grid = 0x0;               // contract address of grid\r\n  address public owner;\r\n  bytes32 public name;              // name of the device (Serie No.)\r\n  \r\n  uint    consumStatusAt;           // timestamp of the update (consumption)\r\n  address[] connectedPV;            // List of contract address of connected PV\r\n  address[] connectedBattery;       // List of contract address of connected batteries\r\n\r\n  // may be splited into another contract\r\n\r\n  /*struct PriceTF {\r\n    uint  prs;\r\n    bool  updated;\r\n  }*/\r\n\r\n  using SortLib for SortLib.PriceTF[];\r\n  SortLib.PriceTF[] prepPriceQueryInfo;\r\n\r\n  uint    lastPriceQueryAt;\r\n\r\n  mapping(address=>SortLib.PriceTF) priceQueryInfo;\r\n  mapping(uint=>address) sortedPriceQueryInfo;\r\n  \r\n// ======= Modifiers =======\r\n  \r\n  modifier ownerOnly {\r\n    if (msg.sender == owner) {\r\n      _;\r\n    } else {\r\n      revert();\r\n    }\r\n  }\r\n\r\n/*\r\n  modifier adminOnly {\r\n    if (msg.sender == Admin) {\r\n      _;\r\n    } else {\r\n      revert();\r\n    }\r\n  }*/\r\n\r\n  modifier connectedPVOnly (address adrP) {\r\n    if (connectedPV.AssertInside(adrP)) {\r\n      _;\r\n    } else {\r\n      revert();\r\n    }\r\n  }\r\n\r\n  modifier connectedBatteryOnly (address adrB) {\r\n    if (connectedBattery.AssertInside(adrB)) {\r\n      _;\r\n    } else {\r\n      revert();\r\n    }\r\n  }\r\n\r\n  modifier timed (uint allowedTimeOut) {\r\n    if(now < consumStatusAt + allowedTimeOut) {\r\n      _;\r\n    } else {\r\n      revert();\r\n    }\r\n  }\r\n\r\n// ======= Event Logs =======\r\n  event ConsumptionLog(address adr, uint consum, uint consumAt);\r\n  event ConfigurationLog(string confMod, uint statusAt);\r\n  event EnergyTransferLog(address adrFrom, address adrTo, uint eVol, uint transferAt);\r\n\r\n// ======= Basic Functionalities =======\r\n\r\n  // --- Upon contract creation and configuration ---\r\n\r\n  function SingleHouse (address adr) {\r\n    owner = adr;\r\n    Admin = msg.sender;\r\n  }\r\n  \r\n  /*function setGridAdr(address adr) adminOnly external {\r\n    grid = adr;\r\n  }*/\r\n  \r\n  function addConnectedPV(address adrP) adminOnly external {\r\n    connectedPV.push(adrP);\r\n    ConfigurationLog(\"PV linked to House\",now);\r\n  }\r\n\r\n  function addConnectedBattery(address adrB) adminOnly external {\r\n    connectedBattery.push(adrB);\r\n    ConfigurationLog(\"Battery linked to House\",now);\r\n  }\r\n\r\n  // --- Regular usage ---\r\n\r\n  function setConsumption(uint consum) ownerOnly {\r\n    consumption = consum;\r\n    consumStatusAt = now;\r\n    ConsumptionLog(owner, consumption, consumStatusAt);\r\n  }\r\n\r\n  function getConsumption()  external timed(consumTimeOut) returns (uint consum, uint consumAt) { //\r\n    consum = consumption;\r\n    consumAt = consumStatusAt;\r\n  }\r\n\r\n  // \r\n\r\n  function askForPrice() {\r\n    // House query price info to all the connected PV/Battery. \r\n    // If the house is connected to grid (most of the time), the price of Grid will be automatically added to the end of the sorted list.\r\n    uint tP = 0;\r\n    bool tF = false;\r\n    for (uint i = 0; i < connectedPV.length; i++) {\r\n      (tP,tF) = IPV(connectedPV[i]).getPrice();\r\n      priceQueryInfo[connectedPV[i]] = SortLib.PriceTF(tP,tF);\r\n    }\r\n    for (i = 0; i < connectedBattery.length; i++) {\r\n      (tP,tF) = IBattery(connectedBattery[i]).getSalePrice();\r\n      priceQueryInfo[connectedBattery[i]] = SortLib.PriceTF(tP,tF);\r\n    }\r\n    lastPriceQueryAt = now;\r\n  }\r\n\r\n  //------------------------------\r\n  // to Sort the received list of Price (from PV and Battery)\r\n  //------------------------------\r\n  \r\n\r\n  function sortPriceList() {\r\n    createPriceList();\r\n    uint maxTemp;\r\n    uint totalLength = connectedPV.length + connectedBattery.length;\r\n    for (uint i = 0; i < totalLength; i++) {\r\n      maxTemp = prepPriceQueryInfo.maxStruct();\r\n      swap(totalLength-1-i,maxTemp);\r\n      prepPriceQueryInfo.del(maxTemp);\r\n    }\r\n    // if the grid is connected -> add the price from the grid to the end of the sorted list \r\n    if (grid != 0x0) {\r\n      uint tP = 0;\r\n      bool tF = false;\r\n      (tP,tF) = IGrid(grid).getPrice();\r\n      priceQueryInfo[grid] = SortLib.PriceTF(tP,tF);\r\n      //setPriceQueryInfo(grid,tP,tF);\r\n      sortedPriceQueryInfo[totalLength] = grid;\r\n    }\r\n  }\r\n\r\n  function createPriceList() private {\r\n    prepPriceQueryInfo.length = connectedPV.length + connectedBattery.length;\r\n    //sortedPriceQueryInfo.length = prepPriceQueryInfo.length; => sortedPQI is using mapping now\r\n    for (uint i = 0; i < connectedPV.length; i++) {\r\n      prepPriceQueryInfo[i] = priceQueryInfo[connectedPV[i]];\r\n      sortedPriceQueryInfo[i] = connectedPV[i];\r\n    }\r\n    for (i = connectedPV.length; i < prepPriceQueryInfo.length; i++) {\r\n      prepPriceQueryInfo[i] = priceQueryInfo[connectedBattery[i-connectedPV.length]];\r\n      sortedPriceQueryInfo[i] = connectedBattery[i-connectedPV.length];\r\n    }\r\n  }\r\n\r\n  function swap (uint _id1, uint _id2) private {\r\n    if (_id1 != _id2) {\r\n      address temp;\r\n      temp = sortedPriceQueryInfo[_id1];\r\n      sortedPriceQueryInfo[_id1] = sortedPriceQueryInfo[_id2];\r\n      sortedPriceQueryInfo[_id2] = temp;   \r\n    }\r\n  }\r\n\r\n  //------------------------------\r\n  // Once sorted, actively send to all the connected devices.\r\n  //------------------------------\r\n\r\n  function getSortedPosition (address adr) returns (uint) { // should be private, here the \"private\" is temporarily removed due to testing\r\n    //require(adr != 0x0);      // Sometimes with this line, there will be error in the configuration.js test... sometimes not.... sometimes need to _migrate_ twice to eliminate the error.... Don't know why\r\n    for (uint i=0; i<connectedPV.length + connectedBattery.length+1; i++) {\r\n      if (adr == sortedPriceQueryInfo[i]) {\r\n        return (i+1);\r\n      }\r\n    }\r\n    return 0;\r\n  }\r\n\r\n  function getSortedInfo() external returns(uint consum, uint rank, uint tot, bool updated) {\r\n    return  getSortedHInfo(msg.sender);\r\n  }\r\n\r\n  function getSortedHInfo(address adr) returns(uint consum, uint rank, uint tot, bool updated) {  // should be private, here the \"private\" is temporarily removed due to testing\r\n    //address adr = msg.sender;\r\n    consum = consumption;\r\n    rank = getSortedPosition(adr);\r\n    if (grid != 0x0) {\r\n      tot = connectedPV.length + connectedBattery.length+1;\r\n    } else {\r\n      tot = connectedPV.length + connectedBattery.length;\r\n    }\r\n    if (lastPriceQueryAt + consumTimeOut < now) {\r\n      updated = false;    // The house may be inactive for a while, so the list stored is outdated.\r\n    } else {\r\n      updated = true;      \r\n    }\r\n  }\r\n\r\n  // ------------Functions used in transaction------------------\r\n  function goNoGo(uint giveoutvol) returns (uint) {\r\n    address adrDevice = msg.sender;\r\n    uint takeoutvol;\r\n    require(connectedBattery.AssertInside(adrDevice) || connectedPV.AssertInside(adrDevice));\r\n    takeoutvol = consumption.findMin(giveoutvol);\r\n    consumption = consumption.clearEnergyTransfer(takeoutvol, address(this));\r\n    //EnergyTransferLog(adrDevice,address(this), takeoutvol, consumption);\r\n    //wallet = wallet.clearMoneyTransfer(-int(takeoutvol*priceQueryInfo[adrDevice].prs), adrDevice);\r\n    wallet -= int(takeoutvol*priceQueryInfo[adrDevice].prs);\r\n    return (takeoutvol); \r\n  }\r\n\r\n  function buyExtra() {\r\n    // when houses still have extra needs...\r\n    uint whatDeviceAccept;\r\n    uint receivedMoney;\r\n    uint unitPrs;\r\n    require(grid != 0x0);\r\n    if (consumption > 0) {\r\n      (whatDeviceAccept, unitPrs) = IGrid(grid).goExtra(consumption);\r\n      consumption = consumption.clearEnergyTransfer(whatDeviceAccept, address(this));\r\n      receivedMoney = whatDeviceAccept*unitPrs;\r\n      wallet -= int(receivedMoney);\r\n    }\r\n  }\r\n\r\n\r\n  // ------------Functions used in testing------------------\r\n/*\r\n  function getSortedPriceList (uint _id) returns (address) {\r\n    return sortedPriceQueryInfo[_id];\r\n  }\r\n\r\n  function getAskedPrice(address adr) returns (uint,bool) {\r\n    return (priceQueryInfo[adr].prs,priceQueryInfo[adr].updated) ;\r\n  }\r\n\r\n  function askForPricePV(uint i) returns (uint,bool) {\r\n    return IPV(connectedPV[i]).getPrice();\r\n  }\r\n\r\n  function askForPriceB(uint i) returns (uint,bool) {\r\n    return IBattery(connectedBattery[i]).getSalePrice();\r\n  }\r\n\r\n  function getOwnerAdmin() returns (address, address){\r\n    return (owner,Admin);\r\n  }\r\n\r\n  function getConnectedPVCount() returns (uint){\r\n    return connectedPV.length;\r\n  }\r\n\r\n  function getconnectedBatteryCount() returns (uint){\r\n    return connectedBattery.length;\r\n  }\r\n\r\n  function getConnectPVAddress(uint a) returns (address) {\r\n    if (a<connectedPV.length) {\r\n      return connectedPV[a];\r\n    } else {\r\n      return 0x0;\r\n    }\r\n  }\r\n\r\n  function getconnectedBatteryAddress(uint a) returns (address) {\r\n    if (a<connectedBattery.length) {\r\n      return connectedBattery[a];\r\n    } else {\r\n      return 0x0;\r\n   \r\n    }\r\n  }\r\n  */\r\n\r\n  function getConnectPVAddress(uint a) returns (address) {\r\n      return connectedPV[a];\r\n  }\r\n}\r\n",
  "sourcePath": "C:\\Users\\qianc\\Documents\\Thesis\\Code\\SimpleMonitor\\contracts\\SingleHouse.sol",
  "compiler": {
    "name": "solc",
    "version": "0.4.18+commit.9cf6e910.Emscripten.clang"
  },
  "schemaVersion": "1.0.1",
  "updatedAt": "2017-11-25T14:26:09.053Z"
}