{
  "contractName": "SinglePV",
  "abi": [
    {
      "constant": false,
      "inputs": [],
      "name": "getTimerIndex",
      "outputs": [
        {
          "name": "",
          "type": "uint256"
        }
      ],
      "payable": false,
      "stateMutability": "nonpayable",
      "type": "function"
    },
    {
      "constant": false,
      "inputs": [
        {
          "name": "adr",
          "type": "address"
        }
      ],
      "name": "setTimerAdr",
      "outputs": [],
      "payable": false,
      "stateMutability": "nonpayable",
      "type": "function"
    },
    {
      "constant": false,
      "inputs": [],
      "name": "getWallet",
      "outputs": [
        {
          "name": "",
          "type": "int256"
        }
      ],
      "payable": false,
      "stateMutability": "nonpayable",
      "type": "function"
    },
    {
      "constant": false,
      "inputs": [],
      "name": "getTimerStatus",
      "outputs": [
        {
          "name": "",
          "type": "uint256"
        }
      ],
      "payable": false,
      "stateMutability": "nonpayable",
      "type": "function"
    },
    {
      "constant": false,
      "inputs": [],
      "name": "sellEnergy",
      "outputs": [],
      "payable": false,
      "stateMutability": "nonpayable",
      "type": "function"
    },
    {
      "constant": false,
      "inputs": [],
      "name": "askForRank",
      "outputs": [],
      "payable": false,
      "stateMutability": "nonpayable",
      "type": "function"
    },
    {
      "constant": false,
      "inputs": [],
      "name": "sortRank",
      "outputs": [],
      "payable": false,
      "stateMutability": "nonpayable",
      "type": "function"
    },
    {
      "constant": false,
      "inputs": [
        {
          "name": "_id",
          "type": "uint256"
        }
      ],
      "name": "initiateTransaction",
      "outputs": [
        {
          "name": "",
          "type": "uint256"
        },
        {
          "name": "",
          "type": "uint256"
        }
      ],
      "payable": false,
      "stateMutability": "nonpayable",
      "type": "function"
    },
    {
      "constant": false,
      "inputs": [
        {
          "name": "produc",
          "type": "uint256"
        }
      ],
      "name": "setProduction",
      "outputs": [],
      "payable": false,
      "stateMutability": "nonpayable",
      "type": "function"
    },
    {
      "constant": false,
      "inputs": [],
      "name": "sellExcess",
      "outputs": [],
      "payable": false,
      "stateMutability": "nonpayable",
      "type": "function"
    },
    {
      "constant": false,
      "inputs": [
        {
          "name": "_id",
          "type": "uint256"
        }
      ],
      "name": "getSortedRank",
      "outputs": [
        {
          "name": "adr",
          "type": "address"
        },
        {
          "name": "consum",
          "type": "uint256"
        },
        {
          "name": "rank",
          "type": "uint256"
        },
        {
          "name": "tot",
          "type": "uint256"
        }
      ],
      "payable": false,
      "stateMutability": "nonpayable",
      "type": "function"
    },
    {
      "constant": false,
      "inputs": [],
      "name": "getTimerAddress",
      "outputs": [
        {
          "name": "",
          "type": "address"
        }
      ],
      "payable": false,
      "stateMutability": "nonpayable",
      "type": "function"
    },
    {
      "constant": false,
      "inputs": [
        {
          "name": "adr",
          "type": "address"
        }
      ],
      "name": "setGridAdr",
      "outputs": [],
      "payable": false,
      "stateMutability": "nonpayable",
      "type": "function"
    },
    {
      "constant": true,
      "inputs": [],
      "name": "getProduction",
      "outputs": [
        {
          "name": "prod",
          "type": "uint256"
        },
        {
          "name": "prodAt",
          "type": "uint256"
        }
      ],
      "payable": false,
      "stateMutability": "view",
      "type": "function"
    },
    {
      "constant": false,
      "inputs": [
        {
          "name": "prs",
          "type": "uint256"
        }
      ],
      "name": "setPrice",
      "outputs": [],
      "payable": false,
      "stateMutability": "nonpayable",
      "type": "function"
    },
    {
      "constant": true,
      "inputs": [],
      "name": "getPrice",
      "outputs": [
        {
          "name": "prs",
          "type": "uint256"
        },
        {
          "name": "updatedOrNot",
          "type": "bool"
        }
      ],
      "payable": false,
      "stateMutability": "view",
      "type": "function"
    },
    {
      "constant": false,
      "inputs": [
        {
          "name": "a",
          "type": "uint256"
        },
        {
          "name": "adr",
          "type": "address"
        }
      ],
      "name": "addConnectedDevice",
      "outputs": [],
      "payable": false,
      "stateMutability": "nonpayable",
      "type": "function"
    },
    {
      "constant": true,
      "inputs": [],
      "name": "Admin",
      "outputs": [
        {
          "name": "",
          "type": "address"
        }
      ],
      "payable": false,
      "stateMutability": "view",
      "type": "function"
    },
    {
      "inputs": [
        {
          "name": "adr",
          "type": "address"
        }
      ],
      "payable": false,
      "stateMutability": "nonpayable",
      "type": "constructor"
    },
    {
      "anonymous": false,
      "inputs": [
        {
          "indexed": false,
          "name": "adr",
          "type": "address"
        },
        {
          "indexed": false,
          "name": "produc",
          "type": "uint256"
        },
        {
          "indexed": false,
          "name": "prodAt",
          "type": "uint256"
        }
      ],
      "name": "ProductionLog",
      "type": "event"
    },
    {
      "anonymous": false,
      "inputs": [
        {
          "indexed": false,
          "name": "updateAt",
          "type": "uint256"
        }
      ],
      "name": "PriceUpdate",
      "type": "event"
    }
  ],
  "bytecode": "0x606060405260038054600160a060020a031990811690915560048054909116905561012c6007819055600855341561003657600080fd5b6040516020806113978339810160405280805160018054600160a060020a03928316600160a060020a031991821617909155600080543390931692909116919091179055505061130c8061008b6000396000f3006060604052600436106100e25763ffffffff60e060020a600035041663074b7c8081146100e75780630830cfae1461010c578063132996041461012d578063235a4a4f146101405780632c2735dd146101535780633d7224dc146101665780633d859507146101795780633fd2007d1461018c578063567cc2b6146101ba57806367a2829d146101d05780636b608223146101e357806370ed8f24146102365780638d646b11146102655780638e4dfebb1461028457806391b7f5ed1461029757806398d5fdca146102ad578063bfd11903146102da578063ff1b636d146102fc575b600080fd5b34156100f257600080fd5b6100fa61030f565b60405190815260200160405180910390f35b341561011757600080fd5b61012b600160a060020a0360043516610379565b005b341561013857600080fd5b6100fa6103bc565b341561014b57600080fd5b6100fa6103c2565b341561015e57600080fd5b61012b61040c565b341561017157600080fd5b61012b6104e6565b341561018457600080fd5b61012b6108c3565b341561019757600080fd5b6101a260043561093d565b60405191825260208201526040908101905180910390f35b34156101c557600080fd5b61012b600435610cb1565b34156101db57600080fd5b61012b610d51565b34156101ee57600080fd5b6101f9600435611052565b6040518085600160a060020a0316600160a060020a0316815260200184815260200183815260200182815260200194505050505060405180910390f35b341561024157600080fd5b6102496110f1565b604051600160a060020a03909116815260200160405180910390f35b341561027057600080fd5b61012b600160a060020a0360043516611100565b341561028f57600080fd5b6101a2611144565b34156102a257600080fd5b61012b60043561114e565b34156102b857600080fd5b6102c06111b9565b604051918252151560208201526040908101905180910390f35b34156102e557600080fd5b61012b600435600160a060020a03602435166111de565b341561030757600080fd5b61024961124a565b600454600090600160a060020a031663bdef9d9282604051602001526040518163ffffffff1660e060020a028152600401602060405180830381600087803b151561035957600080fd5b6102c65a03f1151561036a57600080fd5b50505060405180519150505b90565b60005433600160a060020a03908116911614156100e2576004805473ffffffffffffffffffffffffffffffffffffffff1916600160a060020a0383161790555b50565b600c5490565b600454600090600160a060020a0316633b7104f282604051602001526040518163ffffffff1660e060020a028152600401602060405180830381600087803b151561035957600080fd5b600080600080600080600080600080600060046104276103c2565b8114156100e25760115460009c509a5060019950600e19420192505b89156104d8574260018401116104d35761045b61030f565b98508b91505b8a8210156104c3576104728c611052565b929a50909850965094508886141561049a5761048d8c61093d565b50506001909b019a6104b8565b888610156104ad576001909b019a6104b8565b8893504292506104c3565b600190910190610461565b8a8c106104d357600099506104d8565b610443565b505050505050505050505050565b600080600080600060036104f86103c2565b8114156100e25773__SortRLib______________________________63e6f37de9600f60405160e060020a63ffffffff8416028152600481019190915260240160006040518083038186803b151561054f57600080fd5b6102c65a03f4151561056057600080fd5b505050600091505b6000805260066020526000805160206112a18339815191525482101561070b576000805260066020526000805160206112a18339815191528054839081106105ac57fe5b6000918252602082200154600160a060020a031690631b45f0e090604051608001526040518163ffffffff1660e060020a028152600401608060405180830381600087803b15156105fc57600080fd5b6102c65a03f1151561060d57600080fd5b50505060405180519060200180519060200180519060200180519399509197509550909350508215610700576000805260066020526000805160206112a1833981519152805473__SortRLib______________________________9163ef61a13991600f91908690811061067d57fe5b600091825260209091200154600160a060020a031689898960405160e060020a63ffffffff88160281526004810195909552600160a060020a03909316602485015260448401919091526064830152608482015260a40160006040518083038186803b15156106eb57600080fd5b6102c65a03f415156106fc57600080fd5b5050505b600190910190610568565b600091505b600260005260066020526000805160206112c1833981519152548210156108b657600260005260066020526000805160206112c183398151915280548390811061075657fe5b6000918252602082200154600160a060020a031690631b45f0e090604051608001526040518163ffffffff1660e060020a028152600401608060405180830381600087803b15156107a657600080fd5b6102c65a03f115156107b757600080fd5b505050604051805190602001805190602001805190602001805193995091975095509093505082156108ab57600260005260066020526000805160206112c1833981519152805473__SortRLib______________________________9163ef61a13991600f91908690811061082857fe5b600091825260209091200154600160a060020a031689898960405160e060020a63ffffffff88160281526004810195909552600160a060020a03909316602485015260448401919091526064830152608482015260a40160006040518083038186803b151561089657600080fd5b6102c65a03f415156108a757600080fd5b5050505b600190910190610710565b42600b555b505050505050565b60036108cd6103c2565b8114156100e25773__SortRLib______________________________63534e1918600f60405160e060020a63ffffffff8416028152600481019190915260240160006040518083038186803b151561092457600080fd5b6102c65a03f4151561093557600080fd5b5050506103b9565b600080600080600080600080600060046109556103c2565b8114156100e2576109658b611052565b600d54939a509198509650945073__TransactLib___________________________9063bc2e368c908860006040516020015260405160e060020a63ffffffff85160281526004810192909252602482015260440160206040518083038186803b15156109d157600080fd5b6102c65a03f415156109e257600080fd5b505050604051805160026000908152600660205290995073__AdrLib________________________________9150632c2fc20e906000805160206112c1833981519152908a906040516020015260405160e060020a63ffffffff85160281526004810192909252600160a060020a0316602482015260440160206040518083038186803b1515610a7157600080fd5b6102c65a03f41515610a8257600080fd5b5050506040518051905015610bac5786600160a060020a0316630ff372828960006040516020015260405160e060020a63ffffffff84160281526004810191909152602401602060405180830381600087803b1515610ae057600080fd5b6102c65a03f11515610af157600080fd5b5050506040518051600d80548290039055600e54600c549195508502935073__TransactLib___________________________915063e2992d2990848a3060006040516020015260405160e060020a63ffffffff871602815260048101949094526024840192909252600160a060020a03908116604484015216606482015260840160206040518083038186803b1515610b8a57600080fd5b6102c65a03f41515610b9b57600080fd5b5050506040518051600c5550610ca1565b6000808052600660205273__AdrLib________________________________90632c2fc20e906000805160206112a1833981519152908a906040516020015260405160e060020a63ffffffff85160281526004810192909252600160a060020a0316602482015260440160206040518083038186803b1515610c2d57600080fd5b6102c65a03f41515610c3e57600080fd5b5050506040518051905015610c9c5786600160a060020a0316630ff372828960006040516020015260405160e060020a63ffffffff84160281526004810191909152602401602060405180830381600087803b1515610ae057600080fd5b600092505b5095999098509650505050505050565b6001610cbb6103c2565b8114156100e25760015433600160a060020a03908116911614156100e257600d82905542600a8190556001547fdf963fee409850630585bd095a505a9a956ef373cd706eb6eddec02d0a36731991600160a060020a039091169084906040518084600160a060020a0316600160a060020a03168152602001838152602001828152602001935050505060405180910390a15b5050565b60008060008060006005610d636103c2565b8114156100e2576000600d54111561104d57600260005260066020526000805160206112c18339815191525415610f1c57600091505b600260005260066020526000805160206112c183398151915254821015610f1757600260005260066020526000805160206112c1833981519152805483908110610ddf57fe5b6000918252602082200154600d54600160a060020a03909116945084916335f7f5e291906040516040015260405160e060020a63ffffffff841602815260048101919091526024016040805180830381600087803b1515610e3f57600080fd5b6102c65a03f11515610e5057600080fd5b5050506040518051906020018051600d80548490039055600c549298508881029750955073__TransactLib___________________________9163e2992d29915087863060006040516020015260405160e060020a63ffffffff871602815260048101949094526024840192909252600160a060020a03908116604484015216606482015260840160206040518083038186803b1515610eef57600080fd5b6102c65a03f41515610f0057600080fd5b5050506040518051600c5550600190910190610d99565b61104d565b600354600d54600160a060020a03909116906335f7f5e29060006040516040015260405160e060020a63ffffffff841602815260048101919091526024016040805180830381600087803b1515610f7257600080fd5b6102c65a03f11515610f8357600080fd5b5050506040518051906020018051600d80548490039055600c54600354939950898202985090965073__TransactLib___________________________9263e2992d2992508890600160a060020a03163060006040516020015260405160e060020a63ffffffff871602815260048101949094526024840192909252600160a060020a03908116604484015216606482015260840160206040518083038186803b151561102f57600080fd5b6102c65a03f4151561104057600080fd5b5050506040518051600c55505b6108bb565b600080808073__SortRLib______________________________6391871092600f87846040516080015260405160e060020a63ffffffff85160281526004810192909252602482015260440160806040518083038186803b15156110b557600080fd5b6102c65a03f415156110c657600080fd5b5050506040518051906020018051906020018051906020018051905093509350935093509193509193565b600454600160a060020a031690565b60005433600160a060020a03908116911614156100e2576003805473ffffffffffffffffffffffffffffffffffffffff1916600160a060020a0383161790556103b9565b600d54600a549091565b60016111586103c2565b8114156100e25760015433600160a060020a03908116911614156100e257600e8290554260098190557fae46785019700e30375a5d7b4f91e32f8060ef085111f896ebf889450aa2ab5a9060405190815260200160405180910390a1610d4d565b600e5460085460095460009142910110156111d6575060006111da565b5060015b9091565b60005433600160a060020a03908116911614156100e25760008281526006602052604090208054600181016112138382611259565b506000918252602090912001805473ffffffffffffffffffffffffffffffffffffffff1916600160a060020a038316179055610d4d565b600054600160a060020a031681565b81548183558181151161127d5760008381526020902061127d918101908301611282565b505050565b61037691905b8082111561129c5760008155600101611288565b5090560054cdd369e4e8a8515e52ca72ec816c2101831ad1f18bf44102ed171459c9b4f88819ef417987f8ae7a81f42cdfb18815282fe989326fbff903d13cf0e03ace29a165627a7a723058206f70b6dfe9f105b9b244e9d51c956f6ebd6458a429cb213ec282346c3bcbad850029",
  "source": "pragma solidity ^0.4.4;\r\n\r\nimport \"./IPV.sol\";\r\nimport \"./IHouse.sol\";\r\nimport \"./IBattery.sol\";\r\nimport \"./IGrid.sol\";\r\nimport \"./SortRLib.sol\";\r\nimport \"./AdrLib.sol\";\r\nimport \"./TransactLib.sol\";\r\nimport \"./GeneralDevice.sol\";\r\n\r\ncontract SinglePV is GeneralDevice, IPV {\r\n  \r\n  using AdrLib for address[];\r\n  using TransactLib for *;\r\n  using SortRLib for *;\r\n\r\n  // one contract is associated to one particular PV panel in the network.\r\n  // later we need to modify the parent contract that creates each PV contract - configuration.sol\r\n\r\n  uint    production;               // Production of electricity (supply: negative)\r\n  uint    price;\r\n\r\n  SortRLib.RankMap draftRankMap;\r\n\r\n// ======= Modifiers =======\r\n\r\n// ======= Event Logs =======\r\n\r\n  event ProductionLog(address adr, uint produc, uint prodAt);\r\n  //event ConfigurationLog(string confMod, uint statusAt);\r\n  event PriceUpdate(uint updateAt);\r\n  \r\n// ======= Basic Functionalities =======\r\n\r\n  // --- 0. Upon contract creation and configuration ---\r\n\r\n  function SinglePV(address adr) GeneralDevice(adr) { }\r\n\r\n  // --- 1. set and get PV price & production every 15 min (or less) ---\r\n\r\n  function setProduction(uint produc) public timed(1) ownerOnly {\r\n    production = produc;\r\n    prodStatusAt = now;\r\n    ProductionLog(owner, production, prodStatusAt);\r\n  }\r\n\r\n  function setPrice(uint prs) public timed(1) ownerOnly {\r\n    price = prs;\r\n    priceStatusAt = now;\r\n    PriceUpdate(now);\r\n  }\r\n\r\n  function getProduction() external view returns (uint prod, uint prodAt) {//timed(queryTime,prodTimeOut)\r\n    prod = production;\r\n    prodAt = prodStatusAt;\r\n  }\r\n\r\n  function getPrice() public view returns (uint prs, bool updatedOrNot) { //connectedHouseOnly external\r\n    prs = price;\r\n    //prsAt = priceStatusAt;\r\n    if (priceStatusAt + priceTimeOut < now) {\r\n      updatedOrNot = false;\r\n    } else {\r\n      updatedOrNot = true;\r\n    }\r\n    //adr = owner;\r\n  }\r\n\r\n  // --- 3. PV can provide energy to houses. --- \r\n  // ---    Sort the list of ranks. --- \r\n\r\n  function askForRank() timed(3) {\r\n    uint consum;\r\n    uint rank;\r\n    uint tot;\r\n    bool updated;\r\n    draftRankMap.initRnkTable();\r\n    for (uint i = 0; i < connectedDevice[0].length; i++) {\r\n      (consum, rank, tot, updated) = IHouse(connectedDevice[0][i]).getSortedPrice();\r\n      if (updated) {\r\n        draftRankMap.addToRnkTable(connectedDevice[0][i],consum, rank, tot);\r\n      }\r\n    }\r\n    for (i = 0; i < connectedDevice[2].length; i++) {\r\n      (consum,rank,tot,updated) = IBattery(connectedDevice[2][i]).getSortedPrice();\r\n      if (updated) {\r\n        draftRankMap.addToRnkTable(connectedDevice[2][i],consum, rank, tot);\r\n      }\r\n    }\r\n    lastRankingAt = now;\r\n  }\r\n\r\n  function sortRank() timed(3) {\r\n    draftRankMap.sortRnkTable();\r\n    /*\r\n    // In case there is still excess, need to ask connectedBattery to buy for the extra...as much as possible\r\n    if (connectedBattery.length != 0) {\r\n      for (i=0; i<connectedBattery.length; i++) {\r\n        uint prs = 0;\r\n        uint cap = 0;\r\n        (prs, cap) = IBattery(grid).getExcess();\r\n      \r\n      }\r\n    }\r\n    // if the grid is connected -> add the price from the grid to the end of the sorted list \r\n    if (grid != 0x0) {\r\n      uint tP = 0;\r\n      bool tF = false;\r\n      (tP,tF) = IGrid(grid).getPrice();\r\n      setPriceQueryInfo(grid,tP,tF);\r\n      sortedPriceQueryInfo[num] = grid;\r\n    }*/\r\n  }\r\n\r\n  function getSortedRank(uint _id) returns(address adr, uint consum, uint rank, uint tot) {\r\n    return draftRankMap.getSortedList(_id);\r\n  }\r\n \r\n  // --- 4. Initiate e transaction --- \r\n\r\n  function sellEnergy() timed(4) {\r\n    uint counter = 0;\r\n    uint tL = draftRankMap.totalLength;\r\n    bool waiting = true;\r\n    uint i;\r\n\r\n    address adr;\r\n    uint consum;\r\n    uint rank;\r\n    uint tot;\r\n\r\n    uint lastIndex;\r\n    uint lastITime = now - 15 seconds;\r\n\r\n    while (waiting) {\r\n      if (lastITime + 1 seconds <= now) {\r\n      i = getTimerIndex();\r\n      for (uint j = counter; j < tL; j++) {\r\n        (adr,consum,rank,tot) = getSortedRank(counter);\r\n        if (rank == i) {\r\n          // time to make transaction\r\n          initiateTransaction(counter);\r\n          counter++;\r\n        } else if (rank < i) {\r\n          // the transaction of this ranking has been done globally. No more transaction should be made for this ranking.\r\n          counter++;\r\n        } else {\r\n          // when rank > i, need to wait\r\n          lastIndex = i;  // note down the index that has been requested last time. \r\n          lastITime = now;  // The next query should be ideally in 15s...\r\n          break;\r\n        }\r\n      }\r\n      if (counter >= tL) {\r\n        waiting = false;\r\n        break;\r\n      }\r\n      \r\n      }\r\n    }\r\n  }\r\n  \r\n  function initiateTransaction(uint _id) timed(4) returns (uint, uint) {\r\n    uint giveoutVol;\r\n    address adr;\r\n    uint consum;\r\n    uint rank;\r\n    uint tot;\r\n    uint whatDeviceAccept;\r\n    uint receivedMoney;\r\n      //adr = sortedRankingInfo[_id];\r\n      (adr,consum,rank,tot) = getSortedRank(_id);\r\n      giveoutVol = production.findMin(consum);\r\n      if (connectedDevice[2].assertInside(adr)) {\r\n        whatDeviceAccept = IBattery(adr).goNoGo(giveoutVol);\r\n        production -= whatDeviceAccept;\r\n        receivedMoney = whatDeviceAccept*price;\r\n        wallet = wallet.clearMoneyTransfer(receivedMoney,adr, address(this));\r\n      } else if (connectedDevice[0].assertInside(adr)) {\r\n        whatDeviceAccept = IHouse(adr).goNoGo(giveoutVol);\r\n        production -= whatDeviceAccept;\r\n        receivedMoney = whatDeviceAccept*price;\r\n        wallet = wallet.clearMoneyTransfer(receivedMoney,adr, address(this));\r\n      } else {\r\n        whatDeviceAccept = 0; \r\n      }\r\n      return(giveoutVol, whatDeviceAccept);\r\n  }\r\n\r\n  // --- 5. Deal with excess energy --- \r\n\r\n  function sellExcess() timed(5) {\r\n    // after all, if there's still excess and the connected Battery still have the capacity.\r\n    uint whatDeviceAccept;\r\n    uint receivedMoney;\r\n    uint unitPrs;\r\n    address adr;\r\n    if (production > 0) {\r\n      //ToBattery\r\n      if (connectedDevice[2].length != 0) {\r\n        for (uint i = 0; i < connectedDevice[2].length; i++) {\r\n          adr = connectedDevice[2][i];\r\n          (whatDeviceAccept, unitPrs) = IBattery(adr).goExcess(production);\r\n          production -= whatDeviceAccept;\r\n          receivedMoney = whatDeviceAccept*unitPrs;\r\n          wallet = wallet.clearMoneyTransfer(receivedMoney,adr, address(this));\r\n        }\r\n      } else {\r\n        //ToGrid (by default, it's connected to grid)\r\n        (whatDeviceAccept, unitPrs) = IGrid(grid).goExcess(production);\r\n        production -= whatDeviceAccept;\r\n        receivedMoney = whatDeviceAccept*unitPrs;\r\n        wallet = wallet.clearMoneyTransfer(receivedMoney,grid, address(this));\r\n      }\r\n    }\r\n  }\r\n\r\n\r\n}\r\n",
  "sourcePath": "C:\\Users\\qianc\\Documents\\Thesis\\Code\\SimpleMonitor\\contracts\\SinglePV.sol",
  "compiler": {
    "name": "solc",
    "version": "0.4.18+commit.9cf6e910.Emscripten.clang"
  },
  "schemaVersion": "1.0.1",
  "updatedAt": "2017-12-05T23:13:02.659Z"
}