{
  "contractName": "SingleBattery",
  "abi": [
    {
      "constant": true,
      "inputs": [],
      "name": "name",
      "outputs": [
        {
          "name": "",
          "type": "bytes32"
        }
      ],
      "payable": false,
      "stateMutability": "view",
      "type": "function"
    },
    {
      "constant": false,
      "inputs": [
        {
          "name": "adrH",
          "type": "address"
        }
      ],
      "name": "addConnectedHouse",
      "outputs": [],
      "payable": false,
      "stateMutability": "nonpayable",
      "type": "function"
    },
    {
      "constant": false,
      "inputs": [],
      "name": "getVolumeCapacity",
      "outputs": [
        {
          "name": "vol",
          "type": "uint256"
        },
        {
          "name": "volAt",
          "type": "uint256"
        },
        {
          "name": "cap",
          "type": "uint256"
        }
      ],
      "payable": false,
      "stateMutability": "nonpayable",
      "type": "function"
    },
    {
      "constant": false,
      "inputs": [
        {
          "name": "giveoutvol",
          "type": "uint256"
        }
      ],
      "name": "goNoGo",
      "outputs": [
        {
          "name": "",
          "type": "uint256"
        }
      ],
      "payable": false,
      "stateMutability": "nonpayable",
      "type": "function"
    },
    {
      "constant": false,
      "inputs": [],
      "name": "getSalePrice",
      "outputs": [
        {
          "name": "prs",
          "type": "uint256"
        },
        {
          "name": "updatedOrNot",
          "type": "bool"
        }
      ],
      "payable": false,
      "stateMutability": "nonpayable",
      "type": "function"
    },
    {
      "constant": false,
      "inputs": [
        {
          "name": "vol",
          "type": "uint256"
        }
      ],
      "name": "goExcess",
      "outputs": [
        {
          "name": "takeVol",
          "type": "uint256"
        },
        {
          "name": "prs",
          "type": "uint256"
        }
      ],
      "payable": false,
      "stateMutability": "nonpayable",
      "type": "function"
    },
    {
      "constant": false,
      "inputs": [],
      "name": "askForRank",
      "outputs": [],
      "payable": false,
      "stateMutability": "nonpayable",
      "type": "function"
    },
    {
      "constant": false,
      "inputs": [
        {
          "name": "_id",
          "type": "uint256"
        }
      ],
      "name": "initiateTransaction",
      "outputs": [
        {
          "name": "",
          "type": "uint256"
        },
        {
          "name": "",
          "type": "uint256"
        }
      ],
      "payable": false,
      "stateMutability": "nonpayable",
      "type": "function"
    },
    {
      "constant": false,
      "inputs": [
        {
          "name": "adrP",
          "type": "address"
        }
      ],
      "name": "addConnectedPV",
      "outputs": [],
      "payable": false,
      "stateMutability": "nonpayable",
      "type": "function"
    },
    {
      "constant": false,
      "inputs": [
        {
          "name": "vol",
          "type": "uint256"
        }
      ],
      "name": "setVolume",
      "outputs": [],
      "payable": false,
      "stateMutability": "nonpayable",
      "type": "function"
    },
    {
      "constant": false,
      "inputs": [
        {
          "name": "v",
          "type": "uint256"
        }
      ],
      "name": "setBuyVolume",
      "outputs": [],
      "payable": false,
      "stateMutability": "nonpayable",
      "type": "function"
    },
    {
      "constant": false,
      "inputs": [],
      "name": "getBuyVol",
      "outputs": [
        {
          "name": "",
          "type": "uint256"
        }
      ],
      "payable": false,
      "stateMutability": "nonpayable",
      "type": "function"
    },
    {
      "constant": false,
      "inputs": [],
      "name": "sort",
      "outputs": [],
      "payable": false,
      "stateMutability": "nonpayable",
      "type": "function"
    },
    {
      "constant": false,
      "inputs": [
        {
          "name": "adr",
          "type": "address"
        }
      ],
      "name": "setGridAdr",
      "outputs": [],
      "payable": false,
      "stateMutability": "nonpayable",
      "type": "function"
    },
    {
      "constant": true,
      "inputs": [],
      "name": "owner",
      "outputs": [
        {
          "name": "",
          "type": "address"
        }
      ],
      "payable": false,
      "stateMutability": "view",
      "type": "function"
    },
    {
      "constant": false,
      "inputs": [
        {
          "name": "adr",
          "type": "address"
        }
      ],
      "name": "getSortedPosition",
      "outputs": [
        {
          "name": "",
          "type": "uint256"
        }
      ],
      "payable": false,
      "stateMutability": "nonpayable",
      "type": "function"
    },
    {
      "constant": false,
      "inputs": [],
      "name": "askForPrice",
      "outputs": [],
      "payable": false,
      "stateMutability": "nonpayable",
      "type": "function"
    },
    {
      "constant": false,
      "inputs": [],
      "name": "getSortedPVInfo",
      "outputs": [
        {
          "name": "consum",
          "type": "uint256"
        },
        {
          "name": "rank",
          "type": "uint256"
        },
        {
          "name": "tot",
          "type": "uint256"
        },
        {
          "name": "updated",
          "type": "bool"
        }
      ],
      "payable": false,
      "stateMutability": "nonpayable",
      "type": "function"
    },
    {
      "constant": false,
      "inputs": [
        {
          "name": "_id",
          "type": "uint256"
        }
      ],
      "name": "getSortedInfo",
      "outputs": [
        {
          "name": "adr",
          "type": "address"
        },
        {
          "name": "consum",
          "type": "uint256"
        },
        {
          "name": "rank",
          "type": "uint256"
        },
        {
          "name": "tot",
          "type": "uint256"
        }
      ],
      "payable": false,
      "stateMutability": "nonpayable",
      "type": "function"
    },
    {
      "constant": false,
      "inputs": [
        {
          "name": "prsSale",
          "type": "uint256"
        },
        {
          "name": "prsBuy",
          "type": "uint256"
        }
      ],
      "name": "setPrice",
      "outputs": [],
      "payable": false,
      "stateMutability": "nonpayable",
      "type": "function"
    },
    {
      "constant": false,
      "inputs": [],
      "name": "sortRankList",
      "outputs": [],
      "payable": false,
      "stateMutability": "nonpayable",
      "type": "function"
    },
    {
      "constant": true,
      "inputs": [],
      "name": "Admin",
      "outputs": [
        {
          "name": "",
          "type": "address"
        }
      ],
      "payable": false,
      "stateMutability": "view",
      "type": "function"
    },
    {
      "inputs": [
        {
          "name": "adr",
          "type": "address"
        },
        {
          "name": "cap",
          "type": "uint256"
        }
      ],
      "payable": false,
      "stateMutability": "nonpayable",
      "type": "constructor"
    },
    {
      "anonymous": false,
      "inputs": [
        {
          "indexed": false,
          "name": "adr",
          "type": "address"
        },
        {
          "indexed": false,
          "name": "vol",
          "type": "uint256"
        },
        {
          "indexed": false,
          "name": "volAt",
          "type": "uint256"
        }
      ],
      "name": "VolLog",
      "type": "event"
    },
    {
      "anonymous": false,
      "inputs": [
        {
          "indexed": false,
          "name": "confMod",
          "type": "string"
        },
        {
          "indexed": false,
          "name": "statusAt",
          "type": "uint256"
        }
      ],
      "name": "ConfigurationLog",
      "type": "event"
    },
    {
      "anonymous": false,
      "inputs": [
        {
          "indexed": false,
          "name": "updateAt",
          "type": "uint256"
        }
      ],
      "name": "PriceUpdate",
      "type": "event"
    }
  ],
  "bytecode": "0x606060405260048054600160a060020a031916905561012c600a819055600d55341561002a57600080fd5b604051604080611772833981016040528080519190602001805160058054600160a060020a03958616600160a060020a0319918216179091556000805433909616959091169490941790935550506007556116e88061008a6000396000f30060606040526004361061010e5763ffffffff60e060020a60003504166306fdde0381146101135780630a71db5e146101385780630e00c316146101595780630ff37282146101905780632fbc0bf1146101a657806335f7f5e2146101d35780633d7224dc146102015780633fd2007d1461021457806341977cf51461022a5780634559dcdc146102495780636a95841b1461025f57806379c19df0146102755780638cdc86a6146102885780638d646b111461029b5780638da5cb5b146102ba578063b148f82b146102e9578063c974602914610308578063cf7fc7621461031b578063d5adad541461035a578063f7d97577146103ad578063fba30167146103c6578063ff1b636d146103d9575b600080fd5b341561011e57600080fd5b6101266103ec565b60405190815260200160405180910390f35b341561014357600080fd5b610157600160a060020a03600435166103f2565b005b341561016457600080fd5b61016c6104ae565b60405180848152602001838152602001828152602001935050505060405180910390f35b341561019b57600080fd5b6101266004356104be565b34156101b157600080fd5b6101b96106af565b604051918252151560208201526040908101905180910390f35b34156101de57600080fd5b6101e96004356106d4565b60405191825260208201526040908101905180910390f35b341561020c57600080fd5b610157610802565b341561021f57600080fd5b6101e9600435610a15565b341561023557600080fd5b610157600160a060020a0360043516610c7b565b341561025457600080fd5b610157600435610d38565b341561026a57600080fd5b610157600435610dc7565b341561028057600080fd5b610126610dfb565b341561029357600080fd5b610157610e02565b34156102a657600080fd5b610157600160a060020a0360043516610f3b565b34156102c557600080fd5b6102cd610f72565b604051600160a060020a03909116815260200160405180910390f35b34156102f457600080fd5b610126600160a060020a0360043516610f81565b341561031357600080fd5b610157610ff7565b341561032657600080fd5b61032e6111d9565b604051938452602084019290925260408084019190915290151560608301526080909101905180910390f35b341561036557600080fd5b610370600435611234565b6040518085600160a060020a0316600160a060020a0316815260200184815260200183815260200182815260200194505050505060405180910390f35b34156103b857600080fd5b61015760043560243561126e565b34156103d157600080fd5b6101576112cd565b34156103e457600080fd5b6102cd6113cf565b60065481565b60005433600160a060020a039081169116141561010e57601080546001810161041b83826115d5565b5060009182526020909120018054600160a060020a031916600160a060020a0383161790557f34ff05936c7ffe85555df53a7bf1374ed025703c493a74c4ce3316646f950e1642604051602081019190915260408082526017818301527f486f757365206c696e6b656420746f204261747465727900000000000000000060608301526080909101905180910390a15b50565b600854600b546007549192909190565b6000338173__AdrLib________________________________6354859436601184846040516020015260405160e060020a63ffffffff85160281526004810192909252600160a060020a0316602482015260440160206040518083038186803b151561052957600080fd5b6102c65a03f4151561053a57600080fd5b505050604051805190508061055c5750600454600160a060020a038381169116145b151561056757600080fd5b60095473__TransactLib___________________________63bc2e368c90918660006040516020015260405160e060020a63ffffffff85160281526004810192909252602482015260440160206040518083038186803b15156105c957600080fd5b6102c65a03f415156105da57600080fd5b5050506040518051600880548201905560095490925073__TransactLib___________________________9150639e5fd0a990833060006040516020015260405160e060020a63ffffffff861602815260048101939093526024830191909152600160a060020a0316604482015260640160206040518083038186803b151561066257600080fd5b6102c65a03f4151561067357600080fd5b505050604051805160095550600160a060020a0382166000908152601460205260409020546003805491830290910390559150815b5050919050565b600e54600d54600c5460009142910110156106cc575060006106d0565b5060015b9091565b600080600f5490508273__TransactLib___________________________63bc2e368c90916008546007540360006040516020015260405160e060020a63ffffffff85160281526004810192909252602482015260440160206040518083038186803b151561074257600080fd5b6102c65a03f4151561075357600080fd5b50505060405180519050915060085473__TransactLib___________________________63994459079091843060006040516020015260405160e060020a63ffffffff861602815260048101939093526024830191909152600160a060020a0316604482015260640160206040518083038186803b15156107d357600080fd5b6102c65a03f415156107e457600080fd5b50505060405180516008555060038054838302900390559092909150565b60008060008060008060108054905060168161081e91906115f9565b50600090505b6010548110156109fa57601080548290811061083c57fe5b6000918252602082200154600160a060020a0316906338a3528c90604051608001526040518163ffffffff1660e060020a028152600401608060405180830381600087803b151561088c57600080fd5b6102c65a03f1151561089d57600080fd5b505050604051805190602001805190602001805190602001805193995091975095509093505082156109f25760606040519081016040528087815260200186815260200185815250601960006010848154811015156108f857fe5b6000918252602080832090910154600160a060020a0316835282019290925260400190208151815560208201518160010155604082015181600201559050506019600060108381548110151561094a57fe5b6000918252602080832090910154600160a060020a031683528201929092526040019020601680548490811061097c57fe5b6000918252602090912082546003909202019081556001808301549082015560029182015491015560108054829081106109b257fe5b6000918252602080832090910154848352601a90915260409091208054600160a060020a031916600160a060020a03909216919091179055600191909101905b600101610824565b81610a066016826115f9565b50506018555050426017555050565b6000818152601a6020908152604080832054600854600160a060020a039091168085526019909352818420548493849390928492839273__TransactLib___________________________9263bc2e368c9290918590516020015260405160e060020a63ffffffff85160281526004810192909252602482015260440160206040518083038186803b1515610aa957600080fd5b6102c65a03f41515610aba57600080fd5b5050506040518051945073__AdrLib________________________________9050635485943660108560006040516020015260405160e060020a63ffffffff85160281526004810192909252600160a060020a0316602482015260440160206040518083038186803b1515610b2e57600080fd5b6102c65a03f41515610b3f57600080fd5b5050506040518051905015610c695782600160a060020a0316630ff372828560006040516020015260405160e060020a63ffffffff84160281526004810191909152602401602060405180830381600087803b1515610b9d57600080fd5b6102c65a03f11515610bae57600080fd5b5050506040518051600880548290039055600e546003549194508402925073__TransactLib___________________________915063e2992d299083863060006040516020015260405160e060020a63ffffffff871602815260048101949094526024840192909252600160a060020a03908116604484015216606482015260840160206040518083038186803b1515610c4757600080fd5b6102c65a03f41515610c5857600080fd5b505050604051805160035550610c6e565b600091505b5091959194509092505050565b60005433600160a060020a039081169116141561010e576011805460018101610ca483826115d5565b5060009182526020909120018054600160a060020a031916600160a060020a0383161790557f34ff05936c7ffe85555df53a7bf1374ed025703c493a74c4ce3316646f950e1642604051602081019190915260408082526014818301527f5056206c696e6b656420746f204261747465727900000000000000000000000060608301526080909101905180910390a16104ab565b60055433600160a060020a039081169116141561010e57600881905542600b8190556005547fa8533a3e28bf00cd05018ed80847d3d6f170da084f6417da50798db7335ff9a091600160a060020a039091169083906040518084600160a060020a0316600160a060020a03168152602001838152602001828152602001935050505060405180910390a16104ab565b60055433600160a060020a039081169116141561010e5760075460085482011115610df157600080fd5b60098190556104ab565b6009545b90565b6000806000610e0f6113de565b600454600160a060020a031615610e2d576011546001019150610e33565b60115491505b5060005b81811015610f365773__SortLib_______________________________63f27da568601260006040516020015260405160e060020a63ffffffff8416028152600481019190915260240160206040518083038186803b1515610e9857600080fd5b6102c65a03f41515610ea957600080fd5b505050604051805190509250610ec481600184030384611588565b73__SortLib_______________________________6343168c1b60128560405160e060020a63ffffffff85160281526004810192909252602482015260440160006040518083038186803b1515610f1a57600080fd5b6102c65a03f41515610f2b57600080fd5b505050600101610e37565b505050565b60005433600160a060020a039081169116141561010e5760048054600160a060020a031916600160a060020a0383161790556104ab565b600554600160a060020a031681565b60045460009081908190600160a060020a031615610fa6576011546001019150610fac565b60115491505b5060005b81811015610fed57600081815260156020526040902054600160a060020a0385811691161415610fe5578060010192506106a8565b600101610fb0565b5060009392505050565b600080805b6011548110156110ff57601180548290811061101457fe5b6000918252602082200154600160a060020a0316906398d5fdca90604051604001526040518163ffffffff1660e060020a0281526004016040805180830381600087803b151561106357600080fd5b6102c65a03f1151561107457600080fd5b5050506040518051906020018051919450909250604090508051908101604052838152821515602082015260118054601491600091859081106110b357fe5b6000918252602080832090910154600160a060020a0316835282019290925260400190208151815560208201516001918201805460ff1916911515919091179055919091019050610ffc565b600454600160a060020a0316156111d057600454600160a060020a03166398d5fdca6000604051604001526040518163ffffffff1660e060020a0281526004016040805180830381600087803b151561115757600080fd5b6102c65a03f1151561116857600080fd5b50505060405180519060200180519194509092506040905080519081016040908152848252831515602080840191909152600454600160a060020a03166000908152601490915220815181556020820151600191909101805460ff1916911515919091179055505b50504260135550565b60095460008080336111ea81610f81565b600454909450600160a060020a03161561120b576011546001019250611211565b60115492505b42600d54601354011015611228576000915061122d565b600191505b5090919293565b6000908152601a6020908152604080832054600160a060020a03168084526019909252909120805460018201546002909201549293909290565b60055433600160a060020a039081169116141561010e57600e829055600f81905542600c8190557fae46785019700e30375a5d7b4f91e32f8060ef085111f896ebf889450aa2ab5a9060405190815260200160405180910390a15b5050565b6000805b6018548110156112c95773__SortRLib______________________________63f37de025601660006040516020015260405160e060020a63ffffffff8416028152600481019190915260240160206040518083038186803b151561133457600080fd5b6102c65a03f4151561134557600080fd5b50505060405180519050915061135d81838301611588565b73__SortRLib______________________________63b576277060168460405160e060020a63ffffffff85160281526004810192909252602482015260440160006040518083038186803b15156113b357600080fd5b6102c65a03f415156113c457600080fd5b5050506001016112d1565b600054600160a060020a031681565b600454600090600160a060020a03161561140957601154600101611403601282611625565b50611419565b601154611417601282611625565b505b5060005b6011548110156114ea576014600060118381548110151561143a57fe5b6000918252602080832090910154600160a060020a031683528201929092526040019020601280548390811061146c57fe5b6000918252602090912082546002909202019081556001918201549101805460ff191660ff909216151591909117905560118054829081106114aa57fe5b6000918252602080832090910154838352601590915260409091208054600160a060020a031916600160a060020a0390921691909117905560010161141d565b506011545b6012548110156104ab57600454600160a060020a03166000908152601460205260409020601280548390811061152157fe5b600091825260208083208454600290930201918255600193840154918401805460ff909316151560ff1990931692909217909155600454848352601590915260409091208054600160a060020a031916600160a060020a03909216919091179055016114ef565b6000828214610f365750600091825260156020526040808320805492845292208054600160a060020a03908116600160a060020a0319808516919091179094558154921691909216179055565b815481835581811511610f3657600083815260209020610f36918101908301611651565b815481835581811511610f3657600302816003028360005260206000209182019101610f36919061166f565b815481835581811511610f3657600202816002028360005260206000209182019101610f369190611696565b610dff91905b8082111561166b5760008155600101611657565b5090565b610dff91905b8082111561166b576000808255600182018190556002820155600301611675565b610dff91905b8082111561166b576000815560018101805460ff1916905560020161169c5600a165627a7a7230582091866d28bb3de0346a872e7e00dcfd22d6429248d147698588bbae844f5683a30029",
  "source": "pragma solidity ^0.4.4;\n\nimport \"./IBattery.sol\";\nimport \"./IPV.sol\";\nimport \"./IGrid.sol\";\nimport \"./IHouse.sol\";\nimport \"./GeneralDevice.sol\";\n\nimport \"./SortRLib.sol\";\nimport \"./SortLib.sol\"; \nimport \"./AdrLib.sol\"; \nimport \"./TransactLib.sol\";\n\n\n//For simplicity, we do not use the sorting functions here, as in our configuration, there is only one battery and there's only one PV connected.  \n\ncontract SingleBattery is GeneralDevice, IBattery {\n  \n  using AdrLib for address[];\n  using TransactLib for *;\n\n  \n  address public owner;\n  bytes32 public name;              // name of the device (Serie No.)\n  uint    capacity;                 // Cap of the device\n  uint    currentVolume;            // Production of electricity\n  uint    buyVolume;                // Amount of electricity that this battery would like to buy. Will first participate in the supply competition \n                                    //and will be finally (anyway) fulfilled b either the network or from the grid...\n  uint    volTimeOut = 5 minutes;\n  uint    volStatusAt;              // timestamp of the update\n  \n  uint    priceStatusAt;            // timestamp of the update (price)\n  uint    priceTimeOut = 5 minutes;\n  uint    priceForSale;\n  uint    priceForBuy;              // lower than market price (ForExcessEnergy)\n  \n  address[] connectedHouse; // List of households connected\n  address[] connectedPV;// List of PV connected\n  \n  /*struct PriceTF {\n    uint  prs;\n    bool  updated;\n  }*/\n\n  using SortLib for SortLib.PriceTF[];\n  SortLib.PriceTF[] prepPriceQueryInfo;\n  uint    lastPriceQueryAt;\n\n  mapping(address=>SortLib.PriceTF) priceQueryInfo;\n  mapping(uint=>address) sortedPriceQueryInfo;\n\n  using SortRLib for SortRLib.Request[];\n  SortRLib.Request[] prepRankingInfo;\n\n\n  uint    lastRankingAt;\n  uint    rLength;\n  mapping(address=>SortRLib.Request) RankingInfo;\n  mapping(uint=>address) sortedRankingInfo;\n\n  function askForPrice() {\n    // House query price info to all the connected PV/Battery. \n    // If the house is connected to grid (most of the time), the price of Grid also participates in the sorting (it's not less favored anymore)\n    uint tP = 0;\n    bool tF = false;\n    for (uint i = 0; i < connectedPV.length; i++) {\n      (tP,tF) = IPV(connectedPV[i]).getPrice();\n      priceQueryInfo[connectedPV[i]] = SortLib.PriceTF(tP,tF);\n    }\n    if (grid != 0x0) {\n      (tP,tF) = IGrid(grid).getPrice();\n      priceQueryInfo[grid] = SortLib.PriceTF(tP,tF);\n    }\n    lastPriceQueryAt = now;\n  }\n\n  function getSortedPosition (address adr) returns (uint) { // should be private, here the \"private\" is temporarily removed due to testing\n    //require(adr != 0x0);      // Sometimes with this line, there will be error in the configuration.js test... sometimes not.... sometimes need to _migrate_ twice to eliminate the error.... Don't know why\n    uint _l;\n    if (grid != 0x0) {\n      _l = connectedPV.length+1;\n    } else {\n      _l = connectedPV.length;\n    }\n    for (uint i=0; i<_l; i++) {\n      if (adr == sortedPriceQueryInfo[i]) {\n        return (i+1);\n      }\n    }\n    return 0;\n  }\n\n  function sort() { // we are not doing sorting here -> as there is only 1 PV in the exercise layout\n    /*sortedPriceQueryInfo[0] = connectedPV[0];\n    if (grid != 0x0) {\n      sortedPriceQueryInfo[1] = grid;\n    }*/\n    createPriceList();\n    uint maxTemp;\n    uint totalLength;\n    if (grid != 0x0) {\n      totalLength = connectedPV.length+1;\n    } else {\n      totalLength = connectedPV.length;\n    }\n    for (uint i = 0; i < totalLength; i++) {\n      maxTemp = prepPriceQueryInfo.maxStruct();\n      swap(totalLength-1-i,maxTemp);\n      prepPriceQueryInfo.del(maxTemp);\n    }\n  } \n\n  function createPriceList() private {\n    if (grid != 0x0) {\n      prepPriceQueryInfo.length = connectedPV.length+1;\n    } else {\n      prepPriceQueryInfo.length = connectedPV.length;\n    }\n    for (uint i = 0; i < connectedPV.length; i++) {\n      prepPriceQueryInfo[i] = priceQueryInfo[connectedPV[i]];\n      sortedPriceQueryInfo[i] = connectedPV[i];\n    }\n    for (i = connectedPV.length; i < prepPriceQueryInfo.length; i++) {\n      prepPriceQueryInfo[i] = priceQueryInfo[grid];\n      sortedPriceQueryInfo[i] = grid;\n    }\n  }\n\n  function swap (uint _id1, uint _id2) private {\n    if (_id1 != _id2) {\n      address temp;\n      temp = sortedPriceQueryInfo[_id1];\n      sortedPriceQueryInfo[_id1] = sortedPriceQueryInfo[_id2];\n      sortedPriceQueryInfo[_id2] = temp;   \n    }\n  }\n\n  function getSortedPVInfo() returns(uint consum, uint rank, uint tot, bool updated) {\n    address adr = msg.sender;     //If the PV is connected\n    consum = buyVolume;\n    rank = getSortedPosition(adr); // We only have one PV connnected (In the demo layout)\n    if (grid != 0x0) {\n      tot = connectedPV.length + 1;\n    } else {\n      tot = connectedPV.length;\n    }\n    if (lastPriceQueryAt + priceTimeOut < now) {\n      updated = false;    // The house may be inactive for a while, so the list stored is outdated.\n    } else {\n      updated = true;      \n    }\n  }\n\n// start transaction\n  function goNoGo(uint giveoutvol) returns (uint) {\n    address adrDevice = msg.sender;\n    uint takeoutvol;\n    require(connectedPV.AssertInside(adrDevice) || adrDevice == grid);\n    takeoutvol = buyVolume.findMin(giveoutvol);\n    currentVolume += takeoutvol;\n    buyVolume = buyVolume.clearEnergyTransfer(takeoutvol, address(this));\n    wallet -= int(takeoutvol*priceQueryInfo[adrDevice].prs);\n    return (takeoutvol); \n  }\n\n\n  modifier ownerOnly {\n    if (msg.sender == owner) {\n      _;\n    } else {\n      revert();\n    }\n  }\n\n  \n\n  modifier connectedPVOnly (address adrP) {\n    if (connectedPV.AssertInside(adrP) == true) {\n      _;\n    } else {\n      revert();\n    }\n  }\n\n  modifier connectedHouseOnly {\n    if (connectedPV.AssertInside(msg.sender) == true) {\n      _;\n    } else {\n      revert();\n    } \n  }\n\n  modifier timed (uint initialTime, uint allowedTimeOut) {\n    if(now < initialTime + allowedTimeOut) {\n      _;\n    } else {\n      revert();\n    }\n  }\n\n  event VolLog(address adr, uint vol, uint volAt);\n  event ConfigurationLog(string confMod, uint statusAt);\n  event PriceUpdate(uint updateAt);\n\n  function SingleBattery (address adr,  uint cap) {\n    // constructor\n    owner = adr;\n    Admin = msg.sender;\n    capacity = cap;\n  }\n\n  \n\n  function setVolume(uint vol) ownerOnly {\n    // Can only be triggered once....Should be moved to the constructor...Once the initial volumne is set, can only be changed by energy trading.\n    currentVolume = vol;\n    volStatusAt = now;\n    VolLog(owner,vol,volStatusAt);\n  }\n\n  function setPrice(uint prsSale, uint prsBuy) ownerOnly {\n    priceForSale = prsSale;\n    priceForBuy = prsBuy;\n    priceStatusAt = now;\n    PriceUpdate(priceStatusAt);\n  }\n\n  function setBuyVolume(uint v) ownerOnly {\n    require(currentVolume + v <= capacity);\n    buyVolume = v;\n  }\n\n  // function askForPrice() {} // to ask for prices set by PVs...\n\n  function addConnectedPV(address adrP) adminOnly external {\n    connectedPV.push(adrP);\n    ConfigurationLog(\"PV linked to Battery\",now);\n  }\n\n  /*function deleteConnectedPV(address adrP) adminOnly external {\n    for (uint i = 0; i < connectedPV.length; i++) {\n      if (adrP == connectedPV[i]) {\n        delete connectedPV[i];\n        if (i != connectedPV.length-1) {\n          connectedPV[i] = connectedPV[connectedPV.length-1];\n        }\n        connectedPV.length--;\n      }\n    }\n  }*/\n\n  function addConnectedHouse(address adrH) adminOnly external {\n    connectedHouse.push(adrH);\n    ConfigurationLog(\"House linked to Battery\",now);\n  }\n\n  /*function deleteConnectedHouse(address adrH) adminOnly external {\n    for (uint i = 0; i < connectedHouse.length; i++) {\n      if (adrH == connectedHouse[i]) {\n        delete connectedHouse[i];\n        if (i != connectedHouse.length-1) {\n          connectedHouse[i] = connectedHouse[connectedHouse.length-1];\n        }\n        connectedHouse.length--;\n      }\n    }\n  }*/\n\n  function getVolumeCapacity () external returns (uint vol, uint volAt, uint cap) { // timed(initTime,volTimeOut) \n    vol = currentVolume;\n    volAt = volStatusAt;\n    cap = capacity;\n  }\n\n  function getSalePrice() returns (uint prs, bool updatedOrNot) { // connectedHouseOnly external\n    prs = priceForSale;\n    //prsAt = priceStatusAt;\n    if (priceStatusAt + priceTimeOut < now) {\n      updatedOrNot = false;\n    } else {\n      updatedOrNot = true;\n    }\n    //adr = owner;\n  }\n\n  function goExcess(uint vol) returns (uint takeVol, uint prs) {\n    prs = priceForBuy;\n    takeVol = vol.findMin(capacity-currentVolume);\n    currentVolume = currentVolume.clearExcessTransfer(takeVol, address(this));\n    wallet -= int(takeVol*prs);\n  }\n\n\n  function getBuyVol() returns (uint) {return buyVolume;}\n\n  // Battery also provides energy to houses\n  function askForRank() {\n    // ask and prepare for sorting the ranking...\n    uint consum;\n    uint rank;\n    uint tot;\n    bool updated;\n    uint num;\n\n    prepRankingInfo.length = connectedHouse.length;\n    for (uint i = 0; i < connectedHouse.length; i++) {\n      (consum, rank, tot, updated) = IHouse(connectedHouse[i]).getSortedInfo();\n      //GetSortedInfo(connectedHouse[i], consum, rank, tot, updated);\n      if (updated) {\n        RankingInfo[connectedHouse[i]] = SortRLib.Request(consum, rank, tot);\n        prepRankingInfo[num] = RankingInfo[connectedHouse[i]];\n        sortedRankingInfo[num] = connectedHouse[i];\n        num++;\n      }\n    }\n    prepRankingInfo.length = num;\n    rLength = num;\n    lastRankingAt = now;\n  }\n\n  function sortRankList() {\n    uint minTemp;\n    for (uint i=0; i<rLength; i++) {\n      minTemp = prepRankingInfo.minStruct();\n      swap(i,i+minTemp);\n      prepRankingInfo.del(minTemp);\n    }\n  }\n\n\n  function getSortedInfo(uint _id) returns(address adr, uint consum, uint rank, uint tot) {\n    adr = sortedRankingInfo[_id];\n    consum = RankingInfo[adr].consump;\n    rank = RankingInfo[adr].rank;\n    tot = RankingInfo[adr].total;\n  }\n  \n  function initiateTransaction(uint _id) returns (uint, uint) {\n    uint giveoutVol;\n    address adr;\n    uint whatDeviceAccept;\n    uint receivedMoney;\n    //for (uint i = 0; i < rLength; i++) {\n      adr = sortedRankingInfo[_id];\n      giveoutVol = currentVolume.findMin(RankingInfo[adr].consump);\n      if (connectedHouse.AssertInside(adr)) {\n        whatDeviceAccept = IHouse(adr).goNoGo(giveoutVol);\n        currentVolume -= whatDeviceAccept;\n        receivedMoney = whatDeviceAccept*priceForSale;\n        wallet = wallet.clearMoneyTransfer(receivedMoney,adr, address(this));\n      } else {\n        whatDeviceAccept = 0; \n      }\n      return(giveoutVol, whatDeviceAccept);\n    //}\n  }\n\n\n\n}\n",
  "sourcePath": "C:\\Users\\qianc\\Documents\\Thesis\\Code\\SimpleMonitor\\contracts\\SingleBattery.sol",
  "compiler": {
    "name": "solc",
    "version": "0.4.18+commit.9cf6e910.Emscripten.clang"
  },
  "schemaVersion": "1.0.1",
  "updatedAt": "2017-11-25T14:26:09.080Z"
}