{
  "contractName": "SingleHouse",
  "abi": [
    {
      "constant": true,
      "inputs": [],
      "name": "name",
      "outputs": [
        {
          "name": "",
          "type": "bytes32"
        }
      ],
      "payable": false,
      "stateMutability": "view",
      "type": "function"
    },
    {
      "constant": false,
      "inputs": [
        {
          "name": "giveoutvol",
          "type": "uint256"
        }
      ],
      "name": "goNoGo",
      "outputs": [
        {
          "name": "",
          "type": "uint256"
        }
      ],
      "payable": false,
      "stateMutability": "nonpayable",
      "type": "function"
    },
    {
      "constant": true,
      "inputs": [],
      "name": "getWallet",
      "outputs": [
        {
          "name": "",
          "type": "int256"
        }
      ],
      "payable": false,
      "stateMutability": "view",
      "type": "function"
    },
    {
      "constant": false,
      "inputs": [
        {
          "name": "adr",
          "type": "address"
        }
      ],
      "name": "getSortedHInfo",
      "outputs": [
        {
          "name": "consum",
          "type": "uint256"
        },
        {
          "name": "rank",
          "type": "uint256"
        },
        {
          "name": "tot",
          "type": "uint256"
        },
        {
          "name": "updated",
          "type": "bool"
        }
      ],
      "payable": false,
      "stateMutability": "nonpayable",
      "type": "function"
    },
    {
      "constant": false,
      "inputs": [],
      "name": "getSortedInfo",
      "outputs": [
        {
          "name": "consum",
          "type": "uint256"
        },
        {
          "name": "rank",
          "type": "uint256"
        },
        {
          "name": "tot",
          "type": "uint256"
        },
        {
          "name": "updated",
          "type": "bool"
        }
      ],
      "payable": false,
      "stateMutability": "nonpayable",
      "type": "function"
    },
    {
      "constant": false,
      "inputs": [
        {
          "name": "adrP",
          "type": "address"
        }
      ],
      "name": "addConnectedPV",
      "outputs": [],
      "payable": false,
      "stateMutability": "nonpayable",
      "type": "function"
    },
    {
      "constant": false,
      "inputs": [
        {
          "name": "consum",
          "type": "uint256"
        }
      ],
      "name": "setConsumption",
      "outputs": [],
      "payable": false,
      "stateMutability": "nonpayable",
      "type": "function"
    },
    {
      "constant": false,
      "inputs": [],
      "name": "getConsumption",
      "outputs": [
        {
          "name": "consum",
          "type": "uint256"
        },
        {
          "name": "consumAt",
          "type": "uint256"
        }
      ],
      "payable": false,
      "stateMutability": "nonpayable",
      "type": "function"
    },
    {
      "constant": false,
      "inputs": [
        {
          "name": "adrB",
          "type": "address"
        }
      ],
      "name": "addConnectedBattery",
      "outputs": [],
      "payable": false,
      "stateMutability": "nonpayable",
      "type": "function"
    },
    {
      "constant": false,
      "inputs": [],
      "name": "sortPriceList",
      "outputs": [],
      "payable": false,
      "stateMutability": "nonpayable",
      "type": "function"
    },
    {
      "constant": false,
      "inputs": [
        {
          "name": "adr",
          "type": "address"
        }
      ],
      "name": "setGridAdr",
      "outputs": [],
      "payable": false,
      "stateMutability": "nonpayable",
      "type": "function"
    },
    {
      "constant": true,
      "inputs": [],
      "name": "owner",
      "outputs": [
        {
          "name": "",
          "type": "address"
        }
      ],
      "payable": false,
      "stateMutability": "view",
      "type": "function"
    },
    {
      "constant": false,
      "inputs": [
        {
          "name": "adr",
          "type": "address"
        }
      ],
      "name": "getSortedPosition",
      "outputs": [
        {
          "name": "",
          "type": "uint256"
        }
      ],
      "payable": false,
      "stateMutability": "nonpayable",
      "type": "function"
    },
    {
      "constant": false,
      "inputs": [],
      "name": "askForPrice",
      "outputs": [],
      "payable": false,
      "stateMutability": "nonpayable",
      "type": "function"
    },
    {
      "constant": false,
      "inputs": [
        {
          "name": "a",
          "type": "uint256"
        }
      ],
      "name": "getConnectPVAddress",
      "outputs": [
        {
          "name": "",
          "type": "address"
        }
      ],
      "payable": false,
      "stateMutability": "nonpayable",
      "type": "function"
    },
    {
      "inputs": [
        {
          "name": "adr",
          "type": "address"
        }
      ],
      "payable": false,
      "stateMutability": "nonpayable",
      "type": "constructor"
    },
    {
      "anonymous": false,
      "inputs": [
        {
          "indexed": false,
          "name": "adr",
          "type": "address"
        },
        {
          "indexed": false,
          "name": "consum",
          "type": "uint256"
        },
        {
          "indexed": false,
          "name": "consumAt",
          "type": "uint256"
        }
      ],
      "name": "ConsumptionLog",
      "type": "event"
    },
    {
      "anonymous": false,
      "inputs": [
        {
          "indexed": false,
          "name": "confMod",
          "type": "string"
        },
        {
          "indexed": false,
          "name": "statusAt",
          "type": "uint256"
        }
      ],
      "name": "ConfigurationLog",
      "type": "event"
    },
    {
      "anonymous": false,
      "inputs": [
        {
          "indexed": false,
          "name": "adrFrom",
          "type": "address"
        },
        {
          "indexed": false,
          "name": "adrTo",
          "type": "address"
        },
        {
          "indexed": false,
          "name": "eVol",
          "type": "uint256"
        },
        {
          "indexed": false,
          "name": "transferAt",
          "type": "uint256"
        }
      ],
      "name": "EnergyTransferLog",
      "type": "event"
    }
  ],
  "bytecode": "0x606060405260018054600160a060020a031916905561012c600255341561002557600080fd5b6040516020806110058339810160405280805160058054600160a060020a03928316600160a060020a0319918216179091556000805433909316929091169190911790555050610f8b8061007a6000396000f3006060604052600436106100c15763ffffffff60e060020a60003504166306fdde0381146100c65780630ff37282146100eb57806313299604146101015780631628ce6c1461011457806338a3528c1461015f57806341977cf5146101725780635a500ecc146101935780638a5cb1b6146101a95780638ad5366f146101d45780638b874f72146101f35780638d646b11146102065780638da5cb5b14610225578063b148f82b14610254578063c974602914610273578063e7e2741014610286575b600080fd5b34156100d157600080fd5b6100d961029c565b60405190815260200160405180910390f35b34156100f657600080fd5b6100d96004356102a2565b341561010c57600080fd5b6100d96104fa565b341561011f57600080fd5b610133600160a060020a0360043516610501565b604051938452602084019290925260408084019190915290151560608301526080909101905180910390f35b341561016a57600080fd5b610133610561565b341561017d57600080fd5b610191600160a060020a036004351661057e565b005b341561019e57600080fd5b61019160043561063a565b34156101b457600080fd5b6101bc6106c9565b60405191825260208201526040908101905180910390f35b34156101df57600080fd5b610191600160a060020a03600435166106ea565b34156101fe57600080fd5b6101916107a7565b341561021157600080fd5b610191600160a060020a03600435166109d2565b341561023057600080fd5b610238610a09565b604051600160a060020a03909116815260200160405180910390f35b341561025f57600080fd5b6100d9600160a060020a0360043516610a18565b341561027e57600080fd5b610191610a6d565b341561029157600080fd5b610238600435610c85565b60065481565b6000338173__AdrLib________________________________6354859436600984846040516020015260405160e060020a63ffffffff85160281526004810192909252600160a060020a0316602482015260440160206040518083038186803b151561030d57600080fd5b6102c65a03f4151561031e57600080fd5b50505060405180519050806103b2575073__AdrLib________________________________635485943660088460006040516020015260405160e060020a63ffffffff85160281526004810192909252600160a060020a0316602482015260440160206040518083038186803b151561039657600080fd5b6102c65a03f415156103a757600080fd5b505050604051805190505b15156103bd57600080fd5b60035473__TransactLib___________________________63345387fc90918660006040516020015260405160e060020a63ffffffff85160281526004810192909252602482015260440160206040518083038186803b151561041f57600080fd5b6102c65a03f4151561043057600080fd5b50505060405180519050905060035473__TransactLib___________________________639e5fd0a99091833060006040516020015260405160e060020a63ffffffff861602815260048101939093526024830191909152600160a060020a0316604482015260640160206040518083038186803b15156104b057600080fd5b6102c65a03f415156104c157600080fd5b505050604051805160035550600160a060020a0382166000908152600c6020526040902054600480549183029091039055915050919050565b6004545b90565b6003546000808061051185610a18565b600154909350600160a060020a03161561053657600954600854016001019150610540565b6009546008540191505b42600254600b540110156105565750600061055a565b5060015b9193509193565b60008060008061057033610501565b935093509350935090919293565b60005433600160a060020a03908116911614156100c15760088054600181016105a78382610ecb565b5060009182526020909120018054600160a060020a031916600160a060020a0383161790557f34ff05936c7ffe85555df53a7bf1374ed025703c493a74c4ce3316646f950e1642604051602081019190915260408082526012818301527f5056206c696e6b656420746f20486f757365000000000000000000000000000060608301526080909101905180910390a15b50565b60055433600160a060020a03908116911614156100c15760038190554260078190556005547f93e0cabaa551645c58979b9f1e87af3e09f708241c9bdd6468e581ad0651692691600160a060020a039091169083906040518084600160a060020a0316600160a060020a03168152602001838152602001828152602001935050505060405180910390a1610637565b60008060025480600754014210156100c15760035492506007549150509091565b60005433600160a060020a03908116911614156100c15760098054600181016107138382610ecb565b5060009182526020909120018054600160a060020a031916600160a060020a0383161790557f34ff05936c7ffe85555df53a7bf1374ed025703c493a74c4ce3316646f950e1642604051602081019190915260408082526017818301527f42617474657279206c696e6b656420746f20486f75736500000000000000000060608301526080909101905180910390a1610637565b60008060008060006107b7610cb1565b600954600854019350600092505b838310156108c75773__SortLib_______________________________63f27da568600a60006040516020015260405160e060020a63ffffffff8416028152600481019190915260240160206040518083038186803b151561082657600080fd5b6102c65a03f4151561083757600080fd5b50505060405180519050945061085283600186030386610e78565b73__SortLib_______________________________6343168c1b600a8760405160e060020a63ffffffff85160281526004810192909252602482015260440160006040518083038186803b15156108a857600080fd5b6102c65a03f415156108b957600080fd5b5050600190930192506107c5565b600154600160a060020a0316156109cb5750506001546000908190600160a060020a03166398d5fdca82604051604001526040518163ffffffff1660e060020a0281526004016040805180830381600087803b151561092557600080fd5b6102c65a03f1151561093657600080fd5b50505060405180519060200180519193509091506040905080519081016040908152838252821515602080840191909152600154600160a060020a03166000908152600c909152208151815560208201516001918201805491151560ff19909216919091179055546000868152600d602052604090208054600160a060020a031916600160a060020a03909216919091179055505b5050505050565b60005433600160a060020a03908116911614156100c15760018054600160a060020a031916600160a060020a038316179055610637565b600554600160a060020a031681565b6000805b60095460085401600101811015610a62576000818152600d6020526040902054600160a060020a0384811691161415610a5a57806001019150610a67565b600101610a1c565b600091505b50919050565b600080805b600854811015610b75576008805482908110610a8a57fe5b6000918252602082200154600160a060020a0316906398d5fdca90604051604001526040518163ffffffff1660e060020a0281526004016040805180830381600087803b1515610ad957600080fd5b6102c65a03f11515610aea57600080fd5b5050506040518051906020018051919450909250604090508051908101604052838152821515602082015260088054600c9160009185908110610b2957fe5b6000918252602080832090910154600160a060020a0316835282019290925260400190208151815560208201516001918201805460ff1916911515919091179055919091019050610a72565b5060005b600954811015610c7c576009805482908110610b9157fe5b6000918252602082200154600160a060020a031690632fbc0bf190604051604001526040518163ffffffff1660e060020a0281526004016040805180830381600087803b1515610be057600080fd5b6102c65a03f11515610bf157600080fd5b5050506040518051906020018051919450909250604090508051908101604052838152821515602082015260098054600c9160009185908110610c3057fe5b6000918252602080832090910154600160a060020a0316835282019290925260400190208151815560208201516001918201805460ff1916911515919091179055919091019050610b79565b505042600b5550565b6000600882815481101515610c9657fe5b600091825260209091200154600160a060020a031692915050565b60095460085460009101610cc6600a82610eef565b50600090505b600854811015610d9957600c6000600883815481101515610ce957fe5b6000918252602080832090910154600160a060020a031683528201929092526040019020600a805483908110610d1b57fe5b6000918252602090912082546002909202019081556001918201549101805460ff191660ff90921615159190911790556008805482908110610d5957fe5b6000918252602080832090910154838352600d90915260409091208054600160a060020a031916600160a060020a03909216919091179055600101610ccc565b506008545b600a5481101561063757600c600060096008805490508403815481101515610dc257fe5b6000918252602080832090910154600160a060020a031683528201929092526040019020600a805483908110610df457fe5b6000918252602090912082546002909202019081556001918201549101805460ff191660ff90921615159190911790556008546009805490918303908110610e3857fe5b6000918252602080832090910154838352600d90915260409091208054600160a060020a031916600160a060020a03909216919091179055600101610d9e565b6000828214610ec657506000828152600d60205260408082208054848452919092208054600160a060020a0319808416600160a060020a039283161790945581549093169290911691821790555b505050565b815481835581811511610ec657600083815260209020610ec6918101908301610f1b565b815481835581811511610ec657600202816002028360005260206000209182019101610ec69190610f39565b6104fe91905b80821115610f355760008155600101610f21565b5090565b6104fe91905b80821115610f35576000815560018101805460ff19169055600201610f3f5600a165627a7a7230582018e0108361417040b46dd23dbdaab2d01d909e0a8449654b745d22b458d82b790029",
  "source": "pragma solidity ^0.4.4;\n\nimport \"./SortLib.sol\";\nimport \"./AdrLib.sol\";\nimport \"./TransactLib.sol\";\nimport \"./IPV.sol\";\nimport \"./IGrid.sol\";\nimport \"./IBattery.sol\";\nimport \"./IHouse.sol\";\n\ncontract SingleHouse is IHouse {\n  \n  // one contract is associated to one particular House in the network.\n\n  using AdrLib for address[];\n  using TransactLib for uint;\n\n  //address Admin;                    // shall be defined at the creation of contract or to be defined manually... now it doesn't work well. It captures the address of the Configuration contract.\n  //uint    consumTimeOut = 5 minutes;\n  //address grid = 0x0;               // contract address of grid\n  address public owner;\n  bytes32 public name;              // name of the device (Serie No.)\n  \n  uint    consumStatusAt;           // timestamp of the update (consumption)\n  address[] connectedPV;            // List of contract address of connected PV\n  address[] connectedBattery;       // List of contract address of connected batteries\n\n  // may be splited into another contract\n\n  /*struct PriceTF {\n    uint  prs;\n    bool  updated;\n  }*/\n\n  using SortLib for SortLib.PriceTF[];\n  SortLib.PriceTF[] prepPriceQueryInfo;\n\n  uint    lastPriceQueryAt;\n\n  mapping(address=>SortLib.PriceTF) priceQueryInfo;\n  mapping(uint=>address) sortedPriceQueryInfo;\n  \n// ======= Modifiers =======\n  \n  modifier ownerOnly {\n    if (msg.sender == owner) {\n      _;\n    } else {\n      revert();\n    }\n  }\n\n\n/*  modifier adminOnly {\n    if (msg.sender == Admin) {\n      _;\n    } else {\n      revert();\n    }\n  }*/\n\n  modifier connectedPVOnly (address adrP) {\n    if (connectedPV.AssertInside(adrP)) {\n      _;\n    } else {\n      revert();\n    }\n  }\n\n  modifier connectedBatteryOnly (address adrB) {\n    if (connectedBattery.AssertInside(adrB)) {\n      _;\n    } else {\n      revert();\n    }\n  }\n\n  modifier timed (uint allowedTimeOut) {\n    if(now < consumStatusAt + allowedTimeOut) {\n      _;\n    } else {\n      revert();\n    }\n  }\n\n// ======= Event Logs =======\n  event ConsumptionLog(address adr, uint consum, uint consumAt);\n  event ConfigurationLog(string confMod, uint statusAt);\n  event EnergyTransferLog(address adrFrom, address adrTo, uint eVol, uint transferAt);\n\n// ======= Basic Functionalities =======\n\n  // --- Upon contract creation and configuration ---\n\n  function SingleHouse (address adr) {\n    owner = adr;\n    Admin = msg.sender;\n  }\n  \n  /*function setGridAdr(address adr) adminOnly external {\n    grid = adr;\n  }*/\n  \n  function addConnectedPV(address adrP) adminOnly external {\n    connectedPV.push(adrP);\n    ConfigurationLog(\"PV linked to House\",now);\n  }\n\n  function addConnectedBattery(address adrB) adminOnly external {\n    connectedBattery.push(adrB);\n    ConfigurationLog(\"Battery linked to House\",now);\n  }\n\n  // --- Regular usage ---\n\n  function setConsumption(uint consum) ownerOnly {\n    consumption = consum;\n    consumStatusAt = now;\n    ConsumptionLog(owner, consumption, consumStatusAt);\n  }\n\n  function getConsumption()  external timed(consumTimeOut) returns (uint consum, uint consumAt) { //\n    consum = consumption;\n    consumAt = consumStatusAt;\n  }\n\n  // \n\n  function askForPrice() {\n    // House query price info to all the connected PV/Battery. \n    // If the house is connected to grid (most of the time), the price of Grid will be automatically added to the end of the sorted list.\n    uint tP = 0;\n    bool tF = false;\n    for (uint i = 0; i < connectedPV.length; i++) {\n      (tP,tF) = IPV(connectedPV[i]).getPrice();\n      priceQueryInfo[connectedPV[i]] = SortLib.PriceTF(tP,tF);\n    }\n    for (i = 0; i < connectedBattery.length; i++) {\n      (tP,tF) = IBattery(connectedBattery[i]).getSalePrice();\n      priceQueryInfo[connectedBattery[i]] = SortLib.PriceTF(tP,tF);\n    }\n    lastPriceQueryAt = now;\n  }\n\n  //------------------------------\n  // to Sort the received list of Price (from PV and Battery)\n  //------------------------------\n  \n\n  function sortPriceList() {\n    createPriceList();\n    uint maxTemp;\n    uint totalLength = connectedPV.length + connectedBattery.length;\n    for (uint i = 0; i < totalLength; i++) {\n      maxTemp = prepPriceQueryInfo.maxStruct();\n      swap(totalLength-1-i,maxTemp);\n      prepPriceQueryInfo.del(maxTemp);\n    }\n    // if the grid is connected -> add the price from the grid to the end of the sorted list \n    if (grid != 0x0) {\n      uint tP = 0;\n      bool tF = false;\n      (tP,tF) = IGrid(grid).getPrice();\n      priceQueryInfo[grid] = SortLib.PriceTF(tP,tF);\n      //setPriceQueryInfo(grid,tP,tF);\n      sortedPriceQueryInfo[totalLength] = grid;\n    }\n  }\n\n  function createPriceList() private {\n    prepPriceQueryInfo.length = connectedPV.length + connectedBattery.length;\n    //sortedPriceQueryInfo.length = prepPriceQueryInfo.length; => sortedPQI is using mapping now\n    for (uint i = 0; i < connectedPV.length; i++) {\n      prepPriceQueryInfo[i] = priceQueryInfo[connectedPV[i]];\n      sortedPriceQueryInfo[i] = connectedPV[i];\n    }\n    for (i = connectedPV.length; i < prepPriceQueryInfo.length; i++) {\n      prepPriceQueryInfo[i] = priceQueryInfo[connectedBattery[i-connectedPV.length]];\n      sortedPriceQueryInfo[i] = connectedBattery[i-connectedPV.length];\n    }\n  }\n\n  function swap (uint _id1, uint _id2) private {\n    if (_id1 != _id2) {\n      address temp;\n      temp = sortedPriceQueryInfo[_id1];\n      sortedPriceQueryInfo[_id1] = sortedPriceQueryInfo[_id2];\n      sortedPriceQueryInfo[_id2] = temp;   \n    }\n  }\n\n  //------------------------------\n  // Once sorted, actively send to all the connected devices.\n  //------------------------------\n\n  function getSortedPosition (address adr) returns (uint) { // should be private, here the \"private\" is temporarily removed due to testing\n    //require(adr != 0x0);      // Sometimes with this line, there will be error in the configuration.js test... sometimes not.... sometimes need to _migrate_ twice to eliminate the error.... Don't know why\n    for (uint i=0; i<connectedPV.length + connectedBattery.length+1; i++) {\n      if (adr == sortedPriceQueryInfo[i]) {\n        return (i+1);\n      }\n    }\n    return 0;\n  }\n\n  function getSortedInfo() external returns(uint consum, uint rank, uint tot, bool updated) {\n    return  getSortedHInfo(msg.sender);\n  }\n\n  function getSortedHInfo(address adr) returns(uint consum, uint rank, uint tot, bool updated) {  // should be private, here the \"private\" is temporarily removed due to testing\n    //address adr = msg.sender;\n    consum = consumption;\n    rank = getSortedPosition(adr);\n    if (grid != 0x0) {\n      tot = connectedPV.length + connectedBattery.length+1;\n    } else {\n      tot = connectedPV.length + connectedBattery.length;\n    }\n    if (lastPriceQueryAt + consumTimeOut < now) {\n      updated = false;    // The house may be inactive for a while, so the list stored is outdated.\n    } else {\n      updated = true;      \n    }\n  }\n\n  // ------------Functions used in transaction------------------\n  function goNoGo(uint giveoutvol) returns (uint) {\n    address adrDevice = msg.sender;\n    uint takeoutvol;\n    require(connectedBattery.AssertInside(adrDevice) || connectedPV.AssertInside(adrDevice));\n    takeoutvol = consumption.calculateHouseReceivedVolume(giveoutvol);\n    consumption = consumption.clearEnergyTransfer(takeoutvol, address(this));\n    //EnergyTransferLog(adrDevice,address(this), takeoutvol, consumption);\n    //wallet = wallet.clearMoneyTransfer(-int(takeoutvol*priceQueryInfo[adrDevice].prs), adrDevice);\n    wallet -= int(takeoutvol*priceQueryInfo[adrDevice].prs);\n    return (takeoutvol); \n  }\n\n\n  // ------------Functions used in testing------------------\n/*\n  function getSortedPriceList (uint _id) returns (address) {\n    return sortedPriceQueryInfo[_id];\n  }\n\n  function getAskedPrice(address adr) returns (uint,bool) {\n    return (priceQueryInfo[adr].prs,priceQueryInfo[adr].updated) ;\n  }\n\n  function askForPricePV(uint i) returns (uint,bool) {\n    return IPV(connectedPV[i]).getPrice();\n  }\n\n  function askForPriceB(uint i) returns (uint,bool) {\n    return IBattery(connectedBattery[i]).getSalePrice();\n  }\n\n  function getOwnerAdmin() returns (address, address){\n    return (owner,Admin);\n  }\n\n  function getConnectedPVCount() returns (uint){\n    return connectedPV.length;\n  }\n\n  function getconnectedBatteryCount() returns (uint){\n    return connectedBattery.length;\n  }\n\n  function getConnectPVAddress(uint a) returns (address) {\n    if (a<connectedPV.length) {\n      return connectedPV[a];\n    } else {\n      return 0x0;\n    }\n  }\n\n  function getconnectedBatteryAddress(uint a) returns (address) {\n    if (a<connectedBattery.length) {\n      return connectedBattery[a];\n    } else {\n      return 0x0;\n   \n    }\n  }\n  */\n\n  function getConnectPVAddress(uint a) returns (address) {\n      return connectedPV[a];\n  }\n}\n",
  "sourcePath": "C:\\Users\\qianc\\Documents\\Thesis\\Code\\SimpleMonitor\\contracts\\SingleHouse.sol",
  "compiler": {
    "name": "solc",
    "version": "0.4.18+commit.9cf6e910.Emscripten.clang"
  },
  "schemaVersion": "1.0.1",
  "updatedAt": "2017-11-09T21:36:50.188Z"
}