{
  "contractName": "SingleBattery",
  "abi": [
    {
      "constant": false,
      "inputs": [
        {
          "name": "adr",
          "type": "address"
        }
      ],
      "name": "setTimerAdr",
      "outputs": [],
      "payable": false,
      "stateMutability": "nonpayable",
      "type": "function"
    },
    {
      "constant": true,
      "inputs": [],
      "name": "getVolumeCapacity",
      "outputs": [
        {
          "name": "vol",
          "type": "uint256"
        },
        {
          "name": "volAt",
          "type": "uint256"
        },
        {
          "name": "cap",
          "type": "uint256"
        }
      ],
      "payable": false,
      "stateMutability": "view",
      "type": "function"
    },
    {
      "constant": false,
      "inputs": [
        {
          "name": "giveoutvol",
          "type": "uint256"
        }
      ],
      "name": "goNoGo",
      "outputs": [
        {
          "name": "",
          "type": "uint256"
        }
      ],
      "payable": false,
      "stateMutability": "nonpayable",
      "type": "function"
    },
    {
      "constant": true,
      "inputs": [],
      "name": "getSortedPrice",
      "outputs": [
        {
          "name": "consum",
          "type": "uint256"
        },
        {
          "name": "rank",
          "type": "uint256"
        },
        {
          "name": "tot",
          "type": "uint256"
        },
        {
          "name": "updated",
          "type": "bool"
        }
      ],
      "payable": false,
      "stateMutability": "view",
      "type": "function"
    },
    {
      "constant": false,
      "inputs": [],
      "name": "getTimerStatus",
      "outputs": [
        {
          "name": "",
          "type": "uint256"
        }
      ],
      "payable": false,
      "stateMutability": "nonpayable",
      "type": "function"
    },
    {
      "constant": true,
      "inputs": [],
      "name": "getSalePrice",
      "outputs": [
        {
          "name": "prs",
          "type": "uint256"
        },
        {
          "name": "updatedOrNot",
          "type": "bool"
        }
      ],
      "payable": false,
      "stateMutability": "view",
      "type": "function"
    },
    {
      "constant": false,
      "inputs": [
        {
          "name": "vol",
          "type": "uint256"
        }
      ],
      "name": "goExcess",
      "outputs": [
        {
          "name": "takeVol",
          "type": "uint256"
        },
        {
          "name": "prs",
          "type": "uint256"
        }
      ],
      "payable": false,
      "stateMutability": "nonpayable",
      "type": "function"
    },
    {
      "constant": false,
      "inputs": [],
      "name": "askForRank",
      "outputs": [],
      "payable": false,
      "stateMutability": "nonpayable",
      "type": "function"
    },
    {
      "constant": false,
      "inputs": [],
      "name": "sortRank",
      "outputs": [],
      "payable": false,
      "stateMutability": "nonpayable",
      "type": "function"
    },
    {
      "constant": false,
      "inputs": [
        {
          "name": "_id",
          "type": "uint256"
        }
      ],
      "name": "initiateTransaction",
      "outputs": [
        {
          "name": "",
          "type": "uint256"
        },
        {
          "name": "",
          "type": "uint256"
        }
      ],
      "payable": false,
      "stateMutability": "nonpayable",
      "type": "function"
    },
    {
      "constant": false,
      "inputs": [
        {
          "name": "vol",
          "type": "uint256"
        }
      ],
      "name": "setVolume",
      "outputs": [],
      "payable": false,
      "stateMutability": "nonpayable",
      "type": "function"
    },
    {
      "constant": false,
      "inputs": [
        {
          "name": "v",
          "type": "uint256"
        }
      ],
      "name": "setBuyVolume",
      "outputs": [],
      "payable": false,
      "stateMutability": "nonpayable",
      "type": "function"
    },
    {
      "constant": false,
      "inputs": [
        {
          "name": "_id",
          "type": "uint256"
        }
      ],
      "name": "getSortedRank",
      "outputs": [
        {
          "name": "adr",
          "type": "address"
        },
        {
          "name": "consum",
          "type": "uint256"
        },
        {
          "name": "rank",
          "type": "uint256"
        },
        {
          "name": "tot",
          "type": "uint256"
        }
      ],
      "payable": false,
      "stateMutability": "nonpayable",
      "type": "function"
    },
    {
      "constant": false,
      "inputs": [],
      "name": "getTimerAddress",
      "outputs": [
        {
          "name": "",
          "type": "address"
        }
      ],
      "payable": false,
      "stateMutability": "nonpayable",
      "type": "function"
    },
    {
      "constant": false,
      "inputs": [],
      "name": "getBuyVol",
      "outputs": [
        {
          "name": "",
          "type": "uint256"
        }
      ],
      "payable": false,
      "stateMutability": "nonpayable",
      "type": "function"
    },
    {
      "constant": false,
      "inputs": [
        {
          "name": "adr",
          "type": "address"
        }
      ],
      "name": "setGridAdr",
      "outputs": [],
      "payable": false,
      "stateMutability": "nonpayable",
      "type": "function"
    },
    {
      "constant": false,
      "inputs": [],
      "name": "sortPrice",
      "outputs": [],
      "payable": false,
      "stateMutability": "nonpayable",
      "type": "function"
    },
    {
      "constant": false,
      "inputs": [
        {
          "name": "a",
          "type": "uint256"
        },
        {
          "name": "adr",
          "type": "address"
        }
      ],
      "name": "addConnectedDevice",
      "outputs": [],
      "payable": false,
      "stateMutability": "nonpayable",
      "type": "function"
    },
    {
      "constant": false,
      "inputs": [],
      "name": "askForPrice",
      "outputs": [],
      "payable": false,
      "stateMutability": "nonpayable",
      "type": "function"
    },
    {
      "constant": false,
      "inputs": [
        {
          "name": "prsSale",
          "type": "uint256"
        },
        {
          "name": "prsBuy",
          "type": "uint256"
        }
      ],
      "name": "setPrice",
      "outputs": [],
      "payable": false,
      "stateMutability": "nonpayable",
      "type": "function"
    },
    {
      "constant": true,
      "inputs": [],
      "name": "Admin",
      "outputs": [
        {
          "name": "",
          "type": "address"
        }
      ],
      "payable": false,
      "stateMutability": "view",
      "type": "function"
    },
    {
      "inputs": [
        {
          "name": "adr",
          "type": "address"
        },
        {
          "name": "cap",
          "type": "uint256"
        }
      ],
      "payable": false,
      "stateMutability": "nonpayable",
      "type": "constructor"
    },
    {
      "anonymous": false,
      "inputs": [
        {
          "indexed": false,
          "name": "adr",
          "type": "address"
        },
        {
          "indexed": false,
          "name": "vol",
          "type": "uint256"
        },
        {
          "indexed": false,
          "name": "volAt",
          "type": "uint256"
        }
      ],
      "name": "VolLog",
      "type": "event"
    },
    {
      "anonymous": false,
      "inputs": [
        {
          "indexed": false,
          "name": "updateAt",
          "type": "uint256"
        }
      ],
      "name": "PriceUpdate",
      "type": "event"
    }
  ],
  "bytecode": "0x606060405260038054600160a060020a031990811690915560048054909116905561012c6008819055600955341561003657600080fd5b604051604080611622833981016040528080519190602001805160018054600160a060020a03958616600160a060020a031991821617909155600080543390961695909116949094179093555050600e5561158c806100966000396000f3006060604052600436106101035763ffffffff60e060020a6000350416630830cfae81146101085780630e00c316146101295780630ff37282146101605780631b45f0e014610188578063235a4a4f146101c75780632fbc0bf1146101da57806335f7f5e2146102075780633d7224dc146102355780633d859507146102485780633fd2007d1461025b5780634559dcdc146102715780636a95841b146102875780636b6082231461029d57806370ed8f24146102f057806379c19df01461031f5780638d646b1114610332578063aac12b4b14610351578063bfd1190314610364578063c974602914610386578063f7d9757714610399578063ff1b636d146103b2575b600080fd5b341561011357600080fd5b610127600160a060020a03600435166103c5565b005b341561013457600080fd5b61013c610408565b60405180848152602001838152602001828152602001935050505060405180910390f35b341561016b57600080fd5b610176600435610418565b60405190815260200160405180910390f35b341561019357600080fd5b61019b61068b565b604051938452602084019290925260408084019190915290151560608301526080909101905180910390f35b34156101d257600080fd5b61017661072e565b34156101e557600080fd5b6101ed610798565b604051918252151560208201526040908101905180910390f35b341561021257600080fd5b61021d6004356107bd565b60405191825260208201526040908101905180910390f35b341561024057600080fd5b6101276108eb565b341561025357600080fd5b610127610b1d565b341561026657600080fd5b61021d600435610b97565b341561027c57600080fd5b610127600435610e87565b341561029257600080fd5b610127600435610f16565b34156102a857600080fd5b6102b3600435610f5b565b6040518085600160a060020a0316600160a060020a0316815260200184815260200183815260200182815260200194505050505060405180910390f35b34156102fb57600080fd5b610303610ffa565b604051600160a060020a03909116815260200160405180910390f35b341561032a57600080fd5b610176611009565b341561033d57600080fd5b610127600160a060020a036004351661100f565b341561035c57600080fd5b610127611053565b341561036f57600080fd5b610127600435600160a060020a03602435166111e2565b341561039157600080fd5b61012761124e565b34156103a457600080fd5b610127600435602435611464565b34156103bd57600080fd5b6103036114d4565b60005433600160a060020a0390811691161415610103576004805473ffffffffffffffffffffffffffffffffffffffff1916600160a060020a0383161790555b50565b600f54600b54600e549192909190565b600160009081526006602052338173__AdrLib________________________________632c2fc20e60008051602061152183398151915284846040516020015260405160e060020a63ffffffff85160281526004810192909252600160a060020a0316602482015260440160206040518083038186803b151561049a57600080fd5b6102c65a03f415156104ab57600080fd5b50505060405180519050806104cd5750600354600160a060020a038381169116145b15156104d857600080fd5b60105473__TransactLib___________________________63bc2e368c90918660006040516020015260405160e060020a63ffffffff85160281526004810192909252602482015260440160206040518083038186803b151561053a57600080fd5b6102c65a03f4151561054b57600080fd5b5050506040518051600f805482019081905542600b8190556001549294507fa8533a3e28bf00cd05018ed80847d3d6f170da084f6417da50798db7335ff9a09350600160a060020a03909216916040518084600160a060020a0316600160a060020a03168152602001838152602001828152602001935050505060405180910390a160105473__TransactLib___________________________639e5fd0a99091833060006040516020015260405160e060020a63ffffffff861602815260048101939093526024830191909152600160a060020a0316604482015260640160206040518083038186803b151561064157600080fd5b6102c65a03f4151561065257600080fd5b505050604051805160105550600160a060020a038216600090815260136020526040902054600780549183029091039055915050919050565b6010546000808073__SortPLib______________________________63c6742457601333846040516060015260405160e060020a63ffffffff85160281526004810192909252600160a060020a0316602482015260440160606040518083038186803b15156106f957600080fd5b6102c65a03f4151561070a57600080fd5b50505060405180519060200180519060200180519697929691955090935090915050565b600454600090600160a060020a0316633b7104f282604051602001526040518163ffffffff1660e060020a028152600401602060405180830381600087803b151561077857600080fd5b6102c65a03f1151561078957600080fd5b50505060405180519150505b90565b601154600954600a5460009142910110156107b5575060006107b9565b5060015b9091565b60008060125490508273__TransactLib___________________________63bc2e368c9091600f54600e540360006040516020015260405160e060020a63ffffffff85160281526004810192909252602482015260440160206040518083038186803b151561082b57600080fd5b6102c65a03f4151561083c57600080fd5b505050604051805190509150600f5473__TransactLib___________________________63994459079091843060006040516020015260405160e060020a63ffffffff861602815260048101939093526024830191909152600160a060020a0316604482015260640160206040518083038186803b15156108bc57600080fd5b6102c65a03f415156108cd57600080fd5b5050506040518051600f555060078054838302900390559092909150565b600080600080600060036108fd61072e565b8114156101035773__SortRLib______________________________63e6f37de9601760405160e060020a63ffffffff8416028152600481019190915260240160006040518083038186803b151561095457600080fd5b6102c65a03f4151561096557600080fd5b505050600091505b60008052600660205260008051602061154183398151915254821015610b10576000805260066020526000805160206115418339815191528054839081106109b157fe5b6000918252602082200154600160a060020a031690631b45f0e090604051608001526040518163ffffffff1660e060020a028152600401608060405180830381600087803b1515610a0157600080fd5b6102c65a03f11515610a1257600080fd5b50505060405180519060200180519060200180519060200180519399509197509550909350508215610b0557600080526006602052600080516020611541833981519152805473__SortRLib______________________________9163ef61a139916017919086908110610a8257fe5b600091825260209091200154600160a060020a031689898960405160e060020a63ffffffff88160281526004810195909552600160a060020a03909316602485015260448401919091526064830152608482015260a40160006040518083038186803b1515610af057600080fd5b6102c65a03f41515610b0157600080fd5b5050505b60019091019061096d565b42600d555b505050505050565b6003610b2761072e565b8114156101035773__SortRLib______________________________63534e1918601760405160e060020a63ffffffff8416028152600481019190915260240160006040518083038186803b1515610b7e57600080fd5b6102c65a03f41515610b8f57600080fd5b505050610405565b60008060008060008060008060006004610baf61072e565b81141561010357610bbf8b610f5b565b600f54939a509198509650945073__TransactLib___________________________9063bc2e368c908860006040516020015260405160e060020a63ffffffff85160281526004810192909252602482015260440160206040518083038186803b1515610c2b57600080fd5b6102c65a03f41515610c3c57600080fd5b50505060405180516000808052600660205290995073__AdrLib________________________________9150632c2fc20e90600080516020611541833981519152908a906040516020015260405160e060020a63ffffffff85160281526004810192909252600160a060020a0316602482015260440160206040518083038186803b1515610cc957600080fd5b6102c65a03f41515610cda57600080fd5b5050506040518051905015610e725786600160a060020a0316630ff372828960006040516020015260405160e060020a63ffffffff84160281526004810191909152602401602060405180830381600087803b1515610d3857600080fd5b6102c65a03f11515610d4957600080fd5b5050506040518051600f80548290039081905542600b8190556001549296507fa8533a3e28bf00cd05018ed80847d3d6f170da084f6417da50798db7335ff9a09350600160a060020a03909216916040518084600160a060020a0316600160a060020a03168152602001838152602001828152602001935050505060405180910390a16011548302915060075473__TransactLib___________________________63e2992d299091848a3060006040516020015260405160e060020a63ffffffff871602815260048101949094526024840192909252600160a060020a03908116604484015216606482015260840160206040518083038186803b1515610e5057600080fd5b6102c65a03f41515610e6157600080fd5b505050604051805160075550610e77565b600092505b5095999098509650505050505050565b60015433600160a060020a039081169116141561010357600f81905542600b8190556001547fa8533a3e28bf00cd05018ed80847d3d6f170da084f6417da50798db7335ff9a091600160a060020a039091169083906040518084600160a060020a0316600160a060020a03168152602001838152602001828152602001935050505060405180910390a1610405565b6001610f2061072e565b8114156101035760015433600160a060020a039081169116141561010357600e54600f5483011115610f5157600080fd5b60108290555b5050565b600080808073__SortRLib______________________________6391871092601787846040516080015260405160e060020a63ffffffff85160281526004810192909252602482015260440160806040518083038186803b1515610fbe57600080fd5b6102c65a03f41515610fcf57600080fd5b5050506040518051906020018051906020018051906020018051905093509350935093509193509193565b600454600160a060020a031690565b60105490565b60005433600160a060020a0390811691161415610103576003805473ffffffffffffffffffffffffffffffffffffffff1916600160a060020a038316179055610405565b600080600261106061072e565b8114156101035773__SortPLib______________________________6332a76998601360405160e060020a63ffffffff8416028152600481019190915260240160006040518083038186803b15156110b757600080fd5b6102c65a03f415156110c857600080fd5b5050600354600160a060020a03161590506111dd5760035460009350839250600160a060020a03166398d5fdca83604051604001526040518163ffffffff1660e060020a0281526004016040805180830381600087803b151561112a57600080fd5b6102c65a03f1151561113b57600080fd5b5050506040518051906020018051600354929550935073__SortPLib______________________________9163c3af64529150601390600160a060020a0316868660405160e060020a63ffffffff87160281526004810194909452600160a060020a03909216602484015260448301521515606482015260840160006040518083038186803b15156111cc57600080fd5b6102c65a03f41515610b1557600080fd5b505050565b60005433600160a060020a039081169116141561010357600082815260066020526040902080546001810161121783826114e3565b506000918252602090912001805473ffffffffffffffffffffffffffffffffffffffff1916600160a060020a038316179055610f57565b6000806000600261125d61072e565b811415610103576000935083925073__SortPLib______________________________63e61f7934601360405160e060020a63ffffffff8416028152600481019190915260240160006040518083038186803b15156112bb57600080fd5b6102c65a03f415156112cc57600080fd5b505050600091505b600160005260066020526000805160206115218339815191525482101561145a576001600052600660205260008051602061152183398151915280548390811061131a57fe5b6000918252602082200154600160a060020a0316906398d5fdca90604051604001526040518163ffffffff1660e060020a0281526004016040805180830381600087803b151561136957600080fd5b6102c65a03f1151561137a57600080fd5b505050604051805190602001805160016000526006602052600080516020611521833981519152805493975090955073__SortPLib______________________________9263c3af6452925060139190869081106113d457fe5b600091825260209091200154600160a060020a0316878760405160e060020a63ffffffff87160281526004810194909452600160a060020a03909216602484015260448301521515606482015260840160006040518083038186803b151561143b57600080fd5b6102c65a03f4151561144c57600080fd5b5050600190920191506112d4565b42600c5550505050565b600161146e61072e565b8114156101035760015433600160a060020a0390811691161415610103576011839055601282905542600a8190557fae46785019700e30375a5d7b4f91e32f8060ef085111f896ebf889450aa2ab5a9060405190815260200160405180910390a16111dd565b600054600160a060020a031681565b8154818355818115116111dd576000838152602090206111dd91810190830161079591905b8082111561151c5760008155600101611508565b509056003e5fec24aa4dc4e5aee2e025e51e1392c72a2500577559fae9665c6d52bd6a3154cdd369e4e8a8515e52ca72ec816c2101831ad1f18bf44102ed171459c9b4f8a165627a7a72305820746866cda0d6acfa3e72cd33b159be5f82ff0d6a94a6c89c83d0f944ea25fade0029",
  "source": "pragma solidity ^0.4.4;\r\n\r\nimport \"./IBattery.sol\";\r\nimport \"./IPV.sol\";\r\nimport \"./IGrid.sol\";\r\nimport \"./IHouse.sol\";\r\nimport \"./GeneralDevice.sol\";\r\n\r\nimport \"./SortRLib.sol\";\r\nimport \"./SortPLib.sol\"; \r\nimport \"./AdrLib.sol\"; \r\nimport \"./TransactLib.sol\";\r\n\r\n\r\n//For simplicity, we do not use the sorting functions here, as in our configuration, there is only one battery and there's only one PV connected.  \r\n\r\ncontract SingleBattery is GeneralDevice, IBattery {\r\n  \r\n  using AdrLib for address[];\r\n  using TransactLib for *;\r\n  using SortPLib for *;\r\n  using SortRLib for *;\r\n\r\n  uint    capacity;                 // Cap of the device\r\n  uint    currentVolume;            // Production of electricity\r\n  uint    buyVolume;                // Amount of electricity that this battery would like to buy. Will first participate in the supply competition \r\n                                    //and will be finally (anyway) fulfilled b either the network or from the grid...\r\n  uint    priceForSale;\r\n  uint    priceForBuy;              // lower than market price (ForExcessEnergy)\r\n\r\n  SortPLib.PriceMap draftPriceMap;\r\n  SortRLib.RankMap draftRankMap;\r\n\r\n// ======= Modifiers =======\r\n\r\n// ======= Event Logs =======\r\n\r\n  event VolLog(address adr, uint vol, uint volAt);\r\n  //event ConfigurationLog(string confMod, uint statusAt);\r\n  event PriceUpdate(uint updateAt);\r\n\r\n// ======= Basic Functionalities =======\r\n\r\n  // --- 0. Upon contract creation and configuration ---\r\n\r\n  function SingleBattery (address adr,  uint cap) GeneralDevice(adr) {\r\n    capacity = cap;\r\n  }\r\n\r\n  function setVolume(uint vol) public ownerOnly {\r\n    // Can only be triggered once....Should be moved into the constructor...Once the initial volumne is set, can only be changed by energy trading.\r\n    currentVolume = vol;\r\n    volStatusAt = now;\r\n    VolLog(owner,vol,volStatusAt);\r\n  }\r\n\r\n  // --- 1. set and get the active purchase volume (if battery wants) and selling price every 15 min (or less) ---\r\n\r\n  function setPrice(uint prsSale, uint prsBuy) public timed(1) ownerOnly {\r\n    priceForSale = prsSale;\r\n    priceForBuy = prsBuy;\r\n    priceStatusAt = now;\r\n    PriceUpdate(priceStatusAt);\r\n  }\r\n\r\n  function getSalePrice() public view returns (uint prs, bool updatedOrNot) { // connectedHouseOnly external\r\n    prs = priceForSale;\r\n    //prsAt = priceStatusAt;\r\n    if (priceStatusAt + priceTimeOut < now) {\r\n      updatedOrNot = false;\r\n    } else {\r\n      updatedOrNot = true;\r\n    }\r\n    //adr = owner;\r\n  }\r\n\r\n  function setBuyVolume(uint v) public timed(1) ownerOnly {\r\n    require(currentVolume + v <= capacity);\r\n    buyVolume = v;\r\n  }\r\n\r\n  function getVolumeCapacity () external view returns (uint vol, uint volAt, uint cap) { // timed(initTime,volTimeOut) \r\n    vol = currentVolume;\r\n    volAt = volStatusAt;\r\n    cap = capacity;\r\n  }\r\n\r\n  // --- 2. Battery can be considered as a house if it wants to actively purchase energy. --- \r\n  // ---    Ask for connected PV / batteries / grid for price of electricity supply. --- \r\n  // ---    Sort the list of offers. --- \r\n\r\n  function askForPrice() timed(2) {\r\n    // Battery query price info to all the connected PV/Battery. \r\n    uint tP = 0;\r\n    bool tF = false;\r\n    draftPriceMap.initPrsTable();\r\n    for (uint i = 0; i < connectedDevice[1].length; i++) {\r\n      (tP,tF) = IPV(connectedDevice[1][i]).getPrice();\r\n      draftPriceMap.addToPrsTable(connectedDevice[1][i],tP,tF);\r\n    }\r\n    lastPriceQueryAt = now;\r\n  }\r\n\r\n  function sortPrice() timed(2) {\r\n    draftPriceMap.sortPrsTable();\r\n    // if the grid is connected -> add the price from the grid to the end of the sorted list \r\n    if (grid != 0x0) {\r\n      uint tP = 0;\r\n      bool tF = false;\r\n      (tP,tF) = IGrid(grid).getPrice();\r\n      draftPriceMap.addToPrsTable(grid,tP,tF);\r\n    }\r\n  }\r\n\r\n  function getSortedPrice() external view returns(uint consum, uint rank, uint tot, bool updated) {\r\n    consum = buyVolume;\r\n    (rank,tot,updated) = draftPriceMap.getPrsTable(msg.sender);\r\n  }\r\n\r\n  // --- 3. Battery can also provide energy to houses. --- \r\n  // ---    Sort the list of ranks. --- \r\n\r\n  function askForRank() timed(3) {\r\n    uint consum;\r\n    uint rank;\r\n    uint tot;\r\n    bool updated;\r\n    draftRankMap.initRnkTable();\r\n    for (uint i = 0; i < connectedDevice[0].length; i++) {\r\n      (consum, rank, tot, updated) = IHouse(connectedDevice[0][i]).getSortedPrice();\r\n      if (updated) {\r\n        draftRankMap.addToRnkTable(connectedDevice[0][i],consum, rank, tot);\r\n      }\r\n    }\r\n    lastRankingAt = now;\r\n  }\r\n\r\n  function sortRank() timed(3) {\r\n    draftRankMap.sortRnkTable();\r\n  }\r\n\r\n  function getSortedRank(uint _id) returns(address adr, uint consum, uint rank, uint tot) {\r\n    return draftRankMap.getSortedList(_id);\r\n  }\r\n\r\n  /*//  for test \r\n\r\n  function getDraftPrsMap(address adr) public view returns (uint, bool) {\r\n    return (draftPriceMap.prsTable[adr].prs, draftPriceMap.prsTable[adr].updated);\r\n  }\r\n\r\n  function getSrtList(uint a) public returns(address, uint, bool) { //address, uint, bool\r\n    return draftPriceMap.getSortedList(a);\r\n  }*/\r\n\r\n\r\n  // --- 4. PV/Battery/Grid asks Battery to confirm energy transaction ---\r\n\r\n  function goNoGo(uint giveoutvol) returns (uint) {\r\n    address adrDevice = msg.sender;\r\n    uint takeoutvol;\r\n    require(connectedDevice[1].assertInside(adrDevice) || adrDevice == grid);\r\n    takeoutvol = buyVolume.findMin(giveoutvol);\r\n    currentVolume += takeoutvol;\r\n    volStatusAt = now;\r\n    VolLog(owner,currentVolume,volStatusAt);\r\n    buyVolume = buyVolume.clearEnergyTransfer(takeoutvol, address(this));\r\n    wallet -= int(takeoutvol*draftPriceMap.prsTable[adrDevice].prs);\r\n    return (takeoutvol); \r\n  }\r\n\r\n  function goExcess(uint vol) returns (uint takeVol, uint prs) {\r\n    prs = priceForBuy;\r\n    takeVol = vol.findMin(capacity-currentVolume);\r\n    currentVolume = currentVolume.clearExcessTransfer(takeVol, address(this));\r\n    wallet -= int(takeVol*prs);\r\n  }\r\n\r\n\r\n  function getBuyVol() returns (uint) {return buyVolume;}\r\n\r\n  \r\n  function initiateTransaction(uint _id) timed(4) returns (uint, uint) {\r\n    uint giveoutVol;\r\n    address adr;\r\n    uint consum;\r\n    uint rank;\r\n    uint tot;\r\n\r\n    uint whatDeviceAccept;\r\n    uint receivedMoney;\r\n    //for (uint i = 0; i < rLength; i++) {\r\n      (adr,consum,rank,tot) = getSortedRank(_id);//sortedRankingInfo[_id];\r\n      giveoutVol = currentVolume.findMin(consum);\r\n      if (connectedDevice[0].assertInside(adr)) {\r\n        whatDeviceAccept = IHouse(adr).goNoGo(giveoutVol);\r\n        //setVolume(currentVolume-whatDeviceAccept);\r\n        currentVolume -= whatDeviceAccept;\r\n        volStatusAt = now;\r\n        VolLog(owner,currentVolume,volStatusAt);\r\n        receivedMoney = whatDeviceAccept*priceForSale;\r\n        wallet = wallet.clearMoneyTransfer(receivedMoney,adr, address(this));\r\n      } else {\r\n        whatDeviceAccept = 0; \r\n      }\r\n      return(giveoutVol, whatDeviceAccept);\r\n    //}\r\n  }\r\n\r\n\r\n\r\n}\r\n",
  "sourcePath": "C:\\Users\\qianc\\Documents\\Thesis\\Code\\SimpleMonitor\\contracts\\SingleBattery.sol",
  "compiler": {
    "name": "solc",
    "version": "0.4.18+commit.9cf6e910.Emscripten.clang"
  },
  "schemaVersion": "1.0.1",
  "updatedAt": "2017-11-29T00:04:15.624Z"
}