{
  "contractName": "SinglePV",
  "abi": [
    {
      "constant": false,
      "inputs": [],
      "name": "getWallet",
      "outputs": [
        {
          "name": "",
          "type": "int256"
        }
      ],
      "payable": false,
      "stateMutability": "nonpayable",
      "type": "function"
    },
    {
      "constant": false,
      "inputs": [],
      "name": "askForRank",
      "outputs": [],
      "payable": false,
      "stateMutability": "nonpayable",
      "type": "function"
    },
    {
      "constant": false,
      "inputs": [],
      "name": "sortRank",
      "outputs": [],
      "payable": false,
      "stateMutability": "nonpayable",
      "type": "function"
    },
    {
      "constant": false,
      "inputs": [
        {
          "name": "_id",
          "type": "uint256"
        }
      ],
      "name": "initiateTransaction",
      "outputs": [
        {
          "name": "",
          "type": "uint256"
        },
        {
          "name": "",
          "type": "uint256"
        }
      ],
      "payable": false,
      "stateMutability": "nonpayable",
      "type": "function"
    },
    {
      "constant": false,
      "inputs": [
        {
          "name": "produc",
          "type": "uint256"
        }
      ],
      "name": "setProduction",
      "outputs": [],
      "payable": false,
      "stateMutability": "nonpayable",
      "type": "function"
    },
    {
      "constant": false,
      "inputs": [],
      "name": "sellExcess",
      "outputs": [],
      "payable": false,
      "stateMutability": "nonpayable",
      "type": "function"
    },
    {
      "constant": false,
      "inputs": [
        {
          "name": "_id",
          "type": "uint256"
        }
      ],
      "name": "getSortedRank",
      "outputs": [
        {
          "name": "adr",
          "type": "address"
        },
        {
          "name": "consum",
          "type": "uint256"
        },
        {
          "name": "rank",
          "type": "uint256"
        },
        {
          "name": "tot",
          "type": "uint256"
        }
      ],
      "payable": false,
      "stateMutability": "nonpayable",
      "type": "function"
    },
    {
      "constant": false,
      "inputs": [
        {
          "name": "adr",
          "type": "address"
        }
      ],
      "name": "setGridAdr",
      "outputs": [],
      "payable": false,
      "stateMutability": "nonpayable",
      "type": "function"
    },
    {
      "constant": true,
      "inputs": [],
      "name": "getProduction",
      "outputs": [
        {
          "name": "prod",
          "type": "uint256"
        },
        {
          "name": "prodAt",
          "type": "uint256"
        }
      ],
      "payable": false,
      "stateMutability": "view",
      "type": "function"
    },
    {
      "constant": false,
      "inputs": [
        {
          "name": "prs",
          "type": "uint256"
        }
      ],
      "name": "setPrice",
      "outputs": [],
      "payable": false,
      "stateMutability": "nonpayable",
      "type": "function"
    },
    {
      "constant": true,
      "inputs": [],
      "name": "getPrice",
      "outputs": [
        {
          "name": "prs",
          "type": "uint256"
        },
        {
          "name": "updatedOrNot",
          "type": "bool"
        }
      ],
      "payable": false,
      "stateMutability": "view",
      "type": "function"
    },
    {
      "constant": false,
      "inputs": [
        {
          "name": "a",
          "type": "uint256"
        },
        {
          "name": "adr",
          "type": "address"
        }
      ],
      "name": "addConnectedDevice",
      "outputs": [],
      "payable": false,
      "stateMutability": "nonpayable",
      "type": "function"
    },
    {
      "constant": true,
      "inputs": [],
      "name": "Admin",
      "outputs": [
        {
          "name": "",
          "type": "address"
        }
      ],
      "payable": false,
      "stateMutability": "view",
      "type": "function"
    },
    {
      "inputs": [
        {
          "name": "adr",
          "type": "address"
        }
      ],
      "payable": false,
      "stateMutability": "nonpayable",
      "type": "constructor"
    },
    {
      "anonymous": false,
      "inputs": [
        {
          "indexed": false,
          "name": "adr",
          "type": "address"
        },
        {
          "indexed": false,
          "name": "produc",
          "type": "uint256"
        },
        {
          "indexed": false,
          "name": "prodAt",
          "type": "uint256"
        }
      ],
      "name": "ProductionLog",
      "type": "event"
    },
    {
      "anonymous": false,
      "inputs": [
        {
          "indexed": false,
          "name": "confMod",
          "type": "string"
        },
        {
          "indexed": false,
          "name": "statusAt",
          "type": "uint256"
        }
      ],
      "name": "ConfigurationLog",
      "type": "event"
    },
    {
      "anonymous": false,
      "inputs": [
        {
          "indexed": false,
          "name": "updateAt",
          "type": "uint256"
        }
      ],
      "name": "PriceUpdate",
      "type": "event"
    }
  ],
  "bytecode": "0x606060405260038054600160a060020a031916905561012c6006819055600755341561002a57600080fd5b6040516020806110878339810160405280805160018054600160a060020a03928316600160a060020a03199182161790915560008054339093169290911691909117905550506110088061007f6000396000f3006060604052600436106100ab5763ffffffff60e060020a6000350416631329960481146100b05780633d7224dc146100d55780633d859507146100ea5780633fd2007d146100fd578063567cc2b61461012b57806367a2829d146101415780636b608223146101545780638d646b11146101a75780638e4dfebb146101c657806391b7f5ed146101d957806398d5fdca146101ef578063bfd119031461021c578063ff1b636d1461023e575b600080fd5b34156100bb57600080fd5b6100c361026d565b60405190815260200160405180910390f35b34156100e057600080fd5b6100e8610274565b005b34156100f557600080fd5b6100e8610635565b341561010857600080fd5b61011360043561069b565b60405191825260208201526040908101905180910390f35b341561013657600080fd5b6100e86004356109fe565b341561014c57600080fd5b6100e8610a8c565b341561015f57600080fd5b61016a600435610d79565b6040518085600160a060020a0316600160a060020a0316815260200184815260200183815260200182815260200194505050505060405180910390f35b34156101b257600080fd5b6100e8600160a060020a0360043516610e18565b34156101d157600080fd5b610113610e5c565b34156101e457600080fd5b6100e8600435610e66565b34156101fa57600080fd5b610202610ec0565b604051918252151560208201526040908101905180910390f35b341561022757600080fd5b6100e8600435600160a060020a0360243516610ee5565b341561024957600080fd5b610251610f50565b604051600160a060020a03909116815260200160405180910390f35b600b545b90565b60008080808073__SortRLib______________________________63e6f37de9600e60405160e060020a63ffffffff8416028152600481019190915260240160006040518083038186803b15156102ca57600080fd5b6102c65a03f415156102db57600080fd5b505050600090505b600080526005602052600080516020610fbd8339815191525481101561048357600080526005602052600080516020610fbd83398151915280548290811061032757fe5b6000918252602082200154600160a060020a031690631b45f0e090604051608001526040518163ffffffff1660e060020a028152600401608060405180830381600087803b151561037757600080fd5b6102c65a03f1151561038857600080fd5b5050506040518051906020018051906020018051906020018051939850919650945090925050811561047b57600080526005602052600080516020610fbd833981519152805473__SortRLib______________________________9163ef61a13991600e9190859081106103f857fe5b600091825260209091200154600160a060020a031688888860405160e060020a63ffffffff88160281526004810195909552600160a060020a03909316602485015260448401919091526064830152608482015260a40160006040518083038186803b151561046657600080fd5b6102c65a03f4151561047757600080fd5b5050505b6001016102e3565b5060005b60026000526005602052600080516020610f9d8339815191525481101561062a5760026000526005602052600080516020610f9d8339815191528054829081106104cd57fe5b6000918252602082200154600160a060020a031690631b45f0e090604051608001526040518163ffffffff1660e060020a028152600401608060405180830381600087803b151561051d57600080fd5b6102c65a03f1151561052e57600080fd5b505050604051805190602001805190602001805190602001805193985091965094509092505081156106225760026000526005602052600080516020610f9d833981519152805473__SortRLib______________________________9163ef61a13991600e91908590811061059f57fe5b600091825260209091200154600160a060020a031688888860405160e060020a63ffffffff88160281526004810195909552600160a060020a03909316602485015260448401919091526064830152608482015260a40160006040518083038186803b151561060d57600080fd5b6102c65a03f4151561061e57600080fd5b5050505b600101610487565b505042600a55505050565b73__SortRLib______________________________63534e1918600e60405160e060020a63ffffffff8416028152600481019190915260240160006040518083038186803b151561068557600080fd5b6102c65a03f4151561069657600080fd5b505050565b60008060008060008060008060006106b28a610d79565b600c549399509197509550935073__TransactLib___________________________9063bc2e368c908760006040516020015260405160e060020a63ffffffff85160281526004810192909252602482015260440160206040518083038186803b151561071e57600080fd5b6102c65a03f4151561072f57600080fd5b505050604051805160026000908152600560205290985073__AdrLib________________________________9150632c2fc20e90600080516020610f9d8339815191529089906040516020015260405160e060020a63ffffffff85160281526004810192909252600160a060020a0316602482015260440160206040518083038186803b15156107be57600080fd5b6102c65a03f415156107cf57600080fd5b50505060405180519050156108f95785600160a060020a0316630ff372828860006040516020015260405160e060020a63ffffffff84160281526004810191909152602401602060405180830381600087803b151561082d57600080fd5b6102c65a03f1151561083e57600080fd5b5050506040518051600c80548290039055600d54600b549194508402925073__TransactLib___________________________915063e2992d299083893060006040516020015260405160e060020a63ffffffff871602815260048101949094526024840192909252600160a060020a03908116604484015216606482015260840160206040518083038186803b15156108d757600080fd5b6102c65a03f415156108e857600080fd5b5050506040518051600b55506109ee565b6000808052600560205273__AdrLib________________________________90632c2fc20e90600080516020610fbd8339815191529089906040516020015260405160e060020a63ffffffff85160281526004810192909252600160a060020a0316602482015260440160206040518083038186803b151561097a57600080fd5b6102c65a03f4151561098b57600080fd5b50505060405180519050156109e95785600160a060020a0316630ff372828860006040516020015260405160e060020a63ffffffff84160281526004810191909152602401602060405180830381600087803b151561082d57600080fd5b600091505b5094989497509395505050505050565b60015433600160a060020a03908116911614156100ab57600c8190554260098190556001547fdf963fee409850630585bd095a505a9a956ef373cd706eb6eddec02d0a36731991600160a060020a039091169083906040518084600160a060020a0316600160a060020a03168152602001838152602001828152602001935050505060405180910390a15b50565b600080600080600080600c541115610d725760026000526005602052600080516020610f9d8339815191525415610c41575060005b60026000526005602052600080516020610f9d83398151915254811015610c3c5760026000526005602052600080516020610f9d833981519152805482908110610b0757fe5b6000918252602082200154600c54600160a060020a03909116935083916335f7f5e291906040516040015260405160e060020a63ffffffff841602815260048101919091526024016040805180830381600087803b1515610b6757600080fd5b6102c65a03f11515610b7857600080fd5b5050506040518051906020018051600c80548490039055600b549297508781029650945073__TransactLib___________________________9163e2992d29915086853060006040516020015260405160e060020a63ffffffff871602815260048101949094526024840192909252600160a060020a03908116604484015216606482015260840160206040518083038186803b1515610c1757600080fd5b6102c65a03f41515610c2857600080fd5b5050506040518051600b5550600101610ac1565b610d72565b600354600c54600160a060020a03909116906335f7f5e29060006040516040015260405160e060020a63ffffffff841602815260048101919091526024016040805180830381600087803b1515610c9757600080fd5b6102c65a03f11515610ca857600080fd5b5050506040518051906020018051600c80548490039055600b54600354939850888202975090955073__TransactLib___________________________9263e2992d2992508790600160a060020a03163060006040516020015260405160e060020a63ffffffff871602815260048101949094526024840192909252600160a060020a03908116604484015216606482015260840160206040518083038186803b1515610d5457600080fd5b6102c65a03f41515610d6557600080fd5b5050506040518051600b55505b5050505050565b600080808073__SortRLib______________________________6391871092600e87846040516080015260405160e060020a63ffffffff85160281526004810192909252602482015260440160806040518083038186803b1515610ddc57600080fd5b6102c65a03f41515610ded57600080fd5b5050506040518051906020018051906020018051906020018051905093509350935093509193509193565b60005433600160a060020a03908116911614156100ab576003805473ffffffffffffffffffffffffffffffffffffffff1916600160a060020a038316179055610a89565b600c546009549091565b60015433600160a060020a03908116911614156100ab57600d8190554260088190557fae46785019700e30375a5d7b4f91e32f8060ef085111f896ebf889450aa2ab5a9060405190815260200160405180910390a1610a89565b600d546007546008546000914291011015610edd57506000610ee1565b5060015b9091565b60005433600160a060020a03908116911614156100ab576000828152600560205260409020805460018101610f1a8382610f5f565b506000918252602090912001805473ffffffffffffffffffffffffffffffffffffffff1916600160a060020a0383161790555050565b600054600160a060020a031681565b8154818355818115116106965760008381526020902061069691810190830161027191905b80821115610f985760008155600101610f84565b5090560089832631fb3c3307a103ba2c84ab569c64d6182a18893dcd163f0f1c2090733a05b8ccbb9d4d8fb16ea74ce3c29a41f1b461fbdaff4714a0d9a8eb05499746bca165627a7a72305820e33869bdcbea9a04c0b55cb892837f0b2bd7e1bb80cbc3b5cbfaa8fd6aa85a340029",
  "source": "pragma solidity ^0.4.4;\r\n\r\nimport \"./IPV.sol\";\r\nimport \"./IHouse.sol\";\r\nimport \"./IBattery.sol\";\r\nimport \"./IGrid.sol\";\r\nimport \"./SortRLib.sol\";\r\nimport \"./AdrLib.sol\";\r\nimport \"./TransactLib.sol\";\r\nimport \"./GeneralDevice.sol\";\r\n\r\ncontract SinglePV is GeneralDevice, IPV {\r\n  \r\n  using AdrLib for address[];\r\n  using TransactLib for *;\r\n  using SortRLib for *;\r\n\r\n  // one contract is associated to one particular PV panel in the network.\r\n  // later we need to modify the parent contract that creates each PV contract - configuration.sol\r\n\r\n  uint    production;               // Production of electricity (supply: negative)\r\n  uint    price;\r\n\r\n  SortRLib.RankMap draftRankMap;\r\n\r\n// ======= Modifiers =======\r\n\r\n  modifier timed (uint initialTime, uint allowedTimeOut){\r\n    if(now < initialTime + allowedTimeOut){\r\n      _;\r\n    } else {\r\n      revert();\r\n    }\r\n  }\r\n\r\n// ======= Event Logs =======\r\n\r\n  event ProductionLog(address adr, uint produc, uint prodAt);\r\n  event ConfigurationLog(string confMod, uint statusAt);\r\n  event PriceUpdate(uint updateAt);\r\n  \r\n// ======= Basic Functionalities =======\r\n\r\n  // --- 0. Upon contract creation and configuration ---\r\n\r\n  function SinglePV(address adr) GeneralDevice(adr) { }\r\n\r\n  // --- 1. set and get PV price & production every 15 min (or less) ---\r\n\r\n  function setProduction(uint produc) public ownerOnly {\r\n    production = produc;\r\n    prodStatusAt = now;\r\n    ProductionLog(owner, production, prodStatusAt);\r\n  }\r\n\r\n  function setPrice(uint prs) public ownerOnly {\r\n    price = prs;\r\n    priceStatusAt = now;\r\n    PriceUpdate(now);\r\n  }\r\n\r\n  function getProduction() external view returns (uint prod, uint prodAt) {//timed(queryTime,prodTimeOut)\r\n    prod = production;\r\n    prodAt = prodStatusAt;\r\n  }\r\n\r\n  function getPrice() public view returns (uint prs, bool updatedOrNot) { //connectedHouseOnly external\r\n    prs = price;\r\n    //prsAt = priceStatusAt;\r\n    if (priceStatusAt + priceTimeOut < now) {\r\n      updatedOrNot = false;\r\n    } else {\r\n      updatedOrNot = true;\r\n    }\r\n    //adr = owner;\r\n  }\r\n\r\n  // --- 3. PV can provide energy to houses. --- \r\n  // ---    Sort the list of ranks. --- \r\n\r\n  function askForRank() {\r\n    uint consum;\r\n    uint rank;\r\n    uint tot;\r\n    bool updated;\r\n    draftRankMap.initRnkTable();\r\n    for (uint i = 0; i < connectedDevice[0].length; i++) {\r\n      (consum, rank, tot, updated) = IHouse(connectedDevice[0][i]).getSortedPrice();\r\n      if (updated) {\r\n        draftRankMap.addToRnkTable(connectedDevice[0][i],consum, rank, tot);\r\n      }\r\n    }\r\n    for (i = 0; i < connectedDevice[2].length; i++) {\r\n      (consum,rank,tot,updated) = IBattery(connectedDevice[2][i]).getSortedPrice();\r\n      if (updated) {\r\n        draftRankMap.addToRnkTable(connectedDevice[2][i],consum, rank, tot);\r\n      }\r\n    }\r\n    lastRankingAt = now;\r\n  }\r\n\r\n  function sortRank() {\r\n    draftRankMap.sortRnkTable();\r\n    /*\r\n    // In case there is still excess, need to ask connectedBattery to buy for the extra...as much as possible\r\n    if (connectedBattery.length != 0) {\r\n      for (i=0; i<connectedBattery.length; i++) {\r\n        uint prs = 0;\r\n        uint cap = 0;\r\n        (prs, cap) = IBattery(grid).getExcess();\r\n      \r\n      }\r\n    }\r\n    // if the grid is connected -> add the price from the grid to the end of the sorted list \r\n    if (grid != 0x0) {\r\n      uint tP = 0;\r\n      bool tF = false;\r\n      (tP,tF) = IGrid(grid).getPrice();\r\n      setPriceQueryInfo(grid,tP,tF);\r\n      sortedPriceQueryInfo[num] = grid;\r\n    }*/\r\n  }\r\n\r\n  function getSortedRank(uint _id) returns(address adr, uint consum, uint rank, uint tot) {\r\n    return draftRankMap.getSortedList(_id);\r\n  }\r\n \r\n  // --- 4. Initiate e transaction --- \r\n  \r\n  function initiateTransaction(uint _id) returns (uint, uint) {\r\n    uint giveoutVol;\r\n    address adr;\r\n    uint consum;\r\n    uint rank;\r\n    uint tot;\r\n    uint whatDeviceAccept;\r\n    uint receivedMoney;\r\n    //for (uint i = 0; i < rLength; i++) {\r\n      //adr = sortedRankingInfo[_id];\r\n      (adr,consum,rank,tot) = getSortedRank(_id);\r\n      giveoutVol = production.findMin(consum);\r\n      if (connectedDevice[2].assertInside(adr)) {\r\n        whatDeviceAccept = IBattery(adr).goNoGo(giveoutVol);\r\n        production -= whatDeviceAccept;\r\n        receivedMoney = whatDeviceAccept*price;\r\n        wallet = wallet.clearMoneyTransfer(receivedMoney,adr, address(this));\r\n      } else if (connectedDevice[0].assertInside(adr)) {\r\n        whatDeviceAccept = IHouse(adr).goNoGo(giveoutVol);\r\n        production -= whatDeviceAccept;\r\n        receivedMoney = whatDeviceAccept*price;\r\n        wallet = wallet.clearMoneyTransfer(receivedMoney,adr, address(this));\r\n      } else {\r\n        whatDeviceAccept = 0; \r\n      }\r\n      return(giveoutVol, whatDeviceAccept);\r\n    //}\r\n  }\r\n\r\n  function sellExcess() {\r\n    // after all, if there's still excess and the connected Battery still have the capacity.\r\n    uint whatDeviceAccept;\r\n    uint receivedMoney;\r\n    uint unitPrs;\r\n    address adr;\r\n    if (production > 0) {\r\n      //ToBattery\r\n      if (connectedDevice[2].length != 0) {\r\n        for (uint i = 0; i < connectedDevice[2].length; i++) {\r\n          adr = connectedDevice[2][i];\r\n          (whatDeviceAccept, unitPrs) = IBattery(adr).goExcess(production);\r\n          production -= whatDeviceAccept;\r\n          receivedMoney = whatDeviceAccept*unitPrs;\r\n          wallet = wallet.clearMoneyTransfer(receivedMoney,adr, address(this));\r\n        }\r\n      } else {\r\n        //ToGrid (by default, it's connected to grid)\r\n        (whatDeviceAccept, unitPrs) = IGrid(grid).goExcess(production);\r\n        production -= whatDeviceAccept;\r\n        receivedMoney = whatDeviceAccept*unitPrs;\r\n        wallet = wallet.clearMoneyTransfer(receivedMoney,grid, address(this));\r\n      }\r\n    }\r\n  }\r\n\r\n\r\n}\r\n",
  "sourcePath": "C:\\Users\\qianc\\Documents\\Thesis\\Code\\SimpleMonitor\\contracts\\SinglePV.sol",
  "compiler": {
    "name": "solc",
    "version": "0.4.18+commit.9cf6e910.Emscripten.clang"
  },
  "schemaVersion": "1.0.1",
  "updatedAt": "2017-11-28T18:47:31.337Z"
}