{
  "contractName": "SingleHouse",
  "abi": [
    {
      "constant": false,
      "inputs": [
        {
          "name": "giveoutvol",
          "type": "uint256"
        }
      ],
      "name": "goNoGo",
      "outputs": [
        {
          "name": "",
          "type": "uint256"
        }
      ],
      "payable": false,
      "stateMutability": "nonpayable",
      "type": "function"
    },
    {
      "constant": true,
      "inputs": [],
      "name": "getWallet",
      "outputs": [
        {
          "name": "",
          "type": "int256"
        }
      ],
      "payable": false,
      "stateMutability": "view",
      "type": "function"
    },
    {
      "constant": false,
      "inputs": [],
      "name": "getSortedPrice",
      "outputs": [
        {
          "name": "consum",
          "type": "uint256"
        },
        {
          "name": "rank",
          "type": "uint256"
        },
        {
          "name": "tot",
          "type": "uint256"
        },
        {
          "name": "updated",
          "type": "bool"
        }
      ],
      "payable": false,
      "stateMutability": "nonpayable",
      "type": "function"
    },
    {
      "constant": false,
      "inputs": [],
      "name": "buyExtra",
      "outputs": [],
      "payable": false,
      "stateMutability": "nonpayable",
      "type": "function"
    },
    {
      "constant": false,
      "inputs": [
        {
          "name": "consum",
          "type": "uint256"
        }
      ],
      "name": "setConsumption",
      "outputs": [],
      "payable": false,
      "stateMutability": "nonpayable",
      "type": "function"
    },
    {
      "constant": true,
      "inputs": [],
      "name": "getConsumption",
      "outputs": [
        {
          "name": "consum",
          "type": "uint256"
        },
        {
          "name": "consumAt",
          "type": "uint256"
        }
      ],
      "payable": false,
      "stateMutability": "view",
      "type": "function"
    },
    {
      "constant": false,
      "inputs": [
        {
          "name": "adr",
          "type": "address"
        }
      ],
      "name": "setGridAdr",
      "outputs": [],
      "payable": false,
      "stateMutability": "nonpayable",
      "type": "function"
    },
    {
      "constant": false,
      "inputs": [],
      "name": "sortPrice",
      "outputs": [],
      "payable": false,
      "stateMutability": "nonpayable",
      "type": "function"
    },
    {
      "constant": false,
      "inputs": [
        {
          "name": "a",
          "type": "uint256"
        },
        {
          "name": "adr",
          "type": "address"
        }
      ],
      "name": "addConnectedDevice",
      "outputs": [],
      "payable": false,
      "stateMutability": "nonpayable",
      "type": "function"
    },
    {
      "constant": false,
      "inputs": [],
      "name": "askForPrice",
      "outputs": [],
      "payable": false,
      "stateMutability": "nonpayable",
      "type": "function"
    },
    {
      "constant": true,
      "inputs": [],
      "name": "Admin",
      "outputs": [
        {
          "name": "",
          "type": "address"
        }
      ],
      "payable": false,
      "stateMutability": "view",
      "type": "function"
    },
    {
      "inputs": [
        {
          "name": "adr",
          "type": "address"
        }
      ],
      "payable": false,
      "stateMutability": "nonpayable",
      "type": "constructor"
    },
    {
      "anonymous": false,
      "inputs": [
        {
          "indexed": false,
          "name": "adr",
          "type": "address"
        },
        {
          "indexed": false,
          "name": "consum",
          "type": "uint256"
        },
        {
          "indexed": false,
          "name": "consumAt",
          "type": "uint256"
        }
      ],
      "name": "ConsumptionLog",
      "type": "event"
    },
    {
      "anonymous": false,
      "inputs": [
        {
          "indexed": false,
          "name": "adrFrom",
          "type": "address"
        },
        {
          "indexed": false,
          "name": "adrTo",
          "type": "address"
        },
        {
          "indexed": false,
          "name": "eVol",
          "type": "uint256"
        },
        {
          "indexed": false,
          "name": "transferAt",
          "type": "uint256"
        }
      ],
      "name": "EnergyTransferLog",
      "type": "event"
    }
  ],
  "bytecode": "0x606060405260038054600160a060020a031916905561012c600755341561002557600080fd5b604051602080610e138339810160405280805160018054600160a060020a03928316600160a060020a0319918216179091556000805433909316929091169190911790555050610d998061007a6000396000f3006060604052600436106100955763ffffffff60e060020a6000350416630ff37282811461009a57806313299604146100c25780631b45f0e0146100d55780633acca96d146101145780635a500ecc146101295780638a5cb1b61461013f5780638d646b111461016a578063aac12b4b14610189578063bfd119031461019c578063c9746029146101be578063ff1b636d146101d1575b600080fd5b34156100a557600080fd5b6100b0600435610200565b60405190815260200160405180910390f35b34156100cd57600080fd5b6100b061048a565b34156100e057600080fd5b6100e8610491565b604051938452602084019290925260408084019190915290151560608301526080909101905180910390f35b341561011f57600080fd5b610127610536565b005b341561013457600080fd5b610127600435610681565b341561014a57600080fd5b61015261070f565b60405191825260208201526040908101905180910390f35b341561017557600080fd5b610127600160a060020a0360043516610730565b341561019457600080fd5b610127610774565b34156101a757600080fd5b610127600435600160a060020a03602435166108f5565b34156101c957600080fd5b610127610961565b34156101dc57600080fd5b6101e4610ce1565b604051600160a060020a03909116815260200160405180910390f35b600260009081526005602052338173__AdrLib________________________________632c2fc20e600080516020610d4e83398151915284846040516020015260405160e060020a63ffffffff85160281526004810192909252600160a060020a0316602482015260440160206040518083038186803b151561028257600080fd5b6102c65a03f4151561029357600080fd5b5050506040518051905080610342575060016000908152600560205273__AdrLib________________________________90632c2fc20e90600080516020610d2e8339815191529085906040516020015260405160e060020a63ffffffff85160281526004810192909252600160a060020a0316602482015260440160206040518083038186803b151561032657600080fd5b6102c65a03f4151561033757600080fd5b505050604051805190505b151561034d57600080fd5b60065473__TransactLib___________________________63bc2e368c90918660006040516020015260405160e060020a63ffffffff85160281526004810192909252602482015260440160206040518083038186803b15156103af57600080fd5b6102c65a03f415156103c057600080fd5b50505060405180519050905060065473__TransactLib___________________________639e5fd0a99091833060006040516020015260405160e060020a63ffffffff861602815260048101939093526024830191909152600160a060020a0316604482015260640160206040518083038186803b151561044057600080fd5b6102c65a03f4151561045157600080fd5b505050604051805160065550600160a060020a0382166000908152600a6020526040902054600480549183029091039055915050919050565b6004545b90565b600654600080803373__SortPLib______________________________63c6742457600a83856040516060015260405160e060020a63ffffffff85160281526004810192909252600160a060020a0316602482015260440160606040518083038186803b151561050057600080fd5b6102c65a03f4151561051157600080fd5b5050506040518051906020018051906020018051979892979196509094509092505050565b60035460009081908190600160a060020a0316151561055457600080fd5b6000600654111561067c57600354600654600160a060020a0390911690636e2855449060006040516040015260405160e060020a63ffffffff841602815260048101919091526024016040805180830381600087803b15156105b557600080fd5b6102c65a03f115156105c657600080fd5b5050506040518051906020018051600654929550925073__TransactLib___________________________91639e5fd0a99150853060006040516020015260405160e060020a63ffffffff861602815260048101939093526024830191909152600160a060020a0316604482015260640160206040518083038186803b151561064e57600080fd5b6102c65a03f4151561065f57600080fd5b505050604051805160065550600480548483029081900390915591505b505050565b60015433600160a060020a03908116911614156100955760068190554260088190556001547f93e0cabaa551645c58979b9f1e87af3e09f708241c9bdd6468e581ad0651692691600160a060020a039091169083906040518084600160a060020a0316600160a060020a03168152602001838152602001828152602001935050505060405180910390a15b50565b60008060075480600854014210156100955760065492506008549150509091565b60005433600160a060020a0390811691161415610095576003805473ffffffffffffffffffffffffffffffffffffffff1916600160a060020a03831617905561070c565b60008073__SortPLib______________________________6332a76998600a60405160e060020a63ffffffff8416028152600481019190915260240160006040518083038186803b15156107c757600080fd5b6102c65a03f415156107d857600080fd5b5050600354600160a060020a03161590506108f15750506003546000908190600160a060020a03166398d5fdca82604051604001526040518163ffffffff1660e060020a0281526004016040805180830381600087803b151561083a57600080fd5b6102c65a03f1151561084b57600080fd5b5050506040518051906020018051600354929450925073__SortPLib______________________________9163c3af64529150600a90600160a060020a0316858560405160e060020a63ffffffff87160281526004810194909452600160a060020a03909216602484015260448301521515606482015260840160006040518083038186803b15156108dc57600080fd5b6102c65a03f415156108ed57600080fd5b5050505b5050565b60005433600160a060020a039081169116141561009557600082815260056020526040902080546001810161092a8382610cf0565b506000918252602090912001805473ffffffffffffffffffffffffffffffffffffffff1916600160a060020a0383161790556108f1565b6000808073__SortPLib______________________________63e61f7934600a60405160e060020a63ffffffff8416028152600481019190915260240160006040518083038186803b15156109b557600080fd5b6102c65a03f415156109c657600080fd5b505050600090505b60026000526005602052600080516020610d4e83398151915254811015610b515760026000526005602052600080516020610d4e833981519152805482908110610a1457fe5b6000918252602082200154600160a060020a031690632fbc0bf190604051604001526040518163ffffffff1660e060020a0281526004016040805180830381600087803b1515610a6357600080fd5b6102c65a03f11515610a7457600080fd5b505050604051805190602001805160026000526005602052600080516020610d4e833981519152805493965090945073__SortPLib______________________________9263c3af64529250600a919085908110610ace57fe5b600091825260209091200154600160a060020a0316868660405160e060020a63ffffffff87160281526004810194909452600160a060020a03909216602484015260448301521515606482015260840160006040518083038186803b1515610b3557600080fd5b6102c65a03f41515610b4657600080fd5b5050506001016109ce565b5060005b60016000526005602052600080516020610d2e83398151915254811015610cd85760016000526005602052600080516020610d2e833981519152805482908110610b9b57fe5b6000918252602082200154600160a060020a0316906398d5fdca90604051604001526040518163ffffffff1660e060020a0281526004016040805180830381600087803b1515610bea57600080fd5b6102c65a03f11515610bfb57600080fd5b505050604051805190602001805160016000526005602052600080516020610d2e833981519152805493965090945073__SortPLib______________________________9263c3af64529250600a919085908110610c5557fe5b600091825260209091200154600160a060020a0316868660405160e060020a63ffffffff87160281526004810194909452600160a060020a03909216602484015260448301521515606482015260840160006040518083038186803b1515610cbc57600080fd5b6102c65a03f41515610ccd57600080fd5b505050600101610b55565b50504260095550565b600054600160a060020a031681565b81548183558181151161067c5760008381526020902061067c91810190830161048e91905b80821115610d295760008155600101610d15565b509056001471eb6eb2c5e789fc3de43f8ce62938c7d1836ec861730447e2ada8fd81017b89832631fb3c3307a103ba2c84ab569c64d6182a18893dcd163f0f1c2090733aa165627a7a72305820e1439b3a0f244da148d66b703a60ea32f9821014f90d18e56637a99e6bd841050029",
  "source": "pragma solidity ^0.4.4;\r\n\r\nimport \"./SortPLib.sol\";\r\nimport \"./AdrLib.sol\";\r\nimport \"./TransactLib.sol\";\r\nimport \"./IPV.sol\";\r\nimport \"./IGrid.sol\";\r\nimport \"./IBattery.sol\";\r\nimport \"./IHouse.sol\";\r\nimport \"./GeneralDevice.sol\";\r\n\r\ncontract SingleHouse is GeneralDevice, IHouse {\r\n  // one contract is associated to one particular House in the network.\r\n\r\n  using AdrLib for address[];\r\n  using TransactLib for uint;\r\n  using SortPLib for *;\r\n\r\n  SortPLib.PriceMap draftPriceMap;\r\n\r\n// ======= Modifiers =======\r\n\r\n  modifier timed (uint allowedTimeOut) {\r\n    if(now < consumStatusAt + allowedTimeOut) {\r\n      _;\r\n    } else {\r\n      revert();\r\n    }\r\n  }\r\n\r\n// ======= Event Logs =======\r\n\r\n  event ConsumptionLog(address adr, uint consum, uint consumAt);\r\n  //event ConfigurationLog(string confMod, uint statusAt);\r\n  event EnergyTransferLog(address adrFrom, address adrTo, uint eVol, uint transferAt);\r\n\r\n// ======= Basic Functionalities =======\r\n\r\n  // --- 0. Upon contract creation and configuration ---\r\n\r\n  function SingleHouse (address adr) GeneralDevice(adr) { }\r\n  \r\n  // --- 1. set and get house consumption every 15 min (or less) ---\r\n\r\n  function setConsumption(uint consum) public ownerOnly {\r\n    consumption = consum;\r\n    consumStatusAt = now;\r\n    ConsumptionLog(owner, consumption, consumStatusAt);\r\n  }\r\n\r\n  function getConsumption() external view timed(consumTimeOut) returns (uint consum, uint consumAt) { \r\n    consum = consumption;\r\n    consumAt = consumStatusAt;\r\n  }\r\n\r\n  // --- 2. ask for connected PV / batteries / grid for price of electricity supply ---\r\n\r\n  function askForPrice() {\r\n    uint tP = 0;\r\n    bool tF = false;\r\n    draftPriceMap.initPrsTable();\r\n    for (i = 0; i < connectedDevice[2].length; i++) {\r\n      (tP,tF) = IBattery(connectedDevice[2][i]).getSalePrice(); \r\n      draftPriceMap.addToPrsTable(connectedDevice[2][i],tP,tF);\r\n    }\r\n    for (uint i = 0; i < connectedDevice[1].length; i++) {\r\n      (tP,tF) = IPV(connectedDevice[1][i]).getPrice();\r\n      draftPriceMap.addToPrsTable(connectedDevice[1][i],tP,tF);\r\n    }\r\n    lastPriceQueryAt = now;\r\n  }\r\n\r\n  // --- 3. House sorts all the information internally ---\r\n\r\n  function sortPrice() {\r\n    draftPriceMap.sortPrsTable();\r\n    // if the grid is connected -> add the price from the grid to the end of the sorted list \r\n    if (grid != 0x0) {\r\n      uint tP = 0;\r\n      bool tF = false;\r\n      (tP,tF) = IGrid(grid).getPrice();\r\n      draftPriceMap.addToPrsTable(grid,tP,tF);\r\n    }\r\n  }\r\n\r\n  function getSortedPrice() external returns(uint consum, uint rank, uint tot, bool updated) {\r\n    address adr = msg.sender;\r\n    consum = consumption;\r\n    (rank,tot,updated) = draftPriceMap.getPrsTable(adr);\r\n  }\r\n\r\n  // --- 4. PV/Battery ask House to confirm energy transaction ---\r\n\r\n  function goNoGo(uint giveoutvol) returns (uint) {\r\n    address adrDevice = msg.sender;\r\n    uint takeoutvol;\r\n    require(connectedDevice[2].assertInside(adrDevice) || connectedDevice[1].assertInside(adrDevice));\r\n    takeoutvol = consumption.findMin(giveoutvol);\r\n    consumption = consumption.clearEnergyTransfer(takeoutvol, address(this));\r\n    //EnergyTransferLog(adrDevice,address(this), takeoutvol, consumption);\r\n    //wallet = wallet.clearMoneyTransfer(-int(takeoutvol*priceQueryInfo[adrDevice].prs), adrDevice);\r\n    wallet -= int(takeoutvol*draftPriceMap.prsTable[adrDevice].prs);\r\n    return (takeoutvol); \r\n  }\r\n\r\n  // --- 5. If house still has energy demand, ask grid for energy ---\r\n\r\n  function buyExtra() {\r\n    // when houses still have extra needs...\r\n    uint whatDeviceAccept;\r\n    uint receivedMoney;\r\n    uint unitPrs;\r\n    require(grid != 0x0);\r\n    if (consumption > 0) {\r\n      (whatDeviceAccept, unitPrs) = IGrid(grid).goExtra(consumption);\r\n      consumption = consumption.clearEnergyTransfer(whatDeviceAccept, address(this));\r\n      receivedMoney = whatDeviceAccept*unitPrs;\r\n      wallet -= int(receivedMoney);\r\n    }\r\n  }\r\n\r\n\r\n  // ------------Functions used in testing------------------\r\n/*\r\n  function getSortedPriceList (uint _id) returns (address) {\r\n    return sortedPriceQueryInfo[_id];\r\n  }\r\n\r\n  function getAskedPrice(address adr) returns (uint,bool) {\r\n    return (priceQueryInfo[adr].prs,priceQueryInfo[adr].updated) ;\r\n  }\r\n\r\n  function askForPricePV(uint i) returns (uint,bool) {\r\n    return IPV(connectedDevice[1][i]).getPrice();\r\n  }\r\n\r\n  function askForPriceB(uint i) returns (uint,bool) {\r\n    return IBattery(connectedDevice[2][i]).getSalePrice();\r\n  }\r\n  */\r\n\r\n  /*function getConnectPVAddress(uint a) returns (address) {\r\n      return connectedDevice[1][a];\r\n  }\r\n\r\n  function getDraftPrsMap(address adr) public view returns (uint, bool) {\r\n    return (draftPriceMap.prsTable[adr].prs, draftPriceMap.prsTable[adr].updated);\r\n  }\r\n  function getSrtPosition(address adr) public returns (uint, uint, bool) {\r\n    return draftPriceMap.getPrsTable(adr);\r\n  }\r\n\r\n  function getSrtList(uint a) public returns(address, uint, bool) { //address, uint, bool\r\n    return draftPriceMap.getSortedList(a);\r\n  }*/\r\n}\r\n",
  "sourcePath": "C:\\Users\\qianc\\Documents\\Thesis\\Code\\SimpleMonitor\\contracts\\SingleHouse.sol",
  "compiler": {
    "name": "solc",
    "version": "0.4.18+commit.9cf6e910.Emscripten.clang"
  },
  "schemaVersion": "1.0.1",
  "updatedAt": "2017-11-28T18:47:31.322Z"
}