{
  "contractName": "SingleBattery",
  "abi": [
    {
      "constant": true,
      "inputs": [],
      "name": "getVolumeCapacity",
      "outputs": [
        {
          "name": "vol",
          "type": "uint256"
        },
        {
          "name": "volAt",
          "type": "uint256"
        },
        {
          "name": "cap",
          "type": "uint256"
        }
      ],
      "payable": false,
      "stateMutability": "view",
      "type": "function"
    },
    {
      "constant": false,
      "inputs": [
        {
          "name": "giveoutvol",
          "type": "uint256"
        }
      ],
      "name": "goNoGo",
      "outputs": [
        {
          "name": "",
          "type": "uint256"
        }
      ],
      "payable": false,
      "stateMutability": "nonpayable",
      "type": "function"
    },
    {
      "constant": true,
      "inputs": [],
      "name": "getSalePrice",
      "outputs": [
        {
          "name": "prs",
          "type": "uint256"
        },
        {
          "name": "updatedOrNot",
          "type": "bool"
        }
      ],
      "payable": false,
      "stateMutability": "view",
      "type": "function"
    },
    {
      "constant": false,
      "inputs": [
        {
          "name": "vol",
          "type": "uint256"
        }
      ],
      "name": "goExcess",
      "outputs": [
        {
          "name": "takeVol",
          "type": "uint256"
        },
        {
          "name": "prs",
          "type": "uint256"
        }
      ],
      "payable": false,
      "stateMutability": "nonpayable",
      "type": "function"
    },
    {
      "constant": false,
      "inputs": [],
      "name": "askForRank",
      "outputs": [],
      "payable": false,
      "stateMutability": "nonpayable",
      "type": "function"
    },
    {
      "constant": false,
      "inputs": [
        {
          "name": "_id",
          "type": "uint256"
        }
      ],
      "name": "initiateTransaction",
      "outputs": [
        {
          "name": "",
          "type": "uint256"
        },
        {
          "name": "",
          "type": "uint256"
        }
      ],
      "payable": false,
      "stateMutability": "nonpayable",
      "type": "function"
    },
    {
      "constant": false,
      "inputs": [
        {
          "name": "vol",
          "type": "uint256"
        }
      ],
      "name": "setVolume",
      "outputs": [],
      "payable": false,
      "stateMutability": "nonpayable",
      "type": "function"
    },
    {
      "constant": false,
      "inputs": [],
      "name": "sortDraftPrsMap",
      "outputs": [],
      "payable": false,
      "stateMutability": "nonpayable",
      "type": "function"
    },
    {
      "constant": false,
      "inputs": [
        {
          "name": "v",
          "type": "uint256"
        }
      ],
      "name": "setBuyVolume",
      "outputs": [],
      "payable": false,
      "stateMutability": "nonpayable",
      "type": "function"
    },
    {
      "constant": false,
      "inputs": [],
      "name": "getBuyVol",
      "outputs": [
        {
          "name": "",
          "type": "uint256"
        }
      ],
      "payable": false,
      "stateMutability": "nonpayable",
      "type": "function"
    },
    {
      "constant": false,
      "inputs": [
        {
          "name": "adr",
          "type": "address"
        }
      ],
      "name": "setGridAdr",
      "outputs": [],
      "payable": false,
      "stateMutability": "nonpayable",
      "type": "function"
    },
    {
      "constant": false,
      "inputs": [
        {
          "name": "a",
          "type": "uint256"
        },
        {
          "name": "adr",
          "type": "address"
        }
      ],
      "name": "addConnectedDevice",
      "outputs": [],
      "payable": false,
      "stateMutability": "nonpayable",
      "type": "function"
    },
    {
      "constant": false,
      "inputs": [],
      "name": "askForPrice",
      "outputs": [],
      "payable": false,
      "stateMutability": "nonpayable",
      "type": "function"
    },
    {
      "constant": true,
      "inputs": [],
      "name": "getSortedPVInfo",
      "outputs": [
        {
          "name": "consum",
          "type": "uint256"
        },
        {
          "name": "rank",
          "type": "uint256"
        },
        {
          "name": "tot",
          "type": "uint256"
        },
        {
          "name": "updated",
          "type": "bool"
        }
      ],
      "payable": false,
      "stateMutability": "view",
      "type": "function"
    },
    {
      "constant": false,
      "inputs": [
        {
          "name": "_id",
          "type": "uint256"
        }
      ],
      "name": "getSortedInfo",
      "outputs": [
        {
          "name": "adr",
          "type": "address"
        },
        {
          "name": "consum",
          "type": "uint256"
        },
        {
          "name": "rank",
          "type": "uint256"
        },
        {
          "name": "tot",
          "type": "uint256"
        }
      ],
      "payable": false,
      "stateMutability": "nonpayable",
      "type": "function"
    },
    {
      "constant": false,
      "inputs": [
        {
          "name": "prsSale",
          "type": "uint256"
        },
        {
          "name": "prsBuy",
          "type": "uint256"
        }
      ],
      "name": "setPrice",
      "outputs": [],
      "payable": false,
      "stateMutability": "nonpayable",
      "type": "function"
    },
    {
      "constant": false,
      "inputs": [],
      "name": "sortRankList",
      "outputs": [],
      "payable": false,
      "stateMutability": "nonpayable",
      "type": "function"
    },
    {
      "constant": true,
      "inputs": [],
      "name": "Admin",
      "outputs": [
        {
          "name": "",
          "type": "address"
        }
      ],
      "payable": false,
      "stateMutability": "view",
      "type": "function"
    },
    {
      "inputs": [
        {
          "name": "adr",
          "type": "address"
        },
        {
          "name": "cap",
          "type": "uint256"
        }
      ],
      "payable": false,
      "stateMutability": "nonpayable",
      "type": "constructor"
    },
    {
      "anonymous": false,
      "inputs": [
        {
          "indexed": false,
          "name": "adr",
          "type": "address"
        },
        {
          "indexed": false,
          "name": "vol",
          "type": "uint256"
        },
        {
          "indexed": false,
          "name": "volAt",
          "type": "uint256"
        }
      ],
      "name": "VolLog",
      "type": "event"
    },
    {
      "anonymous": false,
      "inputs": [
        {
          "indexed": false,
          "name": "confMod",
          "type": "string"
        },
        {
          "indexed": false,
          "name": "statusAt",
          "type": "uint256"
        }
      ],
      "name": "ConfigurationLog",
      "type": "event"
    },
    {
      "anonymous": false,
      "inputs": [
        {
          "indexed": false,
          "name": "updateAt",
          "type": "uint256"
        }
      ],
      "name": "PriceUpdate",
      "type": "event"
    }
  ],
  "bytecode": "0x606060405260038054600160a060020a031916905561012c600a819055600d55341561002a57600080fd5b604051604080611510833981016040528080519190602001805160018054600160a060020a03958616600160a060020a0319918216179091556000805433909616959091169490941790935550506007556114868061008a6000396000f3006060604052600436106100e25763ffffffff60e060020a6000350416630e00c31681146100e75780630ff372821461011e5780632fbc0bf11461014657806335f7f5e2146101735780633d7224dc146101a15780633fd2007d146101b65780634559dcdc146101cc578063463f1702146101e25780636a95841b146101f557806379c19df01461020b5780638d646b111461021e578063bfd119031461023d578063c97460291461025f578063cf7fc76214610272578063d5adad54146102b1578063f7d9757714610304578063fba301671461031d578063ff1b636d14610330575b600080fd5b34156100f257600080fd5b6100fa61035f565b60405180848152602001838152602001828152602001935050505060405180910390f35b341561012957600080fd5b61013460043561036f565b60405190815260200160405180910390f35b341561015157600080fd5b610159610574565b604051918252151560208201526040908101905180910390f35b341561017e57600080fd5b610189600435610599565b60405191825260208201526040908101905180910390f35b34156101ac57600080fd5b6101b46106c7565b005b34156101c157600080fd5b61018960043561096d565b34156101d757600080fd5b6101b4600435610bec565b34156101ed57600080fd5b6101b4610c7a565b341561020057600080fd5b6101b4600435610dfb565b341561021657600080fd5b610134610e2f565b341561022957600080fd5b6101b4600160a060020a0360043516610e36565b341561024857600080fd5b6101b4600435600160a060020a0360243516610e7a565b341561026a57600080fd5b6101b4610ee6565b341561027d57600080fd5b6102856110df565b604051938452602084019290925260408084019190915290151560608301526080909101905180910390f35b34156102bc57600080fd5b6102c7600435611182565b6040518085600160a060020a0316600160a060020a0316815260200184815260200183815260200182815260200194505050505060405180910390f35b341561030f57600080fd5b6101b46004356024356111bc565b341561032857600080fd5b6101b461121b565b341561033b57600080fd5b610343611376565b604051600160a060020a03909116815260200160405180910390f35b600854600b546007549192909190565b600160009081526005602052338173__AdrLib________________________________632c2fc20e60008051602061141b83398151915284846040516020015260405160e060020a63ffffffff85160281526004810192909252600160a060020a0316602482015260440160206040518083038186803b15156103f157600080fd5b6102c65a03f4151561040257600080fd5b50505060405180519050806104245750600354600160a060020a038381169116145b151561042f57600080fd5b60095473__TransactLib___________________________63bc2e368c90918660006040516020015260405160e060020a63ffffffff85160281526004810192909252602482015260440160206040518083038186803b151561049157600080fd5b6102c65a03f415156104a257600080fd5b5050506040518051600880548201905560095490925073__TransactLib___________________________9150639e5fd0a990833060006040516020015260405160e060020a63ffffffff861602815260048101939093526024830191909152600160a060020a0316604482015260640160206040518083038186803b151561052a57600080fd5b6102c65a03f4151561053b57600080fd5b505050604051805160095550600160a060020a038216600090815260106020526040902054600680549183029091039055915050919050565b600e54600d54600c54600091429101101561059157506000610595565b5060015b9091565b600080600f5490508273__TransactLib___________________________63bc2e368c90916008546007540360006040516020015260405160e060020a63ffffffff85160281526004810192909252602482015260440160206040518083038186803b151561060757600080fd5b6102c65a03f4151561061857600080fd5b50505060405180519050915060085473__TransactLib___________________________63994459079091843060006040516020015260405160e060020a63ffffffff861602815260048101939093526024830191909152600160a060020a0316604482015260640160206040518083038186803b151561069857600080fd5b6102c65a03f415156106a957600080fd5b50505060405180516008555060068054838302900390559092909150565b6000808052600560205260008051602061143b83398151915254819081908190819081906106f6601582611385565b50600090505b60008052600560205260008051602061143b833981519152548110156109525760008052600560205260008051602061143b83398151915280548290811061074057fe5b6000918252602082200154600160a060020a0316906338a3528c90604051608001526040518163ffffffff1660e060020a028152600401608060405180830381600087803b151561079057600080fd5b6102c65a03f115156107a157600080fd5b5050506040518051906020018051906020018051906020018051939950919750955090935050821561094a576060604051908101604090815287825260208083018890529082018690526000808052600590915260008051602061143b833981519152805460189291908590811061081557fe5b6000918252602080832090910154600160a060020a03168352820192909252604001902081518155602082015181600101556040820151600290910155506000808052600560205260008051602061143b833981519152805460189291908490811061087d57fe5b6000918252602080832090910154600160a060020a03168352820192909252604001902060158054849081106108af57fe5b60009182526020808320845460039093020191825560018085015490830155600293840154939091019290925580526005905260008051602061143b8339815191528054829081106108fd57fe5b600091825260208083209091015484835260199091526040909120805473ffffffffffffffffffffffffffffffffffffffff1916600160a060020a03909216919091179055600191909101905b6001016106fc565b8161095e601582611385565b50506017555050426016555050565b600081815260196020908152604080832054600854600160a060020a039091168085526018909352818420548493849390928492839273__TransactLib___________________________9263bc2e368c9290918590516020015260405160e060020a63ffffffff85160281526004810192909252602482015260440160206040518083038186803b1515610a0157600080fd5b6102c65a03f41515610a1257600080fd5b50505060405180516000808052600560205290955073__AdrLib________________________________9150632c2fc20e9060008051602061143b8339815191529086906040516020015260405160e060020a63ffffffff85160281526004810192909252600160a060020a0316602482015260440160206040518083038186803b1515610a9f57600080fd5b6102c65a03f41515610ab057600080fd5b5050506040518051905015610bda5782600160a060020a0316630ff372828560006040516020015260405160e060020a63ffffffff84160281526004810191909152602401602060405180830381600087803b1515610b0e57600080fd5b6102c65a03f11515610b1f57600080fd5b5050506040518051600880548290039055600e546006549194508402925073__TransactLib___________________________915063e2992d299083863060006040516020015260405160e060020a63ffffffff871602815260048101949094526024840192909252600160a060020a03908116604484015216606482015260840160206040518083038186803b1515610bb857600080fd5b6102c65a03f41515610bc957600080fd5b505050604051805160065550610bdf565b600091505b5091959194509092505050565b60015433600160a060020a03908116911614156100e257600881905542600b8190556001547fa8533a3e28bf00cd05018ed80847d3d6f170da084f6417da50798db7335ff9a091600160a060020a039091169083906040518084600160a060020a0316600160a060020a03168152602001838152602001828152602001935050505060405180910390a15b50565b60008073__SortPLib______________________________6332a76998601060405160e060020a63ffffffff8416028152600481019190915260240160006040518083038186803b1515610ccd57600080fd5b6102c65a03f41515610cde57600080fd5b5050600354600160a060020a0316159050610df75750506003546000908190600160a060020a03166398d5fdca82604051604001526040518163ffffffff1660e060020a0281526004016040805180830381600087803b1515610d4057600080fd5b6102c65a03f11515610d5157600080fd5b5050506040518051906020018051600354929450925073__SortPLib______________________________9163c3af64529150601090600160a060020a0316858560405160e060020a63ffffffff87160281526004810194909452600160a060020a03909216602484015260448301521515606482015260840160006040518083038186803b1515610de257600080fd5b6102c65a03f41515610df357600080fd5b5050505b5050565b60015433600160a060020a03908116911614156100e25760075460085482011115610e2557600080fd5b6009819055610c77565b6009545b90565b60005433600160a060020a03908116911614156100e2576003805473ffffffffffffffffffffffffffffffffffffffff1916600160a060020a038316179055610c77565b60005433600160a060020a03908116911614156100e2576000828152600560205260409020805460018101610eaf83826113b1565b506000918252602090912001805473ffffffffffffffffffffffffffffffffffffffff1916600160a060020a038316179055610df7565b6000808073__SortPLib______________________________63e61f7934601060405160e060020a63ffffffff8416028152600481019190915260240160006040518083038186803b1515610f3a57600080fd5b6102c65a03f41515610f4b57600080fd5b505050600090505b6001600052600560205260008051602061141b833981519152548110156110d6576001600052600560205260008051602061141b833981519152805482908110610f9957fe5b6000918252602082200154600160a060020a0316906398d5fdca90604051604001526040518163ffffffff1660e060020a0281526004016040805180830381600087803b1515610fe857600080fd5b6102c65a03f11515610ff957600080fd5b50505060405180519060200180516001600052600560205260008051602061141b833981519152805493965090945073__SortPLib______________________________9263c3af64529250601091908590811061105357fe5b600091825260209091200154600160a060020a0316868660405160e060020a63ffffffff87160281526004810194909452600160a060020a03909216602484015260448301521515606482015260840160006040518083038186803b15156110ba57600080fd5b6102c65a03f415156110cb57600080fd5b505050600101610f53565b50504260145550565b6009546000808073__SortPLib______________________________63c6742457601033846040516060015260405160e060020a63ffffffff85160281526004810192909252600160a060020a0316602482015260440160606040518083038186803b151561114d57600080fd5b6102c65a03f4151561115e57600080fd5b50505060405180519060200180519060200180519697929691955090935090915050565b600090815260196020908152604080832054600160a060020a03168084526018909252909120805460018201546002909201549293909290565b60015433600160a060020a03908116911614156100e257600e829055600f81905542600c8190557fae46785019700e30375a5d7b4f91e32f8060ef085111f896ebf889450aa2ab5a9060405190815260200160405180910390a1610df7565b600080805b6017548210156113715773__SortRLib______________________________63f37de025601560006040516020015260405160e060020a63ffffffff8416028152600481019190915260240160206040518083038186803b151561128357600080fd5b6102c65a03f4151561129457600080fd5b505050604051805193505081830182146112fc57506000818152601960205260408082208054858501845291909220805473ffffffffffffffffffffffffffffffffffffffff19808416600160a060020a039283161790945581549093169290911691821790555b73__SortRLib______________________________63b576277060158560405160e060020a63ffffffff85160281526004810192909252602482015260440160006040518083038186803b151561135257600080fd5b6102c65a03f4151561136357600080fd5b505060019092019150611220565b505050565b600054600160a060020a031681565b8154818355818115116113715760030281600302836000526020600020918201910161137191906113d5565b81548183558181151161137157600083815260209020611371918101908301611400565b610e3391905b808211156113fc5760008082556001820181905560028201556003016113db565b5090565b610e3391905b808211156113fc576000815560010161140656001471eb6eb2c5e789fc3de43f8ce62938c7d1836ec861730447e2ada8fd81017b05b8ccbb9d4d8fb16ea74ce3c29a41f1b461fbdaff4714a0d9a8eb05499746bca165627a7a7230582089eaebf0d061109945d20e07f769e3624a83770cd21922a602960cb3198a56260029",
  "source": "pragma solidity ^0.4.4;\r\n\r\nimport \"./IBattery.sol\";\r\nimport \"./IPV.sol\";\r\nimport \"./IGrid.sol\";\r\nimport \"./IHouse.sol\";\r\nimport \"./GeneralDevice.sol\";\r\n\r\nimport \"./SortRLib.sol\";\r\nimport \"./SortPLib.sol\"; \r\nimport \"./AdrLib.sol\"; \r\nimport \"./TransactLib.sol\";\r\n\r\n\r\n//For simplicity, we do not use the sorting functions here, as in our configuration, there is only one battery and there's only one PV connected.  \r\n\r\ncontract SingleBattery is GeneralDevice, IBattery {\r\n  \r\n  using AdrLib for address[];\r\n  using TransactLib for *;\r\n  using SortPLib for *;\r\n\r\n\r\n  uint    capacity;                 // Cap of the device\r\n  uint    currentVolume;            // Production of electricity\r\n  uint    buyVolume;                // Amount of electricity that this battery would like to buy. Will first participate in the supply competition \r\n                                    //and will be finally (anyway) fulfilled b either the network or from the grid...\r\n  uint    volTimeOut = 5 minutes;\r\n  uint    volStatusAt;              // timestamp of the update\r\n  \r\n  uint    priceStatusAt;            // timestamp of the update (price)\r\n  uint    priceTimeOut = 5 minutes;\r\n  uint    priceForSale;\r\n  uint    priceForBuy;              // lower than market price (ForExcessEnergy)\r\n  \r\n  \r\n  /*struct PriceTF {\r\n    uint  prs;\r\n    bool  updated;\r\n  }*/\r\n\r\n  SortPLib.PriceMap draftPriceMap;\r\n  uint    lastPriceQueryAt;\r\n\r\n/*\r\n  using SortLib for SortLib.PriceTF[];\r\n  SortLib.PriceTF[] prepPriceQueryInfo;\r\n  \r\n\r\n  mapping(address=>SortLib.PriceTF) priceQueryInfo;\r\n  mapping(uint=>address) sortedPriceQueryInfo;*/\r\n\r\n  using SortRLib for SortRLib.Request[];\r\n  SortRLib.Request[] prepRankingInfo;\r\n\r\n\r\n  uint    lastRankingAt;\r\n  uint    rLength;\r\n  mapping(address=>SortRLib.Request) RankingInfo;\r\n  mapping(uint=>address) sortedRankingInfo;\r\n\r\n  function askForPrice() {\r\n    // House query price info to all the connected PV/Battery. \r\n    // If the house is connected to grid (most of the time), the price of Grid also participates in the sorting (it's not less favored anymore)\r\n    uint tP = 0;\r\n    bool tF = false;\r\n    draftPriceMap.initPrsTable();\r\n    for (uint i = 0; i < connectedDevice[1].length; i++) {\r\n      (tP,tF) = IPV(connectedDevice[1][i]).getPrice();\r\n      //priceQueryInfo[connectedDevice[1][i]] = SortLib.PriceTF(tP,tF);\r\n      draftPriceMap.addToPrsTable(connectedDevice[1][i],tP,tF);\r\n    }\r\n    /*if (grid != 0x0) {\r\n      (tP,tF) = IGrid(grid).getPrice();\r\n      priceQueryInfo[grid] = SortLib.PriceTF(tP,tF);\r\n    }*/\r\n    lastPriceQueryAt = now;\r\n  }\r\n/*\r\n  function getSortedPosition (address adr) returns (uint) { // should be private, here the \"private\" is temporarily removed due to testing\r\n    //require(adr != 0x0);      // Sometimes with this line, there will be error in the configuration.js test... sometimes not.... sometimes need to _migrate_ twice to eliminate the error.... Don't know why\r\n    uint _l;\r\n    if (grid != 0x0) {\r\n      _l = connectedDevice[1].length+1;\r\n    } else {\r\n      _l = connectedDevice[1].length;\r\n    }\r\n    for (uint i=0; i<_l; i++) {\r\n      if (adr == sortedPriceQueryInfo[i]) {\r\n        return (i+1);\r\n      }\r\n    }\r\n    return 0;\r\n  }*/\r\n\r\n  function sortDraftPrsMap() {\r\n    draftPriceMap.sortPrsTable();\r\n    // if the grid is connected -> add the price from the grid to the end of the sorted list \r\n    if (grid != 0x0) {\r\n      uint tP = 0;\r\n      bool tF = false;\r\n      (tP,tF) = IGrid(grid).getPrice();\r\n      draftPriceMap.addToPrsTable(grid,tP,tF);\r\n    }\r\n  }\r\n\r\n  //function sort() { // we are not doing sorting here -> as there is only 1 PV in the exercise layout\r\n    /*sortedPriceQueryInfo[0] = connectedDevice[1][0];\r\n    if (grid != 0x0) {\r\n      sortedPriceQueryInfo[1] = grid;\r\n    }*/\r\n   /* createPriceList();\r\n    uint maxTemp;\r\n    uint totalLength;\r\n    if (grid != 0x0) {\r\n      totalLength = connectedDevice[1].length+1;\r\n    } else {\r\n      totalLength = connectedDevice[1].length;\r\n    }\r\n    for (uint i = 0; i < totalLength; i++) {\r\n      maxTemp = prepPriceQueryInfo.maxStruct();\r\n      swap(totalLength-1-i,maxTemp);\r\n      prepPriceQueryInfo.del(maxTemp);\r\n    }\r\n  } \r\n\r\n  function createPriceList() private {\r\n    if (grid != 0x0) {\r\n      prepPriceQueryInfo.length = connectedDevice[1].length+1;\r\n    } else {\r\n      prepPriceQueryInfo.length = connectedDevice[1].length;\r\n    }\r\n    for (uint i = 0; i < connectedDevice[1].length; i++) {\r\n      prepPriceQueryInfo[i] = priceQueryInfo[connectedDevice[1][i]];\r\n      sortedPriceQueryInfo[i] = connectedDevice[1][i];\r\n    }\r\n    for (i = connectedDevice[1].length; i < prepPriceQueryInfo.length; i++) {\r\n      prepPriceQueryInfo[i] = priceQueryInfo[grid];\r\n      sortedPriceQueryInfo[i] = grid;\r\n    }\r\n  }\r\n\r\n  function swap (uint _id1, uint _id2) private {\r\n    if (_id1 != _id2) {\r\n      address temp;\r\n      temp = sortedPriceQueryInfo[_id1];\r\n      sortedPriceQueryInfo[_id1] = sortedPriceQueryInfo[_id2];\r\n      sortedPriceQueryInfo[_id2] = temp;   \r\n    }\r\n  }*/\r\n\r\n  function getSortedPVInfo() external view returns(uint consum, uint rank, uint tot, bool updated) {\r\n    consum = buyVolume;\r\n    (rank,tot,updated) = draftPriceMap.getPrsTable(msg.sender);\r\n  }\r\n\r\n /* function getSortedPVInfo() returns(uint consum, uint rank, uint tot, bool updated) {\r\n    address adr = msg.sender;     //If the PV is connected\r\n    consum = buyVolume;\r\n    rank = getSortedPosition(adr); // We only have one PV connnected (In the demo layout)\r\n    if (grid != 0x0) {\r\n      tot = connectedDevice[1].length + 1;\r\n    } else {\r\n      tot = connectedDevice[1].length;\r\n    }\r\n    if (lastPriceQueryAt + priceTimeOut < now) {\r\n      updated = false;    // The house may be inactive for a while, so the list stored is outdated.\r\n    } else {\r\n      updated = true;      \r\n    }\r\n  }*/\r\n\r\n// start transaction\r\n  function goNoGo(uint giveoutvol) returns (uint) {\r\n    address adrDevice = msg.sender;\r\n    uint takeoutvol;\r\n    require(connectedDevice[1].assertInside(adrDevice) || adrDevice == grid);\r\n    takeoutvol = buyVolume.findMin(giveoutvol);\r\n    currentVolume += takeoutvol;\r\n    buyVolume = buyVolume.clearEnergyTransfer(takeoutvol, address(this));\r\n    wallet -= int(takeoutvol*draftPriceMap.prsTable[adrDevice].prs);\r\n    return (takeoutvol); \r\n  }\r\n\r\n\r\n  modifier timed (uint initialTime, uint allowedTimeOut) {\r\n    if(now < initialTime + allowedTimeOut) {\r\n      _;\r\n    } else {\r\n      revert();\r\n    }\r\n  }\r\n\r\n  event VolLog(address adr, uint vol, uint volAt);\r\n  event ConfigurationLog(string confMod, uint statusAt);\r\n  event PriceUpdate(uint updateAt);\r\n\r\n  function SingleBattery (address adr,  uint cap) GeneralDevice(adr) {\r\n    capacity = cap;\r\n  }\r\n\r\n  function setVolume(uint vol) public ownerOnly {\r\n    // Can only be triggered once....Should be moved to the constructor...Once the initial volumne is set, can only be changed by energy trading.\r\n    currentVolume = vol;\r\n    volStatusAt = now;\r\n    VolLog(owner,vol,volStatusAt);\r\n  }\r\n\r\n  function setPrice(uint prsSale, uint prsBuy) public ownerOnly {\r\n    priceForSale = prsSale;\r\n    priceForBuy = prsBuy;\r\n    priceStatusAt = now;\r\n    PriceUpdate(priceStatusAt);\r\n  }\r\n\r\n  function setBuyVolume(uint v) public ownerOnly {\r\n    require(currentVolume + v <= capacity);\r\n    buyVolume = v;\r\n  }\r\n\r\n  // function askForPrice() {} // to ask for prices set by PVs...\r\n\r\n\r\n  function getVolumeCapacity () external view returns (uint vol, uint volAt, uint cap) { // timed(initTime,volTimeOut) \r\n    vol = currentVolume;\r\n    volAt = volStatusAt;\r\n    cap = capacity;\r\n  }\r\n\r\n  function getSalePrice() public view returns (uint prs, bool updatedOrNot) { // connectedHouseOnly external\r\n    prs = priceForSale;\r\n    //prsAt = priceStatusAt;\r\n    if (priceStatusAt + priceTimeOut < now) {\r\n      updatedOrNot = false;\r\n    } else {\r\n      updatedOrNot = true;\r\n    }\r\n    //adr = owner;\r\n  }\r\n\r\n  function goExcess(uint vol) returns (uint takeVol, uint prs) {\r\n    prs = priceForBuy;\r\n    takeVol = vol.findMin(capacity-currentVolume);\r\n    currentVolume = currentVolume.clearExcessTransfer(takeVol, address(this));\r\n    wallet -= int(takeVol*prs);\r\n  }\r\n\r\n\r\n  function getBuyVol() returns (uint) {return buyVolume;}\r\n\r\n  // Battery also provides energy to houses\r\n  function askForRank() {\r\n    // ask and prepare for sorting the ranking...\r\n    uint consum;\r\n    uint rank;\r\n    uint tot;\r\n    bool updated;\r\n    uint num;\r\n\r\n    prepRankingInfo.length = connectedDevice[0].length;\r\n    for (uint i = 0; i < connectedDevice[0].length; i++) {\r\n      (consum, rank, tot, updated) = IHouse(connectedDevice[0][i]).getSortedInfo();\r\n      //GetSortedInfo(connectedDevice[0][i], consum, rank, tot, updated);\r\n      if (updated) {\r\n        RankingInfo[connectedDevice[0][i]] = SortRLib.Request(consum, rank, tot);\r\n        prepRankingInfo[num] = RankingInfo[connectedDevice[0][i]];\r\n        sortedRankingInfo[num] = connectedDevice[0][i];\r\n        num++;\r\n      }\r\n    }\r\n    prepRankingInfo.length = num;\r\n    rLength = num;\r\n    lastRankingAt = now;\r\n  }\r\n\r\n  function sortRankList() {\r\n    uint minTemp;\r\n    for (uint i=0; i<rLength; i++) {\r\n      minTemp = prepRankingInfo.minStruct();\r\n      //swap(i,i+minTemp);\r\n      if (i != i+minTemp) {\r\n      address temp;\r\n      temp = sortedRankingInfo[i];\r\n      sortedRankingInfo[i] = sortedRankingInfo[i+minTemp];\r\n      sortedRankingInfo[i+minTemp] = temp;   \r\n      }\r\n      prepRankingInfo.del(minTemp);\r\n    }\r\n  }\r\n\r\n\r\n  function getSortedInfo(uint _id) returns(address adr, uint consum, uint rank, uint tot) {\r\n    adr = sortedRankingInfo[_id];\r\n    consum = RankingInfo[adr].consump;\r\n    rank = RankingInfo[adr].rank;\r\n    tot = RankingInfo[adr].total;\r\n  }\r\n  \r\n  function initiateTransaction(uint _id) returns (uint, uint) {\r\n    uint giveoutVol;\r\n    address adr;\r\n    uint whatDeviceAccept;\r\n    uint receivedMoney;\r\n    //for (uint i = 0; i < rLength; i++) {\r\n      adr = sortedRankingInfo[_id];\r\n      giveoutVol = currentVolume.findMin(RankingInfo[adr].consump);\r\n      if (connectedDevice[0].assertInside(adr)) {\r\n        whatDeviceAccept = IHouse(adr).goNoGo(giveoutVol);\r\n        currentVolume -= whatDeviceAccept;\r\n        receivedMoney = whatDeviceAccept*priceForSale;\r\n        wallet = wallet.clearMoneyTransfer(receivedMoney,adr, address(this));\r\n      } else {\r\n        whatDeviceAccept = 0; \r\n      }\r\n      return(giveoutVol, whatDeviceAccept);\r\n    //}\r\n  }\r\n\r\n\r\n\r\n}\r\n",
  "sourcePath": "C:\\Users\\qianc\\Documents\\Thesis\\Code\\SimpleMonitor\\contracts\\SingleBattery.sol",
  "compiler": {
    "name": "solc",
    "version": "0.4.18+commit.9cf6e910.Emscripten.clang"
  },
  "schemaVersion": "1.0.1",
  "updatedAt": "2017-11-27T16:12:56.815Z"
}