{
  "contractName": "SinglePV",
  "abi": [
    {
      "constant": false,
      "inputs": [
        {
          "name": "adr",
          "type": "address"
        }
      ],
      "name": "setTimerAdr",
      "outputs": [],
      "payable": false,
      "stateMutability": "nonpayable",
      "type": "function"
    },
    {
      "constant": false,
      "inputs": [],
      "name": "getWallet",
      "outputs": [
        {
          "name": "",
          "type": "int256"
        }
      ],
      "payable": false,
      "stateMutability": "nonpayable",
      "type": "function"
    },
    {
      "constant": false,
      "inputs": [],
      "name": "getTimerStatus",
      "outputs": [
        {
          "name": "",
          "type": "uint256"
        }
      ],
      "payable": false,
      "stateMutability": "nonpayable",
      "type": "function"
    },
    {
      "constant": false,
      "inputs": [],
      "name": "askForRank",
      "outputs": [],
      "payable": false,
      "stateMutability": "nonpayable",
      "type": "function"
    },
    {
      "constant": false,
      "inputs": [],
      "name": "sortRank",
      "outputs": [],
      "payable": false,
      "stateMutability": "nonpayable",
      "type": "function"
    },
    {
      "constant": false,
      "inputs": [
        {
          "name": "_id",
          "type": "uint256"
        }
      ],
      "name": "initiateTransaction",
      "outputs": [
        {
          "name": "",
          "type": "uint256"
        },
        {
          "name": "",
          "type": "uint256"
        }
      ],
      "payable": false,
      "stateMutability": "nonpayable",
      "type": "function"
    },
    {
      "constant": false,
      "inputs": [
        {
          "name": "produc",
          "type": "uint256"
        }
      ],
      "name": "setProduction",
      "outputs": [],
      "payable": false,
      "stateMutability": "nonpayable",
      "type": "function"
    },
    {
      "constant": false,
      "inputs": [],
      "name": "sellExcess",
      "outputs": [],
      "payable": false,
      "stateMutability": "nonpayable",
      "type": "function"
    },
    {
      "constant": false,
      "inputs": [
        {
          "name": "_id",
          "type": "uint256"
        }
      ],
      "name": "getSortedRank",
      "outputs": [
        {
          "name": "adr",
          "type": "address"
        },
        {
          "name": "consum",
          "type": "uint256"
        },
        {
          "name": "rank",
          "type": "uint256"
        },
        {
          "name": "tot",
          "type": "uint256"
        }
      ],
      "payable": false,
      "stateMutability": "nonpayable",
      "type": "function"
    },
    {
      "constant": false,
      "inputs": [],
      "name": "getTimerAddress",
      "outputs": [
        {
          "name": "",
          "type": "address"
        }
      ],
      "payable": false,
      "stateMutability": "nonpayable",
      "type": "function"
    },
    {
      "constant": false,
      "inputs": [
        {
          "name": "adr",
          "type": "address"
        }
      ],
      "name": "setGridAdr",
      "outputs": [],
      "payable": false,
      "stateMutability": "nonpayable",
      "type": "function"
    },
    {
      "constant": true,
      "inputs": [],
      "name": "getProduction",
      "outputs": [
        {
          "name": "prod",
          "type": "uint256"
        },
        {
          "name": "prodAt",
          "type": "uint256"
        }
      ],
      "payable": false,
      "stateMutability": "view",
      "type": "function"
    },
    {
      "constant": false,
      "inputs": [
        {
          "name": "prs",
          "type": "uint256"
        }
      ],
      "name": "setPrice",
      "outputs": [],
      "payable": false,
      "stateMutability": "nonpayable",
      "type": "function"
    },
    {
      "constant": true,
      "inputs": [],
      "name": "getPrice",
      "outputs": [
        {
          "name": "prs",
          "type": "uint256"
        },
        {
          "name": "updatedOrNot",
          "type": "bool"
        }
      ],
      "payable": false,
      "stateMutability": "view",
      "type": "function"
    },
    {
      "constant": false,
      "inputs": [
        {
          "name": "a",
          "type": "uint256"
        },
        {
          "name": "adr",
          "type": "address"
        }
      ],
      "name": "addConnectedDevice",
      "outputs": [],
      "payable": false,
      "stateMutability": "nonpayable",
      "type": "function"
    },
    {
      "constant": true,
      "inputs": [],
      "name": "Admin",
      "outputs": [
        {
          "name": "",
          "type": "address"
        }
      ],
      "payable": false,
      "stateMutability": "view",
      "type": "function"
    },
    {
      "inputs": [
        {
          "name": "adr",
          "type": "address"
        }
      ],
      "payable": false,
      "stateMutability": "nonpayable",
      "type": "constructor"
    },
    {
      "anonymous": false,
      "inputs": [
        {
          "indexed": false,
          "name": "adr",
          "type": "address"
        },
        {
          "indexed": false,
          "name": "produc",
          "type": "uint256"
        },
        {
          "indexed": false,
          "name": "prodAt",
          "type": "uint256"
        }
      ],
      "name": "ProductionLog",
      "type": "event"
    },
    {
      "anonymous": false,
      "inputs": [
        {
          "indexed": false,
          "name": "confMod",
          "type": "string"
        },
        {
          "indexed": false,
          "name": "statusAt",
          "type": "uint256"
        }
      ],
      "name": "ConfigurationLog",
      "type": "event"
    },
    {
      "anonymous": false,
      "inputs": [
        {
          "indexed": false,
          "name": "updateAt",
          "type": "uint256"
        }
      ],
      "name": "PriceUpdate",
      "type": "event"
    }
  ],
  "bytecode": "0x606060405260038054600160a060020a031990811690915560048054909116905561012c6007819055600855341561003657600080fd5b6040516020806112228339810160405280805160018054600160a060020a03928316600160a060020a03199182161790915560008054339093169290911691909117905550506111978061008b6000396000f3006060604052600436106100cc5763ffffffff60e060020a6000350416630830cfae81146100d157806313299604146100f2578063235a4a4f146101175780633d7224dc1461012a5780633d8595071461013d5780633fd2007d14610150578063567cc2b61461017e57806367a2829d146101945780636b608223146101a757806370ed8f24146101fa5780638d646b11146102295780638e4dfebb1461024857806391b7f5ed1461025b57806398d5fdca14610271578063bfd119031461029e578063ff1b636d146102c0575b600080fd5b34156100dc57600080fd5b6100f0600160a060020a03600435166102d3565b005b34156100fd57600080fd5b610105610316565b60405190815260200160405180910390f35b341561012257600080fd5b61010561031d565b341561013557600080fd5b6100f0610386565b341561014857600080fd5b6100f0610762565b341561015b57600080fd5b6101666004356107dc565b60405191825260208201526040908101905180910390f35b341561018957600080fd5b6100f0600435610b50565b341561019f57600080fd5b6100f0610bf0565b34156101b257600080fd5b6101bd600435610edd565b6040518085600160a060020a0316600160a060020a0316815260200184815260200183815260200182815260200194505050505060405180910390f35b341561020557600080fd5b61020d610f7c565b604051600160a060020a03909116815260200160405180910390f35b341561023457600080fd5b6100f0600160a060020a0360043516610f8b565b341561025357600080fd5b610166610fcf565b341561026657600080fd5b6100f0600435610fd9565b341561027c57600080fd5b610284611044565b604051918252151560208201526040908101905180910390f35b34156102a957600080fd5b6100f0600435600160a060020a0360243516611069565b34156102cb57600080fd5b61020d6110d5565b60005433600160a060020a03908116911614156100cc576004805473ffffffffffffffffffffffffffffffffffffffff1916600160a060020a0383161790555b50565b600c545b90565b600454600090600160a060020a0316633b7104f282604051602001526040518163ffffffff1660e060020a028152600401602060405180830381600087803b151561036757600080fd5b6102c65a03f1151561037857600080fd5b505050604051805191505090565b6000806000806000600361039861031d565b8114156100cc5773__SortRLib______________________________63e6f37de9600f60405160e060020a63ffffffff8416028152600481019190915260240160006040518083038186803b15156103ef57600080fd5b6102c65a03f4151561040057600080fd5b505050600091505b60008052600660205260008051602061112c833981519152548210156105ab5760008052600660205260008051602061112c83398151915280548390811061044c57fe5b6000918252602082200154600160a060020a031690631b45f0e090604051608001526040518163ffffffff1660e060020a028152600401608060405180830381600087803b151561049c57600080fd5b6102c65a03f115156104ad57600080fd5b505050604051805190602001805190602001805190602001805193995091975095509093505082156105a05760008052600660205260008051602061112c833981519152805473__SortRLib______________________________9163ef61a13991600f91908690811061051d57fe5b600091825260209091200154600160a060020a031689898960405160e060020a63ffffffff88160281526004810195909552600160a060020a03909316602485015260448401919091526064830152608482015260a40160006040518083038186803b151561058b57600080fd5b6102c65a03f4151561059c57600080fd5b5050505b600190910190610408565b600091505b6002600052600660205260008051602061114c83398151915254821015610756576002600052600660205260008051602061114c8339815191528054839081106105f657fe5b6000918252602082200154600160a060020a031690631b45f0e090604051608001526040518163ffffffff1660e060020a028152600401608060405180830381600087803b151561064657600080fd5b6102c65a03f1151561065757600080fd5b5050506040518051906020018051906020018051906020018051939950919750955090935050821561074b576002600052600660205260008051602061114c833981519152805473__SortRLib______________________________9163ef61a13991600f9190869081106106c857fe5b600091825260209091200154600160a060020a031689898960405160e060020a63ffffffff88160281526004810195909552600160a060020a03909316602485015260448401919091526064830152608482015260a40160006040518083038186803b151561073657600080fd5b6102c65a03f4151561074757600080fd5b5050505b6001909101906105b0565b42600b55505050505050565b600361076c61031d565b8114156100cc5773__SortRLib______________________________63534e1918600f60405160e060020a63ffffffff8416028152600481019190915260240160006040518083038186803b15156107c357600080fd5b6102c65a03f415156107d457600080fd5b505050610313565b600080600080600080600080600060046107f461031d565b8114156100cc576108048b610edd565b600d54939a509198509650945073__TransactLib___________________________9063bc2e368c908860006040516020015260405160e060020a63ffffffff85160281526004810192909252602482015260440160206040518083038186803b151561087057600080fd5b6102c65a03f4151561088157600080fd5b505050604051805160026000908152600660205290995073__AdrLib________________________________9150632c2fc20e9060008051602061114c833981519152908a906040516020015260405160e060020a63ffffffff85160281526004810192909252600160a060020a0316602482015260440160206040518083038186803b151561091057600080fd5b6102c65a03f4151561092157600080fd5b5050506040518051905015610a4b5786600160a060020a0316630ff372828960006040516020015260405160e060020a63ffffffff84160281526004810191909152602401602060405180830381600087803b151561097f57600080fd5b6102c65a03f1151561099057600080fd5b5050506040518051600d80548290039055600e54600c549195508502935073__TransactLib___________________________915063e2992d2990848a3060006040516020015260405160e060020a63ffffffff871602815260048101949094526024840192909252600160a060020a03908116604484015216606482015260840160206040518083038186803b1515610a2957600080fd5b6102c65a03f41515610a3a57600080fd5b5050506040518051600c5550610b40565b6000808052600660205273__AdrLib________________________________90632c2fc20e9060008051602061112c833981519152908a906040516020015260405160e060020a63ffffffff85160281526004810192909252600160a060020a0316602482015260440160206040518083038186803b1515610acc57600080fd5b6102c65a03f41515610add57600080fd5b5050506040518051905015610b3b5786600160a060020a0316630ff372828960006040516020015260405160e060020a63ffffffff84160281526004810191909152602401602060405180830381600087803b151561097f57600080fd5b600092505b5095999098509650505050505050565b6001610b5a61031d565b8114156100cc5760015433600160a060020a03908116911614156100cc57600d82905542600a8190556001547fdf963fee409850630585bd095a505a9a956ef373cd706eb6eddec02d0a36731991600160a060020a039091169084906040518084600160a060020a0316600160a060020a03168152602001838152602001828152602001935050505060405180910390a15b5050565b600080600080600080600d541115610ed6576002600052600660205260008051602061114c8339815191525415610da5575060005b6002600052600660205260008051602061114c83398151915254811015610da0576002600052600660205260008051602061114c833981519152805482908110610c6b57fe5b6000918252602082200154600d54600160a060020a03909116935083916335f7f5e291906040516040015260405160e060020a63ffffffff841602815260048101919091526024016040805180830381600087803b1515610ccb57600080fd5b6102c65a03f11515610cdc57600080fd5b5050506040518051906020018051600d80548490039055600c549297508781029650945073__TransactLib___________________________9163e2992d29915086853060006040516020015260405160e060020a63ffffffff871602815260048101949094526024840192909252600160a060020a03908116604484015216606482015260840160206040518083038186803b1515610d7b57600080fd5b6102c65a03f41515610d8c57600080fd5b5050506040518051600c5550600101610c25565b610ed6565b600354600d54600160a060020a03909116906335f7f5e29060006040516040015260405160e060020a63ffffffff841602815260048101919091526024016040805180830381600087803b1515610dfb57600080fd5b6102c65a03f11515610e0c57600080fd5b5050506040518051906020018051600d80548490039055600c54600354939850888202975090955073__TransactLib___________________________9263e2992d2992508790600160a060020a03163060006040516020015260405160e060020a63ffffffff871602815260048101949094526024840192909252600160a060020a03908116604484015216606482015260840160206040518083038186803b1515610eb857600080fd5b6102c65a03f41515610ec957600080fd5b5050506040518051600c55505b5050505050565b600080808073__SortRLib______________________________6391871092600f87846040516080015260405160e060020a63ffffffff85160281526004810192909252602482015260440160806040518083038186803b1515610f4057600080fd5b6102c65a03f41515610f5157600080fd5b5050506040518051906020018051906020018051906020018051905093509350935093509193509193565b600454600160a060020a031690565b60005433600160a060020a03908116911614156100cc576003805473ffffffffffffffffffffffffffffffffffffffff1916600160a060020a038316179055610313565b600d54600a549091565b6001610fe361031d565b8114156100cc5760015433600160a060020a03908116911614156100cc57600e8290554260098190557fae46785019700e30375a5d7b4f91e32f8060ef085111f896ebf889450aa2ab5a9060405190815260200160405180910390a1610bec565b600e54600854600954600091429101101561106157506000611065565b5060015b9091565b60005433600160a060020a03908116911614156100cc57600082815260066020526040902080546001810161109e83826110e4565b506000918252602090912001805473ffffffffffffffffffffffffffffffffffffffff1916600160a060020a038316179055610bec565b600054600160a060020a031681565b8154818355818115116111085760008381526020902061110891810190830161110d565b505050565b61031a91905b808211156111275760008155600101611113565b5090560054cdd369e4e8a8515e52ca72ec816c2101831ad1f18bf44102ed171459c9b4f88819ef417987f8ae7a81f42cdfb18815282fe989326fbff903d13cf0e03ace29a165627a7a723058200046d9950bce72ab38bf8d612a9b93d0891cef2b8d50954a56730e83b501d68f0029",
  "source": "pragma solidity ^0.4.4;\r\n\r\nimport \"./IPV.sol\";\r\nimport \"./IHouse.sol\";\r\nimport \"./IBattery.sol\";\r\nimport \"./IGrid.sol\";\r\nimport \"./SortRLib.sol\";\r\nimport \"./AdrLib.sol\";\r\nimport \"./TransactLib.sol\";\r\nimport \"./GeneralDevice.sol\";\r\n\r\ncontract SinglePV is GeneralDevice, IPV {\r\n  \r\n  using AdrLib for address[];\r\n  using TransactLib for *;\r\n  using SortRLib for *;\r\n\r\n  // one contract is associated to one particular PV panel in the network.\r\n  // later we need to modify the parent contract that creates each PV contract - configuration.sol\r\n\r\n  uint    production;               // Production of electricity (supply: negative)\r\n  uint    price;\r\n\r\n  SortRLib.RankMap draftRankMap;\r\n\r\n// ======= Modifiers =======\r\n\r\n// ======= Event Logs =======\r\n\r\n  event ProductionLog(address adr, uint produc, uint prodAt);\r\n  event ConfigurationLog(string confMod, uint statusAt);\r\n  event PriceUpdate(uint updateAt);\r\n  \r\n// ======= Basic Functionalities =======\r\n\r\n  // --- 0. Upon contract creation and configuration ---\r\n\r\n  function SinglePV(address adr) GeneralDevice(adr) { }\r\n\r\n  // --- 1. set and get PV price & production every 15 min (or less) ---\r\n\r\n  function setProduction(uint produc) public timed(1) ownerOnly {\r\n    production = produc;\r\n    prodStatusAt = now;\r\n    ProductionLog(owner, production, prodStatusAt);\r\n  }\r\n\r\n  function setPrice(uint prs) public timed(1) ownerOnly {\r\n    price = prs;\r\n    priceStatusAt = now;\r\n    PriceUpdate(now);\r\n  }\r\n\r\n  function getProduction() external view returns (uint prod, uint prodAt) {//timed(queryTime,prodTimeOut)\r\n    prod = production;\r\n    prodAt = prodStatusAt;\r\n  }\r\n\r\n  function getPrice() public view returns (uint prs, bool updatedOrNot) { //connectedHouseOnly external\r\n    prs = price;\r\n    //prsAt = priceStatusAt;\r\n    if (priceStatusAt + priceTimeOut < now) {\r\n      updatedOrNot = false;\r\n    } else {\r\n      updatedOrNot = true;\r\n    }\r\n    //adr = owner;\r\n  }\r\n\r\n  // --- 3. PV can provide energy to houses. --- \r\n  // ---    Sort the list of ranks. --- \r\n\r\n  function askForRank() timed(3) {\r\n    uint consum;\r\n    uint rank;\r\n    uint tot;\r\n    bool updated;\r\n    draftRankMap.initRnkTable();\r\n    for (uint i = 0; i < connectedDevice[0].length; i++) {\r\n      (consum, rank, tot, updated) = IHouse(connectedDevice[0][i]).getSortedPrice();\r\n      if (updated) {\r\n        draftRankMap.addToRnkTable(connectedDevice[0][i],consum, rank, tot);\r\n      }\r\n    }\r\n    for (i = 0; i < connectedDevice[2].length; i++) {\r\n      (consum,rank,tot,updated) = IBattery(connectedDevice[2][i]).getSortedPrice();\r\n      if (updated) {\r\n        draftRankMap.addToRnkTable(connectedDevice[2][i],consum, rank, tot);\r\n      }\r\n    }\r\n    lastRankingAt = now;\r\n  }\r\n\r\n  function sortRank() timed(3) {\r\n    draftRankMap.sortRnkTable();\r\n    /*\r\n    // In case there is still excess, need to ask connectedBattery to buy for the extra...as much as possible\r\n    if (connectedBattery.length != 0) {\r\n      for (i=0; i<connectedBattery.length; i++) {\r\n        uint prs = 0;\r\n        uint cap = 0;\r\n        (prs, cap) = IBattery(grid).getExcess();\r\n      \r\n      }\r\n    }\r\n    // if the grid is connected -> add the price from the grid to the end of the sorted list \r\n    if (grid != 0x0) {\r\n      uint tP = 0;\r\n      bool tF = false;\r\n      (tP,tF) = IGrid(grid).getPrice();\r\n      setPriceQueryInfo(grid,tP,tF);\r\n      sortedPriceQueryInfo[num] = grid;\r\n    }*/\r\n  }\r\n\r\n  function getSortedRank(uint _id) returns(address adr, uint consum, uint rank, uint tot) {\r\n    return draftRankMap.getSortedList(_id);\r\n  }\r\n \r\n  // --- 4. Initiate e transaction --- \r\n  \r\n  function initiateTransaction(uint _id) timed(4) returns (uint, uint) {\r\n    uint giveoutVol;\r\n    address adr;\r\n    uint consum;\r\n    uint rank;\r\n    uint tot;\r\n    uint whatDeviceAccept;\r\n    uint receivedMoney;\r\n    //for (uint i = 0; i < rLength; i++) {\r\n      //adr = sortedRankingInfo[_id];\r\n      (adr,consum,rank,tot) = getSortedRank(_id);\r\n      giveoutVol = production.findMin(consum);\r\n      if (connectedDevice[2].assertInside(adr)) {\r\n        whatDeviceAccept = IBattery(adr).goNoGo(giveoutVol);\r\n        production -= whatDeviceAccept;\r\n        receivedMoney = whatDeviceAccept*price;\r\n        wallet = wallet.clearMoneyTransfer(receivedMoney,adr, address(this));\r\n      } else if (connectedDevice[0].assertInside(adr)) {\r\n        whatDeviceAccept = IHouse(adr).goNoGo(giveoutVol);\r\n        production -= whatDeviceAccept;\r\n        receivedMoney = whatDeviceAccept*price;\r\n        wallet = wallet.clearMoneyTransfer(receivedMoney,adr, address(this));\r\n      } else {\r\n        whatDeviceAccept = 0; \r\n      }\r\n      return(giveoutVol, whatDeviceAccept);\r\n    //}\r\n  }\r\n\r\n  function sellExcess() {\r\n    // after all, if there's still excess and the connected Battery still have the capacity.\r\n    uint whatDeviceAccept;\r\n    uint receivedMoney;\r\n    uint unitPrs;\r\n    address adr;\r\n    if (production > 0) {\r\n      //ToBattery\r\n      if (connectedDevice[2].length != 0) {\r\n        for (uint i = 0; i < connectedDevice[2].length; i++) {\r\n          adr = connectedDevice[2][i];\r\n          (whatDeviceAccept, unitPrs) = IBattery(adr).goExcess(production);\r\n          production -= whatDeviceAccept;\r\n          receivedMoney = whatDeviceAccept*unitPrs;\r\n          wallet = wallet.clearMoneyTransfer(receivedMoney,adr, address(this));\r\n        }\r\n      } else {\r\n        //ToGrid (by default, it's connected to grid)\r\n        (whatDeviceAccept, unitPrs) = IGrid(grid).goExcess(production);\r\n        production -= whatDeviceAccept;\r\n        receivedMoney = whatDeviceAccept*unitPrs;\r\n        wallet = wallet.clearMoneyTransfer(receivedMoney,grid, address(this));\r\n      }\r\n    }\r\n  }\r\n\r\n\r\n}\r\n",
  "sourcePath": "C:\\Users\\qianc\\Documents\\Thesis\\Code\\SimpleMonitor\\contracts\\SinglePV.sol",
  "compiler": {
    "name": "solc",
    "version": "0.4.18+commit.9cf6e910.Emscripten.clang"
  },
  "schemaVersion": "1.0.1",
  "updatedAt": "2017-11-29T01:05:52.142Z"
}