{
  "contractName": "SingleBattery",
  "abi": [
    {
      "constant": true,
      "inputs": [],
      "name": "name",
      "outputs": [
        {
          "name": "",
          "type": "bytes32"
        }
      ],
      "payable": false,
      "stateMutability": "view",
      "type": "function"
    },
    {
      "constant": false,
      "inputs": [
        {
          "name": "adrH",
          "type": "address"
        }
      ],
      "name": "addConnectedHouse",
      "outputs": [],
      "payable": false,
      "stateMutability": "nonpayable",
      "type": "function"
    },
    {
      "constant": false,
      "inputs": [],
      "name": "getSalePrice",
      "outputs": [
        {
          "name": "prs",
          "type": "uint256"
        },
        {
          "name": "updatedOrNot",
          "type": "bool"
        }
      ],
      "payable": false,
      "stateMutability": "nonpayable",
      "type": "function"
    },
    {
      "constant": false,
      "inputs": [
        {
          "name": "adrP",
          "type": "address"
        }
      ],
      "name": "addConnectedPV",
      "outputs": [],
      "payable": false,
      "stateMutability": "nonpayable",
      "type": "function"
    },
    {
      "constant": false,
      "inputs": [
        {
          "name": "vol",
          "type": "uint256"
        }
      ],
      "name": "setVolume",
      "outputs": [],
      "payable": false,
      "stateMutability": "nonpayable",
      "type": "function"
    },
    {
      "constant": false,
      "inputs": [
        {
          "name": "v",
          "type": "uint256"
        }
      ],
      "name": "setBuyVolume",
      "outputs": [],
      "payable": false,
      "stateMutability": "nonpayable",
      "type": "function"
    },
    {
      "constant": false,
      "inputs": [],
      "name": "sort",
      "outputs": [],
      "payable": false,
      "stateMutability": "nonpayable",
      "type": "function"
    },
    {
      "constant": false,
      "inputs": [
        {
          "name": "initTime",
          "type": "uint256"
        }
      ],
      "name": "getVolumeCapacity",
      "outputs": [
        {
          "name": "vol",
          "type": "uint256"
        },
        {
          "name": "volAt",
          "type": "uint256"
        },
        {
          "name": "cap",
          "type": "uint256"
        }
      ],
      "payable": false,
      "stateMutability": "nonpayable",
      "type": "function"
    },
    {
      "constant": false,
      "inputs": [
        {
          "name": "adr",
          "type": "address"
        }
      ],
      "name": "setGridAdr",
      "outputs": [],
      "payable": false,
      "stateMutability": "nonpayable",
      "type": "function"
    },
    {
      "constant": true,
      "inputs": [],
      "name": "owner",
      "outputs": [
        {
          "name": "",
          "type": "address"
        }
      ],
      "payable": false,
      "stateMutability": "view",
      "type": "function"
    },
    {
      "constant": false,
      "inputs": [
        {
          "name": "prsSale",
          "type": "uint256"
        },
        {
          "name": "prsBuy",
          "type": "uint256"
        },
        {
          "name": "prsExcess",
          "type": "uint256"
        }
      ],
      "name": "setPrice",
      "outputs": [],
      "payable": false,
      "stateMutability": "nonpayable",
      "type": "function"
    },
    {
      "constant": false,
      "inputs": [],
      "name": "askForPrice",
      "outputs": [],
      "payable": false,
      "stateMutability": "nonpayable",
      "type": "function"
    },
    {
      "constant": false,
      "inputs": [],
      "name": "getSortedPVInfo",
      "outputs": [
        {
          "name": "consum",
          "type": "uint256"
        },
        {
          "name": "rank",
          "type": "uint256"
        },
        {
          "name": "tot",
          "type": "uint256"
        },
        {
          "name": "updated",
          "type": "bool"
        }
      ],
      "payable": false,
      "stateMutability": "nonpayable",
      "type": "function"
    },
    {
      "constant": false,
      "inputs": [],
      "name": "getExcess",
      "outputs": [
        {
          "name": "prs",
          "type": "uint256"
        },
        {
          "name": "cap",
          "type": "uint256"
        }
      ],
      "payable": false,
      "stateMutability": "nonpayable",
      "type": "function"
    },
    {
      "inputs": [
        {
          "name": "adr",
          "type": "address"
        },
        {
          "name": "cap",
          "type": "uint256"
        }
      ],
      "payable": false,
      "stateMutability": "nonpayable",
      "type": "constructor"
    },
    {
      "anonymous": false,
      "inputs": [
        {
          "indexed": false,
          "name": "adr",
          "type": "address"
        },
        {
          "indexed": false,
          "name": "vol",
          "type": "uint256"
        },
        {
          "indexed": false,
          "name": "volAt",
          "type": "uint256"
        }
      ],
      "name": "VolLog",
      "type": "event"
    },
    {
      "anonymous": false,
      "inputs": [
        {
          "indexed": false,
          "name": "confMod",
          "type": "string"
        },
        {
          "indexed": false,
          "name": "statusAt",
          "type": "uint256"
        }
      ],
      "name": "ConfigurationLog",
      "type": "event"
    },
    {
      "anonymous": false,
      "inputs": [
        {
          "indexed": false,
          "name": "updateAt",
          "type": "uint256"
        }
      ],
      "name": "PriceUpdate",
      "type": "event"
    }
  ],
  "bytecode": "0x606060405261012c6007819055600a55600e8054600160a060020a0319169055341561002a57600080fd5b604051604080610965833981016040528080519190602001805160028054600160a060020a0319908116600160a060020a039687161790915560018054909116339095169490941790935550506004556108dc806100896000396000f3006060604052600436106100cf5763ffffffff7c010000000000000000000000000000000000000000000000000000000060003504166306fdde0381146100d45780630a71db5e146100f95780632fbc0bf11461011a57806341977cf5146101475780634559dcdc146101665780636a95841b1461017c5780638cdc86a6146101925780638cfcc070146101a55780638d646b11146101df5780638da5cb5b146101fe578063aa585d561461022d578063c974602914610249578063cf7fc7621461025c578063d54c564e1461029b575b600080fd5b34156100df57600080fd5b6100e76102c6565b60405190815260200160405180910390f35b341561010457600080fd5b610118600160a060020a03600435166102cc565b005b341561012557600080fd5b61012d610395565b604051918252151560208201526040908101905180910390f35b341561015257600080fd5b610118600160a060020a03600435166103ba565b341561017157600080fd5b610118600435610484565b341561018757600080fd5b610118600435610513565b341561019d57600080fd5b610118610534565b34156101b057600080fd5b6101bb600435610604565b60405180848152602001838152602001828152602001935050505060405180910390f35b34156101ea57600080fd5b610118600160a060020a036004351661062f565b341561020957600080fd5b610211610673565b604051600160a060020a03909116815260200160405180910390f35b341561023857600080fd5b610118600435602435604435610682565b341561025457600080fd5b6101186106e7565b341561026757600080fd5b61026f610811565b604051938452602084019290925260408084019190915290151560608301526080909101905180910390f35b34156102a657600080fd5b6102ae610860565b60405191825260208201526040908101905180910390f35b60035481565b60015433600160a060020a03908116911614156100cf57600f8054600181016102f58382610870565b506000918252602090912001805473ffffffffffffffffffffffffffffffffffffffff1916600160a060020a0383161790557f34ff05936c7ffe85555df53a7bf1374ed025703c493a74c4ce3316646f950e1642604051602081019190915260408082526017818301527f486f757365206c696e6b656420746f204261747465727900000000000000000060608301526080909101905180910390a15b50565b600b54600a5460095460009142910110156103b2575060006103b6565b5060015b9091565b60015433600160a060020a03908116911614156100cf5760108054600181016103e38382610870565b506000918252602090912001805473ffffffffffffffffffffffffffffffffffffffff1916600160a060020a0383161790557f34ff05936c7ffe85555df53a7bf1374ed025703c493a74c4ce3316646f950e1642604051602081019190915260408082526014818301527f5056206c696e6b656420746f204261747465727900000000000000000000000060608301526080909101905180910390a1610392565b60025433600160a060020a03908116911614156100cf5760058190554260088190556002547fa8533a3e28bf00cd05018ed80847d3d6f170da084f6417da50798db7335ff9a091600160a060020a039091169083906040518084600160a060020a0316600160a060020a03168152602001838152602001828152602001935050505060405180910390a1610392565b60025433600160a060020a03908116911614156100cf576006819055610392565b60108054600090811061054357fe5b6000918252602080832090910154918052601490527f4f26c3876aa9f4b92579780beea1161a61f87ebf1ec6ee865b299e447ecba99c805473ffffffffffffffffffffffffffffffffffffffff1916600160a060020a03928316179055600e54161561060257600e54600160005260146020527fb6c61a840592cc84133e4b25bd509abf4659307c57b160799b38490a5aa48f2c805473ffffffffffffffffffffffffffffffffffffffff1916600160a060020a039092169190911790555b565b6000806000836007548082014210156100cf5760055494506008549350600454925050509193909250565b60015433600160a060020a03908116911614156100cf57600e805473ffffffffffffffffffffffffffffffffffffffff1916600160a060020a038316179055610392565b600254600160a060020a031681565b60025433600160a060020a03908116911614156100cf57600b839055600c829055600d8190554260098190557fae46785019700e30375a5d7b4f91e32f8060ef085111f896ebf889450aa2ab5a9060405190815260200160405180910390a15b505050565b600080805b60105481101561080857601080548290811061070457fe5b6000918252602082200154600160a060020a0316906398d5fdca90604051604001526040518163ffffffff167c01000000000000000000000000000000000000000000000000000000000281526004016040805180830381600087803b151561076c57600080fd5b6102c65a03f1151561077d57600080fd5b5050506040518051906020018051919450909250604090508051908101604052838152821515602082015260108054601391600091859081106107bc57fe5b6000918252602080832090910154600160a060020a0316835282019290925260400190208151815560208201516001918201805460ff19169115159190911790559190910190506106ec565b50504260125550565b600654600e546001906000908190600160a060020a03161561083a576010546001019150610840565b60105491505b42600a546012540110156108565750600061085a565b5060015b90919293565b600d546005546004549192910390565b8154818355818115116106e2576000838152602090206106e29181019083016108ad91905b808211156108a95760008155600101610895565b5090565b905600a165627a7a72305820468e382972ff89ae320823466805015090f3c56ca75c433f45284fe2ee9d2a6a0029",
  "source": "pragma solidity ^0.4.4;\n\nimport \"./IBattery.sol\";\nimport \"./SortLib.sol\"; \nimport \"./AdrLib.sol\"; \nimport \"./TransactLib.sol\";\n//For simplicity, we do not use the sorting functions here, as in our configuration, there is only one battery and there's only one PV connected.  \nimport \"./IPV.sol\";\nimport \"./IGrid.sol\";\n\ncontract SingleBattery is IBattery {\n  \n  using AdrLib for address[];\n\n  address Admin;                    // shall be defined at the creation of contract or to be defined manually\n  address public owner;\n  bytes32 public name;              // name of the device (Serie No.)\n  uint    capacity;                 // Cap of the device\n  uint    currentVolume;            // Production of electricity\n  uint    buyVolume;                // Amount of electricity that this battery would like to buy. Will first participate in the supply competition \n                                    //and will be finally (anyway) fulfilled b either the network or from the grid...\n  uint    volTimeOut = 5 minutes;\n  uint    volStatusAt;              // timestamp of the update\n  \n  uint    priceStatusAt;            // timestamp of the update (price)\n  uint    priceTimeOut = 5 minutes;\n  uint    priceForSale;\n  uint    priceForBuy;              // lower than market price\n  uint    priceForExcessEnergy;     // lower than market price\n  address grid = 0x0;                     // contract address of grid\n  address[] connectedHouse; // List of households connected\n  address[] connectedPV;// List of PV connected\n  \n  /*struct PriceTF {\n    uint  prs;\n    bool  updated;\n  }*/\n\n  using SortLib for SortLib.PriceTF[];\n  SortLib.PriceTF[] prepPriceQueryInfo;\n  uint    lastPriceQueryAt;\n\n  mapping(address=>SortLib.PriceTF) priceQueryInfo;\n  mapping(uint=>address) sortedPriceQueryInfo;\n\n  function askForPrice() {\n    // House query price info to all the connected PV/Battery. \n    // If the house is connected to grid (most of the time), the price of Grid will be automatically added to the end of the sorted list.\n    uint tP = 0;\n    bool tF = false;\n    for (uint i = 0; i < connectedPV.length; i++) {\n      (tP,tF) = IPV(connectedPV[i]).getPrice();\n      priceQueryInfo[connectedPV[i]] = SortLib.PriceTF(tP,tF);\n    }\n    lastPriceQueryAt = now;\n  }\n\n  function sort() { // we are not doing sorting here -> as there is only 1 PV in the exercise layout\n    sortedPriceQueryInfo[0] = connectedPV[0];\n    if (grid != 0x0) {\n      sortedPriceQueryInfo[1] = grid;\n    } \n  } \n\n  function getSortedPVInfo() returns(uint consum, uint rank, uint tot, bool updated) {\n    // address adr = msg.sender;     //If the PV is connected\n    consum = buyVolume;\n    rank = 1; // We only have one PV connnected (In the demo layout)\n    if (grid != 0x0) {\n      tot = connectedPV.length + 1;\n    } else {\n      tot = connectedPV.length;\n    }\n    if (lastPriceQueryAt + priceTimeOut < now) {\n      updated = false;    // The house may be inactive for a while, so the list stored is outdated.\n    } else {\n      updated = true;      \n    }\n  }\n\n\n  modifier ownerOnly {\n    if (msg.sender == owner) {\n      _;\n    } else {\n      revert();\n    }\n  }\n\n  modifier adminOnly {\n    if (msg.sender == Admin) {\n      _;\n    } else {\n      revert();\n    }\n  }\n\n  modifier connectedPVOnly (address adrP) {\n    if (connectedPV.AssertInside(adrP) == true) {\n      _;\n    } else {\n      revert();\n    }\n  }\n\n  modifier connectedHouseOnly {\n    if (connectedPV.AssertInside(msg.sender) == true) {\n      _;\n    } else {\n      revert();\n    }\n  }\n\n  modifier timed (uint initialTime, uint allowedTimeOut) {\n    if(now < initialTime + allowedTimeOut) {\n      _;\n    } else {\n      revert();\n    }\n  }\n\n  event VolLog(address adr, uint vol, uint volAt);\n  event ConfigurationLog(string confMod, uint statusAt);\n  event PriceUpdate(uint updateAt);\n\n  function SingleBattery (address adr,  uint cap) {\n    // constructor\n    owner = adr;\n    Admin = msg.sender;\n    capacity = cap;\n  }\n\n  function setGridAdr(address adr) adminOnly external{\n    grid = adr;\n  }\n\n  function setVolume(uint vol) ownerOnly {\n    // Can only be triggered once....Should be moved to the constructor...Once the initial volumne is set, can only be changed by energy trading.\n    currentVolume = vol;\n    volStatusAt = now;\n    VolLog(owner,vol,volStatusAt);\n  }\n\n  function setPrice(uint prsSale, uint prsBuy, uint prsExcess) ownerOnly {\n    priceForSale = prsSale;\n    priceForBuy = prsBuy;\n    priceForExcessEnergy = prsExcess;\n    priceStatusAt = now;\n    PriceUpdate(priceStatusAt);\n  }\n\n  function setBuyVolume(uint v) ownerOnly {\n    buyVolume = v;\n  }\n\n  // function askForPrice() {} // to ask for prices set by PVs...\n\n  function addConnectedPV(address adrP) adminOnly external {\n    connectedPV.push(adrP);\n    ConfigurationLog(\"PV linked to Battery\",now);\n  }\n\n  /*function deleteConnectedPV(address adrP) adminOnly external {\n    for (uint i = 0; i < connectedPV.length; i++) {\n      if (adrP == connectedPV[i]) {\n        delete connectedPV[i];\n        if (i != connectedPV.length-1) {\n          connectedPV[i] = connectedPV[connectedPV.length-1];\n        }\n        connectedPV.length--;\n      }\n    }\n  }*/\n\n  function addConnectedHouse(address adrH) adminOnly external {\n    connectedHouse.push(adrH);\n    ConfigurationLog(\"House linked to Battery\",now);\n  }\n\n  /*function deleteConnectedHouse(address adrH) adminOnly external {\n    for (uint i = 0; i < connectedHouse.length; i++) {\n      if (adrH == connectedHouse[i]) {\n        delete connectedHouse[i];\n        if (i != connectedHouse.length-1) {\n          connectedHouse[i] = connectedHouse[connectedHouse.length-1];\n        }\n        connectedHouse.length--;\n      }\n    }\n  }*/\n\n  function getVolumeCapacity (uint initTime) timed(initTime,volTimeOut) external returns (uint vol, uint volAt, uint cap) {\n    vol = currentVolume;\n    volAt = volStatusAt;\n    cap = capacity;\n  }\n\n  function getSalePrice() returns (uint prs, bool updatedOrNot) { // connectedHouseOnly external\n    prs = priceForSale;\n    //prsAt = priceStatusAt;\n    if (priceStatusAt + priceTimeOut < now) {\n      updatedOrNot = false;\n    } else {\n      updatedOrNot = true;\n    }\n    //adr = owner;\n  }\n\n  function getExcess() returns (uint prs, uint cap) {\n    prs = priceForExcessEnergy;\n    cap = capacity - currentVolume;\n  }\n\n}\n",
  "sourcePath": "C:\\Users\\qianc\\Documents\\Thesis\\Code\\SimpleMonitor\\contracts\\SingleBattery.sol",
  "compiler": {
    "name": "solc",
    "version": "0.4.18+commit.9cf6e910.Emscripten.clang"
  },
  "schemaVersion": "1.0.1",
  "updatedAt": "2017-11-09T21:36:50.201Z"
}