{
  "contractName": "SinglePV",
  "abi": [
    {
      "constant": false,
      "inputs": [
        {
          "name": "adrH",
          "type": "address"
        }
      ],
      "name": "addConnectedHouse",
      "outputs": [],
      "payable": false,
      "stateMutability": "nonpayable",
      "type": "function"
    },
    {
      "constant": false,
      "inputs": [],
      "name": "getWallet",
      "outputs": [
        {
          "name": "",
          "type": "int256"
        }
      ],
      "payable": false,
      "stateMutability": "nonpayable",
      "type": "function"
    },
    {
      "constant": false,
      "inputs": [],
      "name": "askForRank",
      "outputs": [],
      "payable": false,
      "stateMutability": "nonpayable",
      "type": "function"
    },
    {
      "constant": false,
      "inputs": [
        {
          "name": "_id",
          "type": "uint256"
        }
      ],
      "name": "initiateTransaction",
      "outputs": [
        {
          "name": "",
          "type": "uint256"
        },
        {
          "name": "",
          "type": "uint256"
        }
      ],
      "payable": false,
      "stateMutability": "nonpayable",
      "type": "function"
    },
    {
      "constant": false,
      "inputs": [
        {
          "name": "produc",
          "type": "uint256"
        }
      ],
      "name": "setProduction",
      "outputs": [],
      "payable": false,
      "stateMutability": "nonpayable",
      "type": "function"
    },
    {
      "constant": false,
      "inputs": [
        {
          "name": "_id",
          "type": "uint256"
        }
      ],
      "name": "getPrepInfo",
      "outputs": [
        {
          "name": "consum",
          "type": "uint256"
        },
        {
          "name": "rank",
          "type": "uint256"
        },
        {
          "name": "tot",
          "type": "uint256"
        }
      ],
      "payable": false,
      "stateMutability": "nonpayable",
      "type": "function"
    },
    {
      "constant": false,
      "inputs": [],
      "name": "sellExcess",
      "outputs": [],
      "payable": false,
      "stateMutability": "nonpayable",
      "type": "function"
    },
    {
      "constant": false,
      "inputs": [
        {
          "name": "adrB",
          "type": "address"
        }
      ],
      "name": "addConnectedBattery",
      "outputs": [],
      "payable": false,
      "stateMutability": "nonpayable",
      "type": "function"
    },
    {
      "constant": false,
      "inputs": [
        {
          "name": "adr",
          "type": "address"
        }
      ],
      "name": "setGridAdr",
      "outputs": [],
      "payable": false,
      "stateMutability": "nonpayable",
      "type": "function"
    },
    {
      "constant": false,
      "inputs": [],
      "name": "getProduction",
      "outputs": [
        {
          "name": "prod",
          "type": "uint256"
        },
        {
          "name": "prodAt",
          "type": "uint256"
        }
      ],
      "payable": false,
      "stateMutability": "nonpayable",
      "type": "function"
    },
    {
      "constant": false,
      "inputs": [
        {
          "name": "prs",
          "type": "uint256"
        }
      ],
      "name": "setPrice",
      "outputs": [],
      "payable": false,
      "stateMutability": "nonpayable",
      "type": "function"
    },
    {
      "constant": false,
      "inputs": [],
      "name": "getPrice",
      "outputs": [
        {
          "name": "prs",
          "type": "uint256"
        },
        {
          "name": "updatedOrNot",
          "type": "bool"
        }
      ],
      "payable": false,
      "stateMutability": "nonpayable",
      "type": "function"
    },
    {
      "constant": false,
      "inputs": [
        {
          "name": "a",
          "type": "uint256"
        },
        {
          "name": "adr",
          "type": "address"
        }
      ],
      "name": "addConnectedDevice",
      "outputs": [],
      "payable": false,
      "stateMutability": "nonpayable",
      "type": "function"
    },
    {
      "constant": false,
      "inputs": [
        {
          "name": "_id",
          "type": "uint256"
        }
      ],
      "name": "getSortedInfo",
      "outputs": [
        {
          "name": "adr",
          "type": "address"
        },
        {
          "name": "consum",
          "type": "uint256"
        },
        {
          "name": "rank",
          "type": "uint256"
        },
        {
          "name": "tot",
          "type": "uint256"
        }
      ],
      "payable": false,
      "stateMutability": "nonpayable",
      "type": "function"
    },
    {
      "constant": false,
      "inputs": [],
      "name": "sortRankList",
      "outputs": [],
      "payable": false,
      "stateMutability": "nonpayable",
      "type": "function"
    },
    {
      "constant": true,
      "inputs": [],
      "name": "Admin",
      "outputs": [
        {
          "name": "",
          "type": "address"
        }
      ],
      "payable": false,
      "stateMutability": "view",
      "type": "function"
    },
    {
      "inputs": [
        {
          "name": "adr",
          "type": "address"
        }
      ],
      "payable": false,
      "stateMutability": "nonpayable",
      "type": "constructor"
    },
    {
      "anonymous": false,
      "inputs": [
        {
          "indexed": false,
          "name": "adr",
          "type": "address"
        },
        {
          "indexed": false,
          "name": "produc",
          "type": "uint256"
        },
        {
          "indexed": false,
          "name": "prodAt",
          "type": "uint256"
        }
      ],
      "name": "ProductionLog",
      "type": "event"
    },
    {
      "anonymous": false,
      "inputs": [
        {
          "indexed": false,
          "name": "confMod",
          "type": "string"
        },
        {
          "indexed": false,
          "name": "statusAt",
          "type": "uint256"
        }
      ],
      "name": "ConfigurationLog",
      "type": "event"
    },
    {
      "anonymous": false,
      "inputs": [
        {
          "indexed": false,
          "name": "updateAt",
          "type": "uint256"
        }
      ],
      "name": "PriceUpdate",
      "type": "event"
    }
  ],
  "bytecode": "0x606060405260038054600160a060020a031916905561012c6006819055600755341561002a57600080fd5b60405160208061135f8339810160405280805160018054600160a060020a03928316600160a060020a03199182161790915560008054339093169290911691909117905550506112e08061007f6000396000f3006060604052600436106100cc5763ffffffff60e060020a6000350416630a71db5e81146100d157806313299604146100f25780633d7224dc146101175780633fd2007d1461012a578063567cc2b61461015857806366b294431461016e57806367a2829d146101a85780638ad5366f146101bb5780638d646b11146101da5780638e4dfebb146101f957806391b7f5ed1461020c57806398d5fdca14610222578063bfd119031461024f578063d5adad5414610271578063fba30167146102c4578063ff1b636d146102d7575b600080fd5b34156100dc57600080fd5b6100f0600160a060020a0360043516610306565b005b34156100fd57600080fd5b6101056103c2565b60405190815260200160405180910390f35b341561012257600080fd5b6100f06103c9565b341561013557600080fd5b6101406004356107bc565b60405191825260208201526040908101905180910390f35b341561016357600080fd5b6100f0600435610af9565b341561017957600080fd5b610184600435610b88565b60405180848152602001838152602001828152602001935050505060405180910390f35b34156101b357600080fd5b6100f0610bfd565b34156101c657600080fd5b6100f0600160a060020a0360043516610ea5565b34156101e557600080fd5b6100f0600160a060020a0360043516610f62565b341561020457600080fd5b610140610f99565b341561021757600080fd5b6100f0600435610fa3565b341561022d57600080fd5b610235610ffd565b604051918252151560208201526040908101905180910390f35b341561025a57600080fd5b6100f0600435600160a060020a0360243516611022565b341561027c57600080fd5b610287600435611081565b6040518085600160a060020a0316600160a060020a0316815260200184815260200183815260200182815260200194505050505060405180910390f35b34156102cf57600080fd5b6100f06110bb565b34156102e257600080fd5b6102ea6111bd565b604051600160a060020a03909116815260200160405180910390f35b60005433600160a060020a03908116911614156100cc57600d80546001810161032f838261121f565b5060009182526020909120018054600160a060020a031916600160a060020a0383161790557f34ff05936c7ffe85555df53a7bf1374ed025703c493a74c4ce3316646f950e1642604051602081019190915260408082526012818301527f486f757365206c696e6b656420746f205056000000000000000000000000000060608301526080909101905180910390a15b50565b6008545b90565b600e54600d5460009182918291829182918291016103e8600f82611243565b50600090505b600d548110156105c457600d80548290811061040657fe5b6000918252602082200154600160a060020a0316906338a3528c90604051608001526040518163ffffffff1660e060020a028152600401608060405180830381600087803b151561045657600080fd5b6102c65a03f1151561046757600080fd5b505050604051805190602001805190602001805190602001805193995091975095509093505082156105bc576060604051908101604052808781526020018681526020018581525060126000600d848154811015156104c257fe5b6000918252602080832090910154600160a060020a03168352820192909252604001902081518155602082015181600101556040820151816002015590505060126000600d8381548110151561051457fe5b6000918252602080832090910154600160a060020a031683528201929092526040019020600f80548490811061054657fe5b60009182526020909120825460039092020190815560018083015490820155600291820154910155600d80548290811061057c57fe5b6000918252602080832090910154848352601390915260409091208054600160a060020a031916600160a060020a03909216919091179055600191909101905b6001016103ee565b5060005b600e5481101561079e57600e8054829081106105e057fe5b6000918252602082200154600160a060020a03169063cf7fc76290604051608001526040518163ffffffff1660e060020a028152600401608060405180830381600087803b151561063057600080fd5b6102c65a03f1151561064157600080fd5b50505060405180519060200180519060200180519060200180519399509197509550909350508215610796576060604051908101604052808781526020018681526020018581525060126000600e8481548110151561069c57fe5b6000918252602080832090910154600160a060020a03168352820192909252604001902081518155602082015181600101556040820151816002015590505060126000600e838154811015156106ee57fe5b6000918252602080832090910154600160a060020a031683528201929092526040019020600f80548490811061072057fe5b60009182526020909120825460039092020190815560018083015490820155600291820154910155600e80548290811061075657fe5b6000918252602080832090910154848352601390915260409091208054600160a060020a031916600160a060020a03909216919091179055600191909101905b6001016105c8565b6010829055816107af600f82611243565b5050426011555050505050565b600081815260136020908152604080832054600954600160a060020a039091168085526012909352818420548493849390928492839273__TransactLib___________________________9263bc2e368c9290918590516020015260405160e060020a63ffffffff85160281526004810192909252602482015260440160206040518083038186803b151561085057600080fd5b6102c65a03f4151561086157600080fd5b5050506040518051945073__AdrLib________________________________90506354859436600e8560006040516020015260405160e060020a63ffffffff85160281526004810192909252600160a060020a0316602482015260440160206040518083038186803b15156108d557600080fd5b6102c65a03f415156108e657600080fd5b5050506040518051905015610a105782600160a060020a0316630ff372828560006040516020015260405160e060020a63ffffffff84160281526004810191909152602401602060405180830381600087803b151561094457600080fd5b6102c65a03f1151561095557600080fd5b5050506040518051600980548290039055600b546008549194508402925073__TransactLib___________________________915063e2992d299083863060006040516020015260405160e060020a63ffffffff871602815260048101949094526024840192909252600160a060020a03908116604484015216606482015260840160206040518083038186803b15156109ee57600080fd5b6102c65a03f415156109ff57600080fd5b505050604051805160085550610aec565b73__AdrLib________________________________6354859436600d8560006040516020015260405160e060020a63ffffffff85160281526004810192909252600160a060020a0316602482015260440160206040518083038186803b1515610a7857600080fd5b6102c65a03f41515610a8957600080fd5b5050506040518051905015610ae75782600160a060020a0316630ff372828560006040516020015260405160e060020a63ffffffff84160281526004810191909152602401602060405180830381600087803b151561094457600080fd5b600091505b5091959194509092505050565b60015433600160a060020a03908116911614156100cc57600981905542600a8190556001547fdf963fee409850630585bd095a505a9a956ef373cd706eb6eddec02d0a36731991600160a060020a039091169083906040518084600160a060020a0316600160a060020a03168152602001838152602001828152602001935050505060405180910390a16103bf565b6000806000600f84815481101515610b9c57fe5b9060005260206000209060030201600001549250600f84815481101515610bbf57fe5b9060005260206000209060030201600101549150600f84815481101515610be257fe5b90600052602060002090600302016002015490509193909250565b6000806000806000806009541115610e9e57600e5415610d6d575060005b600e54811015610d6857600e805482908110610c3357fe5b6000918252602082200154600954600160a060020a03909116935083916335f7f5e291906040516040015260405160e060020a63ffffffff841602815260048101919091526024016040805180830381600087803b1515610c9357600080fd5b6102c65a03f11515610ca457600080fd5b50505060405180519060200180516009805484900390556008549297508781029650945073__TransactLib___________________________9163e2992d29915086853060006040516020015260405160e060020a63ffffffff871602815260048101949094526024840192909252600160a060020a03908116604484015216606482015260840160206040518083038186803b1515610d4357600080fd5b6102c65a03f41515610d5457600080fd5b505050604051805160085550600101610c1b565b610e9e565b600354600954600160a060020a03909116906335f7f5e29060006040516040015260405160e060020a63ffffffff841602815260048101919091526024016040805180830381600087803b1515610dc357600080fd5b6102c65a03f11515610dd457600080fd5b5050506040518051906020018051600980548490039055600854600354939850888202975090955073__TransactLib___________________________9263e2992d2992508790600160a060020a03163060006040516020015260405160e060020a63ffffffff871602815260048101949094526024840192909252600160a060020a03908116604484015216606482015260840160206040518083038186803b1515610e8057600080fd5b6102c65a03f41515610e9157600080fd5b5050506040518051600855505b5050505050565b60005433600160a060020a03908116911614156100cc57600e805460018101610ece838261121f565b5060009182526020909120018054600160a060020a031916600160a060020a0383161790557f34ff05936c7ffe85555df53a7bf1374ed025703c493a74c4ce3316646f950e1642604051602081019190915260408082526014818301527f42617474657279206c696e6b656420746f20505600000000000000000000000060608301526080909101905180910390a16103bf565b60005433600160a060020a03908116911614156100cc5760038054600160a060020a031916600160a060020a0383161790556103bf565b600954600a549091565b60015433600160a060020a03908116911614156100cc57600b81905542600c8190557fae46785019700e30375a5d7b4f91e32f8060ef085111f896ebf889450aa2ab5a9060405190815260200160405180910390a16103bf565b600b54600754600c54600091429101101561101a5750600061101e565b5060015b9091565b60005433600160a060020a03908116911614156100cc576000828152600560205260409020805460018101611057838261121f565b5060009182526020909120018054600160a060020a031916600160a060020a0383161790555b5050565b600090815260136020908152604080832054600160a060020a03168084526012909252909120805460018201546002909201549293909290565b6000805b60105481101561107d5773__SortRLib______________________________63f37de025600f60006040516020015260405160e060020a63ffffffff8416028152600481019190915260240160206040518083038186803b151561112257600080fd5b6102c65a03f4151561113357600080fd5b50505060405180519050915061114b818383016111cc565b73__SortRLib______________________________63b5762770600f8460405160e060020a63ffffffff85160281526004810192909252602482015260440160006040518083038186803b15156111a157600080fd5b6102c65a03f415156111b257600080fd5b5050506001016110bf565b600054600160a060020a031681565b600082821461121a57506000828152601360205260408082208054848452919092208054600160a060020a0319808416600160a060020a039283161790945581549093169290911691821790555b505050565b81548183558181151161121a5760008381526020902061121a91810190830161126f565b81548183558181151161121a5760030281600302836000526020600020918201910161121a919061128d565b6103c691905b808211156112895760008155600101611275565b5090565b6103c691905b808211156112895760008082556001820181905560028201556003016112935600a165627a7a7230582097796f6cf222a66f605c61cd2d9375bd4bf5a1daaced6ca3fa3f32b5272236e40029",
  "source": "pragma solidity ^0.4.4;\r\n\r\nimport \"./IPV.sol\";\r\nimport \"./IHouse.sol\";\r\nimport \"./IBattery.sol\";\r\nimport \"./IGrid.sol\";\r\nimport \"./SortRLib.sol\";\r\nimport \"./AdrLib.sol\";\r\nimport \"./TransactLib.sol\";\r\nimport \"./GeneralDevice.sol\";\r\n\r\ncontract SinglePV is GeneralDevice, IPV {\r\n  \r\n  using AdrLib for address[];\r\n  using TransactLib for *;\r\n  // one contract is associated to one particular PV panel in the network.\r\n  // later we need to modify the parent contract that creates each PV contract - configuration.sol\r\n\r\n  uint    production;               // Production of electricity (supply: negative)\r\n  uint    prodStatusAt;             // timestamp of the update (prod)\r\n  //uint    prodTimeOut = 5 minutes;\r\n  uint    price;\r\n  uint    priceStatusAt;            // timestamp of the update (price)\r\n  //uint    priceTimeOut = 5 minutes;\r\n\r\n  address[] connectedHouse;         // List of households connected\r\n  address[] connectedBattery;       // List of batteries connected\r\n\r\n  /*struct Request {\r\n    uint  consump;\r\n    uint  rank;\r\n    uint  total;\r\n  } */\r\n\r\n  using SortRLib for SortRLib.Request[];\r\n  SortRLib.Request[] prepRankingInfo;\r\n\r\n  uint    rLength;\r\n  uint    lastRankingAt;\r\n  mapping(address=>SortRLib.Request) RankingInfo;\r\n  mapping(uint=>address) sortedRankingInfo;\r\n\r\n  /*function askForRankTEST() returns (uint, uint) {\r\n    uint consum;\r\n    uint rank;\r\n    uint tot;\r\n    bool updated;\r\n    uint num1 = 0;\r\n    uint num2 = 0;\r\n    prepRankingInfo.length = connectedHouse.length+connectedBattery.length;\r\n\r\n    for (uint i = 0; i < connectedHouse.length; i++) {\r\n      \r\n      (consum, rank, tot, updated) = IHouse(connectedHouse[i]).getSortedInfo();\r\n      GetSortedInfo(connectedHouse[i], consum, rank, tot, updated);\r\n      RankingInfo[connectedHouse[i]] = SortRLib.Request(consum, rank, tot);\r\n\r\n      prepRankingInfo[num1] = RankingInfo[connectedHouse[i]];\r\n      num1++;\r\n    }\r\n\r\n    for (i = 0; i < connectedBattery.length; i++) {\r\n        num2++;\r\n    }\r\n\r\n    return (num1, num2);\r\n  }*/\r\n\r\n  function getPrepInfo(uint _id) returns(uint consum, uint rank, uint tot) {\r\n    consum = prepRankingInfo[_id].consump;\r\n    rank = prepRankingInfo[_id].rank;\r\n    tot = prepRankingInfo[_id].total;\r\n  }\r\n\r\n  function askForRank() {\r\n    // ask and prepare for sorting the ranking...\r\n    uint consum;\r\n    uint rank;\r\n    uint tot;\r\n    bool updated;\r\n    uint num;\r\n    prepRankingInfo.length = connectedHouse.length+connectedBattery.length;\r\n    for (uint i = 0; i < connectedHouse.length; i++) {\r\n      (consum, rank, tot, updated) = IHouse(connectedHouse[i]).getSortedInfo();\r\n      //GetSortedInfo(connectedHouse[i], consum, rank, tot, updated);\r\n      if (updated) {\r\n        RankingInfo[connectedHouse[i]] = SortRLib.Request(consum, rank, tot);\r\n        prepRankingInfo[num] = RankingInfo[connectedHouse[i]];\r\n        sortedRankingInfo[num] = connectedHouse[i];\r\n        num++;\r\n      }\r\n    }\r\n    for (i = 0; i < connectedBattery.length; i++) {\r\n      (consum,rank,tot,updated) = IBattery(connectedBattery[i]).getSortedPVInfo();\r\n      //GetSortedInfo(connectedBattery[i], consum, rank, tot, updated);\r\n      if (updated) {\r\n        RankingInfo[connectedBattery[i]] = SortRLib.Request(consum, rank, tot);\r\n        prepRankingInfo[num] = RankingInfo[connectedBattery[i]];\r\n        sortedRankingInfo[num] = connectedBattery[i];\r\n        num++;\r\n      }\r\n    }\r\n    rLength = num;\r\n    prepRankingInfo.length = num;\r\n    lastRankingAt = now;\r\n  }\r\n  // This event is only for testing reason\r\n  //event GetSortedInfo(address device, uint consum, uint rank, uint tot, bool updated);\r\n\r\n  function swap (uint _id1, uint _id2) private {\r\n    if (_id1 != _id2) {\r\n      address temp;\r\n      temp = sortedRankingInfo[_id1];\r\n      sortedRankingInfo[_id1] = sortedRankingInfo[_id2];\r\n      sortedRankingInfo[_id2] = temp;   \r\n    }\r\n  }\r\n\r\n  function sortRankList() {\r\n    uint minTemp;\r\n    for (uint i=0; i<rLength; i++) {\r\n      minTemp = prepRankingInfo.minStruct();\r\n      swap(i,i+minTemp);\r\n      prepRankingInfo.del(minTemp);\r\n    }\r\n    /*\r\n    // In case there is still excess, need to ask connectedBattery to buy for the extra...as much as possible\r\n    if (connectedBattery.length != 0) {\r\n      for (i=0; i<connectedBattery.length; i++) {\r\n        uint prs = 0;\r\n        uint cap = 0;\r\n        (prs, cap) = IBattery(grid).getExcess();\r\n      \r\n      }\r\n      \r\n    }\r\n    // if the grid is connected -> add the price from the grid to the end of the sorted list \r\n    if (grid != 0x0) {\r\n      uint tP = 0;\r\n      bool tF = false;\r\n      (tP,tF) = IGrid(grid).getPrice();\r\n      setPriceQueryInfo(grid,tP,tF);\r\n      sortedPriceQueryInfo[num] = grid;\r\n    }*/\r\n  }\r\n\r\n\r\n  function getSortedInfo(uint _id) returns(address adr, uint consum, uint rank, uint tot) {\r\n    adr = sortedRankingInfo[_id];\r\n    consum = RankingInfo[adr].consump;\r\n    rank = RankingInfo[adr].rank;\r\n    tot = RankingInfo[adr].total;\r\n  }\r\n  \r\n  function initiateTransaction(uint _id) returns (uint, uint) {\r\n    uint giveoutVol;\r\n    address adr;\r\n    uint whatDeviceAccept;\r\n    uint receivedMoney;\r\n    //for (uint i = 0; i < rLength; i++) {\r\n      adr = sortedRankingInfo[_id];\r\n      giveoutVol = production.findMin(RankingInfo[adr].consump);\r\n      if (connectedBattery.AssertInside(adr)) {\r\n        whatDeviceAccept = IBattery(adr).goNoGo(giveoutVol);\r\n        production -= whatDeviceAccept;\r\n        receivedMoney = whatDeviceAccept*price;\r\n        wallet = wallet.clearMoneyTransfer(receivedMoney,adr, address(this));\r\n      } else if (connectedHouse.AssertInside(adr)) {\r\n        whatDeviceAccept = IHouse(adr).goNoGo(giveoutVol);\r\n        production -= whatDeviceAccept;\r\n        receivedMoney = whatDeviceAccept*price;\r\n        wallet = wallet.clearMoneyTransfer(receivedMoney,adr, address(this));\r\n      } else {\r\n        whatDeviceAccept = 0; \r\n      }\r\n      return(giveoutVol, whatDeviceAccept);\r\n    //}\r\n  }\r\n\r\n  function sellExcess() {\r\n    // after all, if there's still excess and the connected Battery still have the capacity.\r\n    uint whatDeviceAccept;\r\n    uint receivedMoney;\r\n    uint unitPrs;\r\n    address adr;\r\n    if (production > 0) {\r\n      //ToBattery\r\n      if (connectedBattery.length != 0) {\r\n        for (uint i = 0; i < connectedBattery.length; i++) {\r\n          adr = connectedBattery[i];\r\n          (whatDeviceAccept, unitPrs) = IBattery(adr).goExcess(production);\r\n          production -= whatDeviceAccept;\r\n          receivedMoney = whatDeviceAccept*unitPrs;\r\n          wallet = wallet.clearMoneyTransfer(receivedMoney,adr, address(this));\r\n        }\r\n      } else {\r\n        //ToGrid (by default, it's connected to grid)\r\n        (whatDeviceAccept, unitPrs) = IGrid(grid).goExcess(production);\r\n        production -= whatDeviceAccept;\r\n        receivedMoney = whatDeviceAccept*unitPrs;\r\n        wallet = wallet.clearMoneyTransfer(receivedMoney,grid, address(this));\r\n      }\r\n    }\r\n  }\r\n  /*\r\n  modifier ownerOnly {\r\n    if (msg.sender == owner) {\r\n      _;\r\n    } else {\r\n      revert();\r\n    }\r\n  }*/\r\n\r\n  modifier connectedHouseOnly {\r\n    if (connectedHouse.AssertInside(msg.sender) == true) {\r\n      _;\r\n    } else {\r\n      revert();\r\n    }\r\n  }\r\n\r\n  modifier connectedBatteryOnly (address adrB) {\r\n    var check = false;\r\n    for (uint i = 0; i < connectedBattery.length; i++) {\r\n      if (msg.sender == connectedBattery[i]) {\r\n        check = true;\r\n      }\r\n    }\r\n    if (check == true) {\r\n      _;\r\n    } else {\r\n      revert();\r\n    }\r\n  }\r\n\r\n  modifier timed (uint initialTime, uint allowedTimeOut){\r\n    if(now < initialTime + allowedTimeOut){\r\n      _;\r\n    } else {\r\n      revert();\r\n    }\r\n  }\r\n\r\n  event ProductionLog(address adr, uint produc, uint prodAt);\r\n  event ConfigurationLog(string confMod, uint statusAt);\r\n  event PriceUpdate(uint updateAt);\r\n  \r\n\r\n  function SinglePV(address adr) GeneralDevice(adr) { }\r\n\r\n  function setProduction(uint produc) ownerOnly {\r\n    production = produc;\r\n    prodStatusAt = now;\r\n    ProductionLog(owner, production, prodStatusAt);\r\n  }\r\n\r\n  function setPrice(uint prs) ownerOnly {\r\n    price = prs;\r\n    priceStatusAt = now;\r\n    PriceUpdate(now);\r\n  }\r\n\r\n  /*function setGridAdr(address adr) adminOnly external {\r\n    grid = adr;\r\n  }*/\r\n\r\n  function addConnectedHouse(address adrH) adminOnly external {\r\n    connectedHouse.push(adrH);\r\n    ConfigurationLog(\"House linked to PV\",now);\r\n  }\r\n\r\n  /*\r\n  function deleteConnectedHouse(address adrH) adminOnly external returns (bool) {\r\n    for (uint i = 0; i < connectedHouse.length; i++) {\r\n      if (adrH == connectedHouse[i]) {\r\n        delete connectedHouse[i];\r\n        if (i != connectedHouse.length-1) {\r\n          connectedHouse[i] = connectedHouse[connectedHouse.length-1];\r\n        }\r\n        connectedHouse.length--;\r\n        ConfigurationLog(\"House Deleted\",now);\r\n        return true;\r\n      }\r\n    }\r\n    return false;\r\n  }*/\r\n\r\n  function addConnectedBattery(address adrB) adminOnly external {\r\n    connectedBattery.push(adrB);\r\n    ConfigurationLog(\"Battery linked to PV\",now);\r\n\r\n  }\r\n\r\n  /*\r\n  function deleteConnectedBattery(address adrB) adminOnly external returns (bool) {\r\n    for (uint i = 0; i < connectedBattery.length; i++) {\r\n      if (adrB == connectedBattery[i]) {\r\n        delete connectedBattery[i];\r\n        if (i != connectedBattery.length-1) {\r\n          connectedBattery[i] = connectedBattery[connectedBattery.length-1];\r\n        }\r\n        connectedBattery.length--;\r\n        ConfigurationLog(\"Battery Deleted\",now);\r\n        return true;\r\n      }\r\n    }\r\n    return false;\r\n  }*/\r\n\r\n  function getProduction() external returns (uint prod, uint prodAt) {//timed(queryTime,prodTimeOut)\r\n    prod = production;\r\n    prodAt = prodStatusAt;\r\n  }\r\n\r\n  function getPrice() returns (uint prs, bool updatedOrNot) { //connectedHouseOnly external\r\n    prs = price;\r\n    //prsAt = priceStatusAt;\r\n    if (priceStatusAt + priceTimeOut < now) {\r\n      updatedOrNot = false;\r\n    } else {\r\n      updatedOrNot = true;\r\n    }\r\n    //adr = owner;\r\n  }\r\n}\r\n",
  "sourcePath": "C:\\Users\\qianc\\Documents\\Thesis\\Code\\SimpleMonitor\\contracts\\SinglePV.sol",
  "compiler": {
    "name": "solc",
    "version": "0.4.18+commit.9cf6e910.Emscripten.clang"
  },
  "schemaVersion": "1.0.1",
  "updatedAt": "2017-11-26T15:56:44.945Z"
}