{
  "contractName": "SingleHouse",
  "abi": [
    {
      "constant": true,
      "inputs": [],
      "name": "name",
      "outputs": [
        {
          "name": "",
          "type": "bytes32"
        }
      ],
      "payable": false,
      "stateMutability": "view",
      "type": "function"
    },
    {
      "constant": false,
      "inputs": [
        {
          "name": "giveoutvol",
          "type": "uint256"
        }
      ],
      "name": "goNoGo",
      "outputs": [
        {
          "name": "",
          "type": "uint256"
        }
      ],
      "payable": false,
      "stateMutability": "nonpayable",
      "type": "function"
    },
    {
      "constant": true,
      "inputs": [],
      "name": "getWallet",
      "outputs": [
        {
          "name": "",
          "type": "int256"
        }
      ],
      "payable": false,
      "stateMutability": "view",
      "type": "function"
    },
    {
      "constant": false,
      "inputs": [
        {
          "name": "adr",
          "type": "address"
        }
      ],
      "name": "getSortedHInfo",
      "outputs": [
        {
          "name": "consum",
          "type": "uint256"
        },
        {
          "name": "rank",
          "type": "uint256"
        },
        {
          "name": "tot",
          "type": "uint256"
        },
        {
          "name": "updated",
          "type": "bool"
        }
      ],
      "payable": false,
      "stateMutability": "nonpayable",
      "type": "function"
    },
    {
      "constant": false,
      "inputs": [],
      "name": "getSortedInfo",
      "outputs": [
        {
          "name": "consum",
          "type": "uint256"
        },
        {
          "name": "rank",
          "type": "uint256"
        },
        {
          "name": "tot",
          "type": "uint256"
        },
        {
          "name": "updated",
          "type": "bool"
        }
      ],
      "payable": false,
      "stateMutability": "nonpayable",
      "type": "function"
    },
    {
      "constant": false,
      "inputs": [],
      "name": "buyExtra",
      "outputs": [],
      "payable": false,
      "stateMutability": "nonpayable",
      "type": "function"
    },
    {
      "constant": false,
      "inputs": [
        {
          "name": "adrP",
          "type": "address"
        }
      ],
      "name": "addConnectedPV",
      "outputs": [],
      "payable": false,
      "stateMutability": "nonpayable",
      "type": "function"
    },
    {
      "constant": false,
      "inputs": [
        {
          "name": "consum",
          "type": "uint256"
        }
      ],
      "name": "setConsumption",
      "outputs": [],
      "payable": false,
      "stateMutability": "nonpayable",
      "type": "function"
    },
    {
      "constant": false,
      "inputs": [],
      "name": "getConsumption",
      "outputs": [
        {
          "name": "consum",
          "type": "uint256"
        },
        {
          "name": "consumAt",
          "type": "uint256"
        }
      ],
      "payable": false,
      "stateMutability": "nonpayable",
      "type": "function"
    },
    {
      "constant": false,
      "inputs": [
        {
          "name": "adrB",
          "type": "address"
        }
      ],
      "name": "addConnectedBattery",
      "outputs": [],
      "payable": false,
      "stateMutability": "nonpayable",
      "type": "function"
    },
    {
      "constant": false,
      "inputs": [],
      "name": "sortPriceList",
      "outputs": [],
      "payable": false,
      "stateMutability": "nonpayable",
      "type": "function"
    },
    {
      "constant": false,
      "inputs": [
        {
          "name": "adr",
          "type": "address"
        }
      ],
      "name": "setGridAdr",
      "outputs": [],
      "payable": false,
      "stateMutability": "nonpayable",
      "type": "function"
    },
    {
      "constant": true,
      "inputs": [],
      "name": "owner",
      "outputs": [
        {
          "name": "",
          "type": "address"
        }
      ],
      "payable": false,
      "stateMutability": "view",
      "type": "function"
    },
    {
      "constant": false,
      "inputs": [
        {
          "name": "adr",
          "type": "address"
        }
      ],
      "name": "getSortedPosition",
      "outputs": [
        {
          "name": "",
          "type": "uint256"
        }
      ],
      "payable": false,
      "stateMutability": "nonpayable",
      "type": "function"
    },
    {
      "constant": false,
      "inputs": [],
      "name": "askForPrice",
      "outputs": [],
      "payable": false,
      "stateMutability": "nonpayable",
      "type": "function"
    },
    {
      "constant": false,
      "inputs": [
        {
          "name": "a",
          "type": "uint256"
        }
      ],
      "name": "getConnectPVAddress",
      "outputs": [
        {
          "name": "",
          "type": "address"
        }
      ],
      "payable": false,
      "stateMutability": "nonpayable",
      "type": "function"
    },
    {
      "inputs": [
        {
          "name": "adr",
          "type": "address"
        }
      ],
      "payable": false,
      "stateMutability": "nonpayable",
      "type": "constructor"
    },
    {
      "anonymous": false,
      "inputs": [
        {
          "indexed": false,
          "name": "adr",
          "type": "address"
        },
        {
          "indexed": false,
          "name": "consum",
          "type": "uint256"
        },
        {
          "indexed": false,
          "name": "consumAt",
          "type": "uint256"
        }
      ],
      "name": "ConsumptionLog",
      "type": "event"
    },
    {
      "anonymous": false,
      "inputs": [
        {
          "indexed": false,
          "name": "confMod",
          "type": "string"
        },
        {
          "indexed": false,
          "name": "statusAt",
          "type": "uint256"
        }
      ],
      "name": "ConfigurationLog",
      "type": "event"
    },
    {
      "anonymous": false,
      "inputs": [
        {
          "indexed": false,
          "name": "adrFrom",
          "type": "address"
        },
        {
          "indexed": false,
          "name": "adrTo",
          "type": "address"
        },
        {
          "indexed": false,
          "name": "eVol",
          "type": "uint256"
        },
        {
          "indexed": false,
          "name": "transferAt",
          "type": "uint256"
        }
      ],
      "name": "EnergyTransferLog",
      "type": "event"
    }
  ],
  "bytecode": "0x606060405260018054600160a060020a031916905561012c600255341561002557600080fd5b6040516020806111688339810160405280805160058054600160a060020a03928316600160a060020a03199182161790915560008054339093169290911691909117905550506110ee8061007a6000396000f3006060604052600436106100cc5763ffffffff60e060020a60003504166306fdde0381146100d15780630ff37282146100f6578063132996041461010c5780631628ce6c1461011f57806338a3528c1461016a5780633acca96d1461017d57806341977cf5146101925780635a500ecc146101b15780638a5cb1b6146101c75780638ad5366f146101f25780638b874f72146102115780638d646b11146102245780638da5cb5b14610243578063b148f82b14610272578063c974602914610291578063e7e27410146102a4575b600080fd5b34156100dc57600080fd5b6100e46102ba565b60405190815260200160405180910390f35b341561010157600080fd5b6100e46004356102c0565b341561011757600080fd5b6100e4610518565b341561012a57600080fd5b61013e600160a060020a036004351661051f565b604051938452602084019290925260408084019190915290151560608301526080909101905180910390f35b341561017557600080fd5b61013e61057f565b341561018857600080fd5b61019061059c565b005b341561019d57600080fd5b610190600160a060020a03600435166106e7565b34156101bc57600080fd5b6101906004356107a3565b34156101d257600080fd5b6101da610832565b60405191825260208201526040908101905180910390f35b34156101fd57600080fd5b610190600160a060020a0360043516610853565b341561021c57600080fd5b610190610910565b341561022f57600080fd5b610190600160a060020a0360043516610b3b565b341561024e57600080fd5b610256610b72565b604051600160a060020a03909116815260200160405180910390f35b341561027d57600080fd5b6100e4600160a060020a0360043516610b81565b341561029c57600080fd5b610190610bd6565b34156102af57600080fd5b610256600435610dee565b60065481565b6000338173__AdrLib________________________________6354859436600984846040516020015260405160e060020a63ffffffff85160281526004810192909252600160a060020a0316602482015260440160206040518083038186803b151561032b57600080fd5b6102c65a03f4151561033c57600080fd5b50505060405180519050806103d0575073__AdrLib________________________________635485943660088460006040516020015260405160e060020a63ffffffff85160281526004810192909252600160a060020a0316602482015260440160206040518083038186803b15156103b457600080fd5b6102c65a03f415156103c557600080fd5b505050604051805190505b15156103db57600080fd5b60035473__TransactLib___________________________63bc2e368c90918660006040516020015260405160e060020a63ffffffff85160281526004810192909252602482015260440160206040518083038186803b151561043d57600080fd5b6102c65a03f4151561044e57600080fd5b50505060405180519050905060035473__TransactLib___________________________639e5fd0a99091833060006040516020015260405160e060020a63ffffffff861602815260048101939093526024830191909152600160a060020a0316604482015260640160206040518083038186803b15156104ce57600080fd5b6102c65a03f415156104df57600080fd5b505050604051805160035550600160a060020a0382166000908152600c6020526040902054600480549183029091039055915050919050565b6004545b90565b6003546000808061052f85610b81565b600154909350600160a060020a0316156105545760095460085401600101915061055e565b6009546008540191505b42600254600b5401101561057457506000610578565b5060015b9193509193565b60008060008061058e3361051f565b935093509350935090919293565b60015460009081908190600160a060020a031615156105ba57600080fd5b600060035411156106e257600154600354600160a060020a0390911690636e2855449060006040516040015260405160e060020a63ffffffff841602815260048101919091526024016040805180830381600087803b151561061b57600080fd5b6102c65a03f1151561062c57600080fd5b5050506040518051906020018051600354929550925073__TransactLib___________________________91639e5fd0a99150853060006040516020015260405160e060020a63ffffffff861602815260048101939093526024830191909152600160a060020a0316604482015260640160206040518083038186803b15156106b457600080fd5b6102c65a03f415156106c557600080fd5b505050604051805160035550600480548483029081900390915591505b505050565b60005433600160a060020a03908116911614156100cc576008805460018101610710838261102e565b5060009182526020909120018054600160a060020a031916600160a060020a0383161790557f34ff05936c7ffe85555df53a7bf1374ed025703c493a74c4ce3316646f950e1642604051602081019190915260408082526012818301527f5056206c696e6b656420746f20486f757365000000000000000000000000000060608301526080909101905180910390a15b50565b60055433600160a060020a03908116911614156100cc5760038190554260078190556005547f93e0cabaa551645c58979b9f1e87af3e09f708241c9bdd6468e581ad0651692691600160a060020a039091169083906040518084600160a060020a0316600160a060020a03168152602001838152602001828152602001935050505060405180910390a16107a0565b60008060025480600754014210156100cc5760035492506007549150509091565b60005433600160a060020a03908116911614156100cc57600980546001810161087c838261102e565b5060009182526020909120018054600160a060020a031916600160a060020a0383161790557f34ff05936c7ffe85555df53a7bf1374ed025703c493a74c4ce3316646f950e1642604051602081019190915260408082526017818301527f42617474657279206c696e6b656420746f20486f75736500000000000000000060608301526080909101905180910390a16107a0565b6000806000806000610920610e1a565b600954600854019350600092505b83831015610a305773__SortLib_______________________________63f27da568600a60006040516020015260405160e060020a63ffffffff8416028152600481019190915260240160206040518083038186803b151561098f57600080fd5b6102c65a03f415156109a057600080fd5b5050506040518051905094506109bb83600186030386610fe1565b73__SortLib_______________________________6343168c1b600a8760405160e060020a63ffffffff85160281526004810192909252602482015260440160006040518083038186803b1515610a1157600080fd5b6102c65a03f41515610a2257600080fd5b50506001909301925061092e565b600154600160a060020a031615610b345750506001546000908190600160a060020a03166398d5fdca82604051604001526040518163ffffffff1660e060020a0281526004016040805180830381600087803b1515610a8e57600080fd5b6102c65a03f11515610a9f57600080fd5b50505060405180519060200180519193509091506040905080519081016040908152838252821515602080840191909152600154600160a060020a03166000908152600c909152208151815560208201516001918201805491151560ff19909216919091179055546000868152600d602052604090208054600160a060020a031916600160a060020a03909216919091179055505b5050505050565b60005433600160a060020a03908116911614156100cc5760018054600160a060020a031916600160a060020a0383161790556107a0565b600554600160a060020a031681565b6000805b60095460085401600101811015610bcb576000818152600d6020526040902054600160a060020a0384811691161415610bc357806001019150610bd0565b600101610b85565b600091505b50919050565b600080805b600854811015610cde576008805482908110610bf357fe5b6000918252602082200154600160a060020a0316906398d5fdca90604051604001526040518163ffffffff1660e060020a0281526004016040805180830381600087803b1515610c4257600080fd5b6102c65a03f11515610c5357600080fd5b5050506040518051906020018051919450909250604090508051908101604052838152821515602082015260088054600c9160009185908110610c9257fe5b6000918252602080832090910154600160a060020a0316835282019290925260400190208151815560208201516001918201805460ff1916911515919091179055919091019050610bdb565b5060005b600954811015610de5576009805482908110610cfa57fe5b6000918252602082200154600160a060020a031690632fbc0bf190604051604001526040518163ffffffff1660e060020a0281526004016040805180830381600087803b1515610d4957600080fd5b6102c65a03f11515610d5a57600080fd5b5050506040518051906020018051919450909250604090508051908101604052838152821515602082015260098054600c9160009185908110610d9957fe5b6000918252602080832090910154600160a060020a0316835282019290925260400190208151815560208201516001918201805460ff1916911515919091179055919091019050610ce2565b505042600b5550565b6000600882815481101515610dff57fe5b600091825260209091200154600160a060020a031692915050565b60095460085460009101610e2f600a82611052565b50600090505b600854811015610f0257600c6000600883815481101515610e5257fe5b6000918252602080832090910154600160a060020a031683528201929092526040019020600a805483908110610e8457fe5b6000918252602090912082546002909202019081556001918201549101805460ff191660ff90921615159190911790556008805482908110610ec257fe5b6000918252602080832090910154838352600d90915260409091208054600160a060020a031916600160a060020a03909216919091179055600101610e35565b506008545b600a548110156107a057600c600060096008805490508403815481101515610f2b57fe5b6000918252602080832090910154600160a060020a031683528201929092526040019020600a805483908110610f5d57fe5b6000918252602090912082546002909202019081556001918201549101805460ff191660ff90921615159190911790556008546009805490918303908110610fa157fe5b6000918252602080832090910154838352600d90915260409091208054600160a060020a031916600160a060020a03909216919091179055600101610f07565b60008282146106e257506000918252600d6020526040808320805492845292208054600160a060020a03908116600160a060020a0319808516919091179094558154921691909216179055565b8154818355818115116106e2576000838152602090206106e291810190830161107e565b8154818355818115116106e2576002028160020283600052602060002091820191016106e2919061109c565b61051c91905b808211156110985760008155600101611084565b5090565b61051c91905b80821115611098576000815560018101805460ff191690556002016110a25600a165627a7a72305820ed382bbea0bfe29336413ccc92dc1a9a8c915d05cb374a37d6aad962cfff8f800029",
  "source": "pragma solidity ^0.4.4;\n\nimport \"./SortLib.sol\";\nimport \"./AdrLib.sol\";\nimport \"./TransactLib.sol\";\nimport \"./IPV.sol\";\nimport \"./IGrid.sol\";\nimport \"./IBattery.sol\";\nimport \"./IHouse.sol\";\n\ncontract SingleHouse is IHouse {\n  \n  // one contract is associated to one particular House in the network.\n\n  using AdrLib for address[];\n  using TransactLib for uint;\n\n  //address Admin;                    // shall be defined at the creation of contract or to be defined manually... now it doesn't work well. It captures the address of the Configuration contract.\n  //uint    consumTimeOut = 5 minutes;\n  //address grid = 0x0;               // contract address of grid\n  address public owner;\n  bytes32 public name;              // name of the device (Serie No.)\n  \n  uint    consumStatusAt;           // timestamp of the update (consumption)\n  address[] connectedPV;            // List of contract address of connected PV\n  address[] connectedBattery;       // List of contract address of connected batteries\n\n  // may be splited into another contract\n\n  /*struct PriceTF {\n    uint  prs;\n    bool  updated;\n  }*/\n\n  using SortLib for SortLib.PriceTF[];\n  SortLib.PriceTF[] prepPriceQueryInfo;\n\n  uint    lastPriceQueryAt;\n\n  mapping(address=>SortLib.PriceTF) priceQueryInfo;\n  mapping(uint=>address) sortedPriceQueryInfo;\n  \n// ======= Modifiers =======\n  \n  modifier ownerOnly {\n    if (msg.sender == owner) {\n      _;\n    } else {\n      revert();\n    }\n  }\n\n\n/*  modifier adminOnly {\n    if (msg.sender == Admin) {\n      _;\n    } else {\n      revert();\n    }\n  }*/\n\n  modifier connectedPVOnly (address adrP) {\n    if (connectedPV.AssertInside(adrP)) {\n      _;\n    } else {\n      revert();\n    }\n  }\n\n  modifier connectedBatteryOnly (address adrB) {\n    if (connectedBattery.AssertInside(adrB)) {\n      _;\n    } else {\n      revert();\n    }\n  }\n\n  modifier timed (uint allowedTimeOut) {\n    if(now < consumStatusAt + allowedTimeOut) {\n      _;\n    } else {\n      revert();\n    }\n  }\n\n// ======= Event Logs =======\n  event ConsumptionLog(address adr, uint consum, uint consumAt);\n  event ConfigurationLog(string confMod, uint statusAt);\n  event EnergyTransferLog(address adrFrom, address adrTo, uint eVol, uint transferAt);\n\n// ======= Basic Functionalities =======\n\n  // --- Upon contract creation and configuration ---\n\n  function SingleHouse (address adr) {\n    owner = adr;\n    Admin = msg.sender;\n  }\n  \n  /*function setGridAdr(address adr) adminOnly external {\n    grid = adr;\n  }*/\n  \n  function addConnectedPV(address adrP) adminOnly external {\n    connectedPV.push(adrP);\n    ConfigurationLog(\"PV linked to House\",now);\n  }\n\n  function addConnectedBattery(address adrB) adminOnly external {\n    connectedBattery.push(adrB);\n    ConfigurationLog(\"Battery linked to House\",now);\n  }\n\n  // --- Regular usage ---\n\n  function setConsumption(uint consum) ownerOnly {\n    consumption = consum;\n    consumStatusAt = now;\n    ConsumptionLog(owner, consumption, consumStatusAt);\n  }\n\n  function getConsumption()  external timed(consumTimeOut) returns (uint consum, uint consumAt) { //\n    consum = consumption;\n    consumAt = consumStatusAt;\n  }\n\n  // \n\n  function askForPrice() {\n    // House query price info to all the connected PV/Battery. \n    // If the house is connected to grid (most of the time), the price of Grid will be automatically added to the end of the sorted list.\n    uint tP = 0;\n    bool tF = false;\n    for (uint i = 0; i < connectedPV.length; i++) {\n      (tP,tF) = IPV(connectedPV[i]).getPrice();\n      priceQueryInfo[connectedPV[i]] = SortLib.PriceTF(tP,tF);\n    }\n    for (i = 0; i < connectedBattery.length; i++) {\n      (tP,tF) = IBattery(connectedBattery[i]).getSalePrice();\n      priceQueryInfo[connectedBattery[i]] = SortLib.PriceTF(tP,tF);\n    }\n    lastPriceQueryAt = now;\n  }\n\n  //------------------------------\n  // to Sort the received list of Price (from PV and Battery)\n  //------------------------------\n  \n\n  function sortPriceList() {\n    createPriceList();\n    uint maxTemp;\n    uint totalLength = connectedPV.length + connectedBattery.length;\n    for (uint i = 0; i < totalLength; i++) {\n      maxTemp = prepPriceQueryInfo.maxStruct();\n      swap(totalLength-1-i,maxTemp);\n      prepPriceQueryInfo.del(maxTemp);\n    }\n    // if the grid is connected -> add the price from the grid to the end of the sorted list \n    if (grid != 0x0) {\n      uint tP = 0;\n      bool tF = false;\n      (tP,tF) = IGrid(grid).getPrice();\n      priceQueryInfo[grid] = SortLib.PriceTF(tP,tF);\n      //setPriceQueryInfo(grid,tP,tF);\n      sortedPriceQueryInfo[totalLength] = grid;\n    }\n  }\n\n  function createPriceList() private {\n    prepPriceQueryInfo.length = connectedPV.length + connectedBattery.length;\n    //sortedPriceQueryInfo.length = prepPriceQueryInfo.length; => sortedPQI is using mapping now\n    for (uint i = 0; i < connectedPV.length; i++) {\n      prepPriceQueryInfo[i] = priceQueryInfo[connectedPV[i]];\n      sortedPriceQueryInfo[i] = connectedPV[i];\n    }\n    for (i = connectedPV.length; i < prepPriceQueryInfo.length; i++) {\n      prepPriceQueryInfo[i] = priceQueryInfo[connectedBattery[i-connectedPV.length]];\n      sortedPriceQueryInfo[i] = connectedBattery[i-connectedPV.length];\n    }\n  }\n\n  function swap (uint _id1, uint _id2) private {\n    if (_id1 != _id2) {\n      address temp;\n      temp = sortedPriceQueryInfo[_id1];\n      sortedPriceQueryInfo[_id1] = sortedPriceQueryInfo[_id2];\n      sortedPriceQueryInfo[_id2] = temp;   \n    }\n  }\n\n  //------------------------------\n  // Once sorted, actively send to all the connected devices.\n  //------------------------------\n\n  function getSortedPosition (address adr) returns (uint) { // should be private, here the \"private\" is temporarily removed due to testing\n    //require(adr != 0x0);      // Sometimes with this line, there will be error in the configuration.js test... sometimes not.... sometimes need to _migrate_ twice to eliminate the error.... Don't know why\n    for (uint i=0; i<connectedPV.length + connectedBattery.length+1; i++) {\n      if (adr == sortedPriceQueryInfo[i]) {\n        return (i+1);\n      }\n    }\n    return 0;\n  }\n\n  function getSortedInfo() external returns(uint consum, uint rank, uint tot, bool updated) {\n    return  getSortedHInfo(msg.sender);\n  }\n\n  function getSortedHInfo(address adr) returns(uint consum, uint rank, uint tot, bool updated) {  // should be private, here the \"private\" is temporarily removed due to testing\n    //address adr = msg.sender;\n    consum = consumption;\n    rank = getSortedPosition(adr);\n    if (grid != 0x0) {\n      tot = connectedPV.length + connectedBattery.length+1;\n    } else {\n      tot = connectedPV.length + connectedBattery.length;\n    }\n    if (lastPriceQueryAt + consumTimeOut < now) {\n      updated = false;    // The house may be inactive for a while, so the list stored is outdated.\n    } else {\n      updated = true;      \n    }\n  }\n\n  // ------------Functions used in transaction------------------\n  function goNoGo(uint giveoutvol) returns (uint) {\n    address adrDevice = msg.sender;\n    uint takeoutvol;\n    require(connectedBattery.AssertInside(adrDevice) || connectedPV.AssertInside(adrDevice));\n    takeoutvol = consumption.findMin(giveoutvol);\n    consumption = consumption.clearEnergyTransfer(takeoutvol, address(this));\n    //EnergyTransferLog(adrDevice,address(this), takeoutvol, consumption);\n    //wallet = wallet.clearMoneyTransfer(-int(takeoutvol*priceQueryInfo[adrDevice].prs), adrDevice);\n    wallet -= int(takeoutvol*priceQueryInfo[adrDevice].prs);\n    return (takeoutvol); \n  }\n\n  function buyExtra() {\n    // when houses still have extra needs...\n    uint whatDeviceAccept;\n    uint receivedMoney;\n    uint unitPrs;\n    require(grid != 0x0);\n    if (consumption > 0) {\n      (whatDeviceAccept, unitPrs) = IGrid(grid).goExtra(consumption);\n      consumption = consumption.clearEnergyTransfer(whatDeviceAccept, address(this));\n      receivedMoney = whatDeviceAccept*unitPrs;\n      wallet -= int(receivedMoney);\n    }\n  }\n\n\n  // ------------Functions used in testing------------------\n/*\n  function getSortedPriceList (uint _id) returns (address) {\n    return sortedPriceQueryInfo[_id];\n  }\n\n  function getAskedPrice(address adr) returns (uint,bool) {\n    return (priceQueryInfo[adr].prs,priceQueryInfo[adr].updated) ;\n  }\n\n  function askForPricePV(uint i) returns (uint,bool) {\n    return IPV(connectedPV[i]).getPrice();\n  }\n\n  function askForPriceB(uint i) returns (uint,bool) {\n    return IBattery(connectedBattery[i]).getSalePrice();\n  }\n\n  function getOwnerAdmin() returns (address, address){\n    return (owner,Admin);\n  }\n\n  function getConnectedPVCount() returns (uint){\n    return connectedPV.length;\n  }\n\n  function getconnectedBatteryCount() returns (uint){\n    return connectedBattery.length;\n  }\n\n  function getConnectPVAddress(uint a) returns (address) {\n    if (a<connectedPV.length) {\n      return connectedPV[a];\n    } else {\n      return 0x0;\n    }\n  }\n\n  function getconnectedBatteryAddress(uint a) returns (address) {\n    if (a<connectedBattery.length) {\n      return connectedBattery[a];\n    } else {\n      return 0x0;\n   \n    }\n  }\n  */\n\n  function getConnectPVAddress(uint a) returns (address) {\n      return connectedPV[a];\n  }\n}\n",
  "sourcePath": "C:\\Users\\qianc\\Documents\\Thesis\\Code\\SimpleMonitor\\contracts\\SingleHouse.sol",
  "compiler": {
    "name": "solc",
    "version": "0.4.18+commit.9cf6e910.Emscripten.clang"
  },
  "schemaVersion": "1.0.1",
  "updatedAt": "2017-11-13T17:01:43.267Z"
}