{
  "contractName": "SingleHouse",
  "abi": [
    {
      "constant": false,
      "inputs": [
        {
          "name": "giveoutvol",
          "type": "uint256"
        }
      ],
      "name": "goNoGo",
      "outputs": [
        {
          "name": "",
          "type": "uint256"
        }
      ],
      "payable": false,
      "stateMutability": "nonpayable",
      "type": "function"
    },
    {
      "constant": true,
      "inputs": [],
      "name": "getWallet",
      "outputs": [
        {
          "name": "",
          "type": "int256"
        }
      ],
      "payable": false,
      "stateMutability": "view",
      "type": "function"
    },
    {
      "constant": false,
      "inputs": [
        {
          "name": "adr",
          "type": "address"
        }
      ],
      "name": "getSortedHInfo",
      "outputs": [
        {
          "name": "consum",
          "type": "uint256"
        },
        {
          "name": "rank",
          "type": "uint256"
        },
        {
          "name": "tot",
          "type": "uint256"
        },
        {
          "name": "updated",
          "type": "bool"
        }
      ],
      "payable": false,
      "stateMutability": "nonpayable",
      "type": "function"
    },
    {
      "constant": false,
      "inputs": [],
      "name": "getSortedInfo",
      "outputs": [
        {
          "name": "consum",
          "type": "uint256"
        },
        {
          "name": "rank",
          "type": "uint256"
        },
        {
          "name": "tot",
          "type": "uint256"
        },
        {
          "name": "updated",
          "type": "bool"
        }
      ],
      "payable": false,
      "stateMutability": "nonpayable",
      "type": "function"
    },
    {
      "constant": false,
      "inputs": [],
      "name": "buyExtra",
      "outputs": [],
      "payable": false,
      "stateMutability": "nonpayable",
      "type": "function"
    },
    {
      "constant": false,
      "inputs": [
        {
          "name": "adrP",
          "type": "address"
        }
      ],
      "name": "addConnectedPV",
      "outputs": [],
      "payable": false,
      "stateMutability": "nonpayable",
      "type": "function"
    },
    {
      "constant": false,
      "inputs": [
        {
          "name": "consum",
          "type": "uint256"
        }
      ],
      "name": "setConsumption",
      "outputs": [],
      "payable": false,
      "stateMutability": "nonpayable",
      "type": "function"
    },
    {
      "constant": false,
      "inputs": [],
      "name": "getConsumption",
      "outputs": [
        {
          "name": "consum",
          "type": "uint256"
        },
        {
          "name": "consumAt",
          "type": "uint256"
        }
      ],
      "payable": false,
      "stateMutability": "nonpayable",
      "type": "function"
    },
    {
      "constant": false,
      "inputs": [
        {
          "name": "adrB",
          "type": "address"
        }
      ],
      "name": "addConnectedBattery",
      "outputs": [],
      "payable": false,
      "stateMutability": "nonpayable",
      "type": "function"
    },
    {
      "constant": false,
      "inputs": [],
      "name": "sortPriceList",
      "outputs": [],
      "payable": false,
      "stateMutability": "nonpayable",
      "type": "function"
    },
    {
      "constant": false,
      "inputs": [
        {
          "name": "adr",
          "type": "address"
        }
      ],
      "name": "setGridAdr",
      "outputs": [],
      "payable": false,
      "stateMutability": "nonpayable",
      "type": "function"
    },
    {
      "constant": false,
      "inputs": [
        {
          "name": "adr",
          "type": "address"
        }
      ],
      "name": "getSortedPosition",
      "outputs": [
        {
          "name": "",
          "type": "uint256"
        }
      ],
      "payable": false,
      "stateMutability": "nonpayable",
      "type": "function"
    },
    {
      "constant": false,
      "inputs": [
        {
          "name": "a",
          "type": "uint256"
        },
        {
          "name": "adr",
          "type": "address"
        }
      ],
      "name": "addConnectedDevice",
      "outputs": [],
      "payable": false,
      "stateMutability": "nonpayable",
      "type": "function"
    },
    {
      "constant": false,
      "inputs": [],
      "name": "askForPrice",
      "outputs": [],
      "payable": false,
      "stateMutability": "nonpayable",
      "type": "function"
    },
    {
      "constant": false,
      "inputs": [
        {
          "name": "a",
          "type": "uint256"
        }
      ],
      "name": "getConnectPVAddress",
      "outputs": [
        {
          "name": "",
          "type": "address"
        }
      ],
      "payable": false,
      "stateMutability": "nonpayable",
      "type": "function"
    },
    {
      "constant": true,
      "inputs": [],
      "name": "Admin",
      "outputs": [
        {
          "name": "",
          "type": "address"
        }
      ],
      "payable": false,
      "stateMutability": "view",
      "type": "function"
    },
    {
      "inputs": [
        {
          "name": "adr",
          "type": "address"
        }
      ],
      "payable": false,
      "stateMutability": "nonpayable",
      "type": "constructor"
    },
    {
      "anonymous": false,
      "inputs": [
        {
          "indexed": false,
          "name": "adr",
          "type": "address"
        },
        {
          "indexed": false,
          "name": "consum",
          "type": "uint256"
        },
        {
          "indexed": false,
          "name": "consumAt",
          "type": "uint256"
        }
      ],
      "name": "ConsumptionLog",
      "type": "event"
    },
    {
      "anonymous": false,
      "inputs": [
        {
          "indexed": false,
          "name": "confMod",
          "type": "string"
        },
        {
          "indexed": false,
          "name": "statusAt",
          "type": "uint256"
        }
      ],
      "name": "ConfigurationLog",
      "type": "event"
    },
    {
      "anonymous": false,
      "inputs": [
        {
          "indexed": false,
          "name": "adrFrom",
          "type": "address"
        },
        {
          "indexed": false,
          "name": "adrTo",
          "type": "address"
        },
        {
          "indexed": false,
          "name": "eVol",
          "type": "uint256"
        },
        {
          "indexed": false,
          "name": "transferAt",
          "type": "uint256"
        }
      ],
      "name": "EnergyTransferLog",
      "type": "event"
    }
  ],
  "bytecode": "0x606060405260038054600160a060020a031916905561012c600655341561002557600080fd5b6040516020806111d18339810160405280805160018054600160a060020a03928316600160a060020a03199182161790915560008054339093169290911691909117905550506111578061007a6000396000f3006060604052600436106100cc5763ffffffff60e060020a6000350416630ff3728281146100d157806313299604146100f95780631628ce6c1461010c57806338a3528c146101575780633acca96d1461016a57806341977cf51461017f5780635a500ecc1461019e5780638a5cb1b6146101b45780638ad5366f146101df5780638b874f72146101fe5780638d646b1114610211578063b148f82b14610230578063bfd119031461024f578063c974602914610271578063e7e2741014610284578063ff1b636d146102b6575b600080fd5b34156100dc57600080fd5b6100e76004356102c9565b60405190815260200160405180910390f35b341561010457600080fd5b6100e7610521565b341561011757600080fd5b61012b600160a060020a0360043516610528565b604051938452602084019290925260408084019190915290151560608301526080909101905180910390f35b341561016257600080fd5b61012b610588565b341561017557600080fd5b61017d6105a5565b005b341561018a57600080fd5b61017d600160a060020a03600435166106f0565b34156101a957600080fd5b61017d6004356107ac565b34156101bf57600080fd5b6101c761083b565b60405191825260208201526040908101905180910390f35b34156101ea57600080fd5b61017d600160a060020a036004351661085c565b341561020957600080fd5b61017d610919565b341561021c57600080fd5b61017d600160a060020a0360043516610b46565b341561023b57600080fd5b6100e7600160a060020a0360043516610b7d565b341561025a57600080fd5b61017d600435600160a060020a0360243516610bd2565b341561027c57600080fd5b61017d610c30565b341561028f57600080fd5b61029a600435610e48565b604051600160a060020a03909116815260200160405180910390f35b34156102c157600080fd5b61029a610e74565b6000338173__AdrLib________________________________6354859436600a84846040516020015260405160e060020a63ffffffff85160281526004810192909252600160a060020a0316602482015260440160206040518083038186803b151561033457600080fd5b6102c65a03f4151561034557600080fd5b50505060405180519050806103d9575073__AdrLib________________________________635485943660098460006040516020015260405160e060020a63ffffffff85160281526004810192909252600160a060020a0316602482015260440160206040518083038186803b15156103bd57600080fd5b6102c65a03f415156103ce57600080fd5b505050604051805190505b15156103e457600080fd5b60075473__TransactLib___________________________63bc2e368c90918660006040516020015260405160e060020a63ffffffff85160281526004810192909252602482015260440160206040518083038186803b151561044657600080fd5b6102c65a03f4151561045757600080fd5b50505060405180519050905060075473__TransactLib___________________________639e5fd0a99091833060006040516020015260405160e060020a63ffffffff861602815260048101939093526024830191909152600160a060020a0316604482015260640160206040518083038186803b15156104d757600080fd5b6102c65a03f415156104e857600080fd5b505050604051805160075550600160a060020a0382166000908152600d6020526040902054600480549183029091039055915050919050565b6004545b90565b6007546000808061053885610b7d565b600354909350600160a060020a03161561055d57600a54600954016001019150610567565b600a546009540191505b42600654600c5401101561057d57506000610581565b5060015b9193509193565b60008060008061059733610528565b935093509350935090919293565b60035460009081908190600160a060020a031615156105c357600080fd5b600060075411156106eb57600354600754600160a060020a0390911690636e2855449060006040516040015260405160e060020a63ffffffff841602815260048101919091526024016040805180830381600087803b151561062457600080fd5b6102c65a03f1151561063557600080fd5b5050506040518051906020018051600754929550925073__TransactLib___________________________91639e5fd0a99150853060006040516020015260405160e060020a63ffffffff861602815260048101939093526024830191909152600160a060020a0316604482015260640160206040518083038186803b15156106bd57600080fd5b6102c65a03f415156106ce57600080fd5b505050604051805160075550600480548483029081900390915591505b505050565b60005433600160a060020a03908116911614156100cc5760098054600181016107198382611097565b5060009182526020909120018054600160a060020a031916600160a060020a0383161790557f34ff05936c7ffe85555df53a7bf1374ed025703c493a74c4ce3316646f950e1642604051602081019190915260408082526012818301527f5056206c696e6b656420746f20486f757365000000000000000000000000000060608301526080909101905180910390a15b50565b60015433600160a060020a03908116911614156100cc5760078190554260088190556001547f93e0cabaa551645c58979b9f1e87af3e09f708241c9bdd6468e581ad0651692691600160a060020a039091169083906040518084600160a060020a0316600160a060020a03168152602001838152602001828152602001935050505060405180910390a16107a9565b60008060065480600854014210156100cc5760075492506008549150509091565b60005433600160a060020a03908116911614156100cc57600a8054600181016108858382611097565b5060009182526020909120018054600160a060020a031916600160a060020a0383161790557f34ff05936c7ffe85555df53a7bf1374ed025703c493a74c4ce3316646f950e1642604051602081019190915260408082526017818301527f42617474657279206c696e6b656420746f20486f75736500000000000000000060608301526080909101905180910390a16107a9565b6000806000806000610929610e83565b600a54600954019350600092505b83831015610a395773__SortLib_______________________________63f27da568600b60006040516020015260405160e060020a63ffffffff8416028152600481019190915260240160206040518083038186803b151561099857600080fd5b6102c65a03f415156109a957600080fd5b5050506040518051905094506109c48360018603038661104a565b73__SortLib_______________________________6343168c1b600b8760405160e060020a63ffffffff85160281526004810192909252602482015260440160006040518083038186803b1515610a1a57600080fd5b6102c65a03f41515610a2b57600080fd5b505060019093019250610937565b600354600160a060020a031615610b3f5750506003546000908190600160a060020a03166398d5fdca82604051604001526040518163ffffffff1660e060020a0281526004016040805180830381600087803b1515610a9757600080fd5b6102c65a03f11515610aa857600080fd5b50505060405180519060200180519193509091506040905080519081016040908152838252821515602080840191909152600354600160a060020a03166000908152600d909152208151815560208201516001909101805491151560ff19909216919091179055506003546000858152600e602052604090208054600160a060020a031916600160a060020a039092169190911790555b5050505050565b60005433600160a060020a03908116911614156100cc5760038054600160a060020a031916600160a060020a0383161790556107a9565b6000805b600a5460095401600101811015610bc7576000818152600e6020526040902054600160a060020a0384811691161415610bbf57806001019150610bcc565b600101610b81565b600091505b50919050565b60005433600160a060020a03908116911614156100cc576000828152600560205260409020805460018101610c078382611097565b5060009182526020909120018054600160a060020a031916600160a060020a0383161790555050565b600080805b600954811015610d38576009805482908110610c4d57fe5b6000918252602082200154600160a060020a0316906398d5fdca90604051604001526040518163ffffffff1660e060020a0281526004016040805180830381600087803b1515610c9c57600080fd5b6102c65a03f11515610cad57600080fd5b5050506040518051906020018051919450909250604090508051908101604052838152821515602082015260098054600d9160009185908110610cec57fe5b6000918252602080832090910154600160a060020a0316835282019290925260400190208151815560208201516001918201805460ff1916911515919091179055919091019050610c35565b5060005b600a54811015610e3f57600a805482908110610d5457fe5b6000918252602082200154600160a060020a031690632fbc0bf190604051604001526040518163ffffffff1660e060020a0281526004016040805180830381600087803b1515610da357600080fd5b6102c65a03f11515610db457600080fd5b50505060405180519060200180519194509092506040905080519081016040528381528215156020820152600a8054600d9160009185908110610df357fe5b6000918252602080832090910154600160a060020a0316835282019290925260400190208151815560208201516001918201805460ff1916911515919091179055919091019050610d3c565b505042600c5550565b6000600982815481101515610e5957fe5b600091825260209091200154600160a060020a031692915050565b600054600160a060020a031681565b600a5460095460009101610e98600b826110bb565b50600090505b600954811015610f6b57600d6000600983815481101515610ebb57fe5b6000918252602080832090910154600160a060020a031683528201929092526040019020600b805483908110610eed57fe5b6000918252602090912082546002909202019081556001918201549101805460ff191660ff90921615159190911790556009805482908110610f2b57fe5b6000918252602080832090910154838352600e90915260409091208054600160a060020a031916600160a060020a03909216919091179055600101610e9e565b506009545b600b548110156107a957600d6000600a6009805490508403815481101515610f9457fe5b6000918252602080832090910154600160a060020a031683528201929092526040019020600b805483908110610fc657fe5b6000918252602090912082546002909202019081556001918201549101805460ff191660ff9092161515919091179055600954600a80549091830390811061100a57fe5b6000918252602080832090910154838352600e90915260409091208054600160a060020a031916600160a060020a03909216919091179055600101610f70565b60008282146106eb57506000918252600e6020526040808320805492845292208054600160a060020a03908116600160a060020a0319808516919091179094558154921691909216179055565b8154818355818115116106eb576000838152602090206106eb9181019083016110e7565b8154818355818115116106eb576002028160020283600052602060002091820191016106eb9190611105565b61052591905b8082111561110157600081556001016110ed565b5090565b61052591905b80821115611101576000815560018101805460ff1916905560020161110b5600a165627a7a72305820a57bc8e0e5f45db5a00d734eb1f1a29ea017dc1aa9be9678a6c3db5693767b000029",
  "source": "pragma solidity ^0.4.4;\r\n\r\nimport \"./SortLib.sol\";\r\nimport \"./AdrLib.sol\";\r\nimport \"./TransactLib.sol\";\r\nimport \"./IPV.sol\";\r\nimport \"./IGrid.sol\";\r\nimport \"./IBattery.sol\";\r\nimport \"./IHouse.sol\";\r\nimport \"./GeneralDevice.sol\";\r\n\r\ncontract SingleHouse is GeneralDevice, IHouse {\r\n  \r\n  // one contract is associated to one particular House in the network.\r\n\r\n  using AdrLib for address[];\r\n  using TransactLib for uint;\r\n\r\n  //uint    consumTimeOut = 5 minutes;\r\n\r\n  uint    consumStatusAt;           // timestamp of the update (consumption)\r\n  address[] connectedPV;            // List of contract address of connected PV\r\n  address[] connectedBattery;       // List of contract address of connected batteries\r\n  \r\n\r\n  // may be splited into another contract\r\n\r\n  /*struct PriceTF {\r\n    uint  prs;\r\n    bool  updated;\r\n  }*/\r\n\r\n  using SortLib for SortLib.PriceTF[];\r\n  SortLib.PriceTF[] prepPriceQueryInfo;\r\n\r\n  uint    lastPriceQueryAt;\r\n\r\n  mapping(address=>SortLib.PriceTF) priceQueryInfo;\r\n  mapping(uint=>address) sortedPriceQueryInfo;\r\n  \r\n// ======= Modifiers =======\r\n  \r\n\r\n  modifier connectedPVOnly (address adrP) {\r\n    if (connectedPV.AssertInside(adrP)) {\r\n      _;\r\n    } else {\r\n      revert();\r\n    }\r\n  }\r\n\r\n  modifier connectedBatteryOnly (address adrB) {\r\n    if (connectedBattery.AssertInside(adrB)) {\r\n      _;\r\n    } else {\r\n      revert();\r\n    }\r\n  }\r\n\r\n  modifier timed (uint allowedTimeOut) {\r\n    if(now < consumStatusAt + allowedTimeOut) {\r\n      _;\r\n    } else {\r\n      revert();\r\n    }\r\n  }\r\n\r\n// ======= Event Logs =======\r\n  event ConsumptionLog(address adr, uint consum, uint consumAt);\r\n  event ConfigurationLog(string confMod, uint statusAt);\r\n  event EnergyTransferLog(address adrFrom, address adrTo, uint eVol, uint transferAt);\r\n\r\n// ======= Basic Functionalities =======\r\n\r\n  // --- Upon contract creation and configuration ---\r\n\r\n  function SingleHouse (address adr) GeneralDevice(adr) { }\r\n  \r\n  /*function setGridAdr(address adr) adminOnly external {\r\n    grid = adr;\r\n  }*/\r\n  \r\n  function addConnectedPV(address adrP) adminOnly external {\r\n    connectedPV.push(adrP);\r\n    ConfigurationLog(\"PV linked to House\",now);\r\n  }\r\n\r\n  function addConnectedBattery(address adrB) adminOnly external {\r\n    connectedBattery.push(adrB);\r\n    ConfigurationLog(\"Battery linked to House\",now);\r\n  }\r\n\r\n  // --- Regular usage ---\r\n\r\n  function setConsumption(uint consum) ownerOnly {\r\n    consumption = consum;\r\n    consumStatusAt = now;\r\n    ConsumptionLog(owner, consumption, consumStatusAt);\r\n  }\r\n\r\n  function getConsumption()  external timed(consumTimeOut) returns (uint consum, uint consumAt) { //\r\n    consum = consumption;\r\n    consumAt = consumStatusAt;\r\n  }\r\n\r\n  // \r\n\r\n  function askForPrice() {\r\n    // House query price info to all the connected PV/Battery. \r\n    // If the house is connected to grid (most of the time), the price of Grid will be automatically added to the end of the sorted list.\r\n    uint tP = 0;\r\n    bool tF = false;\r\n    for (uint i = 0; i < connectedPV.length; i++) {\r\n      (tP,tF) = IPV(connectedPV[i]).getPrice();\r\n      priceQueryInfo[connectedPV[i]] = SortLib.PriceTF(tP,tF);\r\n    }\r\n    for (i = 0; i < connectedBattery.length; i++) {\r\n      (tP,tF) = IBattery(connectedBattery[i]).getSalePrice();\r\n      priceQueryInfo[connectedBattery[i]] = SortLib.PriceTF(tP,tF);\r\n    }\r\n    lastPriceQueryAt = now;\r\n  }\r\n\r\n  //------------------------------\r\n  // to Sort the received list of Price (from PV and Battery)\r\n  //------------------------------\r\n  \r\n\r\n  function sortPriceList() {\r\n    createPriceList();\r\n    uint maxTemp;\r\n    uint totalLength = connectedPV.length + connectedBattery.length;\r\n    for (uint i = 0; i < totalLength; i++) {\r\n      maxTemp = prepPriceQueryInfo.maxStruct();\r\n      swap(totalLength-1-i,maxTemp);\r\n      prepPriceQueryInfo.del(maxTemp);\r\n    }\r\n    // if the grid is connected -> add the price from the grid to the end of the sorted list \r\n    if (grid != 0x0) {\r\n      uint tP = 0;\r\n      bool tF = false;\r\n      (tP,tF) = IGrid(grid).getPrice();\r\n      priceQueryInfo[grid] = SortLib.PriceTF(tP,tF);\r\n      //setPriceQueryInfo(grid,tP,tF);\r\n      sortedPriceQueryInfo[totalLength] = grid;\r\n    }\r\n  }\r\n\r\n  function createPriceList() private {\r\n    prepPriceQueryInfo.length = connectedPV.length + connectedBattery.length;\r\n    //sortedPriceQueryInfo.length = prepPriceQueryInfo.length; => sortedPQI is using mapping now\r\n    for (uint i = 0; i < connectedPV.length; i++) {\r\n      prepPriceQueryInfo[i] = priceQueryInfo[connectedPV[i]];\r\n      sortedPriceQueryInfo[i] = connectedPV[i];\r\n    }\r\n    for (i = connectedPV.length; i < prepPriceQueryInfo.length; i++) {\r\n      prepPriceQueryInfo[i] = priceQueryInfo[connectedBattery[i-connectedPV.length]];\r\n      sortedPriceQueryInfo[i] = connectedBattery[i-connectedPV.length];\r\n    }\r\n  }\r\n\r\n  function swap (uint _id1, uint _id2) private {\r\n    if (_id1 != _id2) {\r\n      address temp;\r\n      temp = sortedPriceQueryInfo[_id1];\r\n      sortedPriceQueryInfo[_id1] = sortedPriceQueryInfo[_id2];\r\n      sortedPriceQueryInfo[_id2] = temp;   \r\n    }\r\n  }\r\n\r\n  //------------------------------\r\n  // Once sorted, actively send to all the connected devices.\r\n  //------------------------------\r\n\r\n  function getSortedPosition (address adr) returns (uint) { // should be private, here the \"private\" is temporarily removed due to testing\r\n    //require(adr != 0x0);      // Sometimes with this line, there will be error in the configuration.js test... sometimes not.... sometimes need to _migrate_ twice to eliminate the error.... Don't know why\r\n    for (uint i=0; i<connectedPV.length + connectedBattery.length+1; i++) {\r\n      if (adr == sortedPriceQueryInfo[i]) {\r\n        return (i+1);\r\n      }\r\n    }\r\n    return 0;\r\n  }\r\n\r\n  function getSortedInfo() external returns(uint consum, uint rank, uint tot, bool updated) {\r\n    return  getSortedHInfo(msg.sender);\r\n  }\r\n\r\n  function getSortedHInfo(address adr) returns(uint consum, uint rank, uint tot, bool updated) {  // should be private, here the \"private\" is temporarily removed due to testing\r\n    //address adr = msg.sender;\r\n    consum = consumption;\r\n    rank = getSortedPosition(adr);\r\n    if (grid != 0x0) {\r\n      tot = connectedPV.length + connectedBattery.length+1;\r\n    } else {\r\n      tot = connectedPV.length + connectedBattery.length;\r\n    }\r\n    if (lastPriceQueryAt + consumTimeOut < now) {\r\n      updated = false;    // The house may be inactive for a while, so the list stored is outdated.\r\n    } else {\r\n      updated = true;      \r\n    }\r\n  }\r\n\r\n  // ------------Functions used in transaction------------------\r\n  function goNoGo(uint giveoutvol) returns (uint) {\r\n    address adrDevice = msg.sender;\r\n    uint takeoutvol;\r\n    require(connectedBattery.AssertInside(adrDevice) || connectedPV.AssertInside(adrDevice));\r\n    takeoutvol = consumption.findMin(giveoutvol);\r\n    consumption = consumption.clearEnergyTransfer(takeoutvol, address(this));\r\n    //EnergyTransferLog(adrDevice,address(this), takeoutvol, consumption);\r\n    //wallet = wallet.clearMoneyTransfer(-int(takeoutvol*priceQueryInfo[adrDevice].prs), adrDevice);\r\n    wallet -= int(takeoutvol*priceQueryInfo[adrDevice].prs);\r\n    return (takeoutvol); \r\n  }\r\n\r\n  function buyExtra() {\r\n    // when houses still have extra needs...\r\n    uint whatDeviceAccept;\r\n    uint receivedMoney;\r\n    uint unitPrs;\r\n    require(grid != 0x0);\r\n    if (consumption > 0) {\r\n      (whatDeviceAccept, unitPrs) = IGrid(grid).goExtra(consumption);\r\n      consumption = consumption.clearEnergyTransfer(whatDeviceAccept, address(this));\r\n      receivedMoney = whatDeviceAccept*unitPrs;\r\n      wallet -= int(receivedMoney);\r\n    }\r\n  }\r\n\r\n\r\n  // ------------Functions used in testing------------------\r\n/*\r\n  function getSortedPriceList (uint _id) returns (address) {\r\n    return sortedPriceQueryInfo[_id];\r\n  }\r\n\r\n  function getAskedPrice(address adr) returns (uint,bool) {\r\n    return (priceQueryInfo[adr].prs,priceQueryInfo[adr].updated) ;\r\n  }\r\n\r\n  function askForPricePV(uint i) returns (uint,bool) {\r\n    return IPV(connectedPV[i]).getPrice();\r\n  }\r\n\r\n  function askForPriceB(uint i) returns (uint,bool) {\r\n    return IBattery(connectedBattery[i]).getSalePrice();\r\n  }\r\n\r\n  function getOwnerAdmin() returns (address, address){\r\n    return (owner,Admin);\r\n  }\r\n\r\n  function getConnectedPVCount() returns (uint){\r\n    return connectedPV.length;\r\n  }\r\n\r\n  function getconnectedBatteryCount() returns (uint){\r\n    return connectedBattery.length;\r\n  }\r\n\r\n  function getConnectPVAddress(uint a) returns (address) {\r\n    if (a<connectedPV.length) {\r\n      return connectedPV[a];\r\n    } else {\r\n      return 0x0;\r\n    }\r\n  }\r\n\r\n  function getconnectedBatteryAddress(uint a) returns (address) {\r\n    if (a<connectedBattery.length) {\r\n      return connectedBattery[a];\r\n    } else {\r\n      return 0x0;\r\n   \r\n    }\r\n  }\r\n  */\r\n\r\n  function getConnectPVAddress(uint a) returns (address) {\r\n      return connectedPV[a];\r\n  }\r\n}\r\n",
  "sourcePath": "C:\\Users\\qianc\\Documents\\Thesis\\Code\\SimpleMonitor\\contracts\\SingleHouse.sol",
  "compiler": {
    "name": "solc",
    "version": "0.4.18+commit.9cf6e910.Emscripten.clang"
  },
  "schemaVersion": "1.0.1",
  "updatedAt": "2017-11-26T15:56:44.916Z"
}