{
  "contractName": "SingleBattery",
  "abi": [
    {
      "constant": true,
      "inputs": [],
      "name": "name",
      "outputs": [
        {
          "name": "",
          "type": "bytes32"
        }
      ],
      "payable": false,
      "stateMutability": "view",
      "type": "function"
    },
    {
      "constant": false,
      "inputs": [
        {
          "name": "adrH",
          "type": "address"
        }
      ],
      "name": "addConnectedHouse",
      "outputs": [],
      "payable": false,
      "stateMutability": "nonpayable",
      "type": "function"
    },
    {
      "constant": false,
      "inputs": [],
      "name": "getVolumeCapacity",
      "outputs": [
        {
          "name": "vol",
          "type": "uint256"
        },
        {
          "name": "volAt",
          "type": "uint256"
        },
        {
          "name": "cap",
          "type": "uint256"
        }
      ],
      "payable": false,
      "stateMutability": "nonpayable",
      "type": "function"
    },
    {
      "constant": false,
      "inputs": [
        {
          "name": "giveoutvol",
          "type": "uint256"
        }
      ],
      "name": "goNoGo",
      "outputs": [
        {
          "name": "",
          "type": "uint256"
        }
      ],
      "payable": false,
      "stateMutability": "nonpayable",
      "type": "function"
    },
    {
      "constant": false,
      "inputs": [],
      "name": "getSalePrice",
      "outputs": [
        {
          "name": "prs",
          "type": "uint256"
        },
        {
          "name": "updatedOrNot",
          "type": "bool"
        }
      ],
      "payable": false,
      "stateMutability": "nonpayable",
      "type": "function"
    },
    {
      "constant": false,
      "inputs": [
        {
          "name": "vol",
          "type": "uint256"
        }
      ],
      "name": "goExcess",
      "outputs": [
        {
          "name": "takeVol",
          "type": "uint256"
        },
        {
          "name": "prs",
          "type": "uint256"
        }
      ],
      "payable": false,
      "stateMutability": "nonpayable",
      "type": "function"
    },
    {
      "constant": false,
      "inputs": [],
      "name": "askForRank",
      "outputs": [],
      "payable": false,
      "stateMutability": "nonpayable",
      "type": "function"
    },
    {
      "constant": false,
      "inputs": [
        {
          "name": "_id",
          "type": "uint256"
        }
      ],
      "name": "initiateTransaction",
      "outputs": [
        {
          "name": "",
          "type": "uint256"
        },
        {
          "name": "",
          "type": "uint256"
        }
      ],
      "payable": false,
      "stateMutability": "nonpayable",
      "type": "function"
    },
    {
      "constant": false,
      "inputs": [
        {
          "name": "adrP",
          "type": "address"
        }
      ],
      "name": "addConnectedPV",
      "outputs": [],
      "payable": false,
      "stateMutability": "nonpayable",
      "type": "function"
    },
    {
      "constant": false,
      "inputs": [
        {
          "name": "vol",
          "type": "uint256"
        }
      ],
      "name": "setVolume",
      "outputs": [],
      "payable": false,
      "stateMutability": "nonpayable",
      "type": "function"
    },
    {
      "constant": false,
      "inputs": [
        {
          "name": "v",
          "type": "uint256"
        }
      ],
      "name": "setBuyVolume",
      "outputs": [],
      "payable": false,
      "stateMutability": "nonpayable",
      "type": "function"
    },
    {
      "constant": false,
      "inputs": [],
      "name": "getBuyVol",
      "outputs": [
        {
          "name": "",
          "type": "uint256"
        }
      ],
      "payable": false,
      "stateMutability": "nonpayable",
      "type": "function"
    },
    {
      "constant": false,
      "inputs": [],
      "name": "sort",
      "outputs": [],
      "payable": false,
      "stateMutability": "nonpayable",
      "type": "function"
    },
    {
      "constant": false,
      "inputs": [
        {
          "name": "adr",
          "type": "address"
        }
      ],
      "name": "setGridAdr",
      "outputs": [],
      "payable": false,
      "stateMutability": "nonpayable",
      "type": "function"
    },
    {
      "constant": true,
      "inputs": [],
      "name": "owner",
      "outputs": [
        {
          "name": "",
          "type": "address"
        }
      ],
      "payable": false,
      "stateMutability": "view",
      "type": "function"
    },
    {
      "constant": false,
      "inputs": [
        {
          "name": "adr",
          "type": "address"
        }
      ],
      "name": "getSortedPosition",
      "outputs": [
        {
          "name": "",
          "type": "uint256"
        }
      ],
      "payable": false,
      "stateMutability": "nonpayable",
      "type": "function"
    },
    {
      "constant": false,
      "inputs": [],
      "name": "askForPrice",
      "outputs": [],
      "payable": false,
      "stateMutability": "nonpayable",
      "type": "function"
    },
    {
      "constant": false,
      "inputs": [],
      "name": "getSortedPVInfo",
      "outputs": [
        {
          "name": "consum",
          "type": "uint256"
        },
        {
          "name": "rank",
          "type": "uint256"
        },
        {
          "name": "tot",
          "type": "uint256"
        },
        {
          "name": "updated",
          "type": "bool"
        }
      ],
      "payable": false,
      "stateMutability": "nonpayable",
      "type": "function"
    },
    {
      "constant": false,
      "inputs": [
        {
          "name": "_id",
          "type": "uint256"
        }
      ],
      "name": "getSortedInfo",
      "outputs": [
        {
          "name": "adr",
          "type": "address"
        },
        {
          "name": "consum",
          "type": "uint256"
        },
        {
          "name": "rank",
          "type": "uint256"
        },
        {
          "name": "tot",
          "type": "uint256"
        }
      ],
      "payable": false,
      "stateMutability": "nonpayable",
      "type": "function"
    },
    {
      "constant": false,
      "inputs": [
        {
          "name": "prsSale",
          "type": "uint256"
        },
        {
          "name": "prsBuy",
          "type": "uint256"
        }
      ],
      "name": "setPrice",
      "outputs": [],
      "payable": false,
      "stateMutability": "nonpayable",
      "type": "function"
    },
    {
      "constant": false,
      "inputs": [],
      "name": "sortRankList",
      "outputs": [],
      "payable": false,
      "stateMutability": "nonpayable",
      "type": "function"
    },
    {
      "inputs": [
        {
          "name": "adr",
          "type": "address"
        },
        {
          "name": "cap",
          "type": "uint256"
        }
      ],
      "payable": false,
      "stateMutability": "nonpayable",
      "type": "constructor"
    },
    {
      "anonymous": false,
      "inputs": [
        {
          "indexed": false,
          "name": "adr",
          "type": "address"
        },
        {
          "indexed": false,
          "name": "vol",
          "type": "uint256"
        },
        {
          "indexed": false,
          "name": "volAt",
          "type": "uint256"
        }
      ],
      "name": "VolLog",
      "type": "event"
    },
    {
      "anonymous": false,
      "inputs": [
        {
          "indexed": false,
          "name": "confMod",
          "type": "string"
        },
        {
          "indexed": false,
          "name": "statusAt",
          "type": "uint256"
        }
      ],
      "name": "ConfigurationLog",
      "type": "event"
    },
    {
      "anonymous": false,
      "inputs": [
        {
          "indexed": false,
          "name": "updateAt",
          "type": "uint256"
        }
      ],
      "name": "PriceUpdate",
      "type": "event"
    }
  ],
  "bytecode": "0x606060405260028054600160a060020a031916905561012c6008819055600b55341561002a57600080fd5b604051604080611745833981016040528080519190602001805160038054600160a060020a03958616600160a060020a0319918216179091556000805433909616959091169490941790935550506005556116bb8061008a6000396000f3006060604052600436106101035763ffffffff60e060020a60003504166306fdde0381146101085780630a71db5e1461012d5780630e00c3161461014e5780630ff37282146101855780632fbc0bf11461019b57806335f7f5e2146101c85780633d7224dc146101f65780633fd2007d1461020957806341977cf51461021f5780634559dcdc1461023e5780636a95841b1461025457806379c19df01461026a5780638cdc86a61461027d5780638d646b11146102905780638da5cb5b146102af578063b148f82b146102de578063c9746029146102fd578063cf7fc76214610310578063d5adad541461034f578063f7d97577146103a2578063fba30167146103bb575b600080fd5b341561011357600080fd5b61011b6103ce565b60405190815260200160405180910390f35b341561013857600080fd5b61014c600160a060020a03600435166103d4565b005b341561015957600080fd5b610161610490565b60405180848152602001838152602001828152602001935050505060405180910390f35b341561019057600080fd5b61011b6004356104a0565b34156101a657600080fd5b6101ae610691565b604051918252151560208201526040908101905180910390f35b34156101d357600080fd5b6101de6004356106b6565b60405191825260208201526040908101905180910390f35b341561020157600080fd5b61014c6107e4565b341561021457600080fd5b6101de6004356109f7565b341561022a57600080fd5b61014c600160a060020a0360043516610c5d565b341561024957600080fd5b61014c600435610d1a565b341561025f57600080fd5b61014c600435610da9565b341561027557600080fd5b61011b610ddd565b341561028857600080fd5b61014c610de4565b341561029b57600080fd5b61014c600160a060020a0360043516610f1d565b34156102ba57600080fd5b6102c2610f54565b604051600160a060020a03909116815260200160405180910390f35b34156102e957600080fd5b61011b600160a060020a0360043516610f63565b341561030857600080fd5b61014c610fd9565b341561031b57600080fd5b6103236111bb565b604051938452602084019290925260408084019190915290151560608301526080909101905180910390f35b341561035a57600080fd5b610365600435611216565b6040518085600160a060020a0316600160a060020a0316815260200184815260200183815260200182815260200194505050505060405180910390f35b34156103ad57600080fd5b61014c600435602435611250565b34156103c657600080fd5b61014c6112af565b60045481565b60005433600160a060020a039081169116141561010357600e8054600181016103fd83826115a8565b5060009182526020909120018054600160a060020a031916600160a060020a0383161790557f34ff05936c7ffe85555df53a7bf1374ed025703c493a74c4ce3316646f950e1642604051602081019190915260408082526017818301527f486f757365206c696e6b656420746f204261747465727900000000000000000060608301526080909101905180910390a15b50565b6006546009546005549192909190565b6000338173__AdrLib________________________________6354859436600f84846040516020015260405160e060020a63ffffffff85160281526004810192909252600160a060020a0316602482015260440160206040518083038186803b151561050b57600080fd5b6102c65a03f4151561051c57600080fd5b505050604051805190508061053e5750600254600160a060020a038381169116145b151561054957600080fd5b60075473__TransactLib___________________________63bc2e368c90918660006040516020015260405160e060020a63ffffffff85160281526004810192909252602482015260440160206040518083038186803b15156105ab57600080fd5b6102c65a03f415156105bc57600080fd5b5050506040518051600680548201905560075490925073__TransactLib___________________________9150639e5fd0a990833060006040516020015260405160e060020a63ffffffff861602815260048101939093526024830191909152600160a060020a0316604482015260640160206040518083038186803b151561064457600080fd5b6102c65a03f4151561065557600080fd5b505050604051805160075550600160a060020a0382166000908152601260205260409020546001805491830290910390559150815b5050919050565b600c54600b54600a5460009142910110156106ae575060006106b2565b5060015b9091565b600080600d5490508273__TransactLib___________________________63bc2e368c90916006546005540360006040516020015260405160e060020a63ffffffff85160281526004810192909252602482015260440160206040518083038186803b151561072457600080fd5b6102c65a03f4151561073557600080fd5b50505060405180519050915060065473__TransactLib___________________________63994459079091843060006040516020015260405160e060020a63ffffffff861602815260048101939093526024830191909152600160a060020a0316604482015260640160206040518083038186803b15156107b557600080fd5b6102c65a03f415156107c657600080fd5b50505060405180516006555060018054838302900390559092909150565b600080600080600080600e8054905060148161080091906115cc565b50600090505b600e548110156109dc57600e80548290811061081e57fe5b6000918252602082200154600160a060020a0316906338a3528c90604051608001526040518163ffffffff1660e060020a028152600401608060405180830381600087803b151561086e57600080fd5b6102c65a03f1151561087f57600080fd5b505050604051805190602001805190602001805190602001805193995091975095509093505082156109d4576060604051908101604052808781526020018681526020018581525060176000600e848154811015156108da57fe5b6000918252602080832090910154600160a060020a03168352820192909252604001902081518155602082015181600101556040820151816002015590505060176000600e8381548110151561092c57fe5b6000918252602080832090910154600160a060020a031683528201929092526040019020601480548490811061095e57fe5b60009182526020909120825460039092020190815560018083015490820155600291820154910155600e80548290811061099457fe5b6000918252602080832090910154848352601890915260409091208054600160a060020a031916600160a060020a03909216919091179055600191909101905b600101610806565b816109e86014826115cc565b50506016555050426015555050565b600081815260186020908152604080832054600654600160a060020a039091168085526017909352818420548493849390928492839273__TransactLib___________________________9263bc2e368c9290918590516020015260405160e060020a63ffffffff85160281526004810192909252602482015260440160206040518083038186803b1515610a8b57600080fd5b6102c65a03f41515610a9c57600080fd5b5050506040518051945073__AdrLib________________________________90506354859436600e8560006040516020015260405160e060020a63ffffffff85160281526004810192909252600160a060020a0316602482015260440160206040518083038186803b1515610b1057600080fd5b6102c65a03f41515610b2157600080fd5b5050506040518051905015610c4b5782600160a060020a0316630ff372828560006040516020015260405160e060020a63ffffffff84160281526004810191909152602401602060405180830381600087803b1515610b7f57600080fd5b6102c65a03f11515610b9057600080fd5b5050506040518051600680548290039055600c546001549194508402925073__TransactLib___________________________915063e2992d299083863060006040516020015260405160e060020a63ffffffff871602815260048101949094526024840192909252600160a060020a03908116604484015216606482015260840160206040518083038186803b1515610c2957600080fd5b6102c65a03f41515610c3a57600080fd5b505050604051805160015550610c50565b600091505b5091959194509092505050565b60005433600160a060020a039081169116141561010357600f805460018101610c8683826115a8565b5060009182526020909120018054600160a060020a031916600160a060020a0383161790557f34ff05936c7ffe85555df53a7bf1374ed025703c493a74c4ce3316646f950e1642604051602081019190915260408082526014818301527f5056206c696e6b656420746f204261747465727900000000000000000000000060608301526080909101905180910390a161048d565b60035433600160a060020a03908116911614156101035760068190554260098190556003547fa8533a3e28bf00cd05018ed80847d3d6f170da084f6417da50798db7335ff9a091600160a060020a039091169083906040518084600160a060020a0316600160a060020a03168152602001838152602001828152602001935050505060405180910390a161048d565b60035433600160a060020a03908116911614156101035760055460065482011115610dd357600080fd5b600781905561048d565b6007545b90565b6000806000610df16113b1565b600254600160a060020a031615610e0f57600f546001019150610e15565b600f5491505b5060005b81811015610f185773__SortLib_______________________________63f27da568601060006040516020015260405160e060020a63ffffffff8416028152600481019190915260240160206040518083038186803b1515610e7a57600080fd5b6102c65a03f41515610e8b57600080fd5b505050604051805190509250610ea68160018403038461155b565b73__SortLib_______________________________6343168c1b60108560405160e060020a63ffffffff85160281526004810192909252602482015260440160006040518083038186803b1515610efc57600080fd5b6102c65a03f41515610f0d57600080fd5b505050600101610e19565b505050565b60005433600160a060020a03908116911614156101035760028054600160a060020a031916600160a060020a03831617905561048d565b600354600160a060020a031681565b60025460009081908190600160a060020a031615610f8857600f546001019150610f8e565b600f5491505b5060005b81811015610fcf57600081815260136020526040902054600160a060020a0385811691161415610fc75780600101925061068a565b600101610f92565b5060009392505050565b600080805b600f548110156110e157600f805482908110610ff657fe5b6000918252602082200154600160a060020a0316906398d5fdca90604051604001526040518163ffffffff1660e060020a0281526004016040805180830381600087803b151561104557600080fd5b6102c65a03f1151561105657600080fd5b50505060405180519060200180519194509092506040905080519081016040528381528215156020820152600f80546012916000918590811061109557fe5b6000918252602080832090910154600160a060020a0316835282019290925260400190208151815560208201516001918201805460ff1916911515919091179055919091019050610fde565b600254600160a060020a0316156111b257600254600160a060020a03166398d5fdca6000604051604001526040518163ffffffff1660e060020a0281526004016040805180830381600087803b151561113957600080fd5b6102c65a03f1151561114a57600080fd5b50505060405180519060200180519194509092506040905080519081016040908152848252831515602080840191909152600254600160a060020a03166000908152601290915220815181556020820151600191909101805460ff1916911515919091179055505b50504260115550565b60075460008080336111cc81610f63565b600254909450600160a060020a0316156111ed57600f5460010192506111f3565b600f5492505b42600b5460115401101561120a576000915061120f565b600191505b5090919293565b600090815260186020908152604080832054600160a060020a03168084526017909252909120805460018201546002909201549293909290565b60035433600160a060020a039081169116141561010357600c829055600d81905542600a8190557fae46785019700e30375a5d7b4f91e32f8060ef085111f896ebf889450aa2ab5a9060405190815260200160405180910390a15b5050565b6000805b6016548110156112ab5773__SortRLib______________________________63f37de025601460006040516020015260405160e060020a63ffffffff8416028152600481019190915260240160206040518083038186803b151561131657600080fd5b6102c65a03f4151561132757600080fd5b50505060405180519050915061133f8183830161155b565b73__SortRLib______________________________63b576277060148460405160e060020a63ffffffff85160281526004810192909252602482015260440160006040518083038186803b151561139557600080fd5b6102c65a03f415156113a657600080fd5b5050506001016112b3565b600254600090600160a060020a0316156113dc57600f546001016113d66010826115f8565b506113ec565b600f546113ea6010826115f8565b505b5060005b600f548110156114bd5760126000600f8381548110151561140d57fe5b6000918252602080832090910154600160a060020a031683528201929092526040019020601080548390811061143f57fe5b6000918252602090912082546002909202019081556001918201549101805460ff191660ff9092161515919091179055600f80548290811061147d57fe5b6000918252602080832090910154838352601390915260409091208054600160a060020a031916600160a060020a039092169190911790556001016113f0565b50600f545b60105481101561048d57600254600160a060020a0316600090815260126020526040902060108054839081106114f457fe5b6000918252602080832084546002938402909101908155600194850154908501805460ff909216151560ff199092169190911790559054848352601390915260409091208054600160a060020a031916600160a060020a03909216919091179055016114c2565b6000828214610f185750600091825260136020526040808320805492845292208054600160a060020a03908116600160a060020a0319808516919091179094558154921691909216179055565b815481835581811511610f1857600083815260209020610f18918101908301611624565b815481835581811511610f1857600302816003028360005260206000209182019101610f189190611642565b815481835581811511610f1857600202816002028360005260206000209182019101610f189190611669565b610de191905b8082111561163e576000815560010161162a565b5090565b610de191905b8082111561163e576000808255600182018190556002820155600301611648565b610de191905b8082111561163e576000815560018101805460ff1916905560020161166f5600a165627a7a72305820caaf4fcf577a0f0366a0819a92204525490d865788059024c84a6d86ab0a526d0029",
  "source": "pragma solidity ^0.4.4;\n\nimport \"./IBattery.sol\";\nimport \"./IPV.sol\";\nimport \"./IGrid.sol\";\nimport \"./IHouse.sol\";\n\nimport \"./SortRLib.sol\";\nimport \"./SortLib.sol\"; \nimport \"./AdrLib.sol\"; \nimport \"./TransactLib.sol\";\n\n\n//For simplicity, we do not use the sorting functions here, as in our configuration, there is only one battery and there's only one PV connected.  \n\ncontract SingleBattery is IBattery {\n  \n  using AdrLib for address[];\n  using TransactLib for *;\n\n  \n  address public owner;\n  bytes32 public name;              // name of the device (Serie No.)\n  uint    capacity;                 // Cap of the device\n  uint    currentVolume;            // Production of electricity\n  uint    buyVolume;                // Amount of electricity that this battery would like to buy. Will first participate in the supply competition \n                                    //and will be finally (anyway) fulfilled b either the network or from the grid...\n  uint    volTimeOut = 5 minutes;\n  uint    volStatusAt;              // timestamp of the update\n  \n  uint    priceStatusAt;            // timestamp of the update (price)\n  uint    priceTimeOut = 5 minutes;\n  uint    priceForSale;\n  uint    priceForBuy;              // lower than market price (ForExcessEnergy)\n  \n  address[] connectedHouse; // List of households connected\n  address[] connectedPV;// List of PV connected\n  \n  /*struct PriceTF {\n    uint  prs;\n    bool  updated;\n  }*/\n\n  using SortLib for SortLib.PriceTF[];\n  SortLib.PriceTF[] prepPriceQueryInfo;\n  uint    lastPriceQueryAt;\n\n  mapping(address=>SortLib.PriceTF) priceQueryInfo;\n  mapping(uint=>address) sortedPriceQueryInfo;\n\n  using SortRLib for SortRLib.Request[];\n  SortRLib.Request[] prepRankingInfo;\n\n\n  uint    lastRankingAt;\n  uint    rLength;\n  mapping(address=>SortRLib.Request) RankingInfo;\n  mapping(uint=>address) sortedRankingInfo;\n\n  function askForPrice() {\n    // House query price info to all the connected PV/Battery. \n    // If the house is connected to grid (most of the time), the price of Grid also participates in the sorting (it's not less favored anymore)\n    uint tP = 0;\n    bool tF = false;\n    for (uint i = 0; i < connectedPV.length; i++) {\n      (tP,tF) = IPV(connectedPV[i]).getPrice();\n      priceQueryInfo[connectedPV[i]] = SortLib.PriceTF(tP,tF);\n    }\n    if (grid != 0x0) {\n      (tP,tF) = IGrid(grid).getPrice();\n      priceQueryInfo[grid] = SortLib.PriceTF(tP,tF);\n    }\n    lastPriceQueryAt = now;\n  }\n\n  function getSortedPosition (address adr) returns (uint) { // should be private, here the \"private\" is temporarily removed due to testing\n    //require(adr != 0x0);      // Sometimes with this line, there will be error in the configuration.js test... sometimes not.... sometimes need to _migrate_ twice to eliminate the error.... Don't know why\n    uint _l;\n    if (grid != 0x0) {\n      _l = connectedPV.length+1;\n    } else {\n      _l = connectedPV.length;\n    }\n    for (uint i=0; i<_l; i++) {\n      if (adr == sortedPriceQueryInfo[i]) {\n        return (i+1);\n      }\n    }\n    return 0;\n  }\n\n  function sort() { // we are not doing sorting here -> as there is only 1 PV in the exercise layout\n    /*sortedPriceQueryInfo[0] = connectedPV[0];\n    if (grid != 0x0) {\n      sortedPriceQueryInfo[1] = grid;\n    }*/\n    createPriceList();\n    uint maxTemp;\n    uint totalLength;\n    if (grid != 0x0) {\n      totalLength = connectedPV.length+1;\n    } else {\n      totalLength = connectedPV.length;\n    }\n    for (uint i = 0; i < totalLength; i++) {\n      maxTemp = prepPriceQueryInfo.maxStruct();\n      swap(totalLength-1-i,maxTemp);\n      prepPriceQueryInfo.del(maxTemp);\n    }\n  } \n\n  function createPriceList() private {\n    if (grid != 0x0) {\n      prepPriceQueryInfo.length = connectedPV.length+1;\n    } else {\n      prepPriceQueryInfo.length = connectedPV.length;\n    }\n    for (uint i = 0; i < connectedPV.length; i++) {\n      prepPriceQueryInfo[i] = priceQueryInfo[connectedPV[i]];\n      sortedPriceQueryInfo[i] = connectedPV[i];\n    }\n    for (i = connectedPV.length; i < prepPriceQueryInfo.length; i++) {\n      prepPriceQueryInfo[i] = priceQueryInfo[grid];\n      sortedPriceQueryInfo[i] = grid;\n    }\n  }\n\n  function swap (uint _id1, uint _id2) private {\n    if (_id1 != _id2) {\n      address temp;\n      temp = sortedPriceQueryInfo[_id1];\n      sortedPriceQueryInfo[_id1] = sortedPriceQueryInfo[_id2];\n      sortedPriceQueryInfo[_id2] = temp;   \n    }\n  }\n\n  function getSortedPVInfo() returns(uint consum, uint rank, uint tot, bool updated) {\n    address adr = msg.sender;     //If the PV is connected\n    consum = buyVolume;\n    rank = getSortedPosition(adr); // We only have one PV connnected (In the demo layout)\n    if (grid != 0x0) {\n      tot = connectedPV.length + 1;\n    } else {\n      tot = connectedPV.length;\n    }\n    if (lastPriceQueryAt + priceTimeOut < now) {\n      updated = false;    // The house may be inactive for a while, so the list stored is outdated.\n    } else {\n      updated = true;      \n    }\n  }\n\n// start transaction\n  function goNoGo(uint giveoutvol) returns (uint) {\n    address adrDevice = msg.sender;\n    uint takeoutvol;\n    require(connectedPV.AssertInside(adrDevice) || adrDevice == grid);\n    takeoutvol = buyVolume.findMin(giveoutvol);\n    currentVolume += takeoutvol;\n    buyVolume = buyVolume.clearEnergyTransfer(takeoutvol, address(this));\n    wallet -= int(takeoutvol*priceQueryInfo[adrDevice].prs);\n    return (takeoutvol); \n  }\n\n\n  modifier ownerOnly {\n    if (msg.sender == owner) {\n      _;\n    } else {\n      revert();\n    }\n  }\n\n  \n\n  modifier connectedPVOnly (address adrP) {\n    if (connectedPV.AssertInside(adrP) == true) {\n      _;\n    } else {\n      revert();\n    }\n  }\n\n  modifier connectedHouseOnly {\n    if (connectedPV.AssertInside(msg.sender) == true) {\n      _;\n    } else {\n      revert();\n    } \n  }\n\n  modifier timed (uint initialTime, uint allowedTimeOut) {\n    if(now < initialTime + allowedTimeOut) {\n      _;\n    } else {\n      revert();\n    }\n  }\n\n  event VolLog(address adr, uint vol, uint volAt);\n  event ConfigurationLog(string confMod, uint statusAt);\n  event PriceUpdate(uint updateAt);\n\n  function SingleBattery (address adr,  uint cap) {\n    // constructor\n    owner = adr;\n    Admin = msg.sender;\n    capacity = cap;\n  }\n\n  \n\n  function setVolume(uint vol) ownerOnly {\n    // Can only be triggered once....Should be moved to the constructor...Once the initial volumne is set, can only be changed by energy trading.\n    currentVolume = vol;\n    volStatusAt = now;\n    VolLog(owner,vol,volStatusAt);\n  }\n\n  function setPrice(uint prsSale, uint prsBuy) ownerOnly {\n    priceForSale = prsSale;\n    priceForBuy = prsBuy;\n    priceStatusAt = now;\n    PriceUpdate(priceStatusAt);\n  }\n\n  function setBuyVolume(uint v) ownerOnly {\n    require(currentVolume + v <= capacity);\n    buyVolume = v;\n  }\n\n  // function askForPrice() {} // to ask for prices set by PVs...\n\n  function addConnectedPV(address adrP) adminOnly external {\n    connectedPV.push(adrP);\n    ConfigurationLog(\"PV linked to Battery\",now);\n  }\n\n  /*function deleteConnectedPV(address adrP) adminOnly external {\n    for (uint i = 0; i < connectedPV.length; i++) {\n      if (adrP == connectedPV[i]) {\n        delete connectedPV[i];\n        if (i != connectedPV.length-1) {\n          connectedPV[i] = connectedPV[connectedPV.length-1];\n        }\n        connectedPV.length--;\n      }\n    }\n  }*/\n\n  function addConnectedHouse(address adrH) adminOnly external {\n    connectedHouse.push(adrH);\n    ConfigurationLog(\"House linked to Battery\",now);\n  }\n\n  /*function deleteConnectedHouse(address adrH) adminOnly external {\n    for (uint i = 0; i < connectedHouse.length; i++) {\n      if (adrH == connectedHouse[i]) {\n        delete connectedHouse[i];\n        if (i != connectedHouse.length-1) {\n          connectedHouse[i] = connectedHouse[connectedHouse.length-1];\n        }\n        connectedHouse.length--;\n      }\n    }\n  }*/\n\n  function getVolumeCapacity () external returns (uint vol, uint volAt, uint cap) { // timed(initTime,volTimeOut) \n    vol = currentVolume;\n    volAt = volStatusAt;\n    cap = capacity;\n  }\n\n  function getSalePrice() returns (uint prs, bool updatedOrNot) { // connectedHouseOnly external\n    prs = priceForSale;\n    //prsAt = priceStatusAt;\n    if (priceStatusAt + priceTimeOut < now) {\n      updatedOrNot = false;\n    } else {\n      updatedOrNot = true;\n    }\n    //adr = owner;\n  }\n\n  function goExcess(uint vol) returns (uint takeVol, uint prs) {\n    prs = priceForBuy;\n    takeVol = vol.findMin(capacity-currentVolume);\n    currentVolume = currentVolume.clearExcessTransfer(takeVol, address(this));\n    wallet -= int(takeVol*prs);\n  }\n\n\n  function getBuyVol() returns (uint) {return buyVolume;}\n\n  // Battery also provides energy to houses\n  function askForRank() {\n    // ask and prepare for sorting the ranking...\n    uint consum;\n    uint rank;\n    uint tot;\n    bool updated;\n    uint num;\n\n    prepRankingInfo.length = connectedHouse.length;\n    for (uint i = 0; i < connectedHouse.length; i++) {\n      (consum, rank, tot, updated) = IHouse(connectedHouse[i]).getSortedInfo();\n      //GetSortedInfo(connectedHouse[i], consum, rank, tot, updated);\n      if (updated) {\n        RankingInfo[connectedHouse[i]] = SortRLib.Request(consum, rank, tot);\n        prepRankingInfo[num] = RankingInfo[connectedHouse[i]];\n        sortedRankingInfo[num] = connectedHouse[i];\n        num++;\n      }\n    }\n    prepRankingInfo.length = num;\n    rLength = num;\n    lastRankingAt = now;\n  }\n\n  function sortRankList() {\n    uint minTemp;\n    for (uint i=0; i<rLength; i++) {\n      minTemp = prepRankingInfo.minStruct();\n      swap(i,i+minTemp);\n      prepRankingInfo.del(minTemp);\n    }\n  }\n\n\n  function getSortedInfo(uint _id) returns(address adr, uint consum, uint rank, uint tot) {\n    adr = sortedRankingInfo[_id];\n    consum = RankingInfo[adr].consump;\n    rank = RankingInfo[adr].rank;\n    tot = RankingInfo[adr].total;\n  }\n  \n  function initiateTransaction(uint _id) returns (uint, uint) {\n    uint giveoutVol;\n    address adr;\n    uint whatDeviceAccept;\n    uint receivedMoney;\n    //for (uint i = 0; i < rLength; i++) {\n      adr = sortedRankingInfo[_id];\n      giveoutVol = currentVolume.findMin(RankingInfo[adr].consump);\n      if (connectedHouse.AssertInside(adr)) {\n        whatDeviceAccept = IHouse(adr).goNoGo(giveoutVol);\n        currentVolume -= whatDeviceAccept;\n        receivedMoney = whatDeviceAccept*priceForSale;\n        wallet = wallet.clearMoneyTransfer(receivedMoney,adr, address(this));\n      } else {\n        whatDeviceAccept = 0; \n      }\n      return(giveoutVol, whatDeviceAccept);\n    //}\n  }\n\n\n\n}\n",
  "sourcePath": "C:\\Users\\qianc\\Documents\\Thesis\\Code\\SimpleMonitor\\contracts\\SingleBattery.sol",
  "compiler": {
    "name": "solc",
    "version": "0.4.18+commit.9cf6e910.Emscripten.clang"
  },
  "schemaVersion": "1.0.1",
  "updatedAt": "2017-11-13T17:01:43.329Z"
}