{
  "contractName": "SingleHouse",
  "abi": [
    {
      "constant": false,
      "inputs": [],
      "name": "getTimerIndex",
      "outputs": [
        {
          "name": "",
          "type": "uint256"
        }
      ],
      "payable": false,
      "stateMutability": "nonpayable",
      "type": "function"
    },
    {
      "constant": false,
      "inputs": [
        {
          "name": "adr",
          "type": "address"
        }
      ],
      "name": "setTimerAdr",
      "outputs": [],
      "payable": false,
      "stateMutability": "nonpayable",
      "type": "function"
    },
    {
      "constant": false,
      "inputs": [
        {
          "name": "giveoutvol",
          "type": "uint256"
        }
      ],
      "name": "goNoGo",
      "outputs": [
        {
          "name": "",
          "type": "uint256"
        }
      ],
      "payable": false,
      "stateMutability": "nonpayable",
      "type": "function"
    },
    {
      "constant": true,
      "inputs": [],
      "name": "getWallet",
      "outputs": [
        {
          "name": "",
          "type": "int256"
        }
      ],
      "payable": false,
      "stateMutability": "view",
      "type": "function"
    },
    {
      "constant": false,
      "inputs": [],
      "name": "getSortedPrice",
      "outputs": [
        {
          "name": "consum",
          "type": "uint256"
        },
        {
          "name": "rank",
          "type": "uint256"
        },
        {
          "name": "tot",
          "type": "uint256"
        },
        {
          "name": "updated",
          "type": "bool"
        }
      ],
      "payable": false,
      "stateMutability": "nonpayable",
      "type": "function"
    },
    {
      "constant": false,
      "inputs": [],
      "name": "getTimerStatus",
      "outputs": [
        {
          "name": "",
          "type": "uint256"
        }
      ],
      "payable": false,
      "stateMutability": "nonpayable",
      "type": "function"
    },
    {
      "constant": false,
      "inputs": [],
      "name": "buyExtra",
      "outputs": [],
      "payable": false,
      "stateMutability": "nonpayable",
      "type": "function"
    },
    {
      "constant": false,
      "inputs": [],
      "name": "getTime",
      "outputs": [
        {
          "name": "",
          "type": "uint256"
        }
      ],
      "payable": false,
      "stateMutability": "nonpayable",
      "type": "function"
    },
    {
      "constant": false,
      "inputs": [
        {
          "name": "consum",
          "type": "uint256"
        }
      ],
      "name": "setConsumption",
      "outputs": [],
      "payable": false,
      "stateMutability": "nonpayable",
      "type": "function"
    },
    {
      "constant": false,
      "inputs": [],
      "name": "getTimerAddress",
      "outputs": [
        {
          "name": "",
          "type": "address"
        }
      ],
      "payable": false,
      "stateMutability": "nonpayable",
      "type": "function"
    },
    {
      "constant": true,
      "inputs": [],
      "name": "getConsumption",
      "outputs": [
        {
          "name": "consum",
          "type": "uint256"
        },
        {
          "name": "consumAt",
          "type": "uint256"
        }
      ],
      "payable": false,
      "stateMutability": "view",
      "type": "function"
    },
    {
      "constant": false,
      "inputs": [
        {
          "name": "adr",
          "type": "address"
        }
      ],
      "name": "setGridAdr",
      "outputs": [],
      "payable": false,
      "stateMutability": "nonpayable",
      "type": "function"
    },
    {
      "constant": false,
      "inputs": [],
      "name": "sortPrice",
      "outputs": [],
      "payable": false,
      "stateMutability": "nonpayable",
      "type": "function"
    },
    {
      "constant": false,
      "inputs": [],
      "name": "getNow",
      "outputs": [
        {
          "name": "",
          "type": "uint256"
        }
      ],
      "payable": false,
      "stateMutability": "nonpayable",
      "type": "function"
    },
    {
      "constant": false,
      "inputs": [
        {
          "name": "a",
          "type": "uint256"
        },
        {
          "name": "adr",
          "type": "address"
        }
      ],
      "name": "addConnectedDevice",
      "outputs": [],
      "payable": false,
      "stateMutability": "nonpayable",
      "type": "function"
    },
    {
      "constant": false,
      "inputs": [],
      "name": "askForPrice",
      "outputs": [],
      "payable": false,
      "stateMutability": "nonpayable",
      "type": "function"
    },
    {
      "constant": true,
      "inputs": [],
      "name": "Admin",
      "outputs": [
        {
          "name": "",
          "type": "address"
        }
      ],
      "payable": false,
      "stateMutability": "view",
      "type": "function"
    },
    {
      "inputs": [
        {
          "name": "adr",
          "type": "address"
        }
      ],
      "payable": false,
      "stateMutability": "nonpayable",
      "type": "constructor"
    },
    {
      "anonymous": false,
      "inputs": [
        {
          "indexed": false,
          "name": "adr",
          "type": "address"
        },
        {
          "indexed": false,
          "name": "consum",
          "type": "uint256"
        },
        {
          "indexed": false,
          "name": "consumAt",
          "type": "uint256"
        }
      ],
      "name": "ConsumptionLog",
      "type": "event"
    },
    {
      "anonymous": false,
      "inputs": [
        {
          "indexed": false,
          "name": "adrFrom",
          "type": "address"
        },
        {
          "indexed": false,
          "name": "adrTo",
          "type": "address"
        },
        {
          "indexed": false,
          "name": "eVol",
          "type": "uint256"
        },
        {
          "indexed": false,
          "name": "transferAt",
          "type": "uint256"
        }
      ],
      "name": "EnergyTransferLog",
      "type": "event"
    }
  ],
  "bytecode": "0x606060405260038054600160a060020a031990811690915560048054909116905561012c600855341561003157600080fd5b60405160208061104f8339810160405280805160018054600160a060020a03928316600160a060020a0319918216179091556000805433909316929091169190911790555050610fc9806100866000396000f3006060604052600436106100d75763ffffffff60e060020a600035041663074b7c8081146100dc5780630830cfae146101015780630ff372821461012257806313299604146101385780631b45f0e01461014b578063235a4a4f1461018a5780633acca96d1461019d578063557ed1ba146101b05780635a500ecc146101c357806370ed8f24146101d95780638a5cb1b6146102085780638d646b1114610233578063aac12b4b14610252578063bbe4fd5014610265578063bfd1190314610278578063c97460291461029a578063ff1b636d146102ad575b600080fd5b34156100e757600080fd5b6100ef6102c0565b60405190815260200160405180910390f35b341561010c57600080fd5b610120600160a060020a036004351661032a565b005b341561012d57600080fd5b6100ef60043561036d565b341561014357600080fd5b6100ef610612565b341561015657600080fd5b61015e610618565b604051938452602084019290925260408084019190915290151560608301526080909101905180910390f35b341561019557600080fd5b6100ef6106bd565b34156101a857600080fd5b610120610707565b34156101bb57600080fd5b6100ef610862565b34156101ce57600080fd5b610120600435610871565b34156101e457600080fd5b6101ec610911565b604051600160a060020a03909116815260200160405180910390f35b341561021357600080fd5b61021b610920565b60405191825260208201526040908101905180910390f35b341561023e57600080fd5b610120600160a060020a036004351661092a565b341561025d57600080fd5b61012061096e565b341561027057600080fd5b6100ef610b01565b341561028357600080fd5b610120600435600160a060020a0360243516610b05565b34156102a557600080fd5b610120610b71565b34156102b857600080fd5b6101ec610f11565b600454600090600160a060020a031663bdef9d9282604051602001526040518163ffffffff1660e060020a028152600401602060405180830381600087803b151561030a57600080fd5b6102c65a03f1151561031b57600080fd5b50505060405180519150505b90565b60005433600160a060020a03908116911614156100d7576004805473ffffffffffffffffffffffffffffffffffffffff1916600160a060020a0383161790555b50565b6000806000600461037c6106bd565b8114156100d75760026000908152600660205233935073__AdrLib________________________________90632c2fc20e90600080516020610f7e8339815191529086906040516020015260405160e060020a63ffffffff85160281526004810192909252600160a060020a0316602482015260440160206040518083038186803b151561040957600080fd5b6102c65a03f4151561041a57600080fd5b50505060405180519050806104c9575060016000908152600660205273__AdrLib________________________________90632c2fc20e90600080516020610f5e8339815191529086906040516020015260405160e060020a63ffffffff85160281526004810192909252600160a060020a0316602482015260440160206040518083038186803b15156104ad57600080fd5b6102c65a03f415156104be57600080fd5b505050604051805190505b15156104d457600080fd5b60075473__TransactLib___________________________63bc2e368c90918760006040516020015260405160e060020a63ffffffff85160281526004810192909252602482015260440160206040518083038186803b151561053657600080fd5b6102c65a03f4151561054757600080fd5b50505060405180519050915060075473__TransactLib___________________________639e5fd0a99091843060006040516020015260405160e060020a63ffffffff861602815260048101939093526024830191909152600160a060020a0316604482015260640160206040518083038186803b15156105c757600080fd5b6102c65a03f415156105d857600080fd5b50505060405180516007555050600160a060020a03919091166000908152600b602052604090205460058054918302909103905592915050565b60055490565b600754600080803373__SortPLib______________________________63c6742457600b83856040516060015260405160e060020a63ffffffff85160281526004810192909252600160a060020a0316602482015260440160606040518083038186803b151561068757600080fd5b6102c65a03f4151561069857600080fd5b5050506040518051906020018051906020018051979892979196509094509092505050565b600454600090600160a060020a0316633b7104f282604051602001526040518163ffffffff1660e060020a028152600401602060405180830381600087803b151561030a57600080fd5b600080600060056107166106bd565b8114156100d757600354600160a060020a0316151561073457600080fd5b6000600754111561085c57600354600754600160a060020a0390911690636e2855449060006040516040015260405160e060020a63ffffffff841602815260048101919091526024016040805180830381600087803b151561079557600080fd5b6102c65a03f115156107a657600080fd5b5050506040518051906020018051600754929650935073__TransactLib___________________________91639e5fd0a99150863060006040516020015260405160e060020a63ffffffff861602815260048101939093526024830191909152600160a060020a0316604482015260640160206040518083038186803b151561082e57600080fd5b6102c65a03f4151561083f57600080fd5b505050604051805160075550600580548584029081900390915592505b50505050565b600061086c6106bd565b905090565b600161087b6106bd565b8114156100d75760015433600160a060020a03908116911614156100d75760078290554260098190556001547f93e0cabaa551645c58979b9f1e87af3e09f708241c9bdd6468e581ad0651692691600160a060020a039091169084906040518084600160a060020a0316600160a060020a03168152602001838152602001828152602001935050505060405180910390a15b5050565b600454600160a060020a031690565b6007546009549091565b60005433600160a060020a03908116911614156100d7576003805473ffffffffffffffffffffffffffffffffffffffff1916600160a060020a03831617905561036a565b600080600261097b6106bd565b8114156100d75773__SortPLib______________________________6332a76998600b60405160e060020a63ffffffff8416028152600481019190915260240160006040518083038186803b15156109d257600080fd5b6102c65a03f415156109e357600080fd5b5050600354600160a060020a0316159050610afc5760035460009350839250600160a060020a03166398d5fdca83604051604001526040518163ffffffff1660e060020a0281526004016040805180830381600087803b1515610a4557600080fd5b6102c65a03f11515610a5657600080fd5b5050506040518051906020018051600354929550935073__SortPLib______________________________9163c3af64529150600b90600160a060020a0316868660405160e060020a63ffffffff87160281526004810194909452600160a060020a03909216602484015260448301521515606482015260840160006040518083038186803b1515610ae757600080fd5b6102c65a03f41515610af857600080fd5b5050505b505050565b4290565b60005433600160a060020a03908116911614156100d7576000828152600660205260409020805460018101610b3a8382610f20565b506000918252602090912001805473ffffffffffffffffffffffffffffffffffffffff1916600160a060020a03831617905561090d565b60008060006002610b806106bd565b8114156100d7576000935083925073__SortPLib______________________________63e61f7934600b60405160e060020a63ffffffff8416028152600481019190915260240160006040518083038186803b1515610bde57600080fd5b6102c65a03f41515610bef57600080fd5b505050600091505b60026000526006602052600080516020610f7e83398151915254821015610d7d5760026000526006602052600080516020610f7e833981519152805483908110610c3d57fe5b6000918252602082200154600160a060020a031690632fbc0bf190604051604001526040518163ffffffff1660e060020a0281526004016040805180830381600087803b1515610c8c57600080fd5b6102c65a03f11515610c9d57600080fd5b505050604051805190602001805160026000526006602052600080516020610f7e833981519152805493975090955073__SortPLib______________________________9263c3af64529250600b919086908110610cf757fe5b600091825260209091200154600160a060020a0316878760405160e060020a63ffffffff87160281526004810194909452600160a060020a03909216602484015260448301521515606482015260840160006040518083038186803b1515610d5e57600080fd5b6102c65a03f41515610d6f57600080fd5b505060019092019150610bf7565b600091505b60016000526006602052600080516020610f5e83398151915254821015610f085760016000526006602052600080516020610f5e833981519152805483908110610dc857fe5b6000918252602082200154600160a060020a0316906398d5fdca90604051604001526040518163ffffffff1660e060020a0281526004016040805180830381600087803b1515610e1757600080fd5b6102c65a03f11515610e2857600080fd5b505050604051805190602001805160016000526006602052600080516020610f5e833981519152805493975090955073__SortPLib______________________________9263c3af64529250600b919086908110610e8257fe5b600091825260209091200154600160a060020a0316878760405160e060020a63ffffffff87160281526004810194909452600160a060020a03909216602484015260448301521515606482015260840160006040518083038186803b1515610ee957600080fd5b6102c65a03f41515610efa57600080fd5b505060019092019150610d82565b42600a5561085c565b600054600160a060020a031681565b815481835581811511610afc57600083815260209020610afc91810190830161032791905b80821115610f595760008155600101610f45565b509056003e5fec24aa4dc4e5aee2e025e51e1392c72a2500577559fae9665c6d52bd6a318819ef417987f8ae7a81f42cdfb18815282fe989326fbff903d13cf0e03ace29a165627a7a723058209b9c1c47a0b9dddec3e716cc109bea70767d076783e44490ed86feab40f671cc0029",
  "source": "pragma solidity ^0.4.4;\r\n\r\nimport \"./SortPLib.sol\";\r\nimport \"./AdrLib.sol\";\r\nimport \"./TransactLib.sol\";\r\nimport \"./IPV.sol\";\r\nimport \"./IGrid.sol\";\r\nimport \"./IBattery.sol\";\r\nimport \"./IHouse.sol\";\r\nimport \"./GeneralDevice.sol\";\r\n\r\ncontract SingleHouse is GeneralDevice, IHouse {\r\n  // one contract is associated to one particular House in the network.\r\n\r\n  using AdrLib for address[];\r\n  using TransactLib for uint;\r\n  using SortPLib for *;\r\n\r\n  SortPLib.PriceMap draftPriceMap;\r\n\r\n// ======= Modifiers =======\r\n\r\n\r\n// ======= Event Logs =======\r\n\r\n  event ConsumptionLog(address adr, uint consum, uint consumAt);\r\n  //event ConfigurationLog(string confMod, uint statusAt);\r\n  event EnergyTransferLog(address adrFrom, address adrTo, uint eVol, uint transferAt);\r\n\r\n// ======= Basic Functionalities =======\r\n\r\n  // --- 0. Upon contract creation and configuration ---\r\n\r\n  function SingleHouse (address adr) GeneralDevice(adr) { }\r\n  \r\n  // --- 1. set and get house consumption every 15 min (or less) ---\r\n\r\n  function setConsumption(uint consum) public timed(1) ownerOnly { //\r\n    consumption = consum;\r\n    consumStatusAt = now;\r\n    ConsumptionLog(owner, consumption, consumStatusAt);\r\n  }\r\n\r\n  function getConsumption() external view  returns (uint consum, uint consumAt) { //timed(consumTimeOut)\r\n    consum = consumption;\r\n    consumAt = consumStatusAt;\r\n  }\r\n\r\n  // --- 2. ask for connected PV / batteries / grid for price of electricity supply ---\r\n\r\n  function askForPrice() timed(2) {\r\n    uint tP = 0;\r\n    bool tF = false;\r\n    draftPriceMap.initPrsTable();\r\n    for (i = 0; i < connectedDevice[2].length; i++) {\r\n      (tP,tF) = IBattery(connectedDevice[2][i]).getSalePrice(); \r\n      draftPriceMap.addToPrsTable(connectedDevice[2][i],tP,tF);\r\n    }\r\n    for (uint i = 0; i < connectedDevice[1].length; i++) {\r\n      (tP,tF) = IPV(connectedDevice[1][i]).getPrice();\r\n      draftPriceMap.addToPrsTable(connectedDevice[1][i],tP,tF);\r\n    }\r\n    lastPriceQueryAt = now;\r\n  }\r\n\r\n  // --- 3. House sorts all the information internally ---\r\n\r\n  function sortPrice() timed(2) {\r\n    draftPriceMap.sortPrsTable();\r\n    // if the grid is connected -> add the price from the grid to the end of the sorted list \r\n    if (grid != 0x0) {\r\n      uint tP = 0;\r\n      bool tF = false;\r\n      (tP,tF) = IGrid(grid).getPrice();\r\n      draftPriceMap.addToPrsTable(grid,tP,tF);\r\n    }\r\n  }\r\n\r\n  function getSortedPrice() external returns(uint consum, uint rank, uint tot, bool updated) {\r\n    address adr = msg.sender;\r\n    consum = consumption;\r\n    (rank,tot,updated) = draftPriceMap.getPrsTable(adr);\r\n  }\r\n\r\n  // --- 4. PV/Battery ask House to confirm energy transaction ---\r\n\r\n  function goNoGo(uint giveoutvol) timed(4) returns (uint) {\r\n    address adrDevice = msg.sender;\r\n    uint takeoutvol;\r\n    require(connectedDevice[2].assertInside(adrDevice) || connectedDevice[1].assertInside(adrDevice));\r\n    takeoutvol = consumption.findMin(giveoutvol);\r\n    consumption = consumption.clearEnergyTransfer(takeoutvol, address(this));\r\n    //EnergyTransferLog(adrDevice,address(this), takeoutvol, consumption);\r\n    //wallet = wallet.clearMoneyTransfer(-int(takeoutvol*priceQueryInfo[adrDevice].prs), adrDevice);\r\n    wallet -= int(takeoutvol*draftPriceMap.prsTable[adrDevice].prs);\r\n    return (takeoutvol); \r\n  }\r\n\r\n  // --- 5. If house still has energy demand, ask grid for energy ---\r\n\r\n  function buyExtra() timed(5) {\r\n    // when houses still have extra needs...\r\n    uint whatDeviceAccept;\r\n    uint receivedMoney;\r\n    uint unitPrs;\r\n    require(grid != 0x0);\r\n    if (consumption > 0) {\r\n      (whatDeviceAccept, unitPrs) = IGrid(grid).goExtra(consumption);\r\n      consumption = consumption.clearEnergyTransfer(whatDeviceAccept, address(this));\r\n      receivedMoney = whatDeviceAccept*unitPrs;\r\n      wallet -= int(receivedMoney);\r\n    }\r\n  }\r\n\r\n\r\n  // ------------Functions used in testing------------------\r\n/*\r\n  function getSortedPriceList (uint _id) returns (address) {\r\n    return sortedPriceQueryInfo[_id];\r\n  }\r\n\r\n  function getAskedPrice(address adr) returns (uint,bool) {\r\n    return (priceQueryInfo[adr].prs,priceQueryInfo[adr].updated) ;\r\n  }\r\n\r\n  function askForPricePV(uint i) returns (uint,bool) {\r\n    return IPV(connectedDevice[1][i]).getPrice();\r\n  }\r\n\r\n  function askForPriceB(uint i) returns (uint,bool) {\r\n    return IBattery(connectedDevice[2][i]).getSalePrice();\r\n  }\r\n  */\r\n\r\n  /*function getConnectPVAddress(uint a) returns (address) {\r\n      return connectedDevice[1][a];\r\n  }\r\n\r\n  function getDraftPrsMap(address adr) public view returns (uint, bool) {\r\n    return (draftPriceMap.prsTable[adr].prs, draftPriceMap.prsTable[adr].updated);\r\n  }\r\n  function getSrtPosition(address adr) public returns (uint, uint, bool) {\r\n    return draftPriceMap.getPrsTable(adr);\r\n  }\r\n\r\n  function getSrtList(uint a) public returns(address, uint, bool) { //address, uint, bool\r\n    return draftPriceMap.getSortedList(a);\r\n  }*/\r\n\r\n  function getTime() returns (uint) {\r\n    return getTimerStatus();\r\n  }\r\n\r\n  function getNow() returns (uint) {\r\n    return now;\r\n  }\r\n}\r\n",
  "sourcePath": "C:\\Users\\qianc\\Documents\\Thesis\\Code\\SimpleMonitor\\contracts\\SingleHouse.sol",
  "compiler": {
    "name": "solc",
    "version": "0.4.18+commit.9cf6e910.Emscripten.clang"
  },
  "schemaVersion": "1.0.1",
  "updatedAt": "2017-11-29T03:11:33.870Z"
}