{
  "contractName": "SortLib",
  "abi": [
    {
      "constant": false,
      "inputs": [
        {
          "name": "self",
          "type": "SortLib.PriceTF[] storage"
        },
        {
          "name": "_id",
          "type": "uint256"
        }
      ],
      "name": "del",
      "outputs": [],
      "payable": false,
      "stateMutability": "nonpayable",
      "type": "function"
    },
    {
      "constant": false,
      "inputs": [
        {
          "name": "_prm",
          "type": "SortLib.PriceMap storage"
        },
        {
          "name": "_id1",
          "type": "uint256"
        },
        {
          "name": "_id2",
          "type": "uint256"
        }
      ],
      "name": "swap",
      "outputs": [],
      "payable": false,
      "stateMutability": "nonpayable",
      "type": "function"
    },
    {
      "constant": false,
      "inputs": [
        {
          "name": "_prm",
          "type": "SortLib.PriceMap storage"
        }
      ],
      "name": "sortPrsTable",
      "outputs": [],
      "payable": false,
      "stateMutability": "nonpayable",
      "type": "function"
    },
    {
      "constant": false,
      "inputs": [
        {
          "name": "_prm",
          "type": "SortLib.PriceMap storage"
        }
      ],
      "name": "initPrsTable",
      "outputs": [],
      "payable": false,
      "stateMutability": "nonpayable",
      "type": "function"
    },
    {
      "constant": false,
      "inputs": [
        {
          "name": "_prm",
          "type": "SortLib.PriceMap storage"
        },
        {
          "name": "_adr",
          "type": "address"
        },
        {
          "name": "_p",
          "type": "uint256"
        },
        {
          "name": "_tf",
          "type": "bool"
        }
      ],
      "name": "addToPrsTable",
      "outputs": [],
      "payable": false,
      "stateMutability": "nonpayable",
      "type": "function"
    },
    {
      "constant": false,
      "inputs": [
        {
          "name": "_prm",
          "type": "SortLib.PriceMap storage"
        },
        {
          "name": "a",
          "type": "uint256"
        }
      ],
      "name": "getSortedList",
      "outputs": [
        {
          "name": "adr",
          "type": "address"
        },
        {
          "name": "p",
          "type": "uint256"
        },
        {
          "name": "tF",
          "type": "bool"
        }
      ],
      "payable": false,
      "stateMutability": "nonpayable",
      "type": "function"
    },
    {
      "constant": false,
      "inputs": [
        {
          "name": "_prm",
          "type": "SortLib.PriceMap storage"
        },
        {
          "name": "_adr",
          "type": "address"
        }
      ],
      "name": "getPrsTable",
      "outputs": [
        {
          "name": "",
          "type": "uint256"
        }
      ],
      "payable": false,
      "stateMutability": "nonpayable",
      "type": "function"
    },
    {
      "constant": false,
      "inputs": [
        {
          "name": "self",
          "type": "SortLib.PriceTF[] storage"
        }
      ],
      "name": "maxStruct",
      "outputs": [
        {
          "name": "ind",
          "type": "uint256"
        }
      ],
      "payable": false,
      "stateMutability": "nonpayable",
      "type": "function"
    }
  ],
  "bytecode": "0x6060604052341561000f57600080fd5b61063c8061001e6000396000f30060606040526004361061008d5763ffffffff7c010000000000000000000000000000000000000000000000000000000060003504166343168c1b81146100925780634668a903146100a25780635945fd7c146100b357806362f50213146100be5780638092f368146100c9578063a0decdb8146100e8578063b08ac9cc14610126578063f27da5681461014f575b600080fd5b6100a060043560243561015a565b005b6100a0600435602435604435610242565b6100a06004356102a5565b6100a06004356103ed565b6100a0600435600160a060020a036024351660443560643515156103fe565b6100f66004356024356104ae565b604051600160a060020a039093168352602083019190915215156040808301919091526060909101905180910390f35b61013d600435600160a060020a03602435166104e5565b60405190815260200160405180910390f35b61013d600435610542565b8154811461020157818181548110151561017057fe5b600091825260208220600290910201908155600101805460ff1916905581548290600019810190811061019f57fe5b906000526020600020906002020182828154811015156101bb57fe5b6000918252602090912082546002909202019081556001918201549101805460ff191660ff909216151591909117905581546101fb8360001983016105bf565b5061023e565b818181548110151561020f57fe5b600091825260208220600290910201908155600101805460ff19169055815461023c8360001983016105bf565b505b5050565b600082821461029f57506000828152600184016020526040808220805484845291909220805473ffffffffffffffffffffffffffffffffffffffff19808416600160a060020a039283161790945581549093169290911691821790555b50505050565b60008060018180805b866002015484101561035557600084815260018089016020908152604080842054600160a060020a03168452908a90529091205496509394508493840192505b866002015460010183101561033f576000838152600188016020908152604080832054600160a060020a0316835290899052902054915085821015610334578195508294505b6001909201916102ee565b61034a878587610242565b6001909301926102ae565b6003870154156103e457506001925060005b86600301548760020154016001018410156103e457600084815260018089016020908152604080842054600160a060020a03168452908a9052909120015460ff1615156103cc5780806001019150506103c7878589600201548401610242565b6103d9565b6103d98785838703610242565b600190930192610367565b50505050505050565b600060028201819055600390910155565b604080519081016040908152838252821515602080840191909152600160a060020a038616600090815290879052208151815560208201516001918201805460ff19169115159190911790556002860180549091019055508015156104695760038401805460010190555b50506002820154600090815260019092016020526040909120805473ffffffffffffffffffffffffffffffffffffffff1916600160a060020a03909216919091179055565b600090815260018281016020908152604080842054600160a060020a03168085529490915290912080549101549192909160ff1690565b6000805b83600201546001018160ff1610156105365760ff81166000908152600185016020526040902054600160a060020a038481169116141561052e578060ff16915061053b565b6001016104e9565b600091505b5092915050565b600080808080805b86548210156105b457868281548110151561056157fe5b600091825260209091206002909102015490508381106105a957809350819450868281548110151561058f57fe5b600091825260209091206001600290920201015460ff1692505b60019091019061054a565b509295945050505050565b81548183558181151161023c5760008381526020902061023c9161060d9160029182028101918502015b80821115610609576000815560018101805460ff191690556002016105e9565b5090565b905600a165627a7a72305820528756ae1305bab21176afbe290e1fa9b7ade52dd7af96487c67800f7df4c43a0029",
  "source": "pragma solidity ^0.4.4;\n\nlibrary SortLib {\n\n  struct PriceTF {\n    uint  prs;\n    bool  updated;\n  }\n\n  struct PriceMap {\n    mapping(address=>PriceTF) prsTable;\n    mapping(uint=>address) sortedPrs;\n    //PriceTF[] prepPrs;\n    uint totalLength;\n    uint fLength;\n  } \n\n  function initPrsTable(PriceMap storage _prm) {\n    //_prm.prepPrs = new PriceTF[](0);\n    _prm.totalLength = 0;\n    _prm.fLength = 0;\n  }\n\n  function addToPrsTable(PriceMap storage _prm, address _adr, uint _p, bool _tf) {\n    _prm.prsTable[_adr] = PriceTF(_p,_tf);\n    //_prm.prepPrs.push(PriceTF(_p,_tf));\n    _prm.totalLength++;\n    if (_tf == false) {\n      _prm.fLength++;\n    }\n    _prm.sortedPrs[_prm.totalLength] = _adr;\n  }\n\n  function getPrsTable(PriceMap storage _prm, address _adr) returns (uint) {\n    for (var i = 0; i < _prm.totalLength+1; i++) {\n      if (_adr == _prm.sortedPrs[i]) {\n        return i;\n      }\n    } \n    return 0;\n  }\n\n  function getSortedList(PriceMap storage _prm, uint a) returns(address adr, uint p, bool tF) {\n    adr = _prm.sortedPrs[a];\n    p = _prm.prsTable[_prm.sortedPrs[a]].prs;\n    tF = _prm.prsTable[_prm.sortedPrs[a]].updated;\n  }\n\n  function sortPrsTable(PriceMap storage _prm) {\n    uint minTemp;\n    uint _id;\n    //bool _stat = true;\n    // sort the price list according to the price\n    for (uint i = 1; i < _prm.totalLength; i++) {\n      minTemp = _prm.prsTable[_prm.sortedPrs[i]].prs; \n      _id = i;\n      for (uint j = i+1; j < _prm.totalLength+1; j++) {\n        var p = _prm.prsTable[_prm.sortedPrs[j]].prs;\n        if (p < minTemp) {\n          minTemp = p;\n          _id = j;\n        }\n      }\n      swap(_prm,i,_id);\n    }\n    // put the non-updated price (if exists, false) to the end of the list\n    if (_prm.fLength != 0) {\n      uint nF = 0;\n      for (i = 1; i < _prm.totalLength + _prm.fLength+1; i++) {\n        if (_prm.prsTable[_prm.sortedPrs[i]].updated == false) {\n          nF++;\n          swap(_prm,i,nF+_prm.totalLength);\n        } else {\n          swap(_prm,i,i-nF);\n        }\n      }\n    }\n  }\n\n  function maxStruct(PriceTF[] storage self) returns (uint ind) {\n    uint _id;\n    uint max;\n    bool stat;\n    for (uint i = 0; i < self.length; i++) {\n      var x = self[i].prs;\n      if (x >= max) { // Small perference to put houses before battery.\n        max = x;\n        _id = i;\n        stat = self[i].updated;\n      } /*else if (x == max && self[i].updated == false) {\n        max = x;\n        _id = i;\n        stat = self[i].updated;\n      }*/\n    }\n    ind = _id;\n  }\n\n  function del (PriceTF[] storage self, uint _id) {\n    if (_id != self.length) {\n      delete self[_id];\n      self[_id] = self[self.length-1];\n      self.length--;\n    } else {\n      delete self[_id];\n      self.length--;\n    }\n  }\n\n  function swap (PriceMap storage _prm, uint _id1, uint _id2) {\n    if (_id1 != _id2) {\n      address temp;\n      temp = _prm.sortedPrs[_id1];\n      _prm.sortedPrs[_id1] = _prm.sortedPrs[_id2];\n      _prm.sortedPrs[_id2] = temp;   \n    }\n  }\n}\n",
  "sourcePath": "C:\\Users\\qianc\\Documents\\Thesis\\Code\\SimpleMonitor\\contracts\\SortLib.sol",
  "compiler": {
    "name": "solc",
    "version": "0.4.18+commit.9cf6e910.Emscripten.clang"
  },
  "schemaVersion": "1.0.1",
  "updatedAt": "2017-11-27T15:20:11.510Z"
}