{
  "contractName": "SortRLib",
  "abi": [
    {
      "constant": false,
      "inputs": [
        {
          "name": "self",
          "type": "SortRLib.Request[] storage"
        },
        {
          "name": "_id",
          "type": "uint256"
        }
      ],
      "name": "del",
      "outputs": [],
      "payable": false,
      "type": "function",
      "stateMutability": "nonpayable"
    },
    {
      "constant": false,
      "inputs": [
        {
          "name": "self",
          "type": "SortRLib.Request[] storage"
        }
      ],
      "name": "minStruct",
      "outputs": [
        {
          "name": "ind",
          "type": "uint256"
        }
      ],
      "payable": false,
      "type": "function",
      "stateMutability": "nonpayable"
    }
  ],
  "bytecode": "0x6060604052341561000f57600080fd5b6103cc8061001e6000396000f30060606040526004361061004b5763ffffffff7c0100000000000000000000000000000000000000000000000000000000600035041663b57627708114610050578063f37de02514610060575b600080fd5b61005e60043560243561007d565b005b61006b60043561015d565b60405190815260200160405180910390f35b8154811461011c57818181548110151561009357fe5b60009182526020822060039091020181815560018101829055600201558154829060001981019081106100c257fe5b906000526020600020906003020182828154811015156100de57fe5b60009182526020909120825460039092020190815560018083015490820155600291820154910155815461011683600019830161034e565b50610159565b818181548110151561012a57fe5b6000918252602082206003909102018181556001810182905560020155815461015783600019830161034e565b505b5050565b600080600080600080600087600081548110151561017757fe5b906000526020600020906003020160000154945087600081548110151561019a57fe5b90600052602060002090600302016001015493508760008154811015156101bd57fe5b9060005260206000209060030201600201549250600091505b87548210156103425787828154811015156101ed57fe5b90600052602060002090600302016001015490508381101561025857819550809350878281548110151561021d57fe5b9060005260206000209060030201600001549450878281548110151561023f57fe5b9060005260206000209060030201600201549250610337565b838114156103375782888381548110151561026f57fe5b906000526020600020906003020160020154101561029b57819550809350878281548110151561021d57fe5b8288838154811015156102aa57fe5b9060005260206000209060030201600201541480156102e757508488838154811015156102d357fe5b906000526020600020906003020160000154105b1561033757819550809350878281548110151561030057fe5b9060005260206000209060030201600001549450878281548110151561032257fe5b90600052602060002090600302016002015492505b6001909101906101d6565b50939695505050505050565b815481835581811511610157576000838152602090206101579161039d9160039182028101918502015b80821115610399576000808255600182018190556002820155600301610378565b5090565b905600a165627a7a723058200abdc0f8e45511744943072f0274ddf7b257e08182a4c2f9635946ea8dfa25e50029",
  "source": "pragma solidity ^0.4.4;\n\nlibrary SortRLib {\n\n  struct Request {\n    uint  consump;\n    uint  rank;\n    uint  total;\n  } \n\n  function minStruct(Request[] storage self) returns (uint ind) {\n    uint _id;\n    uint con = self[0].consump;\n    uint min = self[0].rank;\n    uint tot = self[0].total;\n    for (uint i = 0; i < self.length; i++) {\n      var x = self[i].rank;\n      if (x < min) {\n        _id = i;\n        min = x;\n        con = self[i].consump;\n        tot = self[i].total;\n      } else if (x == min) {\n        if (self[i].total < tot) {\n          _id = i;\n          min = x;\n          con = self[i].consump;\n          tot = self[i].total;\n        } else if (self[i].total == tot && self[i].consump < con) {\n          _id = i;\n          min = x;\n          con = self[i].consump;\n          tot = self[i].total;          \n        }        \n      }\n    }\n    ind = _id;\n  }\n\n  function del (Request[] storage self, uint _id) {\n    if (_id != self.length) {\n      delete self[_id];\n      self[_id] = self[self.length-1];\n      self.length--;\n    } else {\n      delete self[_id];\n      self.length--;\n    }\n  }\n}",
  "sourcePath": "C:\\Users\\qianc\\Documents\\Thesis\\Code\\SimpleMonitor\\contracts\\SortRLib.sol",
  "compiler": {
    "name": "solc",
    "version": "0.4.18+commit.9cf6e910.Emscripten.clang"
  },
  "schemaVersion": "1.0.1",
  "updatedAt": "2017-11-08T17:16:34.565Z"
}