{
  "contractName": "SortRLib",
  "abi": [
    {
      "constant": false,
      "inputs": [
        {
          "name": "_rnk",
          "type": "SortRLib.RankMap storage"
        }
      ],
      "name": "sortRnkTable",
      "outputs": [],
      "payable": false,
      "stateMutability": "nonpayable",
      "type": "function"
    },
    {
      "constant": false,
      "inputs": [
        {
          "name": "_rnk",
          "type": "SortRLib.RankMap storage"
        },
        {
          "name": "_id1",
          "type": "uint256"
        },
        {
          "name": "_id2",
          "type": "uint256"
        }
      ],
      "name": "swap",
      "outputs": [],
      "payable": false,
      "stateMutability": "nonpayable",
      "type": "function"
    },
    {
      "constant": false,
      "inputs": [
        {
          "name": "_rnk",
          "type": "SortRLib.RankMap storage"
        },
        {
          "name": "a",
          "type": "uint256"
        }
      ],
      "name": "getSortedList",
      "outputs": [
        {
          "name": "adr",
          "type": "address"
        },
        {
          "name": "consum",
          "type": "uint256"
        },
        {
          "name": "rank",
          "type": "uint256"
        },
        {
          "name": "tot",
          "type": "uint256"
        }
      ],
      "payable": false,
      "stateMutability": "nonpayable",
      "type": "function"
    },
    {
      "constant": false,
      "inputs": [
        {
          "name": "_rnk",
          "type": "SortRLib.RankMap storage"
        }
      ],
      "name": "initRnkTable",
      "outputs": [],
      "payable": false,
      "stateMutability": "nonpayable",
      "type": "function"
    },
    {
      "constant": false,
      "inputs": [
        {
          "name": "_rnk",
          "type": "SortRLib.RankMap storage"
        },
        {
          "name": "_adr",
          "type": "address"
        },
        {
          "name": "_consum",
          "type": "uint256"
        },
        {
          "name": "_rk",
          "type": "uint256"
        },
        {
          "name": "_tot",
          "type": "uint256"
        }
      ],
      "name": "addToRnkTable",
      "outputs": [],
      "payable": false,
      "stateMutability": "nonpayable",
      "type": "function"
    }
  ],
  "bytecode": "0x6060604052341561000f57600080fd5b6104318061001e6000396000f30060606040526004361061006c5763ffffffff7c0100000000000000000000000000000000000000000000000000000000600035041663534e191881146100715780637fcdb6b01461007e578063918710921461008f578063e6f37de9146100da578063ef61a139146100e5575b600080fd5b61007c600435610105565b005b61007c6004356024356044356102c2565b61009d600435602435610325565b6040518085600160a060020a0316600160a060020a0316815260200184815260200183815260200182815260200194505050505060405180910390f35b61007c600435610361565b61007c600435600160a060020a036024351660443560643560843561036b565b6000808080808080805b60018960020154038310156102b757600083815260018a81016020908152604080842054600160a060020a03168452908c90528220805481830154600290920154969b509950975093955093508792830191505b88600201548210156102a1575060008181526001808a016020908152604080842054600160a060020a03168452908b90529091200154858110156101aa5760019350610252565b8581141561025257600082815260018a016020908152604080832054600160a060020a03168352908b9052902060020154859010156101ec5760019350610252565b600082815260018a016020908152604080832054600160a060020a03168352908b9052902060020154851480156102485750600082815260018a016020908152604080832054600160a060020a03168352908b90529020548790105b1561025257600193505b6001841515141561029657600082815260018a016020908152604080832054600160a060020a03168352908b90529020805460029091015492985096509450925085845b600190910190610163565b6102ac89848a6102c2565b60019092019161010f565b505050505050505050565b600082821461031f57506000828152600184016020526040808220805484845291909220805473ffffffffffffffffffffffffffffffffffffffff19808416600160a060020a039283161790945581549093169290911691821790555b50505050565b600090815260018281016020908152604080842054600160a060020a031680855294909152909120805491810154600290910154929391929091565b6000600290910155565b606060405190810160409081528482526020808301859052818301849052600160a060020a0387166000908152908890522081518155602082015181600101556040820151600291820155860180546000908152600197880160205260409020805473ffffffffffffffffffffffffffffffffffffffff1916600160a060020a0397909716969096179095555050825490930190915550505600a165627a7a723058206401a481d5cc4849fc7230929ee4b400af3bbbfa216c68e1c8774624e4ce08880029",
  "source": "pragma solidity ^0.4.4;\n\nlibrary SortRLib {\n\n  struct Rank {\n    uint  consump;\n    uint  rank;\n    uint  total;\n  }\n\n  struct RankMap {\n    mapping(address=>Rank) rnkTable;\n    mapping(uint=>address) sortedRnk;\n    uint totalLength;\n  }\n\n  function initRnkTable(RankMap storage _rnk) {\n    _rnk.totalLength = 0;\n  }\n\n  function addToRnkTable(RankMap storage _rnk, address _adr, uint _consum, uint _rk, uint _tot) {\n    _rnk.rnkTable[_adr] = Rank(_consum,_rk,_tot);\n    //_rnk.prepPrs.push(PriceTF(_p,_tf));\n    _rnk.sortedRnk[_rnk.totalLength] = _adr;\n    _rnk.totalLength++;\n  }\n\n  function sortRnkTable(RankMap storage _rnk) {\n    uint _id;\n    uint con;\n    uint rk;\n    uint tot;\n    bool tf;\n\n    for (uint i = 0; i < _rnk.totalLength-1; i++) {\n      _id = i;\n      con = _rnk.rnkTable[_rnk.sortedRnk[i]].consump;\n      rk = _rnk.rnkTable[_rnk.sortedRnk[i]].rank;\n      tot = _rnk.rnkTable[_rnk.sortedRnk[i]].total;\n      tf = false;\n      for (uint j = i+1; j < _rnk.totalLength; j++) {\n        var r = _rnk.rnkTable[_rnk.sortedRnk[j]].rank;\n        if (r < rk) {\n          tf = true;\n        } else if (r == rk) {\n          if (_rnk.rnkTable[_rnk.sortedRnk[j]].total < tot) {\n            tf = true;\n          } else if (_rnk.rnkTable[_rnk.sortedRnk[j]].total == tot && _rnk.rnkTable[_rnk.sortedRnk[j]].consump < con) {\n            tf = true;   \n          }\n        }\n        if (tf == true) {\n          _id = j;\n          con = _rnk.rnkTable[_rnk.sortedRnk[j]].consump;\n          rk = r;\n          tot = _rnk.rnkTable[_rnk.sortedRnk[j]].total;  \n        }\n      }\n      swap(_rnk,i,_id);\n    }\n  }\n\n  function swap (RankMap storage _rnk, uint _id1, uint _id2) {\n    if (_id1 != _id2) {\n      address temp;\n      temp = _rnk.sortedRnk[_id1];\n      _rnk.sortedRnk[_id1] = _rnk.sortedRnk[_id2];\n      _rnk.sortedRnk[_id2] = temp;   \n    }\n  }\n\n  function getSortedList(RankMap storage _rnk, uint a) returns(address adr, uint consum, uint rank, uint tot) {\n    adr = _rnk.sortedRnk[a];\n    consum = _rnk.rnkTable[_rnk.sortedRnk[a]].consump;\n    rank = _rnk.rnkTable[_rnk.sortedRnk[a]].rank;\n    tot = _rnk.rnkTable[_rnk.sortedRnk[a]].total;\n  }\n}",
  "sourcePath": "C:\\Users\\qianc\\Documents\\Thesis\\Code\\SimpleMonitor\\contracts\\SortRLib.sol",
  "compiler": {
    "name": "solc",
    "version": "0.4.18+commit.9cf6e910.Emscripten.clang"
  },
  "schemaVersion": "1.0.1",
  "updatedAt": "2017-11-28T21:48:07.992Z"
}