{
  "contractName": "SortLib",
  "abi": [
    {
      "constant": false,
      "inputs": [
        {
          "name": "self",
          "type": "SortLib.PriceTF[] storage"
        },
        {
          "name": "_id",
          "type": "uint256"
        }
      ],
      "name": "del",
      "outputs": [],
      "payable": false,
      "stateMutability": "nonpayable",
      "type": "function"
    },
    {
      "constant": false,
      "inputs": [
        {
          "name": "self",
          "type": "SortLib.PriceTF[] storage"
        }
      ],
      "name": "maxStruct",
      "outputs": [
        {
          "name": "ind",
          "type": "uint256"
        }
      ],
      "payable": false,
      "stateMutability": "nonpayable",
      "type": "function"
    }
  ],
  "bytecode": "0x6060604052341561000f57600080fd5b61025f8061001e6000396000f30060606040526004361061004b5763ffffffff7c010000000000000000000000000000000000000000000000000000000060003504166343168c1b8114610050578063f27da56814610060575b600080fd5b61005e60043560243561007d565b005b61006b600435610165565b60405190815260200160405180910390f35b8154811461012457818181548110151561009357fe5b600091825260208220600290910201908155600101805460ff191690558154829060001981019081106100c257fe5b906000526020600020906002020182828154811015156100de57fe5b6000918252602090912082546002909202019081556001918201549101805460ff191660ff9092161515919091179055815461011e8360001983016101e2565b50610161565b818181548110151561013257fe5b600091825260208220600290910201908155600101805460ff19169055815461015f8360001983016101e2565b505b5050565b600080808080805b86548210156101d757868281548110151561018457fe5b600091825260209091206002909102015490508381106101cc5780935081945086828154811015156101b257fe5b600091825260209091206001600290920201015460ff1692505b60019091019061016d565b509295945050505050565b81548183558181151161015f5760008381526020902061015f916102309160029182028101918502015b8082111561022c576000815560018101805460ff1916905560020161020c565b5090565b905600a165627a7a72305820ac865e6880227c2cc83e9b7ed555221c7c058e5bfbbeecbe39b4892179ec40de0029",
  "source": "pragma solidity ^0.4.4;\n\nlibrary SortLib {\n\n  struct PriceTF {\n    uint  prs;\n    bool  updated;\n  } \n\n  function maxStruct(PriceTF[] storage self) returns (uint ind) {\n    uint _id;\n    uint max;\n    bool stat;\n    for (uint i = 0; i < self.length; i++) {\n      var x = self[i].prs;\n      if (x >= max) { // Small perference to put houses before battery.\n        max = x;\n        _id = i;\n        stat = self[i].updated;\n      } /*else if (x == max && self[i].updated == false) {\n        max = x;\n        _id = i;\n        stat = self[i].updated;\n      }*/\n    }\n    ind = _id;\n  }\n\n  function del (PriceTF[] storage self, uint _id) {\n    if (_id != self.length) {\n      delete self[_id];\n      self[_id] = self[self.length-1];\n      self.length--;\n    } else {\n      delete self[_id];\n      self.length--;\n    }\n  }\n}\n",
  "sourcePath": "C:\\Users\\qianc\\Documents\\Thesis\\Code\\SimpleMonitor\\contracts\\SortLib.sol",
  "compiler": {
    "name": "solc",
    "version": "0.4.18+commit.9cf6e910.Emscripten.clang"
  },
  "schemaVersion": "1.0.1",
  "updatedAt": "2017-11-10T21:31:08.160Z"
}