{
  "contractName": "SortPLib",
  "abi": [
    {
      "constant": false,
      "inputs": [
        {
          "name": "_prm",
          "type": "SortPLib.PriceMap storage"
        }
      ],
      "name": "sortPrsTable",
      "outputs": [],
      "payable": false,
      "stateMutability": "nonpayable",
      "type": "function"
    },
    {
      "constant": false,
      "inputs": [
        {
          "name": "_prm",
          "type": "SortPLib.PriceMap storage"
        },
        {
          "name": "a",
          "type": "uint256"
        }
      ],
      "name": "getSortedList",
      "outputs": [
        {
          "name": "adr",
          "type": "address"
        },
        {
          "name": "p",
          "type": "uint256"
        },
        {
          "name": "tF",
          "type": "bool"
        }
      ],
      "payable": false,
      "stateMutability": "nonpayable",
      "type": "function"
    },
    {
      "constant": false,
      "inputs": [
        {
          "name": "_prm",
          "type": "SortPLib.PriceMap storage"
        },
        {
          "name": "_adr",
          "type": "address"
        },
        {
          "name": "_p",
          "type": "uint256"
        },
        {
          "name": "_tf",
          "type": "bool"
        }
      ],
      "name": "addToPrsTable",
      "outputs": [],
      "payable": false,
      "stateMutability": "nonpayable",
      "type": "function"
    },
    {
      "constant": false,
      "inputs": [
        {
          "name": "_prm",
          "type": "SortPLib.PriceMap storage"
        },
        {
          "name": "_adr",
          "type": "address"
        }
      ],
      "name": "getPrsTable",
      "outputs": [
        {
          "name": "rank",
          "type": "uint256"
        },
        {
          "name": "tot",
          "type": "uint256"
        },
        {
          "name": "updated",
          "type": "bool"
        }
      ],
      "payable": false,
      "stateMutability": "nonpayable",
      "type": "function"
    },
    {
      "constant": false,
      "inputs": [
        {
          "name": "_prm",
          "type": "SortPLib.PriceMap storage"
        }
      ],
      "name": "initPrsTable",
      "outputs": [],
      "payable": false,
      "stateMutability": "nonpayable",
      "type": "function"
    },
    {
      "constant": false,
      "inputs": [
        {
          "name": "_prm",
          "type": "SortPLib.PriceMap storage"
        },
        {
          "name": "_id1",
          "type": "uint256"
        },
        {
          "name": "_id2",
          "type": "uint256"
        }
      ],
      "name": "swap",
      "outputs": [],
      "payable": false,
      "stateMutability": "nonpayable",
      "type": "function"
    }
  ],
  "bytecode": "0x6060604052341561000f57600080fd5b61049a8061001e6000396000f3006060604052600436106100775763ffffffff7c010000000000000000000000000000000000000000000000000000000060003504166332a76998811461007c57806352092fd314610089578063c3af6452146100c7578063c6742457146100e6578063e61f793414610123578063f358879e1461012e575b600080fd5b61008760043561013f565b005b610097600435602435610281565b604051600160a060020a039093168352602083019190915215156040808301919091526060909101905180910390f35b610087600435600160a060020a036024351660443560643515156102b8565b6100fd600435600160a060020a0360243516610367565b604051928352602083019190915215156040808301919091526060909101905180910390f35b6100876004356103fa565b61008760043560243560443561040b565b600080808080805b60018760020154038410156101ed57600084815260018089016020908152604080842054600160a060020a03168452908a90529091205496509394508493840192505b86600201548310156101d7576000838152600188016020908152604080832054600160a060020a031683529089905290205491508582116101cc578195508294505b60019092019161018a565b6101e287858761040b565b600190930192610147565b600387015415610278575060009250825b866003015487600201540184101561027857600084815260018089016020908152604080842054600160a060020a03168452908a9052909120015460ff16151561026057808060010191505061025b87858960020154840161040b565b61026d565b61026d878583870361040b565b6001909301926101fe565b50505050505050565b600090815260018281016020908152604080842054600160a060020a03168085529490915290912080549101549192909160ff1690565b604080519081016040908152838252821515602080840191909152600160a060020a03861660009081529087905220815181556020820151600191909101805460ff1916911515919091179055508015156103195760038401805460010190555b50506002820180546000908152600193840160205260409020805473ffffffffffffffffffffffffffffffffffffffff1916600160a060020a03939093169290921790915580549091019055565b60008080805b85600201548160ff1610156103e35760ff81166000908152600187016020526040902054600160a060020a03868116911614156103db576002860154600160a060020a038616600090815260208890526040902060019081015460ff918401821696509194501691506103f2565b60010161036d565b60028601546000945092508391505b509250925092565b600060028201819055600390910155565b600082821461046857506000828152600184016020526040808220805484845291909220805473ffffffffffffffffffffffffffffffffffffffff19808416600160a060020a039283161790945581549093169290911691821790555b505050505600a165627a7a72305820c69c59a38f2d5a647f7cab429d4e315d2052482a1c688239f774ce7b052361280029",
  "source": "pragma solidity ^0.4.4;\r\n\r\nlibrary SortPLib {\r\n\r\n  struct PriceTF {\r\n    uint  prs;\r\n    bool  updated;\r\n  }\r\n\r\n  struct PriceMap {\r\n    mapping(address=>PriceTF) prsTable;\r\n    mapping(uint=>address) sortedPrs;\r\n    //PriceTF[] prepPrs;\r\n    uint totalLength;\r\n    uint fLength;\r\n  } \r\n\r\n  function initPrsTable(PriceMap storage _prm) {\r\n    //_prm.prepPrs = new PriceTF[](0);\r\n    _prm.totalLength = 0;\r\n    _prm.fLength = 0;\r\n  }\r\n\r\n  function addToPrsTable(PriceMap storage _prm, address _adr, uint _p, bool _tf) {\r\n    _prm.prsTable[_adr] = PriceTF(_p,_tf);\r\n    //_prm.prepPrs.push(PriceTF(_p,_tf));\r\n    if (_tf == false) {\r\n      _prm.fLength++;\r\n    }\r\n    _prm.sortedPrs[_prm.totalLength] = _adr;\r\n    _prm.totalLength++;\r\n  }\r\n\r\n  function getPrsTable(PriceMap storage _prm, address _adr) returns (uint rank, uint tot, bool updated) {\r\n    for (var i = 0; i < _prm.totalLength; i++) {\r\n      if (_adr == _prm.sortedPrs[i]) {\r\n        return (i+1,_prm.totalLength,_prm.prsTable[_adr].updated);\r\n      }\r\n    } \r\n    return (0,_prm.totalLength,false);\r\n  }\r\n\r\n  function getSortedList(PriceMap storage _prm, uint a) returns(address adr, uint p, bool tF) {\r\n    adr = _prm.sortedPrs[a];\r\n    p = _prm.prsTable[_prm.sortedPrs[a]].prs;\r\n    tF = _prm.prsTable[_prm.sortedPrs[a]].updated;\r\n  }\r\n\r\n  function sortPrsTable(PriceMap storage _prm) {\r\n    uint minTemp;\r\n    uint _id;\r\n    //bool _stat = true;\r\n    // sort the price list according to the price\r\n    for (uint i = 0; i < _prm.totalLength-1; i++) {\r\n      minTemp = _prm.prsTable[_prm.sortedPrs[i]].prs; \r\n      _id = i;\r\n      for (uint j = i+1; j < _prm.totalLength; j++) {\r\n        var p = _prm.prsTable[_prm.sortedPrs[j]].prs;\r\n        if (p <= minTemp) {\r\n          minTemp = p;\r\n          _id = j;\r\n        }\r\n      }\r\n      swap(_prm,i,_id);\r\n    }\r\n    // put the non-updated price (if exists, false) to the end of the list\r\n    if (_prm.fLength != 0) {\r\n      uint nF = 0;\r\n      for (i = 0; i < _prm.totalLength + _prm.fLength; i++) {\r\n        if (_prm.prsTable[_prm.sortedPrs[i]].updated == false) {\r\n          nF++;\r\n          swap(_prm,i,nF+_prm.totalLength);\r\n        } else {\r\n          swap(_prm,i,i-nF);\r\n        }\r\n      }\r\n    }\r\n  }\r\n\r\n  function swap (PriceMap storage _prm, uint _id1, uint _id2) {\r\n    if (_id1 != _id2) {\r\n      address temp;\r\n      temp = _prm.sortedPrs[_id1];\r\n      _prm.sortedPrs[_id1] = _prm.sortedPrs[_id2];\r\n      _prm.sortedPrs[_id2] = temp;   \r\n    }\r\n  }\r\n}\r\n",
  "sourcePath": "C:\\Users\\qianc\\Documents\\Thesis\\Code\\SimpleMonitor\\contracts\\SortPLib.sol",
  "compiler": {
    "name": "solc",
    "version": "0.4.18+commit.9cf6e910.Emscripten.clang"
  },
  "schemaVersion": "1.0.1",
  "updatedAt": "2017-11-27T16:12:56.782Z"
}