{
  "contractName": "SortLib",
  "abi": [
    {
      "constant": false,
      "inputs": [
        {
          "name": "_prm",
          "type": "SortLib.PriceMap storage"
        },
        {
          "name": "_id1",
          "type": "uint256"
        },
        {
          "name": "_id2",
          "type": "uint256"
        }
      ],
      "name": "swap",
      "outputs": [],
      "payable": false,
      "stateMutability": "nonpayable",
      "type": "function"
    },
    {
      "constant": false,
      "inputs": [
        {
          "name": "_prm",
          "type": "SortLib.PriceMap storage"
        }
      ],
      "name": "sortPrsTable",
      "outputs": [],
      "payable": false,
      "stateMutability": "nonpayable",
      "type": "function"
    },
    {
      "constant": false,
      "inputs": [
        {
          "name": "_prm",
          "type": "SortLib.PriceMap storage"
        }
      ],
      "name": "initPrsTable",
      "outputs": [],
      "payable": false,
      "stateMutability": "nonpayable",
      "type": "function"
    },
    {
      "constant": false,
      "inputs": [
        {
          "name": "_prm",
          "type": "SortLib.PriceMap storage"
        },
        {
          "name": "_adr",
          "type": "address"
        },
        {
          "name": "_p",
          "type": "uint256"
        },
        {
          "name": "_tf",
          "type": "bool"
        }
      ],
      "name": "addToPrsTable",
      "outputs": [],
      "payable": false,
      "stateMutability": "nonpayable",
      "type": "function"
    },
    {
      "constant": false,
      "inputs": [
        {
          "name": "_prm",
          "type": "SortLib.PriceMap storage"
        },
        {
          "name": "a",
          "type": "uint256"
        }
      ],
      "name": "getSortedList",
      "outputs": [
        {
          "name": "adr",
          "type": "address"
        },
        {
          "name": "p",
          "type": "uint256"
        },
        {
          "name": "tF",
          "type": "bool"
        }
      ],
      "payable": false,
      "stateMutability": "nonpayable",
      "type": "function"
    },
    {
      "constant": false,
      "inputs": [
        {
          "name": "_prm",
          "type": "SortLib.PriceMap storage"
        },
        {
          "name": "_adr",
          "type": "address"
        }
      ],
      "name": "getPrsTable",
      "outputs": [
        {
          "name": "rank",
          "type": "uint256"
        },
        {
          "name": "tot",
          "type": "uint256"
        },
        {
          "name": "updated",
          "type": "bool"
        }
      ],
      "payable": false,
      "stateMutability": "nonpayable",
      "type": "function"
    }
  ],
  "bytecode": "0x6060604052341561000f57600080fd5b61049a8061001e6000396000f3006060604052600436106100775763ffffffff7c01000000000000000000000000000000000000000000000000000000006000350416634668a903811461007c5780635945fd7c1461008f57806362f502131461009a5780638092f368146100a5578063a0decdb8146100c4578063b08ac9cc14610102575b600080fd5b61008d60043560243560443561013f565b005b61008d6004356101a2565b61008d6004356102e4565b61008d600435600160a060020a036024351660443560643515156102f5565b6100d26004356024356103a4565b604051600160a060020a039093168352602083019190915215156040808301919091526060909101905180910390f35b610119600435600160a060020a03602435166103db565b604051928352602083019190915215156040808301919091526060909101905180910390f35b600082821461019c57506000828152600184016020526040808220805484845291909220805473ffffffffffffffffffffffffffffffffffffffff19808416600160a060020a039283161790945581549093169290911691821790555b50505050565b600080808080805b600187600201540384101561025057600084815260018089016020908152604080842054600160a060020a03168452908a90529091205496509394508493840192505b866002015483101561023a576000838152600188016020908152604080832054600160a060020a0316835290899052902054915085821161022f578195508294505b6001909201916101ed565b61024587858761013f565b6001909301926101aa565b6003870154156102db575060009250825b86600301548760020154018410156102db57600084815260018089016020908152604080842054600160a060020a03168452908a9052909120015460ff1615156102c35780806001019150506102be87858960020154840161013f565b6102d0565b6102d0878583870361013f565b600190930192610261565b50505050505050565b600060028201819055600390910155565b604080519081016040908152838252821515602080840191909152600160a060020a03861660009081529087905220815181556020820151600191909101805460ff1916911515919091179055508015156103565760038401805460010190555b50506002820180546000908152600193840160205260409020805473ffffffffffffffffffffffffffffffffffffffff1916600160a060020a03939093169290921790915580549091019055565b600090815260018281016020908152604080842054600160a060020a03168085529490915290912080549101549192909160ff1690565b60008080805b85600201548160ff1610156104575760ff81166000908152600187016020526040902054600160a060020a038681169116141561044f576002860154600160a060020a038616600090815260208890526040902060019081015460ff91840182169650919450169150610466565b6001016103e1565b60028601546000945092508391505b5092509250925600a165627a7a72305820eca8d4856ed038cb023e7e4e66b0ddfe2766f36dfd625f3eac5e21f7133c050b0029",
  "source": "pragma solidity ^0.4.4;\n\nlibrary SortLib {\n\n  struct PriceTF {\n    uint  prs;\n    bool  updated;\n  }\n\n  struct PriceMap {\n    mapping(address=>PriceTF) prsTable;\n    mapping(uint=>address) sortedPrs;\n    //PriceTF[] prepPrs;\n    uint totalLength;\n    uint fLength;\n  } \n\n  function initPrsTable(PriceMap storage _prm) {\n    //_prm.prepPrs = new PriceTF[](0);\n    _prm.totalLength = 0;\n    _prm.fLength = 0;\n  }\n\n  function addToPrsTable(PriceMap storage _prm, address _adr, uint _p, bool _tf) {\n    _prm.prsTable[_adr] = PriceTF(_p,_tf);\n    //_prm.prepPrs.push(PriceTF(_p,_tf));\n    if (_tf == false) {\n      _prm.fLength++;\n    }\n    _prm.sortedPrs[_prm.totalLength] = _adr;\n    _prm.totalLength++;\n  }\n\n  function getPrsTable(PriceMap storage _prm, address _adr) returns (uint rank, uint tot, bool updated) {\n    for (var i = 0; i < _prm.totalLength; i++) {\n      if (_adr == _prm.sortedPrs[i]) {\n        return (i+1,_prm.totalLength,_prm.prsTable[_adr].updated);\n      }\n    } \n    return (0,_prm.totalLength,false);\n  }\n\n  function getSortedList(PriceMap storage _prm, uint a) returns(address adr, uint p, bool tF) {\n    adr = _prm.sortedPrs[a];\n    p = _prm.prsTable[_prm.sortedPrs[a]].prs;\n    tF = _prm.prsTable[_prm.sortedPrs[a]].updated;\n  }\n\n  function sortPrsTable(PriceMap storage _prm) {\n    uint minTemp;\n    uint _id;\n    //bool _stat = true;\n    // sort the price list according to the price\n    for (uint i = 0; i < _prm.totalLength-1; i++) {\n      minTemp = _prm.prsTable[_prm.sortedPrs[i]].prs; \n      _id = i;\n      for (uint j = i+1; j < _prm.totalLength; j++) {\n        var p = _prm.prsTable[_prm.sortedPrs[j]].prs;\n        if (p <= minTemp) {\n          minTemp = p;\n          _id = j;\n        }\n      }\n      swap(_prm,i,_id);\n    }\n    // put the non-updated price (if exists, false) to the end of the list\n    if (_prm.fLength != 0) {\n      uint nF = 0;\n      for (i = 0; i < _prm.totalLength + _prm.fLength; i++) {\n        if (_prm.prsTable[_prm.sortedPrs[i]].updated == false) {\n          nF++;\n          swap(_prm,i,nF+_prm.totalLength);\n        } else {\n          swap(_prm,i,i-nF);\n        }\n      }\n    }\n  }\n\n  function swap (PriceMap storage _prm, uint _id1, uint _id2) {\n    if (_id1 != _id2) {\n      address temp;\n      temp = _prm.sortedPrs[_id1];\n      _prm.sortedPrs[_id1] = _prm.sortedPrs[_id2];\n      _prm.sortedPrs[_id2] = temp;   \n    }\n  }\n}\n",
  "sourcePath": "C:\\Users\\qianc\\Documents\\Thesis\\Code\\SimpleMonitor\\contracts\\SortLib.sol",
  "compiler": {
    "name": "solc",
    "version": "0.4.18+commit.9cf6e910.Emscripten.clang"
  },
  "schemaVersion": "1.0.1",
  "updatedAt": "2017-11-27T16:04:02.507Z"
}