{
  "contractName": "TransactLib",
  "abi": [
    {
      "constant": false,
      "inputs": [
        {
          "name": "currentvol",
          "type": "uint256"
        },
        {
          "name": "delta",
          "type": "uint256"
        },
        {
          "name": "adr",
          "type": "address"
        }
      ],
      "name": "clearExtraTransfer",
      "outputs": [
        {
          "name": "",
          "type": "uint256"
        }
      ],
      "payable": false,
      "stateMutability": "nonpayable",
      "type": "function"
    },
    {
      "constant": false,
      "inputs": [
        {
          "name": "currentvol",
          "type": "uint256"
        },
        {
          "name": "delta",
          "type": "uint256"
        },
        {
          "name": "adr",
          "type": "address"
        }
      ],
      "name": "clearExcessTransfer",
      "outputs": [
        {
          "name": "",
          "type": "uint256"
        }
      ],
      "payable": false,
      "stateMutability": "nonpayable",
      "type": "function"
    },
    {
      "constant": false,
      "inputs": [
        {
          "name": "consump",
          "type": "uint256"
        },
        {
          "name": "delta",
          "type": "uint256"
        },
        {
          "name": "adr",
          "type": "address"
        }
      ],
      "name": "clearEnergyTransfer",
      "outputs": [
        {
          "name": "",
          "type": "uint256"
        }
      ],
      "payable": false,
      "stateMutability": "nonpayable",
      "type": "function"
    },
    {
      "constant": false,
      "inputs": [
        {
          "name": "a",
          "type": "uint256"
        },
        {
          "name": "b",
          "type": "uint256"
        }
      ],
      "name": "findMin",
      "outputs": [
        {
          "name": "c",
          "type": "uint256"
        }
      ],
      "payable": false,
      "stateMutability": "nonpayable",
      "type": "function"
    },
    {
      "constant": false,
      "inputs": [
        {
          "name": "wallet",
          "type": "int256"
        },
        {
          "name": "delta",
          "type": "uint256"
        },
        {
          "name": "adr1",
          "type": "address"
        },
        {
          "name": "adr2",
          "type": "address"
        }
      ],
      "name": "clearMoneyTransfer",
      "outputs": [
        {
          "name": "",
          "type": "int256"
        }
      ],
      "payable": false,
      "stateMutability": "nonpayable",
      "type": "function"
    },
    {
      "anonymous": false,
      "inputs": [
        {
          "indexed": false,
          "name": "adrFrom",
          "type": "address"
        },
        {
          "indexed": false,
          "name": "adrTo",
          "type": "address"
        },
        {
          "indexed": false,
          "name": "eVol",
          "type": "uint256"
        },
        {
          "indexed": false,
          "name": "transferAt",
          "type": "uint256"
        }
      ],
      "name": "EnergyTransferLog",
      "type": "event"
    },
    {
      "anonymous": false,
      "inputs": [
        {
          "indexed": false,
          "name": "adrFrom",
          "type": "address"
        },
        {
          "indexed": false,
          "name": "adrTo",
          "type": "address"
        },
        {
          "indexed": false,
          "name": "mAmount",
          "type": "uint256"
        },
        {
          "indexed": false,
          "name": "transferAt",
          "type": "uint256"
        }
      ],
      "name": "MoneyTransferLog",
      "type": "event"
    }
  ],
  "bytecode": "0x6060604052341561000f57600080fd5b6102e38061001e6000396000f30060606040526004361061006c5763ffffffff7c01000000000000000000000000000000000000000000000000000000006000350416630497a1a98114610071578063994459071461009d5780639e5fd0a9146100b7578063bc2e368c146100d1578063e2992d29146100df575b600080fd5b61008b600435602435600160a060020a03604435166100ff565b60405190815260200160405180910390f35b61008b600435602435600160a060020a0360443516610167565b61008b600435602435600160a060020a03604435166101ce565b61008b600435602435610236565b61008b600435602435600160a060020a036044358116906064351661024f565b600082840393507f27b1bcc11372879417f88a085a6db201c82c35d4bd475b4ca7668c6e317cc4f382338542604051600160a060020a0394851681529290931660208301526040808301919091526060820192909252608001905180910390a1509192915050565b9181019160007f27b1bcc11372879417f88a085a6db201c82c35d4bd475b4ca7668c6e317cc4f333838542604051600160a060020a0394851681529290931660208301526040808301919091526060820192909252608001905180910390a1509192915050565b600082840393507f27b1bcc11372879417f88a085a6db201c82c35d4bd475b4ca7668c6e317cc4f333838542604051600160a060020a0394851681529290931660208301526040808301919091526060820192909252608001905180910390a1509192915050565b6000818310610246575080610249565b50815b92915050565b9282019260007f2febb11723e42e6e6baece42674c453571a7e6be6ca86ce884d1414b36b17bb783838642604051600160a060020a0394851681529290931660208301526040808301919091526060820192909252608001905180910390a1509293925050505600a165627a7a72305820755c91a8d167a9eb92ab079695c69ba7ed3d84e054090056708c81e432e1164f0029",
  "source": "pragma solidity ^0.4.4;\n\nlibrary TransactLib {\n\n  event EnergyTransferLog(address adrFrom, address adrTo, uint eVol, uint transferAt);\n  event MoneyTransferLog(address adrFrom, address adrTo, uint mAmount, uint transferAt);\n\n  /*function calculateHouseReceivedVolume(uint consum, uint giveoutvol) returns (uint takeoutvol) {\n    if (consum >= giveoutvol) { // house should take all what PV gives\n      takeoutvol = giveoutvol;\n    } else {\n      takeoutvol = consum;\n    }\n  }\n\n  function calculatePVGiveoutVolume (uint prod, uint consumvol) returns(uint giveoutvol) {\n    if (prod >= consumvol) {  // PV should give out what they require\n      giveoutvol = consumvol;\n    } else {\n      giveoutvol = prod;\n    }\n  }*/\n\n  // calculateMin...\n  function findMin(uint a, uint b) returns (uint c) {\n    if (a >= b) {\n      c = b;      \n    } else {\n      c = a;      \n    }\n  }\n\n  function clearEnergyTransfer (uint consump, uint delta, address adr) returns (uint) {   // the receiver of energy triggers\n    consump = consump - delta;\n    EnergyTransferLog(msg.sender, adr, delta, now);\n    return consump;\n  }\n\n  function clearMoneyTransfer (int wallet, uint delta, address adr1, address adr2) returns (int) {     // the recevier of money triggers\n    wallet = wallet + int(delta);\n    MoneyTransferLog(adr1, adr2, delta, now);\n    return wallet;\n  }\n\n  function clearExcessTransfer (uint currentvol, uint delta, address adr) returns (uint) {   // the receiver of energy triggers\n    currentvol = currentvol + delta;\n    EnergyTransferLog(msg.sender, adr, delta, now);\n    return currentvol;\n  }\n\n  function clearExtraTransfer (uint currentvol, uint delta, address adr) returns (uint) {   // the receiver of energy triggers\n    currentvol = currentvol - delta;\n    EnergyTransferLog(adr,msg.sender, delta, now);\n    return currentvol;\n  }\n}\n",
  "sourcePath": "C:\\Users\\qianc\\Documents\\Thesis\\Code\\SimpleMonitor\\contracts\\TransactLib.sol",
  "compiler": {
    "name": "solc",
    "version": "0.4.18+commit.9cf6e910.Emscripten.clang"
  },
  "schemaVersion": "1.0.1",
  "updatedAt": "2017-11-29T03:11:33.843Z"
}