{
  "contractName": "TransactLib",
  "abi": [
    {
      "constant": false,
      "inputs": [
        {
          "name": "consum",
          "type": "uint256"
        },
        {
          "name": "giveoutvol",
          "type": "uint256"
        }
      ],
      "name": "calculateHouseReceivedVolume",
      "outputs": [
        {
          "name": "takeoutvol",
          "type": "uint256"
        }
      ],
      "payable": false,
      "stateMutability": "nonpayable",
      "type": "function"
    },
    {
      "constant": false,
      "inputs": [
        {
          "name": "prod",
          "type": "uint256"
        },
        {
          "name": "consumvol",
          "type": "uint256"
        }
      ],
      "name": "calculatePVGiveoutVolume",
      "outputs": [
        {
          "name": "giveoutvol",
          "type": "uint256"
        }
      ],
      "payable": false,
      "stateMutability": "nonpayable",
      "type": "function"
    },
    {
      "constant": false,
      "inputs": [
        {
          "name": "consump",
          "type": "uint256"
        },
        {
          "name": "delta",
          "type": "uint256"
        },
        {
          "name": "adr",
          "type": "address"
        }
      ],
      "name": "clearEnergyTransfer",
      "outputs": [
        {
          "name": "",
          "type": "uint256"
        }
      ],
      "payable": false,
      "stateMutability": "nonpayable",
      "type": "function"
    },
    {
      "constant": false,
      "inputs": [
        {
          "name": "wallet",
          "type": "int256"
        },
        {
          "name": "delta",
          "type": "uint256"
        },
        {
          "name": "adr1",
          "type": "address"
        },
        {
          "name": "adr2",
          "type": "address"
        }
      ],
      "name": "clearMoneyTransfer",
      "outputs": [
        {
          "name": "",
          "type": "int256"
        }
      ],
      "payable": false,
      "stateMutability": "nonpayable",
      "type": "function"
    },
    {
      "anonymous": false,
      "inputs": [
        {
          "indexed": false,
          "name": "adrFrom",
          "type": "address"
        },
        {
          "indexed": false,
          "name": "adrTo",
          "type": "address"
        },
        {
          "indexed": false,
          "name": "eVol",
          "type": "uint256"
        },
        {
          "indexed": false,
          "name": "transferAt",
          "type": "uint256"
        }
      ],
      "name": "EnergyTransferLog",
      "type": "event"
    },
    {
      "anonymous": false,
      "inputs": [
        {
          "indexed": false,
          "name": "adrFrom",
          "type": "address"
        },
        {
          "indexed": false,
          "name": "adrTo",
          "type": "address"
        },
        {
          "indexed": false,
          "name": "mAmount",
          "type": "uint256"
        },
        {
          "indexed": false,
          "name": "transferAt",
          "type": "uint256"
        }
      ],
      "name": "MoneyTransferLog",
      "type": "event"
    }
  ],
  "bytecode": "0x6060604052341561000f57600080fd5b6102098061001e6000396000f3006060604052600436106100615763ffffffff7c0100000000000000000000000000000000000000000000000000000000600035041663345387fc81146100665780636d2a6f01146100665780639e5fd0a914610086578063e2992d29146100ad575b600080fd5b6100746004356024356100da565b60405190815260200160405180910390f35b61007460043560243573ffffffffffffffffffffffffffffffffffffffff604435166100f3565b61007460043560243573ffffffffffffffffffffffffffffffffffffffff60443581169060643516610168565b60008183106100ea5750806100ed565b50815b92915050565b600082840393507f27b1bcc11372879417f88a085a6db201c82c35d4bd475b4ca7668c6e317cc4f33383854260405173ffffffffffffffffffffffffffffffffffffffff94851681529290931660208301526040808301919091526060820192909252608001905180910390a1509192915050565b9282019260007f2febb11723e42e6e6baece42674c453571a7e6be6ca86ce884d1414b36b17bb78383864260405173ffffffffffffffffffffffffffffffffffffffff94851681529290931660208301526040808301919091526060820192909252608001905180910390a1509293925050505600a165627a7a723058200d174bb3c43d7e36ede8efcf622a0704ee23a7e8921f628a9d6c9665226d76230029",
  "source": "pragma solidity ^0.4.4;\n\nlibrary TransactLib {\n\n  event EnergyTransferLog(address adrFrom, address adrTo, uint eVol, uint transferAt);\n  event MoneyTransferLog(address adrFrom, address adrTo, uint mAmount, uint transferAt);\n\n  function calculateHouseReceivedVolume(uint consum, uint giveoutvol) returns (uint takeoutvol) {\n    if (consum >= giveoutvol) { // house should take all what PV gives\n      takeoutvol = giveoutvol;\n    } else {\n      takeoutvol = consum;\n    }\n  }\n\n  function calculatePVGiveoutVolume (uint prod, uint consumvol) returns(uint giveoutvol) {\n    if (prod >= consumvol) {  // PV should give out what they require\n      giveoutvol = consumvol;\n    } else {\n      giveoutvol = prod;\n    }\n  }\n\n  function clearEnergyTransfer (uint consump, uint delta, address adr) returns (uint) {   // the receiver of energy triggers\n    consump = consump - delta;\n    EnergyTransferLog(msg.sender, adr, delta, now);\n    return consump;\n  }\n\n  function clearMoneyTransfer (int wallet, uint delta, address adr1, address adr2) returns (int) {     // the recevier of money triggers\n    wallet = wallet + int(delta);\n    MoneyTransferLog(adr1, adr2, delta, now);\n    return wallet;\n  }\n}\n",
  "sourcePath": "C:\\Users\\qianc\\Documents\\Thesis\\Code\\SimpleMonitor\\contracts\\TransactLib.sol",
  "compiler": {
    "name": "solc",
    "version": "0.4.18+commit.9cf6e910.Emscripten.clang"
  },
  "schemaVersion": "1.0.1",
  "updatedAt": "2017-11-09T21:36:50.160Z"
}